:100000000C94FD000C9425010C9425010C945505CD
:100010000C9455050C9455050C9425010C94250160
:100020000C9425010C9425010C9425010C942501B8
:100030000C9425010C9425010C9425010C942501A8
:100040000C94D50D0C9425010C9423050C94FD04FF
:100050000C9425010C9425010C9425010C94250188
:100060000C94CF050C9425014E414E494E495459EC
:10007000494E46CDCCCC3D0AD7233C17B7D1387773
:10008000CC2B329595E6241FB14F0A000020410089
:1000900000C84200401C4620BCBE4CCA1B0E5AAED3
:1000A000C59D7400407A10F35A00A0724E180900E2
:1000B00010A5D4E80000E87648170000E40B5402CD
:1000C0000000CA9A3B000000E1F505000080969808
:1000D00000000040420F000000A086010000001058
:1000E0002700000000E8030000000064000000009A
:1000F000000A00000000000100000000002C76D87B
:1001000088DC674F0823DFC1DFAE59E1B1B796E560
:10011000E3E453C63AE651997696E8E6C28426EBC4
:10012000898C9B62ED407C6FFCEFBC9C9F40F2BAD7
:10013000A56FA5F490055A2AF75C936B6CF9676D6F
:10014000C11BFCE0E40D47FEF520E6B500D0ED90C4
:100150002E0300943577050080841E080000204E91
:100160000A000000C80C333333330F986E1283112A
:1001700041EF8D2114893BE65516CFFEE6DB18D101
:10018000844B381BF77C1D901DA4BBE424203284D3
:10019000725E228100C9F124ECA1E53D2700000038
:1001A0000023002600290000000000250028002B65
:1001B0000004040404040404040202020202020310
:1001C000030303030301020408102040800102041A
:1001D000081020010204081020000000002400275D
:1001E000002A0000000008000201000003040700CC
:1001F0000000000000000000EA1311241FBECFEF32
:10020000D8E0DEBFCDBF24E0A8E0B2E001C01D927F
:10021000AD33B207E1F712E0A0E0B1E0EAEEFBE3B4
:1002200002C005900D92A830B107D9F710E0CDEFCC
:10023000D0E004C02197FE010E94E91ACC3FD1070B
:10024000C9F70E944C0E0C94F31D0C940000CF9241
:10025000DF92EF92FF920F931F93CF93DF936C0186
:100260007A018B01C0E0D0E0CE15DF0581F0D80126
:100270006D918D01D601ED91FC910190F081E02D01
:10028000C6010995892B11F02196EECF7E01C70199
:10029000DF91CF911F910F91FF90EF90DF90CF9062
:1002A0000895FC01538D448D252F30E0842F90E07C
:1002B000821B930B541710F0CF9608950197089561
:1002C000FC01918D828D981761F0828DDF01A80F5E
:1002D000B11D5D968C91928D9F5F9F73928F90E080
:1002E00008958FEF9FEF0895FC01918D828D9817EF
:1002F00031F0828DE80FF11D858D90E008958FEF2C
:100300009FEF0895FC01918D228D892F90E0805CF4
:100310009F4F821B91098F739927089581E293E083
:100320000E94820121E0892B09F420E0822F0895A8
:10033000FC01848DDF01A80FB11DA35ABF4F2C9182
:10034000848D90E001968F739927848FA689B78951
:100350002C93A089B1898C91837080648C93938D48
:10036000848D981306C00288F389E02D80818F7DEB
:1003700080830895EF92FF920F931F93CF93DF93A3
:10038000EC0181E0888F9B8D8C8D981305C0E889E6
:10039000F989808185FD26C0F62E0B8D10E00F5F58
:1003A0001F4F0F731127E02E8C8DE8120CC00FB673
:1003B00007FCFACFE889F989808185FFF5CFCE0166
:1003C0000E949801F1CF8B8DFE01E80FF11DE35AD9
:1003D000FF4FF0829FB7F8940B8FEA89FB898081E9
:1003E00080620AC09FB7F894EE89FF896083E8892C
:1003F000F98980818370806480839FBF81E090E071
:10040000DF91CF911F910F91FF90EF900895CF93BF
:10041000DF93EC01888D8823C9F0EA89FB8980810C
:1004200085FD05C0A889B9898C9186FD0FC00FB6DE
:1004300007FCF5CF808185FFF2CFA889B9898C911F
:1004400085FFEDCFCE010E949801E7CFDF91CF91DC
:10045000089580E090E0892B29F00E948E0181119F
:100460000C94000008952091CC033091CD032817FF
:10047000390771F49091CA038091CB03981741F02A
:10048000E091CA03F0E0E05BFD4F808190E00895C9
:100490008FEF9FEF089508951F93CF93DF93DC01B3
:1004A0005C968D919C915D97009739F421E030E046
:1004B00013963C932E9312973BC05196ED91FC916D
:1004C000529750962C915097322F30951FB75E96C9
:1004D0004C915E97742F727041FD6095F894408145
:1004E000772311F0422B01C043234083EC01219775
:1004F000F1F748E0508160FF02C0522B01C0532346
:100500005083EC012197F1F76695415099F780816E
:10051000772319F08323808302C0282B20831FBFF9
:100520005C968D919C915D970197F1F781E090E049
:10053000DF91CF911F9108952091CC033091CD038D
:100540002817390771F48091CB032091CA0390E0FA
:10055000805C9F4F821B910960E470E00E94B81A92
:10056000089580E090E008952091CC033091CD0370
:1005700028173907B9F49091CA038091CB039817D3
:1005800089F0E091CA03F0E0E05BFD4F80812091AB
:10059000CA0330E02F5F3F4F2F7333272093CA03E6
:1005A00090E008958FEF9FEF08950895089585EDE9
:1005B0008093BC008091BC0084FDFCCF109220038E
:1005C000089540912B02262F30E0240F311D213257
:1005D0003105DCF4209120032430C9F4FC0180E0D3
:1005E00090E0861758F430912B022191DC01A75F2F
:1005F000BD4FA30FB11D2C930196F3CF80912B0219
:10060000680F60932B0280E0089581E0089582E0F6
:10061000089508950895E0912D0480912C04E81721
:1006200030F4F0E0E652FD4F808190E008958FEFC6
:100630009FEF089590912D0480912C04981750F409
:10064000E92FF0E0E652FD4F208130E09F5F90936C
:100650002D0402C02FEF3FEFC901089580912C04B3
:1006600090E020912D04821B91090895CF92DF9292
:10067000EF92FF920F931F93CF93DF937C01CB01F7
:100680008A012091B602222389F0EB016B01C40E8E
:10069000D51ECC15DD0569F06991D701ED91FC916E
:1006A0000190F081E02DC7010995F3CF642F0E94DE
:1006B000E102C801DF91CF911F910F91FF90EF9060
:1006C000DF90CF900895CF93DF931F92CDB7DEB721
:1006D00069832091B6022223D1F02091D9022032E1
:1006E00040F021E030E0FC013383228380E090E0A1
:1006F00015C08091B702E82FF0E0E854FD4F9981D2
:1007000090838F5F8093B7028093D90205C061E028
:10071000CE0101960E94E10281E090E00F90DF910E
:10072000CF910895089580E090E008950C94661CA0
:100730008F929F92AF92BF92CF92DF92EF92FF92F1
:100740000F931F93CF93DF93CDB7DEB762970FB6AA
:10075000F894DEBF0FBECDBF7C018B0184E2DB01CC
:100760001D928A95E9F784E290E0A0E0B0E0FB01F9
:1007700080839183A283B383F70186819781A085CB
:10078000B185FB0184839583A683B78383E090E0E2
:10079000A0E0B0E080879187A287B3870E94C90D4F
:1007A000D80150966D937D938D939C935397FE0142
:1007B00031968CE0DF011D928A95E9F7AE01435F27
:1007C0005F4F86E0FA0111928A95E9F76AE170E0DD
:1007D000C7010E944A0C6D857E85072E000C880B90
:1007E000990B0E94471920E030E040E85DE30E9449
:1007F000A6194B015C016F857889072E000C880BC8
:10080000990B0E94471920E030E040E85DE30E9428
:10081000A6196B017C0169897A89072E000C880B67
:10082000990B0E94471920E030E040E85DE30E9408
:10083000A619D80154968D929D92AD92BC9257976D
:10084000F801C08ED18EE28EF38E5C966D937D930F
:100850008D939C935F9781E062960FB6F894DEBF0C
:100860000FBECDBFDF91CF911F910F91FF90EF9001
:10087000DF90CF90BF90AF909F908F9008950F938F
:100880001F93CF93DF938C01EB0188E2FB01119260
:100890008A95E9F74BE050E06AE471E0CE010E94EE
:1008A000CA1D1B8681E090E0A0E0B0E08C879D87A8
:1008B000AE87BF87F80186819781A085B185888B37
:1008C000998BAA8BBB8B83E090E0A0E0B0E08C8B8F
:1008D0009D8BAE8BBF8B1CA21DA21EA21FA2188EC9
:1008E000198E1A8E1B8E1C8E1D8E1E8E1F8E8AE0F8
:1008F00097EDA3E2BCE388A399A3AAA3BBA3DF91CE
:10090000CF911F910F9108950F931F93CF93DF9372
:10091000EC0188819981009729F02A813B81261773
:10092000370788F48B016F5F7F4F0E94EF1C0097A1
:1009300061F0998388831B830A832C813D81232B5B
:1009400011F4FC01108281E001C080E0DF91CF91C1
:100950001F910F910895CF93DF93EC0188819981C6
:10096000009711F00E94661C198218821D821C8259
:100970001B821A82DF91CF910895FC0180819181C1
:100980000C94661CEF92FF920F931F93CF93DF930B
:10099000EC01198218821B821A821D821C82611549
:1009A000710521F18B01FB0101900020E9F73197DE
:1009B0007F01E61AF70AB7010E948404811109C079
:1009C000CE01DF91CF911F910F91FF90EF900C948A
:1009D000AB04FD82EC82B80188819981DF91CF91CF
:1009E0001F910F91FF90EF900C94C31DDF91CF9159
:1009F0001F910F91FF90EF9008951F920F920FB6E5
:100A00000F9211242F933F934F935F936F937F9394
:100A10008F939F93AF93BF93EF93FF9381E293E004
:100A20000E949801FF91EF91BF91AF919F918F919B
:100A30007F916F915F914F913F912F910F900FBEDA
:100A40000F901F9018951F920F920FB60F921124BE
:100A50002F938F939F93EF93FF93E0913103F09146
:100A600032038081E0913703F091380382FD12C098
:100A7000908180913A038F5F8F7320913B0382179F
:100A800051F0E0913A03F0E0EF5DFC4F958F8093D9
:100A90003A0301C08081FF91EF919F918F912F9137
:100AA0000F900FBE0F901F9018951F920F920FB6C8
:100AB0000F9211242F933F934F935F936F937F93E4
:100AC0008F939F93AF93BF93EF93FF93E091CC03EA
:100AD000F091CD03309709F451C0968DA685B78566
:100AE000858591FF04C09C91892329F447C09C917E
:100AF000892309F043C0A389B4899C918589809595
:100B000089238C93868997890197F1F7608D718D80
:100B1000A685B785558538E020E0CB010197F1F730
:100B2000822F90E095958795282F4C91452309F0C9
:100B30002068315091F7868D81FD20958091CB03FF
:100B400090E001968F7399273091CA03381749F0C6
:100B5000A091CB03B0E0A05BBD4F2C938093CB035F
:100B600003C0868D8160868F828D938D0197F1F70A
:100B7000A389B4899C918589892B8C93FF91EF91EE
:100B8000BF91AF919F918F917F916F915F914F91A5
:100B90003F912F910F900FBE0F901F9018951F92AD
:100BA0000F920FB60F9211242F933F934F935F93A1
:100BB0006F937F938F939F93AF93BF93EF93FF9325
:100BC0008091B900887F803609F49CC068F588322E
:100BD00009F45BC090F4803109F454C038F48823E0
:100BE00009F4F6C0883009F44DC0F6C0883109F424
:100BF0004CC0803209F45DC0EFC0803409F468C095
:100C000048F4803309F455C0883309F0E5C0809377
:100C10001E03D8C0803509F44FC0883509F45DC083
:100C2000883409F0D9C0D6C0883909F4C7C0A8F4FF
:100C3000883709F467C038F4883609F463C0803710
:100C400009F460C0C9C0883809F4B8C0803909F413
:100C50005FC0803809F0C0C05BC0803B09F486C02B
:100C600038F4803A09F466C0883A09F47FC0B4C009
:100C7000803C09F4A7C0883C09F4A4C0883B09F46F
:100C80008AC0AAC080911B0310C090911D0380915F
:100C90001C03981770F5E0911D0381E08E0F80937F
:100CA0001D03F0E0E650FD4F80818093BB0085EC92
:100CB00086C080931E038EC0E0911D0381E08E0FDD
:100CC00080931D038091BB00F0E0E650FD4F8083D0
:100CD00090911D0380911C036EC0E0911D0381E083
:100CE0008E0F80931D038091BB00F0E0E650FD4F16
:100CF000808380911F0381116DC081E080931A036E
:100D000084EA61C083E08093200310924F02CFCF2A
:100D100080914F02803208F051C0E0914F0281E093
:100D20008E0F80934F028091BB00F0E0E15DFD4F9C
:100D30008083BDCF85EC8093BC001092200380910E
:100D40004F02803230F4E0914F02F0E0E15DFD4F60
:100D5000108260914F0270E0E0912D02F0912E021E
:100D60008FE292E0099510924F0236C084E08093A2
:100D7000200310922C0210922B02E0912902F09194
:100D80002A02099580912B02811105C081E0809390
:100D90002B0210920902E0912C0281E08E0F8093C9
:100DA0002C02F0E0E75FFD4F80818093BB009091C3
:100DB0002C0280912B02981708F479CF85E8809354
:100DC000BC000AC085EC8093BC001092200304C0D4
:100DD00010921E030E94D702FF91EF91BF91AF9135
:100DE0009F918F917F916F915F914F913F912F9143
:100DF0000F900FBE0F901F9018950F931F93CF93D6
:100E0000DF93EC018B0183E090E00E94CE1BFC019C
:100E1000118300831282998388838CB5837F8CBD74
:100E20008CB58F7D8CBD8CB58C7F81608CBD8DB574
:100E300081608DBD1FB7F89480910802811127C091
:100E4000EBEBF1E08491EFECF1E09491E82FF0E02E
:100E5000EE0FFF1FE752FE4FA591B491EC91E923ED
:100E600021F461E08AE00E94F80C61E08AE00E94CF
:100E7000450D8CB580618CBD8CB580648CBD61E006
:100E80008DE00E94450D61E08BE00E94450D809150
:100E900008028F5F809308021FBF0990D881C02D80
:100EA00061E088810E94450D61E088810E94F80C14
:100EB00060E088810E94F80C8A81811102C060E0A4
:100EC00001C061E088810E94F80C81E48EBD0000C1
:100ED0000DB407FEFDCF8EB58FEF8EBD00000DB4B3
:100EE00007FEFDCF8EB58A81811102C061E001C08D
:100EF00060E088810E94F80C61E08881DF91CF91E9
:100F00001F910F910C94F80CCF92DF92EF92FF9209
:100F10009B01245F3F4FFB01C190D190E190F19084
:100F2000BF01FC01C192D192E192F192CF0162170F
:100F3000730789F7FF90EF90DF90CF9008956F923D
:100F40007F928F929F92AF92BF92CF92DF92EF9259
:100F5000FF920F931F93CF93DF93CDB7DEB76297C6
:100F60000FB6F894DEBF0FBECDBF7C01F7018191B3
:100F700091916F018E010F5F1F4F2CE0F8011192CC
:100F80002A95E9F75E01FDE0AF0EB11C26E0F50100
:100F900011922A95E9F7A5016AE170E00E944A0CD6
:100FA0008F84988869887A886D857E85072E000CE5
:100FB000880B990B0E94471920E030E040E85DE380
:100FC0000E94A61969837A838B839C83B401990C50
:100FD000880B990B0E94471920E030E040E85DE360
:100FE0000E94A6196D837E838F839887B301770C47
:100FF000880B990B0E94471920E030E040E85DE340
:101000000E94A61969877A878B879C879801470178
:10101000FEE08F0E911CF90181919191A191B19106
:101020009F01F60181939193A193B1936F01E8150C
:10103000F90589F7F701808191812CE0F80111927F
:101040002A95E9F726E0F50111922A95E9F7A5011D
:1010500068E270E00E944A0CAF84B888C988DA88D8
:101060006D857E85072E000C880B990B0E94471911
:1010700020E030E048EC52E40E945C1B69837A83F4
:101080008B839C83B501BB0C880B990B0E9447197D
:1010900020E030E048EC52E40E945C1B6D837E83CC
:1010A0008F839887B601DD0C880B990B0E94471936
:1010B00020E030E048EC52E40E945C1B69877A87AC
:1010C0008B879C87FAE1EF0EF11CF80181919191D9
:1010D000A191B1918F01F40181939193A193B19367
:1010E0004F01EE15FF0589F762960FB6F894DEBF43
:1010F0000FBECDBFDF91CF911F910F91FF90EF9069
:10110000DF90CF90BF90AF909F908F907F906F9027
:1011100008958F929F92AF92BF92CF92DF92EF92FB
:10112000FF920F931F93CF93DF93CDB7DEB76297F4
:101130000FB6F894DEBF0FBECDBF8C01DC018D91E0
:101140009D917D01FE0131966F012CE0DF011D9222
:101150002A95E9F7AE01435F5F4F26E0FA0111924D
:101160002A95E9F76AE170E00E944A0C8F8498881A
:10117000A988BA886D857E85072E000C880B990B8F
:101180000E94471920E030E040E85DE30E94A61984
:1011900069837A838B839C83B401990C880B990BA8
:1011A0000E94471920E030E040E85DE30E94A61964
:1011B0006D837E838F839887B501BB0C880B990B59
:1011C0000E94471920E030E040E85DE30E94A61944
:1011D00069877A878B879C87F601C8010E964191B3
:1011E000519161917191D7014D935D936D937D9371
:1011F0007D01A817B90799F7F80182859385A48521
:10120000B5854681578160857185428F538F648F84
:10121000758F868F978FA0A3B1A362960FB6F894AF
:10122000DEBF0FBECDBFDF91CF911F910F91FF9019
:10123000EF90DF90CF90BF90AF909F908F900895E8
:10124000EF92FF920F931F93CF93DF938C01FC01DA
:10125000C081D18110922D0410922C041092B702FB
:101260001092D9021092200381E080931F03109204
:101270001A0361E082E10E94F80C61E083E10E94C0
:10128000F80C8091B9008E7F8093B9008091B900ED
:101290008D7F8093B90088E48093B80085E48093C3
:1012A000BC0089E093E090932A02809329028AE0AF
:1012B00093E090932E0280932D02CE010E94BC0CED
:1012C000803A81F460E070E0CE010E94BB0D40E204
:1012D0006FE370E0CE010E94920C6EE170E080E05E
:1012E00090E010C068EE73E080E090E00E94810D15
:1012F000CE010E94BC0C803A29F381E591E00E9466
:10130000970A76C00E94810DCE010E94BC0C803AE3
:1013100029F06AE070E080E090E0F4CF62E370E0F2
:1013200080E090E00E94810D40E06EE370E0CE012D
:101330000E94920C6AE070E080E090E00E94810DD3
:1013400040E067E070E0CE010E94920C40E06FE365
:1013500070E0CE010E94920C6AE070E080E090E0C4
:101360000E94810D6CE070E0CE010E94BB0D64E133
:1013700070E080E090E00E94810D68EE73E080E014
:1013800090E00E94810DF801C081D181EA84FB8444
:1013900060E070E0CE010E94BB0D69E170E080E08A
:1013A00090E00E94810D40E067E070E0CE010E9475
:1013B000920C40E86FE370E0CE010E94920C6AE06C
:1013C00070E080E090E00E94810DB701CE010E94A4
:1013D000BB0D64E170E080E090E00E94810DC801E7
:1013E000DF91CF911F910F91FF90EF900C9489089E
:1013F000FFCF0E94B51DEF92FF920F931F93CF93E3
:10140000DF938C017B016115710569F0FB0101908F
:101410000020E9F73197EF01C61BD70BBE010E94F0
:101420008404811104C0C8010E94AB0408C0F80103
:10143000D583C483B701808191810E94C31DC801F7
:10144000DF91CF911F910F91FF90EF900895CF936F
:10145000DF93FC0124813581232B71F0FB01DC013A
:10146000CD91DC9160817181CE010E94D91D0097E0
:1014700019F08C1B9D0B02C08FEF9FEFDF91CF9176
:101480000895CF93DF93FC014481558141155105A7
:10149000D9F061157105C1F09A016417750708F458
:1014A0009B01EC0188819981421B530B5D834C8326
:1014B000BC01620F731F0E94CA1DE881F9818C81F3
:1014C0009D81E80FF91F1082DF91CF9108950F934E
:1014D0001F93CF93DF93EC010E94C90D6887798732
:1014E0008A879B87E881F9810284F385E02DCE010C
:1014F000099597FF17C00E94C90D088519852A858F
:101500003B85DC01CB01801B910BA20BB30B0C8143
:101510001D812E813F8180179107A207B30710F329
:101520008FEF9FEFDF91CF911F910F91089500975B
:1015300069F0FC0101900020E9F73197AF01481BE9
:10154000590BBC0181E293E00C94270180E090E00C
:101550000895FC01448155816081718181E293E0AD
:101560000C942701CF93DF930E94A90AEC0184E039
:1015700092E00E94970A8C0F9D1FDF91CF910895F2
:10158000EF92FF920F931F93CF93DF93EC01FB0138
:1015900004811581E080F180E114F104C9F00115A6
:1015A0001105C9F08C819D81080F191FB801CE016A
:1015B0000E948404882361F0288139818C819D8177
:1015C000B701820F931F0E94C31D1D830C8303C0AC
:1015D000CE010E94AB04CE01DF91CF911F910F91FC
:1015E000FF90EF900895EF92FF920F931F93CF9388
:1015F000DF93CDB7DEB7A1970FB6F894DEBF0FBE6D
:10160000CDBF7C01CB01BA01F70111821082138298
:101610001282158214828E010F5F1F4F22E044E078
:101620000E940A15BC01C7010E94FB09A1960FB6D2
:10163000F894DEBF0FBECDBFDF91CF911F910F9108
:10164000FF90EF9008950F931F93CF93DF93CDB743
:10165000DEB762970FB6F894DEBF0FBECDBF8C0128
:10166000CB01F8011182108213821282158214823A
:101670004AE0BE016F5F7F4F0E945515BE016F5F4C
:101680007F4FC8010E94FB0962960FB6F894DEBF37
:101690000FBECDBFDF91CF911F910F910895909113
:1016A00020039111FCCF91E09093200390931F03AE
:1016B0002FEF20931E0310921D03260F20931C036F
:1016C00090931B0390911B03880F892B80931B031E
:1016D00080911A03813061F410921A0380911B03E8
:1016E0008093BB008091BC0083FDF8CF85EC01C0E6
:1016F00085EE8093BC00809120038130E1F38091DE
:101700001D03861710F460911D03AAEFB2E0EAED05
:10171000F2E080E0861721F09D9191938F5FFACFE0
:101720000895282F3091D902313208F04AC08091B3
:1017300020038111FCCF9091D80242E04093200316
:1017400020931F032FEF20931E0310921D0330934D
:101750001C03E8EBF2E0AAEFB2E020E0321721F040
:1017600041914D932F5FFACF10921B0320911B03E1
:10177000990F922B90931B0390911A03913061F46F
:1017800010921A0390911B039093BB009091BC00A0
:1017900093FDF8CF95EC01C095EE9093BC0090912D
:1017A00020039230E1F390911E039F3F79F08091E6
:1017B0001E03803241F080911E03803331F084E0BB
:1017C00005C081E003C082E001C083E01092B7024F
:1017D0001092D9021092B6020895CF92DF92EF9242
:1017E000FF920F931F93CF93DF937C018B016A01CC
:1017F0006DEF71E00E94C204D80114968D919C9106
:1018000015970097C1F0E6018C159D0508F4EC01D1
:10181000D801ED91FC911197EC0FFD1FD080108243
:101820006D917C91C7010E94FB09F8018081918133
:10183000C80FD91FD882C701DF91CF911F910F9197
:10184000FF90EF90DF90CF9008953FB7F89480918C
:10185000330490913404A0913504B091360426B538
:10186000A89B05C02F3F19F00196A11DB11D3FBFD8
:10187000BA2FA92F982F8827820F911DA11DB11D66
:10188000BC01CD0142E0660F771F881F991F4A9562
:10189000D1F70895EF92FF920F931F93CF93DF93A9
:1018A0008C017A01DC0113968C91139791E090934F
:1018B000B6028093D8021092B7021092D902149601
:1018C0008D919C911597DC01ED91FC910190F08137
:1018D000E02D099581E00E94910B66E0F80183817B
:1018E0000E944F0B10922D0480932C04E701F6E028
:1018F000EF0EF11CD80114968D919C911597DC0187
:10190000ED91FC910284F385E02D09958993EC1605
:10191000FD0681F781E0DF91CF911F910F91FF903C
:10192000EF9008951F93CF93DF93EC01142F8B81D9
:1019300091E09093B6028093D8021092B702109271
:10194000D9028C819D81DC01ED91FC910190F081A7
:10195000E02D09958C819D81DC01ED91FC91019038
:10196000F081E02D612F099581E00E94910B81E0CB
:10197000DF91CF911F910895CF93DF93EC018B817D
:1019800091E09093B6028093D8021092B702109221
:10199000D9028C819D81DC01ED91FC910190F08157
:1019A000E02D60E0099581E00E94910B61E08B8160
:1019B0000E944F0B10922D0480932C048C819D81EA
:1019C000DC01ED91FC910284F385E02D0995DF9116
:1019D000CF910895CF93DF930E94970AEC0184E0A2
:1019E00092E00E94970A8C0F9D1FDF91CF9108957E
:1019F00090E0FC01ED51FE4F2491FC01EB53FE4FB2
:101A00003491FC01EF54FE4FE491EE2309F43CC005
:101A1000222339F1233091F038F42130A9F022301B
:101A200001F584B58F7D12C0273091F02830A1F0E8
:101A30002430B9F4809180008F7D03C080918000B4
:101A40008F77809380000DC084B58F7784BD09C0E7
:101A50008091B0008F7703C08091B0008F7D80931C
:101A6000B000F0E0EE0FFF1FE955FE4FA591B491D5
:101A70009FB7F894611104C08C913095382302C04F
:101A8000EC913E2B3C939FBF0895CF93DF9390E062
:101A9000FC01EB53FE4F2491FC01EF54FE4F849167
:101AA000882361F190E0880F991FFC01E752FE4FF7
:101AB000C591D491FC01E955FE4FA591B4916111F6
:101AC00009C09FB7F8948881209582238883EC9180
:101AD0002E230BC0623061F49FB7F8948881322FB7
:101AE000309583238883EC912E2B2C939FBF06C0C7
:101AF0008FB7F894E8812E2B28838FBFDF91CF9189
:101B000008958F929F92AF92BF92CF92DF92EF9201
:101B1000FF926B017C010E94250C4B015C01C114FA
:101B2000D104E104F104F1F00E94250CDC01CB01A9
:101B300088199909AA09BB09883E9340A105B105F6
:101B400070F321E0C21AD108E108F10888EE880E8E
:101B500083E0981EA11CB11CC114D104E104F1045E
:101B600019F7DDCFFF90EF90DF90CF90BF90AF904F
:101B70009F908F900895462FFC01628773876DE3D5
:101B800070E00E94920C6EE170E080E090E00C94B6
:101B9000810D2FB7F89460912F04709130048091DB
:101BA0003104909132042FBF08951F920F920FB607
:101BB0000F9211242F933F938F939F93AF93BF93D3
:101BC00080912F0490913004A0913104B09132049F
:101BD00030912E0423E0230F2D3720F40196A11D10
:101BE000B11D05C026E8230F0296A11DB11D20934B
:101BF0002E0480932F0490933004A0933104B0936B
:101C000032048091330490913404A0913504B09152
:101C100036040196A11DB11D8093330490933404C2
:101C2000A0933504B0933604BF91AF919F918F91EB
:101C30003F912F910F900FBE0F901F9018951F93FB
:101C4000CF93DF93EC01162FFC0132968CE0DF017D
:101C5000982F1D929A95E9F73C96DF011D928A957F
:101C6000E9F78CE090E00E94CE1BFC018AE091E055
:101C7000918380838FEF9FEFDC0186839783A0871A
:101C8000B18713838EEB93E095838483F983E88394
:101C9000DF91CF911F910895CF93DF93CDB7DEB73A
:101CA00068970FB6F894DEBF0FBECDBF789484B5A9
:101CB000826084BD84B5816084BD85B5826085BD48
:101CC00085B5816085BD80916E00816080936E00D6
:101CD00010928100809181008260809381008091C8
:101CE0008100816080938100809180008160809379
:101CF00080008091B10084608093B1008091B00039
:101D000081608093B00080917A00846080937A0033
:101D100080917A00826080937A0080917A0081605D
:101D200080937A0080917A00806880937A00109284
:101D3000C100E0913103F091320382E08083E091B1
:101D40002D03F0912E031082E0912F03F0913003C8
:101D5000108210923903E0913503F091360386E04A
:101D60008083E0913303F09134038081806180832C
:101D7000E0913303F0913403808188608083E091A7
:101D80003303F0913403808180688083E0913303D2
:101D9000F091340380818F7D808364EF71E080E077
:101DA00090E00E94810D61E084E00E94450D61E0B9
:101DB00087E00E94450D66E070E08EE992E00E94A7
:101DC000FD0665E070E080E992E00E94FD0664E2B5
:101DD00070E07093A1026093A00223EF30E0309393
:101DE000A3022093A2028FE790E09093A502809334
:101DF000A4024AE050E05093A7024093A602309319
:101E0000A9022093A8029093AB028093AA02709338
:101E100093026093920230939502209394029093E0
:101E200097028093960250939902409398023093C0
:101E30009B0220939A0290939D0280939C028CEFC8
:101E400093E00E9420098AED93E00E94200980E936
:101E500091E00E94EA0C0E94C90D6B017C010E9476
:101E6000C90DDC01CB018C199D09AE09BF09803D6C
:101E70009740A105B10598F48AED93E00E94890886
:101E80008CEF93E00E9489088CE991E00E94970A08
:101E900064E670E080E090E00E94810DE0CF8EE982
:101EA00091E00E94EA0C85EA91E00E94EA0C6AE067
:101EB00074E0CE0101960E9484076AE074E0CE01CE
:101EC00001960E9484076AE074E0CE0101960E94A8
:101ED00084070E94C90D1B012C01A090AE02B09096
:101EE000AF02C090B002D090B102E090B202F09088
:101EF000B3020091B4021091B5029B01A20160E00F
:101F000070E080E090E00E94CC1A09F00CF45FC40D
:101F10000E94C90DDC01CB018196A11DB11D8C0170
:101F20009D018093AE021093AF022093B0023093D4
:101F3000B1021092B2021092B3021092B402109247
:101F4000B50280911E0490911F04DC01ED91FC917B
:101F50000084F185E02D0995892B09F433C10091A6
:101F60001E0410911F046DEF71E0CE0143960E9494
:101F7000C204C8010E94670A97FD1FC08A309105FC
:101F8000E1F089831A82EF88F88CBFEFEB1AFB0A25
:101F9000B701CE0143960E948404882351F32B8914
:101FA0003C898F89988DBE016F5F7F4F820F931F91
:101FB0000E94C31DF88EEF8ADCCF8F89988D04971D
:101FC00008F4FCC066EB71E0CE0101960E94C204E9
:101FD000BE016F5F7F4FCE0143960E94270AAC017E
:101FE000BE016D5E7F4FCE010D960E94ED0B8D857B
:101FF0009E85009719F00E942E1503C060E070E0E6
:10200000CB017093230460932204CE010D960E94AD
:10201000BD04CE0101960E94BD0466EB71E0CE01C5
:1020200001960E94C204BE016F5F7F4FCE014396AE
:102030000E94270ABC016F5F7F4FCE0143960E942A
:10204000410ACE0101960E94BD0466EB71E0CE010B
:1020500001960E94C204BE016F5F7F4FCE0143967E
:102060000E94270AAC01BE016D5E7F4FCE010D9626
:102070000E94ED0B8D859E85009719F00E942E150C
:1020800003C060E070E0CB017093210460932004F2
:10209000CE010D960E94BD04CE0101960E94BD04A2
:1020A00066EB71E0CE0101960E94C204BE016F5F33
:1020B0007F4FCE0143960E94270ABC016F5F7F4F7E
:1020C000CE0143960E94410ACE0101960E94BD04B2
:1020D00066EB71E0CE0101960E94C204BE016F5F03
:1020E0007F4FCE0143960E94270AAC01BE016D5E70
:1020F0007F4FCE010D960E94ED0B8D859E8500973A
:1021000019F00E942A1503C060E070E0CB016093D3
:102110002404709325048093260490932704CE0111
:102120000D960E94BD04CE0101960E94BD0466EB8F
:1021300071E0CE0101960E94C204BE016F5F7F4F25
:10214000CE0143960E94270ABC016F5F7F4FCE01EC
:1021500043960E94410ACE0101960E94BD0466EB9F
:1021600071E0CE0101960E94C204BE016F5F7F4FF5
:10217000CE0143960E94270AAC01BE016D5E7F4FDF
:10218000CE010D960E94ED0B8D859E85009719F06E
:102190000E942A1503C060E070E0CB016093280420
:1021A0007093290480932A0490932B04CE010D96FA
:1021B0000E94BD04CE0101960E94BD04CE0143964B
:1021C0000E94BD048CEF93E00E949F078AED93E08C
:1021D0000E949F078091AC029091AD0282309105E0
:1021E00009F423C18330910509F441C2019709F034
:1021F000C6C288EB91E00E94970A6AE074E0CE01C3
:1022000001960E94840749815A816B817C81CE01AD
:102210000D960E94F30A6FEB71E0CE0143960E9487
:10222000C204BE01635F7F4FCE0143960E94C00A85
:102230000E94A90ACE0143960E94BD04CE010D96CC
:102240000E94BD046AE074E0CE0101960E948407FA
:102250004D815E816F817885CE010D960E94F30AD3
:1022600064EC71E0CE0143960E94C204BE01635F3C
:102270007F4FCE0143960E94C00A0E94A90ACE0158
:1022800043960E94BD04CE010D960E94BD046AE0F3
:1022900074E0CE0101960E94840749855A856B85BA
:1022A0007C85CE010D960E94F30A69EC71E0CE01A7
:1022B00043960E94C204BE01635F7F4FCE014396E6
:1022C0000E94C00A0E94A90ACE0143960E94BD0442
:1022D000CE010D960E94BD044091FE035091FF0374
:1022E0006091000470910104CE0101960E94F30AEE
:1022F0006EEC71E0CE010D960E94C204BE016F5FCC
:102300007F4FCE010D960E94C00A0E94A90ACE01FD
:102310000D960E94BD04CE0101960E94BD0420913D
:102320001A0430911B0440911C0450911D046091CB
:1023300006047091070480910804909109040E949A
:10234000EF1AAB01BC01CE0101960E94F30A62EDC7
:1023500071E0CE010D960E94C204BE016F5F7F4FF7
:10236000CE010D960E94C00A0E94A90ACE010D96C8
:102370000E94BD04CE0101960E94BD042091160466
:10238000309117044091180450911904609102048F
:102390007091030480910404909105040E94EF1A47
:1023A000AB01BC01CE0101960E94F30A66ED71E01B
:1023B000CE010D960E94C204BE016F5F7F4FCE0119
:1023C0000D960E94C00A0E94A90ACE010D960E9495
:1023D000BD04CE0101960E94BD048AED91E00E94E9
:1023E000970A6091D8037091D903CE0101960E949B
:1023F000230B63EE71E0CE010D960E94C204BE0174
:102400006F5F7F4FCE010D960E94C00A0E94A90AFD
:10241000CE010D960E94BD04CE0101960E94BD041E
:102420006091D5037091D6031BC18BEE91E00E94A1
:10243000970A68EE73E0CE0101960E9484074981F5
:102440005A816B817C81CE010D960E94F30A6FEB5D
:1024500071E0CE0143960E94C204BE01635F7F4FCC
:10246000CE0143960E94C00A0E94A90ACE0143965B
:102470000E94BD04CE010D960E94BD0468EE73E07B
:10248000CE0101960E9484074D815E816F8178851F
:10249000CE010D960E94F30A64EC71E0CE014396E2
:1024A0000E94C204BE01635F7F4FCE0143960E942B
:1024B000C00A0E94A90ACE0143960E94BD04CE0123
:1024C0000D960E94BD0468EE73E0CE0101960E9455
:1024D000840749855A856B857C85CE010D960E94BF
:1024E000F30A69EC71E0CE0143960E94C204BE017A
:1024F000635F7F4FCE0143960E94C00A0E94A90AE3
:10250000CE0143960E94BD04CE010D960E94BD04EB
:102510004091DC035091DD036091DE037091DF0395
:10252000CE0101960E94F30A6EEC71E0CE010D9689
:102530000E94C204BE016F5F7F4FCE010D960E94C4
:10254000C00A0E94A90ACE010D960E94BD04CE01C8
:1025500001960E94BD042091F8033091F903409147
:10256000FA035091FB036091E4037091E5038091BD
:10257000E6039091E7030E94EF1AAB01BC01CE0184
:1025800001960E94F30A62ED71E0CE010D960E9461
:10259000C204BE016F5F7F4FCE010D960E94C00A3C
:1025A0000E94A90ACE010D960E94BD04CE0101969B
:1025B0000E94BD042091F4033091F5034091F6038D
:1025C0005091F7036091E0037091E1038091E20381
:1025D0009091E3030E94EF1AAB01BC01CE0101967A
:1025E0000E94F30A66ED71E0CE010D960E94C204CE
:1025F000BE016F5F7F4FCE010D960E94C00A0E9400
:10260000A90ACE010D960E94BD04CE0101960E943A
:10261000BD048AED91E00E94970A6091D203709107
:10262000D303CE0101960E94230B63EE71E0CE012D
:102630000D960E94C204BE016F5F7F4FCE010D96C2
:102640000E94C00A0E94A90ACE010D960E94BD04F4
:10265000CE0101960E94BD046091CF037091D0031A
:10266000CE0101960E94230B67EE71E073C082EFEA
:1026700091E00E94970A6091220470912304CE0198
:1026800001960E94230B66ED71E0CE010D960E942B
:10269000C204BE016F5F7F4FCE010D960E94C00A3B
:1026A0000E94A90ACE010D960E94BD04CE0101969A
:1026B0000E94BD046091200470912104CE01019616
:1026C0000E94230B62ED71E0CE010D960E94C204C0
:1026D000BE016F5F7F4FCE010D960E94C00A0E941F
:1026E000A90ACE010D960E94BD04CE0101960E945A
:1026F000BD044091240450912504609126047091FA
:102700002704CE0101960E94F30A69EF71E0CE0121
:102710000D960E94C204BE016F5F7F4FCE010D96E1
:102720000E94C00A0E94A90ACE010D960E94BD0413
:10273000CE0101960E94BD044091280450912904C5
:1027400060912A0470912B04CE0101960E94F30A35
:102750006EEF71E0CE010D960E94C204BE016F5F64
:102760007F4FCE010D960E94C00A0E94B20ACE0190
:102770000D960E94BD04CE0101960E94BD0481E227
:1027800093E00E948201181619060CF581E293E08D
:102790000E946001823719F481E090E00DC08C3610
:1027A00039F4A2E0B0E0B093AD02A093AC020FC048
:1027B000833639F483E090E09093AD028093AC02CD
:1027C00006C08E3621F41092AD021092AC020E9427
:1027D00029027FCBCF92DF92EF92FF92CF93DF93CC
:1027E000109224031092230398EEC92E93E0D92E61
:1027F000E12CF12CC0922503D0922603E09227030E
:10280000F092280388E191E09093220380932103C2
:1028100085EC90E090932E0380932D0384EC90E060
:102820009093300380932F0380EC90E090933203D9
:102830008093310381EC90E09093340380933303D1
:1028400082EC90E0909336038093350386EC90E021
:10285000909338038093370310923A0310923B030E
:1028600010923C0310923D031092C1031092C003DA
:10287000C092C203D092C303E092C403F092C50396
:102880008AE291E09093BF038093BE038FE190E0D2
:102890000E94CE1BEC011B821A82CC82DD82EE826A
:1028A000FF828CE391E0998388831F8A1E8A198EA8
:1028B000188E1B8E1A8E1D8E1C8E6E8D6E7F6D7FF8
:1028C0006E8F6695617081E0682782E00E94F80C47
:1028D00061E082E00E94450DE7ECF1E0E491E88BD5
:1028E000E3EBF1E0E491F0E0EE0FFF1FE955FE4F5E
:1028F000859194919A8B898B60E083E00E94450DCD
:102900008E8D81FD04C061E083E00E94F80C83E0BD
:102910008C87E8ECF1E0E491ED87E4EBF1E0E49101
:10292000F0E0EE0FFF1FE356FE4F859194919F87D5
:102930008E87D0931F04C0931E048DE991E09D8F74
:102940008C8F2DEB30E03F8B2E8B2BE931E0398FD4
:10295000288F2CE231E03B8F2A8F20916800246081
:10296000209368002DE630E03C8B2B8B28E02D8BEC
:102970000197F1F7E091CC03F091CD03CE17DF077B
:10298000D1F0309739F0A389B4899C9185898095DD
:1029900089238C938E8D8E7F8E8F1092CB03109215
:1029A000CA03D093CD03C093CC03EB89FC899081FB
:1029B0008D89892B808369E270E08CEF93E00E941F
:1029C0001F0E68E270E08AED93E00E941F0E1092E5
:1029D000D9031092D80381E18093D7031092D603D4
:1029E0001092D5038FE08093D4031092D3031092FA
:1029F000D20380E18093D1031092D0031092CF03D1
:102A00008EE08093CE03DF91CF91FF90EF90DF9027
:102A1000CF900895EF920F931F93CF93DF93E80128
:102A200047FD02C034E001C034E1042E000C550B18
:102A300057FF03C0519541955109E32E022F242FD2
:102A4000AE010E948F15CE01DF91CF911F910F91A2
:102A5000EF900895662777270C94E9161F93FC01E1
:102A600099278827BC01E89411911032E9F31930B5
:102A700010F01E30C8F31B3251F01D3249F4689437
:102A800006C00E946015610F711D811D911D11917D
:102A900010531A30B0F33EF490958095709561957F
:102AA0007F4F8F4F9F4F1F910895BB274A3031F4BE
:102AB000992322F4BDE2909581959F4F0C94761551
:102AC000592F482F372F262F660F771F881F991FE2
:102AD000660F771F881F991F620F731F841F951F32
:102AE000660F771F881F991F0895BB27FB01552785
:102AF000AA27880F991FAA1FA41710F0A41B83955B
:102B00005051B9F7A05DAA3308F0A95DA1930097D1
:102B100079F7B111B1931192CB010C943019A9E05E
:102B2000B0E0E5E9F5E10C94781A6A01122FB02EB5
:102B30002BE3201720F0FF24F394F00E02C02CE3C7
:102B4000F22E0F2D27E0AE014F5F5F4F0E94371826
:102B5000BC014981842F8970813031F0E1FC06C0CD
:102B6000E0FE06C090E205C09DE203C09BE201C00A
:102B700090E05E2D507143FF3CC0911102C083E094
:102B800001C084E0811718F4212F281B01C020E028
:102B900051110BC0F601822F30E2882319F03193D6
:102BA0008150FBCFC20ED11C20E0992329F0D60121
:102BB0009C93F60131966F01C6010396E2FE0AC0AE
:102BC0003EE4D6013C9341E411964C931197129642
:102BD0003C9306C03EE6F601308341E641833283F2
:102BE000FC01322F40E2332309F442C041933150BB
:102BF000FACF42FF44C0911102C083E001C084E0DB
:102C0000811718F4212F281B01C020E051110BC09F
:102C1000F601822F30E2882319F031938150FBCFE7
:102C2000C20ED11C20E0992329F0D6019C93F60115
:102C300031966F01C6010396E2FE0BC039E4D6015E
:102C40003C933EE411963C93119736E412963C93E4
:102C500007C039E6F60130833EE6318336E632833B
:102C6000FC01322F40E2332319F041933150FBCF66
:102C7000FC01E20FF11D10828EEF9FEFA6C021E054
:102C800030E0911102C020E030E0161617061CF467
:102C9000FB01319602C0E1E0F0E02E0F3F1FBB20A8
:102CA00021F0EB2DF0E0319602C0E0E0F0E02E0FD5
:102CB0003F1FE12FF0E02E173F071CF4121B212FBE
:102CC00001C020E08E2D887159F4F601822F30E288
:102CD000882319F031938150FBCFC20ED11C20E024
:102CE000992329F0D6019C93F60131966F01511179
:102CF0000BC0F601822F90E3882319F09193815045
:102D0000FBCFC20ED11C20E00F2D060F9A81342F6D
:102D1000307144FF03C0913309F40150101624F4BC
:102D2000093018F008E001C001E0AB0177FF02C0F4
:102D300040E050E0FB01E41BF50BA1E0B0E0AC0F7C
:102D4000BD1FEA0FFB1F8EE2A82E4B01801A9108CF
:102D50000B2D10E01195019511094F3FBFEF5B0757
:102D600021F4D601AC9211966D01641775072CF011
:102D70008416950614F4818101C080E34150510905
:102D80003196D60111967D014017510724F0D601E6
:102D90008C936701E2CF6417750739F4963320F4FA
:102DA000953319F4311101C081E3F6018083F701F5
:102DB000822F90E2882319F091938150FBCFF70185
:102DC000E20FF11D108280E090E02996ECE00C9477
:102DD000941AA0E0B0E0EFEEF6E10C94781AEC0162
:102DE0006B016115710519F0FB01918380837E01F0
:102DF000FFEFEF1AFF0A0881802F90E00E940F1961
:102E0000892B11F0E701F3CF0D3239F47E0182E016
:102E1000E80EF11C098111E008C00B3229F47E0193
:102E200092E0E90EF11C098110E0E701219743E0EF
:102E300050E060E770E0CE010E941819892BC1F4C0
:102E4000239645E050E06BE670E0CE010E94181931
:102E5000892B09F42596C114D10419F0F601D18308
:102E6000C0831111F6C060E070E080E89FE7FAC00F
:102E700043E050E068E670E0CE010E941819892B0B
:102E800059F4C114D10409F4E9C0F2E0EF0EF11CC9
:102E9000F601F182E082E2C020E030E0A901C0E06A
:102EA000D0E0F70180EDA82EA00E89E08A1530F160
:102EB000912F9260B92E812F887012FF04C081116A
:102EC00024C0219622C081112197A5E0B0E00E9484
:102ED000671ADC01CB01880F991FAA1FBB1F9C0139
:102EE000AD012A0D311D411D511D283989E93807D1
:102EF000480789E1580748F0166006C09EEFA912FE
:102F00000AC013FD40C01860B12E8FEFE81AF80A0E
:102F100000811B2DC6CF802F8F7D8534A1F5808148
:102F20008D3211F4106106C08B3221F0319661E0D0
:102F300070E004C08181329662E070E080538A3094
:102F400018F0E61BF70B1FC060E070E060389CE0F3
:102F500079075CF4DB01AA0FBB1FAA0FBB1F6A0F26
:102F60007B1F660F771F680F711D3196DF01119768
:102F70008C9180538A3050F314FF03C07195619592
:102F80007109C60FD71F11FF08C0C114D10429F061
:102F9000CF010197F60191838083CA01B9010E9494
:102FA0004519212F2370233019F04B015C0106C015
:102FB0004B015C01B7FAB094B7F8B09420E030E070
:102FC000A901C501B4010E944019882309F43EC03B
:102FD000D7FF06C0D195C195D10907E810E002C01E
:102FE0000FE910E06801F8E1CF1AD10890E2E92E6C
:102FF000F12CCE15DF0574F0F8012591359145913E
:103000005491C501B4010E94A6194B015C01CE196F
:10301000DF09EFCF04501109F594E7940C151D0555
:1030200041F78A2D880F8B2D881F8F3F49F020E0B4
:1030300030E0A901C501B4010E944019811106C008
:1030400082E290E09093380480933704C501B40184
:1030500009C060E070E080E89FEF04C060E070E0CD
:1030600080EC9FE7CDB7DEB7ECE00C94941A2830E3
:1030700008F027E03327DA01990F311D87FD9160B1
:1030800000966105710539F432602E5F3D9330E39F
:103090002A95E1F708959F3F30F08038710561056A
:1030A00009F03C5F3C5F3D93913008F08068911DD2
:1030B000DF93CF931F930F93FF92EF92192F987F77
:1030C0009695E92F96959695E90FFF27E350FF4FC8
:1030D00099273327EE24FF24A701E70105900894E0
:1030E000079428F4360FE71EF81E491F511D660F7E
:1030F000771F881F991F0694A1F70590079428F45D
:10310000E70EF81E491F561FC11D770F881F991F14
:10311000661F0694A1F70590079428F4F80E491F3E
:10312000561FC71FD11D880F991F661F771F069452
:10313000A1F70590079420F4490F561FC71FD81F09
:10314000990F661F771F881F0694A9F78491109521
:10315000177041F0D695C79557954795F794E79422
:103160001A95C1F7E3EAF0E068941590159135914E
:103170006591959105907FE27395E118F10A430BF3
:10318000560BC90BD009C0F7E10CF11E431F561FA7
:10319000C91FD01D7EF4703311F48A95E6CFE894F0
:1031A000015030F0080F0AF40027021708F4202F0E
:1031B0002395022F7A3328F079E37D932A95E9F756
:1031C00010C07D932A9589F6069497956795379553
:1031D00017951794E118F10A430B560BC90BD00948
:1031E00098F023957E9173957A3308F070E37C9381
:1031F0002013B8F77E9170617D9330F0839571E371
:103200007D9370E32A95E1F71124EF90FF900F91E1
:103210001F91CF91DF91992787FD90950895911186
:103220000C94131A803219F089508550C8F708950C
:10323000FB01DC014150504088F08D9181341CF03D
:103240008B350CF4805E659161341CF06B350CF4A9
:10325000605E861B611171F3990B0895881BFCCF8A
:10326000DC01FC01672F71917723E1F7329704C0ED
:103270007C916D9370836291AE17BF07C8F3089578
:103280000E94821908F481E00895E89409C097FB30
:103290003EF490958095709561957F4F8F4F9F4F2D
:1032A0009923A9F0F92F96E9BB279395F695879571
:1032B00077956795B795F111F8CFFAF4BB0F11F434
:1032C00060FF1BC06F5F7F4F8F4F9F4F16C08823DB
:1032D00011F096E911C0772321F09EE8872F762F11
:1032E00005C0662371F096E8862F70E060E02AF052
:1032F0009A95660F771F881FDAF7880F969587953E
:1033000097F90895990F0008550FAA0BE0E8FEEF12
:1033100016161706E807F907C0F012161306E40799
:10332000F50798F0621B730B840B950B39F40A2692
:1033300061F0232B242B252B21F408950A2609F470
:10334000A140A6958FEF811D811D08950E94B91996
:103350000C942D1A0E941F1A38F00E94261A20F091
:10336000952311F00C94161A0C941C1A11240C9429
:10337000611A0E943E1A70F3959FC1F3950F50E0B9
:10338000551F629FF001729FBB27F00DB11D639F17
:10339000AA27F00DB11DAA1F649F6627B00DA11DBD
:1033A000661F829F2227B00DA11D621F739FB00D63
:1033B000A11D621F839FA00D611D221F749F3327D3
:1033C000A00D611D231F849F600D211D822F762F6C
:1033D0006A2F11249F5750409AF0F1F088234AF049
:1033E000EE0FFF1FBB1F661F771F881F91505040B5
:1033F000A9F79E3F510580F00C94161A0C94611A9F
:103400005F3FE4F3983ED4F3869577956795B7953B
:10341000F795E7959F5FC1F7FE2B880F911D969555
:10342000879597F9089599278827089597F99F67B1
:1034300080E870E060E008959FEF80EC089500243C
:103440000A941616170618060906089500240A9409
:1034500012161306140605060895092E0394000C8F
:1034600011F4882352F0BB0F40F4BF2B11F460FF1E
:1034700004C06F5F7F4F8F4F9F4F089557FD905847
:10348000440F551F59F05F3F71F04795880F97FB28
:10349000991F61F09F3F79F08795089512161306E2
:1034A0001406551FF2CF4695F1DF08C01616170611
:1034B0001806991FF1CF8695710561050894089546
:1034C000E894BB2766277727CB0197F908950E94D8
:1034D000A91AA59F900DB49F900DA49F800D911DDA
:1034E000112408952F923F924F925F926F927F9294
:1034F0008F929F92AF92BF92CF92DF92EF92FF9204
:103500000F931F93CF93DF93CDB7DEB7CA1BDB0BAF
:103510000FB6F894DEBF0FBECDBF09942A88398854
:1035200048885F846E847D848C849B84AA84B9845B
:10353000C884DF80EE80FD800C811B81AA81B98167
:10354000CE0FD11D0FB6F894DEBF0FBECDBFED017B
:103550000895A29FB001B39FC001A39F700D811D6C
:103560001124911DB29F700D811D1124911D08958C
:1035700097FB072E16F4009407D077FD09D00E9420
:10358000D51A07FC05D03EF4909581959F4F08957C
:10359000709561957F4F08952A153B054C055D0593
:1035A0006E057F05800791070895AA1BBB1B51E19B
:1035B00007C0AA1FBB1FA617B70710F0A61BB70BA3
:1035C000881F991F5A95A9F780959095BC01CD0148
:1035D0000895EE0FFF1F0590F491E02D09945058C7
:1035E000BB27AA270E94071B0C942D1A0E941F1AA2
:1035F00038F00E94261A20F039F49F3F19F426F47F
:103600000C941C1A0EF4E095E7FB0C94161AE92FA3
:103610000E943E1A58F3BA1762077307840795078A
:1036200020F079F4A6F50C94601A0EF4E0950B2EB8
:10363000BA2FA02D0B01B90190010C01CA01A00104
:103640001124FF27591B99F0593F50F4503E68F15F
:103650001A16F040A22F232F342F4427585FF3CFA0
:10366000469537952795A795F0405395C9F77EF471
:103670001F16BA0B620B730B840BBAF09150A1F0BA
:10368000FF0FBB1F661F771F881FC2F70EC0BA0F40
:10369000621F731F841F48F4879577956795B795C8
:1036A000F7959E3F08F0B0CF9395880F08F09927C3
:1036B000EE0F9795879508950E94701B0C942D1A14
:1036C0000E94261A58F00E941F1A40F029F45F3F0A
:1036D00029F00C94161A51110C94611A0C941C1AAE
:1036E0000E943E1A68F39923B1F3552391F3951B79
:1036F000550BBB27AA2762177307840738F09F5F13
:103700005F4F220F331F441FAA1FA9F335D00E2E7F
:103710003AF0E0E832D091505040E695001CCAF7EC
:103720002BD0FE2F29D0660F771F881FBB1F2617AF
:1037300037074807AB07B0E809F0BB0B802DBF0186
:10374000FF2793585F4F3AF09E3F510578F00C9455
:10375000161A0C94611A5F3FE4F3983ED4F38695F1
:1037600077956795B795F7959F5FC9F7880F911D76
:103770009695879597F90895E1E0660F771F881F62
:10378000BB1F621773078407BA0720F0621B730B15
:10379000840BBA0BEE1F88F7E09508950F931F93E3
:1037A000CF93DF938230910510F482E090E0E091B6
:1037B0003B04F0913C0420E030E0A0E0B0E0309722
:1037C00019F1408151810281138148175907C8F0CE
:1037D0008417950769F4109731F012960C9312979D
:1037E00013961C9327C000933B0410933C0422C003
:1037F0002115310519F04217530718F49A01BD013C
:10380000EF01DF01F801DBCF21153105F9F0281BAD
:10381000390B2430310580F48A819B816115710553
:1038200021F0FB019383828304C090933C04809336
:103830003B04FE01329644C0FE01E20FF31F819368
:10384000919322503109398328833AC02091390459
:1038500030913A04232B41F420910201309103016D
:1038600030933A04209339042091000130910101F2
:103870002115310541F42DB73EB740910401509117
:103880000501241B350BE0913904F0913A04E2174D
:10389000F307A0F42E1B3F0B2817390778F0AC0173
:1038A0004E5F5F4F2417350748F04E0F5F1F509350
:1038B0003A04409339048193919302C0E0E0F0E030
:1038C000CF01DF91CF911F910F910895CF93DF9397
:1038D000009709F481C0FC01329713821282A091F3
:1038E0003B04B0913C04109781F420813181820F18
:1038F000931F2091390430913A042817390751F564
:10390000F0933A04E093390467C0ED0120E030E021
:10391000CE17DF0740F44A815B819E0141155105B6
:10392000F1F0EA01F5CFD383C28340815181840F46
:10393000951FC817D90759F488819981840F951F5D
:103940000296918380838A819B8193838283211550
:10395000310529F4F0933C04E0933B043DC0E901B8
:10396000FB83EA8349915991C40FD51FEC17FD07DA
:1039700061F480819181840F951F0296E9019983FA
:103980008883828193819B838A83E0E0F0E01296B2
:103990008D919C911397009719F0FD01DC01F7CFF1
:1039A0008D919C9111979D012E5F3F4F820F931F28
:1039B0002091390430913A042817390769F4309777
:1039C00029F410923C0410923B0402C0138212822C
:1039D000B0933A04A0933904DF91CF910895A0E009
:1039E000B0E0E5EFFCE10C94761AEC01009721F4CD
:1039F000CB010E94CE1BB4C0FC01E60FF71F9C0157
:103A000022503109E217F30708F4A8C0D9010D913B
:103A10001C91119706171707B0F00530110508F42F
:103A20009BC0C80104978617970708F495C00250F9
:103A30001109061B170B019311936D937C93CF0112
:103A40000E94661C89C05B01A01AB10A4C01800E5D
:103A5000911EA0913B04B0913C04612C712CE12C8F
:103A6000F12C109709F446C08D919C911197A815DF
:103A7000B905B1F56C0142E0C40ED11CCA14DB04D7
:103A800078F14C018A189B08640142E0C40ED11CF5
:103A90001296BC9012971396AC91B5E0CB16D10458
:103AA00040F0B282A38391828082D9016D937C938E
:103AB00009C00E5F1F4F800F911FF9019183808312
:103AC000EB2DFA2FE114F10431F0D7011396FC939A
:103AD000EE93129741C0F0933C04E0933B043CC04A
:103AE0006816790608F43C017D0112960D90BC9190
:103AF000A02DB7CF8091390490913A048816990689
:103B0000E1F466167706C8F48091000190910101F6
:103B1000009741F48DB79EB7409104015091050183
:103B2000841B950BE817F907C8F4F0933A04E09367
:103B30003904F901718360830FC0CB010E94CE1B51
:103B40007C01009759F0A801BE010E94BA1DCE0168
:103B50000E94661CC70104C0CE0102C080E090E054
:103B6000CDB7DEB7EEE00C94921A81E090E0F894C5
:103B70000C94F31DFB01DC0102C001900D92415039
:103B80005040D8F70895FB01DC0101900D92002010
:103B9000E1F70895FB01DC014150504048F00190ED
:103BA0000D920020C9F701C01D9241505040E0F72E
:103BB0000895FB0151915523A9F0BF01DC014D91FE
:103BC00045174111E1F759F4CD010190002049F06A
:103BD0004D9140154111C9F3FB014111EFCF81E037
:0A3BE00090E001970895F894FFCFDC
:103BEA0000003D04200000000000D5029603D60222
:103BFA0098033F0400000000BA012701510107029F
:103C0A00820160017401000000006303360393031C
:103C1A004B022E031A030B03000000004C0227017B
:103C2A0093034B029C02B4023302424E4F303535A5
:103C3A00004F6F6F70732C206E6F20424E4F3035DD
:103C4A00352031206465746563746564202E2E2ED8
:103C5A0020436865636B20796F7572207769726992
:103C6A006E67206F7220493243204144445221003A
:103C7A0043616C6962726174696E67002E000A445E
:103C8A006F6E65210050726F6772616D2073746187
:103C9A007274656421002C007273686F653A0009BA
:103CAA0061780900096179090009617A09000979CD
:103CBA0009000972090009700900097765696768CE
:103CCA00743A0009730900096209006C73686F6528
:103CDA003A0063686573743A0009615A0900096118
:083CEA006C7409000D0A0000D2
:00000001FF
