:100000000C9414010C943C010C943C010C94C80514
:100010000C94C8050C94C8050C943C010C943C014C
:100020000C943C010C943C010C943C010C943C015C
:100030000C943C010C943C010C943C010C943C014C
:100040000C9440100C943C010C9486050C946005B3
:100050000C943C010C943C010C943C010C943C012C
:100060000C94D2050C943C01084AD73B3BCE016E60
:1000700084BCBFFDC12F3D6C74319ABD56833DDAFF
:100080003D00C77F11BED9E4BB4C3E916BAAAABE0E
:10009000000000803F004E414E494E495459494EA0
:1000A00046CDCCCC3D0AD7233C17B7D13877CC2BE3
:1000B000329595E6241FB14F0A000020410000C888
:1000C0004200401C4620BCBE4CCA1B0E5AAEC59D09
:1000D0007400407A10F35A00A0724E18090010A55F
:1000E000D4E80000E87648170000E40B5402000052
:1000F000CA9A3B000000E1F50500008096980000D8
:100100000040420F000000A0860100000010270000
:10011000000000E803000000006400000000000A86
:1001200000000000000100000000002C76D888DCF0
:10013000674F0823DFC1DFAE59E1B1B796E5E3E4CD
:1001400053C63AE651997696E8E6C28426EB898C46
:100150009B62ED407C6FFCEFBC9C9F40F2BAA56FA8
:10016000A5F490055A2AF75C936B6CF9676DC11B77
:10017000FCE0E40D47FEF520E6B500D0ED902E033F
:1001800000943577050080841E080000204E0A0088
:100190000000C80C333333330F986E12831141EFD4
:1001A0008D2114893BE65516CFFEE6DB18D1844B32
:1001B000381BF77C1D901DA4BBE424203284725EA2
:1001C000228100C9F124ECA1E53D270000000023B5
:1001D000002600290000000000240027002A00005B
:1001E000000000250028002B00040404040404047B
:1001F00004020202020202030303030303010204D6
:100200000810204080010204081020010204081098
:1002100020000000080002010000030407000000A5
:10022000000000000000D21E11241FBECFEFD8E056
:10023000DEBFCDBF12E0A0E0B1E0E0EDF2E502C02C
:1002400005900D92A43FB107D9F725E0A4EFB2E0E5
:1002500001C01D92A030B207E1F711E0C4E1D1E086
:1002600004C02197FE010E946425C331D107C9F75C
:100270000E948A100C9466290C940000CF92DF92A1
:10028000EF92FF920F931F93CF93DF936C017A014C
:100290008B01C0E0D0E0CE15DF0581F0D8016D9173
:1002A0008D01D601ED91FC910190F081E02DC60108
:1002B0000995892B11F02196EECF7E01C701DF91C0
:1002C000CF911F910F91FF90EF90DF90CF90089505
:1002D000FC01538D448D252F30E0842F90E0821B4C
:1002E000930B541710F0CF96089501970895FC01D1
:1002F000918D828D981761F0828DDF01A80FB11D5D
:100300005D968C91928D9F5F9F73928F90E0089580
:100310008FEF9FEF0895FC01918D828D981731F03A
:10032000828DE80FF11D858D90E008958FEF9FEF8E
:100330000895FC01918D228D892F90E0805C9F4F64
:10034000821B91098F739927089588E494E00E9495
:10035000990121E0892B09F420E0822F0895FC0106
:10036000848DDF01A80FB11DA35ABF4F2C91848D3E
:1003700090E001968F739927848FA689B7892C9373
:10038000A089B1898C91837080648C93938D848DC6
:10039000981306C00288F389E02D80818F7D8083C9
:1003A0000895EF92FF920F931F93CF93DF93EC0189
:1003B00081E0888F9B8D8C8D981305C0E889F98921
:1003C000808185FD26C0F62E0B8D10E00F5F1F4F3C
:1003D0000F731127E02E8C8DE8120CC00FB607FCAE
:1003E000FACFE889F989808185FFF5CFCE010E9497
:1003F000AF01F1CF8B8DFE01E80FF11DE35AFF4FE6
:10040000F0829FB7F8940B8FEA89FB898081806224
:100410000AC09FB7F894EE89FF896083E889F9895B
:1004200080818370806480839FBF81E090E0DF9152
:10043000CF911F910F91FF90EF900895CF93DF938D
:10044000EC01888D8823C9F0EA89FB89808185FDCC
:1004500005C0A889B9898C9186FD0FC00FB607FC2D
:10046000F5CF808185FFF2CFA889B9898C9185FF6E
:10047000EDCFCE010E94AF01E7CFDF91CF9108957C
:1004800080E090E0892B29F00E94A50181110C9455
:1004900000000895892B71F49091D9038091D803BD
:1004A000981741F0E091D903F0E0E856FC4F8081C5
:1004B00090E008958FEF9FEF089508951F93CF93D5
:1004C000DF93DC015C968D919C915D97009739F4E8
:1004D00021E030E013963C932E9312973BC0519647
:1004E000ED91FC91529750962C915097322F309568
:1004F0001FB75E964C915E97742F727041FD6095A8
:10050000F8944081772311F0422B01C043234083AC
:10051000EC012197F1F748E0508160FF02C0522BB7
:1005200001C053235083EC012197F1F766954150A8
:1005300099F78081772319F08323808302C0282BC9
:1005400020831FBF5C968D919C915D970197F1F779
:1005500081E090E0DF91CF911F910895892B71F494
:100560008091D8032091D90390E0805C9F4F821B3B
:10057000910960E470E00E943325089580E090E0E6
:100580000895892BB9F49091D9038091D8039817D5
:1005900089F0E091D903F0E0E856FC4F808120918A
:1005A000D90330E02F5F3F4F2F7333272093D903B8
:1005B00090E008958FEF9FEF08950895089585EDD9
:1005C0008093BC008091BC0084FDFCCF1092470456
:1005D000089540917503262F30E0240F311D2132FC
:1005E0003105DCF4209147042430C9F4FC0180E09B
:1005F00090E0861758F4309175032191DC01AB5AD5
:10060000BC4FA30FB11D2C930196F3CF80917503BE
:10061000680F6093750380E0089581E0089582E09B
:10062000089508950895E091DC038091DB03E817B5
:1006300030F4F0E0EF5FFB4F808190E008958FEFA2
:100640009FEF08959091DC038091DB03981750F49D
:10065000E92FF0E0EF5FFB4F208130E09F5F909348
:10066000DC0302C02FEF3FEFC90108958091DB0347
:1006700090E02091DC03821B91090895CF92DF92D4
:10068000EF92FF920F931F93CF93DF937C01CB01E7
:100690008A012091DD03222389F0EB016B01C40E56
:1006A000D51ECC15DD0569F06991D701ED91FC915E
:1006B0000190F081E02DC7010995F3CF642F0E94CE
:1006C000E902C801DF91CF911F910F91FF90EF9048
:1006D000DF90CF900895CF93DF931F92CDB7DEB711
:1006E00069832091DD032223D1F020910004203280
:1006F00040F021E030E0FC013383228380E090E091
:1007000015C08091DE03E82FF0E0E152FC4F9981A3
:1007100090838F5F8093DE038093000405C061E0C7
:10072000CE0101960E94E90281E090E00F90DF91F6
:10073000CF910895089580E090E008950E942829BF
:100740000F931F93CF93DF93EC01888199810097DA
:1007500029F02A813B812617370788F48B016F5FC8
:100760007F4F0E946228009761F0998388831B83E2
:100770000A832C813D81232B11F4FC01108281E03E
:1007800001C080E0DF91CF911F910F9108950C94EB
:10079000D9278F929F92AF92BF92CF92DF92EF9222
:1007A000FF920F931F93CF93DF93CDB7DEB762977E
:1007B0000FB6F894DEBF0FBECDBF7C018B0184E283
:1007C000DB011D928A95E9F784E290E0A0E0B0E0B9
:1007D000FB0180839183A283B383F7018681978194
:1007E000A085B185FB0184839583A683B78383E0CD
:1007F00090E0A0E0B0E080879187A287B3870E9455
:100800003410D80150966D937D938D939C9353979C
:10081000FE0131968CE0DF011D928A95E9F7AE0169
:10082000435F5F4F86E0FA0111928A95E9F76AE12A
:1008300070E0C7010E94510E6D857E85072E000C69
:10084000880B990B0E94792320E030E040E85DE3BB
:100850000E94D8234B015C016F857889072E000C1C
:10086000880B990B0E94792320E030E040E85DE39B
:100870000E94D8236B017C0169897A89072E000CBC
:10088000880B990B0E94792320E030E040E85DE37B
:100890000E94D823D80154968D929D92AD92BC921D
:1008A0005797F801C08ED18EE28EF38E5C966D93D1
:1008B0007D938D939C935F9781E062960FB6F89439
:1008C000DEBF0FBECDBFDF91CF911F910F91FF9083
:1008D000EF90DF90CF90BF90AF909F908F90089552
:1008E0000F931F93CF93DF938C01EB0188E2FB0101
:1008F00011928A95E9F74BE050E06BEA72E0CE0185
:100900000E943D291B8681E090E0A0E0B0E08C874A
:100910009D87AE87BF87F80186819781A085B185C5
:10092000888B998BAA8BBB8B83E090E0A0E0B0E032
:100930008C8B9D8BAE8BBF8B1CA21DA21EA21FA2F7
:10094000188E198E1A8E1B8E1C8E1D8E1E8E1F8E5B
:100950008AE097EDA3E2BCE388A399A3AAA3BBA373
:10096000DF91CF911F910F910895EF92FF920F9316
:100970001F93CF93DF936115710511F480E01CC0C4
:1009800041155105C1F07B01EC018C819D818A01EB
:10099000080F191FB801CE010E94A003882371F32C
:1009A000288139818C819D81B701820F931F0E941C
:1009B00036291D830C8381E0DF91CF911F910F9128
:1009C000FF90EF900895CF93DF93EC018881998198
:1009D000009711F00E94D927198218821D821C826B
:1009E0001B821A82DF91CF910895CF93DF93EC01A0
:1009F0006115710561F0FB0101900020E9F7319765
:100A0000AF01461B570B0E94B504811103C0CE01F4
:100A10000E94E304CE01DF91CF910895EF92FF92FF
:100A20000F931F93CF93DF93EC017B018A01BA01EF
:100A30000E94A003811104C0CE010E94E30407C0FC
:100A40001D830C83B701888199810E943629CE01CC
:100A5000DF91CF911F910F91FF90EF900895CF9369
:100A6000DF93EC016115710559F0FB010190002045
:100A7000E9F73197AF01461B570B0E940E0502C0E4
:100A80000E94E304CE01DF91CF910895FC018081A3
:100A900091810C94D927FC01118210821382128259
:100AA000158214826115710551F0FB01019000203F
:100AB000E9F73197AF01461B570B0C940E050895CB
:100AC0001F920F920FB60F9211242F933F934F93C3
:100AD0005F936F937F938F939F93AF93BF93EF93A6
:100AE000FF9388E494E00E94AF01FF91EF91BF91E2
:100AF000AF919F918F917F916F915F914F913F91B6
:100B00002F910F900FBE0F901F9018951F920F926C
:100B10000FB60F9211242F938F939F93EF93FF9310
:100B2000E0915804F09159048081E0915E04F091C5
:100B30005F0482FD12C09081809161048F5F8F738A
:100B400020916204821751F0E0916104F0E0E85BCB
:100B5000FB4F958F8093610401C08081FF91EF91DD
:100B60009F918F912F910F900FBE0F901F9018950E
:100B7000AB016130714018F461E00C94510C0895A0
:100B8000AB016130714018F460E00C94510C089591
:100B90001F920F920FB60F9211240F900FBE0F905D
:100BA0001F9018951F920F920FB60F9211242F933A
:100BB0003F934F935F936F937F938F939F93AF93E5
:100BC000BF93EF93FF938091B900887F803609F43B
:100BD0009CC068F5883209F45BC090F4803109F458
:100BE00054C038F4882309F4F6C0883009F44DC0A5
:100BF000F6C0883109F44CC0803209F45DC0EFC002
:100C0000803409F468C048F4803309F455C088334F
:100C100009F0E5C080934504D8C0803509F44FC081
:100C2000883509F45DC0883409F0D9C0D6C0883948
:100C300009F4C7C0A8F4883709F467C038F48836C7
:100C400009F463C0803709F460C0C9C0883809F46A
:100C5000B8C0803909F45FC0803809F0C0C05BC0FB
:100C6000803B09F486C038F4803A09F466C0883ABB
:100C700009F47FC0B4C0803C09F4A7C0883C09F4E3
:100C8000A4C0883B09F48AC0AAC08091420410C065
:100C90009091440480914304981770F5E0914404C6
:100CA00081E08E0F80934404F0E0EF5DFB4F808184
:100CB0008093BB0085EC86C0809345048EC0E09194
:100CC000440481E08E0F809344048091BB00F0E0E7
:100CD000EF5DFB4F808390914404809143046EC08C
:100CE000E091440481E08E0F809344048091BB0026
:100CF000F0E0EF5DFB4F80838091460481116DC071
:100D000081E08093410484EA61C083E080934704DA
:100D100010929703CFCF80919703803208F051C093
:100D2000E091970381E08E0F809397038091BB0041
:100D3000F0E0E958FC4F8083BDCF85EC8093BC0088
:100D40001092470480919703803230F4E09197032A
:100D5000F0E0E958FC4F10826091970370E0E09159
:100D60005303F091540387E793E00995109297039A
:100D700036C084E080934704109276031092750386
:100D8000E0915103F091520309958091750381110F
:100D900005C081E08093750310925503E0917603BE
:100DA00081E08E0F80937603F0E0EB5AFC4F808158
:100DB0008093BB009091760380917503981708F497
:100DC00079CF85E88093BC000AC085EC8093BC0095
:100DD0001092470404C0109245040E94DF02FF9164
:100DE000EF91BF91AF919F918F917F916F915F91A3
:100DF0004F913F912F910F900FBE0F901F9018951C
:100E0000CF92DF92EF92FF929B01245F3F4FFB0155
:100E1000C190D190E190F190BF01FC01C192D192BB
:100E2000E192F192CF016217730789F7FF90EF907B
:100E3000DF90CF9008954F925F926F927F928F9242
:100E40009F92AF92BF92CF92DF92EF92FF920F9359
:100E50001F93CF93DF93CDB7DEB72C970FB6F894DF
:100E6000DEBF0FBECDBF8C01FC01E080F180F70139
:100E7000268D378D40A151A1628573858485958526
:100E80000E946A2590580E947826F801708767832F
:100E90006A3071050CF45CC085859685A785B0899C
:100EA0000A96A11DB11D85879687A787B08BB701CC
:100EB000625F7F4FCE0101960E940007C984DA84E9
:100EC000EB84FC84F801418852886388748820E0B0
:100ED00030E0A901C701B6010E94D526460157019D
:100EE000B7FAB094B7F8B09418162CF0B82DA92D15
:100EF000FA2DEB2D04C0BC2DAD2DFE2DEF2DA30141
:100F000092016B2F7A2F8F2F9E2F0E946B25F80155
:100F1000618B728B838B948B2AE037ED43E25CE329
:100F2000C501B4010E94D82320E030E040E05FE337
:100F30000E94D8239B01AC01F801658976898789D5
:100F4000908D0E946B25F801658B768B878B908F37
:100F5000F801878190858A3091058CF4218532854E
:100F60002A30310564F0118A128A138A148A158690
:100F700016861786108A158A168A178A108EF80127
:100F80009287818781E0458556856785708914162B
:100F90001506160617060CF080E02C960FB6F8948E
:100FA000DEBF0FBECDBFDF91CF911F910F91FF909C
:100FB000EF90DF90CF90BF90AF909F908F907F90F9
:100FC0006F905F904F900895DC01ED91FC918481CA
:100FD00095818C34BFEF9B0714F488599E4F228172
:100FE00033812C344FEF340714F428593E4F889F37
:100FF000B001899F700D700D1124229FC001239FA5
:10100000900D900D1124680F791F072E000C880B8E
:10101000990B0E9479230C94E8268F929F92AF92AD
:10102000BF92CF92DF92EF92FF92CF93DF93FC01BA
:10103000C081D1816C817D816C34FFEF7F0714F416
:1010400068597E4F072E000C880B990B0E9479235C
:101050006B017C016A817B816C348FEF780714F41B
:1010600068597E4F072E000C880B990B0E9479233C
:101070004B015C0120E030E0A9010E94D526181642
:1010800044F520E030E0A901C701B6010E94D52651
:1010900087FD09C0A5019401C701B6010E9406267B
:1010A0000E94D72556C020E030E0A901C701B60153
:1010B0000E94722387FF0DC0A5019401C701B601EC
:1010C0000E9406260E94D7252BED3FE049EC50E414
:1010D00015C020E030E0A901C501B4010E947223CF
:1010E00087FF0FC0A5019401C701B6010E94062623
:1010F0000E94D7252BED3FE049E450E40E946B2588
:1011000028C020E030E0A901C501B4010E9472238B
:1011100081111CC020E030E0A901C701B6010E9486
:10112000D526181674F020E030E0A901C701B601F9
:101130000E94722387FF0AC064EE7BEC86E990E48C
:1011400008C06BED7FE089EC9FE303C060E070E0D6
:10115000CB0120E030E044E353E40E94D8232BEDA0
:101160003FE049E450E40E9406260E947826CB0125
:10117000DF91CF91FF90EF90DF90CF90BF90AF9035
:101180009F908F9008956F927F928F929F92AF92CF
:10119000BF92CF92DF92EF92FF920F931F93CF9364
:1011A000DF93CDB7DEB762970FB6F894DEBF0FBE00
:1011B000CDBF7C01F701819191916F018E010F5F8D
:1011C0001F4F2CE0F80111922A95E9F75E01FDE02E
:1011D000AF0EB11C26E0F50111922A95E9F7A501A1
:1011E0006AE170E00E94510E8F84988869887A883D
:1011F0006D857E85072E000C880B990B0E94792344
:1012000020E030E040E85DE30E94D82369837A83E0
:101210008B839C83B401990C880B990B0E947923D2
:1012200020E030E040E85DE30E94D8236D837E83B8
:101230008F839887B301770C880B990B0E947923D1
:1012400020E030E040E85DE30E94D82369877A8798
:101250008B879C8798014701FEE08F0E911CF90156
:1012600081919191A191B1919F01F6018193919307
:10127000A193B1936F01E815F90589F7F701808112
:1012800091812CE0F80111922A95E9F726E0F50109
:1012900011922A95E9F7A50168E270E00E94510ECB
:1012A000AF84B888C988DA886D857E85072E000CE2
:1012B000880B990B0E94792320E030E048EC52E43F
:1012C0000E94062669837A838B839C83B501BB0CBD
:1012D000880B990B0E94792320E030E048EC52E41F
:1012E0000E9406266D837E838F839887B601DD0C6E
:1012F000880B990B0E94792320E030E048EC52E4FF
:101300000E94062669877A878B879C87FAE1EF0E11
:10131000F11CF80181919191A191B1918F01F4019A
:1013200081939193A193B1934F01EE15FF0589F736
:1013300062960FB6F894DEBF0FBECDBFDF91CF919E
:101340001F910F91FF90EF90DF90CF90BF90AF90E3
:101350009F908F907F906F9008958F929F92AF9201
:10136000BF92CF92DF92EF92FF920F931F93CF9392
:10137000DF93CDB7DEB762970FB6F894DEBF0FBE2E
:10138000CDBF8C01DC018D919D917D01FE013196D7
:101390006F012CE0DF011D922A95E9F7AE01435F52
:1013A0005F4F26E0FA0111922A95E9F76AE170E0B1
:1013B0000E94510E8F849888A988BA886D857E8591
:1013C000072E000C880B990B0E94792320E030E057
:1013D00040E85DE30E94D82369837A838B839C83F2
:1013E000B401990C880B990B0E94792320E030E01E
:1013F00040E85DE30E94D8236D837E838F839887C6
:10140000B501BB0C880B990B0E94792320E030E0DA
:1014100040E85DE30E94D82369877A878B879C87A1
:10142000F601C8010E964191519161917191D701D8
:101430004D935D936D937D937D01A817B90799F73F
:10144000F80182859385A485B5854681578160859D
:101450007185428F538F648F758F868F978FA0A36E
:10146000B1A362960FB6F894DEBF0FBECDBFDF9179
:10147000CF911F910F91FF90EF90DF90CF90BF9091
:10148000AF909F908F9008950F931F93CF93DF930A
:101490008C01FC01C081D1811092DC031092DB032E
:1014A0001092DE03109200041092470481E08093B2
:1014B00046041092410461E082E10E945A0F61E00B
:1014C00083E10E945A0F8091B9008E7F8093B9000A
:1014D0008091B9008D7F8093B90088E48093B80033
:1014E00085E48093BC0081E193E090935203809364
:1014F000510382E193E090935403809353038CE073
:101500008093B800CE010E94200F803AC9F41B8658
:101510001A8640E06DE370E0CE010E94990E6EE104
:1015200070E080E090E00E94FA0F40E26FE370E02C
:10153000CE010E94990E6EE170E080E090E013C051
:1015400068EE73E080E090E00E94FA0FCE010E9406
:10155000200F803AE1F282EB92E0DF91CF911F9170
:101560000F910C94970D0E94FA0FCE010E94200F4C
:10157000803A29F06AE070E080E090E0F4CF62E326
:1015800070E080E090E00E94FA0F40E06EE370E0CF
:10159000CE010E94990E6AE070E080E090E00E9427
:1015A000FA0F40E067E070E0CE010E94990E40E043
:1015B0006FE370E0CE010E94990E6AE070E080E077
:1015C00090E00E94FA0F8CE090E09B878A874CE0C5
:1015D0006DE370E0CE010E94990E6EE170E080E054
:1015E00090E00E94FA0F64E170E080E090E00E94D9
:1015F000FA0F64EF71E080E090E00E94FA0FC801FA
:10160000DF91CF911F910F910C94AD09FF920F9331
:101610001F93CF93DF93EC018B01F42EFC013296E4
:101620008CE0DF01982F1D929A95E9F73C96DF0137
:101630001D928A95E9F78CE090E00E944127FC0119
:101640008AE291E091838083C801110FAA0BBB0B42
:1016500086839783A087B187F38285EE94E0958394
:101660008483F983E883DF91CF911F910F91FF90DD
:1016700008950F931F93CF93DF93EC018B01842F79
:101680004E875F8761E00E94A70F83E090E00E9491
:101690004127FC01118300831282998388838CB5D2
:1016A000837F8CBD8CB58F7D8CBD8CB58C7F81602C
:1016B0008CBD8DB581608DBD1FB7F8948091DA0324
:1016C000811127C0E3EFF1E08491E7E0F2E094912B
:1016D000E82FF0E0EE0FFF1FEB52FE4FA591B49103
:1016E000EC91E92321F461E08AE00E945A0F61E065
:1016F0008AE00E94A70F8CB580618CBD8CB5806498
:101700008CBD61E08DE00E94A70F61E08BE00E943C
:10171000A70F8091DA038F5F8093DA031FBF0881E0
:10172000198161E0F80180810E94A70F61E0F80152
:1017300080810E945A0F60E0F80180810E945A0F58
:101740004FEF51E064E0C8010E94510C61E0F801E4
:1017500080810E945A0F60E08E85DF91CF911F91AA
:101760000F910C945A0FCF92DF92EF92FF92CF938A
:10177000DF93FC01DB0164857585C081D1811A1678
:101780001B06BCF46B01770FEE08FF08228533853A
:10179000A901330F660B770B9A01AB012C193D0998
:1017A0004E095F090E94C32424E630E040E050E087
:1017B00018C01097F1F06B01770FEE08FF08208535
:1017C0003185A901330F660B770B9A01AB012C19F8
:1017D0003D094E095F090E94C3242CE93FEF4FEFFA
:1017E0005FEF0E949924CA01B9016C0D7D1D8E1D09
:1017F0009F1DCE01DF91CF91FF90EF90DF90CF90B2
:101800000C94C005CF92DF92EF92FF92CF93DF93BB
:10181000FC01DB0166817781C081D1811A161B062C
:10182000BCF46B01770FEE08FF0824813581A90114
:10183000330F660B770B9A01AB012C193D094E094A
:101840005F090E94C32424E630E040E050E018C065
:101850001097F1F06B01770FEE08FF0822813381BA
:10186000A901330F660B770B9A01AB012C193D09C7
:101870004E095F090E94C3242CE93FEF4FEF5FEF51
:101880000E949924CA01B9016C0D7D1D8E1D9F1DFA
:10189000CE01DF91CF91FF90EF90DF90CF900C942D
:1018A000B805CF92DF92EF92FF921F93CF93DF9311
:1018B000EC01162F6A018A81811102C060E001C02B
:1018C00061E088810E945A0FA601517080E1189F43
:1018D000B0011124652B6EBD00000DB407FEFDCFD5
:1018E0001EB54EBD00000DB407FEFDCFDEB48A81EB
:1018F000811102C061E001C060E088810E945A0F3E
:101900001170F12EE12CC7018D29DF91CF911F912C
:10191000FF90EF90DF90CF9008950F931F93CF9398
:10192000DF93CDB7DEB762970FB6F894DEBF0FBE78
:10193000CDBF8C01CB01F80111821082138212827B
:10194000158214824AE0BE016F5F7F4F0E94561FCE
:10195000BE016F5F7F4FC8010E942F0562960FB6D0
:10196000F894DEBF0FBECDBFDF91CF911F910F91D5
:101970000895EF92FF920F931F93CF93DF93CDB70C
:10198000DEB7A1970FB6F894DEBF0FBECDBF7C01C6
:10199000CB01BA01F70111821082138212821582E3
:1019A00014828E010F5F1F4F22E044E00E940B1F44
:1019B000BC01C7010E942F05A1960FB6F894DEBFA7
:1019C0000FBECDBFDF91CF911F910F91FF90EF9090
:1019D0000895CF93DF93FC0124813581232B71F08F
:1019E000FB01DC01CD91DC9160817181CE010E940F
:1019F0004C29009719F08C1B9D0B02C08FEF9FEFB5
:101A0000DF91CF910895CF93DF93FC0144815581FD
:101A100041155105D9F061157105C1F09A0164179E
:101A2000750708F49B01EC0188819981421B530BD7
:101A30005D834C83BC01620F731F0E943D29E881C6
:101A4000F9818C819D81E80FF91F1082DF91CF9180
:101A500008950F931F93CF93DF93EC010E943410EE
:101A6000688779878A879B87E881F9810284F38573
:101A7000E02DCE01099597FF17C00E94341008850C
:101A800019852A853B85DC01CB01801B910BA20BBC
:101A9000B30B0C811D812E813F8180179107A20716
:101AA000B30710F38FEF9FEFDF91CF911F910F914D
:101AB0000895009769F0FC0101900020E9F7319743
:101AC000AF01481B590BBC0188E494E00C943E0123
:101AD00080E090E0089581EF92E00C94590DFC01B4
:101AE000448155816081718188E494E00C943E01C9
:101AF000CF93DF930E946F0DEC010E946B0D8C0F52
:101B00009D1FDF91CF910895CF93DF93EC01FB01EF
:101B100044815581608171810E94B504811103C0A7
:101B2000CE010E94E304CE01DF91CF9108950C9481
:101B3000590DFB01DC0111961C921E9213961C920A
:101B40001E92129715961C921E921497861797074D
:101B500049F0608171816115710521F044815581E1
:101B60000C940E050895909147049111FCCF91E0DB
:101B700090934704909346042FEF209345041092CE
:101B80004404260F2093430490934204909142040E
:101B9000880F892B8093420480914104813061F445
:101BA00010924104809142048093BB008091BC005C
:101BB00083FDF8CF85EC01C085EE8093BC00809159
:101BC00047048130E1F380914404861710F460915A
:101BD0004404A1E2B4E0E1E0F4E080E0861721F003
:101BE0009D9191938F5FFACF0895282F3091000433
:101BF000313208F04AC0809147048111FCCF9091A6
:101C0000FF0342E040934704209346042FEF2093C4
:101C100045041092440430934304EFEDF3E0A1E255
:101C2000B4E020E0321721F041914D932F5FFACFBD
:101C30001092420420914204990F922B90934204F7
:101C400090914104913061F41092410490914204CA
:101C50009093BB009091BC0093FDF8CF95EC01C030
:101C600095EE9093BC00909147049230E1F39091EF
:101C700045049F3F79F080914504803241F0809186
:101C80004504803331F084E005C081E003C082E088
:101C900001C083E01092DE03109200041092DD0375
:101CA0000895EF92FF920F931F93CF93DF938C01D0
:101CB0007A01DC0113968C91139791E09093DD03E8
:101CC0008093FF031092DE031092000414968D910E
:101CD0009C911597DC01ED91FC910190F081E02D34
:101CE000099581E00E94F50D66E0F80183810E946C
:101CF000B30D1092DC038093DB03E701F6E0EF0EF7
:101D0000F11CD80114968D919C911597DC01ED91F1
:101D1000FC910284F385E02D09958993EC16FD066C
:101D200081F781E0DF91CF911F910F91FF90EF90AC
:101D300008951F93CF93DF93EC01142F8B8191E0D3
:101D40009093DD038093FF031092DE031092000452
:101D50008C819D81DC01ED91FC910190F081E02D61
:101D600009958C819D81DC01ED91FC910190F081C0
:101D7000E02D612F099581E00E94F50D81E0DF9152
:101D8000CF911F910895CF92DF92EF92FF920F9320
:101D90001F93CF93DF937C018B016A0161E772E0AF
:101DA0000E944B05D80114968D919C911597009730
:101DB000C1F0E6018C159D0508F4EC01D801ED9108
:101DC000FC911197EC0FFD1FD08010826D917C91DA
:101DD000C7010E942F05F80180819181C80FD91F8A
:101DE000D882C701DF91CF911F910F91FF90EF90A3
:101DF000DF90CF9008953FB7F8948091F6049091CA
:101E0000F704A091F804B091F90426B5A89B05C089
:101E10002F3F19F00196A11DB11D3FBFBA2FA92F69
:101E2000982F8827820F911DA11DB11DBC01CD01E6
:101E300042E0660F771F881F991F4A95D1F70895D2
:101E4000CF93DF93EC018B8191E09093DD0380933E
:101E5000FF031092DE03109200048C819D81DC014F
:101E6000ED91FC910190F081E02D60E0099581E019
:101E70000E94F50D61E08B810E94B30D1092DC038E
:101E80008093DB038C819D81DC01ED91FC910284C8
:101E9000F385E02D0995DF91CF910895CF93DF93DE
:101EA0000E94590DEC010E946B0D8C0F9D1FDF915C
:101EB000CF91089590E0FC01EF5EFD4F2491FC016D
:101EC000E350FE4F3491FC01E751FE4FE491EE23C5
:101ED00009F43CC0222339F1233091F038F4213049
:101EE000A9F0223001F584B58F7D12C0273091F022
:101EF0002830A1F02430B9F4809180008F7D03C098
:101F0000809180008F77809380000DC084B58F779B
:101F100084BD09C08091B0008F7703C08091B0006C
:101F20008F7D8093B000F0E0EE0FFF1FE152FE4F77
:101F3000A591B4919FB7F894611104C08C9130952C
:101F4000382302C0EC913E2B3C939FBF0895CF9362
:101F5000DF9390E0FC01E350FE4F2491FC01E75138
:101F6000FE4F8491882361F190E0880F991FFC0156
:101F7000EB52FE4FC591D491FC01E152FE4FA59169
:101F8000B491611109C09FB7F8948881209582238C
:101F90008883EC912E230BC0623061F49FB7F894D4
:101FA0008881322F309583238883EC912E2B2C93BC
:101FB0009FBF06C08FB7F894E8812E2B28838FBF70
:101FC000DF91CF9108958E3008F08E508770806435
:101FD00080937C0080917A00806480937A00809165
:101FE0007A0086FDFCCF809178002091790090E006
:101FF000922B08958F929F92AF92BF92CF92DF92D1
:10200000EF92FF926B017C010E94FB0E4B015C0181
:10201000C114D104E104F104F1F00E94FB0EDC01D3
:10202000CB0188199909AA09BB09883E9340A105EB
:10203000B10570F321E0C21AD108E108F10888EE79
:10204000880E83E0981EA11CB11CC114D104E104C8
:10205000F10419F7DDCFFF90EF90DF90CF90BF90A4
:10206000AF909F908F9008952FB7F8946091F204ED
:102070007091F3048091F4049091F5042FBF0895BA
:102080001F920F920FB60F9211242F933F938F93AD
:102090009F93AF93BF938091F2049091F304A0912A
:1020A000F404B091F5043091F10423E0230F2D37AF
:1020B00020F40196A11DB11D05C026E8230F02964C
:1020C000A11DB11D2093F1048093F2049093F304B9
:1020D000A093F404B093F5048091F6049091F70472
:1020E000A091F804B091F9040196A11DB11D80934F
:1020F000F6049093F704A093F804B093F904BF9109
:10210000AF919F918F913F912F910F900FBE0F90A4
:102110001F901895CF93DF93CDB7DEB7C254D10986
:102120000FB6F894DEBF0FBECDBF789484B5826041
:1021300084BD84B5816084BD85B5826085BD85B56B
:10214000816085BD80916E00816080936E001092E9
:102150008100809181008260809381008091810064
:1021600081608093810080918000816080938000F5
:102170008091B10084608093B1008091B000816053
:102180008093B00080917A00846080937A0080917F
:102190007A00826080937A0080917A0081608093D7
:1021A0007A0080917A00806880937A001092C10052
:1021B000E0915804F091590482E08083E091540446
:1021C000F09155041082E0915604F091570410826A
:1021D00010926004E0915C04F0915D0486E08083DD
:1021E000E0915A04F0915B04808180618083E091EA
:1021F0005A04F0915B04808188608083E0915A04E6
:10220000F0915B04808180688083E0915A04F091B2
:102210005B0480818F7D80838EE090E00E94412767
:102220007C018FE190E00E9441278C01DC01139634
:102230001C921E92129788EE93E0A0E0B0E0F801A5
:1022400084839583A683B7838AE091E0918380831A
:10225000178A168A118E108E138E128E158E148E7A
:10226000668D6E7F6D7F668F6695617081E06827F1
:1022700082E00E945A0F61E082E00E94A70FEFEF18
:10228000F1E0E491D8015096EC93EBEEF1E0E491AB
:10229000F0E0EE0FFF1FE152FE4F85919491F8019F
:1022A000928B818B60E083E00E94A70FD8015E963D
:1022B0008C9181FD04C061E083E00E945A0F83E0AD
:1022C000F8018487E0E0F2E0E491D8011D96EC93F8
:1022D000ECEEF1E0E491F0E0EE0FFF1FE553FE4F6E
:1022E00085919491F80197878687D7010D931C9368
:1022F000F0924603E092450382E290E00E9441277B
:102300008C0149E250E061E070E00E94060B1093FE
:1023100044030093430382E290E00E9441274C0172
:1023200048E250E062E070E00E94060B90924203A7
:102330008092410383E090E00E9441275C01FC0110
:102340001282118281E18083B0924003A0923F0308
:1023500083E090E00E9441276C01DC0112961C9200
:102360001E9211978FE08C93D0923E03C0923D0352
:1023700083E090E00E9441277C01FC0112821182DF
:1023800080E18083F0923C03E0923B0383E090E0A5
:102390000E9441278C01DC0112961C921E9211971B
:1023A0008EE08C9310933A030093390382E090E01F
:1023B0000E9441272091450330914603FC0131835F
:1023C0002083909338038093370389E190E00E9443
:1023D0004127FC01609043037090440316821086ED
:1023E000178212861186148613861586168617861E
:1023F000108A118A128A138A148A158A168A178AF1
:10240000108E71826082B382A282D582C482909340
:1024100036038093350389E190E00E944127FC0157
:1024200016821086178212861186148613861586E8
:1024300016861786108A118A128A138A148A158AB8
:10244000168A178A108E91828082F382E282158327
:102450000483909334038093330368EC70E080E04E
:1024600090E00E94FA0F44E050E066E070E085E101
:1024700093E00E94390B47E050E065E070E085E0B2
:1024800093E00E94390B43E050E0509318034093CF
:1024900017032CEF30E030931A032093190380E8E0
:1024A00090E090931C0380931B0350931E03409372
:1024B0001D033093200320931F03909322038093E6
:1024C000210384E290E0909308038093070323EFB5
:1024D00030E030930A03209309038FE790E0909354
:1024E0000C0380930B034AE050E050930E0340939B
:1024F0000D033093100320930F03909312038093E6
:102500001103C3010E94440A68EC70E080E090E08F
:102510000E94FA0F80914103909142030E94440A65
:1025200068EC70E080E090E00E94FA0F89E891E0AA
:102530000E944E0F0E9434106B017C010E943410E7
:10254000DC01CB018C199D09AE09BF09883B9B407A
:10255000A105B105B8F480914103909142030E9416
:10256000AD0980914303909144030E94AD0985E930
:1025700091E00E94970D62E370E080E090E00E949D
:10258000FA0FDCCF87E991E00E944E0F8EE991E0CF
:102590000E944E0F8E010F5F1F4F4801222423948B
:1025A000312C0E9434106B017C0100E010E0980196
:1025B0006BAFDCAEEDAEFEAE0FAF21961FAF219735
:1025C00022962FAF229723963FAF2397A0904903DF
:1025D000B0904A03C0904B03D0904C03E0904D0361
:1025E000F0904E0300914F03109150032BAD3CAD82
:1025F0004DAD5EAD60E070E080E090E00E94472568
:1026000009F014F40C94C11E0E943410DC01CB01BB
:102610000A96A11DB11D8C019D0180934903109361
:102620004A0320934B0330934C0310924D031092B6
:102630004E0310924F0310925003009145031091E6
:102640004603D8018D919C91DC01ED91FC910084B1
:10265000F185E02D0995892B09F408C1F801E08086
:10266000F18061E772E0CE0189960E944B05C701B7
:102670000E94290D97FD0DC08A30910551F0898384
:102680001A8241E050E0B401CE0189960E94B5045F
:10269000EECF8DA59EA5049708F4E4C06FEA71E023
:1026A000CE0183960E944B05BE016D5D7F4FCE012A
:1026B00089960E94E90CAC01BE01675D7F4FC401A1
:1026C0000E94C30E89819A81009719F00E942F1FE2
:1026D00003C060E070E0CB01D80115967C936E9347
:1026E0001497C4010E944605CE0183960E944605B8
:1026F0006FEA71E0C4010E944B05B401CE018996D6
:102700000E94E90CBC016F5F7F4FCE0189960E9449
:10271000030DC4010E9446056FEA71E0CE01839665
:102720000E944B05BE016D5D7F4FCE0189960E94D0
:10273000E90CAC01BE01675D7F4FC4010E94C30E6E
:1027400089819A81009719F00E942F1F03C060E0D1
:1027500070E0CB01F80173836283C4010E944605D7
:10276000CE0183960E9446056FEA71E0C4010E9483
:102770004B05B401CE0189960E94E90CBC016F5F44
:102780007F4FCE0189960E94030DC4010E94460529
:102790006FEA71E0CE0183960E944B05BE016D5D2C
:1027A0007F4FCE0189960E94E90CAC01BE01675DA6
:1027B0007F4FC4010E94C30E89819A81009719F04E
:1027C0000E942B1F03C060E070E0CB01D801169679
:1027D0006D937D938D939C931997C4010E94460538
:1027E000CE0183960E9446056FEA71E0C4010E9403
:1027F0004B05B401CE0189960E94E90CBC016F5FC4
:102800007F4FCE0189960E94030DC4010E944605A8
:102810006FEA71E0CE0183960E944B05BE016D5DAB
:102820007F4FCE0189960E94E90CAC01BE01675D25
:102830007F4FC4010E94C30E89819A81009719F0CD
:102840000E942B1F03C060E070E0CB01F80162879B
:10285000738784879587C4010E944605CE018396BD
:102860000E944605CE0189960E9446058091430349
:10287000909144030E94C3088091410390914203C8
:102880000E94C30800913F0310914003D8018C912E
:102890000E94E30FF8019283818300913D03109120
:1028A0003E03D8018C910E94E30FF801928381834B
:1028B00000913B0310913C03D8018C910E94E30FDF
:1028C000F801928381830091390310913A03D80172
:1028D0008C910E94E30FF8019283818380914703DA
:1028E000909148038230910509F416C18330910517
:1028F00009F428C2019709F0ADC281EB91E00E9472
:10290000970D6091430370914403625F7F4FC40150
:102910000E94000749815A816B817C81CE01839698
:102920000E94B90C68EB71E0CE0189960E944B05BC
:10293000BE016D5D7F4FCE0189960E94840D0E947D
:102940006F0DCE0189960E944605CE0183960E94A6
:1029500046056091430370914403625F7F4FC40159
:102960000E9400074D815E816F817885CE0183963C
:102970000E94B90C6DEB71E0CE0189960E944B0567
:10298000BE016D5D7F4FCE0189960E94840D0E942D
:102990006F0DCE0189960E944605CE0183960E9456
:1029A00046056091430370914403625F7F4FC40109
:1029B0000E94000749855A856B857C85CE018396E8
:1029C0000E94B90C62EC71E0CE0189960E944B0521
:1029D000BE016D5D7F4FCE0189960E94840D0E94DD
:1029E0006F0DCE0189960E944605CE0183960E9406
:1029F0004605E0914303F091440342815381648191
:102A00007581C4010E94B90C67EC71E0CE01839618
:102A10000E944B05B401CE0183960E94840D0E9452
:102A20006F0DCE0183960E944605C4010E944605A3
:102A3000E0914303F0914403268D378D40A151A1CD
:102A400062857385848595850E946A25AB01BC01EA
:102A5000C4010E94B90C6BEC71E0CE0183960E9418
:102A60004B05B401CE0183960E94840D0E946F0D28
:102A7000CE0183960E944605C4010E944605E0915E
:102A80004303F0914403228D338D448D558D66812F
:102A90007781808591850E946A25AB01BC01C401C4
:102AA0000E94B90C6FEC71E0CE0183960E944B0539
:102AB000B401CE0183960E94840D0E946F0DCE0159
:102AC00083960E944605C4010E94460583ED91E06D
:102AD0000E94970DE0913F03F09140036181728164
:102AE000C4010E948D0C6CED71E0CE0183960E94B2
:102AF0004B05B401CE0183960E94840D0E946F0D98
:102B0000CE0183960E944605C4010E944605E091CD
:102B10003D03F0913E030EC184EE91E00E94970DBB
:102B20006091410370914203625F7F4FC4010E9434
:102B3000000749815A816B817C81CE0183960E9476
:102B4000B90C68EB71E0CE0189960E944B05BE017D
:102B50006D5D7F4FCE0189960E94840D0E946F0D9E
:102B6000CE0189960E944605CE0183960E944605B5
:102B70006091410370914203625F7F4FC4010E94E4
:102B800000074D815E816F817885CE0183960E941A
:102B9000B90C6DEB71E0CE0189960E944B05BE0128
:102BA0006D5D7F4FCE0189960E94840D0E946F0D4E
:102BB000CE0189960E944605CE0183960E94460565
:102BC0006091410370914203625F7F4FC4010E9494
:102BD000000749855A856B857C85CE0183960E94C6
:102BE000B90C62EC71E0CE0189960E944B05BE01E2
:102BF0006D5D7F4FCE0189960E94840D0E946F0DFE
:102C0000CE0189960E944605CE0183960E94460514
:102C1000E0914103F09142034281538164817581C7
:102C2000C4010E94B90C67EC71E0CE0183960E944A
:102C30004B05B401CE0183960E94840D0E946F0D56
:102C4000CE0183960E944605C4010E944605E0918C
:102C50004103F0914203268D378D40A151A1628539
:102C60007385848595850E946A25AB01BC01C401EA
:102C70000E94B90C6BEC71E0CE0183960E944B056B
:102C8000B401CE0183960E94840D0E946F0DCE0187
:102C900083960E944605C4010E944605E0914103C7
:102CA000F0914203228D338D448D558D668177815D
:102CB000808591850E946A25AB01BC01C4010E94F8
:102CC000B90C6FEC71E0CE0183960E944B05B40104
:102CD000CE0183960E94840D0E946F0DCE018396D3
:102CE0000E944605C4010E94460583ED91E00E94C2
:102CF000970DE0913B03F0913C0361817281C40127
:102D00000E948D0C6CED71E0CE0183960E944B0504
:102D1000B401CE0183960E94840D0E946F0DCE01F6
:102D200083960E944605C4010E944605E09139033E
:102D3000F0913A0361817281C4010E948D0C60EEB2
:102D400071E076C08BEE91E00E94970DE091450313
:102D5000F0914603648175816C34FFEF7F0714F4B2
:102D600068597E4FC4010E948D0C6FEC71E0CE015A
:102D700083960E944B05B401CE0183960E94840D78
:102D80000E946F0DCE0183960E944605C4010E94E9
:102D90004605E0914503F0914603628173816C34EE
:102DA0000FEF700714F468597E4FC4010E948D0C18
:102DB0006BEC71E0CE0183960E944B05B401CE010D
:102DC00083960E94840D0E946F0DCE0183960E940F
:102DD0004605C4010E944605E0914503F091460373
:102DE0004681578160857185C4010E94B90C62EFEC
:102DF00071E0CE0183960E944B05B401CE0183960B
:102E00000E94840D0E946F0DCE0183960E9446059C
:102E1000C4010E944605E0914503F09146034285B6
:102E2000538564857585C4010E94B90C67EF71E014
:102E3000CE0183960E944B05B401CE0183960E9479
:102E4000840D0E94780DCE0183960E944605C40130
:102E50000E9446058091470390914803089771F5B9
:102E60000E9434100091490310914A0320914B03B2
:102E700030914C034AE0C42ED12CE12CF12CC01A25
:102E8000D10AE20AF30A6C0D7D1D8E1D9F1D1CA246
:102E90001BA21EA21DA218A61FA22AE0A4010E9426
:102EA000611FB401CE0183960E942F05CE01839647
:102EB0000E94780DCE0183960E94460588E494E036
:102EC0000E94990118161906C4F588E494E00E943E
:102ED0007701823729F430924803209247032DC0AE
:102EE0008C3619F482E090E024C0833619F483E034
:102EF00090E01FC08D3619F484E090E01AC08E3245
:102F000019F485E090E015C08C3219F486E090E069
:102F100010C08E3629F410924803109247030DC05A
:102F2000843719F487E090E004C0853731F488E0F5
:102F300090E09093480380934703809147039091DA
:102F40004803049709F02DC160E772E0C4010E94B4
:102F50004B05E0913703F09138030190F081E02DAB
:102F6000C680D780E084F18420E030E0A901C70169
:102F7000B6010E94D52618168CF420E030E040EA15
:102F800050E4C701B6010E94D52618163CF4B701DB
:102F9000A601CE0183960E94B90C06C060E772E0DC
:102FA000CE0183960E944B0560E772E0CE018996C0
:102FB0000E944B05E0913703F09138030190F081B6
:102FC000E02DC680D780E084F18420E030E0A901C4
:102FD000C701B6010E94D52618166CF420E030E037
:102FE00040EA50E4C701B6010E94D52618161CF429
:102FF00066E771E002C060E871E0CE018F960E9442
:103000004B056DEF71E0CE01C5960E944B05BE01E8
:10301000615D7F4FCE01C5960E94840DBE01675D44
:103020007F4F0E94840DBE016D5D7F4F0E94840D15
:10303000B4010E94840D0E946F0DCE01C5960E94BE
:103040004605CE018F960E944605CE0189960E94C4
:103050004605CE0183960E944605C4010E9446059E
:1030600084E092E00E94970D00913703109138039D
:10307000C8010E94E40720E030E040EA50E40E94EA
:10308000D52618162CF080E192E00E94970D87C09B
:10309000C8010E940D089C012E5231092E3031408A
:1030A00018F08BE892E006C0823E91050CF46DC6E4
:1030B00085E992E00E94970D809137039091380343
:1030C0000E940D088C0160E772E0CE0189960E9493
:1030D0004B05BE01675D7F4FCE0183960E94990D1F
:1030E0004AE0B401C8010E94561FF401019000207B
:1030F000E9F73197AF0148195909B401CE01839618
:103100000E94B504811104C0CE0183960E94E3049D
:10311000CE0183960E946F0DCE0183960E944605D4
:10312000CE0189960E94460580913703909138031D
:103130000E94E4076B017C0160E772E0CE01899692
:103140000E944B05BE01675D7F4FCE0183960E94B2
:10315000990D840122E044E0C701B6010E940B1FD3
:10316000FC0101900020E9F73197AF01481B590B92
:10317000BC01CE0183960E94B504811104C0CE012A
:1031800083960E94E304CE0183960E946F0DCE01C8
:1031900083960E944605CE0189960E9446050E94AC
:1031A0006B0D8091470390914803059709F010C17A
:1031B0008BE192E00E94970D009135031091360348
:1031C000C8010E941B07882309F43FC0D8011D963F
:1031D0006D917D918D919C9150972AE030E040E077
:1031E00050E00E949924CA01B9010E9479239B01F1
:1031F000AC01F80161897289838994890E9406264D
:10320000AB01BC01C4010E94B90C60E772E0CE01C1
:1032100089960E944B05BE01675D7F4FCE01839664
:103220000E94990DB401CE0183960E94840D0E94E4
:103230006F0DCE0183960E944605CE0189960E94AD
:103240004605C4010E94460504C08CE292E00E943B
:10325000970D86E392E00E94970DE0913503F0917F
:10326000360385859685A785B089893E9340A1055B
:10327000B105D4F10190F081E02D268D378D40A16C
:1032800051A162857385848595850E946A250E9477
:1032900078269B0177FF04C022273327261B370B94
:1032A000B901C4010E948D0C60E772E0CE018996DD
:1032B0000E944B05BE01675D7F4FCE0183960E9441
:1032C000990DB401CE0183960E94840D0E946F0D6A
:1032D000CE0183960E944605CE0189960E9446053E
:1032E000C4010E94460504C08CE292E00E94970D42
:1032F0008EE392E00E94970DE0913503F091360342
:103300000480F581E02D61817281693C71051CF1B9
:10331000C4010E948D0C60E772E0CE0189960E9484
:103320004B05BE01675D7F4FCE0183960E94990DCC
:10333000B401CE0183960E94840D0E946F0DCE01D0
:1033400083960E944605CE0189960E944605C401D7
:103350000E94460504C08CE292E00E94970D88E42A
:1033600092E00E94970DE0913503F09136030280C0
:10337000F381E02D61817281693C71051CF1C4010A
:103380000E948D0C60E772E0CE0189960E944B0589
:10339000BE01675D7F4FCE0183960E94990DB401F7
:1033A000CE0183960E94840D0E946F0DCE018396FC
:1033B0000E944605CE0189960E944605C4010E94DE
:1033C000460504C08CE292E00E94970D0E946B0DAE
:1033D0008091470390914803069709F010C182E558
:1033E00092E00E94970D0091330310913403C801BD
:1033F0000E941B07882309F43FC0D8011D966D91D8
:103400007D918D919C9150972AE030E040E050E012
:103410000E949924CA01B9010E9479239B01AC0141
:10342000F80161897289838994890E940626AB011B
:10343000BC01C4010E94B90C60E772E0CE0189961C
:103440000E944B05BE01675D7F4FCE0183960E94AF
:10345000990DB401CE0183960E94840D0E946F0DD8
:10346000CE0183960E944605CE0189960E944605AC
:10347000C4010E94460504C08CE292E00E94970DB0
:1034800086E392E00E94970DE0913303F0913403BC
:1034900085859685A785B089893E9340A105B105AC
:1034A000D4F10190F081E02D268D378D40A151A1FE
:1034B00062857385848595850E946A250E94782699
:1034C0009B0177FF04C022273327261B370BB90146
:1034D000C4010E948D0C60E772E0CE0189960E94C3
:1034E0004B05BE01675D7F4FCE0183960E94990D0B
:1034F000B401CE0183960E94840D0E946F0DCE010F
:1035000083960E944605CE0189960E944605C40115
:103510000E94460504C08CE292E00E94970D8EE363
:1035200092E00E94970DE0913303F0913403048000
:10353000F581E02D61817281693C71051CF1C40146
:103540000E948D0C60E772E0CE0189960E944B05C7
:10355000BE01675D7F4FCE0183960E94990DB40135
:10356000CE0183960E94840D0E946F0DCE0183963A
:103570000E944605CE0189960E944605C4010E941C
:10358000460504C08CE292E00E94970D88E492E028
:103590000E94970DE0913303F09134030280F38190
:1035A000E02D61817281693C71051CF1C4010E94AA
:1035B0008D0C60E772E0CE0189960E944B05BE013A
:1035C000675D7F4FCE0183960E94990DB401CE01B5
:1035D00083960E94840D0E946F0DCE0183960E94F7
:1035E0004605CE0189960E944605C4010E94460503
:1035F00004C08CE292E00E94970D0E946B0D109225
:10360000320310923103A0903303B0903403C5010C
:103610000E941B07082FE0903503F0903603C70186
:103620000E941B07182F0111B9C380910403811157
:1036300006C011114AC080910303882389F180914B
:103640000303882349F06091FF0270910003809189
:103650000103909102030CC080910403882371F050
:103660006091F9027091FA028091FB029091FC0244
:103670000E9478267093FE026093FD021092FF0272
:103680001092000310920103109202031092F902AB
:103690001092FA021092FB021092FC02111103C068
:1036A000011103C06AC0002381F0809104038111DD
:1036B0000AC08091F7029091F80201969093F80267
:1036C0008093F70206C0112321F080910303882321
:1036D00081F320E030E048EC52E4D70155966D913B
:1036E0007D918D919C9158970E94D8236B017C010C
:1036F0004090FF025090000360900103709002031D
:103700009201A3010E94D526181614F062017301DC
:10371000C601D7018093FF0290930003A093010399
:10372000B093020320E030E048EC52E4F5016589F3
:1037300076898789908D0E94D8236B017C016090E7
:10374000F9027090FA02A090FB02B090FC02930183
:10375000A5010E94D526181614F063017501C60153
:10376000D7018093F9029093FA02A093FB02B093E1
:10377000FC021092F6021092F5028091F7029091ED
:10378000F80221E0823091050CF420E02093F4024D
:10379000181619060CF58091FD029091FE02909387
:1037A0002E0380932D0381E0809331038091F502F5
:1037B0009091F6020A96893EF3E09F072CF49093CD
:1037C000F6028093F50208C01092F6021092F502FC
:1037D0001092F8021092F70200930403109303036F
:1037E00060E772E0C4010E944B054091FF025091D6
:1037F00000036091010370910203CE0183960E9441
:10380000B90CB401CE0183960E94840D0E946F0D05
:10381000CE0183960E944605C4010E94460560E7DA
:1038200072E0C4010E944B054091F9025091FA02E6
:103830006091FB027091FC02CE0183960E94B90C4C
:10384000B401CE0183960E94840D0E946F0DCE01BB
:1038500083960E944605C4010E94460560E772E017
:10386000C4010E944B056091F40270E0CE01839682
:103870000E948D0CB401CE0183960E94840D0E949B
:103880006F0DCE0183960E944605C4010E94460535
:1038900060E772E0C4010E944B0560912D037091B6
:1038A0002E03CE0183960E948D0CB401CE01839627
:1038B0000E94840D0E946F0DCE0183960E944605E2
:1038C000C4010E94460560E772E0C4010E944B05F6
:1038D0006091FD027091FE02CE0183960E948D0CD4
:1038E000B401CE0183960E94840D0E946F0DCE011B
:1038F00083960E944605C4010E9446050E946B0DF6
:103900000091350310913603F80185859685A785CA
:10391000B089893E9340A105B10524F0D801ED910D
:10392000FC9110C0E0913303F091340385859685B6
:10393000A785B089893E9340A105B105B4F10190F6
:10394000F081E02D268D378D40A151A162857385D0
:10395000848595850E946A250E9478269B0177FFC1
:1039600004C022273327261B370BC901330FAA0BAC
:10397000BB0B9C01AD012A50310941095109ABE44F
:10398000B0E00E94B8242FE030E040E050E00E9418
:103990009924DA01C9014996A11DB11D90932E0306
:1039A00080932D0381E080933103D8011296ED912D
:1039B000FC91139721813281293C3105ACF0C9017A
:1039C000330FAA0BBB0B9C01AD01285C31094109E7
:1039D0005109A4E6B0E00E94B8242EEE32E040E0A7
:1039E00050E00E94992423C0E0913303F091340306
:1039F0000280F381E02D21813281293C3105F4F0F0
:103A0000C901330FAA0BBB0B9C01AD01285C310926
:103A100041095109A4E6B0E00E94B8242EEE32E03C
:103A200040E050E00E94992431952195310930936E
:103A3000300320932F0381E080933203D801149642
:103A4000ED91FC91159721813281293C310564F477
:103A5000E0913303F09134030480F581E02D21815E
:103A60003281293C3105F4F0C901330FAA0BBB0B9D
:103A70009C01AD01285C310941095109A4E6B0E07F
:103A80000E94B8242AE832E040E050E00E949924E5
:103A900031952195310930932E0320932D0381E038
:103AA0008093310380913203811104C0109230035E
:103AB00010922F0380913103811104C010922E03C4
:103AC00010922D0310922C0310922B0310922A03B4
:103AD00010922903E0902F03F0903003C701F7FE06
:103AE00004C0882799278E199F0900912D031091F2
:103AF0002E038E36910554F4C80117FF04C08827A1
:103B00009927801B910B8E3691052CF0309228035B
:103B10002092270304C01092280310922703E091FB
:103B20003703F09138030190F081E02D46805780F3
:103B30006084718420E030E0A901C301B2010E94D9
:103B4000D52618167CF420E030E040EA50E4C301AA
:103B5000B2010E94D52618162CF43092260320922A
:103B6000250304C01092260310922503B5E6EB1638
:103B7000F10434F0E4E6F0E0F0933003E0932F0337
:103B800080912F03909130038C399F4F44F49CE92E
:103B9000C92EDD24DA94D0923003C0922F0305366B
:103BA00011053CF084E6E82EF12CF0922E03E09211
:103BB0002D0380912D0390912E038C399F4F34F467
:103BC0002CE93FEF30932E0320932D0360912F03B8
:103BD0007091300371956195710985E193E00E94C0
:103BE000B30B60912D0370912E037195619571094E
:103BF00085E193E00E94020C0091270310912803B5
:103C00000130110511F461E001C060E080912303EF
:103C10000E945A0F60E070E085E093E00E94B30BD1
:103C200060E070E085E093E00E94020C8091250343
:103C300090912603019711F461E001C060E080914A
:103C400013030E945A0F80914703909148030797EE
:103C500009F097C0B801C4010E948D0C60912D033A
:103C600070912E03CE0183960E948D0C60912F03DC
:103C700070913003CE0189960E948D0C62E672E04D
:103C8000CE018F960E944B05BE01675D7F4FCE012E
:103C90008F960E94840D60E772E00E94F504BE01D9
:103CA0006D5D7F4F0E94840D60E772E00E94F50415
:103CB00062E772E00E94F504B4010E94840D60E79F
:103CC00072E00E94F5040E946F0DCE018F960E9453
:103CD0004605CE0189960E944605CE0183960E9434
:103CE0004605C4010E944605609125037091260394
:103CF000C4010E948D0C6091290370912A03CE01AA
:103D000083960E948D0C60912B0370912C03CE0141
:103D100089960E948D0C6AE772E0CE018F960E9410
:103D20004B05BE01675D7F4FCE018F960E94840DCB
:103D300060E772E00E94F504BE016D5D7F4F0E9456
:103D4000840D60E772E00E94F50462E772E00E9471
:103D5000F504B4010E94840D60E772E00E94F5044E
:103D60000E94780DCE018F960E944605CE0189965D
:103D70000E944605CE0183960E944605C4010E941A
:103D800046050E9440020C94D112883891051CF01F
:103D90008BE992E08FC984EA92E08CC9882309F408
:103DA0004ACC83CCE8E4F4E01382128288EE93E0FC
:103DB000A0E0B0E084839583A683B78328E331E055
:103DC0003183208325EC30E03587248724EC30E0F4
:103DD0003787268720EC30E0318B208B21EC30E0D8
:103DE000338B228B22EC30E0358B248B26EC30E0B9
:103DF000378B268B118E128E138E148EE5EEF4E027
:103E00001382128284839583A683B78388E691E028
:103E1000918380830895EF920F931F93CF93DF9345
:103E2000E80147FD02C034E001C034E1042E000C7B
:103E3000550B57FF03C0519541955109E32E022FB1
:103E4000242FAE010E94C11FCE01DF91CF911F919F
:103E50000F91EF900895662777270C941B211F93ED
:103E6000FC0199278827BC01E89411911032E9F3ED
:103E7000193010F01E30C8F31B3251F01D3249F4D6
:103E8000689406C00E94701F610F711D811D911DF5
:103E9000119110531A30B0F33EF4909580957095BF
:103EA00061957F4F8F4F9F4F1F910895BB274A30D9
:103EB00031F4992322F4BDE2909581959F4F0C94A3
:103EC000A81FBB272A3051F4992342F4BDE29095F4
:103ED0008095709561957F4F8F4F9F4F0C94861FF3
:103EE000592F482F372F262F660F771F881F991FAE
:103EF000660F771F881F991F620F731F841F951FFE
:103F0000660F771F881F991F0895BB27FA01A62FF8
:103F10006217710581059105330B30FB66F0AA2706
:103F2000660F771F881F991FAA1FA21710F0A21BE8
:103F300063953850A9F7A05DAA3308F0A95DA19355
:103F400036F7B111B1931082CA010C946223BB27DA
:103F5000FB015527AA27880F991FAA1FA41710F045
:103F6000A41B83955051B9F7A05DAA3308F0A95D51
:103F7000A193009779F7B111B1931192CB010C94F1
:103F80006223A9E0B0E0E7ECFFE10C94D1246A01E0
:103F9000122FB02E2BE3201720F0FF24F394F00E05
:103FA00002C02CE3F22E0F2D27E0AE014F5F5F4FD2
:103FB0000E946922BC014981842F8970813031F0CF
:103FC000E1FC06C0E0FE06C090E205C09DE203C031
:103FD0009BE201C090E05E2D507143FF3CC0911107
:103FE00002C083E001C084E0811718F4212F281B50
:103FF00001C020E051110BC0F601822F30E288236E
:1040000019F031938150FBCFC20ED11C20E09923CF
:1040100029F0D6019C93F60131966F01C6010396F3
:10402000E2FE0AC03EE4D6013C9341E411964C9373
:10403000119712963C9306C03EE6F601308341E6A6
:1040400041833283FC01322F40E2332309F442C022
:1040500041933150FACF42FF44C0911102C083E036
:1040600001C084E0811718F4212F281B01C020E033
:1040700051110BC0F601822F30E2882319F03193E1
:104080008150FBCFC20ED11C20E0992329F0D6012C
:104090009C93F60131966F01C6010396E2FE0BC0B8
:1040A00039E4D6013C933EE411963C93119736E4F3
:1040B00012963C9307C039E6F60130833EE6318321
:1040C00036E63283FC01322F40E2332319F041936C
:1040D0003150FBCFFC01E20FF11D10828EEF9FEFFC
:1040E000A6C021E030E0911102C020E030E01616B9
:1040F00017061CF4FB01319602C0E1E0F0E02E0F40
:104100003F1FBB2021F0EB2DF0E0319602C0E0E034
:10411000F0E02E0F3F1FE12FF0E02E173F071CF4B9
:10412000121B212F01C020E08E2D887159F4F60159
:10413000822F30E2882319F031938150FBCFC20ED9
:10414000D11C20E0992329F0D6019C93F6013196E9
:104150006F0151110BC0F601822F90E3882319F0F3
:1041600091938150FBCFC20ED11C20E00F2D060F82
:104170009A81342F307144FF03C0913309F4015008
:10418000101624F4093018F008E001C001E0AB017A
:1041900077FF02C040E050E0FB01E41BF50BA1E01B
:1041A000B0E0AC0FBD1FEA0FFB1F8EE2A82E4B0143
:1041B000801A91080B2D10E01195019511094F3FC0
:1041C000BFEF5B0721F4D601AC9211966D01641725
:1041D00075072CF08416950614F4818101C080E3E4
:1041E000415051093196D60111967D014017510772
:1041F00024F0D6018C936701E2CF6417750739F478
:10420000963320F4953319F4311101C081E3F6019E
:104210008083F701822F90E2882319F091938150D7
:10422000FBCFF701E20FF11D108280E090E02996AC
:10423000ECE00C94ED24A0E0B0E0E1E2F1E20C94BB
:10424000D124EC016B016115710519F0FB0191831B
:1042500080837E01FFEFEF1AFF0A0881802F90E034
:104260000E944123892B11F0E701F3CF0D3239F47D
:104270007E0182E0E80EF11C098111E008C00B32DA
:1042800029F47E0192E0E90EF11C098110E0E701BA
:10429000219743E050E06EE970E0CE010E944A238E
:1042A000892BC1F4239645E050E069E970E0CE0126
:1042B0000E944A23892B09F42596C114D10419F0D0
:1042C000F601D183C0831111F6C060E070E080E890
:1042D0009FE7FAC043E050E066E970E0CE010E943B
:1042E0004A23892B59F4C114D10409F4E9C0F2E03E
:1042F000EF0EF11CF601F182E082E2C020E030E036
:10430000A901C0E0D0E0F70180EDA82EA00E89E061
:104310008A1530F1912F9260B92E812F887012FF8B
:1043200004C0811124C0219622C081112197A5E0EB
:10433000B0E00E94B824DC01CB01880F991FAA1FAE
:10434000BB1F9C01AD012A0D311D411D511D283996
:1043500089E93807480789E1580748F0166006C020
:104360009EEFA9120AC013FD40C01860B12E8FEF56
:10437000E81AF80A00811B2DC6CF802F8F7D853467
:10438000A1F580818D3211F4106106C08B3221F0CD
:10439000319661E070E004C08181329662E070E0A5
:1043A00080538A3018F0E61BF70B1FC060E070E006
:1043B00060389CE079075CF4DB01AA0FBB1FAA0FF1
:1043C000BB1F6A0F7B1F660F771F680F711D319629
:1043D000DF0111978C9180538A3050F314FF03C092
:1043E000719561957109C60FD71F11FF08C0C114DF
:1043F000D10429F0CF010197F60191838083CA018E
:10440000B9010E947723212F2370233019F04B012B
:104410005C0106C04B015C01B7FAB094B7F8B094E8
:1044200020E030E0A901C501B4010E947223882375
:1044300009F43EC0D7FF06C0D195C195D10905EB5F
:1044400010E002C00DEC10E06801F8E1CF1AD108CD
:1044500090E2E92EF12CCE15DF0574F0F8012591DC
:10446000359145915491C501B4010E94D8234B0167
:104470005C01CE19DF09EFCF04501109F594E794E0
:104480000C151D0541F78A2D880F8B2D881F8F3F36
:1044900049F020E030E0A901C501B4010E94722377
:1044A000811106C082E290E09093FB048093FA04AD
:1044B000C501B40109C060E070E080E89FEF04C06E
:1044C00060E070E080EC9FE7CDB7DEB7ECE00C94E5
:1044D000ED24283008F027E03327DA01990F311D49
:1044E00087FD916000966105710539F432602E5F99
:1044F0003D9330E32A95E1F708959F3F30F08038EF
:104500007105610509F03C5F3C5F3D93913008F017
:104510008068911DDF93CF931F930F93FF92EF92CB
:10452000192F987F9695E92F96959695E90FFF2775
:10453000E55DFE4F99273327EE24FF24A701E7010D
:1045400005900894079428F4360FE71EF81E491FBB
:10455000511D660F771F881F991F0694A1F70590BC
:10456000079428F4E70EF81E491F561FC11D770F48
:10457000881F991F661F0694A1F70590079428F4D9
:10458000F80E491F561FC71FD11D880F991F661FA0
:10459000771F0694A1F70590079420F4490F561F42
:1045A000C71FD81F990F661F771F881F0694A9F78A
:1045B00084911095177041F0D695C79557954795FA
:1045C000F794E7941A95C1F7E1EDF0E0689415903F
:1045D000159135916591959105907FE27395E1185C
:1045E000F10A430B560BC90BD009C0F7E10CF11EC1
:1045F000431F561FC91FD01D7EF4703311F48A95D6
:10460000E6CFE894015030F0080F0AF400270217B3
:1046100008F4202F2395022F7A3328F079E37D9335
:104620002A95E9F710C07D932A9589F60694979507
:104630006795379517951794E118F10A430B560BB8
:10464000C90BD00998F023957E9173957A3308F0C1
:1046500070E37C932013B8F77E9170617D9330F006
:10466000839571E37D9370E32A95E1F71124EF9030
:10467000FF900F911F91CF91DF91992787FD909522
:10468000089591110C944524803219F08950855079
:10469000C8F70895FB01DC014150504088F08D912E
:1046A00081341CF08B350CF4805E659161341CF014
:1046B0006B350CF4605E861B611171F3990B0895E4
:1046C000881BFCCFDC01FC01672F71917723E1F798
:1046D000329704C07C916D9370836291AE17BF07CF
:1046E000C8F308950E94B42308F481E00895E89483
:1046F00009C097FB3EF490958095709561957F4F2A
:104700008F4F9F4F9923A9F0F92F96E9BB279395D7
:10471000F695879577956795B795F111F8CFFAF4E7
:10472000BB0F11F460FF1BC06F5F7F4F8F4F9F4F18
:1047300016C0882311F096E911C0772321F09EE876
:10474000872F762F05C0662371F096E8862F70E0DC
:1047500060E02AF09A95660F771F881FDAF7880FB6
:104760009695879597F90895990F0008550FAA0B0C
:10477000E0E8FEEF16161706E807F907C0F0121674
:104780001306E407F50798F0621B730B840B950B77
:1047900039F40A2661F0232B242B252B21F40895CC
:1047A0000A2609F4A140A6958FEF811D811D089569
:1047B0000E94EB230C945F240E94512438F00E9445
:1047C000582420F0952311F00C9448240C944E2486
:1047D00011240C9493240E94702470F3959FC1F3CC
:1047E000950F50E0551F629FF001729FBB27F00D9F
:1047F000B11D639FAA27F00DB11DAA1F649F6627F4
:10480000B00DA11D661F829F2227B00DA11D621F42
:10481000739FB00DA11D621F839FA00D611D221FFC
:10482000749F3327A00D611D231F849F600D211DE0
:10483000822F762F6A2F11249F5750409AF0F1F063
:1048400088234AF0EE0FFF1FBB1F661F771F881FCC
:1048500091505040A9F79E3F510580F00C94482498
:104860000C9493245F3FE4F3983ED4F386957795B8
:104870006795B795F795E7959F5FC1F7FE2B880F72
:10488000911D9695879597F90895992788270895FA
:1048900097F99F6780E870E060E008959FEF80ECF3
:1048A000089500240A941616170618060906089596
:1048B00000240A9412161306140605060895092EFC
:1048C0000394000C11F4882352F0BB0F40F4BF2B6B
:1048D00011F460FF04C06F5F7F4F8F4F9F4F0895AB
:1048E00057FD9058440F551F59F05F3F71F04795A1
:1048F000880F97FB991F61F09F3F79F08795089586
:10490000121613061406551FF2CF4695F1DF08C0A4
:10491000161617061806991FF1CF869571056105C1
:1049200008940895E894BB2766277727CB0197F969
:104930000895052E97FB1EF400940E94B02457FDA5
:1049400007D00E94022507FC03D04EF40C94B0243B
:1049500050954095309521953F4F4F4F5F4F0895AB
:1049600090958095709561957F4F8F4F9F4F0895DB
:104970000E942425A59F900DB49F900DA49F800DAB
:10498000911D11240895B7FF0C94B8240E94B824F7
:10499000821B930B08952F923F924F925F926F92DA
:1049A0007F928F929F92AF92BF92CF92DF92EF92BF
:1049B000FF920F931F93CF93DF93CDB7DEB7CA1B40
:1049C000DB0B0FB6F894DEBF0FBECDBF09942A886B
:1049D000398848885F846E847D848C849B84AA8413
:1049E000B984C884DF80EE80FD800C811B81AA81A0
:1049F000B981CE0FD11D0FB6F894DEBF0FBECDBF6B
:104A0000ED010895A1E21A2EAA1BBB1BFD010DC0EA
:104A1000AA1FBB1FEE1FFF1FA217B307E407F5076E
:104A200020F0A21BB30BE40BF50B661F771F881F4A
:104A3000991F1A9469F760957095809590959B01E0
:104A4000AC01BD01CF010895A29FB001B39FC00189
:104A5000A39F700D811D1124911DB29F700D811DAA
:104A60001124911D089597FB072E16F4009407D08A
:104A700077FD09D00E94502507FC05D03EF49095A3
:104A800081959F4F0895709561957F4F08952A15E0
:104A90003B054C055D056E057F0580079107089570
:104AA000AA1BBB1B51E107C0AA1FBB1FA617B70754
:104AB00010F0A61BB70B881F991F5A95A9F7809570
:104AC0009095BC01CD010895EE0FFF1F0590F49164
:104AD000E02D09945058BB27AA270E9482250C94E8
:104AE0005F240E94512438F00E94582420F039F4A9
:104AF0009F3F19F426F40C944E240EF4E095E7FB46
:104B00000C944824E92F0E94702458F3BA176207C6
:104B100073078407950720F079F4A6F50C94922486
:104B20000EF4E0950B2EBA2FA02D0B01B9019001C8
:104B30000C01CA01A0011124FF27591B99F0593F0C
:104B400050F4503E68F11A16F040A22F232F342F54
:104B50004427585FF3CF469537952795A795F040A2
:104B60005395C9F77EF41F16BA0B620B730B840BB7
:104B7000BAF09150A1F0FF0FBB1F661F771F881F6F
:104B8000C2F70EC0BA0F621F731F841F48F48795C7
:104B900077956795B795F7959E3F08F0B0CF9395B9
:104BA000880F08F09927EE0F979587950895DF9362
:104BB000DD27B92FBF7740E85FE3161617064807D1
:104BC0005B0718F4D92F0E94DA269F938F937F9367
:104BD0006F930E942827E8E6F0E00E94AE260E942C
:104BE0005F242F913F914F915F910E94EB23DD2332
:104BF00051F09058A2EA2AED3FE049EC5FE3D0780B
:104C00005D270E948225DF910C945F240E941A2662
:104C10000C945F240E94582458F00E94512440F0C4
:104C200029F45F3F29F00C94482451110C949324EB
:104C30000C944E240E94702468F39923B1F35523F9
:104C400091F3951B550BBB27AA276217730784079F
:104C500038F09F5F5F4F220F331F441FAA1FA9F335
:104C600035D00E2E3AF0E0E832D091505040E69523
:104C7000001CCAF72BD0FE2F29D0660F771F881F84
:104C8000BB1F261737074807AB07B0E809F0BB0B77
:104C9000802DBF01FF2793585F4F3AF09E3F51058B
:104CA00078F00C9448240C9493245F3FE4F3983EEE
:104CB000D4F3869577956795B795F7959F5FC9F774
:104CC000880F911D9695879597F90895E1E0660FF5
:104CD000771F881FBB1F621773078407BA0720F06E
:104CE000621B730B840BBA0BEE1F88F7E0950895D7
:104CF0000E947F266894B1110C94932408950E9419
:104D0000782488F09F5798F0B92F9927B751B0F0C1
:104D1000E1F0660F771F881F991F1AF0BA95C9F73F
:104D200014C0B13091F00E949224B1E008950C9427
:104D30009224672F782F8827B85F39F0B93FCCF3DA
:104D4000869577956795B395D9F73EF490958095BC
:104D5000709561957F4F8F4F9F4F0895DF93CF934D
:104D60001F930F93FF92EF92DF927B018C01689467
:104D700006C0DA2EEF010E94EB23FE01E894A59114
:104D80002591359145915591A6F3EF010E94822519
:104D9000FE019701A801DA9469F7DF90EF90FF9088
:104DA0000F911F91CF91DF9108950E94B42308F4D1
:104DB0008FEF08959B01AC0160E070E080E89FE315
:104DC0000C94062619F416F40C944E240C942C27FB
:104DD0000E947824B8F39923C9F3B6F39F57550B73
:104DE00087FF0E943A270024A0E640EA90018058FD
:104DF0005695979528F4805C660F771F881F20F0E2
:104E000026173707480730F4621B730B840B2029E1
:104E100031294A2BA69517940794202531254A2736
:104E200058F7660F771F881F20F0261737074807A7
:104E300030F4620B730B840B200D311D411DA095C6
:104E400081F7B901842F9158880F96958795089519
:104E50009B01AC010C94D8239F3F31F0915020F47A
:104E6000879577956795B795880F911D9695879546
:104E700097F9089591505040660F771F881FD2F719
:104E800008950F931F93CF93DF938230910510F411
:104E900082E090E0E091FE04F091FF0420E030E039
:104EA000A0E0B0E0309719F1408151810281138177
:104EB00048175907C8F08417950769F4109731F01F
:104EC00012960C93129713961C9327C00093FE041E
:104ED0001093FF0422C02115310519F04217530722
:104EE00018F49A01BD01EF01DF01F801DBCF2115B4
:104EF0003105F9F0281B390B2430310580F48A8103
:104F00009B816115710521F0FB019383828304C0AD
:104F10009093FF048093FE04FE01329644C0FE018C
:104F2000E20FF31F81939193225031093983288333
:104F30003AC02091FC043091FD04232B41F42091D0
:104F40000201309103013093FD042093FC04209171
:104F50000001309101012115310541F42DB73EB713
:104F60004091040150910501241B350BE091FC0494
:104F7000F091FD04E217F307A0F42E1B3F0B281756
:104F8000390778F0AC014E5F5F4F2417350748F0C2
:104F90004E0F5F1F5093FD044093FC048193919347
:104FA00002C0E0E0F0E0CF01DF91CF911F910F91BF
:104FB0000895CF93DF93009709F481C0FC013297E5
:104FC00013821282A091FE04B091FF04109781F425
:104FD00020813181820F931F2091FC043091FD04C8
:104FE0002817390751F5F093FD04E093FC0467C0DE
:104FF000ED0120E030E0CE17DF0740F44A815B810D
:105000009E0141155105F1F0EA01F5CFD383C2832A
:1050100040815181840F951FC817D90759F48881A1
:105020009981840F951F0296918380838A819B8149
:10503000938382832115310529F4F093FF04E093D3
:10504000FE043DC0E901FB83EA8349915991C40FF5
:10505000D51FEC17FD0761F480819181840F951FA6
:105060000296E90199838883828193819B838A8355
:10507000E0E0F0E012968D919C911397009719F063
:10508000FD01DC01F7CF8D919C9111979D012E5F61
:105090003F4F820F931F2091FC043091FD0428178D
:1050A000390769F4309729F41092FF041092FE0436
:1050B00002C013821282B093FD04A093FC04DF911E
:1050C000CF910895A0E0B0E0E8E6F8E20C94CF2498
:1050D000EC01009721F4CB010E944127B4C0FC01F0
:1050E000E60FF71F9C0122503109E217F30708F47D
:1050F000A8C0D9010D911C91119706171707B0F0A0
:105100000530110508F49BC0C8010497861797075E
:1051100008F495C002501109061B170B0193119357
:105120006D937C93CF010E94D92789C05B01A01A9F
:10513000B10A4C01800E911EA091FE04B091FF04B3
:10514000612C712CE12CF12C109709F446C08D9143
:105150009C911197A815B905B1F56C0142E0C40EF8
:10516000D11CCA14DB0478F14C018A189B08640135
:1051700042E0C40ED11C1296BC9012971396AC91CB
:10518000B5E0CB16D10440F0B282A3839182808235
:10519000D9016D937C9309C00E5F1F4F800F911F43
:1051A000F90191838083EB2DFA2FE114F10431F0A2
:1051B000D7011396FC93EE93129741C0F093FF042E
:1051C000E093FE043CC06816790608F43C017D01BA
:1051D00012960D90BC91A02DB7CF8091FC049091B8
:1051E000FD0488169906E1F466167706C8F48091E6
:1051F000000190910101009741F48DB79EB7409155
:10520000040150910501841B950BE817F907C8F4B8
:10521000F093FD04E093FC04F901718360830FC0F7
:10522000CB010E9441277C01009759F0A801BE01E3
:105230000E942D29CE010E94D927C70104C0CE01AA
:1052400002C080E090E0CDB7DEB7EEE00C94EB2436
:1052500081E090E0F8940C946629FB01DC0102C027
:1052600001900D9241505040D8F70895FB01DC01A8
:1052700001900D920020E1F70895FB01DC014150FF
:10528000504048F001900D920020C9F701C01D92D6
:1052900041505040E0F70895FB0151915523A9F08A
:1052A000BF01DC014D9145174111E1F759F4CD01E2
:1052B0000190002049F04D9140154111C9F3FB01C7
:1052C0004111EFCF81E090E001970895F894FFCF6E
:1052D000000000052000000000005E023E019B036C
:1052E0005D02AE02C1024A020000000000000000A0
:1052F000DE029E039E0300000000DD02C703DE0203
:10530000C903700400000000D1013E0168011E02C3
:10531000990177018B01000000009E033E019B0371
:105320009A039E039E039E03000000009E033E011D
:105330009B039A03000000006B033E039B035D0286
:1053400036032203130309446574656374656400BE
:10535000094E6F7468696E670043616C69627261BF
:1053600074696E67002E000A446F6E6521005072EA
:105370006F6772616D207374617274656421002CB3
:10538000007273686F653A000961780900096179F4
:10539000090009617A0900097909000972090009FF
:1053A000700900097765696768743A000973090034
:1053B000096209006C73686F653A0063686573740D
:1053C0003A0009615A090009616C740900094A75BB
:1053D0006D703A0043686573740942656E643A0003
:1053E0000953747261696768740900526967687467
:1053F00020666F6F740957616C6B3A00094E6F74C9
:1054000068696E670900094372756973650009531D
:105410007465706261636B000953746570736964CD
:1054200065004C65667420666F6F740957616C6B1C
:105430003A004C656674206A6F79737469636B3ADD
:105440000900627574746F6E090052696768742090
:105450006A6F79737469636B3A0900096261636BFF
:105460007761726400096C6566740009666F727713
:105470006172640009726967687400424E4F30358A
:1054800035004F6F6F70732C206E6F20424E4F307F
:1054900035352031206465746563746564202E2E73
:1054A0002E20436865636B20796F7572207769726F
:1054B000696E67206F722049324320414444522173
:0454C000000D0A00D1
:00000001FF
