:100000000C9414010C943C010C943C010C94AE052E
:100010000C94AE050C94AE050C943C010C943C0180
:100020000C943C010C943C010C943C010C943C015C
:100030000C943C010C943C010C943C010C943C014C
:100040000C94BF0E0C943C010C947C050C9456054A
:100050000C943C010C943C010C943C010C943C012C
:100060000C9428060C943C01084AD73B3BCE016E09
:1000700084BCBFFDC12F3D6C74319ABD56833DDAFF
:100080003D00C77F11BED9E4BB4C3E916BAAAABE0E
:10009000000000803F004E414E494E495459494EA0
:1000A00046CDCCCC3D0AD7233C17B7D13877CC2BE3
:1000B000329595E6241FB14F0A000020410000C888
:1000C0004200401C4620BCBE4CCA1B0E5AAEC59D09
:1000D0007400407A10F35A00A0724E18090010A55F
:1000E000D4E80000E87648170000E40B5402000052
:1000F000CA9A3B000000E1F50500008096980000D8
:100100000040420F000000A0860100000010270000
:10011000000000E803000000006400000000000A86
:1001200000000000000100000000002C76D888DCF0
:10013000674F0823DFC1DFAE59E1B1B796E5E3E4CD
:1001400053C63AE651997696E8E6C28426EB898C46
:100150009B62ED407C6FFCEFBC9C9F40F2BAA56FA8
:10016000A5F490055A2AF75C936B6CF9676DC11B77
:10017000FCE0E40D47FEF520E6B500D0ED902E033F
:1001800000943577050080841E080000204E0A0088
:100190000000C80C333333330F986E12831141EFD4
:1001A0008D2114893BE65516CFFEE6DB18D1844B32
:1001B000381BF77C1D901DA4BBE424203284725EA2
:1001C000228100C9F124ECA1E53D270000000023B5
:1001D000002600290000000000250028002B000454
:1001E00004040404040404020202020202030303DE
:1001F00003030301020408102040800102040810D8
:100200002001020408102000000000240027002A1A
:1002100000000000080002010000030407000000C5
:10022000000000000000C21611241FBECFEFD8E06E
:10023000DEBFCDBF24E0AAE5B2E001C01D92AB391C
:10024000B207E1F712E0A0E0B1E0EAE8F3E402C0AF
:1002500005900D92AA35B107D9F711E0C4E1D1E0BC
:1002600004C02197FE010E94C11DC331D107C9F707
:100270000E94360F0C94C3210C940000CF92DF92A1
:10028000EF92FF920F931F93CF93DF936C017A014C
:100290008B01C0E0D0E0CE15DF0581F0D8016D9173
:1002A0008D01D601ED91FC910190F081E02DC60108
:1002B0000995892B11F02196EECF7E01C701DF91C0
:1002C000CF911F910F91FF90EF90DF90CF90089505
:1002D000FC01538D448D252F30E0842F90E0821B4C
:1002E000930B541710F0CF96089501970895FC01D1
:1002F000918D828D981761F0828DDF01A80FB11D5D
:100300005D968C91928D9F5F9F73928F90E0089580
:100310008FEF9FEF0895FC01918D828D981731F03A
:10032000828DE80FF11D858D90E008958FEF9FEF8E
:100330000895FC01918D228D892F90E0805C9F4F64
:10034000821B91098F739927089581E893E00E9499
:10035000990121E0892B09F420E0822F0895FC0106
:10036000848DDF01A80FB11DA35ABF4F2C91848D3E
:1003700090E001968F739927848FA689B7892C9373
:10038000A089B1898C91837080648C93938D848DC6
:10039000981306C00288F389E02D80818F7D8083C9
:1003A0000895EF92FF920F931F93CF93DF93EC0189
:1003B00081E0888F9B8D8C8D981305C0E889F98921
:1003C000808185FD26C0F62E0B8D10E00F5F1F4F3C
:1003D0000F731127E02E8C8DE8120CC00FB607FCAE
:1003E000FACFE889F989808185FFF5CFCE010E9497
:1003F000AF01F1CF8B8DFE01E80FF11DE35AFF4FE6
:10040000F0829FB7F8940B8FEA89FB898081806224
:100410000AC09FB7F894EE89FF896083E889F9895B
:1004200080818370806480839FBF81E090E0DF9152
:10043000CF911F910F91FF90EF900895CF93DF938D
:10044000EC01888D8823C9F0EA89FB89808185FDCC
:1004500005C0A889B9898C9186FD0FC00FB607FC2D
:10046000F5CF808185FFF2CFA889B9898C9185FF6E
:10047000EDCFCE010E94AF01E7CFDF91CF9108957C
:1004800080E090E0892B29F00E94A50181110C9455
:100490000000089520912C0430912D04281739076D
:1004A00071F490912A0480912B04981741F0E09107
:1004B0002A04F0E0EE55FD4F808190E008958FEF23
:1004C0009FEF089508951F93CF93DF93DC015C960F
:1004D0008D919C915D97009739F421E030E013965F
:1004E0003C932E9312973BC05196ED91FC915297FD
:1004F00050962C915097322F30951FB75E964C91A5
:100500005E97742F727041FD6095F8944081772357
:1005100011F0422B01C043234083EC012197F1F7F6
:1005200048E0508160FF02C0522B01C0532350832A
:10053000EC012197F1F76695415099F78081772377
:1005400019F08323808302C0282B20831FBF5C9671
:100550008D919C915D970197F1F781E090E0DF919B
:10056000CF911F91089520912C0430912D042817CC
:10057000390771F480912B0420912A0490E0805C6B
:100580009F4F821B910960E470E00E94901D0895C6
:1005900080E090E0089520912C0430912D042817DC
:1005A0003907B9F490912A0480912B04981789F0A7
:1005B000E0912A04F0E0EE55FD4F808120912A045D
:1005C00030E02F5F3F4F2F73332720932A0490E0B2
:1005D00008958FEF9FEF08950895089585ED809316
:1005E000BC008091BC0084FDFCCF10928003089574
:1005F00040917D02262F30E0240F311D213231053C
:10060000DCF4209180032430C9F4FC0180E090E008
:10061000861758F430917D022191DC01A55ABD4F17
:10062000A30FB11D2C930196F3CF80917D02680F2B
:1006300060937D0280E0089581E0089582E008954E
:1006400008950895E091150380911403E81730F49C
:10065000F0E0E65CFC4F808190E008958FEF9FEF23
:1006600008959091150380911403981750F4E92F81
:10067000F0E0E65CFC4F208130E09F5F9093150333
:1006800002C02FEF3FEFC90108958091140390E05D
:1006900020911503821B91090895CF92DF92EF926A
:1006A000FF920F931F93CF93DF937C01CB018A01BD
:1006B00020911603222389F0EB016B01C40ED51E95
:1006C000CC15DD0569F06991D701ED91FC910190A0
:1006D000F081E02DC7010995F3CF642F0E94F80245
:1006E000C801DF91CF911F910F91FF90EF90DF90A4
:1006F000CF900895CF93DF931F92CDB7DEB7698374
:10070000209116032223D1F020913903203240F0AA
:1007100021E030E0FC013383228380E090E015C0CB
:1007200080911703E82FF0E0E85EFC4F99819083F9
:100730008F5F809317038093390305C061E0CE017A
:1007400001960E94F80281E090E00F90DF91CF9136
:100750000895089580E090E008950E9485210F9308
:100760001F93CF93DF93EC0188819981009729F043
:100770002A813B812617370788F48B016F5F7F4FF3
:100780000E94BF20009761F0998388831B830A83AE
:100790002C813D81232B11F4FC01108281E001C0EA
:1007A00080E0DF91CF911F910F9108950C94362036
:1007B0008F929F92AF92BF92CF92DF92EF92FF9271
:1007C0000F931F93CF93DF93CDB7DEB762970FB62A
:1007D000F894DEBF0FBECDBF7C018B0184E2DB014C
:1007E0001D928A95E9F784E290E0A0E0B0E0FB0179
:1007F00080839183A283B383F70186819781A0854B
:10080000B185FB0184839583A683B78383E090E061
:10081000A0E0B0E080879187A287B3870E94B30EE3
:10082000D80150966D937D938D939C935397FE01C1
:1008300031968CE0DF011D928A95E9F7AE01435FA6
:100840005F4F86E0FA0111928A95E9F76AE170E05C
:10085000C7010E94D70C6D857E85072E000C880B82
:10086000990B0E941F1C20E030E040E85DE30E94ED
:100870007E1C4B015C016F857889072E000C880B6C
:10088000990B0E941F1C20E030E040E85DE30E94CD
:100890007E1C6B017C0169897A89072E000C880B0C
:1008A000990B0E941F1C20E030E040E85DE30E94AD
:1008B0007E1CD80154968D929D92AD92BC92579712
:1008C000F801C08ED18EE28EF38E5C966D937D938F
:1008D0008D939C935F9781E062960FB6F894DEBF8C
:1008E0000FBECDBFDF91CF911F910F91FF90EF9081
:1008F000DF90CF90BF90AF909F908F9008950F930F
:100900001F93CF93DF938C01EB0188E2FB011192DF
:100910008A95E9F74BE050E06AE471E0CE010E946D
:100920009A211B8681E090E0A0E0B0E08C879D8753
:10093000AE87BF87F80186819781A085B185888BB6
:10094000998BAA8BBB8B83E090E0A0E0B0E08C8B0E
:100950009D8BAE8BBF8B1CA21DA21EA21FA2188E48
:10096000198E1A8E1B8E1C8E1D8E1E8E1F8E8AE077
:1009700097EDA3E2BCE388A399A3AAA3BBA3DF914D
:10098000CF911F910F910895EF92FF920F931F93B4
:10099000CF93DF936115710511F480E01CC0411500
:1009A0005105C1F07B01EC018C819D818A01080F0A
:1009B000191FB801CE010E94AF03882371F328816B
:1009C00039818C819D81B701820F931F0E949321F1
:1009D0001D830C8381E0DF91CF911F910F91FF90D8
:1009E000EF900895CF93DF93EC0188819981009770
:1009F00011F00E943620198218821D821C821B82EF
:100A00001A82DF91CF910895EF92FF920F931F9377
:100A1000CF93DF93EC017B018A01BA010E94AF03FF
:100A2000811104C0CE010E94F20407C01D830C8313
:100A3000B701888199810E949321CE01DF91CF91E6
:100A40001F910F91FF90EF900895CF93DF93EC01EA
:100A50006115710559F0FB0101900020E9F731970C
:100A6000AF01461B570B0E94040502C00E94F2040E
:100A7000CE01DF91CF910895FC01808191810C948A
:100A80003620FC0111821082138212821582148298
:100A90006115710551F0FB0101900020E9F73197D4
:100AA000AF01461B570B0C94040508951F920F923B
:100AB0000FB60F9211242F933F934F935F936F9331
:100AC0007F938F939F93AF93BF93EF93FF9381E8AF
:100AD00093E00E94AF01FF91EF91BF91AF919F9181
:100AE0008F917F916F915F914F913F912F910F90D7
:100AF0000FBE0F901F9018951F920F920FB60F9276
:100B000011242F938F939F93EF93FF93E091910381
:100B1000F09192038081E0919703F091980382FD18
:100B200012C0908180919A038F5F8F7320919B03F5
:100B3000821751F0E0919A03F0E0EF57FC4F958F48
:100B400080939A0301C08081FF91EF919F918F91D3
:100B50002F910F900FBE0F901F9018951F920F921C
:100B60000FB60F9211242F933F934F935F936F9380
:100B70007F938F939F93AF93BF93EF93FF93E091F6
:100B80002C04F0912D04309709F451C0968DA68560
:100B9000B785858591FF04C09C91892329F447C0BE
:100BA0009C91892309F043C0A389B4899C918589CC
:100BB000809589238C93868997890197F1F7608DB9
:100BC000718DA685B785558538E020E0CB0101976A
:100BD000F1F7822F90E095958795282F4C9145232A
:100BE00009F02068315091F7868D81FD2095809124
:100BF0002B0490E001968F73992730912A043817BF
:100C000049F0A0912B04B0E0AE55BD4F2C938093DA
:100C10002B0403C0868D8160868F828D938D019712
:100C2000F1F7A389B4899C918589892B8C93FF91D5
:100C3000EF91BF91AF919F918F917F916F915F9154
:100C40004F913F912F910F900FBE0F901F901895CD
:100C50001F920F920FB60F9211242F933F934F9331
:100C60005F936F937F938F939F93AF93BF93EF9314
:100C7000FF938091B900887F803609F49CC068F5A5
:100C8000883209F45BC090F4803109F454C038F420
:100C9000882309F4F6C0883009F44DC0F6C08831C5
:100CA00009F44CC0803209F45DC0EFC0803409F40F
:100CB00068C048F4803309F455C0883309F0E5C0B2
:100CC00080937E03D8C0803509F44FC0883509F47D
:100CD0005DC0883409F0D9C0D6C0883909F4C7C0CE
:100CE000A8F4883709F467C038F4883609F463C07B
:100CF000803709F460C0C9C0883809F4B8C08039A9
:100D000009F45FC0803809F0C0C05BC0803B09F4C3
:100D100086C038F4803A09F466C0883A09F47FC086
:100D2000B4C0803C09F4A7C0883C09F4A4C0883B47
:100D300009F48AC0AAC080917B0310C090917D0302
:100D400080917C03981770F5E0917D0381E08E0F10
:100D500080937D03F0E0E65AFC4F80818093BB00D6
:100D600085EC86C080937E038EC0E0917D0381E098
:100D70008E0F80937D038091BB00F0E0E65AFC4F1C
:100D8000808390917D0380917C036EC0E0917D0310
:100D900081E08E0F80937D038091BB00F0E0E65AE6
:100DA000FC4F808380917F0381116DC081E080932F
:100DB0007A0384EA61C083E0809380031092A102E9
:100DC000CFCF8091A102803208F051C0E091A10202
:100DD00081E08E0F8093A1028091BB00F0E0EF577D
:100DE000FD4F8083BDCF85EC8093BC0010928003C3
:100DF0008091A102803230F4E091A102F0E0EF573F
:100E0000FD4F10826091A10270E0E0917F02F091AD
:100E1000800281E892E009951092A10236C084E038
:100E20008093800310927E0210927D02E0917B02FB
:100E3000F0917C02099580917D02811105C081E0CD
:100E400080937D0210925B02E0917E0281E08E0F22
:100E500080937E02F0E0E55AFD4F80818093BB00D5
:100E600090917E0280917D02981708F479CF85E8F1
:100E70008093BC000AC085EC8093BC001092800374
:100E800004C010927E030E94EE02FF91EF91BF9189
:100E9000AF919F918F917F916F915F914F913F9112
:100EA0002F910F900FBE0F901F9018950F931F93C7
:100EB000CF93DF93EC018B0183E090E00E949E1FB3
:100EC000FC01118300831282998388838CB5837F10
:100ED0008CBD8CB58F7D8CBD8CB58C7F81608CBDBD
:100EE0008DB581608DBD1FB7F89480915A02811134
:100EF00027C0E9EEF1E08491EDEFF1E09491E82F65
:100F0000F0E0EE0FFF1FE95FFD4FA591B491EC916A
:100F1000E92321F461E08AE00E94E20D61E08AE0C9
:100F20000E942F0E8CB580618CBD8CB580648CBD09
:100F300061E08DE00E942F0E61E08BE00E942F0E99
:100F400080915A028F5F80935A021FBF0990D88107
:100F5000C02D61E088810E942F0E61E088810E948F
:100F6000E20D60E088810E94E20D8A81811102C059
:100F700060E001C061E088810E94E20D81E48EBDE5
:100F800000000DB407FEFDCF8EB58FEF8EBD0000C3
:100F90000DB407FEFDCF8EB58A81811102C061E0DC
:100FA00001C060E088810E94E20D61E08881DF91EC
:100FB000CF911F910F910C94E20DCF92DF92EF929F
:100FC000FF929B01245F3F4FFB01C190D190E190C4
:100FD000F190BF01FC01C192D192E192F192CF0157
:100FE0006217730789F7FF90EF90DF90CF90089515
:100FF00080918204909183048C342FEF920714F433
:1010000088599E4F20918004309181042C344FEFF9
:10101000340714F428593E4F889FB001899F700D02
:10102000700D1124229FC001239F900D900D11245B
:10103000680F791F072E000C880B990B0E941F1C4C
:101040000C94451F8F929F92AF92BF92CF92DF92E6
:10105000EF92FF9260918204709183046C348FEF61
:10106000780714F468597E4F072E000C880B990BF3
:101070000E941F1C6B017C016091800470918104AF
:101080006C348FEF780714F468597E4F072E000CEC
:10109000880B990B0E941F1C4B015C0120E030E083
:1010A000A9010E94321F181644F520E030E0A90182
:1010B000C701B6010E94321F87FD09C0A501940136
:1010C000C701B6010E94631E0E94341E56C020E074
:1010D00030E0A901C701B6010E94181C87FF0DC0AE
:1010E000A5019401C701B6010E94631E0E94341E2F
:1010F0002BED3FE049EC50E415C020E030E0A901C1
:10110000C501B4010E94181C87FF0FC0A5019401FE
:10111000C701B6010E94631E0E94341E2BED3FE002
:1011200049E450E40E94C81D28C020E030E0A90135
:10113000C501B4010E94181C81111CC020E030E0E0
:10114000A901C701B6010E94321F181674F020E0F1
:1011500030E0A901C701B6010E94181C87FF0AC030
:1011600064EE7BEC86E990E408C06BED7FE089ECEF
:101170009FE303C060E070E0CB0120E030E044E397
:1011800053E40E947E1C2BED3FE049E450E40E94B2
:10119000631E0E94D51ECB01FF90EF90DF90CF9091
:1011A000BF90AF909F908F9008956F927F928F9293
:1011B0009F92AF92BF92CF92DF92EF92FF920F93E6
:1011C0001F93CF93DF93CDB7DEB762970FB6F89436
:1011D000DEBF0FBECDBF7C01F701819191916F0100
:1011E0008E010F5F1F4F2CE0F80111922A95E9F74D
:1011F0005E01FDE0AF0EB11C26E0F50111922A95CB
:10120000E9F7A5016AE170E00E94D70C8F84988805
:1012100069887A886D857E85072E000C880B990B6E
:101220000E941F1C20E030E040E85DE30E947E1C2D
:1012300069837A838B839C83B401990C880B990B07
:101240000E941F1C20E030E040E85DE30E947E1C0D
:101250006D837E838F839887B301770C880B990BFE
:101260000E941F1C20E030E040E85DE30E947E1CED
:1012700069877A878B879C8798014701FEE08F0EEC
:10128000911CF90181919191A191B1919F01F60178
:1012900081939193A193B1936F01E815F90589F7B3
:1012A000F701808191812CE0F80111922A95E9F7EC
:1012B00026E0F50111922A95E9F7A50168E270E0B0
:1012C0000E94D70CAF84B888C988DA886D857E857E
:1012D000072E000C880B990B0E941F1C20E030E0A9
:1012E00048EC52E40E94631E69837A838B839C835B
:1012F000B501BB0C880B990B0E941F1C20E030E04D
:1013000048EC52E40E94631E6D837E838F8398872E
:10131000B601DD0C880B990B0E941F1C20E030E009
:1013200048EC52E40E94631E69877A878B879C870A
:10133000FAE1EF0EF11CF80181919191A191B19127
:101340008F01F40181939193A193B1934F01EE1515
:10135000FF0589F762960FB6F894DEBF0FBECDBFCA
:10136000DF91CF911F910F91FF90EF90DF90CF9081
:10137000BF90AF909F908F907F906F9008958F92C5
:101380009F92AF92BF92CF92DF92EF92FF920F9314
:101390001F93CF93DF93CDB7DEB762970FB6F89464
:1013A000DEBF0FBECDBF8C01DC018D919D917D0113
:1013B000FE0131966F012CE0DF011D922A95E9F7BD
:1013C000AE01435F5F4F26E0FA0111922A95E9F7DB
:1013D0006AE170E00E94D70C8F849888A988BA8847
:1013E0006D857E85072E000C880B990B0E941F1CB3
:1013F00020E030E040E85DE30E947E1C69837A8350
:101400008B839C83B401990C880B990B0E941F1C41
:1014100020E030E040E85DE30E947E1C6D837E8327
:101420008F839887B501BB0C880B990B0E941F1CFA
:1014300020E030E040E85DE30E947E1C69877A8707
:101440008B879C87F601C8010E964191519161915D
:101450007191D7014D935D936D937D937D01A81795
:10146000B90799F7F80182859385A485B5854681EA
:10147000578160857185428F538F648F758F868FFA
:10148000978FA0A3B1A362960FB6F894DEBF0FBEEC
:10149000CDBFDF91CF911F910F91FF90EF90DF9023
:1014A000CF90BF90AF909F908F900895EF92FF9252
:1014B0000F931F93CF93DF938C01FC01C081D181E7
:1014C000109215031092140310921703109239030F
:1014D0001092800381E080937F0310927A0361E091
:1014E00082E10E94E20D61E083E10E94E20D8091C1
:1014F000B9008E7F8093B9008091B9008D7F809371
:10150000B90088E48093B80085E48093BC0080E251
:1015100093E090937C0280937B0281E293E090932E
:10152000800280937F02CE010E94A60D803A81F452
:1015300060E070E0CE010E94A50E40E26FE370E033
:10154000CE010E947C0D6EE170E080E090E010C062
:1015500068EE73E080E090E00E946B0ECE010E9486
:10156000A60D803A29F381E591E00E94370C76C000
:101570000E946B0ECE010E94A60D803A29F06AE00F
:1015800070E080E090E0F4CF62E370E080E090E013
:101590000E946B0E40E06EE370E0CE010E947C0D75
:1015A0006AE070E080E090E00E946B0E40E067E04F
:1015B00070E0CE010E947C0D40E06FE370E0CE0150
:1015C0000E947C0D6AE070E080E090E00E946B0E6B
:1015D0006CE070E0CE010E94A50E64E170E080E056
:1015E00090E00E946B0E68EE73E080E090E00E9455
:1015F0006B0EF801C081D181EA84FB8460E070E069
:10160000CE010E94A50E69E170E080E090E00E94AA
:101610006B0E40E067E070E0CE010E947C0D40E878
:101620006FE370E0CE010E947C0D6AE070E080E024
:1016300090E00E946B0EB701CE010E94A50E64E1FE
:1016400070E080E090E00E946B0EC801DF91CF91C6
:101650001F910F91FF90EF900C94BF09FFCFCF9394
:10166000DF93FC0124813581232B71F0FB01DC0128
:10167000CD91DC9160817181CE010E94A9210097FA
:1016800019F08C1B9D0B02C08FEF9FEFDF91CF9164
:101690000895CF93DF93FC01448155814115510595
:1016A000D9F061157105C1F09A016417750708F446
:1016B0009B01EC0188819981421B530B5D834C8314
:1016C000BC01620F731F0E949A21E881F9818C810D
:1016D0009D81E80FF91F1082DF91CF9108950F933C
:1016E0001F93CF93DF93EC010E94B30E6887798735
:1016F0008A879B87E881F9810284F385E02DCE01FA
:10170000099597FF17C00E94B30E088519852A8591
:101710003B85DC01CB01801B910BA20BB30B0C8131
:101720001D812E813F8180179107A207B30710F317
:101730008FEF9FEFDF91CF911F910F910895009749
:1017400069F0FC0101900020E9F73197AF01481BD7
:10175000590BBC0181E893E00C943E0180E090E0DD
:101760000895FC01448155816081718181E893E095
:101770000C943E01CF93DF930E94B10BEC0187E301
:1017800092E00E949F0B8C0F9D1FDF91CF910895D7
:10179000CF93DF93EC01FB0144815581608171811E
:1017A0000E94C404811103C0CE010E94F204CE0144
:1017B000DF91CF910895EF92FF920F931F93CF93F4
:1017C000DF93CDB7DEB7A1970FB6F894DEBF0FBE9B
:1017D000CDBF7C01CB01BA01F701118210821382C7
:1017E0001282158214828E010F5F1F4F22E044E0A7
:1017F0000E94E217BC01C7010E942505A1960FB601
:10180000F894DEBF0FBECDBFDF91CF911F910F9136
:10181000FF90EF9008950F931F93CF93DF93CDB771
:10182000DEB762970FB6F894DEBF0FBECDBF8C0156
:10183000CB01F80111821082138212821582148268
:101840004AE0BE016F5F7F4F0E942D18BE016F5F9F
:101850007F4FC8010E94250562960FB6F894DEBF3F
:101860000FBECDBFDF91CF911F910F9108950C94C2
:101870009F0B909180039111FCCF91E09093800396
:1018800090937F032FEF20937E0310927D03260F0A
:1018900020937C0390937B0390917B03880F892B8B
:1018A00080937B0380917A03813061F410927A03F4
:1018B00080917B038093BB008091BC0083FDF8CFB7
:1018C00085EC01C085EE8093BC008091800381305F
:1018D000E1F380917D03861710F460917D03AAE502
:1018E000B3E0EAE3F3E080E0861721F09D91919365
:1018F0008F5FFACF0895282F30913903313208F0E5
:101900004AC0809180038111FCCF9091380342E05E
:101910004093800320937F032FEF20937E03109248
:101920007D0330937C03E8E1F3E0AAE5B3E020E037
:10193000321721F041914D932F5FFACF10927B0324
:1019400020917B03990F922B90937B0390917A03C4
:10195000913061F410927A0390917B039093BB00D5
:101960009091BC0093FDF8CF95EC01C095EE90935B
:10197000BC00909180039230E1F390917E039F3FF1
:1019800079F080917E03803241F080917E03803334
:1019900031F084E005C081E003C082E001C083E053
:1019A0001092170310923903109216030895EF92C4
:1019B000FF920F931F93CF93DF938C017A01DC0189
:1019C00013968C91139791E09093160380933803AC
:1019D000109217031092390314968D919C911597CC
:1019E000DC01ED91FC910190F081E02D099581E001
:1019F0000E947B0C66E0F80183810E94390C1092F2
:101A0000150380931403E701F6E0EF0EF11CD801F3
:101A100014968D919C911597DC01ED91FC910284B7
:101A2000F385E02D09958993EC16FD0681F781E099
:101A3000DF91CF911F910F91FF90EF900895CF927A
:101A4000DF92EF92FF920F931F93CF93DF937C016E
:101A50008B016A0160E172E00E944105D801149691
:101A60008D919C9115970097C1F0E6018C159D050D
:101A700008F4EC01D801ED91FC911197EC0FFD1FDA
:101A8000D08010826D917C91C7010E942505F801DC
:101A900080819181C80FD91FD882C701DF91CF9172
:101AA0001F910F91FF90EF90DF90CF9008953FB777
:101AB000F8948091910490919204A0919304B09134
:101AC000940426B5A89B05C02F3F19F00196A11DCF
:101AD000B11D3FBFBA2FA92F982F8827820F911DC4
:101AE000A11DB11DBC01CD0142E0660F771F881F0B
:101AF000991F4A95D1F708951F93CF93DF93EC0177
:101B0000142F8B8191E090931603809338031092E9
:101B10001703109239038C819D81DC01ED91FC91BA
:101B20000190F081E02D09958C819D81DC01ED9182
:101B3000FC910190F081E02D612F099581E00E94D8
:101B40007B0C81E0DF91CF911F910895CF93DF93BC
:101B5000EC018B8191E090931603809338031092EF
:101B60001703109239038C819D81DC01ED91FC916A
:101B70000190F081E02D60E0099581E00E947B0CEE
:101B800061E08B810E94390C10921503809314033D
:101B90008C819D81DC01ED91FC910284F385E02D27
:101BA0000995DF91CF910895CF93DF930E949F0B0A
:101BB000EC0187E392E00E949F0B8C0F9D1FDF9149
:101BC000CF91089590E0FC01EF5EFD4F2491FC0160
:101BD000ED50FE4F3491FC01E152FE4FE491EE23B3
:101BE00009F43CC0222339F1233091F038F421303C
:101BF000A9F0223001F584B58F7D12C0273091F015
:101C00002830A1F02430B9F4809180008F7D03C08A
:101C1000809180008F77809380000DC084B58F778E
:101C200084BD09C08091B0008F7703C08091B0005F
:101C30008F7D8093B000F0E0EE0FFF1FEB52FE4F60
:101C4000A591B4919FB7F894611104C08C9130951F
:101C5000382302C0EC913E2B3C939FBF0895CF9355
:101C6000DF9390E0FC01ED50FE4F2491FC01E15226
:101C7000FE4F8491882361F190E0880F991FFC0149
:101C8000E95FFD4FC591D491FC01EB52FE4FA59148
:101C9000B491611109C09FB7F8948881209582237F
:101CA0008883EC912E230BC0623061F49FB7F894C7
:101CB0008881322F309583238883EC912E2B2C93AF
:101CC0009FBF06C08FB7F894E8812E2B28838FBF63
:101CD000DF91CF9108958F929F92AF92BF92CF9252
:101CE000DF92EF92FF926B017C010E94570D4B0136
:101CF0005C01C114D104E104F104F1F00E94570D1C
:101D0000DC01CB0188199909AA09BB09883E9340D7
:101D1000A105B10570F321E0C21AD108E108F1086C
:101D200088EE880E83E0981EA11CB11CC114D1045A
:101D3000E104F10419F7DDCFFF90EF90DF90CF9031
:101D4000BF90AF909F908F900895462FFC016287BF
:101D500073876DE370E00E947C0D6EE170E080E0BF
:101D600090E00C946B0E2FB7F89460918D047091F5
:101D70008E0480918F04909190042FBF08951F923C
:101D80000F920FB60F9211242F933F938F939F932F
:101D9000AF93BF9380918D0490918E04A0918F0496
:101DA000B091900430918C0423E0230F2D3720F460
:101DB0000196A11DB11D05C026E8230F0296A11DA5
:101DC000B11D20938C0480938D0490938E04A09376
:101DD0008F04B09390048091910490919204A0910B
:101DE0009304B09194040196A11DB11D80939104B8
:101DF00090939204A0939304B0939404BF91AF91F5
:101E00009F918F913F912F910F900FBE0F901F9038
:101E100018951F93CF93DF93EC01162FFC01329698
:101E20008CE0DF01982F1D929A95E9F73C96DF012F
:101E30001D928A95E9F78CE090E00E949E1FFC01BC
:101E40008AE091E0918380838FEF9FEFDC018683AE
:101E50009783A087B18713838EE194E09583848371
:101E6000F983E883DF91CF911F910895CF93DF939A
:101E7000CDB7DEB7C654D1090FB6F894DEBF0FBE9A
:101E8000CDBF789484B5826084BD84B5816084BD03
:101E900085B5826085BD85B5816085BD80916E0008
:101EA000816080936E001092810080918100826039
:101EB0008093810080918100816080938100809176
:101EC00080008160809380008091B1008460809365
:101ED000B1008091B00081608093B00080917A0061
:101EE000846080937A0080917A00826080937A0087
:101EF00080917A00816080937A0080917A00806876
:101F000080937A001092C100E0919103F0919203C6
:101F100082E08083E0918D03F0918E031082E09146
:101F20008F03F0919003108210929903E091950332
:101F3000F091960386E08083E0919303F0919403FF
:101F4000808180618083E0919303F091940380818C
:101F500088608083E0919303F0919403808180688E
:101F60008083E0919303F091940380818F7D80833F
:101F700064EF71E080E090E00E946B0E61E084E02D
:101F80000E942F0E61E087E00E942F0E66E070E055
:101F900080EF92E00E94560765E070E082EE92E0EA
:101FA0000E94560764E270E07093F3026093F202BD
:101FB00023EF30E03093F5022093F4028FE790E0B6
:101FC0009093F7028093F6024AE050E05093F902B2
:101FD0004093F8023093FB022093FA029093FD02A3
:101FE0008093FC027093E5026093E4023093E70271
:101FF0002093E6029093E9028093E8025093EB026B
:102000004093EA023093ED022093EC029093EF02AA
:102010008093EE028CE594E00E94560A8AE394E0F5
:102020000E94560A83EA91E00E94D40D0E94B30EEA
:102030006B017C010E94B30EDC01CB018C199D0960
:10204000AE09BF09803D9740A105B10598F48AE328
:1020500094E00E94BF098CE594E00E94BF098FEADA
:1020600091E00E94370C64E670E080E090E00E940E
:102070006B0EE0CF81EB91E00E94D40D88EB91E0F4
:102080000E94D40D6AE674E09E012F5F3F4F490124
:10209000C9010E94DD076AE674E0C4010E94DD0701
:1020A0006AE674E0C4010E94DD0783E0282E312C2B
:1020B00092E0692E712C44244394512C0E94B30E5B
:1020C0007B018C0120E030E0A9016FAF2196FFAECB
:1020D000219722960FAF229723961FAF239724961E
:1020E0002FAF249725963FAF259726964FAF26977B
:1020F00027965FAF2797A0900C03B0900D03C09078
:102100000E03D0900F03E0901003F09011030091A4
:102110001203109113032FAD21963FAD2197229604
:102120004FAD229723965FAD239760E070E080E08B
:1021300090E00E94A41D09F00CF418C60E94B30E92
:10214000DC01CB018196A11DB11D8C019D01809305
:102150000C0310930D0320930E0330930F03109282
:102160001003109211031092120310921303809126
:102170007E0490917F04DC01ED91FC910084F18557
:10218000E02D0995892B09F405C100917E04109179
:102190007F0460E172E0CE01C3960E944105C80150
:1021A0000E946F0B97FD0DC08A30910551F0898315
:1021B0001A8241E050E0B401CE01C3960E94C404EB
:1021C000EECF8FA998AD049708F4E0C069EC71E0F8
:1021D000C4010E944105B401CE01C3960E942F0B99
:1021E000AC01BE016D5C7F4FCE018D960E941F0D2C
:1021F0008DA59EA5009719F00E94061803C060E007
:1022000070E0CB017093830460938204CE018D96BD
:102210000E943C05C4010E943C0569EC71E0C401C8
:102220000E944105B401CE01C3960E942F0BBC0150
:102230006F5F7F4FCE01C3960E94490BC4010E947D
:102240003C0569EC71E0C4010E944105B401CE0176
:10225000C3960E942F0BAC01BE016D5C7F4FCE0177
:102260008D960E941F0D8DA59EA5009719F00E94C6
:10227000061803C060E070E0CB01709381046093A6
:102280008004CE018D960E943C05C4010E943C054D
:1022900069EC71E0C4010E944105B401CE01C3960E
:1022A0000E942F0BBC016F5F7F4FCE01C3960E942F
:1022B000490BC4010E943C0569EC71E0C4010E9415
:1022C0004105B401CE01C3960E942F0BAC01BE01A3
:1022D0006D5C7F4FCE018D960E941F0D8DA59EA532
:1022E000009719F00E94021803C060E070E0CB0173
:1022F000609384047093850480938604909387048C
:10230000CE018D960E943C05C4010E943C0569ECFB
:1023100071E0C4010E944105B401CE01C3960E9440
:102320002F0BBC016F5F7F4FCE01C3960E94490BFC
:10233000C4010E943C0569EC71E0C4010E944105A2
:10234000B401CE01C3960E942F0BAC01BE016D5C9F
:102350007F4FCE018D960E941F0D8DA59EA50097E3
:1023600019F00E94021803C060E070E0CB01609396
:1023700088047093890480938A0490938B04CE011F
:102380008D960E943C05C4010E943C05CE01C39677
:102390000E943C058CE594E00E94D5088AE394E015
:1023A0000E94D50880910A0390910B038230910519
:1023B00009F410C18330910509F41AC2019709F09C
:1023C0009BC28BEC91E00E94370C6AE674E0C4017A
:1023D0000E94DD0749815A816B817C81CE018D96F7
:1023E0000E94DB0B62ED71E0CE01C3960E944105B5
:1023F000BE01635D7F4FCE01C3960E94C80B0E9451
:10240000B10BCE01C3960E943C05CE018D960E9471
:102410003C056AE674E0C4010E94DD074D815E81DF
:102420006F817885CE018D960E94DB0B67ED71E0A0
:10243000CE01C3960E944105BE01635D7F4FCE0170
:10244000C3960E94C80B0E94B10BCE01C3960E9496
:102450003C05CE018D960E943C056AE674E0C401FD
:102460000E94DD0749855A856B857C85CE018D9656
:102470000E94DB0B6CED71E0CE01C3960E9441051A
:10248000BE01635D7F4FCE01C3960E94C80B0E94C0
:10249000B10BCE01C3960E943C05CE018D960E94E1
:1024A0003C0540915E0450915F046091600470911E
:1024B0006104C4010E94DB0B61EE71E0CE018D96D8
:1024C0000E944105B401CE018D960E94C80B0E9466
:1024D000B10BCE018D960E943C05C4010E943C05C3
:1024E00020917A0430917B0440917C0450917D04CA
:1024F000609166047091670480916804909169040A
:102500000E94C71DAB01BC01C4010E94DB0B65EE3C
:1025100071E0CE018D960E944105B401CE018D96E9
:102520000E94C80B0E94B10BCE018D960E943C0503
:10253000C4010E943C0520917604309177044091BB
:1025400078045091790460916204709163048091E1
:102550006404909165040E94C71DAB01BC01C401D5
:102560000E94DB0B69EE71E0CE018D960E94410561
:10257000B401CE018D960E94C80B0E94B10BCE0112
:102580008D960E943C05C4010E943C058DEE91E0B1
:102590000E94370C6091380470913904C4010E9484
:1025A0000B0C66EF71E0CE018D960E944105B401DF
:1025B000CE018D960E94C80B0E94B10BCE018D9664
:1025C0000E943C05C4010E943C0560913504709155
:1025D000360408C18EEF91E00E94370C68E474E085
:1025E000C4010E94DD0749815A816B817C81CE0143
:1025F0008D960E94DB0B62ED71E0CE01C3960E94C6
:102600004105BE01635D7F4FCE01C3960E94C80B9A
:102610000E94B10BCE01C3960E943C05CE018D965F
:102620000E943C0568E474E0C4010E94DD074D810E
:102630005E816F817885CE018D960E94DB0B67ED00
:1026400071E0CE01C3960E944105BE01635D7F4FDC
:10265000CE01C3960E94C80B0E94B10BCE01C39657
:102660000E943C05CE018D960E943C0568E474E012
:10267000C4010E94DD0749855A856B857C85CE01A2
:102680008D960E94DB0B6CED71E0CE01C3960E942B
:102690004105BE01635D7F4FCE01C3960E94C80B0A
:1026A0000E94B10BCE01C3960E943C05CE018D96CF
:1026B0000E943C0540913C0450913D0460913E04D1
:1026C00070913F04C4010E94DB0B61EE71E0CE010A
:1026D0008D960E944105B401CE018D960E94C80BD3
:1026E0000E94B10BCE018D960E943C05C4010E9450
:1026F0003C05209158043091590440915A0450915E
:102700005B0460914404709145048091460490916B
:1027100047040E94C71DAB01BC01C4010E94DB0B32
:1027200065EE71E0CE018D960E944105B401CE01A7
:102730008D960E94C80B0E94B10BCE018D960E940F
:102740003C05C4010E943C0520915404309155047D
:102750004091560450915704609140047091410497
:1027600080914204909143040E94C71DAB01BC01BB
:10277000C4010E94DB0B69EE71E0CE018D960E94D0
:102780004105B401CE018D960E94C80B0E94B10B89
:10279000CE018D960E943C05C4010E943C058DEE41
:1027A00091E00E94370C6091320470913304C401AF
:1027B0000E940B0C66EF71E0CE018D960E944105E0
:1027C000B401CE018D960E94C80B0E94B10BCE01C0
:1027D0008D960E943C05C4010E943C0560912F0427
:1027E00070913004C4010E940B0C6AEF71E072C05A
:1027F00085E092E00E94370C60918204709183041E
:102800006C34BFEF7B0714F468597E4FC4010E94FB
:102810000B0C69EE71E0CE018D960E944105B4016A
:10282000CE018D960E94C80B0E94B10BCE018D96F1
:102830000E943C05C4010E943C0560918004709197
:1028400081046C340FEF700714F468597E4FC40193
:102850000E940B0C65EE71E0CE018D960E94410541
:10286000B401CE018D960E94C80B0E94B10BCE011F
:102870008D960E943C05C4010E943C054091840451
:10288000509185046091860470918704C4010E9470
:10289000DB0B6CE072E0CE018D960E944105B40125
:1028A000CE018D960E94C80B0E94B10BCE018D9671
:1028B0000E943C05C4010E943C054091880450914F
:1028C000890460918A0470918B04C4010E94DB0B1F
:1028D00061E172E0CE018D960E944105B401CE0106
:1028E0008D960E94C80B0E94BA0BCE018D960E9455
:1028F0003C05C4010E943C0581E893E00E949901D7
:102900001816190644F581E893E00E947701823792
:1029100029F450920B0340920A031DC08C3629F40F
:1029200070920B0360920A0316C0833629F430922A
:102930000B0320920A030FC08D3639F424E030E0F7
:1029400030930B0320930A0306C08E3621F41092B5
:102950000B0310920A0380910A0390910B030497D2
:1029600009F004C2C0908404D0908504E0908604ED
:10297000F090870420E030E0A901C701B6010E9471
:10298000321F18168CF420E030E040EA50E4C70112
:10299000B6010E94321F18163CF4B701A601CE0101
:1029A000C9960E94DB0B06C06FE072E0CE01C996AB
:1029B0000E9441056FE072E0CE01C3960E9441057E
:1029C000C0908404D0908504E0908604F090870441
:1029D00020E030E0A901C701B6010E94321F18169D
:1029E0006CF420E030E040EA50E4C701B6010E94F8
:1029F000321F18161CF460E971E002C06AE971E048
:102A0000CE018D960E94410567E172E0C4010E94EB
:102A10004105BE01635D7F4FC4010E94C80BBE012A
:102A20006D5C7F4F0E94C80BBE01675C7F4F0E94A8
:102A3000C80B0E94B10BC4010E943C05CE018D96CB
:102A40000E943C05CE01C3960E943C05CE01C9966A
:102A50000E943C058EE192E00E94370C0E94F8072C
:102A600020E030E040EA50E40E94321F18162CF0BB
:102A700085E292E00E94370C92C00E9422089C01DD
:102A80002E5231092E30314018F08AE392E006C010
:102A9000823E91050CF46DC184E492E00E94370CF3
:102AA0000E9422088C016FE072E0CE018D960E9498
:102AB00041051CAA1BAA1EAA1DAA18AE1FAA6DA515
:102AC0007EA56115710531F049A95AA9CE01C396B9
:102AD0000E9404054AE0B401C8010E942D18F401C7
:102AE00001900020E9F73197AF0148195909B40165
:102AF000CE01C3960E94C404811104C0CE01C396C6
:102B00000E94F204CE01C3960E94B10BCE01C3967F
:102B10000E943C05CE018D960E943C050E94F8075C
:102B20006B017C016FE072E0CE018D960E94410541
:102B30001CAA1BAA1EAA1DAA18AE1FAA6DA57EA5B7
:102B40006115710531F049A95AA9CE01C3960E94B9
:102B50000405840122E044E0C701B6010E94E217A7
:102B6000FC0101900020E9F73197AF01481B590B98
:102B7000BC01CE01C3960E94C404811104C0CE01E1
:102B8000C3960E94F204CE01C3960E94B10BCE01FF
:102B9000C3960E943C05CE018D960E943C0580E3C1
:102BA00092E00E94370C20917A0430917B0440918E
:102BB0007C0450917D04609166047091670480915B
:102BC0006804909169040E94C71D0E94D51E9B0154
:102BD00077FF04C022273327261B370B30930903C6
:102BE000209308032A3031050CF44BC08091040374
:102BF00090910503A0910603B09107038196A11D52
:102C0000B11D8093040390930503A0930603B09332
:102C100007036AE674E0C4010E94DD0720E030E0AB
:102C2000A90169857A858B859C850E94321F6AE699
:102C300074E018164CF4CE0145960E94DD072D8DE8
:102C40003E8D4F8D58A10BC0CE0181960E94DD07AD
:102C500089A59AA5ABA5BCA59C01AD015058609172
:102C600000037091010380910203909103030E947D
:102C7000C81D609300037093010380930203909337
:102C8000030380910803909109038A309105BCF4F5
:102C90002091FE023091FF022A30310584F010921B
:102CA000000310920103109202031092030310928A
:102CB00004031092050310920603109207039093E9
:102CC000FF028093FE0260910403709105038091DE
:102CD0000603909107031616170618061906F4F551
:102CE0000E941F1C20E030E044E052E40E94631E7A
:102CF0009B01AC016091000370910103809102037C
:102D0000909103030E94631EAB01BC01CE01C396E8
:102D10000E94DB0B6FE072E0CE018D960E944105B0
:102D200060E971E0C4010E944105BE01635D7F4F0F
:102D3000C4010E94C80BBE016D5C7F4F0E94C80B8E
:102D40000E94B10BC4010E943C05CE018D960E94E9
:102D50003C05CE01C3960E943C0504C08AE991E07F
:102D60000E94370C87E392E00E949F0B0E94400272
:102D7000A5C9883891051CF08AE492E08FCE83E5DE
:102D800092E08CCECF92DF92EF92FF92CF93DF93BF
:102D9000109284031092830398EEC92E93E0D92EEB
:102DA000E12CF12CC0928503D0928603E092870338
:102DB000F092880388E191E09093820380938103ED
:102DC00085EC90E090938E0380938D0384EC90E0EB
:102DD0009093900380938F0380EC90E09093920304
:102DE0008093910381EC90E09093940380939303FC
:102DF00082EC90E0909396038093950386EC90E0AC
:102E0000909398038093970310929A0310929B03D8
:102E100010929C0310929D031092210410922004A2
:102E2000C0922204D0922304E0922404F09225045C
:102E30008AE291E090931F0480931E048FE190E05A
:102E40000E949E1FEC011B821A82CC82DD82EE82E0
:102E5000FF828CE391E0998388831F8A1E8A198EF2
:102E6000188E1B8E1A8E1D8E1C8E6E8D6E7F6D7F42
:102E70006E8F6695617081E0682782E00E94E20DA6
:102E800061E082E00E942F0EE5EFF1E0E491E88B33
:102E9000E1EEF1E0E491F0E0EE0FFF1FEB52FE4FA8
:102EA000859194919A8B898B60E083E00E942F0E2C
:102EB0008E8D81FD04C061E083E00E94E20D83E01D
:102EC0008C87E6EFF1E0E491ED87E2EEF1E0E4914A
:102ED000F0E0EE0FFF1FE553FE4F859194919F8721
:102EE0008E87D0937F04C0937E048DE991E09D8FFF
:102EF0008C8F2DEB30E03F8B2E8B2BE931E0398F1F
:102F0000288F2CE231E03B8F2A8F209168002460CB
:102F1000209368002DE630E03C8B2B8B28E02D8B36
:102F20000197F1F7E0912C04F0912D04CE17DF0703
:102F3000D1F0309739F0A389B4899C918589809527
:102F400089238C938E8D8E7F8E8F10922B041092FE
:102F50002A04D0932D04C0932C04EB89FC89908122
:102F60008D89892B808369E270E08CE594E00E9472
:102F7000090F68E270E08AE394E00E94090F109262
:102F800039041092380481E180933704109236049A
:102F9000109235048FE08093340410923304109221
:102FA000320480E1809331041092300410922F0497
:102FB0008EE080932E04DF91CF91FF90EF90DF9011
:102FC000CF900895EF920F931F93CF93DF93E80173
:102FD00047FD02C034E001C034E1042E000C550B63
:102FE00057FF03C0519541955109E32E022F242F1D
:102FF000AE010E946718CE01DF91CF911F910F9112
:10300000EF900895662777270C94C1191F93FC0150
:1030100099278827BC01E89411911032E9F31930FF
:1030200010F01E30C8F31B3251F01D3249F4689481
:1030300006C00E943818610F711D811D911D1191EC
:1030400010531A30B0F33EF49095809570956195C9
:103050007F4F8F4F9F4F1F910895BB274A3031F408
:10306000992322F4BDE2909581959F4F0C944E18C0
:10307000592F482F372F262F660F771F881F991F2C
:10308000660F771F881F991F620F731F841F951F7C
:10309000660F771F881F991F0895BB27FB015527CF
:1030A000AA27880F991FAA1FA41710F0A41B8395A5
:1030B0005051B9F7A05DAA3308F0A95DA19300971C
:1030C00079F7B111B1931192CB010C94081CA9E0CE
:1030D000B0E0EDE6F8E10C94501D6A01122FB02E1D
:1030E0002BE3201720F0FF24F394F00E02C02CE312
:1030F000F22E0F2D27E0AE014F5F5F4F0E940F1B96
:10310000BC014981842F8970813031F0E1FC06C017
:10311000E0FE06C090E205C09DE203C09BE201C054
:1031200090E05E2D507143FF3CC0911102C083E0DE
:1031300001C084E0811718F4212F281B01C020E072
:1031400051110BC0F601822F30E2882319F0319320
:103150008150FBCFC20ED11C20E0992329F0D6016B
:103160009C93F60131966F01C6010396E2FE0AC0F8
:103170003EE4D6013C9341E411964C93119712968C
:103180003C9306C03EE6F601308341E6418332833C
:10319000FC01322F40E2332309F442C04193315005
:1031A000FACF42FF44C0911102C083E001C084E025
:1031B000811718F4212F281B01C020E051110BC0EA
:1031C000F601822F30E2882319F031938150FBCF32
:1031D000C20ED11C20E0992329F0D6019C93F60160
:1031E00031966F01C6010396E2FE0BC039E4D601A9
:1031F0003C933EE411963C93119736E412963C932F
:1032000007C039E6F60130833EE6318336E6328385
:10321000FC01322F40E2332319F041933150FBCFB0
:10322000FC01E20FF11D10828EEF9FEFA6C021E09E
:1032300030E0911102C020E030E0161617061CF4B1
:10324000FB01319602C0E1E0F0E02E0F3F1FBB20F2
:1032500021F0EB2DF0E0319602C0E0E0F0E02E0F1F
:103260003F1FE12FF0E02E173F071CF4121B212F08
:1032700001C020E08E2D887159F4F601822F30E2D2
:10328000882319F031938150FBCFC20ED11C20E06E
:10329000992329F0D6019C93F60131966F015111C3
:1032A0000BC0F601822F90E3882319F0919381508F
:1032B000FBCFC20ED11C20E00F2D060F9A81342FB8
:1032C000307144FF03C0913309F40150101624F407
:1032D000093018F008E001C001E0AB0177FF02C03F
:1032E00040E050E0FB01E41BF50BA1E0B0E0AC0FC7
:1032F000BD1FEA0FFB1F8EE2A82E4B01801A91081A
:103300000B2D10E01195019511094F3FBFEF5B07A1
:1033100021F4D601AC9211966D01641775072CF05B
:103320008416950614F4818101C080E3415051094F
:103330003196D60111967D014017510724F0D60130
:103340008C936701E2CF6417750739F4963320F444
:10335000953319F4311101C081E3F6018083F7013F
:10336000822F90E2882319F091938150FBCFF701CF
:10337000E20FF11D108280E090E02996ECE00C94C1
:103380006C1DA0E0B0E0E7ECF9E10C94501DEC01FD
:103390006B016115710519F0FB01918380837E013A
:1033A000FFEFEF1AFF0A0881802F90E00E94E71BD1
:1033B000892B11F0E701F3CF0D3239F47E0182E061
:1033C000E80EF11C098111E008C00B3229F47E01DE
:1033D00092E0E90EF11C098110E0E701219743E03A
:1033E00050E06EE970E0CE010E94F01B892BC1F421
:1033F000239645E050E069E970E0CE010E94F01BA1
:10340000892B09F42596C114D10419F0F601D18352
:10341000C0831111F6C060E070E080E89FE7FAC059
:1034200043E050E066E970E0CE010E94F01B892B7A
:1034300059F4C114D10409F4E9C0F2E0EF0EF11C13
:10344000F601F182E082E2C020E030E0A901C0E0B4
:10345000D0E0F70180EDA82EA00E89E08A1530F1AA
:10346000912F9260B92E812F887012FF04C08111B4
:1034700024C0219622C081112197A5E0B0E00E94CE
:103480003F1DDC01CB01880F991FAA1FBB1F9C01A8
:10349000AD012A0D311D411D511D283989E938071B
:1034A000480789E1580748F0166006C09EEFA91248
:1034B0000AC013FD40C01860B12E8FEFE81AF80A59
:1034C00000811B2DC6CF802F8F7D8534A1F5808193
:1034D0008D3211F4106106C08B3221F0319661E01B
:1034E00070E004C08181329662E070E080538A30DF
:1034F00018F0E61BF70B1FC060E070E060389CE03E
:1035000079075CF4DB01AA0FBB1FAA0FBB1F6A0F70
:103510007B1F660F771F680F711D3196DF011197B2
:103520008C9180538A3050F314FF03C071956195DC
:103530007109C60FD71F11FF08C0C114D10429F0AB
:10354000CF010197F60191838083CA01B9010E94DE
:103550001D1C212F2370233019F04B015C0106C084
:103560004B015C01B7FAB094B7F8B09420E030E0BA
:10357000A901C501B4010E94181C882309F43EC0AA
:10358000D7FF06C0D195C195D10905EB10E002C067
:103590000DEC10E06801F8E1CF1AD10890E2E92EB5
:1035A000F12CCE15DF0574F0F80125913591459188
:1035B0005491C501B4010E947E1C4B015C01CE19DF
:1035C000DF09EFCF04501109F594E7940C151D05A0
:1035D00041F78A2D880F8B2D881F8F3F49F020E0FF
:1035E00030E0A901C501B4010E94181C811106C078
:1035F00082E290E09093960480939504C501B40113
:1036000009C060E070E080E89FEF04C060E070E017
:1036100080EC9FE7CDB7DEB7ECE00C946C1D283052
:1036200008F027E03327DA01990F311D87FD9160FB
:1036300000966105710539F432602E5F3D9330E3E9
:103640002A95E1F708959F3F30F0803871056105B4
:1036500009F03C5F3C5F3D93913008F08068911D1C
:10366000DF93CF931F930F93FF92EF92192F987FC1
:103670009695E92F96959695E90FFF27E55DFE4F04
:1036800099273327EE24FF24A701E701059008942A
:10369000079428F4360FE71EF81E491F511D660FC8
:1036A000771F881F991F0694A1F70590079428F4A7
:1036B000E70EF81E491F561FC11D770F881F991F5F
:1036C000661F0694A1F70590079428F4F80E491F89
:1036D000561FC71FD11D880F991F661F771F06949D
:1036E000A1F70590079420F4490F561FC71FD81F54
:1036F000990F661F771F881F0694A9F7849110956C
:10370000177041F0D695C79557954795F794E7946C
:103710001A95C1F7E1EDF0E0689415901591359197
:103720006591959105907FE27395E118F10A430B3D
:10373000560BC90BD009C0F7E10CF11E431F561FF1
:10374000C91FD01D7EF4703311F48A95E6CFE8943A
:10375000015030F0080F0AF40027021708F4202F58
:103760002395022F7A3328F079E37D932A95E9F7A0
:1037700010C07D932A9589F606949795679537959D
:1037800017951794E118F10A430B560BC90BD00992
:1037900098F023957E9173957A3308F070E37C93CB
:1037A0002013B8F77E9170617D9330F0839571E3BB
:1037B0007D9370E32A95E1F71124EF90FF900F912C
:1037C0001F91CF91DF91992787FD909508959111D1
:1037D0000C94EB1C803219F089508550C8F708957D
:1037E000FB01DC014150504088F08D9181341CF088
:1037F0008B350CF4805E659161341CF06B350CF4F4
:10380000605E861B611171F3990B0895881BFCCFD4
:10381000DC01FC01672F71917723E1F7329704C037
:103820007C916D9370836291AE17BF07C8F30895C2
:103830000E945A1C08F481E00895E89409C097FB9F
:103840003EF490958095709561957F4F8F4F9F4F77
:103850009923A9F0F92F96E9BB279395F6958795BB
:1038600077956795B795F111F8CFFAF4BB0F11F47E
:1038700060FF1BC06F5F7F4F8F4F9F4F16C0882325
:1038800011F096E911C0772321F09EE8872F762F5B
:1038900005C0662371F096E8862F70E060E02AF09C
:1038A0009A95660F771F881FDAF7880F9695879588
:1038B00097F90895990F0008550FAA0BE0E8FEEF5D
:1038C00016161706E807F907C0F012161306E407E4
:1038D000F50798F0621B730B840B950B39F40A26DD
:1038E00061F0232B242B252B21F408950A2609F4BB
:1038F000A140A6958FEF811D811D08950E94911C06
:103900000C94051D0E94F71C38F00E94FE1C20F04C
:10391000952311F00C94EE1C0C94F41C11240C94BF
:10392000391D0E94161D70F3959FC1F3950F50E04D
:10393000551F629FF001729FBB27F00DB11D639F61
:10394000AA27F00DB11DAA1F649F6627B00DA11D07
:10395000661F829F2227B00DA11D621F739FB00DAD
:10396000A11D621F839FA00D611D221F749F33271D
:10397000A00D611D231F849F600D211D822F762FB6
:103980006A2F11249F5750409AF0F1F088234AF093
:10399000EE0FFF1FBB1F661F771F881F91505040FF
:1039A000A9F79E3F510580F00C94EE1C0C94391D34
:1039B0005F3FE4F3983ED4F3869577956795B79586
:1039C000F795E7959F5FC1F7FE2B880F911D9695A0
:1039D000879597F9089599278827089597F99F67FC
:1039E00080E870E060E008959FEF80EC0895002487
:1039F0000A941616170618060906089500240A9454
:103A000012161306140605060895092E0394000CD9
:103A100011F4882352F0BB0F40F4BF2B11F460FF68
:103A200004C06F5F7F4F8F4F9F4F089557FD905891
:103A3000440F551F59F05F3F71F04795880F97FB72
:103A4000991F61F09F3F79F087950895121613062C
:103A50001406551FF2CF4695F1DF08C0161617065B
:103A60001806991FF1CF8695710561050894089590
:103A7000E894BB2766277727CB0197F908950E9422
:103A8000811DA59F900DB49F900DA49F800D911D49
:103A9000112408952F923F924F925F926F927F92DE
:103AA0008F929F92AF92BF92CF92DF92EF92FF924E
:103AB0000F931F93CF93DF93CDB7DEB7CA1BDB0BFA
:103AC0000FB6F894DEBF0FBECDBF09942A8839889F
:103AD00048885F846E847D848C849B84AA84B984A6
:103AE000C884DF80EE80FD800C811B81AA81B981B2
:103AF000CE0FD11D0FB6F894DEBF0FBECDBFED01C6
:103B00000895A29FB001B39FC001A39F700D811DB6
:103B10001124911DB29F700D811D1124911D0895D6
:103B200097FB072E16F4009407D077FD09D00E946A
:103B3000AD1D07FC05D03EF4909581959F4F0895EB
:103B4000709561957F4F08952A153B054C055D05DD
:103B50006E057F05800791070895AA1BBB1B51E1E5
:103B600007C0AA1FBB1FA617B70710F0A61BB70BED
:103B7000881F991F5A95A9F780959095BC01CD0192
:103B80000895EE0FFF1F0590F491E02D0994505811
:103B9000BB27AA270E94DF1D0C94051D0E94F71C5D
:103BA00038F00E94FE1C20F039F49F3F19F426F4EF
:103BB0000C94F41C0EF4E095E7FB0C94EE1CE92F3A
:103BC0000E94161D58F3BA176207730784079507FA
:103BD00020F079F4A6F50C94381D0EF4E0950B2E28
:103BE000BA2FA02D0B01B90190010C01CA01A0014F
:103BF0001124FF27591B99F0593F50F4503E68F1AA
:103C00001A16F040A22F232F342F4427585FF3CFEA
:103C1000469537952795A795F0405395C9F77EF4BB
:103C20001F16BA0B620B730B840BBAF09150A1F004
:103C3000FF0FBB1F661F771F881FC2F70EC0BA0F8A
:103C4000621F731F841F48F4879577956795B79512
:103C5000F7959E3F08F0B0CF9395880F08F099270D
:103C6000EE0F979587950895DF93DD27B92FBF77DE
:103C700040E85FE31616170648075B0718F4D92FCC
:103C80000E94371F9F938F937F936F930E94851F8E
:103C9000E8E6F0E00E940B1F0E94051D2F913F9166
:103CA0004F915F910E94911CDD2351F09058A2EA40
:103CB0002AED3FE049EC5FE3D0785D270E94DF1DED
:103CC000DF910C94051D0E94771E0C94051D0E9427
:103CD000FE1C58F00E94F71C40F029F45F3F29F0C9
:103CE0000C94EE1C51110C94391D0C94F41C0E9480
:103CF000161D68F39923B1F3552391F3951B550BCA
:103D0000BB27AA2762177307840738F09F5F5F4FAE
:103D1000220F331F441FAA1FA9F335D00E2E3AF0ED
:103D2000E0E832D091505040E695001CCAF72BD005
:103D3000FE2F29D0660F771F881FBB1F2617370756
:103D40004807AB07B0E809F0BB0B802DBF01FF2788
:103D500093585F4F3AF09E3F510578F00C94EE1C5B
:103D60000C94391D5F3FE4F3983ED4F38695779524
:103D70006795B795F7959F5FC9F7880F911D969541
:103D8000879597F90895E1E0660F771F881FBB1F9D
:103D9000621773078407BA0720F0621B730B840B4A
:103DA000BA0BEE1F88F7E09508950E94DC1E689418
:103DB000B1110C94391D08950E941E1D88F09F5763
:103DC00098F0B92F9927B751B0F0E1F0660F771F3F
:103DD000881F991F1AF0BA95C9F714C0B13091F035
:103DE0000E94381DB1E008950C94381D672F782F7C
:103DF0008827B85F39F0B93FCCF3869577956795FA
:103E0000B395D9F73EF490958095709561957F4F65
:103E10008F4F9F4F0895DF93CF931F930F93FF9280
:103E2000EF92DF927B018C01689406C0DA2EEF01DD
:103E30000E94911CFE01E894A59125913591459130
:103E40005591A6F3EF010E94DF1DFE019701A80125
:103E5000DA9469F7DF90EF90FF900F911F91CF9167
:103E6000DF9108950E945A1C08F48FEF08959B017A
:103E7000AC0160E070E080E89FE30C94631E19F4ED
:103E800016F40C94F41C0C94891F0E941E1DB8F3A8
:103E90009923C9F3B6F39F57550B87FF0E94971FCD
:103EA0000024A0E640EA900180585695979528F4A2
:103EB000805C660F771F881F20F02617370748079A
:103EC00030F4621B730B840B202931294A2BA695F1
:103ED00017940794202531254A2758F7660F771F36
:103EE000881F20F026173707480730F4620B730B42
:103EF000840B200D311D411DA09581F7B901842F40
:103F00009158880F9695879508959B01AC010C9464
:103F10007E1C9F3F31F0915020F4879577956795EF
:103F2000B795880F911D9695879597F908959150AB
:103F30005040660F771F881FD2F708950F931F9385
:103F4000CF93DF938230910510F482E090E0E0910E
:103F50009904F0919A0420E030E0A0E0B0E03097BE
:103F600019F1408151810281138148175907C8F026
:103F70008417950769F4109731F012960C931297F5
:103F800013961C9327C00093990410939A0422C09F
:103F90002115310519F04217530718F49A01BD0194
:103FA000EF01DF01F801DBCF21153105F9F0281B06
:103FB000390B2430310580F48A819B8161157105AC
:103FC00021F0FB019383828304C090939A04809331
:103FD0009904FE01329644C0FE01E20FF31F819363
:103FE000919322503109398328833AC02091970454
:103FF00030919804232B41F4209102013091030168
:10400000309398042093970420910001309101018E
:104010002115310541F42DB73EB74091040150916F
:104020000501241B350BE0919704F0919804E217E9
:10403000F307A0F42E1B3F0B2817390778F0AC01CB
:104040004E5F5F4F2417350748F04E0F5F1F5093A8
:104050009804409397048193919302C0E0E0F0E0CC
:10406000CF01DF91CF911F910F910895CF93DF93EF
:10407000009709F481C0FC01329713821282A0914B
:104080009904B0919A04109781F420813181820FB4
:10409000931F20919704309198042817390751F500
:1040A000F0939804E093970467C0ED0120E030E0BE
:1040B000CE17DF0740F44A815B819E01411551050F
:1040C000F1F0EA01F5CFD383C28340815181840F9F
:1040D000951FC817D90759F488819981840F951FB6
:1040E0000296918380838A819B81938382832115A9
:1040F000310529F4F0939A04E09399043DC0E90155
:10410000FB83EA8349915991C40FD51FEC17FD0732
:1041100061F480819181840F951F0296E901998352
:104120008883828193819B838A83E0E0F0E012960A
:104130008D919C911397009719F0FD01DC01F7CF49
:104140008D919C9111979D012E5F3F4F820F931F80
:1041500020919704309198042817390769F4309713
:1041600029F410929A041092990402C013821282C8
:10417000B0939804A0939704DF91CF910895A0E0A5
:10418000B0E0E5ECF0E20C944E1DEC01009721F458
:10419000CB010E949E1FB4C0FC01E60FF71F9C01DB
:1041A00022503109E217F30708F4A8C0D9010D9194
:1041B0001C91119706171707B0F00530110508F488
:1041C0009BC0C80104978617970708F495C0025052
:1041D0001109061B170B019311936D937C93CF016B
:1041E0000E94362089C05B01A01AB10A4C01800EE2
:1041F000911EA0919904B0919A04612C712CE12C2C
:10420000F12C109709F446C08D919C911197A81537
:10421000B905B1F56C0142E0C40ED11CCA14DB042F
:1042200078F14C018A189B08640142E0C40ED11C4D
:104230001296BC9012971396AC91B5E0CB16D104B0
:1042400040F0B282A38391828082D9016D937C93E6
:1042500009C00E5F1F4F800F911FF901918380836A
:10426000EB2DFA2FE114F10431F0D7011396FC93F2
:10427000EE93129741C0F0939A04E09399043CC0E6
:104280006816790608F43C017D0112960D90BC91E8
:10429000A02DB7CF80919704909198048816990625
:1042A000E1F466167706C8F480910001909101014F
:1042B000009741F48DB79EB74091040150910501DC
:1042C000841B950BE817F907C8F4F0939804E09362
:1042D0009704F901718360830FC0CB010E949E1F78
:1042E0007C01009759F0A801BE010E948A21CE01ED
:1042F0000E943620C70104C0CE0102C080E090E0D9
:10430000CDB7DEB7EEE00C946A1D81E090E0F89442
:104310000C94C321FB01DC0102C001900D924150BD
:104320005040D8F70895FB01DC0101900D92002068
:10433000E1F70895FB01DC014150504048F0019045
:104340000D920020C9F701C01D9241505040E0F786
:104350000895FB0151915523A9F0BF01DC014D9156
:1043600045174111E1F759F4CD010190002049F0C2
:104370004D9140154111C9F3FB014111EFCF81E08F
:0A43800090E001970895F894FFCF34
:10438A0000009B04200000000000EC02D603ED02AE
:10439A00D8037F0400000000D1013E0168011E021B
:1043AA00990177018B01000000007A034D03AA03EB
:1043BA0062024503310322030000000063023E014A
:1043CA00AA036202B302CB024A02424E4F3035358B
:1043DA00004F6F6F70732C206E6F20424E4F303536
:1043EA00352031206465746563746564202E2E2E31
:1043FA0020436865636B20796F75722077697269EB
:10440A006E67206F72204932432041444452210092
:10441A0009446574656374656400094E6F7468695C
:10442A006E670043616C6962726174696E67002E1F
:10443A00000A446F6E65210050726F6772616D20C9
:10444A007374617274656421002C007273686F65FD
:10445A003A000961780900096179090009617A0954
:10446A0000097909000972090009700900097765CC
:10447A00696768743A0009730900096209006C7374
:10448A00686F653A0063686573743A0009615A098E
:10449A000009616C740900094A756D703A00094295
:1044AA00656E643A00095374726169676874090039
:1044BA000957616C6B3A000D0A00096261636B77F8
:1044CA0061726400096C6566740009666F727761CF
:0A44DA0072640009726967687400DB
:00000001FF
