:100000000C94DF000C9407010C9407010C9470050C
:100010000C9470050C9470050C9407010C94070166
:100020000C9407010C9407010C9407010C94070130
:100030000C9407010C9407010C9407010C94070120
:100040000C94DA0A0C9407010C943E050C941805E4
:100050000C9407010C9407010C9407010C94070100
:100060000C94EA050C94070100407A10F35A00A0A2
:10007000724E18090010A5D4E80000E87648170071
:1000800000E40B54020000CA9A3B000000E1F505B1
:10009000000080969800000040420F000000A086FB
:1000A00001000000102700000000E803000000002D
:1000B0006400000000000A000000000001000000D1
:1000C00000002C76D888DC674F0823DFC1DFAE59EB
:1000D000E1B1B796E5E3E453C63AE651997696E87E
:1000E000E6C28426EB898C9B62ED407C6FFCEFBC02
:1000F0009C9F40F2BAA56FA5F490055A2AF75C932D
:100100006B6CF9676DC11BFCE0E40D47FEF520E662
:10011000B500D0ED902E0300943577050080841E45
:10012000080000204E0A000000C80C333333330FA0
:10013000986E12831141EF8D2114893BE65516CF3D
:10014000FEE6DB18D1844B381BF77C1D901DA4BB49
:10015000E424203284725E228100C9F124ECA1E5FE
:100160003D2700000000240027002A0000000008AE
:10017000000201000003040700000000000000006E
:1001800000000000230026002900000000002500D8
:1001900028002B00040404040404040402020202E4
:1001A000020203030303030301020408102040803A
:1001B0000102040810200102040810203511112446
:1001C0001FBECFEFD8E0DEBFCDBF23E0A0EFB1E090
:1001D00001C01D92AD3FB207E1F711E0A0E0B1E030
:1001E000E8E5F2E302C005900D92A03FB107D9F710
:1001F00010E0CFEDD0E004C02197FE010E94201650
:10020000CE3DD107C9F70E945D0D0C942A190C94BC
:100210000000CF92DF92EF92FF920F931F93CF9344
:10022000DF936C017A018B01C0E0D0E0CE15DF05D1
:1002300081F0D8016D918D01D601ED91FC91019075
:10024000F081E02DC6010995892B11F02196EECFA2
:100250007E01C701DF91CF911F910F91FF90EF9029
:10026000DF90CF900895FC01538D448D252F30E011
:10027000842F90E0821B930B541710F0CF960895B3
:1002800001970895FC01918D828D981761F0828D00
:10029000DF01A80FB11D5D968C91928D9F5F9F73BA
:1002A000928F90E008958FEF9FEF0895FC01918D5C
:1002B000828D981731F0828DE80FF11D858D90E0C9
:1002C00008958FEF9FEF0895FC01918D228D892F66
:1002D00090E0805C9F4F821B91098F73992708954E
:1002E0008CEF92E00E94640121E0892B09F420E068
:1002F000822F0895FC01848DDF01A80FB11DA35A40
:10030000BF4F2C91848D90E001968F739927848F35
:10031000A689B7892C93A089B1898C918370806458
:100320008C93938D848D981306C00288F389E02DF9
:1003300080818F7D80830895EF92FF920F931F93AA
:10034000CF93DF93EC0181E0888F9B8D8C8D981388
:1003500005C0E889F989808185FD26C0F62E0B8DC0
:1003600010E00F5F1F4F0F731127E02E8C8DE812E6
:100370000CC00FB607FCFACFE889F989808185FFA8
:10038000F5CFCE010E947A01F1CF8B8DFE01E80FEF
:10039000F11DE35AFF4FF0829FB7F8940B8FEA8963
:1003A000FB89808180620AC09FB7F894EE89FF893B
:1003B0006083E889F98980818370806480839FBF2E
:1003C00081E090E0DF91CF911F910F91FF90EF902E
:1003D0000895CF93DF93EC01888D8823C9F0EA89D3
:1003E000FB89808185FD05C0A889B9898C9186FD2E
:1003F0000FC00FB607FCF5CF808185FFF2CFA8892B
:10040000B9898C9185FFEDCFCE010E947A01E7CFAB
:10041000DF91CF91089580E090E0892B29F00E9430
:10042000700181110C94000008952091A703309170
:10043000A8032817390771F49091A5038091A603AA
:10044000981741F0E091A503F0E0E95CFD4F808151
:1004500090E008958FEF9FEF089508951F93CF9335
:10046000DF93DC015C968D919C915D97009739F448
:1004700021E030E013963C932E9312973BC05196A7
:10048000ED91FC91529750962C915097322F3095C8
:100490001FB75E964C915E97742F727041FD609508
:1004A000F8944081772311F0422B01C0432340830D
:1004B000EC012197F1F748E0508160FF02C0522B18
:1004C00001C053235083EC012197F1F76695415009
:1004D00099F78081772319F08323808302C0282B2A
:1004E00020831FBF5C968D919C915D970197F1F7DA
:1004F00081E090E0DF91CF911F9108952091A703B3
:100500003091A8032817390771F48091A603209130
:10051000A50390E0805C9F4F821B910960E470E02E
:100520000E94F815089580E090E008952091A703B7
:100530003091A80328173907B9F49091A503809149
:10054000A603981789F0E091A503F0E0E95CFD4F60
:1005500080812091A50330E02F5F3F4F2F73332719
:100560002093A50390E008958FEF9FEF08950895DD
:10057000089585ED8093BC008091BC0084FDFCCF84
:100580001092FB02089540911202262F30E0240FB2
:10059000311D21323105DCF42091FB022430C9F4F5
:1005A000FC0180E090E0861758F43091120221910E
:1005B000DC01A051BE4FA30FB11D2C930196F3CFC8
:1005C00080911202680F6093120280E0089581E02A
:1005D000089582E0089508950895E0919002809131
:1005E0008F02E81730F4F0E0EB54FD4F808190E08B
:1005F00008958FEF9FEF08959091900280918F0260
:10060000981750F4E92FF0E0EB54FD4F208130E0D3
:100610009F5F9093900202C02FEF3FEFC9010895B2
:1006200080918F0290E020919002821B91090895A1
:10063000CF92DF92EF92FF920F931F93CF93DF93AE
:100640007C01CB018A0120919102222389F0EB01E8
:100650006B01C40ED51ECC15DD0569F06991D7017B
:10066000ED91FC910190F081E02DC7010995F3CF48
:10067000642F0E94C302C801DF91CF911F910F9197
:10068000FF90EF90DF90CF900895CF93DF931F926C
:10069000CDB7DEB76983209191022223D1F020915A
:1006A000B402203240F021E030E0FC0133832283A9
:1006B00080E090E015C080919202E82FF0E0ED56C6
:1006C000FD4F998190838F5F809392028093B40253
:1006D00005C061E0CE0101960E94C30281E090E076
:1006E0000F90DF91CF910895089580E090E00895F4
:1006F0000E94EC180C949D178F929F92AF92BF921C
:10070000CF92DF92EF92FF920F931F93CF93DF93DD
:10071000CDB7DEB762970FB6F894DEBF0FBECDBF80
:100720007C018B0184E2DB011D928A95E9F784E26A
:1007300090E0A0E0B0E0FB0180839183A283B383CB
:10074000F70186819781A085B185FB01848395831C
:10075000A683B78383E090E0A0E0B0E08087918734
:10076000A287B3870E94CE0AD80150966D937D93DD
:100770008D939C935397FE0131968CE0DF011D927F
:100780008A95E9F7AE01435F5F4F86E0FA01119267
:100790008A95E9F76AE170E0C7010E94B00C6D85A7
:1007A0007E85072E000C880B990B0E94C81420E050
:1007B00030E040E85DE30E9403154B015C016F856A
:1007C0007889072E000C880B990B0E94C81420E032
:1007D00030E040E85DE30E9403156B017C0169890C
:1007E0007A89072E000C880B990B0E94C81420E010
:1007F00030E040E85DE30E940315D80154968D92E5
:100800009D92AD92BC925797F801C08ED18EE28E28
:10081000F38E5C966D937D938D939C935F9781E0AF
:1008200062960FB6F894DEBF0FBECDBFDF91CF91B9
:100830001F910F91FF90EF90DF90CF90BF90AF90FE
:100840009F908F9008950F931F93CF93DF938C0108
:10085000EB0188E2FB0111928A95E9F74BE050E049
:100860006AE471E0CE010E9401191B8681E090E0EC
:10087000A0E0B0E08C879D87AE87BF87F8018681B6
:100880009781A085B185888B998BAA8BBB8B83E0E0
:1008900090E0A0E0B0E08C8B9D8BAE8BBF8B1CA258
:1008A0001DA21EA21FA2188E198E1A8E1B8E1C8EC0
:1008B0001D8E1E8E1F8E8AE097EDA3E2BCE388A3F7
:1008C00099A3AAA3BBA3DF91CF911F910F91089584
:1008D000FC0180819181009711F00C94581260E026
:1008E00070E0CB0108950F931F93CF93DF93EC013A
:1008F00088819981009729F02A813B812617370743
:1009000088F48B016F5F7F4F0E942618009761F07B
:10091000998388831B830A832C813D81232B11F4C7
:10092000FC01108281E001C080E0DF91CF911F9136
:100930000F910895CF93DF93EC01888199810097FF
:1009400011F00E949D17198218821D821C821B8241
:100950001A82DF91CF910895EF92FF920F931F9328
:10096000CF93DF938C017B016115710569F0FB0169
:1009700001900020E9F73197EF01C61BD70BBE01AC
:100980000E947304811104C0C8010E949A0408C027
:10099000F801D583C483B701808191810E94FA1840
:1009A000C801DF91CF911F910F91FF90EF900895B3
:1009B000FC01808191810C949D17EF92FF920F931F
:1009C0001F93CF93DF93EC01198218821B821A8246
:1009D0001D821C826115710521F18B01FB010190C3
:1009E0000020E9F731977F01E61AF70AB7010E9464
:1009F0007304811109C0CE01DF91CF911F910F9136
:100A0000FF90EF900C949A04FD82EC82B8018881EB
:100A10009981DF91CF911F910F91FF90EF900C94EE
:100A2000FA18DF91CF911F910F91FF90EF900895E9
:100A30001F920F920FB60F9211242F933F934F9353
:100A40005F936F937F938F939F93AF93BF93EF9336
:100A5000FF938CEF92E00E947A01FF91EF91BF919A
:100A6000AF919F918F917F916F915F914F913F9146
:100A70002F910F900FBE0F901F9018951F920F92FD
:100A80000FB60F9211242F938F939F93EF93FF93A1
:100A9000E0910C03F0910D038081E0911203F0913D
:100AA000130382FD12C09081809115038F5F8F73B5
:100AB00020911603821751F0E0911503F0E0E45005
:100AC000FD4F958F8093150301C08081FF91EF91B9
:100AD0009F918F912F910F900FBE0F901F9018959F
:100AE0001F920F920FB60F9211242F933F934F93A3
:100AF0005F936F937F938F939F93AF93BF93EF9386
:100B0000FF93E091A703F091A803309709F451C037
:100B1000968DA685B785858591FF04C09C91892314
:100B200029F447C09C91892309F043C0A389B48963
:100B30009C918589809589238C93868997890197D3
:100B4000F1F7608D718DA685B785558538E020E079
:100B5000CB010197F1F7822F90E095958795282F8B
:100B60004C91452309F02068315091F7868D81FD25
:100B700020958091A60390E001968F73992730917C
:100B8000A503381749F0A091A603B0E0A95CBD4FBA
:100B90002C938093A60303C0868D8160868F828DFF
:100BA000938D0197F1F7A389B4899C918589892B4D
:100BB0008C93FF91EF91BF91AF919F918F917F9116
:100BC0006F915F914F913F912F910F900FBE0F90BA
:100BD0001F9018951F920F920FB60F9211242F930A
:100BE0003F934F935F936F937F938F939F93AF93B5
:100BF000BF93EF93FF938091B900887F803609F40B
:100C00009CC068F5883209F45BC090F4803109F427
:100C100054C038F4882309F4F6C0883009F44DC074
:100C2000F6C0883109F44CC0803209F45DC0EFC0D1
:100C3000803409F468C048F4803309F455C088331F
:100C400009F0E5C08093F902D8C0803509F44FC09F
:100C5000883509F45DC0883409F0D9C0D6C0883918
:100C600009F4C7C0A8F4883709F467C038F4883697
:100C700009F463C0803709F460C0C9C0883809F43A
:100C8000B8C0803909F45FC0803809F0C0C05BC0CB
:100C9000803B09F486C038F4803A09F466C0883A8B
:100CA00009F47FC0B4C0803C09F4A7C0883C09F4B3
:100CB000A4C0883B09F48AC0AAC08091F60210C083
:100CC0009091F8028091F702981770F5E091F80280
:100CD00081E08E0F8093F802F0E0EB52FD4F8081AF
:100CE0008093BB0085EC86C08093F9028EC0E091B2
:100CF000F80281E08E0F8093F8028091BB00F0E053
:100D0000EB52FD4F80839091F8028091F7026EC004
:100D1000E091F80281E08E0F8093F8028091BB0091
:100D2000F0E0EB52FD4F80838091FA0281116DC09B
:100D300081E08093F50284EA61C083E08093FB0246
:100D400010923602CFCF80913602803208F051C027
:100D5000E091360281E08E0F809336028091BB00D5
:100D6000F0E0EA5EFD4F8083BDCF85EC8093BC0050
:100D70001092FB0280913602803230F4E09136020C
:100D8000F0E0EA5EFD4F10826091360270E0E09183
:100D90001402F091150286E192E009951092360254
:100DA00036C084E08093FB0210921302109212026C
:100DB000E0911002F09111020995809112028111C7
:100DC00005C081E0809312021092F001E0911302BD
:100DD00081E08E0F80931302F0E0E051FE4F80819E
:100DE0008093BB009091130280911202981708F42F
:100DF00079CF85E88093BC000AC085EC8093BC0065
:100E00001092FB0204C01092F9020E94B902FF91F5
:100E1000EF91BF91AF919F918F917F916F915F9172
:100E20004F913F912F910F900FBE0F901F901895EB
:100E30006F927F928F929F92AF92BF92CF92DF92EA
:100E4000EF92FF920F931F93CF93DF93CDB7DEB74F
:100E500062970FB6F894DEBF0FBECDBF7C01F701DD
:100E6000819191916F018E010F5F1F4F2CE0F8016E
:100E700011922A95E9F75E01FDE0AF0EB11C26E064
:100E8000F50111922A95E9F7A5016AE170E00E9447
:100E9000B00C8F84988869887A886D857E85072E46
:100EA000000C880B990B0E94C81420E030E040E849
:100EB0005DE30E94031569837A838B839C83B4016D
:100EC000990C880B990B0E94C81420E030E040E890
:100ED0005DE30E9403156D837E838F839887B30142
:100EE000770C880B990B0E94C81420E030E040E892
:100EF0005DE30E94031569877A878B879C87980139
:100F00004701FEE08F0E911CF90181919191A19111
:100F1000B1919F01F60181939193A193B1936F01D8
:100F2000E815F90589F7F701808191812CE0F80136
:100F300011922A95E9F726E0F50111922A95E9F731
:100F4000A50168E270E00E94B00CAF84B888C9883F
:100F5000DA886D857E85072E000C880B990B0E9420
:100F6000C81420E030E048EC52E40E9493166983F4
:100F70007A838B839C83B501BB0C880B990B0E94F1
:100F8000C81420E030E048EC52E40E9493166D83D0
:100F90007E838F839887B601DD0C880B990B0E94A6
:100FA000C81420E030E048EC52E40E9493166987B0
:100FB0007A878B879C87FAE1EF0EF11CF80181910B
:100FC0009191A191B1918F01F40181939193A1939A
:100FD000B1934F01EE15FF0589F762960FB6F894AD
:100FE000DEBF0FBECDBFDF91CF911F910F91FF905C
:100FF000EF90DF90CF90BF90AF909F908F907F90B9
:101000006F9008958F929F92AF92BF92CF92DF928E
:10101000EF92FF920F931F93CF93DF93CDB7DEB77D
:1010200062970FB6F894DEBF0FBECDBF8C01DC0116
:101030008D919D917D01FE0131966F012CE0DF01C4
:101040001D922A95E9F7AE01435F5F4F26E0FA0152
:1010500011922A95E9F76AE170E00E94B00C8F8442
:101060009888A988BA886D857E85072E000C880B24
:10107000990B0E94C81420E030E040E85DE30E9434
:10108000031569837A838B839C83B401990C880B45
:10109000990B0E94C81420E030E040E85DE30E9414
:1010A00003156D837E838F839887B501BB0C880BF6
:1010B000990B0E94C81420E030E040E85DE30E94F4
:1010C000031569877A878B879C87F601C8010E967E
:1010D0004191519161917191D7014D935D936D93C0
:1010E0007D937D01A817B90799F7F801828593854B
:1010F000A485B5854681578160857185428F538F60
:10110000648F758F868F978FA0A3B1A362960FB659
:10111000F894DEBF0FBECDBFDF91CF911F910F912D
:10112000FF90EF90DF90CF90BF90AF909F908F9007
:101130000895EF92FF920F931F93CF93DF938C014B
:10114000FC01C081D1811092900210928F02109206
:1011500092021092B4021092FB0281E08093FA0294
:101160001092F50261E082E10E94FD0961E083E1F5
:101170000E94FD098091B9008E7F8093B900809113
:10118000B9008D7F8093B90088E48093B80085E42E
:101190008093BC008BEE92E090931102809310023A
:1011A0008CEE92E09093150280931402CE010E947F
:1011B000CF09803A81F460E070E0CE010E94C00A5D
:1011C00040E26FE370E0CE010E94A5096EE170E09D
:1011D00080E090E010C068EE73E080E090E00E9454
:1011E000860ACE010E94CF09803A29F381E591E079
:1011F0000E94940B76C00E94860ACE010E94CF09FD
:10120000803A29F06AE070E080E090E0F4CF62E399
:1012100070E080E090E00E94860A40E06EE370E0BB
:10122000CE010E94A5096AE070E080E090E00E9493
:10123000860A40E067E070E0CE010E94A50940E028
:101240006FE370E0CE010E94A5096AE070E080E0E3
:1012500090E00E94860A6CE070E0CE010E94C00A15
:1012600064E170E080E090E00E94860A68EE73E03E
:1012700080E090E00E94860AF801C081D181EA8472
:10128000FB8460E070E0CE010E94C00A69E170E07A
:1012900080E090E00E94860A40E067E070E0CE01C6
:1012A0000E94A50940E86FE370E0CE010E94A50905
:1012B0006AE070E080E090E00E94860AB701CE010B
:1012C0000E94C00A64E170E080E090E00E94860A1B
:1012D000C801DF91CF911F910F91FF90EF900C9477
:1012E0000208FFCF3FB7F89480918B0290918C0257
:1012F000A0918D02B0918E0226B5A89B05C02F3F0C
:1013000019F00196A11DB11D3FBFBA2FA92F982F2B
:101310008827820F911DA11DB11DBC01CD0142E0A6
:10132000660F771F881F991F4A95D1F70895CF93AD
:10133000DF930E94940BEC0180E991E00E94940BF2
:101340008C0F9D1FDF91CF9108951F93CF93DF9353
:10135000EC01142F8B8191E0909391028093B30262
:10136000109292021092B4028C819D81DC01ED9169
:10137000FC910190F081E02D09958C819D81DC012B
:10138000ED91FC910190F081E02D612F099581E0B4
:101390000E94540C81E0DF91CF911F910895CF936B
:1013A000DF93EC018B8191E0909391028093B302E3
:1013B000109292021092B4028C819D81DC01ED9119
:1013C000FC910190F081E02D60E0099581E00E94A0
:1013D000540C61E08B810E94120C10929002809359
:1013E0008F028C819D81DC01ED91FC910284F3855B
:1013F000E02D0995DF91CF91089590E0FC01E4592B
:10140000FE4F2491FC01E855FE4F3491FC01EC564F
:10141000FE4FE491EE2309F43CC0222339F123303E
:1014200091F038F42130A9F0223001F584B58F7D98
:1014300012C0273091F02830A1F02430B9F4809107
:1014400080008F7D03C0809180008F778093800023
:101450000DC084B58F7784BD09C08091B0008F77AF
:1014600003C08091B0008F7D8093B000F0E0EE0F5C
:10147000FF1FE657FE4FA591B4919FB7F8946111F5
:1014800004C08C913095382302C0EC913E2B3C93E4
:101490009FBF0895CF93DF9390E0FC01E855FE4F86
:1014A0002491FC01EC56FE4F8491882361F190E079
:1014B000880F991FFC01EE59FE4FC591D491FC0194
:1014C000E657FE4FA591B491611109C09FB7F894FA
:1014D0008881209582238883EC912E230BC0623073
:1014E00061F49FB7F8948881322F309583238883E5
:1014F000EC912E2B2C939FBF06C08FB7F894E881F8
:101500002E2B28838FBFDF91CF9108958F929F92CA
:10151000AF92BF92CF92DF92EF92FF926B017C016C
:101520000E9472094B015C01C114D104E104F10471
:10153000F1F00E947209DC01CB0188199909AA090E
:10154000BB09883E9340A105B10570F321E0C21AA2
:10155000D108E108F10888EE880E83E0981EA11CEE
:10156000B11CC114D104E104F10419F7DDCFFF90DF
:10157000EF90DF90CF90BF90AF909F908F900895A5
:10158000462FFC01628773876DE370E00E94A50916
:101590006EE170E080E090E00C94860A2FB7F8943A
:1015A00060918702709188028091890290918A02ED
:1015B0002FBF08951F920F920FB60F9211242F93F1
:1015C0003F938F939F93AF93BF93809187029091A6
:1015D0008802A0918902B0918A023091860223E0AC
:1015E000230F2D3720F40196A11DB11D05C026E85B
:1015F000230F0296A11DB11D2093860280938702BE
:1016000090938802A0938902B0938A0280918B0202
:1016100090918C02A0918D02B0918E020196A11D35
:10162000B11D80938B0290938C02A0938D02B09396
:101630008E02BF91AF919F918F913F912F910F900B
:101640000FBE0F901F901895CF93DF93FC0144813C
:10165000558141155105D9F061157105C1F09A0107
:101660006417750708F49B01EC0188819981421B7E
:10167000530B5D834C83BC01620F731F0E940119E1
:10168000E881F9818C819D81E80FF91F1082DF913B
:10169000CF910895CF93DF93FC0124813581232BD3
:1016A00071F0FB01DC01CD91DC9160817181CE0193
:1016B0000E941019009719F08C1B9D0B02C08FEF30
:1016C0009FEFDF91CF9108950F931F93CF93DF93F7
:1016D000EC010E94CE0A688779878A879B87E88118
:1016E000F9810284F385E02DCE01099597FF17C09B
:1016F0000E94CE0A088519852A853B85DC01CB012D
:10170000801B910BA20BB30B0C811D812E813F819D
:1017100080179107A207B30710F38FEF9FEFDF91B8
:10172000CF911F910F910895009769F0FC010190EE
:101730000020E9F73197AF01481B590BBC018CEF32
:1017400092E00C94090180E090E00895FC0144814E
:101750005581608171818CEF92E00C940901EF92C8
:10176000FF920F931F93CF93DF93EC01FB01048152
:101770001581E080F180E114F104C9F00115110533
:10178000C9F08C819D81080F191FB801CE010E94FC
:101790007304882361F0288139818C819D81B70190
:1017A000820F931F0E94FA181D830C8303C0CE0181
:1017B0000E949A04CE01DF91CF911F910F91FF906B
:1017C000EF900895EF92FF920F931F93CF93DF93C3
:1017D000CDB7DEB7A1970FB6F894DEBF0FBECDBF71
:1017E0007C01CB01BA01F7011182108213821282AF
:1017F000158214828E010F5F1F4F22E044E00E9489
:101800003812BC01C7010E94AC04A1960FB6F8942F
:10181000DEBF0FBECDBFDF91CF911F910F91FF9023
:10182000EF9008959091FB029111FCCF91E090937D
:10183000FB029093FA022FEF2093F9021092F80224
:10184000260F2093F7029093F6029091F602880FEC
:10185000892B8093F6028091F502813061F4109219
:10186000F5028091F6028093BB008091BC0083FD5D
:10187000F8CF85EC01C085EE8093BC008091FB021F
:101880008130E1F38091F802861710F46091F8023C
:10189000A5EDB2E0E5EBF2E080E0861721F09D9146
:1018A00091938F5FFACF0895282F3091B40231328F
:1018B00008F04AC08091FB028111FCCF9091B302E5
:1018C00042E04093FB022093FA022FEF2093F902AB
:1018D0001092F8023093F702E3E9F2E0A5EDB2E0EE
:1018E00020E0321721F041914D932F5FFACF1092F3
:1018F000F6022091F602990F922B9093F6029091A6
:10190000F502913061F41092F5029091F6029093F5
:10191000BB009091BC0093FDF8CF95EC01C095EE13
:101920009093BC009091FB029230E1F39091F90208
:101930009F3F79F08091F902803241F08091F90265
:10194000803331F084E005C081E003C082E001C053
:1019500083E0109292021092B402109291020895C4
:10196000EF92FF920F931F93CF93DF938C017A0135
:10197000DC0113968C91139791E0909391028093E0
:10198000B302109292021092B40214968D919C911F
:101990001597DC01ED91FC910190F081E02D099506
:1019A00081E00E94540C66E0F80183810E94120CD1
:1019B0001092900280938F02E701F6E0EF0EF11C87
:1019C000D80114968D919C911597DC01ED91FC91B5
:1019D0000284F385E02D09958993EC16FD0681F7C5
:1019E00081E0DF91CF911F910F91FF90EF900895CB
:1019F000CF92DF92EF92FF920F931F93CF93DF93DB
:101A00007C018B016A0169ED71E00E94DD04D8015F
:101A100014968D919C9115970097C1F0E6018C1555
:101A20009D0508F4EC01D801ED91FC911197EC0FA4
:101A3000FD1FD08010826D917C91C7010E94AC0483
:101A4000F80180819181C80FD91FD882C701DF9129
:101A5000CF911F910F91FF90EF90DF90CF9008955D
:101A60001F93CF93DF93EC01162FFC0132968CE08D
:101A7000DF01982F1D929A95E9F73C96DF011D92A0
:101A80008A95E9F78CE090E00E940517FC018AE056
:101A900091E0918380838FEF9FEFDC0186839783B2
:101AA000A087B187138389E993E095838483F983C1
:101AB000E883DF91CF911F910895CF93DF93CDB746
:101AC000DEB762970FB6F894DEBF0FBECDBF789435
:101AD00084B5826084BD84B5816084BD85B5826033
:101AE00085BD85B5816085BD80916E0081608093E4
:101AF0006E0010928100809181008260809381004D
:101B0000809181008160809381008091800081605C
:101B1000809380008091B10084608093B1008091B7
:101B2000B00081608093B00080917A0084608093DF
:101B30007A0080917A00826080937A0080917A00A6
:101B4000816080937A0080917A00806880937A0027
:101B50001092C100E0910C03F0910D0382E08083AC
:101B6000E0910803F09109031082E0910A03F091DB
:101B70000B03108210921403E0911003F0911103F3
:101B800086E08083E0910E03F0910F0380818061F5
:101B90008083E0910E03F0910F0380818860808341
:101BA000E0910E03F0910F03808180688083E091C3
:101BB0000E03F0910F0380818F7D808364EF71E0CD
:101BC00080E090E00E94860A84E290E090937B029D
:101BD00080937A0223EF30E030937D0220937C02E1
:101BE0008FE790E090937F0280937E024AE050E07E
:101BF00050938102409380023093830220938202AB
:101C0000909385028093840283E090E00E94051700
:101C100026E030E0DC0111963C932E9312961C9244
:101C200090937902809378028CB5837F8CBD8CB5BC
:101C30008F7D8CBD8CB58C7F81608CBD8DB58160B6
:101C40008DBD1FB7F89480917702811127C0EEE90E
:101C5000F1E08491E2EBF1E09491E82FF0E0EE0FF7
:101C6000FF1FEE59FE4FA591B491EC91E92321F4A9
:101C700061E08AE00E94FD0961E08AE00E944A0A70
:101C80008CB580618CBD8CB580648CBD61E08DE0CD
:101C90000E944A0A61E08BE00E944A0A8091770222
:101CA0008F5F809377021FBF0091780210917902B5
:101CB00061E0F80180810E944A0A61E0D8018C91BC
:101CC0000E94FD0960E0F80180810E94FD09D801B1
:101CD00012968C911297811103C060E08C9103C021
:101CE00061E0F80180810E94FD0981E48EBD000061
:101CF0000DB407FEFDCF8EB58FEF8EBD00000DB485
:101D000007FEFDCF8EB5D80112968C9112978111E6
:101D100003C061E08C9103C060E0F80180810E9403
:101D2000FD0961E0D8018C910E94FD098BEC93E0E4
:101D30000E94990889EA93E00E94990883E991E05A
:101D40000E9497090E94CE0A6B017C010E94CE0A74
:101D5000DC01CB018C199D09AE09BF09803D97407C
:101D6000A105B10598F489EA93E00E9402088BEC82
:101D700093E00E9402088FE991E00E94940B64E6D0
:101D800070E080E090E00E94860AE0CF81EA91E076
:101D90000E94970988EA91E00E9497098091ED03DB
:101DA0009091EE03DC01ED91FC910084F185E02D32
:101DB0000995892B09F43AC1E090ED03F090EE0308
:101DC00069ED71E0CE010D960E94DD04C7010E940D
:101DD000640B97FD1EC08A309105D9F089831A8261
:101DE00009891A890F5F1F4FB801CE010D960E9415
:101DF0007304882359F32D853E8589899A89BE010C
:101E00006F5F7F4F820F931F0E94FA181A8B098B06
:101E1000DDCF69EB71E0CE0101960E94DD04BE01C9
:101E20006F5F7F4FCE010D960E944A0BAC01BE0141
:101E3000635F7F4FCE0107960E94F80CCE01079694
:101E40000E9468047093F0036093EF03CE0107963D
:101E50000E94D804CE0101960E94D80469EB71E07B
:101E6000CE0101960E94DD04BE016F5F7F4FCE015F
:101E70000D960E944A0BBC016F5F7F4FCE010D96FD
:101E80000E94240BCE0101960E94D80469EB71E0F8
:101E9000CE0101960E94DD04BE016F5F7F4FCE012F
:101EA0000D960E944A0BAC01BE01635F7F4FCE01CD
:101EB00007960E94F80CCE0107960E946804709362
:101EC000F2036093F103CE0107960E94D804CE017D
:101ED00001960E94D80469EB71E0CE0101960E9440
:101EE000DD04BE016F5F7F4FCE010D960E944A0B4D
:101EF000BC016F5F7F4FCE010D960E94240BCE0177
:101F000001960E94D80469EB71E0CE0101960E940F
:101F1000DD04BE016F5F7F4FCE010D960E944A0B1C
:101F2000AC01BE01635F7F4FCE0107960E94F80CA3
:101F3000CE0107960E9468047093F4036093F30344
:101F4000CE0107960E94D804CE0101960E94D804C3
:101F500069EB71E0CE0101960E94DD04BE016F5F66
:101F60007F4FCE010D960E944A0BBC016F5F7F4FE1
:101F7000CE010D960E94240BCE0101960E94D8043A
:101F800069EB71E0CE0101960E94DD04BE016F5F36
:101F90007F4FCE010D960E944A0BAC01BE01635FDC
:101FA0007F4FCE0107960E94F80CCE0107960E9443
:101FB00068047093F6036093F503CE0107960E94C0
:101FC000D804CE0101960E94D80469EB71E0CE01DD
:101FD00001960E94DD04BE016F5F7F4FCE010D961A
:101FE0000E944A0BBC016F5F7F4FCE010D960E948D
:101FF000240BCE0101960E94D80449895A89BE015A
:10200000635F7F4FCE0101960E94F80CCE010196CE
:102010000E9468047093F8036093F703CE01019661
:102020000E94D804CE010D960E94D8048BEC93E058
:102030000E94180789EA93E00E9418078BEB91E051
:102040000E94940B4091CD035091CE036091CF0339
:102050007091D003CE0101960E94E20B68EC71E012
:10206000CE0107960E94DD04BE016F5F7F4FCE0157
:1020700007960E94AF0B0E94A60BCE0107960E9406
:10208000D804CE0101960E94D8042091E503309136
:10209000E6034091E7035091E8036091D10370910A
:1020A000D2038091D3039091D4030E942616AB01F2
:1020B000BC01CE0101960E94E20B60ED71E0CE0101
:1020C00007960E94DD04BE016F5F7F4FCE01079629
:1020D0000E94AF0B0E94A60BCE0107960E94D80467
:1020E000CE0101960E94D8042091E9033091EA03C1
:1020F0004091EB035091EC036091D5037091D603AE
:102100008091D7039091D8030E942616AB01BC01A1
:10211000CE0101960E94E20B6AED71E0CE010796B6
:102120000E94DD04BE016F5F7F4FCE0107960E94C3
:10213000AF0B0E94A60BCE0107960E94D804CE01D9
:1021400001960E94D80483EE91E00E94940B409186
:10215000AB035091AC036091AD037091AE03CE011F
:1021600001960E94E20B68EC71E0CE0107960E9496
:10217000DD04BE016F5F7F4FCE0107960E94AF0B5B
:102180000E94A60BCE0107960E94D804CE010196AC
:102190000E94D8042091C3033091C4034091C50329
:1021A0005091C6036091AF037091B0038091B10369
:1021B0009091B2030E942616AB01BC01CE0101969C
:1021C0000E94E20B60ED71E0CE0107960E94DD04F3
:1021D000BE016F5F7F4FCE0107960E94AF0B0E943A
:1021E000A60BCE0107960E94D804CE0101960E944C
:1021F000D8042091C7033091C8034091C90350917E
:10220000CA036091B3037091B4038091B5039091B8
:10221000B6030E942616AB01BC01CE0101960E94B6
:10222000E20B6AED71E0CE0107960E94DD04BE016B
:102230006F5F7F4FCE0107960E94AF0B0E94A60BE7
:1022400080E991E00E94940BCE0107960E94D80489
:10225000CE0101960E94D80461E270E080E090E037
:102260000E94860A0E940B0299CDCF92DF92EF92D4
:10227000FF92CF93DF931092FF021092FE0298EE2E
:10228000C92E93E0D92EE12CF12CC0920003D092FC
:102290000103E0920203F092030388E191E090933E
:1022A000FD028093FC0285EC90E0909309038093FB
:1022B000080384EC90E090930B0380930A0380EC76
:1022C00090E090930D0380930C0381EC90E0909349
:1022D0000F0380930E0382EC90E0909311038093A0
:1022E000100386EC90E090931303809312031092F6
:1022F00015031092160310921703109218031092F0
:102300009C0310929B03C0929D03D0929E03E09287
:102310009F03F092A0038AE291E090939A03809346
:1023200099038FE190E00E940517EC011B821A824D
:10233000CC82DD82EE82FF828CE391E099838883F8
:102340001F8A1E8A198E188E1B8E1A8E1D8E1C8E49
:102350006E8D6E7F6D7F6E8F6695617081E06827F0
:1023600082E00E94FD0961E082E00E944A0AEAEAF6
:10237000F1E0E491E88BE6E9F1E0E491F0E0EE0FC2
:10238000FF1FE657FE4F859194919A8B898B60E0F1
:1023900083E00E944A0A8E8D81FD04C061E083E0E3
:1023A0000E94FD0983E08C87EBEAF1E0E491ED8780
:1023B000E7E9F1E0E491F0E0EE0FFF1FE058FE4F97
:1023C000859194919F878E87D093EE03C093ED0300
:1023D0008DE991E09D8F8C8F2DEB30E03F8B2E8B24
:1023E0002BE931E0398F288F2CE231E03B8F2A8FA7
:1023F000209168002460209368002DE630E03C8B3B
:102400002B8B28E02D8B0197F1F7E091A703F0913A
:10241000A803CE17DF07D1F0309739F0A389B4892C
:102420009C918589809589238C938E8D8E7F8E8F4C
:102430001092A6031092A503D093A803C093A703FC
:10244000EB89FC8990818D89892B808369E270E01A
:102450008BEC93E00E94300D68E270E089EA93E033
:10246000DF91CF91FF90EF90DF90CF900C94300DE3
:10247000EF920F931F93CF93DF93E80147FD02C0C4
:1024800034E001C034E1042E000C550B57FF03C0AB
:10249000519541955109E32E022F242FAE010E9440
:1024A0009412CE01DF91CF911F910F91EF9008957B
:1024B0001F93FC0199278827BC01E89411911032E1
:1024C000E9F3193010F01E30C8F31B3251F01D3201
:1024D00049F4689406C00E947F12610F711D811D2E
:1024E000911D119110531A30B0F33EF490958095E0
:1024F000709561957F4F8F4F9F4F1F910895592F72
:10250000482F372F262F660F771F881F991F660FBA
:10251000771F881F991F620F731F841F951F660FF7
:10252000771F881F991F0895A9E0B0E0EAE9F2E15A
:102530000C94C7156A01122FB02E2BE3201720F040
:10254000FF24F394F00E02C02CE3F22E0F2D27E0AF
:10255000AE014F5F5F4F0E94EE13BC014981842F93
:102560008970813031F0E1FC06C0E0FE06C090E2E7
:1025700005C09DE203C09BE201C090E05E2D50715A
:1025800043FF3CC0911102C083E001C084E0811789
:1025900018F4212F281B01C020E051110BC0F601B7
:1025A000822F30E2882319F031938150FBCFC20E85
:1025B000D11C20E0992329F0D6019C93F601319695
:1025C0006F01C6010396E2FE0AC03EE4D6013C93C9
:1025D00041E411964C93119712963C9306C03EE647
:1025E000F601308341E641833283FC01322F40E221
:1025F000332309F442C041933150FACF42FF44C023
:10260000911102C083E001C084E0811718F4212FEA
:10261000281B01C020E051110BC0F601822F30E2CF
:10262000882319F031938150FBCFC20ED11C20E0DA
:10263000992329F0D6019C93F60131966F01C601CA
:102640000396E2FE0BC039E4D6013C933EE41196BA
:102650003C93119736E412963C9307C039E6F60195
:1026600030833EE6318336E63283FC01322F40E28E
:10267000332319F041933150FBCFFC01E20FF11DE0
:1026800010828EEF9FEFA6C021E030E0911102C0D2
:1026900020E030E0161617061CF4FB01319602C04C
:1026A000E1E0F0E02E0F3F1FBB2021F0EB2DF0E02A
:1026B000319602C0E0E0F0E02E0F3F1FE12FF0E086
:1026C0002E173F071CF4121B212F01C020E08E2D76
:1026D000887159F4F601822F30E2882319F0319382
:1026E0008150FBCFC20ED11C20E0992329F0D601E6
:1026F0009C93F60131966F0151110BC0F601822FA8
:1027000090E3882319F091938150FBCFC20ED11C26
:1027100020E00F2D060F9A81342F307144FF03C043
:10272000913309F40150101624F4093018F008E030
:1027300001C001E0AB0177FF02C040E050E0FB01C7
:10274000E41BF50BA1E0B0E0AC0FBD1FEA0FFB1FCF
:102750008EE2A82E4B01801A91080B2D10E01195E6
:10276000019511094F3FBFEF5B0721F4D601AC92F1
:1027700011966D01641775072CF08416950614F4F4
:10278000818101C080E3415051093196D6011196F3
:102790007D014017510724F0D6018C936701E2CFE9
:1027A0006417750739F4963320F4953319F4311111
:1027B00001C081E3F6018083F701822F90E2882334
:1027C00019F091938150FBCFF701E20FF11D1082B8
:1027D00080E090E02996ECE00C94E315283008F0B6
:1027E00027E03327DA01990F311D87FD91600096AC
:1027F0006105710539F432602E5F3D9330E32A950F
:10280000E1F708959F3F30F080387105610509F0C8
:102810003C5F3C5F3D93913008F08068911DDF93F1
:10282000CF931F930F93FF92EF92192F987F969556
:10283000E92F96959695E90FFF27EE53FF4F9927BD
:102840003327EE24FF24A701E7010590089407949D
:1028500028F4360FE71EF81E491F511D660F771F1B
:10286000881F991F0694A1F70590079428F4E70E96
:10287000F81E491F561FC11D770F881F991F661F1D
:102880000694A1F70590079428F4F80E491F561FE7
:10289000C71FD11D880F991F661F771F0694A1F7C8
:1028A0000590079420F4490F561FC71FD81F990F92
:1028B000661F771F881F0694A9F7849110951770DB
:1028C00041F0D695C79557954795F794E7941A9593
:1028D000C1F7E8E6F0E0689415901591359165919F
:1028E000959105907FE27395E118F10A430B560B21
:1028F000C90BD009C0F7E10CF11E431F561FC91FB9
:10290000D01D7EF4703311F48A95E6CFE89401501F
:1029100030F0080F0AF40027021708F4202F23953F
:10292000022F7A3328F079E37D932A95E9F710C0D6
:102930007D932A9589F6069497956795379517950F
:102940001794E118F10A430B560BC90BD00998F004
:1029500023957E9173957A3308F070E37C9320136E
:10296000B8F77E9170617D9330F0839571E37D932C
:1029700070E32A95E1F71124EF90FF900F911F91DA
:10298000CF91DF91992787FD90950895E89409C02C
:1029900097FB3EF490958095709561957F4F8F4F92
:1029A0009F4F9923A9F0F92F96E9BB279395F695A8
:1029B000879577956795B795F111F8CFFAF4BB0F26
:1029C00011F460FF1BC06F5F7F4F8F4F9F4F16C08A
:1029D000882311F096E911C0772321F09EE8872F14
:1029E000762F05C0662371F096E8862F70E060E0D0
:1029F0002AF09A95660F771F881FDAF7880F969549
:102A0000879597F908950E9416150C9487150E94D2
:102A1000791538F00E94801520F0952311F00C9460
:102A200070150C94761511240C94BB150E94981502
:102A300070F3959FC1F3950F50E0551F629FF00111
:102A4000729FBB27F00DB11D639FAA27F00DB11D2A
:102A5000AA1F649F6627B00DA11D661F829F2227B3
:102A6000B00DA11D621F739FB00DA11D621F839F3A
:102A7000A00D611D221F749F3327A00D611D231F10
:102A8000849F600D211D822F762F6A2F11249F575E
:102A900050409AF0F1F088234AF0EE0FFF1FBB1F61
:102AA000661F771F881F91505040A9F79E3F510520
:102AB00080F00C9470150C94BB155F3FE4F3983EC6
:102AC000D4F3869577956795B795F795E7959F5FCA
:102AD000C1F7FE2B880F911D9695879597F908955C
:102AE00097F99F6780E870E060E008959FEF80ECC1
:102AF000089500240A941616170618060906089564
:102B000000240A9412161306140605060895092EC9
:102B10000394000C11F4882352F0BB0F40F4BF2B38
:102B200011F460FF04C06F5F7F4F8F4F9F4F089578
:102B300057FD9058440F551F59F05F3F71F047956E
:102B4000880F97FB991F61F09F3F79F08795089553
:102B5000121613061406551FF2CF4695F1DF08C072
:102B6000161617061806991FF1CF8695710561058F
:102B700008940895E894BB2766277727CB0197F937
:102B800008952F923F924F925F926F927F928F9211
:102B90009F92AF92BF92CF92DF92EF92FF920F93EC
:102BA0001F93CF93DF93CDB7DEB7CA1BDB0B0FB6F6
:102BB000F894DEBF0FBECDBF09942A8839884888B3
:102BC0005F846E847D848C849B84AA84B984C88449
:102BD000DF80EE80FD800C811B81AA81B981CE0F40
:102BE000D11D0FB6F894DEBF0FBECDBFED01089525
:102BF00097FB072E16F4009407D077FD09D00E94AA
:102C00000C1607FC05D03EF4909581959F4F0895D2
:102C1000709561957F4F0895AA1BBB1B51E107C0BA
:102C2000AA1FBB1FA617B70710F0A61BB70B881F5C
:102C3000991F5A95A9F780959095BC01CD010895EB
:102C4000EE0FFF1F0590F491E02D09945058BB271B
:102C5000AA270E943E160C9487150E94791538F019
:102C60000E94801520F039F49F3F19F426F40C944B
:102C700076150EF4E095E7FB0C947015E92F0E9491
:102C8000981558F3BA17620773078407950720F061
:102C900079F4A6F50C94BA150EF4E0950B2EBA2F24
:102CA000A02D0B01B90190010C01CA01A001112452
:102CB000FF27591B99F0593F50F4503E68F11A16FE
:102CC000F040A22F232F342F4427585FF3CF46958F
:102CD00037952795A795F0405395C9F77EF41F16B1
:102CE000BA0B620B730B840BBAF09150A1F0FF0F7B
:102CF000BB1F661F771F881FC2F70EC0BA0F621F67
:102D0000731F841F48F4879577956795B795F79556
:102D10009E3F08F0B0CF9395880F08F09927EE0FEB
:102D20009795879508950E94A7160C9487150E9481
:102D3000801558F00E94791540F029F45F3F29F082
:102D40000C94701551110C94BB150C9476150E94BF
:102D5000981568F39923B1F3552391F3951B550BFF
:102D6000BB27AA2762177307840738F09F5F5F4F5E
:102D7000220F331F441FAA1FA9F335D00E2E3AF09D
:102D8000E0E832D091505040E695001CCAF72BD0B5
:102D9000FE2F29D0660F771F881FBB1F2617370706
:102DA0004807AB07B0E809F0BB0B802DBF01FF2738
:102DB00093585F4F3AF09E3F510578F00C94701590
:102DC0000C94BB155F3FE4F3983ED4F3869577955A
:102DD0006795B795F7959F5FC9F7880F911D9695F1
:102DE000879597F90895E1E0660F771F881FBB1F4D
:102DF000621773078407BA0720F0621B730B840BFA
:102E0000BA0BEE1F88F7E09508950F931F93CF93A9
:102E1000DF938230910510F482E090E0E091FB03B3
:102E2000F091FC0320E030E0A0E0B0E0309719F131
:102E3000408151810281138148175907C8F08417D6
:102E4000950769F4109731F012960C931297139628
:102E50001C9327C00093FB031093FC0322C0211591
:102E6000310519F04217530718F49A01BD01EF011B
:102E7000DF01F801DBCF21153105F9F0281B390BF3
:102E80002430310580F48A819B816115710521F020
:102E9000FB019383828304C09093FC038093FB0324
:102EA000FE01329644C0FE01E20FF31F819391931D
:102EB00022503109398328833AC02091F903309197
:102EC000FA03232B41F42091020130910301309346
:102ED000FA032093F903209100013091010121159B
:102EE000310541F42DB73EB74091040150910501E1
:102EF000241B350BE091F903F091FA03E217F30775
:102F0000A0F42E1B3F0B2817390778F0AC014E5F59
:102F10005F4F2417350748F04E0F5F1F5093FA0399
:102F20004093F9038193919302C0E0E0F0E0CF0178
:102F3000DF91CF911F910F910895CF93DF93009769
:102F400009F481C0FC01329713821282A091FB0325
:102F5000B091FC03109781F420813181820F931F7F
:102F60002091F9033091FA032817390751F5F093AE
:102F7000FA03E093F90367C0ED0120E030E0CE17DB
:102F8000DF0740F44A815B819E0141155105F1F054
:102F9000EA01F5CFD383C28340815181840F951F0D
:102FA000C817D90759F488819981840F951F029613
:102FB000918380838A819B8193838283211531054C
:102FC00029F4F093FC03E093FB033DC0E901FB838C
:102FD000EA8349915991C40FD51FEC17FD0761F49D
:102FE00080819181840F951F0296E90199838883DE
:102FF000828193819B838A83E0E0F0E012968D9139
:103000009C911397009719F0FD01DC01F7CF8D918A
:103010009C9111979D012E5F3F4F820F931F20912E
:10302000F9033091FA032817390769F4309729F426
:103030001092FC031092FB0302C013821282B09321
:10304000FA03A093F903DF91CF910895A0E0B0E0D7
:10305000ECE2F8E10C94C515EC01009721F4CB01EA
:103060000E940517B4C0FC01E60FF71F9C01225017
:103070003109E217F30708F4A8C0D9010D911C919A
:10308000119706171707B0F00530110508F49BC01B
:10309000C80104978617970708F495C002501109D4
:1030A000061B170B019311936D937C93CF010E9424
:1030B0009D1789C05B01A01AB10A4C01800E911EB8
:1030C000A091FB03B091FC03612C712CE12CF12C3D
:1030D000109709F446C08D919C911197A815B905D8
:1030E000B1F56C0142E0C40ED11CCA14DB0478F1C6
:1030F0004C018A189B08640142E0C40ED11C129650
:10310000BC9012971396AC91B5E0CB16D10440F069
:10311000B282A38391828082D9016D937C9309C08E
:103120000E5F1F4F800F911FF90191838083EB2D5C
:10313000FA2FE114F10431F0D7011396FC93EE93CA
:10314000129741C0F093FC03E093FB033CC0681668
:10315000790608F43C017D0112960D90BC91A02DDA
:10316000B7CF8091F9039091FA0388169906E1F49C
:1031700066167706C8F480910001909101010097CE
:1031800041F48DB79EB74091040150910501841B15
:10319000950BE817F907C8F4F093FA03E093F903E5
:1031A000F901718360830FC0CB010E9405177C0178
:1031B000009759F0A801BE010E94F118CE010E94AB
:1031C0009D17C70104C0CE0102C080E090E0CDB7DA
:1031D000DEB7EEE00C94E11581E090E0F8940C94F9
:1031E0002A19FB01DC0102C001900D9241505040B0
:1031F000D8F70895FB01DC0101900D920020E1F762
:103200000895FB01DC014150504048F001900D92BF
:103210000020C9F701C01D9241505040E0F70895C9
:10322000FB0151915523A9F0BF01DC014D914517D8
:103230004111E1F759F4CD010190002049F04D9181
:1032400040154111C9F3FB014111EFCF81E090E03E
:0832500001970895F894FFCFE7
:103258000000FD03200000000000B7027A03B80256
:103268007C032304000000009C0109013301E901EB
:10327800640142015601000000004503180375036C
:103288002D021003FC02ED02000000002E020901CD
:1032980075032D027E0296021502424E4F303535D7
:1032A800004F6F6F70732C206E6F20424E4F303579
:1032B800352031206465746563746564202E2E2E74
:1032C80020436865636B20796F757220776972692E
:1032D8006E67206F722049324320414444522100D6
:1032E8000D0A0043616C6962726174696E67002E31
:1032F800000A446F6E65210050726F6772616D201D
:103308007374617274656421002C000972696768BE
:10331800742073686F653A00097961773A2009006B
:103328000970697463683A20090009726F6C6C3A15
:10333800200900096C6566742073686F653A00009F
:00000001FF
