:100000000C9404020C942C020C942C020C94E40A20
:100010000C94E40A0C94E40A0C942C020C942C0228
:100020000C942C020C942C020C942C020C942C0298
:100030000C942C020C942C020C942C020C942C0288
:100040000C94B8110C942C020C94B20A0C948C0AE7
:100050000C942C020C942C020C942C020C942C0268
:100060000C945E0B0C942C028106840687068A068B
:100070008D069006B2069306960699069C069F0684
:10008000A206A506A806AB06AE06084AD73B3BCE9D
:10009000016E84BCBFFDC12F3D6C74319ABD568387
:1000A0003DDA3D00C77F11BED9E4BB4C3E916BAA3F
:1000B000AABE000000803F004E414E494E495459AF
:1000C000494E46CDCCCC3D0AD7233C17B7D1387723
:1000D000CC2B329595E6241FB14F0A000020410039
:1000E00000C84200401C4620BCBE4CCA1B0E5AAE83
:1000F000C59D7400407A10F35A00A0724E18090092
:1001000010A5D4E80000E87648170000E40B54027C
:100110000000CA9A3B000000E1F5050000809698B7
:1001200000000040420F000000A086010000001007
:100130002700000000E80300000000640000000049
:10014000000A00000000000100000000002C76D82A
:1001500088DC674F0823DFC1DFAE59E1B1B796E510
:10016000E3E453C63AE651997696E8E6C28426EB74
:10017000898C9B62ED407C6FFCEFBC9C9F40F2BA87
:10018000A56FA5F490055A2AF75C936B6CF9676D1F
:10019000C11BFCE0E40D47FEF520E6B500D0ED9074
:1001A0002E0300943577050080841E080000204E41
:1001B0000A000000C80C333333330F986E128311DA
:1001C00041EF8D2114893BE65516CFFEE6DB18D1B1
:1001D000844B381BF77C1D901DA4BBE42420328483
:1001E000725E228100C9F124ECA1E53D272D2D2D61
:1001F0002D2D2D2D2D2D2D2D2D2D2D2D2D2D2D2D2F
:100200002D2D2D2D2D2D2D2D2D2D2D2D2D2D2D2D1E
:100210002D0A005265736F6C7574696F6E3A2020F9
:1002200020004D61782056616C75653A20202020B1
:10023000004D696E2056616C75653A2020202000C3
:10024000556E697175652049443A2020202000448C
:100250007269766572205665723A20202000436FDD
:100260006C6F7220285247424129004375727265B3
:100270006E7420286D412900566F6C74616765208B
:10028000285629004F626A6563742054656D70209A
:1002900028432900416D6269656E742054656D7054
:1002A000202843290052656C617469766520487581
:1002B0006D69646974792028252900526F7461740E
:1002C000696F6E20766563746F72004C696E65614C
:1002D0007220416363656C65726174696F6E20287A
:1002E0006D2F733229004772617669747920286D09
:1002F0002F7332290044697374616E63652028632B
:100300006D2900507265737375726520286850619D
:1003100029004C6967687420286C75782900477932
:10032000726F73636F70696320287261642F732921
:10033000004F7269656E746174696F6E2028646520
:10034000677265657329004D61676E657469632026
:100350002875542900416363656C65726174696F27
:100360006E20286D2F73322900547970653A202051
:10037000202020202020200053656E736F723A20C9
:10038000202020202020002D2D2D2D2D2D2D2D2D18
:100390002D2D2D2D2D2D2D2D2D2D2D2D2D2D2D2D8D
:1003A0002D2D2D2D2D2D2D2D2D2D2D00000000005E
:1003B000240027002A0000000008000201000003BA
:1003C00004070000000000000000000000002300FF
:1003D0002600290000000000250028002B0004044E
:1003E00004040404040402020202020203030303DD
:1003F00003030102040810204080010204081020B9
:10040000010204081020D51A11241FBECFEFD8E036
:10041000DEBFCDBF24E0A6E7B2E001C01D92A33C41
:10042000B207E1F712E0A0E0B1E0E6E0FCE402C0D0
:1004300005900D92A637B107D9F712E0C4E0D2E0DB
:1004400004C02197FE010E94DD21C330D107C9F706
:100450000E9402120C9401260C940000089580E082
:1004600090E00895CF92DF92EF92FF920F931F9347
:10047000CF93DF937C01CB018A0120914603222395
:1004800089F0EB016B01C40ED51ECC15DD0569F0BA
:100490006991D701ED91FC910190F081E02DC701A8
:1004A0000995F3CF642F0E948C0CC801DF91CF9186
:1004B0001F910F91FF90EF90DF90CF900895CF9311
:1004C000DF931F92CDB7DEB76983209146032223C5
:1004D000D1F020916903203240F021E030E0FC01AE
:1004E0003383228380E090E015C080914703E82F9A
:1004F000F0E0E85BFC4F998190838F5F8093470326
:100500008093690305C061E0CE0101960E948C0CC6
:1005100081E090E00F90DF91CF9108950F931F93AA
:10052000CF93DF93EC018B0183E090E00E94DC230A
:10053000FC01118300831282998388838CB5837FA9
:100540008CBD8CB58F7D8CBD8CB58C7F81608CBD56
:100550008DB581608DBD1FB7F8948091B402811173
:1005600027C0E8EEF3E08491ECEFF3E09491E82FFC
:10057000F0E0EE0FFF1FE455FC4FA591B491EC9114
:10058000E92321F461E08AE00E94D60E61E08AE06E
:100590000E94230F8CB580618CBD8CB580648CBDAE
:1005A00061E08DE00E94230F61E08BE00E94230F49
:1005B0008091B4028F5F8093B4021FBF0990D881ED
:1005C000C02D61E088810E94230F61E088810E9434
:1005D000D60E60E088810E94D60E8A81811102C009
:1005E00060E001C061E088810E94D60E81E48EBD8A
:1005F00000000DB407FEFDCF8EB58FEF8EBD00005D
:100600000DB407FEFDCF8EB58A81811102C061E075
:1006100001C060E088810E94D60E61E08881DF9190
:10062000CF911F910F910C94D60ECF92DF92EF9243
:10063000FF929B01245F3F4FFB01C190D190E1905D
:10064000F190BF01FC01C192D192E192F192CF01F0
:100650006217730789F7FF90EF90DF90CF900895AE
:100660008091B2049091B3048C342FEF920714F46C
:1006700088599E4F2091B0043091B1042C344FEF33
:10068000340714F428593E4F889FB001899F700D9C
:10069000700D1124229FC001239F900D900D1124F5
:1006A000680F791F072E000C880B990B0E943620CB
:1006B0000C947E238F929F92AF92BF92CF92DF9243
:1006C000EF92FF926091B2047091B3046C348FEF9B
:1006D000780714F468597E4F072E000C880B990B8D
:1006E0000E9436206B017C016091B0047091B104CE
:1006F0006C348FEF780714F468597E4F072E000C86
:10070000880B990B0E9436204B015C0120E030E001
:10071000A9010E946B23181644F520E030E0A901DE
:10072000C701B6010E946B2387FD09C0A501940192
:10073000C701B6010E949C220E946D2256C020E093
:1007400030E0A901C701B6010E942F2087FF0DC02C
:10075000A5019401C701B6010E949C220E946D224E
:100760002BED3FE049EC50E415C020E030E0A9015A
:10077000C501B4010E942F2087FF0FC0A50194017D
:10078000C701B6010E949C220E946D222BED3FE022
:1007900049E450E40E94012228C020E030E0A90191
:1007A000C501B4010E942F2081111CC020E030E05F
:1007B000A901C701B6010E946B23181674F020E04E
:1007C00030E0A901C701B6010E942F2087FF0AC0AF
:1007D00064EE7BEC86E990E408C06BED7FE089EC89
:1007E0009FE303C060E070E0CB0120E030E044E331
:1007F00053E40E9495202BED3FE049E450E40E9431
:100800009C220E940E23CB01FF90EF90DF90CF90AF
:10081000BF90AF909F908F9008956F927F928F922C
:100820009F92AF92BF92CF92DF92EF92FF920F937F
:100830001F93CF93DF93CDB7DEB762970FB6F894CF
:10084000DEBF0FBECDBF7C01F701819191916F0199
:100850008E010F5F1F4F2CE0F80111922A95E9F7E6
:100860005E01FDE0AF0EB11C26E0F50111922A9564
:10087000E9F7A5016AE170E00E941A0D8F8498885B
:1008800069887A886D857E85072E000C880B990B08
:100890000E94362020E030E040E85DE30E94952091
:1008A00069837A838B839C83B401990C880B990BA1
:1008B0000E94362020E030E040E85DE30E94952071
:1008C0006D837E838F839887B301770C880B990B98
:1008D0000E94362020E030E040E85DE30E94952051
:1008E00069877A878B879C8798014701FEE08F0E86
:1008F000911CF90181919191A191B1919F01F60112
:1009000081939193A193B1936F01E815F90589F74C
:10091000F701808191812CE0F80111922A95E9F785
:1009200026E0F50111922A95E9F7A50168E270E049
:100930000E941A0DAF84B888C988DA886D857E85D3
:10094000072E000C880B990B0E94362020E030E027
:1009500048EC52E40E949C2269837A838B839C83B7
:10096000B501BB0C880B990B0E94362020E030E0CB
:1009700048EC52E40E949C226D837E838F8398878B
:10098000B601DD0C880B990B0E94362020E030E088
:1009900048EC52E40E949C2269877A878B879C8767
:1009A000FAE1EF0EF11CF80181919191A191B191C1
:1009B0008F01F40181939193A193B1934F01EE15AF
:1009C000FF0589F762960FB6F894DEBF0FBECDBF64
:1009D000DF91CF911F910F91FF90EF90DF90CF901B
:1009E000BF90AF909F908F907F906F9008958F925F
:1009F0009F92AF92BF92CF92DF92EF92FF920F93AE
:100A00001F93CF93DF93CDB7DEB762970FB6F894FD
:100A1000DEBF0FBECDBF8C01DC018D919D917D01AC
:100A2000FE0131966F012CE0DF011D922A95E9F756
:100A3000AE01435F5F4F26E0FA0111922A95E9F774
:100A40006AE170E00E941A0D8F849888A988BA889C
:100A50006D857E85072E000C880B990B0E94362031
:100A600020E030E040E85DE30E94952069837A83CE
:100A70008B839C83B401990C880B990B0E943620C0
:100A800020E030E040E85DE30E9495206D837E83A6
:100A90008F839887B501BB0C880B990B0E94362079
:100AA00020E030E040E85DE30E94952069877A8786
:100AB0008B879C87F601C8010E96419151916191F7
:100AC0007191D7014D935D936D937D937D01A8172F
:100AD000B90799F7F80182859385A485B585468184
:100AE000578160857185428F538F648F758F868F94
:100AF000978FA0A3B1A362960FB6F894DEBF0FBE86
:100B0000CDBFDF91CF911F910F91FF90EF90DF90BC
:100B1000CF90BF90AF909F908F900895EF92FF92EB
:100B20000F931F93CF93DF93CDB7DEB7A8970FB680
:100B3000F894DEBF0FBECDBF7C01DC010D911C918E
:100B400010924503109244031092470310926903D8
:100B50001092B00381E08093AF031092AA0361E08A
:100B600082E10E94D60E61E083E10E94D60E809160
:100B7000B9008E7F8093B9008091B9008D7F8093FA
:100B8000B90088E48093B80085E48093BC0086EBCC
:100B900098E09093B6028093B50287EB98E090932B
:100BA000B8028093B702C8010E94A80E803AD1F41F
:100BB000F8011386128640E06DE370E0C8010E94E0
:100BC0007E0E6EE170E080E090E00E94760F40E2E1
:100BD0006FE370E0C8010E947E0E6EE170E080E07D
:100BE00090E010C068EE73E080E090E00E94760F25
:100BF000C8010E94A80E803AD9F280E292E00E94D9
:100C0000C6107EC00E94760FC8010E94A80E803ACE
:100C100029F06AE070E080E090E0F4CF62E370E0F9
:100C200080E090E00E94760F40E06EE370E0C80143
:100C30000E947E0E6AE070E080E090E00E94760FF5
:100C400040E067E070E0C8010E947E0E40E06FE384
:100C500070E0C8010E947E0E6AE070E080E090E0E3
:100C60000E94760F8CE090E0D8011B969C938E93A7
:100C70001A974CE06DE370E0C8010E947E0E6EE1B1
:100C800070E080E090E00E94760F64E170E080E028
:100C900090E00E94760F64EF71E080E090E00E94A7
:100CA000760F64EF71E080E090E00E94760FF7012C
:100CB00080819181DC01ED91FC910084F185E02D32
:100CC000BE016F5F7F4F099587E893E00E94620D38
:100CD0000E943E1088E793E00E94620DCE010196CB
:100CE0000E94720E89E693E00E94620DED89FE89F2
:100CF0003197E131F105B0F5EC5CFF4F0C94DD214B
:100D0000FFCF85E593E02CC087E493E029C081E321
:100D100093E026C08EE193E023C082E193E020C0FF
:100D200083E093E01DC085EF92E01AC086EE92E06A
:100D300017C08BEC92E014C08BEB92E011C085EAF7
:100D400092E00EC084E992E00BC084E892E008C013
:100D500088E792E005C08BE692E002C08EE592E063
:100D60000E94620D0E943E108FE492E00E94620D8C
:100D70006D857E858F8598890E94460E80E492E07D
:100D80000E94620D69897A898B899C890E94460E2E
:100D900081E392E00E94620D6D8D7E8D8F8D98A112
:100DA0000E947D0D82E292E00E94620D698D7A8D33
:100DB0008B8D9C8D0E947D0D83E192E00E94620DDF
:100DC00069A17AA18BA19CA10E947D0D8DEE91E07D
:100DD0000E94620D0E943E10C7010E94F704A8966F
:100DE0000FB6F894DEBF0FBECDBFDF91CF911F913C
:100DF0000F91FF90EF900895CF92DF92EF92FF92C4
:100E00000F931F93CF93DF936C017A018B01C0E0A6
:100E1000D0E0CE15DF0581F0D8016D918D01D601AE
:100E2000ED91FC910190F081E02DC6010995892B8F
:100E300011F02196EECF7E01C701DF91CF911F9176
:100E40000F91FF90EF90DF90CF900895FC01538DAC
:100E5000448D252F30E0842F90E0821B930B541794
:100E600010F0CF96089501970895FC01918D828D21
:100E7000981761F0828DDF01A80FB11D5D968C91EE
:100E8000928D9F5F9F73928F90E008958FEF9FEFF9
:100E90000895FC01918D828D981731F0828DE80FB5
:100EA000F11D858D90E008958FEF9FEF0895FC016F
:100EB000918D228D892F90E0805C9F4F821B91093C
:100EC0008F739927089581EB93E00E94570721E0E3
:100ED000892B09F420E0822F0895FC01848DDF0125
:100EE000A80FB11DA35ABF4F2C91848D90E001969D
:100EF0008F739927848FA689B7892C93A089B1898C
:100F00008C91837080648C93938D848D981306C02C
:100F10000288F389E02D80818F7D80830895EF9290
:100F2000FF920F931F93CF93DF93EC0181E0888FA3
:100F30009B8D8C8D981305C0E889F989808185FD8A
:100F400026C0F62E0B8D10E00F5F1F4F0F73112779
:100F5000E02E8C8DE8120CC00FB607FCFACFE889A2
:100F6000F989808185FFF5CFCE010E946D07F1CF11
:100F70008B8DFE01E80FF11DE35AFF4FF0829FB702
:100F8000F8940B8FEA89FB89808180620AC09FB741
:100F9000F894EE89FF896083E889F98980818370FC
:100FA000806480839FBF81E090E0DF91CF911F91AB
:100FB0000F91FF90EF900895CF93DF93EC01888D10
:100FC0008823C9F0EA89FB89808185FD05C0A8894D
:100FD000B9898C9186FD0FC00FB607FCF5CF8081D3
:100FE00085FFF2CFA889B9898C9185FFEDCFCE011D
:100FF0000E946D07E7CFDF91CF91089580E090E0E8
:10100000892B29F00E94630781110C940000089538
:1010100020915C0430915D042817390771F4909198
:101020005A0480915B04981741F0E0915A04F0E073
:10103000E450FD4F808190E008958FEF9FEF089579
:1010400008951F93CF93DF93DC015C968D919C9163
:101050005D97009739F421E030E013963C932E938E
:1010600012973BC05196ED91FC91529750962C915E
:101070005097322F30951FB75E964C915E97742F24
:10108000727041FD6095F8944081772311F0422BF6
:1010900001C043234083EC012197F1F748E05081E0
:1010A00060FF02C0522B01C053235083EC012197F3
:1010B000F1F76695415099F78081772319F08323E2
:1010C000808302C0282B20831FBF5C968D919C914A
:1010D0005D970197F1F781E090E0DF91CF911F914B
:1010E000089520915C0430915D042817390771F44C
:1010F00080915B0420915A0490E0805C9F4F821B9A
:10110000910960E470E00E94A721089580E090E0DA
:10111000089520915C0430915D0428173907B9F4D3
:1011200090915A0480915B04981789F0E0915A04D9
:10113000F0E0E450FD4F808120915A0430E02F5FB1
:101140003F4F2F73332720935A0490E008958FEF79
:101150009FEF08950895089585ED8093BC008091D8
:10116000BC0084FDFCCF1092B0030895089508954B
:10117000E091450380914403E81730F4F0E0E6592C
:10118000FC4F808190E008958FEF9FEF089590913C
:10119000450380914403981750F4E92FF0E0E65995
:1011A000FC4F208130E09F5F9093450302C02FEFFA
:1011B0003FEFC90108958091440390E020914503D9
:1011C000821B910908950E94C3250F931F93CF930B
:1011D000DF93EC0188819981009729F02A813B8176
:1011E0002617370788F48B016F5F7F4F0E94FD241D
:1011F000009761F0998388831B830A832C813D814A
:10120000232B11F4FC01108281E001C080E0DF910A
:10121000CF911F910F9108950C9474248F929F92F7
:10122000AF92BF92CF92DF92EF92FF920F931F93F4
:10123000CF93DF93CDB7DEB762970FB6F894DEBFDA
:101240000FBECDBF7C018B0184E2DB011D928A952C
:10125000E9F784E290E0A0E0B0E0FB0180839183B5
:10126000A283B383F70186819781A085B185FB01B5
:1012700084839583A683B78383E090E0A0E0B0E009
:1012800080879187A287B3870E94B00FD8015096BC
:101290006D937D938D939C935397FE0131968CE0D3
:1012A000DF011D928A95E9F7AE01435F5F4F86E04B
:1012B000FA0111928A95E9F76AE170E0C7010E948C
:1012C0001A0D6D857E85072E000C880B990B0E94E8
:1012D000362020E030E040E85DE30E9495204B019D
:1012E0005C016F857889072E000C880B990B0E9492
:1012F000362020E030E040E85DE30E9495206B015D
:101300007C0169897A89072E000C880B990B0E9451
:10131000362020E030E040E85DE30E949520D801CF
:1013200054968D929D92AD92BC925797F801C08EC3
:10133000D18EE28EF38E5C966D937D938D939C930C
:101340005F9781E062960FB6F894DEBF0FBECDBF07
:10135000DF91CF911F910F91FF90EF90DF90CF9091
:10136000BF90AF909F908F9008950F931F93CF934E
:10137000DF938C01EB0188E2FB0111928A95E9F77A
:101380004BE050E06FE572E0CE010E94D8251B864D
:1013900081E090E0A0E0B0E08C879D87AE87BF87BA
:1013A000F80186819781A085B185888B998BAA8B5E
:1013B000BB8B83E090E0A0E0B0E08C8B9D8BAE8B8C
:1013C000BF8B1CA21DA21EA21FA2188E198E1A8EE0
:1013D0001B8E1C8E1D8E1E8E1F8E8AE097EDA3E243
:1013E000BCE388A399A3AAA3BBA3DF91CF911F91CC
:1013F0000F910895EF92FF920F931F93CF93DF9376
:101400006115710511F480E01CC041155105C1F052
:101410007B01EC018C819D818A01080F191FB801A5
:10142000CE010E94E508882371F3288139818C81DF
:101430009D81B701820F931F0E94D1251D830C83CC
:1014400081E0DF91CF911F910F91FF90EF90089570
:10145000CF93DF93EC0188819981009711F00E946E
:101460007424198218821D821C821B821A82DF91C9
:10147000CF910895EF92FF920F931F93CF93DF9335
:10148000EC017B018A01BA010E94E508811104C0C8
:10149000CE010E94280A07C01D830C83B7018881F2
:1014A00099810E94D125CE01DF91CF911F910F919B
:1014B000FF90EF900895CF93DF93EC0161157105D4
:1014C00059F0FB0101900020E9F73197AF01461B6D
:1014D000570B0E943A0A02C00E94280ACE01DF91EF
:1014E000CF910895FC01808191810C947424FC01BA
:1014F0001182108213821282158214826115710585
:1015000051F0FB0101900020E9F73197AF01461B34
:10151000570B0C943A0A08951F920F920FB60F9230
:1015200011242F933F934F935F936F937F938F93E8
:101530009F93AF93BF93EF93FF9381EB93E00E9450
:101540006D07FF91EF91BF91AF919F918F917F9127
:101550006F915F914F913F912F910F900FBE0F9020
:101560001F9018951F920F920FB60F9211242F9370
:101570008F939F93EF93FF93E091C103F091C20388
:101580008081E091C703F091C80382FD12C0908171
:101590008091CA038F5F8F732091CB03821751F024
:1015A000E091CA03F0E0EF54FC4F958F8093CA039B
:1015B00001C08081FF91EF919F918F912F910F90AA
:1015C0000FBE0F901F9018951F920F920FB60F929B
:1015D00011242F933F934F935F936F937F938F9338
:1015E0009F93AF93BF93EF93FF93E0915C04F091CF
:1015F0005D04309709F451C0968DA685B785858521
:1016000091FF04C09C91892329F447C09C918923B0
:1016100009F043C0A389B4899C9185898095892369
:101620008C93868997890197F1F7608D718DA685D6
:10163000B785558538E020E0CB010197F1F7822F7F
:1016400090E095958795282F4C91452309F02068C7
:10165000315091F7868D81FD209580915B0490E05B
:1016600001968F73992730915A04381749F0A09149
:101670005B04B0E0A450BD4F2C9380935B0403C087
:10168000868D8160868F828D938D0197F1F7A38976
:10169000B4899C918589892B8C93FF91EF91BF919F
:1016A000AF919F918F917F916F915F914F913F91FA
:1016B0002F910F900FBE0F901F9018951F920F92B1
:1016C0000FB60F9211242F933F934F935F936F9315
:1016D0007F938F939F93AF93BF93EF93FF938091EB
:1016E000B900887F803609F49CC068F5883209F417
:1016F0005BC090F4803109F454C038F4882309F4B5
:10170000F6C0883009F44DC0F6C0883109F44CC0E9
:10171000803209F45DC0EFC0803409F468C048F439
:10172000803309F455C0883309F0E5C08093AE03D7
:10173000D8C0803509F44FC0883509F45DC08834BD
:1017400009F0D9C0D6C0883909F4C7C0A8F48837D1
:1017500009F467C038F4883609F463C0803709F4A7
:1017600060C0C9C0883809F4B8C0803909F45FC0C6
:10177000803809F0C0C05BC0803B09F486C038F4F3
:10178000803A09F466C0883A09F47FC0B4C0803C4E
:1017900009F4A7C0883C09F4A4C0883B09F48AC0B6
:1017A000AAC08091AB0310C09091AD038091AC03AF
:1017B000981770F5E091AD0381E08E0F8093AD0333
:1017C000F0E0E657FC4F80818093BB0085EC86C03B
:1017D0008093AE038EC0E091AD0381E08E0F8093C5
:1017E000AD038091BB00F0E0E657FC4F8083909101
:1017F000AD038091AC036EC0E091AD0381E08E0F2C
:101800008093AD038091BB00F0E0E657FC4F8083EE
:101810008091AF0381116DC081E08093AA0384EAB7
:1018200061C083E08093B0031092FB02CFCF809120
:10183000FB02803208F051C0E091FB0281E08E0F84
:101840008093FB028091BB00F0E0E552FD4F808366
:10185000BDCF85EC8093BC001092B0038091FB0259
:10186000803230F4E091FB02F0E0E552FD4F10824F
:101870006091FB0270E0E091B702F091B8028BED4D
:1018800092E009951092FB0236C084E08093B00389
:101890001092DA021092D902E091B502F091B602EC
:1018A00009958091D902811105C081E08093D90208
:1018B0001092B902E091DA0281E08E0F8093DA0291
:1018C000F0E0E754FD4F80818093BB009091DA02F5
:1018D0008091D902981708F479CF85E88093BC00ED
:1018E0000AC085EC8093BC001092B00304C0109233
:1018F000AE030E94AC08FF91EF91BF91AF919F9111
:101900008F917F916F915F914F913F912F910F90A8
:101910000FBE0F901F9018954091D902262F30E0EE
:10192000240F311D21323105DCF42091B003243025
:10193000C9F4FC0180E090E0861758F43091D90298
:101940002191DC01A754BD4FA30FB11D2C9301962B
:10195000F3CF8091D902680F6093D90280E0089597
:1019600081E0089582E008953FB7F89480914003A4
:1019700090914103A0914203B091430326B5A89BE7
:1019800005C02F3F19F00196A11DB11D3FBFBA2F11
:10199000A92F982F8827820F911DA11DB11DBC0171
:1019A000CD0142E0660F771F881F991F4A95D1F736
:1019B00008958F929F92AF92BF920F931F93CF93F0
:1019C000DF93CDB7DEB7A1970FB6F894DEBF0FBE99
:1019D000CDBF19A2423008F44AE08E010F5D1F4FBF
:1019E000842E912CA12CB12CA50194010E94BB2125
:1019F000E62FB901CA0101501109EA3014F4E05D83
:101A000001C0E95CD801EC93232B242B252B61F733
:101A1000C8010E942C10A1960FB6F894DEBF0FBE2D
:101A2000CDBFDF91CF911F910F91BF90AF909F904D
:101A30008F900895EF92FF920F931F93CF93DF93B0
:101A40008C017A01DC0113968C91139791E09093AD
:101A5000460380936803109247031092690314961B
:101A60008D919C911597DC01ED91FC910190F08195
:101A7000E02D099581E00E94241166E0F801838140
:101A80000E94E2101092450380934403E701F6E0C0
:101A9000EF0EF11CD80114968D919C911597DC01E5
:101AA000ED91FC910284F385E02D09958993EC1664
:101AB000FD0681F781E0DF91CF911F910F91FF909B
:101AC000EF9008950F931F93CF93DF938C01C0E0A5
:101AD000D0E0F801EC0FFD1F6491662341F081EB2B
:101AE00093E00E948F07892B11F02196F2CFCE014F
:101AF000DF91CF911F910F9108954F925F926F9256
:101B00007F928F929F92AF92BF92CF92DF92EF928D
:101B1000FF926B017C019B01AC010E94C2238823D0
:101B200019F086E692E01AC046015701E894B7F82A
:101B30002FEF3FEF4FE75FE7C501B4010E94C223DB
:101B4000811110C02FEF3FEF4FE75FE7C501B401F0
:101B50000E942F20181634F48AE692E00E942C107E
:101B60007C0183C02FEF3FEF4FE75FE4C701B60171
:101B70000E946B2318161CF48EE692E0EFCF2FEF35
:101B80003FEF4FE75FECC701B6010E942F2087FDB2
:101B9000F3CF20E030E0A901C701B6010E942F2059
:101BA00087FF0BC06DE281EB93E00E948F075C0121
:101BB000F7FAF094F7F8F09402C0A12CB12C2AE0C7
:101BC00037ED43EA5BE3C701B6010E9401222B0116
:101BD0003C010E9415236B017C010E9434209B0173
:101BE000AC01C301B2010E9400222B013C014AE07A
:101BF000C701B6010E94D90C7C01EA0CFB1C6EE205
:101C000081EB93E00E948F07E80EF91E20E030E0A0
:101C100040E251E4C301B2010E9495202B013C0136
:101C20000E9415234B01A12CB12C4AE0C501B4013F
:101C30000E94D90CE80EF91EC501B4010E9434209F
:101C40009B01AC01C301B2010E94002220E030E000
:101C500040E251E40E9495200E94152380E090E02C
:101C60004AE00E94D90CE80EF91E0E943E108E0D2B
:101C70009F1DFF90EF90DF90CF90BF90AF909F900F
:101C80008F907F906F905F904F900895CF92DF92EA
:101C9000EF92FF92CF93DF936B017C0197FF13C00C
:101CA0006DE281EB93E00E948F07EC0166277727B6
:101CB000CB016C197D098E099F094AE00E94D90C5D
:101CC000C80FD91F04C04AE00E94D90CEC010E9441
:101CD0003E108C0F9D1FDF91CF91FF90EF90DF9012
:101CE000CF900895CF93DF930E942C10EC010E94B7
:101CF0003E108C0F9D1FDF91CF9108951F93CF93BE
:101D0000DF93EC01142F8B8191E090934603809335
:101D1000680310924703109269038C819D81DC0156
:101D2000ED91FC910190F081E02D09958C819D81D0
:101D3000DC01ED91FC910190F081E02D612F09957E
:101D400081E00E94241181E0DF91CF911F910895DD
:101D5000CF93DF93EC018B8191E0909346038093C6
:101D6000680310924703109269038C819D81DC0106
:101D7000ED91FC910190F081E02D60E0099581E00A
:101D80000E94241161E08B810E94E21010924503B1
:101D9000809344038C819D81DC01ED91FC91028450
:101DA000F385E02D0995DF91CF91089590E0FC0136
:101DB000EA54FC4F2491FC01EE50FC4F3491FC019D
:101DC000E252FC4FE491EE2309F43CC0222339F1A6
:101DD000233091F038F42130A9F0223001F584B598
:101DE0008F7D12C0273091F02830A1F02430B9F453
:101DF000809180008F7D03C0809180008F778093D9
:101E000080000DC084B58F7784BD09C08091B0007B
:101E10008F7703C08091B0008F7D8093B000F0E099
:101E2000EE0FFF1FEC52FC4FA591B4919FB7F894B1
:101E3000611104C08C913095382302C0EC913E2B87
:101E40003C939FBF0895CF93DF9390E0FC01EE5049
:101E5000FC4F2491FC01E252FC4F8491882361F1F4
:101E600090E0880F991FFC01E455FC4FC591D49177
:101E7000FC01EC52FC4FA591B491611109C09FB7D0
:101E8000F8948881209582238883EC912E230BC0BF
:101E9000623061F49FB7F8948881322F30958323A4
:101EA0008883EC912E2B2C939FBF06C08FB7F8949C
:101EB000E8812E2B28838FBFDF91CF9108958E303C
:101EC00008F08E508770806480937C0080917A0047
:101ED000806480937A0080917A0086FDFCCF8091A7
:101EE00078002091790090E0922B08958F929F9234
:101EF000AF92BF92CF92DF92EF92FF926B017C0183
:101F00000E94B40C4B015C01C114D104E104F10442
:101F1000F1F00E94B40CDC01CB0188199909AA09DF
:101F2000BB09883E9340A105B10570F321E0C21AB8
:101F3000D108E108F10888EE880E83E0981EA11C04
:101F4000B11CC114D104E104F10419F7DDCFFF90F5
:101F5000EF90DF90CF90BF90AF909F908F900895BB
:101F60002FB7F89460913C0370913D0380913E033C
:101F700090913F032FBF0895CF93DF93FC012481FD
:101F80003581232B71F0FB01DC01CD91DC91608167
:101F90007181CE010E94E725009719F08C1B9D0BE3
:101FA00002C08FEF9FEFDF91CF910895CF93DF9322
:101FB000FC014481558141155105D9F06115710528
:101FC000C1F09A016417750708F49B01EC01888140
:101FD0009981421B530B5D834C83BC01620F731FBD
:101FE0000E94D825E881F9818C819D81E80FF91F35
:101FF0001082DF91CF9108950F931F93CF93DF93BA
:10200000EC010E94B00F688779878A879B87E881F7
:10201000F9810284F385E02DCE01099597FF17C061
:102020000E94B00F088519852A853B85DC01CB010C
:10203000801B910BA20BB30B0C811D812E813F8164
:1020400080179107A207B30710F38FEF9FEFDF917F
:10205000CF911F910F910895009769F0FC010190B5
:102060000020E9F73197AF01481B590BBC0181EB08
:1020700093E00C94FC0680E090E0089582E792E003
:102080000C942C10FC01448155816081718181EB9D
:1020900093E00C94FC06CF93DF930E944210EC0176
:1020A0000E943E108C0F9D1FDF91CF910895CF931A
:1020B000DF93EC01FB0144815581608171810E94B5
:1020C000FA09811103C0CE010E94280ACE01DF91D6
:1020D000CF910895EF92FF920F931F93CF93DF93C9
:1020E000CDB7DEB7A1970FB6F894DEBF0FBECDBF58
:1020F0007C01CB01BA01F701118210821382128296
:10210000158214828E010F5F1F4F22E044E00E946F
:10211000F91BBC01C7010E945B0AA1960FB6F89497
:10212000DEBF0FBECDBFDF91CF911F910F91FF900A
:10213000EF9008950F931F93CF93DF93CDB7DEB742
:1021400062970FB6F894DEBF0FBECDBF8C01CB01F6
:10215000F8011182108213821282158214824AE0E1
:10216000BE016F5F7F4F0E94441CBE016F5F7F4FB7
:10217000C8010E945B0A62960FB6F894DEBF0FBEDC
:10218000CDBFDF91CF911F910F9108950C942C102A
:10219000FB01DC0111961C921E9213961C921E925A
:1021A000129715961C921E9214978617970749F05E
:1021B000608171816115710521F0448155810C9414
:1021C0003A0A08959091B0039111FCCF91E0909359
:1021D000B0039093AF032FEF2093AE031092AD03A3
:1021E000260F2093AC039093AB039091AB03880F21
:1021F000892B8093AB038091AA03813061F4109204
:10220000AA038091AB038093BB008091BC0083FD47
:10221000F8CF85EC01C085EE8093BC008091B003BF
:102220008130E1F38091AD03861710F46091AD0326
:10223000AAE8B3E0EAE6F3E080E0861721F09D919A
:1022400091938F5FFACF0895282F3091690331322F
:1022500008F04AC08091B0038111FCCF90916803CF
:1022600042E04093B0032093AF032FEF2093AE03DF
:102270001092AD033093AC03E8E4F3E0AAE8B3E0D6
:1022800020E0321721F041914D932F5FFACF109249
:10229000AB032091AB03990F922B9093AB039091DA
:1022A000AA03913061F41092AA039091AB0390932A
:1022B000BB009091BC0093FDF8CF95EC01C095EE6A
:1022C0009093BC009091B0039230E1F39091AE03F3
:1022D0009F3F79F08091AE03803241F08091AE0350
:1022E000803331F084E005C081E003C082E001C0AA
:1022F00083E01092470310926903109246030895F9
:10230000CF92DF92EF92FF920F931F93CF93DF93C1
:102310007C018B016A0165EC71E00E94770AD801AB
:1023200014968D919C9115970097C1F0E6018C153C
:102330009D0508F4EC01D801ED91FC911197EC0F8B
:10234000FD1FD08010826D917C91C7010E945B0AB5
:10235000F80180819181C80FD91FD882C701DF9110
:10236000CF911F910F91FF90EF90DF90CF90089544
:102370001F920F920FB60F9211242F933F938F93BA
:102380009F93AF93BF9380913C0390913D03A091A5
:102390003E03B0913F033091BC0423E0230F2D375F
:1023A00020F40196A11DB11D05C026E8230F029659
:1023B000A11DB11D2093BC0480933C0390933D0369
:1023C000A0933E03B0933F0380914003909141035B
:1023D000A0914203B09143030196A11DB11D8093CA
:1023E000400390934103A0934203B0934303BF91F2
:1023F000AF919F918F913F912F910F900FBE0F90B2
:102400001F901895CF93DF93CDB7DEB7C855D1098C
:102410000FB6F894DEBF0FBECDBF789484B582604E
:1024200084BD84B5816084BD85B5826085BD85B578
:10243000816085BD80916E00816080936E001092F6
:102440008100809181008260809381008091810071
:102450008160809381008091800081608093800002
:102460008091B10084608093B1008091B000816060
:102470008093B00080917A00846080937A0080918C
:102480007A00826080937A0080917A0081608093E4
:102490007A0080917A00806880937A001092C1005F
:1024A000E091C103F091C20382E08083E091BD031B
:1024B000F091BE031082E091BF03F091C00310823F
:1024C0001092C903E091C503F091C60386E08083B2
:1024D000E091C303F091C403808180618083E09127
:1024E000C303F091C403808188608083E091C303BB
:1024F000F091C403808180688083E091C303F091F0
:10250000C40380818F7D808368EE73E080E090E07B
:102510000E94760F61E084E00E94230F61E087E073
:102520000E94230F66E070E084E892E00E948E0231
:1025300065E070E086E792E00E948E0264E270E05F
:10254000709387026093860223EF30E03093890214
:10255000209388028FE790E090938B0280938A0209
:102560004AE050E050938D0240938C0230938F02EA
:1025700020938E029093910280939002709379023F
:102580006093780230937B0220937A0290937D02CD
:1025900080937C0250937F0240937E0230938102AD
:1025A0002093800290938302809382028CE894E0CF
:1025B0000E948E058AE694E00E948E0588E591E0EF
:1025C0000E94720E0E94B00F6B017C010E94B00F3E
:1025D000DC01CB018C199D09AE09BF09883B9B40EA
:1025E000A105B10598F48AE694E00E94F7048CE80E
:1025F00094E00E94F70484E691E00E94C61062E332
:1026000070E080E090E00E94760FE0CF86E691E0F7
:102610000E94720E8DE691E00E94720E6AE974E0EB
:102620009E012F5F3F4F4901C9010E9415036AE9CE
:1026300074E0C4010E9415036AE974E0C4010E94B9
:10264000150383E0282E312C92E0692E712C44244E
:102650004394512C0E94B00F7B018C0120E030E0AC
:10266000A90162966FAF62976396FFAE6397649617
:102670000FAF649765961FAF659766962FAF669705
:1026800067963FAF679768964FAF689769965FAF59
:102690006997A090AC02B090AD02C090AE02D0900D
:1026A000AF02E090B002F090B1020091B20210913E
:1026B000B30262962FAD629763963FAD63976496BF
:1026C0004FAD649765965FAD659760E070E080E020
:1026D00090E00E94E32109F00CF428C70E94B00F9B
:1026E000DC01CB018196A11DB11D8C019D01809360
:1026F000AC021093AD022093AE023093AF02109261
:10270000B0021092B1021092B2021092B302809104
:10271000AE049091AF04DC01ED91FC910084F18551
:10272000E02D0995892B09F424C10091AE04109184
:10273000AF0465EC71E0CE01855B9F4F0E94770A84
:10274000C8010E94FC0F97FD0EC08A30910559F018
:1027500089831A8241E050E0B401CE01855B9F4F2E
:102760000E94FA09EDCF61968EAD9FAD61970497F7
:1027700008F4FAC06EE771E0C4010E94770AB40160
:10278000CE01855B9F4F0E94BC0FAC01BE01655B13
:102790007F4FCE018B5B9F4F0E94801127968EAD9D
:1027A0009FAD2797009719F00E941D1C03C060E0A1
:1027B00070E0CB017093B3046093B204CE018B5BE5
:1027C0009F4F0E94720AC4010E94720A6EE771E074
:1027D000C4010E94770AB401CE01855B9F4F0E941D
:1027E000BC0FBC016F5F7F4FCE01855B9F4F0E9486
:1027F000D60FC4010E94720A6EE771E0C4010E9404
:10280000770AB401CE01855B9F4F0E94BC0FAC01DB
:10281000BE01655B7F4FCE018B5B9F4F0E94801195
:1028200027968EAD9FAD2797009719F00E941D1C2B
:1028300003C060E070E0CB017093B1046093B0041A
:10284000CE018B5B9F4F0E94720AC4010E94720AE4
:102850006EE771E0C4010E94770AB401CE01855B86
:102860009F4F0E94BC0FBC016F5F7F4FCE01855B05
:102870009F4F0E94D60FC4010E94720A6EE771E05A
:10288000C4010E94770AB401CE01855B9F4F0E946C
:10289000BC0FAC01BE01655B7F4FCE018B5B9F4FD0
:1028A0000E94801127968EAD9FAD2797009719F053
:1028B0000E94191C03C060E070E0CB016093B40477
:1028C0007093B5048093B6049093B704CE018B5BEC
:1028D0009F4F0E94720AC4010E94720A6EE771E063
:1028E000C4010E94770AB401CE01855B9F4F0E940C
:1028F000BC0FBC016F5F7F4FCE01855B9F4F0E9475
:10290000D60FC4010E94720A6EE771E0C4010E94F2
:10291000770AB401CE01855B9F4F0E94BC0FAC01CA
:10292000BE01655B7F4FCE018B5B9F4F0E94801184
:1029300027968EAD9FAD2797009719F00E94191C1E
:1029400003C060E070E0CB016093B8047093B904F9
:102950008093BA049093BB04CE018B5B9F4F0E947F
:10296000720AC4010E94720ACE01855B9F4F0E94C9
:10297000720A8CE894E00E940D048AE694E00E94BA
:102980000D04809167040E945F0F90936904809307
:102990006804809164040E945F0F909366048093A2
:1029A0006504809161040E945F0F9093630480939B
:1029B000620480915E040E945F0F90936004809394
:1029C0005F048091AA029091AB028230910509F4D4
:1029D0002BC18330910509F450C2019709F0DDC283
:1029E00080E891E00E94C6106AE974E0C4010E9488
:1029F000150349815A816B817C81CE018B5B9F4F8E
:102A00000E946A1067E871E0CE01855B9F4F0E94CB
:102A1000770ABE016B5B7F4FCE01855B9F4F0E94A3
:102A200057100E944210CE01855B9F4F0E94720A90
:102A3000CE018B5B9F4F0E94720A6AE974E0C40169
:102A40000E9415034D815E816F817885CE018B5B7D
:102A50009F4F0E946A106CE871E0CE01855B9F4F2A
:102A60000E94770ABE016B5B7F4FCE01855B9F4F53
:102A70000E9457100E944210CE01855B9F4F0E941A
:102A8000720ACE018B5B9F4F0E94720A6AE974E062
:102A9000C4010E94150349855A856B857C85CE014A
:102AA0008B5B9F4F0E946A1061E971E0CE01855BEC
:102AB0009F4F0E94770ABE016B5B7F4FCE01855B03
:102AC0009F4F0E9457100E944210CE01855B9F4F7E
:102AD0000E94720ACE018B5B9F4F0E94720A409146
:102AE0008E0450918F046091900470919104C40100
:102AF0000E946A1066E971E0CE018B5B9F4F0E94D5
:102B0000770AB401CE018B5B9F4F0E9457100E9441
:102B10004210CE018B5B9F4F0E94720AC4010E943B
:102B2000720A2091AA043091AB044091AC045091F8
:102B3000AD046091960470919704809198049091EF
:102B400099040E940022AB01BC01C4010E946A10DA
:102B50006AE971E0CE018B5B9F4F0E94770AB40156
:102B6000CE018B5B9F4F0E9457100E944210CE01F6
:102B70008B5B9F4F0E94720AC4010E94720A2091CF
:102B8000A6043091A7044091A8045091A904609133
:102B900092047091930480919404909195040E9402
:102BA0000022AB01BC01C4010E946A106EE971E011
:102BB000CE018B5B9F4F0E94770AB401CE018B5BE5
:102BC0009F4F0E9457100E944210CE018B5B9F4F77
:102BD0000E94720AC4010E94720A82EA91E00E9475
:102BE000C6106091680470916904C4010E949A1033
:102BF0006BEA71E0CE018B5B9F4F0E94770AB401B4
:102C0000CE018B5B9F4F0E9457100E944210CE0155
:102C10008B5B9F4F0E94720AC4010E94720A6091EE
:102C200065047091660423C183EB91E00E94C61095
:102C300068E774E0C4010E94150349815A816B81E1
:102C40007C81CE018B5B9F4F0E946A1067E871E028
:102C5000CE01855B9F4F0E94770ABE016B5B7F4F61
:102C6000CE01855B9F4F0E9457100E944210CE01FB
:102C7000855B9F4F0E94720ACE018B5B9F4F0E9423
:102C8000720A68E774E0C4010E9415034D815E81F9
:102C90006F817885CE018B5B9F4F0E946A106CE834
:102CA00071E0CE01855B9F4F0E94770ABE016B5B8E
:102CB0007F4FCE01855B9F4F0E9457100E944210AC
:102CC000CE01855B9F4F0E94720ACE018B5B9F4FA6
:102CD0000E94720A68E774E0C4010E9415034985E6
:102CE0005A856B857C85CE018B5B9F4F0E946A1055
:102CF00061E971E0CE01855B9F4F0E94770ABE01BA
:102D00006B5B7F4FCE01855B9F4F0E9457100E94E7
:102D10004210CE01855B9F4F0E94720ACE018B5BF1
:102D20009F4F0E94720A40916C0450916D04609113
:102D30006E0470916F04C4010E946A1066E971E02C
:102D4000CE018B5B9F4F0E94770AB401CE018B5B53
:102D50009F4F0E9457100E944210CE018B5B9F4FE5
:102D60000E94720AC4010E94720A20918804309164
:102D7000890440918A0450918B046091740470918D
:102D8000750480917604909177040E940022AB0133
:102D9000BC01C4010E946A106AE971E0CE018B5B3C
:102DA0009F4F0E94770AB401CE018B5B9F4F0E9418
:102DB00057100E944210CE018B5B9F4F0E94720AF7
:102DC000C4010E94720A20918404309185044091CC
:102DD0008604509187046091700470917104809111
:102DE0007204909173040E940022AB01BC01C401E3
:102DF0000E946A106EE971E0CE018B5B9F4F0E94CA
:102E0000770AB401CE018B5B9F4F0E9457100E943E
:102E10004210CE018B5B9F4F0E94720AC4010E9438
:102E2000720A82EA91E00E94C61060916204709179
:102E30006304C4010E949A106BEA71E0CE018B5BBF
:102E40009F4F0E94770AB401CE018B5B9F4F0E9477
:102E500057100E944210CE018B5B9F4F0E94720A56
:102E6000C4010E94720A60915F0470916004C40101
:102E70000E949A106FEA71E07BC08AEB91E00E9499
:102E8000C6106091B2047091B3046C34BFEF7B073D
:102E900014F468597E4FC4010E949A106EE971E0E3
:102EA000CE018B5B9F4F0E94770AB401CE018B5BF2
:102EB0009F4F0E9457100E944210CE018B5B9F4F84
:102EC0000E94720AC4010E94720A6091B00470915B
:102ED000B1046C340FEF700714F468597E4FC401CD
:102EE0000E949A106AE971E0CE018B5B9F4F0E94AD
:102EF000770AB401CE018B5B9F4F0E9457100E944E
:102F00004210CE018B5B9F4F0E94720AC4010E9447
:102F1000720A4091B4045091B5046091B604709166
:102F2000B704C4010E946A1061EC71E0CE018B5BB2
:102F30009F4F0E94770AB401CE018B5B9F4F0E9486
:102F400057100E944210CE018B5B9F4F0E94720A65
:102F5000C4010E94720A4091B8045091B904609172
:102F6000BA047091BB04C4010E946A1066EC71E05F
:102F7000CE018B5B9F4F0E94770AB401CE018B5B21
:102F80009F4F0E9457100E944B10CE018B5B9F4FAA
:102F90000E94720AC4010E94720A81EB93E00E94AF
:102FA00057071816190644F581EB93E00E94350780
:102FB000823729F45092AB024092AA021DC08C368F
:102FC00029F47092AB026092AA0216C0833629F4EB
:102FD0003092AB022092AA020FC08D3639F424E061
:102FE00030E03093AB022093AA0206C08E3621F463
:102FF0001092AB021092AA028091AA029091AB02A9
:10300000049709F093C28CEC91E00E94C6100E94D4
:10301000300320E030E040EA50E40E946B231816B1
:103020002CF083ED91E00E94C6108CC00E945A03E0
:103030009C012E5231092E30314018F080E092E090
:1030400006C0823E91050CF474C28AE092E00E94B0
:10305000C6100E945A038C0164EC71E0CE018B5BB8
:103060009F4F0E94770ABE016B5B7F4FCE01855B4D
:103070009F4F0E94C8104AE0B401C8010E94441C3E
:10308000F40101900020E9F73197AF01481959097F
:10309000B401CE01855B9F4F0E94FA09811105C0E2
:1030A000CE01855B9F4F0E94280ACE01855B9F4F12
:1030B0000E944210CE01855B9F4F0E94720ACE0192
:1030C0008B5B9F4F0E94720A0E9430036B017C0150
:1030D00064EC71E0CE018B5B9F4F0E94770ABE01CA
:1030E0006B5B7F4FCE01855B9F4F0E94C8108401B0
:1030F00022E044E0C701B6010E94F91BFC010190E7
:103100000020E9F73197AF01481B590BBC01CE01F4
:10311000855B9F4F0E94FA09811105C0CE01855B36
:103120009F4F0E94280ACE01855B9F4F0E9442104C
:10313000CE01855B9F4F0E94720ACE018B5B9F4F31
:103140000E94720A8EED91E00E94C6102091AA049E
:103150003091AB044091AC045091AD046091960461
:103160007091970480919804909199040E94002294
:1031700090580E940E237093A9026093A8026A30AF
:1031800071050CF44DC08091A4029091A502A0910C
:10319000A602B091A7028196A11DB11D8093A40241
:1031A0009093A502A093A602B093A7026AE974E0E7
:1031B000C4010E94150320E030E0A90169857A85E9
:1031C0008B859C850E946B236AE974E018164CF489
:1031D000CE018D960E9415032DA93EA94FA958AD89
:1031E0000DC0CE01C9960E94150325968CAD9DADEC
:1031F000AEADBFAD25979C01AD0150586091A002C6
:103200007091A1028091A2029091A3020E940122DA
:103210006093A0027093A1028093A2029093A302F4
:103220008091A8029091A9028A309105BCF4209166
:103230009E0230919F022A30310584F01092A00244
:103240001092A1021092A2021092A3021092A40264
:103250001092A5021092A6021092A70290939F02CC
:1032600080939E026091A4027091A5028091A602B3
:103270009091A7021616170618061906F4F50E9473
:10328000362020E030E044E052E40E949C229B0182
:10329000AC016091A0027091A1028091A202909174
:1032A000A3020E949C22AB01BC01CE01855B9F4F13
:1032B0000E946A1064EC71E0C4010E94770AB401B4
:1032C000CE018B5B9F4F0E94C810BE01655B7F4F94
:1032D000CE018B5B9F4F0E9457100E944210CE017F
:1032E0008B5B9F4F0E94720AC4010E94720ACE013A
:1032F000855B9F4F0E94720A04C086EE91E00E9497
:10330000C6108FEE91E00E94C61020918804309183
:10331000890440918A0450918B04609174047091E7
:10332000750480917604909177040E940022905851
:103330000E940E2370939D0260939C026A30710577
:103340000CF44BC08091980290919902A0919A023E
:10335000B0919B028196A11DB11D8093980290931C
:103360009902A0939A02B0939B0268E774E0C401AB
:103370000E94150320E030E0A90169857A858B85DC
:103380009C850E946B2368E774E018164CF4CE010C
:1033900045960E9415032D8D3E8D4F8D58A10BC073
:1033A000CE0181960E94150389A59AA5ABA5BCA55F
:1033B0009C01AD01505860919402709195028091EA
:1033C0009602909197020E9401226093940270935A
:1033D0009502809396029093970280919C0290911F
:1033E0009D028A309105BCF42091920230919302A3
:1033F0002A30310584F010929402109295021092B6
:1034000096021092970210929802109299021092CE
:103410009A0210929B029093930280939202609181
:1034200098027091990280919A0290919B021616CF
:10343000170618061906F4F50E94362020E030E041
:1034400044E052E40E949C229B01AC0160919402F2
:103450007091950280919602909197020E949C2211
:10346000AB01BC01CE01855B9F4F0E946A1064ECEA
:1034700071E0C4010E94770AB401CE018B5B9F4FBB
:103480000E94C810BE01655B7F4FCE018B5B9F4FD2
:103490000E9457100E944210CE018B5B9F4F0E94EA
:1034A000720AC4010E94720ACE01855B9F4F0E947E
:1034B000720A04C086EE91E00E94C61080916804F2
:1034C00090916904893C91057CF186EF91E00E941E
:1034D000C6106091680470916904CE01855B9F4FAE
:1034E0000E949A1064EC71E0C4010E94770AB40152
:1034F000CE018B5B9F4F0E94C810BE01655B7F4F62
:10350000CE018B5B9F4F0E9457100E944210CE014C
:103510008B5B9F4F0E94720AC4010E94720ACE0107
:10352000855B9F4F0E94720A0E943E100E94FE0718
:1035300091C8883891051CF080E192E088CD89E13E
:1035400092E085CDFF920F931F93CF93DF93EC0111
:103550008B01F42EFC0132968CE0DF01982F1D9236
:103560009A95E9F73C96DF011D928A95E9F78CE080
:1035700090E00E94DC23FC0188E191E0918380834C
:10358000C801110FAA0BBB0B86839783A087B18755
:10359000F3828EE494E095838483F983E883DF915A
:1035A000CF911F910F91FF900895CF92DF92EF92EC
:1035B000FF92CF93DF931092B4031092B30398EE6F
:1035C000C92E93E0D92EE12CF12CC092B503D092F4
:1035D000B603E092B703F092B80386E291E09093CD
:1035E000B2038093B10385EC90E09093BE03809387
:1035F000BD0384EC90E09093C0038093BF0380EC04
:1036000090E09093C2038093C10381EC90E090938B
:10361000C4038093C30382EC90E09093C60380932D
:10362000C50386EC90E09093C8038093C703109283
:10363000CA031092CB031092CC031092CD031092C8
:10364000510410925004C0925204D0925304E0925C
:103650005404F092550488E391E090934F048093D2
:103660004E048FE190E00E94DC23EC011B821A8261
:10367000CC82DD82EE82FF828AE491E099838883A6
:103680001F8A1E8A198E188E1B8E1A8E1D8E1C8EF6
:103690006E8D6E7F6D7F6E8F6695617081E068279D
:1036A00082E00E94D60E61E082E00E94230FE4EFE8
:1036B000F3E0E491E88BE0EEF3E0E491F0E0EE0F6C
:1036C000FF1FEC52FC4F859194919A8B898B60E09F
:1036D00083E00E94230F8E8D81FD04C061E083E0B2
:1036E0000E94D60E83E08C87E5EFF3E0E491ED874E
:1036F000E1EEF3E0E491F0E0EE0FFF1FE653FC4F44
:10370000859194919F878E87D093AF04C093AE0428
:103710008DE991E09D8F8C8F2DEB30E03F8B2E8BD0
:103720002BE931E0398F288F2CE231E03B8F2A8F53
:10373000209168002460209368002DE630E03C8BE7
:103740002B8B28E02D8B0197F1F7E0915C04F09131
:103750005D04CE17DF07D1F0309739F0A389B48923
:103760009C918589809589238C938E8D8E7F8E8FF9
:1037700010925B0410925A04D0935D04C0935C04D1
:10378000EB89FC8990818D89892B808349E250E007
:1037900061E070E08CE894E00E94A21A48E250E0F8
:1037A00062E070E08AE694E00E94A21A1092690436
:1037B0001092680481E1809367041092660410926D
:1037C00065048FE080936404109263041092620495
:1037D00080E1809361041092600410925F048EE097
:1037E00080935E04DF91CF91FF90EF90DF90CF90B8
:1037F0000895EF920F931F93CF93DF93E80147FD56
:1038000002C034E001C034E1042E000C550B57FF18
:1038100003C0519541955109E32E022F242FAE018B
:103820000E947E1CCE01DF91CF911F910F91EF90EE
:103830000895662777270C94D81D1F93FC019927BC
:103840008827BC01E89411911032E9F3193010F087
:103850001E30C8F31B3251F01D3249F4689406C083
:103860000E944F1C610F711D811D911D11911053FC
:103870001A30B0F33EF490958095709561957F4F26
:103880008F4F9F4F1F910895BB274A3031F49923E2
:1038900022F4BDE2909581959F4F0C94651C592FA1
:1038A000482F372F262F660F771F881F991F660F07
:1038B000771F881F991F620F731F841F951F660F44
:1038C000771F881F991F0895BB27FB015527AA273B
:1038D000880F991FAA1FA41710F0A41B839550519D
:1038E000B9F7A05DAA3308F0A95DA193009779F715
:1038F000B111B1931192CB010C941F20A9E0B0E05B
:10390000E4E8FCE10C9467216A01122FB02E2BE34E
:10391000201720F0FF24F394F00E02C02CE3F22EC7
:103920000F2D27E0AE014F5F5F4F0E94261FBC01A5
:103930004981842F8970813031F0E1FC06C0E0FEBE
:1039400006C090E205C09DE203C09BE201C090E08A
:103950005E2D507143FF3CC0911102C083E001C055
:1039600084E0811718F4212F281B01C020E0511199
:103970000BC0F601822F30E2882319F03193815079
:10398000FBCFC20ED11C20E0992329F0D6019C93D5
:10399000F60131966F01C6010396E2FE0AC03EE4CD
:1039A000D6013C9341E411964C93119712963C93A7
:1039B00006C03EE6F601308341E641833283FC01D6
:1039C000322F40E2332309F442C041933150FACF01
:1039D00042FF44C0911102C083E001C084E081171E
:1039E00018F4212F281B01C020E051110BC0F60153
:1039F000822F30E2882319F031938150FBCFC20E21
:103A0000D11C20E0992329F0D6019C93F601319630
:103A10006F01C6010396E2FE0BC039E4D6013C9368
:103A20003EE411963C93119736E412963C9307C0FE
:103A300039E6F60130833EE6318336E63283FC0117
:103A4000322F40E2332319F041933150FBCFFC0178
:103A5000E20FF11D10828EEF9FEFA6C021E030E053
:103A6000911102C020E030E0161617061CF4FB018D
:103A7000319602C0E1E0F0E02E0F3F1FBB2021F0A5
:103A8000EB2DF0E0319602C0E0E0F0E02E0F3F1F9A
:103A9000E12FF0E02E173F071CF4121B212F01C06D
:103AA00020E08E2D887159F4F601822F30E28823B0
:103AB00019F031938150FBCFC20ED11C20E0992325
:103AC00029F0D6019C93F60131966F0151110BC07C
:103AD000F601822F90E3882319F091938150FBCF58
:103AE000C20ED11C20E00F2D060F9A81342F3071A9
:103AF00044FF03C0913309F40150101624F4093037
:103B000018F008E001C001E0AB0177FF02C040E01F
:103B100050E0FB01E41BF50BA1E0B0E0AC0FBD1FD2
:103B2000EA0FFB1F8EE2A82E4B01801A91080B2D85
:103B300010E01195019511094F3FBFEF5B0721F48C
:103B4000D601AC9211966D01641775072CF084169E
:103B5000950614F4818101C080E3415051093196EA
:103B6000D60111967D014017510724F0D6018C93A0
:103B70006701E2CF6417750739F4963320F4953363
:103B800019F4311101C081E3F6018083F701822F1E
:103B900090E2882319F091938150FBCFF701E20F57
:103BA000F11D108280E090E02996ECE00C948321D6
:103BB000A0E0B0E0EEEDFDE10C946721EC016B01BB
:103BC0006115710519F0FB01918380837E01FFEF80
:103BD000EF1AFF0A0881802F90E00E94FE1F892BB8
:103BE00011F0E701F3CF0D3239F47E0182E0E80EE7
:103BF000F11C098111E008C00B3229F47E0192E02A
:103C0000E90EF11C098110E0E701219743E050E043
:103C100060EC70E0CE010E940720892BC1F423964E
:103C200045E050E06BEB70E0CE010E940720892B4D
:103C300009F42596C114D10419F0F601D183C0838B
:103C40001111F6C060E070E080E89FE7FAC043E041
:103C500050E068EB70E0CE010E940720892B59F4F8
:103C6000C114D10409F4E9C0F2E0EF0EF11CF60131
:103C7000F182E082E2C020E030E0A901C0E0D0E0C3
:103C8000F70180EDA82EA00E89E08A1530F1912F62
:103C90009260B92E812F887012FF04C0811124C058
:103CA000219622C081112197A5E0B0E00E94562103
:103CB000DC01CB01880F991FAA1FBB1F9C01AD011E
:103CC0002A0D311D411D511D283989E93807480742
:103CD00089E1580748F0166006C09EEFA9120AC095
:103CE00013FD40C01860B12E8FEFE81AF80A00816A
:103CF0001B2DC6CF802F8F7D8534A1F580818D321D
:103D000011F4106106C08B3221F0319661E070E051
:103D100004C08181329662E070E080538A3018F0EE
:103D2000E61BF70B1FC060E070E060389CE079078D
:103D30005CF4DB01AA0FBB1FAA0FBB1F6A0F7B1F1E
:103D4000660F771F680F711D3196DF0111978C91F7
:103D500080538A3050F314FF03C071956195710947
:103D6000C60FD71F11FF08C0C114D10429F0CF011D
:103D70000197F60191838083CA01B9010E94342022
:103D8000212F2370233019F04B015C0106C04B0139
:103D90005C01B7FAB094B7F8B09420E030E0A90124
:103DA000C501B4010E942F20882309F43EC0D7FF2B
:103DB00006C0D195C195D10907ED10E002C00FEE04
:103DC00010E06801F8E1CF1AD10890E2E92EF12C59
:103DD000CE15DF0574F0F801259135914591549188
:103DE000C501B4010E9495204B015C01CE19DF0989
:103DF000EFCF04501109F594E7940C151D0541F718
:103E00008A2D880F8B2D881F8F3F49F020E030E0EE
:103E1000A901C501B4010E942F20811106C082E2D0
:103E200090E09093BE048093BD04C501B40109C025
:103E300060E070E080E89FEF04C060E070E080EC3C
:103E40009FE7CDB7DEB7ECE00C948321283008F073
:103E500027E03327DA01990F311D87FD9160009625
:103E60006105710539F432602E5F3D9330E32A9588
:103E7000E1F708959F3F30F080387105610509F042
:103E80003C5F3C5F3D93913008F08068911DDF936B
:103E9000CF931F930F93FF92EF92192F987F9695D0
:103EA000E92F96959695E90FFF27E35BFE4F99273B
:103EB0003327EE24FF24A701E70105900894079417
:103EC00028F4360FE71EF81E491F511D660F771F95
:103ED000881F991F0694A1F70590079428F4E70E10
:103EE000F81E491F561FC11D770F881F991F661F97
:103EF0000694A1F70590079428F4F80E491F561F61
:103F0000C71FD11D880F991F661F771F0694A1F741
:103F10000590079420F4490F561FC71FD81F990F0B
:103F2000661F771F881F0694A9F784911095177054
:103F300041F0D695C79557954795F794E7941A950C
:103F4000C1F7E3EFF0E06894159015913591659114
:103F5000959105907FE27395E118F10A430B560B9A
:103F6000C90BD009C0F7E10CF11E431F561FC91F32
:103F7000D01D7EF4703311F48A95E6CFE894015099
:103F800030F0080F0AF40027021708F4202F2395B9
:103F9000022F7A3328F079E37D932A95E9F710C050
:103FA0007D932A9589F60694979567953795179589
:103FB0001794E118F10A430B560BC90BD00998F07E
:103FC00023957E9173957A3308F070E37C932013E8
:103FD000B8F77E9170617D9330F0839571E37D93A6
:103FE00070E32A95E1F71124EF90FF900F911F9154
:103FF000CF91DF91992787FD9095089591110C94A9
:104000000221803219F089508550C8F70895FB01CC
:10401000DC014150504088F08D9181341CF08B358B
:104020000CF4805E659161341CF06B350CF4605EBD
:10403000861B611171F3990B0895881BFCCFDC017D
:10404000FC01672F71917723E1F7329704C07C91CF
:104050006D9370836291AE17BF07C8F308950E94F5
:10406000712008F481E00895E89409C097FB3EF4BC
:1040700090958095709561957F4F8F4F9F4F9923B5
:10408000A9F0F92F96E9BB279395F6958795779533
:104090006795B795F111F8CFFAF4BB0F11F460FFF3
:1040A0001BC06F5F7F4F8F4F9F4F16C0882311F04B
:1040B00096E911C0772321F09EE8872F762F05C05F
:1040C000662371F096E8862F70E060E02AF09A95FA
:1040D000660F771F881FDAF7880F9695879597F9EF
:1040E0000895990F0008550FAA0BE0E8FEEF161689
:1040F0001706E807F907C0F012161306E407F507DC
:1041000098F0621B730B840B950B39F40A2661F04F
:10411000232B242B252B21F408950A2609F4A140F2
:10412000A6958FEF811D811D08950E94A8200C94F3
:104130001C210E940E2138F00E94152120F09523A9
:1041400011F00C9405210C940B2111240C94502196
:104150000E942D2170F3959FC1F3950F50E0551FDC
:10416000629FF001729FBB27F00DB11D639FAA27CC
:10417000F00DB11DAA1F649F6627B00DA11D661F1B
:10418000829F2227B00DA11D621F739FB00DA11D3C
:10419000621F839FA00D611D221F749F3327A00DF6
:1041A000611D231F849F600D211D822F762F6A2F92
:1041B00011249F5750409AF0F1F088234AF0EE0FF7
:1041C000FF1FBB1F661F771F881F91505040A9F724
:1041D0009E3F510580F00C9405210C9450215F3FC7
:1041E000E4F3983ED4F3869577956795B795F79560
:1041F000E7959F5FC1F7FE2B880F911D96958795D8
:1042000097F9089599278827089597F99F6780E877
:1042100070E060E008959FEF80EC089500240A9418
:104220001616170618060906089500240A94121691
:104230001306140605060895092E0394000C11F4C4
:10424000882352F0BB0F40F4BF2B11F460FF04C071
:104250006F5F7F4F8F4F9F4F089557FD9058440FCA
:10426000551F59F05F3F71F04795880F97FB991FD5
:1042700061F09F3F79F08795089512161306140692
:10428000551FF2CF4695F1DF08C01616170618061F
:10429000991FF1CF86957105610508940895E894FA
:1042A000BB2766277727CB0197F908950E949821AD
:1042B000A59F900DB49F900DA49F800D911D11247A
:1042C00008952F923F924F925F926F927F928F92BA
:1042D0009F92AF92BF92CF92DF92EF92FF920F9395
:1042E0001F93CF93DF93CDB7DEB7CA1BDB0B0FB69F
:1042F000F894DEBF0FBECDBF09942A88398848885C
:104300005F846E847D848C849B84AA84B984C884F1
:10431000DF80EE80FD800C811B81AA81B981CE0FE8
:10432000D11D0FB6F894DEBF0FBECDBFED010895CD
:10433000A29FB001B39FC001A39F700D811D1124E6
:10434000911DB29F700D811D1124911D089597FB41
:10435000072E16F4009407D077FD09D00E94EC21B7
:1043600007FC05D03EF4909581959F4F0895709578
:1043700061957F4F0895A1E21A2EAA1BBB1BFD0178
:104380000DC0AA1FBB1FEE1FFF1FA217B307E40734
:10439000F50720F0A21BB30BE40BF50B661F771F8C
:1043A000881F991F1A9469F760957095809590956C
:1043B0009B01AC01BD01CF010895EE0FFF1F0590D9
:1043C000F491E02D09942A153B054C055D056E0519
:1043D0007F05800791070895AA1BBB1B51E107C009
:1043E000AA1FBB1FA617B70710F0A61BB70B881F85
:1043F000991F5A95A9F780959095BC01CD01089514
:104400005058BB27AA270E9418220C941C210E94F6
:104410000E2138F00E94152120F039F49F3F19F445
:1044200026F40C940B210EF4E095E7FB0C94052187
:10443000E92F0E942D2158F3BA17620773078407EA
:10444000950720F079F4A6F50C944F210EF4E09531
:104450000B2EBA2FA02D0B01B90190010C01CA013E
:10446000A0011124FF27591B99F0593F50F4503EE9
:1044700068F11A16F040A22F232F342F4427585FDB
:10448000F3CF469537952795A795F0405395C9F7F3
:104490007EF41F16BA0B620B730B840BBAF09150AB
:1044A000A1F0FF0FBB1F661F771F881FC2F70EC04A
:1044B000BA0F621F731F841F48F48795779567951D
:1044C000B795F7959E3F08F0B0CF9395880F08F009
:1044D0009927EE0F979587950895DF93DD27B92FDC
:1044E000BF7740E85FE31616170648075B0718F426
:1044F000D92F0E9470239F938F937F936F930E9475
:10450000BE23EAE8F0E00E9444230E941C212F9180
:104510003F914F915F910E94A820DD2351F0905868
:10452000A2EA2AED3FE049EC5FE3D0785D270E94E4
:104530001822DF910C941C210E94B0220C941C21A3
:104540000E94152158F00E940E2140F029F45F3F8F
:1045500029F00C94052151110C9450210C940B213D
:104560000E942D2168F39923B1F3552391F3951BF4
:10457000550BBB27AA2762177307840738F09F5F84
:104580005F4F220F331F441FAA1FA9F335D00E2EF1
:104590003AF0E0E832D091505040E695001CCAF75E
:1045A0002BD0FE2F29D0660F771F881FBB1F261721
:1045B00037074807AB07B0E809F0BB0B802DBF01F8
:1045C000FF2793585F4F3AF09E3F510578F00C94C7
:1045D00005210C9450215F3FE4F3983ED4F3869577
:1045E00077956795B795F7959F5FC9F7880F911DE8
:1045F0009695879597F90895E1E0660F771F881FD4
:10460000BB1F621773078407BA0720F0621B730B86
:10461000840BBA0BEE1F88F7E09508950E941523CE
:104620006894B1110C94502108950E94352188F0AE
:104630009F5798F0B92F9927B751B0F0E1F0660F66
:10464000771F881F991F1AF0BA95C9F714C0B130A7
:1046500091F00E944F21B1E008950C944F21672FF3
:10466000782F8827B85F39F0B93FCCF386957795D6
:104670006795B395D9F73EF49095809570956195BF
:104680007F4F8F4F9F4F0895DF93CF931F930F93CB
:10469000FF92EF92DF927B018C01689406C0DA2EC4
:1046A000EF010E94A820FE01E894A5912591359183
:1046B00045915591A6F3EF010E941822FE01970142
:1046C000A801DA9469F7DF90EF90FF900F911F91A6
:1046D000CF91DF9108950E94712008F48FEF089523
:1046E0009B01AC0160E070E080E89FE30C949C22A9
:1046F00019F416F40C940B210C94C7230E94352155
:10470000B8F39923C9F3B6F39F57550B87FF0E945F
:10471000D5230024A0E640EA90018058569597954D
:1047200028F4805C660F771F881F20F02617370754
:10473000480730F4621B730B840B202931294A2B64
:10474000A69517940794202531254A2758F7660F18
:10475000771F881F20F026173707480730F4620BB1
:10476000730B840B200D311D411DA09581F7B901FC
:10477000842F9158880F9695879508959B01AC01D9
:104780000C9495200E947120880B990B08959F3FEF
:1047900031F0915020F4879577956795B795880FFC
:1047A000911D9695879597F9089591505040660F01
:1047B000771F881FD2F708950F931F93CF93DF932E
:1047C0008230910510F482E090E0E091C104F09114
:1047D000C20420E030E0A0E0B0E0309719F1408161
:1047E00051810281138148175907C8F08417950732
:1047F00069F4109731F012960C93129713961C934C
:1048000027C00093C1041093C20422C021153105B2
:1048100019F04217530718F49A01BD01EF01DF01A7
:10482000F801DBCF21153105F9F0281B390B2430B5
:10483000310580F48A819B816115710521F0FB01AE
:104840009383828304C09093C2048093C104FE01C9
:10485000329644C0FE01E20FF31F819391932250E0
:104860003109398328833AC02091BF043091C004B4
:10487000232B41F420910201309103013093C004B5
:104880002093BF04209100013091010121153105D1
:1048900041F42DB73EB74091040150910501241B0E
:1048A000350BE091BF04F091C004E217F307A0F4C8
:1048B0002E1B3F0B2817390778F0AC014E5F5F4F76
:1048C0002417350748F04E0F5F1F5093C0044093E4
:1048D000BF048193919302C0E0E0F0E0CF01DF914B
:1048E000CF911F910F910895CF93DF93009709F413
:1048F00081C0FC01329713821282A091C104B09151
:10490000C204109781F420813181820F931F20917E
:10491000BF043091C0042817390751F5F093C00443
:10492000E093BF0467C0ED0120E030E0CE17DF0761
:1049300040F44A815B819E0141155105F1F0EA0185
:10494000F5CFD383C28340815181840F951FC8174F
:10495000D90759F488819981840F951F0296918314
:1049600080838A819B81938382832115310529F479
:10497000F093C204E093C1043DC0E901FB83EA83E4
:1049800049915991C40FD51FEC17FD0761F480813F
:104990009181840F951F0296E90199838883828112
:1049A00093819B838A83E0E0F0E012968D919C9145
:1049B0001397009719F0FD01DC01F7CF8D919C91C1
:1049C00011979D012E5F3F4F820F931F2091BF04CF
:1049D0003091C0042817390769F4309729F41092F0
:1049E000C2041092C10402C013821282B093C004A8
:1049F000A093BF04DF91CF910895A0E0B0E0E3E081
:104A0000F5E20C946521EC01009721F4CB010E94A2
:104A1000DC23B4C0FC01E60FF71F9C0122503109D2
:104A2000E217F30708F4A8C0D9010D911C91119762
:104A300006171707B0F00530110508F49BC0C80130
:104A400004978617970708F495C002501109061BB2
:104A5000170B019311936D937C93CF010E947424E3
:104A600089C05B01A01AB10A4C01800E911EA09171
:104A7000C104B091C204612C712CE12CF12C10976F
:104A800009F446C08D919C911197A815B905B1F50F
:104A90006C0142E0C40ED11CCA14DB0478F14C0155
:104AA0008A189B08640142E0C40ED11C1296BC9087
:104AB00012971396AC91B5E0CB16D10440F0B282B8
:104AC000A38391828082D9016D937C9309C00E5F8C
:104AD0001F4F800F911FF90191838083EB2DFA2FD7
:104AE000E114F10431F0D7011396FC93EE93129781
:104AF00041C0F093C204E093C1043CC0681679063B
:104B000008F43C017D0112960D90BC91A02DB7CF09
:104B10008091BF049091C00488169906E1F466164E
:104B20007706C8F48091000190910101009741F44B
:104B30008DB79EB74091040150910501841B950BE0
:104B4000E817F907C8F4F093C004E093BF04F90133
:104B5000718360830FC0CB010E94DC237C0100972E
:104B600059F0A801BE010E94C825CE010E947424FC
:104B7000C70104C0CE0102C080E090E0CDB7DEB72F
:104B8000EEE00C94812181E090E0F8940C940126F1
:104B9000FB01DC0102C001900D9241505040D8F75A
:104BA0000895FB01DC0101900D920020E1F70895CA
:104BB000FB01DC014150504048F001900D92002073
:104BC000C9F701C01D9241505040E0F70895FB0124
:104BD00051915523A9F0BF01DC014D9145174111B9
:104BE000E1F759F4CD010190002049F04D914015B5
:104BF0004111C9F3FB014111EFCF81E090E0019732
:064C00000895F894FFCFB7
:104C06000000C30420000000000000000000AB0804
:104C1600E308E30800000000AA080C09AB080E0927
:104C2600B509000000008F07FC062607DC075707BA
:104C360035074907000000005F0232022F022008F4
:104C4600DB08C708B808000000002108FC062F0290
:104C5600200871088908080843616C6962726174EA
:104C6600696E67002E000A446F6E65210050726FF0
:104C76006772616D207374617274656421002C0023
:104C86007273686F653A00096178090009617909EC
:104C96000009617A09000979090009720900097099
:104CA6000900097765696768743A0009730900099C
:104CB6006209006C73686F653A0063686573743ADD
:104CC6000009615A090009616C7409000942656EA0
:104CD600643A00095374726169676874090009527D
:104CE600696768743A00094E6F7468696E670009EF
:104CF6004C6566743A00095374657073696465009F
:104D0600096261636B7761726400096C65667400A1
:104D160009666F7277617264000972696768740068
:104D26004F6F6F70732C206E6F20424E4F303535AB
:104D36002031206465746563746564202E2E2E20F0
:104D4600436865636B20796F757220776972696E47
:104D560067206F7220493243204144445221004269
:104D66004E4F303535006E616E00696E66006F76A7
:064D760066000D0A0000BA
:00000001FF
