:100000000C9404020C942C020C942C020C94E40A20
:100010000C94E40A0C94E40A0C942C020C942C0228
:100020000C942C020C942C020C942C020C942C0298
:100030000C942C020C942C020C942C020C942C0288
:100040000C94B8110C942C020C94B20A0C948C0AE7
:100050000C942C020C942C020C942C020C942C0268
:100060000C945E0B0C942C028106840687068A068B
:100070008D069006B2069306960699069C069F0684
:10008000A206A506A806AB06AE06084AD73B3BCE9D
:10009000016E84BCBFFDC12F3D6C74319ABD568387
:1000A0003DDA3D00C77F11BED9E4BB4C3E916BAA3F
:1000B000AABE000000803F004E414E494E495459AF
:1000C000494E46CDCCCC3D0AD7233C17B7D1387723
:1000D000CC2B329595E6241FB14F0A000020410039
:1000E00000C84200401C4620BCBE4CCA1B0E5AAE83
:1000F000C59D7400407A10F35A00A0724E18090092
:1001000010A5D4E80000E87648170000E40B54027C
:100110000000CA9A3B000000E1F5050000809698B7
:1001200000000040420F000000A086010000001007
:100130002700000000E80300000000640000000049
:10014000000A00000000000100000000002C76D82A
:1001500088DC674F0823DFC1DFAE59E1B1B796E510
:10016000E3E453C63AE651997696E8E6C28426EB74
:10017000898C9B62ED407C6FFCEFBC9C9F40F2BA87
:10018000A56FA5F490055A2AF75C936B6CF9676D1F
:10019000C11BFCE0E40D47FEF520E6B500D0ED9074
:1001A0002E0300943577050080841E080000204E41
:1001B0000A000000C80C333333330F986E128311DA
:1001C00041EF8D2114893BE65516CFFEE6DB18D1B1
:1001D000844B381BF77C1D901DA4BBE42420328483
:1001E000725E228100C9F124ECA1E53D272D2D2D61
:1001F0002D2D2D2D2D2D2D2D2D2D2D2D2D2D2D2D2F
:100200002D2D2D2D2D2D2D2D2D2D2D2D2D2D2D2D1E
:100210002D0A005265736F6C7574696F6E3A2020F9
:1002200020004D61782056616C75653A20202020B1
:10023000004D696E2056616C75653A2020202000C3
:10024000556E697175652049443A2020202000448C
:100250007269766572205665723A20202000436FDD
:100260006C6F7220285247424129004375727265B3
:100270006E7420286D412900566F6C74616765208B
:10028000285629004F626A6563742054656D70209A
:1002900028432900416D6269656E742054656D7054
:1002A000202843290052656C617469766520487581
:1002B0006D69646974792028252900526F7461740E
:1002C000696F6E20766563746F72004C696E65614C
:1002D0007220416363656C65726174696F6E20287A
:1002E0006D2F733229004772617669747920286D09
:1002F0002F7332290044697374616E63652028632B
:100300006D2900507265737375726520286850619D
:1003100029004C6967687420286C75782900477932
:10032000726F73636F70696320287261642F732921
:10033000004F7269656E746174696F6E2028646520
:10034000677265657329004D61676E657469632026
:100350002875542900416363656C65726174696F27
:100360006E20286D2F73322900547970653A202051
:10037000202020202020200053656E736F723A20C9
:10038000202020202020002D2D2D2D2D2D2D2D2D18
:100390002D2D2D2D2D2D2D2D2D2D2D2D2D2D2D2D8D
:1003A0002D2D2D2D2D2D2D2D2D2D2D00000000005E
:1003B000240027002A0000000008000201000003BA
:1003C00004070000000000000000000000002300FF
:1003D0002600290000000000250028002B0004044E
:1003E00004040404040402020202020203030303DD
:1003F00003030102040810204080010204081020B9
:100400000102040810202A1B11241FBECFEFD8E0E0
:10041000DEBFCDBF24E0ACE7B2E001C01D92A93C35
:10042000B207E1F712E0A0E0B1E0E0EBFCE402C0CB
:1004300005900D92AC37B107D9F712E0C4E0D2E0D5
:1004400004C02197FE010E943222C330D107C9F7B0
:100450000E9402120C9456260C940000089580E02D
:1004600090E00895CF92DF92EF92FF920F931F9347
:10047000CF93DF937C01CB018A0120914C0322238F
:1004800089F0EB016B01C40ED51ECC15DD0569F0BA
:100490006991D701ED91FC910190F081E02DC701A8
:1004A0000995F3CF642F0E948C0CC801DF91CF9186
:1004B0001F910F91FF90EF90DF90CF900895CF9311
:1004C000DF931F92CDB7DEB7698320914C032223BF
:1004D000D1F020916F03203240F021E030E0FC01A8
:1004E0003383228380E090E015C080914D03E82F94
:1004F000F0E0E25BFC4F998190838F5F80934D0326
:1005000080936F0305C061E0CE0101960E948C0CC0
:1005100081E090E00F90DF91CF9108950F931F93AA
:10052000CF93DF93EC018B0183E090E00E943124B4
:10053000FC01118300831282998388838CB5837FA9
:100540008CBD8CB58F7D8CBD8CB58C7F81608CBD56
:100550008DB581608DBD1FB7F8948091BA0281116D
:1005600027C0E8EEF3E08491ECEFF3E09491E82FFC
:10057000F0E0EE0FFF1FE455FC4FA591B491EC9114
:10058000E92321F461E08AE00E94D60E61E08AE06E
:100590000E94230F8CB580618CBD8CB580648CBDAE
:1005A00061E08DE00E94230F61E08BE00E94230F49
:1005B0008091BA028F5F8093BA021FBF0990D881E1
:1005C000C02D61E088810E94230F61E088810E9434
:1005D000D60E60E088810E94D60E8A81811102C009
:1005E00060E001C061E088810E94D60E81E48EBD8A
:1005F00000000DB407FEFDCF8EB58FEF8EBD00005D
:100600000DB407FEFDCF8EB58A81811102C061E075
:1006100001C060E088810E94D60E61E08881DF9190
:10062000CF911F910F910C94D60ECF92DF92EF9243
:10063000FF929B01245F3F4FFB01C190D190E1905D
:10064000F190BF01FC01C192D192E192F192CF01F0
:100650006217730789F7FF90EF90DF90CF900895AE
:100660008091B8049091B9048C342FEF920714F460
:1006700088599E4F2091B6043091B7042C344FEF27
:10068000340714F428593E4F889FB001899F700D9C
:10069000700D1124229FC001239F900D900D1124F5
:1006A000680F791F072E000C880B990B0E948B2076
:1006B0000C94D3238F929F92AF92BF92CF92DF92EE
:1006C000EF92FF926091B8047091B9046C348FEF8F
:1006D000780714F468597E4F072E000C880B990B8D
:1006E0000E948B206B017C016091B6047091B7046D
:1006F0006C348FEF780714F468597E4F072E000C86
:10070000880B990B0E948B204B015C0120E030E0AC
:10071000A9010E94C023181644F520E030E0A90189
:10072000C701B6010E94C02387FD09C0A50194013D
:10073000C701B6010E94F1220E94C22256C020E0E9
:1007400030E0A901C701B6010E94842087FF0DC0D7
:10075000A5019401C701B6010E94F1220E94C222A4
:100760002BED3FE049EC50E415C020E030E0A9015A
:10077000C501B4010E94842087FF0FC0A501940128
:10078000C701B6010E94F1220E94C2222BED3FE078
:1007900049E450E40E94562228C020E030E0A9013C
:1007A000C501B4010E94842081111CC020E030E00A
:1007B000A901C701B6010E94C023181674F020E0F9
:1007C00030E0A901C701B6010E94842087FF0AC05A
:1007D00064EE7BEC86E990E408C06BED7FE089EC89
:1007E0009FE303C060E070E0CB0120E030E044E331
:1007F00053E40E94EA202BED3FE049E450E40E94DC
:10080000F1220E946323CB01FF90EF90DF90CF9005
:10081000BF90AF909F908F9008956F927F928F922C
:100820009F92AF92BF92CF92DF92EF92FF920F937F
:100830001F93CF93DF93CDB7DEB762970FB6F894CF
:10084000DEBF0FBECDBF7C01F701819191916F0199
:100850008E010F5F1F4F2CE0F80111922A95E9F7E6
:100860005E01FDE0AF0EB11C26E0F50111922A9564
:10087000E9F7A5016AE170E00E941A0D8F8498885B
:1008800069887A886D857E85072E000C880B990B08
:100890000E948B2020E030E040E85DE30E94EA20E7
:1008A00069837A838B839C83B401990C880B990BA1
:1008B0000E948B2020E030E040E85DE30E94EA20C7
:1008C0006D837E838F839887B301770C880B990B98
:1008D0000E948B2020E030E040E85DE30E94EA20A7
:1008E00069877A878B879C8798014701FEE08F0E86
:1008F000911CF90181919191A191B1919F01F60112
:1009000081939193A193B1936F01E815F90589F74C
:10091000F701808191812CE0F80111922A95E9F785
:1009200026E0F50111922A95E9F7A50168E270E049
:100930000E941A0DAF84B888C988DA886D857E85D3
:10094000072E000C880B990B0E948B2020E030E0D2
:1009500048EC52E40E94F12269837A838B839C8362
:10096000B501BB0C880B990B0E948B2020E030E076
:1009700048EC52E40E94F1226D837E838F83988736
:10098000B601DD0C880B990B0E948B2020E030E033
:1009900048EC52E40E94F12269877A878B879C8712
:1009A000FAE1EF0EF11CF80181919191A191B191C1
:1009B0008F01F40181939193A193B1934F01EE15AF
:1009C000FF0589F762960FB6F894DEBF0FBECDBF64
:1009D000DF91CF911F910F91FF90EF90DF90CF901B
:1009E000BF90AF909F908F907F906F9008958F925F
:1009F0009F92AF92BF92CF92DF92EF92FF920F93AE
:100A00001F93CF93DF93CDB7DEB762970FB6F894FD
:100A1000DEBF0FBECDBF8C01DC018D919D917D01AC
:100A2000FE0131966F012CE0DF011D922A95E9F756
:100A3000AE01435F5F4F26E0FA0111922A95E9F774
:100A40006AE170E00E941A0D8F849888A988BA889C
:100A50006D857E85072E000C880B990B0E948B20DC
:100A600020E030E040E85DE30E94EA2069837A8379
:100A70008B839C83B401990C880B990B0E948B206B
:100A800020E030E040E85DE30E94EA206D837E8351
:100A90008F839887B501BB0C880B990B0E948B2024
:100AA00020E030E040E85DE30E94EA2069877A8731
:100AB0008B879C87F601C8010E96419151916191F7
:100AC0007191D7014D935D936D937D937D01A8172F
:100AD000B90799F7F80182859385A485B585468184
:100AE000578160857185428F538F648F758F868F94
:100AF000978FA0A3B1A362960FB6F894DEBF0FBE86
:100B0000CDBFDF91CF911F910F91FF90EF90DF90BC
:100B1000CF90BF90AF909F908F900895EF92FF92EB
:100B20000F931F93CF93DF93CDB7DEB7A8970FB680
:100B3000F894DEBF0FBECDBF7C01DC010D911C918E
:100B400010924B0310924A0310924D0310926F03C0
:100B50001092B60381E08093B5031092B00361E078
:100B600082E10E94D60E61E083E10E94D60E809160
:100B7000B9008E7F8093B9008091B9008D7F8093FA
:100B8000B90088E48093B80085E48093BC0086EBCC
:100B900098E09093BC028093BB0287EB98E090931F
:100BA000BE028093BD02C8010E94A80E803AD1F413
:100BB000F8011386128640E06DE370E0C8010E94E0
:100BC0007E0E6EE170E080E090E00E94760F40E2E1
:100BD0006FE370E0C8010E947E0E6EE170E080E07D
:100BE00090E010C068EE73E080E090E00E94760F25
:100BF000C8010E94A80E803AD9F287E292E00E94D2
:100C0000C6107EC00E94760FC8010E94A80E803ACE
:100C100029F06AE070E080E090E0F4CF62E370E0F9
:100C200080E090E00E94760F40E06EE370E0C80143
:100C30000E947E0E6AE070E080E090E00E94760FF5
:100C400040E067E070E0C8010E947E0E40E06FE384
:100C500070E0C8010E947E0E6AE070E080E090E0E3
:100C60000E94760F8CE090E0D8011B969C938E93A7
:100C70001A974CE06DE370E0C8010E947E0E6EE1B1
:100C800070E080E090E00E94760F64E170E080E028
:100C900090E00E94760F64EF71E080E090E00E94A7
:100CA000760F64EF71E080E090E00E94760FF7012C
:100CB00080819181DC01ED91FC910084F185E02D32
:100CC000BE016F5F7F4F099587E893E00E94620D38
:100CD0000E943E1088E793E00E94620DCE010196CB
:100CE0000E94720E89E693E00E94620DED89FE89F2
:100CF0003197E131F105B0F5EC5CFF4F0C943222F5
:100D0000FFCF85E593E02CC087E493E029C081E321
:100D100093E026C08EE193E023C082E193E020C0FF
:100D200083E093E01DC085EF92E01AC086EE92E06A
:100D300017C08BEC92E014C08BEB92E011C085EAF7
:100D400092E00EC084E992E00BC084E892E008C013
:100D500088E792E005C08BE692E002C08EE592E063
:100D60000E94620D0E943E108FE492E00E94620D8C
:100D70006D857E858F8598890E94460E80E492E07D
:100D80000E94620D69897A898B899C890E94460E2E
:100D900081E392E00E94620D6D8D7E8D8F8D98A112
:100DA0000E947D0D82E292E00E94620D698D7A8D33
:100DB0008B8D9C8D0E947D0D83E192E00E94620DDF
:100DC00069A17AA18BA19CA10E947D0D8DEE91E07D
:100DD0000E94620D0E943E10C7010E94F704A8966F
:100DE0000FB6F894DEBF0FBECDBFDF91CF911F913C
:100DF0000F91FF90EF900895CF92DF92EF92FF92C4
:100E00000F931F93CF93DF936C017A018B01C0E0A6
:100E1000D0E0CE15DF0581F0D8016D918D01D601AE
:100E2000ED91FC910190F081E02DC6010995892B8F
:100E300011F02196EECF7E01C701DF91CF911F9176
:100E40000F91FF90EF90DF90CF900895FC01538DAC
:100E5000448D252F30E0842F90E0821B930B541794
:100E600010F0CF96089501970895FC01918D828D21
:100E7000981761F0828DDF01A80FB11D5D968C91EE
:100E8000928D9F5F9F73928F90E008958FEF9FEFF9
:100E90000895FC01918D828D981731F0828DE80FB5
:100EA000F11D858D90E008958FEF9FEF0895FC016F
:100EB000918D228D892F90E0805C9F4F821B91093C
:100EC0008F739927089587EB93E00E94570721E0DD
:100ED000892B09F420E0822F0895FC01848DDF0125
:100EE000A80FB11DA35ABF4F2C91848D90E001969D
:100EF0008F739927848FA689B7892C93A089B1898C
:100F00008C91837080648C93938D848D981306C02C
:100F10000288F389E02D80818F7D80830895EF9290
:100F2000FF920F931F93CF93DF93EC0181E0888FA3
:100F30009B8D8C8D981305C0E889F989808185FD8A
:100F400026C0F62E0B8D10E00F5F1F4F0F73112779
:100F5000E02E8C8DE8120CC00FB607FCFACFE889A2
:100F6000F989808185FFF5CFCE010E946D07F1CF11
:100F70008B8DFE01E80FF11DE35AFF4FF0829FB702
:100F8000F8940B8FEA89FB89808180620AC09FB741
:100F9000F894EE89FF896083E889F98980818370FC
:100FA000806480839FBF81E090E0DF91CF911F91AB
:100FB0000F91FF90EF900895CF93DF93EC01888D10
:100FC0008823C9F0EA89FB89808185FD05C0A8894D
:100FD000B9898C9186FD0FC00FB607FCF5CF8081D3
:100FE00085FFF2CFA889B9898C9185FFEDCFCE011D
:100FF0000E946D07E7CFDF91CF91089580E090E0E8
:10100000892B29F00E94630781110C940000089538
:1010100020916204309163042817390771F490918C
:10102000600480916104981741F0E0916004F0E061
:10103000EE5FFC4F808190E008958FEF9FEF089561
:1010400008951F93CF93DF93DC015C968D919C9163
:101050005D97009739F421E030E013963C932E938E
:1010600012973BC05196ED91FC91529750962C915E
:101070005097322F30951FB75E964C915E97742F24
:10108000727041FD6095F8944081772311F0422BF6
:1010900001C043234083EC012197F1F748E05081E0
:1010A00060FF02C0522B01C053235083EC012197F3
:1010B000F1F76695415099F78081772319F08323E2
:1010C000808302C0282B20831FBF5C968D919C914A
:1010D0005D970197F1F781E090E0DF91CF911F914B
:1010E000089520916204309163042817390771F440
:1010F000809161042091600490E0805C9F4F821B8E
:10110000910960E470E00E94FC21089580E090E085
:101110000895209162043091630428173907B9F4C7
:101120009091600480916104981789F0E0916004C7
:10113000F0E0EE5FFC4F80812091600430E02F5F93
:101140003F4F2F7333272093600490E008958FEF73
:101150009FEF08950895089585ED8093BC008091D8
:10116000BC0084FDFCCF1092B60308950895089545
:10117000E0914B0380914A03E81730F4F0E0E05926
:10118000FC4F808190E008958FEF9FEF089590913C
:101190004B0380914A03981750F4E92FF0E0E0598F
:1011A000FC4F208130E09F5F90934B0302C02FEFF4
:1011B0003FEFC901089580914A0390E020914B03CD
:1011C000821B910908950E9418260F931F93CF93B5
:1011D000DF93EC0188819981009729F02A813B8176
:1011E0002617370788F48B016F5F7F4F0E945225C7
:1011F000009761F0998388831B830A832C813D814A
:10120000232B11F4FC01108281E001C080E0DF910A
:10121000CF911F910F9108950C94C9248F929F92A2
:10122000AF92BF92CF92DF92EF92FF920F931F93F4
:10123000CF93DF93CDB7DEB762970FB6F894DEBFDA
:101240000FBECDBF7C018B0184E2DB011D928A952C
:10125000E9F784E290E0A0E0B0E0FB0180839183B5
:10126000A283B383F70186819781A085B185FB01B5
:1012700084839583A683B78383E090E0A0E0B0E009
:1012800080879187A287B3870E94B00FD8015096BC
:101290006D937D938D939C935397FE0131968CE0D3
:1012A000DF011D928A95E9F7AE01435F5F4F86E04B
:1012B000FA0111928A95E9F76AE170E0C7010E948C
:1012C0001A0D6D857E85072E000C880B990B0E94E8
:1012D0008B2020E030E040E85DE30E94EA204B01F3
:1012E0005C016F857889072E000C880B990B0E9492
:1012F0008B2020E030E040E85DE30E94EA206B01B3
:101300007C0169897A89072E000C880B990B0E9451
:101310008B2020E030E040E85DE30E94EA20D80125
:1013200054968D929D92AD92BC925797F801C08EC3
:10133000D18EE28EF38E5C966D937D938D939C930C
:101340005F9781E062960FB6F894DEBF0FBECDBF07
:10135000DF91CF911F910F91FF90EF90DF90CF9091
:10136000BF90AF909F908F9008950F931F93CF934E
:10137000DF938C01EB0188E2FB0111928A95E9F77A
:101380004BE050E066E672E0CE010E942D261B86FF
:1013900081E090E0A0E0B0E08C879D87AE87BF87BA
:1013A000F80186819781A085B185888B998BAA8B5E
:1013B000BB8B83E090E0A0E0B0E08C8B9D8BAE8B8C
:1013C000BF8B1CA21DA21EA21FA2188E198E1A8EE0
:1013D0001B8E1C8E1D8E1E8E1F8E8AE097EDA3E243
:1013E000BCE388A399A3AAA3BBA3DF91CF911F91CC
:1013F0000F910895EF92FF920F931F93CF93DF9376
:101400006115710511F480E01CC041155105C1F052
:101410007B01EC018C819D818A01080F191FB801A5
:10142000CE010E94E508882371F3288139818C81DF
:101430009D81B701820F931F0E9426261D830C8376
:1014400081E0DF91CF911F910F91FF90EF90089570
:10145000CF93DF93EC0188819981009711F00E946E
:10146000C924198218821D821C821B821A82DF9174
:10147000CF910895EF92FF920F931F93CF93DF9335
:10148000EC017B018A01BA010E94E508811104C0C8
:10149000CE010E94280A07C01D830C83B7018881F2
:1014A00099810E942626CE01DF91CF911F910F9145
:1014B000FF90EF900895CF93DF93EC0161157105D4
:1014C00059F0FB0101900020E9F73197AF01461B6D
:1014D000570B0E943A0A02C00E94280ACE01DF91EF
:1014E000CF910895FC01808191810C94C924FC0165
:1014F0001182108213821282158214826115710585
:1015000051F0FB0101900020E9F73197AF01461B34
:10151000570B0C943A0A08951F920F920FB60F9230
:1015200011242F933F934F935F936F937F938F93E8
:101530009F93AF93BF93EF93FF9387EB93E00E944A
:101540006D07FF91EF91BF91AF919F918F917F9127
:101550006F915F914F913F912F910F900FBE0F9020
:101560001F9018951F920F920FB60F9211242F9370
:101570008F939F93EF93FF93E091C703F091C8037C
:101580008081E091CD03F091CE0382FD12C0908165
:101590008091D0038F5F8F732091D103821751F018
:1015A000E091D003F0E0E954FC4F958F8093D00395
:1015B00001C08081FF91EF919F918F912F910F90AA
:1015C0000FBE0F901F9018951F920F920FB60F929B
:1015D00011242F933F934F935F936F937F938F9338
:1015E0009F93AF93BF93EF93FF93E0916204F091C9
:1015F0006304309709F451C0968DA685B78585851B
:1016000091FF04C09C91892329F447C09C918923B0
:1016100009F043C0A389B4899C9185898095892369
:101620008C93868997890197F1F7608D718DA685D6
:10163000B785558538E020E0CB010197F1F7822F7F
:1016400090E095958795282F4C91452309F02068C7
:10165000315091F7868D81FD20958091610490E055
:1016600001968F73992730916004381749F0A09143
:101670006104B0E0AE5FBC4F2C938093610403C063
:10168000868D8160868F828D938D0197F1F7A38976
:10169000B4899C918589892B8C93FF91EF91BF919F
:1016A000AF919F918F917F916F915F914F913F91FA
:1016B0002F910F900FBE0F901F9018951F920F92B1
:1016C0000FB60F9211242F933F934F935F936F9315
:1016D0007F938F939F93AF93BF93EF93FF938091EB
:1016E000B900887F803609F49CC068F5883209F417
:1016F0005BC090F4803109F454C038F4882309F4B5
:10170000F6C0883009F44DC0F6C0883109F44CC0E9
:10171000803209F45DC0EFC0803409F468C048F439
:10172000803309F455C0883309F0E5C08093B403D1
:10173000D8C0803509F44FC0883509F45DC08834BD
:1017400009F0D9C0D6C0883909F4C7C0A8F48837D1
:1017500009F467C038F4883609F463C0803709F4A7
:1017600060C0C9C0883809F4B8C0803909F45FC0C6
:10177000803809F0C0C05BC0803B09F486C038F4F3
:10178000803A09F466C0883A09F47FC0B4C0803C4E
:1017900009F4A7C0883C09F4A4C0883B09F48AC0B6
:1017A000AAC08091B10310C09091B3038091B2039D
:1017B000981770F5E091B30381E08E0F8093B30327
:1017C000F0E0E057FC4F80818093BB0085EC86C041
:1017D0008093B4038EC0E091B30381E08E0F8093B9
:1017E000B3038091BB00F0E0E057FC4F8083909101
:1017F000B3038091B2036EC0E091B30381E08E0F1A
:101800008093B3038091BB00F0E0E057FC4F8083EE
:101810008091B50381116DC081E08093B00384EAAB
:1018200061C083E08093B60310920103CFCF809113
:101830000103803208F051C0E091010381E08E0F76
:10184000809301038091BB00F0E0EF51FD4F808356
:10185000BDCF85EC8093BC001092B603809101034C
:10186000803230F4E0910103F0E0EF51FD4F10823F
:101870006091010370E0E091BD02F091BE0281EE43
:1018800092E009951092010336C084E08093B6037C
:101890001092E0021092DF02E091BB02F091BC02D4
:1018A00009958091DF02811105C081E08093DF02FC
:1018B0001092BF02E091E00281E08E0F8093E0027F
:1018C000F0E0E154FD4F80818093BB009091E002F5
:1018D0008091DF02981708F479CF85E88093BC00E7
:1018E0000AC085EC8093BC001092B60304C010922D
:1018F000B4030E94AC08FF91EF91BF91AF919F910B
:101900008F917F916F915F914F913F912F910F90A8
:101910000FBE0F901F9018954091DF02262F30E0E8
:10192000240F311D21323105DCF42091B60324301F
:10193000C9F4FC0180E090E0861758F43091DF0292
:101940002191DC01A154BD4FA30FB11D2C93019631
:10195000F3CF8091DF02680F6093DF0280E008958B
:1019600081E0089582E008953FB7F894809146039E
:1019700090914703A0914803B091490326B5A89BD5
:1019800005C02F3F19F00196A11DB11D3FBFBA2F11
:10199000A92F982F8827820F911DA11DB11DBC0171
:1019A000CD0142E0660F771F881F991F4A95D1F736
:1019B00008958F929F92AF92BF920F931F93CF93F0
:1019C000DF93CDB7DEB7A1970FB6F894DEBF0FBE99
:1019D000CDBF19A2423008F44AE08E010F5D1F4FBF
:1019E000842E912CA12CB12CA50194010E941022CF
:1019F000E62FB901CA0101501109EA3014F4E05D83
:101A000001C0E95CD801EC93232B242B252B61F733
:101A1000C8010E942C10A1960FB6F894DEBF0FBE2D
:101A2000CDBFDF91CF911F910F91BF90AF909F904D
:101A30008F900895EF92FF920F931F93CF93DF93B0
:101A40008C017A01DC0113968C91139791E09093AD
:101A50004C0380936E0310924D0310926F03149603
:101A60008D919C911597DC01ED91FC910190F08195
:101A7000E02D099581E00E94241166E0F801838140
:101A80000E94E21010924B0380934A03E701F6E0B4
:101A9000EF0EF11CD80114968D919C911597DC01E5
:101AA000ED91FC910284F385E02D09958993EC1664
:101AB000FD0681F781E0DF91CF911F910F91FF909B
:101AC000EF9008950F931F93CF93DF938C01C0E0A5
:101AD000D0E0F801EC0FFD1F6491662341F087EB25
:101AE00093E00E948F07892B11F02196F2CFCE014F
:101AF000DF91CF911F910F9108954F925F926F9256
:101B00007F928F929F92AF92BF92CF92DF92EF928D
:101B1000FF926B017C019B01AC010E94172488237A
:101B200019F08DE692E01AC046015701E894B7F823
:101B30002FEF3FEF4FE75FE7C501B4010E94172485
:101B4000811110C02FEF3FEF4FE75FE7C501B401F0
:101B50000E948420181634F481E792E00E942C1031
:101B60007C0183C02FEF3FEF4FE75FE4C701B60171
:101B70000E94C02318161CF485E792E0EFCF2FEFE8
:101B80003FEF4FE75FECC701B6010E94842087FD5D
:101B9000F3CF20E030E0A901C701B6010E94842004
:101BA00087FF0BC06DE287EB93E00E948F075C011B
:101BB000F7FAF094F7F8F09402C0A12CB12C2AE0C7
:101BC00037ED43EA5BE3C701B6010E9456222B01C1
:101BD0003C010E946A236B017C010E9489209B01C9
:101BE000AC01C301B2010E9455222B013C014AE025
:101BF000C701B6010E94D90C7C01EA0CFB1C6EE205
:101C000087EB93E00E948F07E80EF91E20E030E09A
:101C100040E251E4C301B2010E94EA202B013C01E1
:101C20000E946A234B01A12CB12C4AE0C501B401EA
:101C30000E94D90CE80EF91EC501B4010E9489204A
:101C40009B01AC01C301B2010E94552220E030E0AB
:101C500040E251E40E94EA200E946A2380E090E082
:101C60004AE00E94D90CE80EF91E0E943E108E0D2B
:101C70009F1DFF90EF90DF90CF90BF90AF909F900F
:101C80008F907F906F905F904F900895CF92DF92EA
:101C9000EF92FF92CF93DF936B017C0197FF13C00C
:101CA0006DE287EB93E00E948F07EC0166277727B0
:101CB000CB016C197D098E099F094AE00E94D90C5D
:101CC000C80FD91F04C04AE00E94D90CEC010E9441
:101CD0003E108C0F9D1FDF91CF91FF90EF90DF9012
:101CE000CF900895CF93DF930E942C10EC010E94B7
:101CF0003E108C0F9D1FDF91CF9108951F93CF93BE
:101D0000DF93EC01142F8B8191E090934C0380932F
:101D10006E0310924D0310926F038C819D81DC0144
:101D2000ED91FC910190F081E02D09958C819D81D0
:101D3000DC01ED91FC910190F081E02D612F09957E
:101D400081E00E94241181E0DF91CF911F910895DD
:101D5000CF93DF93EC018B8191E090934C038093C0
:101D60006E0310924D0310926F038C819D81DC01F4
:101D7000ED91FC910190F081E02D60E0099581E00A
:101D80000E94241161E08B810E94E21010924B03AB
:101D900080934A038C819D81DC01ED91FC9102844A
:101DA000F385E02D0995DF91CF91089590E0FC0136
:101DB000EA54FC4F2491FC01EE50FC4F3491FC019D
:101DC000E252FC4FE491EE2309F43CC0222339F1A6
:101DD000233091F038F42130A9F0223001F584B598
:101DE0008F7D12C0273091F02830A1F02430B9F453
:101DF000809180008F7D03C0809180008F778093D9
:101E000080000DC084B58F7784BD09C08091B0007B
:101E10008F7703C08091B0008F7D8093B000F0E099
:101E2000EE0FFF1FEC52FC4FA591B4919FB7F894B1
:101E3000611104C08C913095382302C0EC913E2B87
:101E40003C939FBF0895CF93DF9390E0FC01EE5049
:101E5000FC4F2491FC01E252FC4F8491882361F1F4
:101E600090E0880F991FFC01E455FC4FC591D49177
:101E7000FC01EC52FC4FA591B491611109C09FB7D0
:101E8000F8948881209582238883EC912E230BC0BF
:101E9000623061F49FB7F8948881322F30958323A4
:101EA0008883EC912E2B2C939FBF06C08FB7F8949C
:101EB000E8812E2B28838FBFDF91CF9108958E303C
:101EC00008F08E508770806480937C0080917A0047
:101ED000806480937A0080917A0086FDFCCF8091A7
:101EE00078002091790090E0922B08958F929F9234
:101EF000AF92BF92CF92DF92EF92FF926B017C0183
:101F00000E94B40C4B015C01C114D104E104F10442
:101F1000F1F00E94B40CDC01CB0188199909AA09DF
:101F2000BB09883E9340A105B10570F321E0C21AB8
:101F3000D108E108F10888EE880E83E0981EA11C04
:101F4000B11CC114D104E104F10419F7DDCFFF90F5
:101F5000EF90DF90CF90BF90AF909F908F900895BB
:101F60002FB7F8946091420370914303809144032A
:101F7000909145032FBF0895CF93DF93FC012481F7
:101F80003581232B71F0FB01DC01CD91DC91608167
:101F90007181CE010E943C26009719F08C1B9D0B8D
:101FA00002C08FEF9FEFDF91CF910895CF93DF9322
:101FB000FC014481558141155105D9F06115710528
:101FC000C1F09A016417750708F49B01EC01888140
:101FD0009981421B530B5D834C83BC01620F731FBD
:101FE0000E942D26E881F9818C819D81E80FF91FDF
:101FF0001082DF91CF9108950F931F93CF93DF93BA
:10200000EC010E94B00F688779878A879B87E881F7
:10201000F9810284F385E02DCE01099597FF17C061
:102020000E94B00F088519852A853B85DC01CB010C
:10203000801B910BA20BB30B0C811D812E813F8164
:1020400080179107A207B30710F38FEF9FEFDF917F
:10205000CF911F910F910895009769F0FC010190B5
:102060000020E9F73197AF01481B590BBC0187EB02
:1020700093E00C94FC0680E090E0089589E792E0FC
:102080000C942C10FC01448155816081718187EB97
:1020900093E00C94FC06CF93DF930E944210EC0176
:1020A0000E943E108C0F9D1FDF91CF910895CF931A
:1020B000DF93EC01FB0144815581608171810E94B5
:1020C000FA09811103C0CE010E94280ACE01DF91D6
:1020D000CF910895EF92FF920F931F93CF93DF93C9
:1020E000CDB7DEB7A1970FB6F894DEBF0FBECDBF58
:1020F0007C01CB01BA01F701118210821382128296
:10210000158214828E010F5F1F4F22E044E00E946F
:102110004E1CBC01C7010E945B0AA1960FB6F89441
:10212000DEBF0FBECDBFDF91CF911F910F91FF900A
:10213000EF9008950F931F93CF93DF93CDB7DEB742
:1021400062970FB6F894DEBF0FBECDBF8C01CB01F6
:10215000F8011182108213821282158214824AE0E1
:10216000BE016F5F7F4F0E94991CBE016F5F7F4F62
:10217000C8010E945B0A62960FB6F894DEBF0FBEDC
:10218000CDBFDF91CF911F910F9108950C942C102A
:10219000FB01DC0111961C921E9213961C921E925A
:1021A000129715961C921E9214978617970749F05E
:1021B000608171816115710521F0448155810C9414
:1021C0003A0A08959091B6039111FCCF91E0909353
:1021D000B6039093B5032FEF2093B4031092B3038B
:1021E000260F2093B2039093B1039091B103880F0F
:1021F000892B8093B1038091B003813061F41092F8
:10220000B0038091B1038093BB008091BC0083FD3B
:10221000F8CF85EC01C085EE8093BC008091B603B9
:102220008130E1F38091B303861710F46091B3031A
:10223000A0E9B3E0E0E7F3E080E0861721F09D91AC
:1022400091938F5FFACF0895282F30916F03313229
:1022500008F04AC08091B6038111FCCF90916E03C3
:1022600042E04093B6032093B5032FEF2093B403CD
:102270001092B3033093B203EEE4F3E0A0E9B3E0CD
:1022800020E0321721F041914D932F5FFACF109249
:10229000B1032091B103990F922B9093B1039091C8
:1022A000B003913061F41092B0039091B103909318
:1022B000BB009091BC0093FDF8CF95EC01C095EE6A
:1022C0009093BC009091B6039230E1F39091B403E7
:1022D0009F3F79F08091B403803241F08091B40344
:1022E000803331F084E005C081E003C082E001C0AA
:1022F00083E010924D0310926F0310924C030895E7
:10230000CF92DF92EF92FF920F931F93CF93DF93C1
:102310007C018B016A0168ED71E00E94770AD801A7
:1023200014968D919C9115970097C1F0E6018C153C
:102330009D0508F4EC01D801ED91FC911197EC0F8B
:10234000FD1FD08010826D917C91C7010E945B0AB5
:10235000F80180819181C80FD91FD882C701DF9110
:10236000CF911F910F91FF90EF90DF90CF90089544
:102370001F920F920FB60F9211242F933F938F93BA
:102380009F93AF93BF938091420390914303A09199
:102390004403B09145033091C20423E0230F2D374D
:1023A00020F40196A11DB11D05C026E8230F029659
:1023B000A11DB11D2093C204809342039093430357
:1023C000A0934403B0934503809146039091470343
:1023D000A0914803B09149030196A11DB11D8093BE
:1023E000460390934703A0934803B0934903BF91DA
:1023F000AF919F918F913F912F910F900FBE0F90B2
:102400001F901895CF93DF93CDB7DEB7CE55D10986
:102410000FB6F894DEBF0FBECDBF789484B582604E
:1024200084BD84B5816084BD85B5826085BD85B578
:10243000816085BD80916E00816080936E001092F6
:102440008100809181008260809381008091810071
:102450008160809381008091800081608093800002
:102460008091B10084608093B1008091B000816060
:102470008093B00080917A00846080937A0080918C
:102480007A00826080937A0080917A0081608093E4
:102490007A0080917A00806880937A001092C1005F
:1024A000E091C703F091C80382E08083E091C30309
:1024B000F091C4031082E091C503F091C60310822D
:1024C0001092CF03E091CB03F091CC0386E08083A0
:1024D000E091C903F091CA03808180618083E0911B
:1024E000C903F091CA03808188608083E091C903A9
:1024F000F091CA03808180688083E091C903F091E4
:10250000CA0380818F7D808368EE73E080E090E075
:102510000E94760F61E084E00E94230F61E087E073
:102520000E94230F66E070E08AE892E00E948E022B
:1025300065E070E08CE792E00E948E0264E270E059
:1025400070938D0260938C0223EF30E030938F0202
:1025500020938E028FE790E09093910280939002F7
:102560004AE050E0509393024093920230939502D8
:1025700020939402909397028093960270937F0227
:1025800060937E02309381022093800290938302B5
:102590008093820250938502409384023093870295
:1025A00020938602909389028093880282E994E0C6
:1025B0000E948E0580E794E00E948E058BE691E0F4
:1025C0000E94720E0E94B00F6B017C010E94B00F3E
:1025D000DC01CB018C199D09AE09BF09883B9B40EA
:1025E000A105B10598F480E794E00E94F70482E920
:1025F00094E00E94F70487E791E00E94C61062E32E
:1026000070E080E090E00E94760FE0CF89E791E0F3
:102610000E94720E80E891E00E94720E60EA74E0FF
:102620009E012F5F3F4F4901C9010E94150360EAD7
:1026300074E0C4010E94150360EA74E0C4010E94C2
:10264000150383E0282E312C92E0692E712C44244E
:102650004394512C0E94B00F7B018C0120E030E0AC
:10266000A90168966FAF68976996FFAE69976A96F9
:102670000FAF6A976B961FAF6B976C962FAF6C97E7
:102680006D963FAF6D976E964FAF6E976F965FAF3B
:102690006F97A090B202B090B302C090B402D090F5
:1026A000B502E090B602F090B7020091B802109126
:1026B000B90268962FAD689769963FAD69976A969B
:1026C0004FAD6A976B965FAD6B9760E070E080E00E
:1026D00090E00E94382209F00CF47DC70E94B00FF0
:1026E000DC01CB018196A11DB11D8C019D01809360
:1026F000B2021093B3022093B4023093B502109249
:10270000B6021092B7021092B8021092B9028091EC
:10271000B4049091B504DC01ED91FC910084F18545
:10272000E02D0995892B09F424C10091B40410917E
:10273000B50468ED71E0CE01855B9F4F0E94770A7A
:10274000C8010E94FC0F97FD0EC08A30910559F018
:1027500089831A8241E050E0B401CE01855B9F4F2E
:102760000E94FA09EDCF61968EAD9FAD61970497F7
:1027700008F4FAC061E971E0C4010E94770AB4016B
:10278000CE01855B9F4F0E94BC0FAC01BE01655B13
:102790007F4FCE018B5B9F4F0E94801127968EAD9D
:1027A0009FAD2797009719F00E94721C03C060E04C
:1027B00070E0CB017093B9046093B804CE018B5BD9
:1027C0009F4F0E94720AC4010E94720A61E971E07F
:1027D000C4010E94770AB401CE01855B9F4F0E941D
:1027E000BC0FBC016F5F7F4FCE01855B9F4F0E9486
:1027F000D60FC4010E94720A61E971E0C4010E940F
:10280000770AB401CE01855B9F4F0E94BC0FAC01DB
:10281000BE01655B7F4FCE018B5B9F4F0E94801195
:1028200027968EAD9FAD2797009719F00E94721CD6
:1028300003C060E070E0CB017093B7046093B6040E
:10284000CE018B5B9F4F0E94720AC4010E94720AE4
:1028500061E971E0C4010E94770AB401CE01855B91
:102860009F4F0E94BC0FBC016F5F7F4FCE01855B05
:102870009F4F0E94D60FC4010E94720A61E971E065
:10288000C4010E94770AB401CE01855B9F4F0E946C
:10289000BC0FAC01BE01655B7F4FCE018B5B9F4FD0
:1028A0000E94801127968EAD9FAD2797009719F053
:1028B0000E946E1C03C060E070E0CB016093BA041C
:1028C0007093BB048093BC049093BD04CE018B5BDA
:1028D0009F4F0E94720AC4010E94720A61E971E06E
:1028E000C4010E94770AB401CE01855B9F4F0E940C
:1028F000BC0FBC016F5F7F4FCE01855B9F4F0E9475
:10290000D60FC4010E94720A61E971E0C4010E94FD
:10291000770AB401CE01855B9F4F0E94BC0FAC01CA
:10292000BE01655B7F4FCE018B5B9F4F0E94801184
:1029300027968EAD9FAD2797009719F00E946E1CC9
:1029400003C060E070E0CB016093BE047093BF04ED
:102950008093C0049093C104CE018B5B9F4F0E9473
:10296000720AC4010E94720ACE01855B9F4F0E94C9
:10297000720A82E994E00E940D0480E794E00E94CC
:102980000D0480916D040E945F0F90936F048093FB
:102990006E0480916A040E945F0F90936C04809390
:1029A0006B04809167040E945F0F90936904809389
:1029B0006804809164040E945F0F90936604809382
:1029C00065048091B0029091B1028230910509F4C2
:1029D0002BC18330910509F450C2019709F0DDC283
:1029E00083E991E00E94C61060EA74E0C4010E948D
:1029F000150349815A816B817C81CE018B5B9F4F8E
:102A00000E946A106AE971E0CE01855B9F4F0E94C7
:102A1000770ABE016B5B7F4FCE01855B9F4F0E94A3
:102A200057100E944210CE01855B9F4F0E94720A90
:102A3000CE018B5B9F4F0E94720A60EA74E0C40172
:102A40000E9415034D815E816F817885CE018B5B7D
:102A50009F4F0E946A106FE971E0CE01855B9F4F26
:102A60000E94770ABE016B5B7F4FCE01855B9F4F53
:102A70000E9457100E944210CE01855B9F4F0E941A
:102A8000720ACE018B5B9F4F0E94720A60EA74E06B
:102A9000C4010E94150349855A856B857C85CE014A
:102AA0008B5B9F4F0E946A1064EA71E0CE01855BE8
:102AB0009F4F0E94770ABE016B5B7F4FCE01855B03
:102AC0009F4F0E9457100E944210CE01855B9F4F7E
:102AD0000E94720ACE018B5B9F4F0E94720A409146
:102AE0009404509195046091960470919704C401E8
:102AF0000E946A1069EA71E0CE018B5B9F4F0E94D1
:102B0000770AB401CE018B5B9F4F0E9457100E9441
:102B10004210CE018B5B9F4F0E94720AC4010E943B
:102B2000720A2091B0043091B1044091B2045091E6
:102B3000B30460919C0470919D0480919E049091D7
:102B40009F040E945522AB01BC01C4010E946A107F
:102B50006DEA71E0CE018B5B9F4F0E94770AB40152
:102B6000CE018B5B9F4F0E9457100E944210CE01F6
:102B70008B5B9F4F0E94720AC4010E94720A2091CF
:102B8000AC043091AD044091AE045091AF0460911B
:102B900098047091990480919A0490919B040E94EA
:102BA0005522AB01BC01C4010E946A1061EB71E0C7
:102BB000CE018B5B9F4F0E94770AB401CE018B5BE5
:102BC0009F4F0E9457100E944210CE018B5B9F4F77
:102BD0000E94720AC4010E94720A85EB91E00E9471
:102BE000C61060916E0470916F04C4010E949A1027
:102BF0006EEB71E0CE018B5B9F4F0E94770AB401B0
:102C0000CE018B5B9F4F0E9457100E944210CE0155
:102C10008B5B9F4F0E94720AC4010E94720A6091EE
:102C20006B0470916C0423C186EC91E00E94C61085
:102C30006EE774E0C4010E94150349815A816B81DB
:102C40007C81CE018B5B9F4F0E946A106AE971E024
:102C5000CE01855B9F4F0E94770ABE016B5B7F4F61
:102C6000CE01855B9F4F0E9457100E944210CE01FB
:102C7000855B9F4F0E94720ACE018B5B9F4F0E9423
:102C8000720A6EE774E0C4010E9415034D815E81F3
:102C90006F817885CE018B5B9F4F0E946A106FE930
:102CA00071E0CE01855B9F4F0E94770ABE016B5B8E
:102CB0007F4FCE01855B9F4F0E9457100E944210AC
:102CC000CE01855B9F4F0E94720ACE018B5B9F4FA6
:102CD0000E94720A6EE774E0C4010E9415034985E0
:102CE0005A856B857C85CE018B5B9F4F0E946A1055
:102CF00064EA71E0CE01855B9F4F0E94770ABE01B6
:102D00006B5B7F4FCE01855B9F4F0E9457100E94E7
:102D10004210CE01855B9F4F0E94720ACE018B5BF1
:102D20009F4F0E94720A4091720450917304609107
:102D3000740470917504C4010E946A1069EA71E01C
:102D4000CE018B5B9F4F0E94770AB401CE018B5B53
:102D50009F4F0E9457100E944210CE018B5B9F4FE5
:102D60000E94720AC4010E94720A20918E0430915E
:102D70008F04409190045091910460917A04709175
:102D80007B0480917C0490917D040E945522AB01CC
:102D9000BC01C4010E946A106DEA71E0CE018B5B38
:102DA0009F4F0E94770AB401CE018B5B9F4F0E9418
:102DB00057100E944210CE018B5B9F4F0E94720AF7
:102DC000C4010E94720A20918A0430918B044091C0
:102DD0008C0450918D0460917604709177048091F9
:102DE0007804909179040E945522AB01BC01C40182
:102DF0000E946A1061EB71E0CE018B5B9F4F0E94D5
:102E0000770AB401CE018B5B9F4F0E9457100E943E
:102E10004210CE018B5B9F4F0E94720AC4010E9438
:102E2000720A85EB91E00E94C6106091680470916F
:102E30006904C4010E949A106EEB71E0CE018B5BB5
:102E40009F4F0E94770AB401CE018B5B9F4F0E9477
:102E500057100E944210CE018B5B9F4F0E94720A56
:102E6000C4010E94720A6091650470916604C401F5
:102E70000E949A1062EC71E07BC08DEC91E00E94A0
:102E8000C6106091B8047091B9046C34BFEF7B0731
:102E900014F468597E4FC4010E949A1061EB71E0EE
:102EA000CE018B5B9F4F0E94770AB401CE018B5BF2
:102EB0009F4F0E9457100E944210CE018B5B9F4F84
:102EC0000E94720AC4010E94720A6091B604709155
:102ED000B7046C340FEF700714F468597E4FC401C7
:102EE0000E949A106DEA71E0CE018B5B9F4F0E94A9
:102EF000770AB401CE018B5B9F4F0E9457100E944E
:102F00004210CE018B5B9F4F0E94720AC4010E9447
:102F1000720A4091BA045091BB046091BC04709154
:102F2000BD04C4010E946A1064ED71E0CE018B5BA8
:102F30009F4F0E94770AB401CE018B5B9F4F0E9486
:102F400057100E944210CE018B5B9F4F0E94720A65
:102F5000C4010E94720A4091BE045091BF04609166
:102F6000C0047091C104C4010E946A1069ED71E04F
:102F7000CE018B5B9F4F0E94770AB401CE018B5B21
:102F80009F4F0E9457100E944B10CE018B5B9F4FAA
:102F90000E94720AC4010E94720A87EB93E00E94A9
:102FA00057071816190644F587EB93E00E9435077A
:102FB000823729F45092B1024092B0021DC08C3683
:102FC00029F47092B1026092B00216C0833629F4DF
:102FD0003092B1022092B0020FC08D3639F424E055
:102FE00030E03093B1022093B00206C08E3621F457
:102FF0001092B1021092B0028091B0029091B10291
:10300000049709F0E8C2C090BA04D090BB04E090E5
:10301000BC04F090BD0420E030E0A901C701B60176
:103020000E94C023181694F420E030E040EA50E4F7
:10303000C701B6010E94C023181644F4B701A601C7
:10304000CE018F5A9F4F0E946A1007C067ED71E052
:10305000CE018F5A9F4F0E94770A67ED71E0CE0133
:10306000855B9F4F0E94770AC090BA04D090BB0442
:10307000E090BC04F090BD0420E030E0A901C7015D
:10308000B6010E94C02318166CF420E030E040EA3C
:1030900050E4C701B6010E94C02318161CF468E56D
:1030A00071E002C062E671E0CE018B5B9F4F0E942F
:1030B000770A6FED71E0C4010E94770ABE016B5B75
:1030C0007F4FC4010E945710BE01655B7F4F0E9475
:1030D0005710BE016F5A7F4F0E9457100E94421036
:1030E000C4010E94720ACE018B5B9F4F0E94720A3C
:1030F000CE01855B9F4F0E94720ACE018F5A9F4F6F
:103100000E94720A86EE91E00E94C6100E9430036F
:1031100020E030E040EA50E40E94C02318162CF072
:103120008DEE91E00E94C6108CC00E945A039C0153
:103130002E5231092E30314018F087E092E006C05F
:10314000823E91050CF44AC281E192E00E94C610D1
:103150000E945A038C0167ED71E0CE018B5B9F4F9B
:103160000E94770ABE016B5B7F4FCE01855B9F4F4C
:103170000E94C8104AE0B401C8010E94991CF401E1
:1031800001900020E9F73197AF0148195909B401BE
:10319000CE01855B9F4F0E94FA09811105C0CE01C7
:1031A000855B9F4F0E94280ACE01855B9F4F0E943E
:1031B0004210CE01855B9F4F0E94720ACE018B5B4D
:1031C0009F4F0E94720A0E9430036B017C0167EDE1
:1031D00071E0CE018B5B9F4F0E94770ABE016B5B53
:1031E0007F4FCE01855B9F4F0E94C810840122E073
:1031F00044E0C701B6010E944E1CFC010190002072
:10320000E9F73197AF01481B590BBC01CE01855B33
:103210009F4F0E94FA09811105C0CE01855B9F4F27
:103220000E94280ACE01855B9F4F0E944210CE016A
:10323000855B9F4F0E94720ACE018B5B9F4F0E945D
:10324000720A88EF91E00E94C6102091B00430917C
:10325000B1044091B2045091B30460919C04709108
:103260009D0480919E0490919F040E9455220E948B
:1032700063239B0177FF04C022273327261B370BCC
:103280003093AF022093AE022A3031050CF44DC0CA
:103290008091AA029091AB02A091AC02B091AD02D4
:1032A0008196A11DB11D8093AA029093AB02A093B9
:1032B000AC02B093AD0260EA74E0C4010E94150351
:1032C00020E030E0A90169857A858B859C850E9484
:1032D000C02360EA74E018164CF4CE018D960E946B
:1032E00015032DA93EA94FA958AD0DC0CE01C99611
:1032F0000E94150325968CAD9DADAEADBFAD259753
:103300009C01AD0150586091A6027091A702809176
:10331000A8029091A9020E9456226093A60270937F
:10332000A7028093A8029093A9028091AE02909187
:10333000AF028A309105BCF42091A4023091A5021D
:103340002A30310584F01092A6021092A702109242
:10335000A8021092A9021092AA021092AB02109237
:10336000AC021092AD029093A5028093A4026091EA
:10337000AA027091AB028091AC029091AD02161638
:10338000170618061906F4F50E948B2020E030E09D
:1033900044E052E40E94F1229B01AC016091A6023C
:1033A0007091A7028091A8029091A9020E94F12237
:1033B000AB01BC01CE01855B9F4F0E946A1067ED97
:1033C00071E0C4010E94770AB401CE018B5B9F4F6C
:1033D0000E94C810BE01655B7F4FCE018B5B9F4F83
:1033E0000E9457100E944210CE018B5B9F4F0E949B
:1033F000720AC4010E94720ACE01855B9F4F0E942F
:10340000720A04C082E691E00E94C61080E092E059
:103410000E94C61020918E0430918F044091900438
:103420005091910460917A0470917B0480917C04A6
:1034300090917D040E9455220E9463239B0177FF97
:1034400004C022273327261B370B3093A302209377
:10345000A2022A3031050CF44BC080919E0290915B
:103460009F02A091A002B091A1028196A11DB11D61
:1034700080939E0290939F02A093A002B093A1021A
:103480006EE774E0C4010E94150320E030E0A9015A
:1034900069857A858B859C850E94C0236EE774E0E0
:1034A00018164CF4CE0145960E9415032D8D3E8DC5
:1034B0004F8D58A10BC0CE0181960E94150389A59E
:1034C0009AA5ABA5BCA59C01AD01505860919A028C
:1034D00070919B0280919C0290919D020E945622C5
:1034E00060939A0270939B0280939C0290939D023A
:1034F0008091A2029091A3028A309105BCF42091A0
:103500009802309199022A30310584F010929A0283
:1035100010929B0210929C0210929D0210929E02A9
:1035200010929F021092A0021092A1029093990211
:103530008093980260919E0270919F028091A002F8
:103540009091A1021616170618061906F4F50E94A6
:103550008B2020E030E044E052E40E94F1229B0105
:10356000AC0160919A0270919B0280919C029091B3
:103570009D020E94F122AB01BC01CE01855B9F4FF1
:103580000E946A1067ED71E0C4010E94770AB401DD
:10359000CE018B5B9F4F0E94C810BE01655B7F4FC1
:1035A000CE018B5B9F4F0E9457100E944210CE01AC
:1035B0008B5B9F4F0E94720AC4010E94720ACE0167
:1035C000855B9F4F0E94720A04C082E691E00E94D0
:1035D000C6100E943E100E94FE073CC88838910524
:1035E0001CF087E192E0B2CD80E292E0AFCDFF9295
:1035F0000F931F93CF93DF93EC018B01F42EFC010B
:1036000032968CE0DF01982F1D929A95E9F73C964F
:10361000DF011D928A95E9F78CE090E00E94312449
:10362000FC0188E191E091838083C801110FAA0B0E
:10363000BB0B86839783A087B187F38284E594E0F0
:1036400095838483F983E883DF91CF911F910F9154
:10365000FF900895CF92DF92EF92FF92CF93DF9386
:103660001092BA031092B90398EEC92E93E0D92EA6
:10367000E12CF12CC092BB03D092BC03E092BD03BD
:10368000F092BE0386E291E09093B8038093B70373
:1036900085EC90E09093C4038093C30384EC90E0A6
:1036A0009093C6038093C50380EC90E09093C80389
:1036B0008093C70381EC90E09093CA038093C90381
:1036C00082EC90E09093CC038093CB0386EC90E067
:1036D0009093CE038093CD031092D0031092D10328
:1036E0001092D2031092D3031092570410925604F2
:1036F000C0925804D0925904E0925A04F0925B04AC
:1037000088E391E090935504809354048FE190E016
:103710000E943124EC011B821A82CC82DD82EE826F
:10372000FF828AE491E0998388831F8A1E8A198E1A
:10373000188E1B8E1A8E1D8E1C8E6E8D6E7F6D7F69
:103740006E8F6695617081E0682782E00E94D60ED8
:1037500061E082E00E94230FE4EFF3E0E491E88B64
:10376000E0EEF3E0E491F0E0EE0FFF1FEC52FC4FCF
:10377000859194919A8B898B60E083E00E94230F5E
:103780008E8D81FD04C061E083E00E94D60E83E04F
:103790008C87E5EFF3E0E491ED87E1EEF3E0E4916F
:1037A000F0E0EE0FFF1FE653FC4F859194919F8749
:1037B0008E87D093B504C093B4048DE991E09D8FBA
:1037C0008C8F2DEB30E03F8B2E8B2BE931E0398F46
:1037D000288F2CE231E03B8F2A8F209168002460F3
:1037E000209368002DE630E03C8B2B8B28E02D8B5E
:1037F0000197F1F7E0916204F0916304CE17DF07BF
:10380000D1F0309739F0A389B4899C91858980954E
:1038100089238C938E8D8E7F8E8F109261041092EF
:103820006004D0936304C0936204EB89FC899081A7
:103830008D89892B808349E250E061E070E082E964
:1038400094E00E94F71A48E250E062E070E080E7FE
:1038500094E00E94F71A10926F0410926E0481E1B6
:1038600080936D0410926C0410926B048FE080932F
:103870006A04109269041092680480E180936704DE
:1038800010926604109265048EE080936404DF91C8
:10389000CF91FF90EF90DF90CF900895EF920F932C
:1038A0001F93CF93DF93E80147FD02C034E001C0CE
:1038B00034E1042E000C550B57FF03C05195419580
:1038C0005109E32E022F242FAE010E94D31CCE01FA
:1038D000DF91CF911F910F91EF9008956627772781
:1038E0000C942D1E1F93FC0199278827BC01E89496
:1038F00011911032E9F3193010F01E30C8F31B3269
:1039000051F01D3249F4689406C00E94A41C610F56
:10391000711D811D911D119110531A30B0F33EF4A9
:1039200090958095709561957F4F8F4F9F4F1F9118
:103930000895BB274A3031F4992322F4BDE29095D3
:1039400081959F4F0C94BA1C592F482F372F262F43
:10395000660F771F881F991F660F771F881F991F93
:10396000620F731F841F951F660F771F881F991F93
:103970000895BB27FB015527AA27880F991FAA1F67
:10398000A41710F0A41B83955051B9F7A05DAA337A
:1039900008F0A95DA193009779F7B111B193119245
:1039A000CB010C947420A9E0B0E0E9EDFCE10C94AB
:1039B000BC216A01122FB02E2BE3201720F0FF2428
:1039C000F394F00E02C02CE3F22E0F2D27E0AE018F
:1039D0004F5F5F4F0E947B1FBC014981842F89701C
:1039E000813031F0E1FC06C0E0FE06C090E205C087
:1039F0009DE203C09BE201C090E05E2D507143FF49
:103A00003CC0911102C083E001C084E0811718F42A
:103A1000212F281B01C020E051110BC0F601822F7D
:103A200030E2882319F031938150FBCFC20ED11CB4
:103A300020E0992329F0D6019C93F60131966F017D
:103A4000C6010396E2FE0AC03EE4D6013C9341E47F
:103A500011964C93119712963C9306C03EE6F601E0
:103A6000308341E641833283FC01322F40E233232D
:103A700009F442C041933150FACF42FF44C0911142
:103A800002C083E001C084E0811718F4212F281BB5
:103A900001C020E051110BC0F601822F30E28823D3
:103AA00019F031938150FBCFC20ED11C20E0992335
:103AB00029F0D6019C93F60131966F01C601039659
:103AC000E2FE0BC039E4D6013C933EE411963C93F0
:103AD000119736E412963C9307C039E6F60130831D
:103AE0003EE6318336E63283FC01322F40E2332357
:103AF00019F041933150FBCFFC01E20FF11D108210
:103B00008EEF9FEFA6C021E030E0911102C020E0CF
:103B100030E0161617061CF4FB01319602C0E1E0F6
:103B2000F0E02E0F3F1FBB2021F0EB2DF0E031968F
:103B300002C0E0E0F0E02E0F3F1FE12FF0E02E1773
:103B40003F071CF4121B212F01C020E08E2D88712D
:103B500059F4F601822F30E2882319F03193815015
:103B6000FBCFC20ED11C20E0992329F0D6019C93F3
:103B7000F60131966F0151110BC0F601822F90E3CF
:103B8000882319F091938150FBCFC20ED11C20E005
:103B90000F2D060F9A81342F307144FF03C09133EB
:103BA00009F40150101624F4093018F008E001C09F
:103BB00001E0AB0177FF02C040E050E0FB01E41BF5
:103BC000F50BA1E0B0E0AC0FBD1FEA0FFB1F8EE2CA
:103BD000A82E4B01801A91080B2D10E0119501952C
:103BE00011094F3FBFEF5B0721F4D601AC9211964C
:103BF0006D01641775072CF08416950614F4818105
:103C000001C080E3415051093196D60111967D01E2
:103C10004017510724F0D6018C936701E2CF641757
:103C2000750739F4963320F4953319F4311101C036
:103C300081E3F6018083F701822F90E2882319F057
:103C400091938150FBCFF701E20FF11D108280E0CC
:103C500090E02996ECE00C94D821A0E0B0E0E3E3FA
:103C6000FEE10C94BC21EC016B016115710519F0AA
:103C7000FB01918380837E01FFEFEF1AFF0A088129
:103C8000802F90E00E945320892B11F0E701F3CFA1
:103C90000D3239F47E0182E0E80EF11C098111E059
:103CA00008C00B3229F47E0192E0E90EF11C098173
:103CB00010E0E701219743E050E060EC70E0CE01B6
:103CC0000E945C20892BC1F4239645E050E06BEB09
:103CD00070E0CE010E945C20892B09F42596C11466
:103CE000D10419F0F601D183C0831111F6C060E050
:103CF00070E080E89FE7FAC043E050E068EB70E0D6
:103D0000CE010E945C20892B59F4C114D10409F41E
:103D1000E9C0F2E0EF0EF11CF601F182E082E2C0B0
:103D200020E030E0A901C0E0D0E0F70180EDA82E4E
:103D3000A00E89E08A1530F1912F9260B92E812F63
:103D4000887012FF04C0811124C0219622C0811105
:103D50002197A5E0B0E00E94AB21DC01CB01880FE8
:103D6000991FAA1FBB1F9C01AD012A0D311D411DCA
:103D7000511D283989E93807480789E1580748F073
:103D8000166006C09EEFA9120AC013FD40C018605D
:103D9000B12E8FEFE81AF80A00811B2DC6CF802FB5
:103DA0008F7D8534A1F580818D3211F4106106C0BC
:103DB0008B3221F0319661E070E004C0818132964F
:103DC00062E070E080538A3018F0E61BF70B1FC0EA
:103DD00060E070E060389CE079075CF4DB01AA0FDA
:103DE000BB1FAA0FBB1F6A0F7B1F660F771F680FD1
:103DF000711D3196DF0111978C9180538A3050F3F9
:103E000014FF03C0719561957109C60FD71F11FF8B
:103E100008C0C114D10429F0CF010197F6019183A4
:103E20008083CA01B9010E948920212F2370233089
:103E300019F04B015C0106C04B015C01B7FAB0946C
:103E4000B7F8B09420E030E0A901C501B4010E94A8
:103E50008420882309F43EC0D7FF06C0D195C195C0
:103E6000D10907ED10E002C00FEE10E06801F8E1A3
:103E7000CF1AD10890E2E92EF12CCE15DF0574F0AF
:103E8000F8012591359145915491C501B4010E94E5
:103E9000EA204B015C01CE19DF09EFCF0450110974
:103EA000F594E7940C151D0541F78A2D880F8B2D8D
:103EB000881F8F3F49F020E030E0A901C501B4011F
:103EC0000E948420811106C082E290E09093C40495
:103ED0008093C304C501B40109C060E070E080E8CC
:103EE0009FEF04C060E070E080EC9FE7CDB7DEB7E5
:103EF000ECE00C94D821283008F027E03327DA01D1
:103F0000990F311D87FD916000966105710539F4A7
:103F100032602E5F3D9330E32A95E1F708959F3F8D
:103F200030F080387105610509F03C5F3C5F3D93DE
:103F3000913008F08068911DDF93CF931F930F930A
:103F4000FF92EF92192F987F9695E92F9695969567
:103F5000E90FFF27E35BFE4F99273327EE24FF2469
:103F6000A701E70105900894079428F4360FE71E8F
:103F7000F81E491F511D660F771F881F991F069451
:103F8000A1F70590079428F4E70EF81E491F561F65
:103F9000C11D770F881F991F661F0694A1F7059012
:103FA000079428F4F80E491F561FC71FD11D880F0C
:103FB000991F661F771F0694A1F70590079420F4B8
:103FC000490F561FC71FD81F990F661F771F881FDD
:103FD0000694A9F784911095177041F0D695C7956E
:103FE00057954795F794E7941A95C1F7E3EFF0E0FA
:103FF00068941590159135916591959105907FE2A2
:104000007395E118F10A430B560BC90BD009C0F7A1
:10401000E10CF11E431F561FC91FD01D7EF47033E3
:1040200011F48A95E6CFE894015030F0080F0AF4B5
:104030000027021708F4202F2395022F7A3328F047
:1040400079E37D932A95E9F710C07D932A9589F647
:10405000069497956795379517951794E118F10A87
:10406000430B560BC90BD00998F023957E9173959D
:104070007A3308F070E37C932013B8F77E91706177
:104080007D9330F0839571E37D9370E32A95E1F79A
:104090001124EF90FF900F911F91CF91DF919927FD
:1040A00087FD9095089591110C945721803219F055
:1040B00089508550C8F70895FB01DC0141505040FC
:1040C00088F08D9181341CF08B350CF4805E659105
:1040D00061341CF06B350CF4605E861B611171F36A
:1040E000990B0895881BFCCFDC01FC01672F7191AF
:1040F0007723E1F7329704C07C916D9370836291CE
:10410000AE17BF07C8F308950E94C62008F481E0E7
:104110000895E89409C097FB3EF4909580957095BA
:1041200061957F4F8F4F9F4F9923A9F0F92F96E903
:10413000BB279395F695879577956795B795F11178
:10414000F8CFFAF4BB0F11F460FF1BC06F5F7F4F15
:104150008F4F9F4F16C0882311F096E911C0772327
:1041600021F09EE8872F762F05C0662371F096E830
:10417000862F70E060E02AF09A95660F771F881FFF
:10418000DAF7880F9695879597F90895990F0008A3
:10419000550FAA0BE0E8FEEF16161706E807F90719
:1041A000C0F012161306E407F50798F0621B730BB4
:1041B000840B950B39F40A2661F0232B242B252B35
:1041C00021F408950A2609F4A140A6958FEF811DD8
:1041D000811D08950E94FD200C9471210E9463218D
:1041E00038F00E946A2120F0952311F00C945A2196
:1041F0000C94602111240C94A5210E94822170F35B
:10420000959FC1F3950F50E0551F629FF001729F7B
:10421000BB27F00DB11D639FAA27F00DB11DAA1F8A
:10422000649F6627B00DA11D661F829F2227B00DD7
:10423000A11D621F739FB00DA11D621F839FA00D62
:10424000611D221F749F3327A00D611D231F849FB2
:10425000600D211D822F762F6A2F11249F57504009
:104260009AF0F1F088234AF0EE0FFF1FBB1F661F84
:10427000771F881F91505040A9F79E3F510580F04D
:104280000C945A210C94A5215F3FE4F3983ED4F39B
:10429000869577956795B795F795E7959F5FC1F7F1
:1042A000FE2B880F911D9695879597F9089599276C
:1042B0008827089597F99F6780E870E060E0089587
:1042C0009FEF80EC089500240A941616170618062E
:1042D0000906089500240A9412161306140605060A
:1042E0000895092E0394000C11F4882352F0BB0F9B
:1042F00040F4BF2B11F460FF04C06F5F7F4F8F4FFE
:104300009F4F089557FD9058440F551F59F05F3F38
:1043100071F04795880F97FB991F61F09F3F79F0E7
:1043200087950895121613061406551FF2CF469569
:10433000F1DF08C0161617061806991FF1CF8695EB
:104340007105610508940895E894BB2766277727CF
:10435000CB0197F908950E94ED21A59F900DB49F80
:10436000900DA49F800D911D112408952F923F92CE
:104370004F925F926F927F928F929F92AF92BF9275
:10438000CF92DF92EF92FF920F931F93CF93DF9321
:10439000CDB7DEB7CA1BDB0B0FB6F894DEBF0FBE7E
:1043A000CDBF09942A88398848885F846E847D84CB
:1043B0008C849B84AA84B984C884DF80EE80FD80CD
:1043C0000C811B81AA81B981CE0FD11D0FB6F89443
:1043D000DEBF0FBECDBFED010895A29FB001B39F18
:1043E000C001A39F700D811D1124911DB29F700DFE
:1043F000811D1124911D089597FB072E16F400943A
:1044000007D077FD09D00E94412207FC05D03EF479
:10441000909581959F4F0895709561957F4F089570
:10442000A1E21A2EAA1BBB1BFD010DC0AA1FBB1FB8
:10443000EE1FFF1FA217B307E407F50720F0A21B2A
:10444000B30BE40BF50B661F771F881F991F1A9497
:1044500069F760957095809590959B01AC01BD01C1
:10446000CF010895EE0FFF1F0590F491E02D099400
:104470002A153B054C055D056E057F0580079107F4
:104480000895AA1BBB1B51E107C0AA1FBB1FA6179B
:10449000B70710F0A61BB70B881F991F5A95A9F7ED
:1044A00080959095BC01CD0108955058BB27AA274F
:1044B0000E946D220C9471210E94632138F00E94A9
:1044C0006A2120F039F49F3F19F426F40C946021FE
:1044D0000EF4E095E7FB0C945A21E92F0E9482210B
:1044E00058F3BA17620773078407950720F079F429
:1044F000A6F50C94A4210EF4E0950B2EBA2FA02D56
:104500000B01B90190010C01CA01A0011124FF2780
:10451000591B99F0593F50F4503E68F11A16F0407B
:10452000A22F232F342F4427585FF3CF469537957A
:104530002795A795F0405395C9F77EF41F16BA0B3F
:10454000620B730B840BBAF09150A1F0FF0FBB1FED
:10455000661F771F881FC2F70EC0BA0F621F731F36
:10456000841F48F4879577956795B795F7959E3F93
:1045700008F0B0CF9395880F08F09927EE0F979524
:1045800087950895DF93DD27B92FBF7740E85FE374
:104590001616170648075B0718F4D92F0E94C52383
:1045A0009F938F937F936F930E941324EAE8F0E028
:1045B0000E9499230E9471212F913F914F915F9109
:1045C0000E94FD20DD2351F09058A2EA2AED3FE041
:1045D00049EC5FE3D0785D270E946D22DF910C9457
:1045E00071210E9405230C9471210E946A2158F0C8
:1045F0000E94632140F029F45F3F29F00C945A2176
:1046000051110C94A5210C9460210E94822168F321
:104610009923B1F3552391F3951B550BBB27AA277B
:1046200062177307840738F09F5F5F4F220F331FB5
:10463000441FAA1FA9F335D00E2E3AF0E0E832D07D
:1046400091505040E695001CCAF72BD0FE2F29D080
:10465000660F771F881FBB1F261737074807AB0752
:10466000B0E809F0BB0B802DBF01FF2793585F4FC7
:104670003AF09E3F510578F00C945A210C94A521F4
:104680005F3FE4F3983ED4F3869577956795B795A9
:10469000F7959F5FC9F7880F911D9695879597F9B4
:1046A0000895E1E0660F771F881FBB1F621773072D
:1046B0008407BA0720F0621B730B840BBA0BEE1F42
:1046C00088F7E09508950E946A236894B1110C94CC
:1046D000A52108950E948A2188F09F5798F0B92F4C
:1046E0009927B751B0F0E1F0660F771F881F991F27
:1046F0001AF0BA95C9F714C0B13091F00E94A42104
:10470000B1E008950C94A421672F782F8827B85F13
:1047100039F0B93FCCF3869577956795B395D9F77E
:104720003EF490958095709561957F4F8F4F9F4F88
:104730000895DF93CF931F930F93FF92EF92DF9231
:104740007B018C01689406C0DA2EEF010E94FD20E7
:10475000FE01E894A5912591359145915591A6F3D7
:10476000EF010E946D22FE019701A801DA9469F71A
:10477000DF90EF90FF900F911F91CF91DF910895FF
:104780000E94C62008F48FEF08959B01AC0160E001
:1047900070E080E89FE30C94F12219F416F40C9475
:1047A00060210C941C240E948A21B8F39923C9F338
:1047B000B6F39F57550B87FF0E942A240024A0E6DA
:1047C00040EA900180585695979528F4805C660FD2
:1047D000771F881F20F026173707480730F4621B21
:1047E000730B840B202931294A2BA6951794079423
:1047F000202531254A2758F7660F771F881F20F09C
:1048000026173707480730F4620B730B840B200D13
:10481000311D411DA09581F7B901842F9158880F52
:104820009695879508959B01AC010C94EA200E940F
:10483000C620880B990B08959F3F31F0915020F4CA
:10484000879577956795B795880F911D969587956C
:1048500097F9089591505040660F771F881FD2F73F
:1048600008950F931F93CF93DF938230910510F437
:1048700082E090E0E091C704F091C80420E030E0CD
:10488000A0E0B0E0309719F140815181028113819D
:1048900048175907C8F08417950769F4109731F045
:1048A00012960C93129713961C9327C00093C7047B
:1048B0001093C80422C02115310519F0421753077F
:1048C00018F49A01BD01EF01DF01F801DBCF2115DA
:1048D0003105F9F0281B390B2430310580F48A8129
:1048E0009B816115710521F0FB019383828304C0D4
:1048F0009093C8048093C704FE01329644C0FE0121
:10490000E20FF31F81939193225031093983288359
:104910003AC02091C5043091C604232B41F4209164
:104920000201309103013093C6042093C504209105
:104930000001309101012115310541F42DB73EB739
:104940004091040150910501241B350BE091C504F1
:10495000F091C604E217F307A0F42E1B3F0B2817B3
:10496000390778F0AC014E5F5F4F2417350748F0E8
:104970004E0F5F1F5093C6044093C50481939193DB
:1049800002C0E0E0F0E0CF01DF91CF911F910F91E5
:104990000895CF93DF93009709F481C0FC0132970B
:1049A00013821282A091C704B091C804109781F4B9
:1049B00020813181820F931F2091C5043091C6045C
:1049C0002817390751F5F093C604E093C50467C072
:1049D000ED0120E030E0CE17DF0740F44A815B8133
:1049E0009E0141155105F1F0EA01F5CFD383C28351
:1049F00040815181840F951FC817D90759F48881C8
:104A00009981840F951F0296918380838A819B816F
:104A1000938382832115310529F4F093C804E09330
:104A2000C7043DC0E901FB83EA8349915991C40F52
:104A3000D51FEC17FD0761F480819181840F951FCC
:104A40000296E90199838883828193819B838A837B
:104A5000E0E0F0E012968D919C911397009719F089
:104A6000FD01DC01F7CF8D919C9111979D012E5F87
:104A70003F4F820F931F2091C5043091C604281721
:104A8000390769F4309729F41092C8041092C704CA
:104A900002C013821282B093C604A093C504DF91B2
:104AA000CF910895A0E0B0E0E8E5F5E20C94BA21DA
:104AB000EC01009721F4CB010E943124B4C0FC0129
:104AC000E60FF71F9C0122503109E217F30708F4A3
:104AD000A8C0D9010D911C91119706171707B0F0C6
:104AE0000530110508F49BC0C80104978617970785
:104AF00008F495C002501109061B170B019311937E
:104B00006D937C93CF010E94C92489C05B01A01AD8
:104B1000B10A4C01800E911EA091C704B091C80447
:104B2000612C712CE12CF12C109709F446C08D9169
:104B30009C911197A815B905B1F56C0142E0C40E1E
:104B4000D11CCA14DB0478F14C018A189B0864015B
:104B500042E0C40ED11C1296BC9012971396AC91F1
:104B6000B5E0CB16D10440F0B282A383918280825B
:104B7000D9016D937C9309C00E5F1F4F800F911F69
:104B8000F90191838083EB2DFA2FE114F10431F0C8
:104B9000D7011396FC93EE93129741C0F093C8048B
:104BA000E093C7043CC06816790608F43C017D0117
:104BB00012960D90BC91A02DB7CF8091C504909115
:104BC000C60488169906E1F466167706C8F4809143
:104BD000000190910101009741F48DB79EB740917B
:104BE000040150910501841B950BE817F907C8F4DF
:104BF000F093C604E093C504F901718360830FC08C
:104C0000CB010E9431247C01009759F0A801BE011C
:104C10000E941D26CE010E94C924C70104C0CE01F6
:104C200002C080E090E0CDB7DEB7EEE00C94D62174
:104C300081E090E0F8940C945626FB01DC0102C060
:104C400001900D9241505040D8F70895FB01DC01CE
:104C500001900D920020E1F70895FB01DC01415025
:104C6000504048F001900D920020C9F701C01D92FC
:104C700041505040E0F70895FB0151915523A9F0B0
:104C8000BF01DC014D9145174111E1F759F4CD0108
:104C90000190002049F04D9140154111C9F3FB01ED
:104CA0004111EFCF81E090E001970895F894FFCF94
:104CB0000000C90420000000000000000000AB0854
:104CC000E308E30800000000AA080C09AB080E097D
:104CD000B509000000008F07FC062607DC07570710
:104CE00035074907000000005F0232022F0220084A
:104CF000DB08C708B808000000002108FC062F02E6
:104D0000200871088908080809446574656374659A
:104D10006400094E6F7468696E670043616C696274
:104D2000726174696E67002E000A446F6E6521001F
:104D300050726F6772616D20737461727465642163
:104D4000002C007273686F653A00096178090009E8
:104D50006179090009617A09000979090009720974
:104D60000009700900097765696768743A0009737A
:104D70000900096209006C73686F653A0063686531
:104D800073743A0009615A090009616C74090009D9
:104D90004A756D703A000942656E643A00095374B1
:104DA00072616967687409000952696768743A003A
:104DB000094C6566743A00096261636B77617264DD
:104DC00000096C6566740009666F72776172640031
:104DD000097269676874004F6F6F70732C206E6F73
:104DE00020424E4F30353520312064657465637440
:104DF0006564202E2E2E20436865636B20796F75C5
:104E00007220776972696E67206F72204932432081
:104E1000414444522100424E4F303535006E616EA0
:0C4E200000696E66006F7666000D0A00E7
:00000001FF
