:100000000C9414010C943C010C943C010C94D70505
:100010000C94D7050C94D7050C943C010C943C012E
:100020000C943C010C943C010C943C010C943C015C
:100030000C943C010C943C010C943C010C943C014C
:100040000C9491100C943C010C9495050C946F0544
:100050000C943C010C943C010C943C010C943C012C
:100060000C9451060C943C01084AD73B3BCE016EE0
:1000700084BCBFFDC12F3D6C74319ABD56833DDAFF
:100080003D00C77F11BED9E4BB4C3E916BAAAABE0E
:10009000000000803F004E414E494E495459494EA0
:1000A00046CDCCCC3D0AD7233C17B7D13877CC2BE3
:1000B000329595E6241FB14F0A000020410000C888
:1000C0004200401C4620BCBE4CCA1B0E5AAEC59D09
:1000D0007400407A10F35A00A0724E18090010A55F
:1000E000D4E80000E87648170000E40B5402000052
:1000F000CA9A3B000000E1F50500008096980000D8
:100100000040420F000000A0860100000010270000
:10011000000000E803000000006400000000000A86
:1001200000000000000100000000002C76D888DCF0
:10013000674F0823DFC1DFAE59E1B1B796E5E3E4CD
:1001400053C63AE651997696E8E6C28426EB898C46
:100150009B62ED407C6FFCEFBC9C9F40F2BAA56FA8
:10016000A5F490055A2AF75C936B6CF9676DC11B77
:10017000FCE0E40D47FEF520E6B500D0ED902E033F
:1001800000943577050080841E080000204E0A0088
:100190000000C80C333333330F986E12831141EFD4
:1001A0008D2114893BE65516CFFEE6DB18D1844B32
:1001B000381BF77C1D901DA4BBE424203284725EA2
:1001C000228100C9F124ECA1E53D270000000023B5
:1001D000002600290000000000240027002A00005B
:1001E000000000250028002B00040404040404047B
:1001F00004020202020202030303030303010204D6
:100200000810204080010204081020010204081098
:1002100020000000080002010000030407000000A5
:10022000000000000000741E11241FBECFEFD8E0B4
:10023000DEBFCDBF12E0A0E0B1E0E0EDF1E502C02D
:1002400005900D92A43FB107D9F724E0A4EFB2E0E6
:1002500001C01D92AF3EB207E1F711E0C4E1D1E069
:1002600004C02197FE010E94E424C331D107C9F7DD
:100270000E94DB100C94E6280C940000CF92DF92D1
:10028000EF92FF920F931F93CF93DF936C017A014C
:100290008B01C0E0D0E0CE15DF0581F0D8016D9173
:1002A0008D01D601ED91FC910190F081E02DC60108
:1002B0000995892B11F02196EECF7E01C701DF91C0
:1002C000CF911F910F91FF90EF90DF90CF90089505
:1002D000FC01538D448D252F30E0842F90E0821B4C
:1002E000930B541710F0CF96089501970895FC01D1
:1002F000918D828D981761F0828DDF01A80FB11D5D
:100300005D968C91928D9F5F9F73928F90E0089580
:100310008FEF9FEF0895FC01918D828D981731F03A
:10032000828DE80FF11D858D90E008958FEF9FEF8E
:100330000895FC01918D228D892F90E0805C9F4F64
:10034000821B91098F739927089587E394E00E9497
:10035000990121E0892B09F420E0822F0895FC0106
:10036000848DDF01A80FB11DA35ABF4F2C91848D3E
:1003700090E001968F739927848FA689B7892C9373
:10038000A089B1898C91837080648C93938D848DC6
:10039000981306C00288F389E02D80818F7D8083C9
:1003A0000895EF92FF920F931F93CF93DF93EC0189
:1003B00081E0888F9B8D8C8D981305C0E889F98921
:1003C000808185FD26C0F62E0B8D10E00F5F1F4F3C
:1003D0000F731127E02E8C8DE8120CC00FB607FCAE
:1003E000FACFE889F989808185FFF5CFCE010E9497
:1003F000AF01F1CF8B8DFE01E80FF11DE35AFF4FE6
:10040000F0829FB7F8940B8FEA89FB898081806224
:100410000AC09FB7F894EE89FF896083E889F9895B
:1004200080818370806480839FBF81E090E0DF9152
:10043000CF911F910F91FF90EF900895CF93DF938D
:10044000EC01888D8823C9F0EA89FB89808185FDCC
:1004500005C0A889B9898C9186FD0FC00FB607FC2D
:10046000F5CF808185FFF2CFA889B9898C9185FF6E
:10047000EDCFCE010E94AF01E7CFDF91CF9108957C
:1004800080E090E0892B29F00E94A50181110C9455
:10049000000008952091F6023091F70228173907DD
:1004A00071F49091F4028091F502981741F0E09177
:1004B000F402F0E0E757FC4F808190E008958FEF61
:1004C0009FEF089508951F93CF93DF93DC015C960F
:1004D0008D919C915D97009739F421E030E013965F
:1004E0003C932E9312973BC05196ED91FC915297FD
:1004F00050962C915097322F30951FB75E964C91A5
:100500005E97742F727041FD6095F8944081772357
:1005100011F0422B01C043234083EC012197F1F7F6
:1005200048E0508160FF02C0522B01C0532350832A
:10053000EC012197F1F76695415099F78081772377
:1005400019F08323808302C0282B20831FBF5C9671
:100550008D919C915D970197F1F781E090E0DF919B
:10056000CF911F9108952091F6023091F70228173C
:10057000390771F48091F5022091F40290E0805CDB
:100580009F4F821B910960E470E00E94A4240895AB
:1005900080E090E008952091F6023091F70228174C
:1005A0003907B9F49091F4028091F502981789F017
:1005B000E091F402F0E0E757FC4F80812091F402D3
:1005C00030E02F5F3F4F2F7333272093F40290E0EA
:1005D00008958FEF9FEF08950895089585ED809316
:1005E000BC008091BC0084FDFCCF109236040895BD
:1005F00040916603262F30E0240F311D2132310552
:10060000DCF4209136042430C9F4FC0180E090E051
:10061000861758F4309166032191DC01AA5BBC4F28
:10062000A30FB11D2C930196F3CF80916603680F41
:100630006093660380E0089581E0089582E0089564
:1006400008950895E091CB038091CA03E81730F430
:10065000F0E0E051FC4F808190E008958FEF9FEF34
:1006600008959091CB038091CA03981750F4E92F15
:10067000F0E0E051FC4F208130E09F5F9093CB038E
:1006800002C02FEF3FEFC90108958091CA0390E0A7
:100690002091CB03821B91090895CF92DF92EF92B4
:1006A000FF920F931F93CF93DF937C01CB018A01BD
:1006B0002091CC03222389F0EB016B01C40ED51EDF
:1006C000CC15DD0569F06991D701ED91FC910190A0
:1006D000F081E02DC7010995F3CF642F0E94F80245
:1006E000C801DF91CF911F910F91FF90EF90DF90A4
:1006F000CF900895CF93DF931F92CDB7DEB7698374
:100700002091CC032223D1F02091EF03203240F03E
:1007100021E030E0FC013383228380E090E015C0CB
:100720008091CD03E82FF0E0E253FC4F9981908354
:100730008F5F8093CD038093EF0305C061E0CE010E
:1007400001960E94F80281E090E00F90DF91CF9136
:100750000895089580E090E008950E94A8280F93DE
:100760001F93CF93DF93EC0188819981009729F043
:100770002A813B812617370788F48B016F5F7F4FF3
:100780000E94E227009761F0998388831B830A8384
:100790002C813D81232B11F4FC01108281E001C0EA
:1007A00080E0DF91CF911F910F9108950C9459270C
:1007B0008F929F92AF92BF92CF92DF92EF92FF9271
:1007C0000F931F93CF93DF93CDB7DEB762970FB62A
:1007D000F894DEBF0FBECDBF7C018B0184E2DB014C
:1007E0001D928A95E9F784E290E0A0E0B0E0FB0179
:1007F00080839183A283B383F70186819781A0854B
:10080000B185FB0184839583A683B78383E090E061
:10081000A0E0B0E080879187A287B3870E9485100F
:10082000D80150966D937D938D939C935397FE01C1
:1008300031968CE0DF011D928A95E9F7AE01435FA6
:100840005F4F86E0FA0111928A95E9F76AE170E05C
:10085000C7010E94A20E6D857E85072E000C880BB5
:10086000990B0E94EA2220E030E040E85DE30E941C
:1008700049234B015C016F857889072E000C880B9A
:10088000990B0E94EA2220E030E040E85DE30E94FC
:1008900049236B017C0169897A89072E000C880B3A
:1008A000990B0E94EA2220E030E040E85DE30E94DC
:1008B0004923D80154968D929D92AD92BC92579740
:1008C000F801C08ED18EE28EF38E5C966D937D938F
:1008D0008D939C935F9781E062960FB6F894DEBF8C
:1008E0000FBECDBFDF91CF911F910F91FF90EF9081
:1008F000DF90CF90BF90AF909F908F9008950F930F
:100900001F93CF93DF938C01EB0188E2FB011192DF
:100910008A95E9F74BE050E06BEA72E0CE010E9465
:10092000BD281B8681E090E0A0E0B0E08C879D8729
:10093000AE87BF87F80186819781A085B185888BB6
:10094000998BAA8BBB8B83E090E0A0E0B0E08C8B0E
:100950009D8BAE8BBF8B1CA21DA21EA21FA2188E48
:10096000198E1A8E1B8E1C8E1D8E1E8E1F8E8AE077
:1009700097EDA3E2BCE388A399A3AAA3BBA3DF914D
:10098000CF911F910F910895EF92FF920F931F93B4
:10099000CF93DF936115710511F480E01CC0411500
:1009A0005105C1F07B01EC018C819D818A01080F0A
:1009B000191FB801CE010E94AF03882371F328816B
:1009C00039818C819D81B701820F931F0E94B628C7
:1009D0001D830C8381E0DF91CF911F910F91FF90D8
:1009E000EF900895CF93DF93EC0188819981009770
:1009F00011F00E945927198218821D821C821B82C5
:100A00001A82DF91CF910895CF93DF93EC016115A6
:100A1000710561F0FB0101900020E9F73197AF010A
:100A2000461B570B0E94C404811103C0CE010E94D3
:100A3000F204CE01DF91CF910895EF92FF920F93D0
:100A40001F93CF93DF93EC017B018A01BA010E94CF
:100A5000AF03811104C0CE010E94F20407C01D83C0
:100A60000C83B701888199810E94B628CE01DF915D
:100A7000CF911F910F91FF90EF900895CF93DF9347
:100A8000EC016115710559F0FB0101900020E9F7B7
:100A90003197AF01461B570B0E941D0502C00E94F3
:100AA000F204CE01DF91CF910895FC018081918104
:100AB0000C945927FC011182108213821282158234
:100AC00014826115710551F0FB0101900020E9F7D6
:100AD0003197AF01461B570B0C941D0508951F92CB
:100AE0000F920FB60F9211242F933F934F935F9362
:100AF0006F937F938F939F93AF93BF93EF93FF93E6
:100B000087E394E00E94AF01FF91EF91BF91AF9115
:100B10009F918F917F916F915F914F913F912F9115
:100B20000F900FBE0F901F9018951F920F920FB647
:100B30000F9211242F938F939F93EF93FF93E09144
:100B40004704F09148048081E0914D04F0914E04F7
:100B500082FD12C09081809150048F5F8F7320912D
:100B60005104821751F0E0915004F0E0E95CFB4F32
:100B7000958F8093500401C08081FF91EF919F91E8
:100B80008F912F910F900FBE0F901F901895AB0172
:100B90006130714018F461E00C94A20C0895AB012F
:100BA0006130714018F460E00C94A20C08951F921B
:100BB0000F920FB60F9211242F933F934F935F9391
:100BC0006F937F938F939F93AF93BF93EF93FF9315
:100BD000E091F602F091F702309709F451C0968D3A
:100BE000A685B785858591FF04C09C91892329F44A
:100BF00047C09C91892309F043C0A389B4899C9183
:100C00008589809589238C93868997890197F1F747
:100C1000608D718DA685B785558538E020E0CB01C4
:100C20000197F1F7822F90E095958795282F4C91A9
:100C3000452309F02068315091F7868D81FD20957C
:100C40008091F50290E001968F7399273091F4021C
:100C5000381749F0A091F502B0E0A757BC4F2C938C
:100C60008093F50203C0868D8160868F828D938D7F
:100C70000197F1F7A389B4899C918589892B8C937D
:100C8000FF91EF91BF91AF919F918F917F916F9164
:100C90005F914F913F912F910F900FBE0F901F903A
:100CA00018951F920F920FB60F9211242F933F9316
:100CB0004F935F936F937F938F939F93AF93BF9364
:100CC000EF93FF938091B900887F803609F49CC030
:100CD00068F5883209F45BC090F4803109F454C09F
:100CE00038F4882309F4F6C0883009F44DC0F6C002
:100CF000883109F44CC0803209F45DC0EFC0803403
:100D000009F468C048F4803309F455C0883309F009
:100D1000E5C080933404D8C0803509F44FC08835CD
:100D200009F45DC0883409F0D9C0D6C0883909F407
:100D3000C7C0A8F4883709F467C038F4883609F4C6
:100D400063C0803709F460C0C9C0883809F4B8C0EE
:100D5000803909F45FC0803809F0C0C05BC0803BB7
:100D600009F486C038F4803A09F466C0883A09F478
:100D70007FC0B4C0803C09F4A7C0883C09F4A4C07B
:100D8000883B09F48AC0AAC08091310410C09091B8
:100D9000330480913204981770F5E091330481E0B8
:100DA0008E0F80933304F0E0E05FFB4F80818093EF
:100DB000BB0085EC86C0809334048EC0E091330480
:100DC00081E08E0F809333048091BB00F0E0E05F00
:100DD000FB4F808390913304809132046EC0E09188
:100DE000330481E08E0F809333048091BB00F0E0E8
:100DF000E05FFB4F80838091350481116DC081E0FD
:100E00008093300484EA61C083E0809336041092BA
:100E10008803CFCF80918803803208F051C0E091E1
:100E2000880381E08E0F809388038091BB00F0E0FF
:100E3000E859FC4F8083BDCF85EC8093BC001092B5
:100E4000360480918803803230F4E0918803F0E02A
:100E5000E859FC4F10826091880370E0E0914403F0
:100E6000F091450388E693E009951092880336C017
:100E700084E0809336041092670310926603E09139
:100E80004203F0914303099580916603811105C0E7
:100E900081E08093660310924603E091670381E04E
:100EA0008E0F80936703F0E0EA5BFC4F80818093B4
:100EB000BB009091670380916603981708F479CF7F
:100EC00085E88093BC000AC085EC8093BC0010923A
:100ED000360404C0109234040E94EE02FF91EF9198
:100EE000BF91AF919F918F917F916F915F914F9142
:100EF0003F912F910F900FBE0F901F901895CF929A
:100F0000DF92EF92FF929B01245F3F4FFB01C19064
:100F1000D190E190F190BF01FC01C192D192E19298
:100F2000F192CF016217730789F7FF90EF90DF907E
:100F3000CF900895EF92FF920F931F93CF93DF937B
:100F4000CDB7DEB7A4970FB6F894DEBF0FBECDBF06
:100F50008C01FC011682E080F180F701268D378D2F
:100F600040A151A162857385848595850E94EA24FC
:100F700090580E94F825F801708767836A307105E0
:100F80000CF442C085859685A785B0898196A11D00
:100F9000B11D85879687A787B08BB701625F7F4FAA
:100FA000CE0149960E947F0720E030E0A90169A1A7
:100FB0007AA18BA19CA10E945526F80160817181C4
:100FC000625F7F4F18164CF4CE010D960E947F078A
:100FD0002D893E894F89588D0BC0CE0101960E9404
:100FE0007F0789859A85AB85BC859C01AD015058EA
:100FF000F80161897289838994890E94EB24F80140
:10100000618B728B838B948BF801878190858A30FA
:1010100091057CF4218532852A30310554F021E098
:101020002683118A128A138A148A158616861786D1
:10103000108AF8019287818781E04585568567850A
:10104000708914161506160617060CF080E0A49693
:101050000FB6F894DEBF0FBECDBFDF91CF911F91C9
:101060000F91FF90EF900895DC01ED91FC91848148
:1010700095818C34BFEF9B0714F488599E4F2281D1
:1010800033812C344FEF340714F428593E4F889F96
:10109000B001899F700D700D1124229FC001239F04
:1010A000900D900D1124680F791F072E000C880BEE
:1010B000990B0E94EA220C9468268F929F92AF921D
:1010C000BF92CF92DF92EF92FF92CF93DF93FC011A
:1010D000C081D1816C817D816C34FFEF7F0714F476
:1010E00068597E4F072E000C880B990B0E94EA224C
:1010F0006B017C016A817B816C348FEF780714F47B
:1011000068597E4F072E000C880B990B0E94EA222B
:101110004B015C0120E030E0A9010E945526181621
:1011200044F520E030E0A901C701B6010E94552630
:1011300087FD09C0A5019401C701B6010E9486255B
:101140000E94572556C020E030E0A901C701B60132
:101150000E94E32287FF0DC0A5019401C701B601DB
:101160000E9486250E9457252BED3FE049EC50E474
:1011700015C020E030E0A901C501B4010E94E322BE
:1011800087FF0FC0A5019401C701B6010E94862503
:101190000E9457252BED3FE049E450E40E94EB24E8
:1011A00028C020E030E0A901C501B4010E94E3227B
:1011B00081111CC020E030E0A901C701B6010E94E6
:1011C0005526181674F020E030E0A901C701B601D9
:1011D0000E94E32287FF0AC064EE7BEC86E990E47C
:1011E00008C06BED7FE089EC9FE303C060E070E036
:1011F000CB0120E030E044E353E40E9449232BED8F
:101200003FE049E450E40E9486250E94F825CB0186
:10121000DF91CF91FF90EF90DF90CF90BF90AF9094
:101220009F908F9008956F927F928F929F92AF922E
:10123000BF92CF92DF92EF92FF920F931F93CF93C3
:10124000DF93CDB7DEB762970FB6F894DEBF0FBE5F
:10125000CDBF7C01F701819191916F018E010F5FEC
:101260001F4F2CE0F80111922A95E9F75E01FDE08D
:10127000AF0EB11C26E0F50111922A95E9F7A50100
:101280006AE170E00E94A20E8F84988869887A884B
:101290006D857E85072E000C880B990B0E94EA2233
:1012A00020E030E040E85DE30E94492369837A83CF
:1012B0008B839C83B401990C880B990B0E94EA22C2
:1012C00020E030E040E85DE30E9449236D837E83A7
:1012D0008F839887B301770C880B990B0E94EA22C1
:1012E00020E030E040E85DE30E94492369877A8787
:1012F0008B879C8798014701FEE08F0E911CF901B6
:1013000081919191A191B1919F01F6018193919366
:10131000A193B1936F01E815F90589F7F701808171
:1013200091812CE0F80111922A95E9F726E0F50168
:1013300011922A95E9F7A50168E270E00E94A20ED9
:10134000AF84B888C988DA886D857E85072E000C41
:10135000880B990B0E94EA2220E030E048EC52E42E
:101360000E94862569837A838B839C83B501BB0C9D
:10137000880B990B0E94EA2220E030E048EC52E40E
:101380000E9486256D837E838F839887B601DD0C4E
:10139000880B990B0E94EA2220E030E048EC52E4EE
:1013A0000E94862569877A878B879C87FAE1EF0EF2
:1013B000F11CF80181919191A191B1918F01F401FA
:1013C00081939193A193B1934F01EE15FF0589F796
:1013D0008BEC97E00197F1F762960FB6F894DEBFB9
:1013E0000FBECDBFDF91CF911F910F91FF90EF9076
:1013F000DF90CF90BF90AF909F908F907F906F9035
:1014000008958F929F92AF92BF92CF92DF92EF9208
:10141000FF920F931F93CF93DF93CDB7DEB7629701
:101420000FB6F894DEBF0FBECDBF8C01DC018D91ED
:101430009D917D01FE0131966F012CE0DF011D922F
:101440002A95E9F7AE01435F5F4F26E0FA0111925A
:101450002A95E9F76AE170E00E94A20E8F849888CD
:10146000A988BA886D857E85072E000C880B990B9C
:101470000E94EA2220E030E040E85DE30E94492338
:1014800069837A838B839C83B401990C880B990BB5
:101490000E94EA2220E030E040E85DE30E94492318
:1014A0006D837E838F839887B501BB0C880B990B66
:1014B0000E94EA2220E030E040E85DE30E944923F8
:1014C00069877A878B879C87F601C8010E964191C0
:1014D000519161917191D7014D935D936D937D937E
:1014E0007D01A817B90799F7F80182859385A4852E
:1014F000B5854681578160857185428F538F648F92
:10150000758F868F978FA0A3B1A362960FB6F894BC
:10151000DEBF0FBECDBFDF91CF911F910F91FF9026
:10152000EF90DF90CF90BF90AF909F908F900895F5
:101530000F931F93CF93DF938C01FC01C081D18166
:101540001092CB031092CA031092CD031092EF03B6
:101550001092360481E0809335041092300461E0EB
:1015600082E10E94AB0F61E083E10E94AB0F8091AA
:10157000B9008E7F8093B9008091B9008D7F8093F0
:10158000B90088E48093B80085E48093BC0080E2D1
:1015900093E0909343038093420381E293E090931E
:1015A000450380934403CE010E94710F803AC9F431
:1015B0001B861A8640E06DE370E0CE010E94EA0EC1
:1015C0006EE170E080E090E00E944B1040E26FE33B
:1015D00070E0CE010E94EA0E6EE170E080E090E0E3
:1015E00013C068EE73E080E090E00E944B10CE01E3
:1015F0000E94710F803AE1F282EB92E0DF91CF918D
:101600001F910F910C94E80D0E944B10CE010E9487
:10161000710F803A29F06AE070E080E090E0F4CF4A
:1016200062E370E080E090E00E944B1040E06EE3E7
:1016300070E0CE010E94EA0E6AE070E080E090E087
:101640000E944B1040E067E070E0CE010E94EA0E7D
:1016500040E06FE370E0CE010E94EA0E6AE070E0C5
:1016600080E090E00E944B108CE090E09B878A879E
:101670004CE06DE370E0CE010E94EA0E6EE170E096
:1016800080E090E00E944B1064E170E080E090E028
:101690000E944B1064EF71E080E090E00E944B10DC
:1016A000C801DF91CF911F910F910C94010AFF9215
:1016B0000F931F93CF93DF93EC018B01F42EFC016A
:1016C00032968CE0DF01982F1D929A95E9F73C96AF
:1016D000DF011D928A95E9F78CE090E00E94C12617
:1016E000FC018AE291E091838083C801110FAA0B6B
:1016F000BB0B86839783A087B187F38284ED94E048
:1017000095838483F983E883DF91CF911F910F91B3
:10171000FF9008950F931F93CF93DF93EC018B01FC
:10172000842F4E875F8761E00E94F80F83E090E08E
:101730000E94C126FC011183008312829983888351
:101740008CB5837F8CBD8CB58F7D8CBD8CB58C7F2B
:1017500081608CBD8DB581608DBD1FB7F89480917F
:10176000C903811127C0E3EFF1E08491E7E0F2E0E3
:101770009491E82FF0E0EE0FFF1FEB52FE4FA59182
:10178000B491EC91E92321F461E08AE00E94AB0F6F
:1017900061E08AE00E94F80F8CB580618CBD8CB549
:1017A00080648CBD61E08DE00E94F80F61E08BE009
:1017B0000E94F80F8091C9038F5F8093C9031FBFF8
:1017C0000881198161E0F80180810E94F80F61E0D1
:1017D000F80180810E94AB0F60E0F80180810E94D7
:1017E000AB0F4FEF51E064E0C8010E94A20C61E032
:1017F000F80180810E94AB0F60E08E85DF91CF9170
:101800001F910F910C94AB0FCF92DF92EF92FF924A
:10181000CF93DF93FC01DB0164857585C081D181A5
:101820001A161B06BCF46B01770FEE08FF08228521
:101830003385A901330F660B770B9A01AB012C1985
:101840003D094E095F090E94342424E630E040E05F
:1018500050E018C01097F1F06B01770FEE08FF0809
:1018600020853185A901330F660B770B9A01AB01F7
:101870002C193D094E095F090E9434242CE93FEFE1
:101880004FEF5FEF0E940A24CA01B9016C0D7D1D64
:101890008E1D9F1DCE01DF91CF91FF90EF90DF90C5
:1018A000CF900C94CF05CF92DF92EF92FF92CF931F
:1018B000DF93FC01DB0166817781C081D1811A163B
:1018C0001B06BCF46B01770FEE08FF0824813581FD
:1018D000A901330F660B770B9A01AB012C193D0957
:1018E0004E095F090E94342424E630E040E050E0D5
:1018F00018C01097F1F06B01770FEE08FF082281F6
:101900003381A901330F660B770B9A01AB012C19B8
:101910003D094E095F090E9434242CE93FEF4FEF47
:101920005FEF0E940A24CA01B9016C0D7D1D8E1D56
:101930009F1DCE01DF91CF91FF90EF90DF90CF9070
:101940000C94C705CF92DF92EF92FF921F93CF9333
:10195000DF93EC01162F6A018A81811102C060E0D9
:1019600001C061E088810E94AB0FA601517080E147
:10197000189FB0011124652B6EBD00000DB407FE49
:10198000FDCF1EB54EBD00000DB407FEFDCFDEB489
:101990008A81811102C061E001C060E088810E94FB
:1019A000AB0F1170F12EE12CC7018D29DF91CF9182
:1019B0001F91FF90EF90DF90CF900895CF93DF932A
:1019C000FC0124813581232B71F0FB01DC01CD91D9
:1019D000DC9160817181CE010E94CC28009719F0C2
:1019E0008C1B9D0B02C08FEF9FEFDF91CF9108956D
:1019F000CF93DF93FC014481558141155105D9F006
:101A000061157105C1F09A016417750708F49B010F
:101A1000EC0188819981421B530B5D834C83BC018F
:101A2000620F731F0E94BD28E881F9818C819D811E
:101A3000E80FF91F1082DF91CF9108950F931F9344
:101A4000CF93DF93EC010E948510688779878A879E
:101A50009B87E881F9810284F385E02DCE01099509
:101A600097FF17C00E948510088519852A853B8538
:101A7000DC01CB01801B910BA20BB30B0C811D81F0
:101A80002E813F8180179107A207B30710F38FEFD4
:101A90009FEFDF91CF911F910F910895009769F00B
:101AA000FC0101900020E9F73197AF01481B590B69
:101AB000BC0187E394E00C943E0180E090E008953F
:101AC00081EF92E00C944E0DFC01448155816081C0
:101AD000718187E394E00C943E01CF93DF930E94E1
:101AE000640DEC010E94600D8C0F9D1FDF91CF9162
:101AF0000895CF93DF93EC01FB0144815581608110
:101B000071810E94C404811103C0CE010E94F204BD
:101B1000CE01DF91CF910895EF92FF920F931F9323
:101B2000CF93DF93CDB7DEB7A1970FB6F894DEBFA2
:101B30000FBECDBF7C01CB01BA01F701118210822B
:101B400013821282158214828E010F5F1F4F22E0D2
:101B500044E00E94AD1EBC01C7010E943E05A19653
:101B60000FB6F894DEBF0FBECDBFDF91CF911F91AE
:101B70000F91FF90EF9008950F931F93CF93DF93F2
:101B8000CDB7DEB762970FB6F894DEBF0FBECDBFFC
:101B90008C01CB01F801118210821382128215820E
:101BA00014824AE0BE016F5F7F4F0E94F81EBE01A3
:101BB0006F5F7F4FC8010E943E0562960FB6F89492
:101BC000DEBF0FBECDBFDF91CF911F910F91089562
:101BD0000C944E0DFB01DC0111961C921E92139683
:101BE0001C921E92129715961C921E92149786179D
:101BF000970749F0608171816115710521F0448179
:101C000055810C941D050895909136049111FCCFD7
:101C100091E090933604909335042FEF2093340491
:101C200010923304260F2093320490933104909144
:101C30003104880F892B80933104809130048130E6
:101C400061F410923004809131048093BB00809144
:101C5000BC0083FDF8CF85EC01C085EE8093BC000D
:101C6000809136048130E1F380913304861710F4BB
:101C700060913304A0E1B4E0E0EFF3E080E0861788
:101C800021F09D9191938F5FFACF0895282F309185
:101C9000EF03313208F04AC0809136048111FCCF45
:101CA0009091EE0342E040933604209335042FEFE9
:101CB000209334041092330430933204EEECF3E0BA
:101CC000A0E1B4E020E0321721F041914D932F5F65
:101CD000FACF1092310420913104990F922B9093F6
:101CE000310490913004913061F41092300490915D
:101CF00031049093BB009091BC0093FDF8CF95EC1C
:101D000001C095EE9093BC00909136049230E1F3BF
:101D1000909134049F3F79F080913404803241F0F7
:101D200080913404803331F084E005C081E003C049
:101D300082E001C083E01092CD031092EF03109275
:101D4000CC030895EF92FF920F931F93CF93DF93ED
:101D50008C017A01DC0113968C91139791E090939A
:101D6000CC038093EE031092CD031092EF031496F0
:101D70008D919C911597DC01ED91FC910190F08182
:101D8000E02D099581E00E94460E66E0F80183810E
:101D90000E94040E1092CB038093CA03E701F6E081
:101DA000EF0EF11CD80114968D919C911597DC01D2
:101DB000ED91FC910284F385E02D09958993EC1651
:101DC000FD0681F781E0DF91CF911F910F91FF9088
:101DD000EF9008951F93CF93DF93EC01142F8B8125
:101DE00091E09093CC038093EE031092CD03109278
:101DF000EF038C819D81DC01ED91FC910190F081DC
:101E0000E02D09958C819D81DC01ED91FC91019083
:101E1000F081E02D612F099581E00E94460E81E05E
:101E2000DF91CF911F910895CF92DF92EF92FF92B1
:101E30000F931F93CF93DF937C018B016A0161E7BE
:101E400072E00E945A05D80114968D919C911597C5
:101E50000097C1F0E6018C159D0508F4EC01D8014E
:101E6000ED91FC911197EC0FFD1FD08010826D91C8
:101E70007C91C7010E943E05F80180819181C80FC5
:101E8000D91FD882C701DF91CF911F910F91FF9089
:101E9000EF90DF90CF9008953FB7F8948091E504DC
:101EA0009091E604A091E704B091E80426B5A89BC0
:101EB00005C02F3F19F00196A11DB11D3FBFBA2FDC
:101EC000A92F982F8827820F911DA11DB11DBC013C
:101ED000CD0142E0660F771F881F991F4A95D1F701
:101EE0000895CF93DF93EC018B8191E09093CC0325
:101EF0008093EE031092CD031092EF038C819D81AD
:101F0000DC01ED91FC910190F081E02D60E00995FC
:101F100081E00E94460E61E08B810E94040E1092C7
:101F2000CB038093CA038C819D81DC01ED91FC91F0
:101F30000284F385E02D0995DF91CF910895CF9329
:101F4000DF930E944E0DEC010E94600D8C0F9D1FCF
:101F5000DF91CF91089590E0FC01EF5EFD4F249159
:101F6000FC01E350FE4F3491FC01E751FE4FE49138
:101F7000EE2309F43CC0222339F1233091F038F4E8
:101F80002130A9F0223001F584B58F7D12C02730B1
:101F900091F02830A1F02430B9F4809180008F7D39
:101FA00003C0809180008F77809380000DC084B53E
:101FB0008F7784BD09C08091B0008F7703C0809176
:101FC000B0008F7D8093B000F0E0EE0FFF1FE15274
:101FD000FE4FA591B4919FB7F894611104C08C9104
:101FE0003095382302C0EC913E2B3C939FBF08955F
:101FF000CF93DF9390E0FC01E350FE4F2491FC016E
:10200000E751FE4F8491882361F190E0880F991F7A
:10201000FC01EB52FE4FC591D491FC01E152FE4F01
:10202000A591B491611109C09FB7F894888120955A
:1020300082238883EC912E230BC0623061F49FB71A
:10204000F8948881322F309583238883EC912E2B4E
:102050002C939FBF06C08FB7F894E8812E2B28835E
:102060008FBFDF91CF9108958E3008F08E5087702A
:10207000806480937C0080917A00806480937A00F1
:1020800080917A0086FDFCCF8091780020917900C4
:1020900090E0922B08958F929F92AF92BF92CF9231
:1020A000DF92EF92FF926B017C010E944C0F4B017B
:1020B0005C01C114D104E104F104F1F00E944C0F61
:1020C000DC01CB0188199909AA09BB09883E934014
:1020D000A105B10570F321E0C21AD108E108F108A9
:1020E00088EE880E83E0981EA11CB11CC114D10497
:1020F000E104F10419F7DDCFFF90EF90DF90CF906E
:10210000BF90AF909F908F9008952FB7F8946091F3
:10211000E1047091E2048091E3049091E4042FBF04
:1021200008951F920F920FB60F9211242F933F9391
:102130008F939F93AF93BF938091E1049091E204BA
:10214000A091E304B091E4043091E00423E0230F74
:102150002D3720F40196A11DB11D05C026E8230FDF
:102160000296A11DB11D2093E0048093E104909399
:10217000E204A093E304B093E4048091E504909119
:10218000E604A091E704B091E8040196A11DB11DF9
:102190008093E5049093E604A093E704B093E804E9
:1021A000BF91AF919F918F913F912F910F900FBE53
:1021B0000F901F901895CF93DF93CDB7DEB7E497BC
:1021C0000FB6F894DEBF0FBECDBF789484B58260A1
:1021D00084BD84B5816084BD85B5826085BD85B5CB
:1021E000816085BD80916E00816080936E00109249
:1021F00081008091810082608093810080918100C4
:102200008160809381008091800081608093800054
:102210008091B10084608093B1008091B0008160B2
:102220008093B00080917A00846080937A008091DE
:102230007A00826080937A0080917A008160809336
:102240007A0080917A00806880937A001092C100B1
:10225000E0914704F091480482E08083E0914304D8
:10226000F09144041082E0914504F09146041082FC
:1022700010924F04E0914B04F0914C0486E080836F
:10228000E0914904F0914A04808180618083E0916B
:102290004904F0914A04808188608083E091490478
:1022A000F0914A04808180688083E0914904F09134
:1022B0004A0480818F7D80838EE090E00E94C12659
:1022C0007C018FE190E00E94C1268C01DC01139615
:1022D0001C921E92129788EE93E0A0E0B0E0F80105
:1022E00084839583A683B7838AE091E0918380837A
:1022F000178A168A118E108E138E128E158E148EDA
:10230000668D6E7F6D7F668F6695617081E0682750
:1023100082E00E94AB0F61E082E00E94F80FEFEFD5
:10232000F1E0E491D8015096EC93EBEEF1E0E4910A
:10233000F0E0EE0FFF1FE152FE4F85919491F801FE
:10234000928B818B60E083E00E94F80FD8015E964B
:102350008C9181FD04C061E083E00E94AB0F83E0BB
:10236000F8018487E0E0F2E0E491D8011D96EC9357
:10237000ECEEF1E0E491F0E0EE0FFF1FE553FE4FCD
:1023800085919491F80197878687D7010D931C93C7
:102390008DE991E0958F848F2DEB30E0378B268B84
:1023A0002BE931E0318F208F2CE231E0338F228F07
:1023B000209168002460209368002DE630E0348B83
:1023C000238B28E0258B0197F1F7E091F602F0913D
:1023D000F7020E171F07F1F0309739F0A389B4897F
:1023E0009C918589809589238C93F801868D8E7FB9
:1023F000868F1092F5021092F4021093F702009368
:10240000F6020388F489E02D9081D80155968C91CD
:10241000892B8083F0923903E092380382E290E0C6
:102420000E94C1268C0149E250E061E070E00E9408
:10243000570B109337030093360382E290E00E941B
:10244000C1264C0148E250E062E070E00E94570B68
:10245000909235038092340383E090E00E94C1267D
:102460005C01FC011282118281E18083B09233030E
:10247000A092320383E090E00E94C1266C01DC014F
:1024800012961C921E9211978FE08C93D09231037A
:10249000C092300383E090E00E94C1267C01FC01E1
:1024A0001282118280E18083F0922F03E0922E034A
:1024B00083E090E00E94C1268C01DC0112961C9200
:1024C0001E9211978EE08C9310932D0300932C0392
:1024D00082E090E00E94C1262091380330913903B8
:1024E000FC0131832083909329038093280385E1A5
:1024F00090E00E94C126FC01609036037090370383
:102500001682108617821286118614861386158607
:1025100016861786108A118A128A138A148A718283
:102520006082B382A282D582C48290932703809373
:10253000260385E190E00E94C126FC0116821086E8
:1025400017821286118614861386158616861786BC
:10255000108A118A128A138A148A91828082F382E5
:10256000E28215830483909325038093240368EE0D
:1025700073E080E090E00E944B1044E050E066E0A1
:1025800070E088E093E00E948A0B47E050E065E04D
:1025900070E088EF92E00E948A0B43E050E0509395
:1025A0000B0340930A032CEF30E030930D0320938C
:1025B0000C0380E890E090930F0380930E035093F8
:1025C000110340931003309313032093120390934D
:1025D00015038093140384E290E09093FB028093B0
:1025E000FA0223EF30E03093FD022093FC028FE7E4
:1025F00090E09093FF028093FE024AE050E05093F7
:10260000010340930003309303032093020390934C
:10261000050380930403C3010E94980A8091340348
:10262000909135030E94980A89E891E00E949F0FDB
:102630000E9485106B017C010E948510DC01CB019A
:102640008C199D09AE09BF09883B9B40A105B105C6
:10265000B8F480913403909135030E94010A80916F
:102660003603909137030E94010A85E991E00E94A8
:10267000E80D62E370E080E090E00E944B10DCCF58
:1026800087E991E00E949F0F8EE991E00E949F0FE1
:102690008E010F5F1F4F480194E6292E312C29E14E
:1026A000422E512C612C712C0E9485107B018C01D3
:1026B00020E030E0A9016DA7FEA60FA718AB29AB5B
:1026C0003AAB4BAB5CABA0903A03B0903B03C090ED
:1026D0003C03D0903D03E0903E03F0903F03009117
:1026E0004003109141032DA53EA54FA558A960E0D8
:1026F00070E080E090E00E94C72409F014F40C948C
:102700005E1E0E948510DC01CB018196A11DB11DCA
:102710008C019D0180933A0310933B0320933C036B
:1027200030933D0310923E0310923F0310924003FA
:10273000109241030091380310913903D8018D9113
:102740009C91DC01ED91FC910084F185E02D0995CF
:10275000892B09F408C1F801E080F18061E772E09B
:10276000CE014B960E945A05C7010E941E0D97FD8F
:102770000DC08A30910551F089831A8241E050E002
:10278000B401CE014B960E94C404EECF8F8D98A168
:10279000049708F4E4C06FEA71E0CE0145960E9408
:1027A0005A05BE016B5E7F4FCE014B960E94DE0C38
:1027B000AC01BE01655E7F4FC4010E94140F898188
:1027C0009A81009719F00E94D11E03C060E070E06A
:1027D000CB01D80115967C936E931497C4010E9487
:1027E0005505CE0145960E9455056FEA71E0C4017A
:1027F0000E945A05B401CE014B960E94DE0CBC012A
:102800006F5F7F4FCE014B960E94F80CC4010E946F
:1028100055056FEA71E0CE0145960E945A05BE014A
:102820006B5E7F4FCE014B960E94DE0CAC01BE0169
:10283000655E7F4FC4010E94140F89819A810097C1
:1028400019F00E94D11E03C060E070E0CB01F801D6
:1028500073836283C4010E945505CE0145960E9490
:1028600055056FEA71E0C4010E945A05B401CE011A
:102870004B960E94DE0CBC016F5F7F4FCE014B96E2
:102880000E94F80CC4010E9455056FEA71E0CE0168
:1028900045960E945A05BE016B5E7F4FCE014B9656
:1028A0000E94DE0CAC01BE01655E7F4FC4010E9438
:1028B000140F89819A81009719F00E94CD1E03C0E0
:1028C00060E070E0CB01D80116966D937D938D93F7
:1028D0009C931997C4010E945505CE0145960E940C
:1028E00055056FEA71E0C4010E945A05B401CE019A
:1028F0004B960E94DE0CBC016F5F7F4FCE014B9662
:102900000E94F80CC4010E9455056FEA71E0CE01E7
:1029100045960E945A05BE016B5E7F4FCE014B96D5
:102920000E94DE0CAC01BE01655E7F4FC4010E94B7
:10293000140F89819A81009719F00E94CD1E03C05F
:1029400060E070E0CB01F801628773878487958728
:10295000C4010E945505CE0145960E945505CE0141
:102960004B960E94550580913603909137030E9443
:10297000130980913403909135030E94130900914B
:10298000320310913303D8018C910E943410F80166
:10299000928381830091300310913103D8018C918F
:1029A0000E943410F8019283818300912E031091CC
:1029B0002F03D8018C910E943410F80192838183F7
:1029C00000912C0310912D03D8018C910E9434109A
:1029D000F8019283818380912A0390912B038230A6
:1029E000910509F416C18330910509F428C20197B5
:1029F00009F0ADC281EB91E00E94E80D60913603D1
:102A000070913703625F7F4FC4010E947F07498145
:102A10005A816B817C81CE0145960E948C0D68EBBA
:102A200071E0CE014B960E945A05BE016B5E7F4F4E
:102A3000CE014B960E94790D0E94640DCE014B96FB
:102A40000E945505CE0145960E94550560913603BA
:102A500070913703625F7F4FC4010E947F074D81F1
:102A60005E816F817885CE0145960E948C0D6DEB5D
:102A700071E0CE014B960E945A05BE016B5E7F4FFE
:102A8000CE014B960E94790D0E94640DCE014B96AB
:102A90000E945505CE0145960E945505609136036A
:102AA00070913703625F7F4FC4010E947F074985A1
:102AB0005A856B857C85CE0145960E948C0D62EC13
:102AC00071E0CE014B960E945A05BE016B5E7F4FAE
:102AD000CE014B960E94790D0E94640DCE014B965B
:102AE0000E945505CE0145960E945505E09136039A
:102AF000F09137034281538164817581C4010E9442
:102B00008C0D67EC71E0CE0145960E945A05B40128
:102B1000CE0145960E94790D0E94640DCE01459626
:102B20000E945505C4010E945505E0913603F091BD
:102B30003703268D378D40A151A162857385848529
:102B400095850E94EA24AB01BC01C4010E948C0D52
:102B50006BEC71E0CE0145960E945A05B401CE019E
:102B600045960E94790D0E94640DCE0145960E9403
:102B70005505C4010E945505E0913603F0913703D5
:102B8000228D338D448D558D668177818085918529
:102B90000E94EA24AB01BC01C4010E948C0D6FECC1
:102BA00071E0CE0145960E945A05B401CE014596CA
:102BB0000E94790D0E94640DCE0145960E94550534
:102BC000C4010E94550583ED91E00E94E80DE0915B
:102BD0003203F091330361817281C4010E94BC0D04
:102BE0006CED71E0CE0145960E945A05B401CE010C
:102BF00045960E94790D0E94640DCE0145960E9473
:102C00005505C4010E945505E0913003F091310350
:102C10000EC184EE91E00E94E80D60913403709142
:102C20003503625F7F4FC4010E947F0749815A814B
:102C30006B817C81CE0145960E948C0D68EB71E022
:102C4000CE014B960E945A05BE016B5E7F4FCE01AE
:102C50004B960E94790D0E94640DCE014B960E9406
:102C60005505CE0145960E9455056091340370913B
:102C70003503625F7F4FC4010E947F074D815E81F3
:102C80006F817885CE0145960E948C0D6DEB71E0C9
:102C9000CE014B960E945A05BE016B5E7F4FCE015E
:102CA0004B960E94790D0E94640DCE014B960E94B6
:102CB0005505CE0145960E945505609134037091EB
:102CC0003503625F7F4FC4010E947F0749855A85A3
:102CD0006B857C85CE0145960E948C0D62EC71E07F
:102CE000CE014B960E945A05BE016B5E7F4FCE010E
:102CF0004B960E94790D0E94640DCE014B960E9466
:102D00005505CE0145960E945505E0913403F0919A
:102D100035034281538164817581C4010E948C0D09
:102D200067EC71E0CE0145960E945A05B401CE01D0
:102D300045960E94790D0E94640DCE0145960E9431
:102D40005505C4010E945505E0913403F091350307
:102D5000268D378D40A151A1628573858485958527
:102D60000E94EA24AB01BC01C4010E948C0D6BECF3
:102D700071E0CE0145960E945A05B401CE014596F8
:102D80000E94790D0E94640DCE0145960E94550562
:102D9000C4010E945505E0913403F0913503228D62
:102DA000338D448D558D66817781808591850E9414
:102DB000EA24AB01BC01C4010E948C0D6FEC71E0F0
:102DC000CE0145960E945A05B401CE0145960E9457
:102DD000790D0E94640DCE0145960E945505C401EF
:102DE0000E94550583ED91E00E94E80DE0912E03CD
:102DF000F0912F0361817281C4010E94BC0D6CEDC2
:102E000071E0CE0145960E945A05B401CE01459667
:102E10000E94790D0E94640DCE0145960E945505D1
:102E2000C4010E945505E0912C03F0912D036181AE
:102E30007281C4010E94BC0D60EE71E076C08BEE21
:102E400091E00E94E80DE0913803F091390364812C
:102E500075816C34FFEF7F0714F468597E4FC4010D
:102E60000E94BC0D6FEC71E0CE0145960E945A05A0
:102E7000B401CE0145960E94790D0E94640DCE01E9
:102E800045960E945505C4010E945505E0913803FE
:102E9000F0913903628173816C340FEF700714F481
:102EA00068597E4FC4010E94BC0D6BEC71E0CE01ED
:102EB00045960E945A05B401CE0145960E94790DAF
:102EC0000E94640DCE0145960E945505C4010E94E2
:102ED0005505E0913803F0913903468157816085AB
:102EE0007185C4010E948C0D62EF71E0CE014596A0
:102EF0000E945A05B401CE0145960E94790D0E94A8
:102F0000640DCE0145960E945505C4010E945505E9
:102F1000E0913803F09139034285538564857585C6
:102F2000C4010E948C0D67EF71E0CE0145960E94AE
:102F30005A05B401CE0145960E94790D0E946D0D8F
:102F4000CE0145960E945505C4010E94550587E3B0
:102F500094E00E949901181619068CF587E394E015
:102F60000E947701823719F481E090E024C08C360A
:102F700019F482E090E01FC0833619F483E090E0FA
:102F80001AC08D3619F484E090E015C08E3219F421
:102F900085E090E010C08C3219F486E090E00BC020
:102FA0008E3629F410922B0310922A0308C084371E
:102FB00031F487E090E090932B0380932A03809173
:102FC0002A0390912B03049709F02DC160E772E06A
:102FD000C4010E945A05E0912803F0912903019051
:102FE000F081E02DC680D780E084F18420E030E0DD
:102FF000A901C701B6010E94552618168CF420E0DD
:1030000030E040EA50E4C701B6010E945526181688
:103010003CF4B701A601CE0145960E948C0D06C076
:1030200060E772E0CE0145960E945A0560E772E0C3
:10303000CE014B960E945A05E0912803F091290396
:103040000190F081E02DC680D780E084F18420E0FB
:1030500030E0A901C701B6010E94552618166CF48C
:1030600020E030E040EA50E4C701B6010E94552656
:1030700018161CF466E771E002C060E871E0CE014A
:1030800081960E945A056DEF71E0CE0187960E94ED
:103090005A05BE016F5D7F4FCE0187960E94790D64
:1030A000BE01655E7F4F0E94790DBE016B5E7F4F52
:1030B0000E94790DB4010E94790D0E94640DCE0129
:1030C00087960E945505CE0181960E945505CE0136
:1030D0004B960E945505CE0145960E945505C401A8
:1030E0000E94550584E092E00E94E80D00912803BB
:1030F00010912903C8010E94340820E030E040EA22
:1031000050E40E94552618162CF080E192E00E94AF
:10311000E80D87C0C8010E945D089C012E5231094C
:103120002E30314018F08BE892E006C0823E9105C7
:103130000CF4D1C585E992E00E94E80D8091280346
:10314000909129030E945D088C0160E772E0CE0136
:103150004B960E945A05BE01655E7F4FCE01459693
:103160000E94EA0D4AE0B401C8010E94F81EF40171
:1031700001900020E9F73197AF0148195909B401CE
:10318000CE0145960E94C404811104C0CE0145962B
:103190000E94F204CE0145960E94640DCE01459630
:1031A0000E945505CE014B960E945505809128033B
:1031B000909129030E9434086B017C0160E772E062
:1031C000CE014B960E945A05BE01655E7F4FCE012F
:1031D00045960E94EA0D840122E044E0C701B60151
:1031E0000E94AD1EFC0101900020E9F73197AF016C
:1031F000481B590BBC01CE0145960E94C4048111A5
:1032000004C0CE0145960E94F204CE0145960E946C
:10321000640DCE0145960E945505CE014B960E9445
:1032200055050E94600D80912A0390912B0305970C
:1032300009F00DC18BE192E00E94E80D0091260398
:1032400010912703C8010E949A078823E9F1D80149
:103250001D966D917D918D919C9150970E94EA22CF
:1032600020E030E044E052E40E9486259B01AC015E
:10327000F80161897289838994890E948625AB014E
:10328000BC01C4010E948C0D60E772E0CE014B9638
:103290000E945A05BE01655E7F4FCE0145960E9491
:1032A000EA0DB401CE0145960E94790D0E94640D8D
:1032B000CE0145960E945505CE014B960E945505BC
:1032C000C4010E94550504C08CE292E00E94E80D02
:1032D00086E392E00E94E80DE0912603F091270337
:1032E00085859685A785B089893E9340A105B1055E
:1032F000D4F10190F081E02D268D378D40A151A1B0
:1033000062857385848595850E94EA240E94F8254C
:103310009B0177FF04C022273327261B370BB901F7
:10332000C4010E94BC0D60E772E0CE014B960E9482
:103330005A05BE01655E7F4FCE0145960E94EA0D9B
:10334000B401CE0145960E94790D0E94640DCE0114
:1033500045960E945505CE014B960E945505C40125
:103360000E94550504C08CE292E00E94E80D8EE3B5
:1033700092E00E94E80DE0912603F091270304807B
:10338000F581E02D61817281693C71051CF1C401F8
:103390000E94BC0D60E772E0CE014B960E945A0578
:1033A000BE01655E7F4FCE0145960E94EA0DB401D5
:1033B000CE0145960E94790D0E94640DCE0145967E
:1033C0000E945505CE014B960E945505C4010E94EE
:1033D000550504C08CE292E00E94E80D88E492E07A
:1033E0000E94E80DE0912603F09127030280F3810B
:1033F000E02D61817281693C71051CF1C4010E945C
:10340000BC0D60E772E0CE014B960E945A05BE01EA
:10341000655E7F4FCE0145960E94EA0DB401CE0154
:1034200045960E94790D0E94640DCE0145960E943A
:103430005505CE014B960E945505C4010E945505C5
:1034400004C08CE292E00E94E80D0E94600D809121
:103450002A0390912B03069709F00DC182E592E0B3
:103460000E94E80D0091240310912503C8010E94D9
:103470009A078823E9F1D8011D966D917D918D9170
:103480009C9150970E94EA2220E030E044E052E410
:103490000E9486259B01AC01F801618972898389AC
:1034A00094890E948625AB01BC01C4010E948C0D49
:1034B00060E772E0CE014B960E945A05BE01655E40
:1034C0007F4FCE0145960E94EA0DB401CE0145968C
:1034D0000E94790D0E94640DCE0145960E9455050B
:1034E000CE014B960E945505C4010E94550504C0AB
:1034F0008CE292E00E94E80D86E392E00E94E80DE3
:10350000E0912403F091250385859685A785B089F0
:10351000893E9340A105B105D4F10190F081E02DE1
:10352000268D378D40A151A162857385848595854F
:103530000E94EA240E94F8259B0177FF04C02227FD
:103540003327261B370BB901C4010E94BC0D60E76D
:1035500072E0CE014B960E945A05BE01655E7F4F18
:10356000CE0145960E94EA0DB401CE0145960E9417
:10357000790D0E94640DCE0145960E945505CE013D
:103580004B960E945505C4010E94550504C08CE26B
:1035900092E00E94E80D8EE392E00E94E80DE09137
:1035A0002403F09125030480F581E02D618172816F
:1035B000693C71051CF1C4010E94BC0D60E772E01A
:1035C000CE014B960E945A05BE01655E7F4FCE012B
:1035D00045960E94EA0DB401CE0145960E94790DF0
:1035E0000E94640DCE0145960E945505CE014B9672
:1035F0000E945505C4010E94550504C08CE292E06A
:103600000E94E80D88E492E00E94E80DE091240316
:10361000F09125030280F381E02D61817281693C84
:1036200071051CF1C4010E94BC0D60E772E0CE017F
:103630004B960E945A05BE01655E7F4FCE014596AE
:103640000E94EA0DB401CE0145960E94790D0E94B8
:10365000640DCE0145960E945505CE014B960E9401
:103660005505C4010E94550504C08CE292E00E94F9
:10367000E80D0E94600D0091260310912703C801F8
:103680000E949A07D82EE0902403F0902503C701EA
:103690000E949A07A0902803B0902903D11016C069
:1036A000882309F445C0D7011D966D917D918D91B8
:1036B0009C9150970E94EA2220E030E044E052E4DE
:1036C0000E9486259B01AC01F70112C0D8011D960E
:1036D0006D917D918D919C9150970E94EA2220E0FE
:1036E00030E044E052E40E9486259B01AC01F801E1
:1036F00061897289838994890E94862520E030E05F
:1037000048EC52E40E94492320E030E040E05FE3CF
:103710000E94492320E030E0A9010E94EB240E948E
:10372000F8257093230360932203DD24D39462C0B1
:10373000C5010E94340820E030E040EA50E40E94D5
:10374000552618160CF055C0C0903803D090390398
:10375000F601A281B381AC34FFEFBF070CF0B5C214
:10376000CD0188599E4FA839BE4F4CF4DC019D0114
:10377000ACE9BFEF0E94B824A301920109C0DC01AB
:1037800024E630E00E94C02427EE3FEF4FEF5FEFCA
:103790000E940A243093230320932203F601A4817C
:1037A000B581AC34FFEFBF070CF092C2CD01885950
:1037B0009E4FA839BE4F44F4DC0124E630E00E945D
:1037C000C024A30192010AC0DC019D01ACE9BFEF56
:1037D0000E94B82427EE3FEF4FEF5FEF0E940A24CC
:1037E0003093210320932003DD24D394CC24C3946D
:1037F00002C0D12CC12CF80185859685A785B0899A
:10380000893E9340A105B105ACF1D801ED91FC9141
:10381000268D378D40A151A162857385848595855C
:103820000E94EA240E94F8259B0177FF04C022270A
:103830003327261B370BC901330FAA0BBB0B9C0187
:10384000AD012A50310941095109ABE4B0E00E94B1
:1038500029242FE030E040E050E00E940A24DA0101
:10386000C9014996A11DB11D9093230380932203A2
:10387000DD24D394F70185859685A785B089893E97
:103880009340A105B105ACF1D701ED91FC91268DD6
:10389000378D40A151A162857385848595850E94ED
:1038A000EA240E94F8259B0177FF04C022273327D2
:1038B000261B370BC901330FAA0BBB0B9C01AD01B3
:1038C0002A50310941095109ABE4B0E00E94292492
:1038D0002FE030E040E050E00E940A24DA01C90104
:1038E0004996A11DB11D9093230380932203DD24EB
:1038F000D394D8011296ED91FC91139721813281D6
:10390000293C3105D4F0C901330FAA0BBB0B9C0134
:10391000AD01285C310941095109A4E6B0E00E94DB
:1039200029242EEE32E040E050E00E940A24309339
:10393000210320932003CC24C394D7011296ED9148
:10394000FC91139721813281293C3105E4F0C901B2
:10395000330FAA0BBB0B9C01AD01285C3109410957
:103960005109A4E6B0E00E9429242EEE32E040E0A6
:1039700050E00E940A2431952195310930932103AA
:103980002093200339C0D8011496ED91FC9115972E
:1039900021813281293C310554F4D7011496ED91EF
:1039A000FC91159721813281293C3105FCF0C90138
:1039B000330FAA0BBB0B9C01AD01285C31094109F7
:1039C0005109A4E6B0E00E9429242AE832E040E050
:1039D00050E00E940A243195219531093093230348
:1039E00020932203CC2009F46DC10CC0C11004C087
:1039F0001092210310922003D11004C010922303CF
:103A00001092220310921F0310921E0310921D03A6
:103A100010921C03E0902003F0902103C701F7FEF1
:103A200004C0882799278E199F09009122031091BD
:103A300023038E36910554F4C80117FF04C088276C
:103A40009927801B910B8E3691053CF081E090E028
:103A500090931B0380931A0304C010921B031092CF
:103A60001A03D501ED91FC91A680B780C084D18462
:103A700020E030E0A901C601B5010E9455261816C4
:103A80008CF420E030E040EA50E4C601B5010E9429
:103A9000552618163CF481E090E09093190380932A
:103AA000180304C01092190310921803B5E6EB1620
:103AB000F10424F03092210320922003809120030E
:103AC000909121038C399F4F44F48CE9E82EFF2418
:103AD000FA94F0922103E09220030536110524F0B8
:103AE000309223032092220380912203909123039A
:103AF0008C399F4F34F42CE93FEF3093230320930C
:103B000022036091200370912103719561957109E1
:103B100088E093E00E94040C6091220370912303DB
:103B200071956195710988E093E00E94530C0091B2
:103B30001A0310911B030130110511F461E001C05B
:103B400060E0809116030E94AB0F60E070E088EFA8
:103B500092E00E94040C60E070E088EF92E00E9426
:103B6000530C8091180390911903019711F461E0AF
:103B700001C060E0809106030E94AB0F80912A0390
:103B800090912B03079709F097C0B801C4010E94D8
:103B9000BC0D6091220370912303CE0145960E94D3
:103BA000BC0D6091200370912103CE014B960E94C1
:103BB000BC0D62E672E0CE0181960E945A05BE01FC
:103BC000655E7F4FCE0181960E94790D60E772E0BD
:103BD0000E940405BE016B5E7F4F0E94790D60E775
:103BE00072E00E94040562E772E00E940405B401DD
:103BF0000E94790D60E772E00E9404050E94640D46
:103C0000CE0181960E945505CE014B960E94550526
:103C1000CE0145960E945505C4010E94550560914C
:103C2000180370911903C4010E94BC0D60911C031C
:103C300070911D03CE0145960E94BC0D60911E033C
:103C400070911F03CE014B960E94BC0D6AE772E093
:103C5000CE0181960E945A05BE01655E7F4FCE015E
:103C600081960E94790D60E772E00E940405BE0112
:103C70006B5E7F4F0E94790D60E772E00E94040541
:103C800062E772E00E940405B4010E94790D60E7CA
:103C900072E00E9404050E946D0DCE0181960E9483
:103CA0005505CE014B960E945505CE0145960E94C2
:103CB0005505C4010E9455050E9485100E944002CE
:103CC0000C945413DD24D39493CEB7FF59CD4FCD2C
:103CD000B7FF7BCD72CD883891051CF08BE992E05F
:103CE0002BCA84EA92E028CAE7E3F4E01382128246
:103CF00088EE93E0A0E0B0E084839583A683B78349
:103D000028E331E03183208325EC30E035872487B8
:103D100024EC30E03787268720EC30E0318B208B95
:103D200021EC30E0338B228B22EC30E0358B248B7E
:103D300026EC30E0378B268B118E128E138E148E6C
:103D4000E4EDF4E01382128284839583A683B78323
:103D500088E691E0918380830895EF920F931F93FB
:103D6000CF93DF93E80147FD02C034E001C034E1A6
:103D7000042E000C550B57FF03C051954195510976
:103D8000E32E022F242FAE010E94321FCE01DF91BD
:103D9000CF911F910F91EF900895662777270C948C
:103DA0008C201F93FC0199278827BC01E89411916E
:103DB0001032E9F3193010F01E30C8F31B3251F005
:103DC0001D3249F4689406C00E94031F610F711DE3
:103DD000811D911D119110531A30B0F33EF490954E
:103DE0008095709561957F4F8F4F9F4F1F910895DC
:103DF000BB274A3031F4992322F4BDE29095819596
:103E00009F4F0C94191F592F482F372F262F660FBD
:103E1000771F881F991F660F771F881F991F620FD2
:103E2000731F841F951F660F771F881F991F0895A2
:103E3000BB27FB015527AA27880F991FAA1FA41784
:103E400010F0A41B83955051B9F7A05DAA3308F078
:103E5000A95DA193009779F7B111B1931192CB01AC
:103E60000C94D322A9E0B0E0E8E3FFE10C944224F3
:103E70006A01122FB02E2BE3201720F0FF24F394B9
:103E8000F00E02C02CE3F22E0F2D27E0AE014F5FA3
:103E90005F4F0E94DA21BC014981842F89708130F3
:103EA00031F0E1FC06C0E0FE06C090E205C09DE2F4
:103EB00003C09BE201C090E05E2D507143FF3CC007
:103EC000911102C083E001C084E0811718F4212F12
:103ED000281B01C020E051110BC0F601822F30E2F7
:103EE000882319F031938150FBCFC20ED11C20E002
:103EF000992329F0D6019C93F60131966F01C601F2
:103F00000396E2FE0AC03EE4D6013C9341E41196DA
:103F10004C93119712963C9306C03EE6F60130830F
:103F200041E641833283FC01322F40E2332309F41E
:103F300042C041933150FACF42FF44C0911102C0B8
:103F400083E001C084E0811718F4212F281B01C0F1
:103F500020E051110BC0F601822F30E2882319F0C6
:103F600031938150FBCFC20ED11C20E0992329F060
:103F7000D6019C93F60131966F01C6010396E2FECD
:103F80000BC039E4D6013C933EE411963C93119763
:103F900036E412963C9307C039E6F60130833EE6DC
:103FA000318336E63283FC01322F40E2332319F0AD
:103FB00041933150FBCFFC01E20FF11D10828EEFD7
:103FC0009FEFA6C021E030E0911102C020E030E078
:103FD000161617061CF4FB01319602C0E1E0F0E072
:103FE0002E0F3F1FBB2021F0EB2DF0E0319602C0D9
:103FF000E0E0F0E02E0F3F1FE12FF0E02E173F072B
:104000001CF4121B212F01C020E08E2D887159F461
:10401000F601822F30E2882319F031938150FBCFD3
:10402000C20ED11C20E0992329F0D6019C93F60101
:1040300031966F0151110BC0F601822F90E3882356
:1040400019F091938150FBCFC20ED11C20E00F2DAF
:10405000060F9A81342F307144FF03C0913309F465
:104060000150101624F4093018F008E001C001E0F6
:10407000AB0177FF02C040E050E0FB01E41BF50B11
:10408000A1E0B0E0AC0FBD1FEA0FFB1F8EE2A82E2F
:104090004B01801A91080B2D10E011950195110923
:1040A0004F3FBFEF5B0721F4D601AC9211966D0133
:1040B000641775072CF08416950614F4818101C0ED
:1040C00080E3415051093196D60111967D01401788
:1040D000510724F0D6018C936701E2CF641775076E
:1040E00039F4963320F4953319F4311101C081E38A
:1040F000F6018083F701822F90E2882319F09193D3
:104100008150FBCFF701E20FF11D108280E090E0BB
:104110002996ECE00C945E24A0E0B0E0E2E9F0E245
:104120000C944224EC016B016115710519F0FB013F
:10413000918380837E01FFEFEF1AFF0A0881802FB1
:1041400090E00E94B222892B11F0E701F3CF0D32EB
:1041500039F47E0182E0E80EF11C098111E008C00B
:104160000B3229F47E0192E0E90EF11C098110E086
:10417000E701219743E050E06EE970E0CE010E9434
:10418000BB22892BC1F4239645E050E069E970E039
:10419000CE010E94BB22892B09F42596C114D104BB
:1041A00019F0F601D183C0831111F6C060E070E010
:1041B00080E89FE7FAC043E050E066E970E0CE0196
:1041C0000E94BB22892B59F4C114D10409F4E9C01F
:1041D000F2E0EF0EF11CF601F182E082E2C020E095
:1041E00030E0A901C0E0D0E0F70180EDA82EA00EDC
:1041F00089E08A1530F1912F9260B92E812F887055
:1042000012FF04C0811124C0219622C08111219780
:10421000A5E0B0E00E942924DC01CB01880F991FA2
:10422000AA1FBB1F9C01AD012A0D311D411D511D4F
:10423000283989E93807480789E1580748F01660A6
:1042400006C09EEFA9120AC013FD40C01860B12E2F
:104250008FEFE81AF80A00811B2DC6CF802F8F7DC3
:104260008534A1F580818D3211F4106106C08B3246
:1042700021F0319661E070E004C08181329662E005
:1042800070E080538A3018F0E61BF70B1FC060E027
:1042900070E060389CE079075CF4DB01AA0FBB1F7B
:1042A000AA0FBB1F6A0F7B1F660F771F680F711D58
:1042B0003196DF0111978C9180538A3050F314FFAF
:1042C00003C0719561957109C60FD71F11FF08C012
:1042D000C114D10429F0CF010197F60191838083A5
:1042E000CA01B9010E94E822212F2370233019F05E
:1042F0004B015C0106C04B015C01B7FAB094B7F802
:10430000B09420E030E0A901C501B4010E94E3228D
:10431000882309F43EC0D7FF06C0D195C195D109C5
:1043200005EB10E002C00DEC10E06801F8E1CF1AD7
:10433000D10890E2E92EF12CCE15DF0574F0F801DA
:104340002591359145915491C501B4010E944923AD
:104350004B015C01CE19DF09EFCF04501109F59430
:10436000E7940C151D0541F78A2D880F8B2D881FAA
:104370008F3F49F020E030E0A901C501B4010E945F
:10438000E322811106C082E290E09093EA048093D8
:10439000E904C501B40109C060E070E080E89FEF66
:1043A00004C060E070E080EC9FE7CDB7DEB7ECE0E2
:1043B0000C945E24283008F027E03327DA01990FA7
:1043C000311D87FD916000966105710539F43260F9
:1043D0002E5F3D9330E32A95E1F708959F3F30F03B
:1043E00080387105610509F03C5F3C5F3D93913079
:1043F00008F08068911DDF93CF931F930F93FF9276
:10440000EF92192F987F9695E92F96959695E90F3B
:10441000FF27E55DFE4F99273327EE24FF24A701F0
:10442000E70105900894079428F4360FE71EF81E5C
:10443000491F511D660F771F881F991F0694A1F70A
:104440000590079428F4E70EF81E491F561FC11D5A
:10445000770F881F991F661F0694A1F70590079490
:1044600028F4F80E491F561FC71FD11D880F991F2A
:10447000661F771F0694A1F70590079420F4490F53
:10448000561FC71FD81F990F661F771F881F0694D6
:10449000A9F784911095177041F0D695C795579557
:1044A0004795F794E7941A95C1F7E1EDF0E0689429
:1044B0001590159135916591959105907FE27395D1
:1044C000E118F10A430B560BC90BD009C0F7E10CF8
:1044D000F11E431F561FC91FD01D7EF4703311F407
:1044E0008A95E6CFE894015030F0080F0AF40027CF
:1044F000021708F4202F2395022F7A3328F079E34E
:104500007D932A95E9F710C07D932A9589F6069444
:1045100097956795379517951794E118F10A430B0E
:10452000560BC90BD00998F023957E9173957A3379
:1045300008F070E37C932013B8F77E9170617D934F
:1045400030F0839571E37D9370E32A95E1F71124B0
:10455000EF90FF900F911F91CF91DF91992787FDE9
:104560009095089591110C94B623803219F08950DA
:104570008550C8F70895FB01DC014150504088F098
:104580008D9181341CF08B350CF4805E6591613423
:104590001CF06B350CF4605E861B611171F3990B96
:1045A0000895881BFCCFDC01FC01672F71917723F4
:1045B000E1F7329704C07C916D9370836291AE17DE
:1045C000BF07C8F308950E94252308F481E00895E9
:1045D000E89409C097FB3EF490958095709561959D
:1045E0007F4F8F4F9F4F9923A9F0F92F96E9BB2753
:1045F0009395F695879577956795B795F111F8CFCF
:10460000FAF4BB0F11F460FF1BC06F5F7F4F8F4F39
:104610009F4F16C0882311F096E911C0772321F02F
:104620009EE8872F762F05C0662371F096E8862FC7
:1046300070E060E02AF09A95660F771F881FDAF71E
:10464000880F9695879597F90895990F0008550F4B
:10465000AA0BE0E8FEEF16161706E807F907C0F008
:1046600012161306E407F50798F0621B730B840B10
:10467000950B39F40A2661F0232B242B252B21F4EA
:1046800008950A2609F4A140A6958FEF811D811D8A
:1046900008950E945C230C94D0230E94C22338F01A
:1046A0000E94C92320F0952311F00C94B9230C9497
:1046B000BF2311240C9404240E94E12370F3959FDE
:1046C000C1F3950F50E0551F629FF001729FBB2709
:1046D000F00DB11D639FAA27F00DB11DAA1F649FA5
:1046E0006627B00DA11D661F829F2227B00DA11D58
:1046F000621F739FB00DA11D621F839FA00D611DDE
:10470000221F749F3327A00D611D231F849F600DFE
:10471000211D822F762F6A2F11249F5750409AF027
:10472000F1F088234AF0EE0FFF1FBB1F661F771FB3
:10473000881F91505040A9F79E3F510580F00C947E
:10474000B9230C9404245F3FE4F3983ED4F3869598
:1047500077956795B795F795E7959F5FC1F7FE2B1E
:10476000880F911D9695879597F908959927882721
:10477000089597F99F6780E870E060E008959FEFE3
:1047800080EC089500240A941616170618060906E8
:10479000089500240A9412161306140605060895B7
:1047A000092E0394000C11F4882352F0BB0F40F43F
:1047B000BF2B11F460FF04C06F5F7F4F8F4F9F4F7F
:1047C000089557FD9058440F551F59F05F3F71F001
:1047D0004795880F97FB991F61F09F3F79F0879568
:1047E0000895121613061406551FF2CF4695F1DFF1
:1047F00008C0161617061806991FF1CF8695710581
:10480000610508940895E894BB2766277727CB01B4
:1048100097F90895052E97FB1EF400940E94212419
:1048200057FD07D00E94732407FC03D04EF40C946C
:10483000212450954095309521953F4F4F4F5F4F24
:10484000089590958095709561957F4F8F4F9F4FFC
:1048500008950E949524A59F900DB49F900DA49F4C
:10486000800D911D11240895B7FF0C9429240E94F6
:104870002924821B930B08952F923F924F925F92AF
:104880006F927F928F929F92AF92BF92CF92DF9260
:10489000EF92FF920F931F93CF93DF93CDB7DEB7C5
:1048A000CA1BDB0B0FB6F894DEBF0FBECDBF099459
:1048B0002A88398848885F846E847D848C849B84B0
:1048C000AA84B984C884DF80EE80FD800C811B81BE
:1048D000AA81B981CE0FD11D0FB6F894DEBF0FBEED
:1048E000CDBFED010895A1E21A2EAA1BBB1BFD014D
:1048F0000DC0AA1FBB1FEE1FFF1FA217B307E407BF
:10490000F50720F0A21BB30BE40BF50B661F771F16
:10491000881F991F1A9469F76095709580959095F6
:104920009B01AC01BD01CF010895A29FB001B39FCF
:10493000C001A39F700D811D1124911DB29F700DA8
:10494000811D1124911D089597FB072E16F40094E4
:1049500007D077FD09D00E94D02407FC05D03EF493
:10496000909581959F4F0895709561957F4F08951B
:104970000E949524332312F48A1B9B0B0C94C224AF
:104980000E949524B7FF0895821B930B08952A1562
:104990003B054C055D056E057F0580079107089571
:1049A000AA1BBB1B51E107C0AA1FBB1FA617B70755
:1049B00010F0A61BB70B881F991F5A95A9F7809571
:1049C0009095BC01CD010895EE0FFF1F0590F49165
:1049D000E02D09945058BB27AA270E9402250C9469
:1049E000D0230E94C22338F00E94C92320F039F45A
:1049F0009F3F19F426F40C94BF230EF4E095E7FBD7
:104A00000C94B923E92F0E94E12358F3BA176207E7
:104A100073078407950720F079F4A6F50C94032416
:104A20000EF4E0950B2EBA2FA02D0B01B9019001C9
:104A30000C01CA01A0011124FF27591B99F0593F0D
:104A400050F4503E68F11A16F040A22F232F342F55
:104A50004427585FF3CF469537952795A795F040A3
:104A60005395C9F77EF41F16BA0B620B730B840BB8
:104A7000BAF09150A1F0FF0FBB1F661F771F881F70
:104A8000C2F70EC0BA0F621F731F841F48F48795C8
:104A900077956795B795F7959E3F08F0B0CF9395BA
:104AA000880F08F09927EE0F979587950895DF9363
:104AB000DD27B92FBF7740E85FE3161617064807D2
:104AC0005B0718F4D92F0E945A269F938F937F93E8
:104AD0006F930E94A826E8E6F0E00E942E260E942E
:104AE000D0232F913F914F915F910E945C23DD2352
:104AF00051F09058A2EA2AED3FE049EC5FE3D0780C
:104B00005D270E940225DF910C94D0230E949A25F4
:104B10000C94D0230E94C92358F00E94C22340F075
:104B200029F45F3F29F00C94B92351110C9404240B
:104B30000C94BF230E94E12368F39923B1F355231A
:104B400091F3951B550BBB27AA27621773078407A0
:104B500038F09F5F5F4F220F331F441FAA1FA9F336
:104B600035D00E2E3AF0E0E832D091505040E69524
:104B7000001CCAF72BD0FE2F29D0660F771F881F85
:104B8000BB1F261737074807AB07B0E809F0BB0B78
:104B9000802DBF01FF2793585F4F3AF09E3F51058C
:104BA00078F00C94B9230C9404245F3FE4F3983E0E
:104BB000D4F3869577956795B795F7959F5FC9F775
:104BC000880F911D9695879597F90895E1E0660FF6
:104BD000771F881FBB1F621773078407BA0720F06F
:104BE000621B730B840BBA0BEE1F88F7E0950895D8
:104BF0000E94FF256894B1110C94042408950E942A
:104C0000E92388F09F5798F0B92F9927B751B0F052
:104C1000E1F0660F771F881F991F1AF0BA95C9F740
:104C200014C0B13091F00E940324B1E008950C94B7
:104C30000324672F782F8827B85F39F0B93FCCF36A
:104C4000869577956795B395D9F73EF490958095BD
:104C5000709561957F4F8F4F9F4F0895DF93CF934E
:104C60001F930F93FF92EF92DF927B018C01689468
:104C700006C0DA2EEF010E945C23FE01E894A591A4
:104C80002591359145915591A6F3EF010E9402259A
:104C9000FE019701A801DA9469F7DF90EF90FF9089
:104CA0000F911F91CF91DF9108950E94252308F461
:104CB0008FEF08959B01AC0160E070E080E89FE316
:104CC0000C94862519F416F40C94BF230C94AC268E
:104CD0000E94E923B8F39923C9F3B6F39F57550B04
:104CE00087FF0E94BA260024A0E640EA900180587F
:104CF0005695979528F4805C660F771F881F20F0E3
:104D000026173707480730F4621B730B840B2029E2
:104D100031294A2BA69517940794202531254A2737
:104D200058F7660F771F881F20F0261737074807A8
:104D300030F4620B730B840B200D311D411DA095C7
:104D400081F7B901842F9158880F9695879508951A
:104D50009B01AC010C9449239F3F31F0915020F40A
:104D6000879577956795B795880F911D9695879547
:104D700097F9089591505040660F771F881FD2F71A
:104D800008950F931F93CF93DF938230910510F412
:104D900082E090E0E091ED04F091EE0420E030E05C
:104DA000A0E0B0E0309719F1408151810281138178
:104DB00048175907C8F08417950769F4109731F020
:104DC00012960C93129713961C9327C00093ED0430
:104DD0001093EE0422C02115310519F04217530734
:104DE00018F49A01BD01EF01DF01F801DBCF2115B5
:104DF0003105F9F0281B390B2430310580F48A8104
:104E00009B816115710521F0FB019383828304C0AE
:104E10009093EE048093ED04FE01329644C0FE01AF
:104E2000E20FF31F81939193225031093983288334
:104E30003AC02091EB043091EC04232B41F42091F3
:104E40000201309103013093EC042093EB04209194
:104E50000001309101012115310541F42DB73EB714
:104E60004091040150910501241B350BE091EB04A6
:104E7000F091EC04E217F307A0F42E1B3F0B281768
:104E8000390778F0AC014E5F5F4F2417350748F0C3
:104E90004E0F5F1F5093EC044093EB04819391936A
:104EA00002C0E0E0F0E0CF01DF91CF911F910F91C0
:104EB0000895CF93DF93009709F481C0FC013297E6
:104EC00013821282A091ED04B091EE04109781F448
:104ED00020813181820F931F2091EB043091EC04EB
:104EE0002817390751F5F093EC04E093EB0467C001
:104EF000ED0120E030E0CE17DF0740F44A815B810E
:104F00009E0141155105F1F0EA01F5CFD383C2832B
:104F100040815181840F951FC817D90759F48881A2
:104F20009981840F951F0296918380838A819B814A
:104F3000938382832115310529F4F093EE04E093E5
:104F4000ED043DC0E901FB83EA8349915991C40F07
:104F5000D51FEC17FD0761F480819181840F951FA7
:104F60000296E90199838883828193819B838A8356
:104F7000E0E0F0E012968D919C911397009719F064
:104F8000FD01DC01F7CF8D919C9111979D012E5F62
:104F90003F4F820F931F2091EB043091EC042817B0
:104FA000390769F4309729F41092EE041092ED0459
:104FB00002C013821282B093EC04A093EB04DF9141
:104FC000CF910895A0E0B0E0E8EEF7E20C94402421
:104FD000EC01009721F4CB010E94C126B4C0FC0172
:104FE000E60FF71F9C0122503109E217F30708F47E
:104FF000A8C0D9010D911C91119706171707B0F0A1
:105000000530110508F49BC0C8010497861797075F
:1050100008F495C002501109061B170B0193119358
:105020006D937C93CF010E94592789C05B01A01A20
:10503000B10A4C01800E911EA091ED04B091EE04D6
:10504000612C712CE12CF12C109709F446C08D9144
:105050009C911197A815B905B1F56C0142E0C40EF9
:10506000D11CCA14DB0478F14C018A189B08640136
:1050700042E0C40ED11C1296BC9012971396AC91CC
:10508000B5E0CB16D10440F0B282A3839182808236
:10509000D9016D937C9309C00E5F1F4F800F911F44
:1050A000F90191838083EB2DFA2FE114F10431F0A3
:1050B000D7011396FC93EE93129741C0F093EE0440
:1050C000E093ED043CC06816790608F43C017D01CC
:1050D00012960D90BC91A02DB7CF8091EB049091CA
:1050E000EC0488169906E1F466167706C8F48091F8
:1050F000000190910101009741F48DB79EB7409156
:10510000040150910501841B950BE817F907C8F4B9
:10511000F093EC04E093EB04F901718360830FC01A
:10512000CB010E94C1267C01009759F0A801BE0165
:105130000E94AD28CE010E945927C70104C0CE01AC
:1051400002C080E090E0CDB7DEB7EEE00C945C24C6
:1051500081E090E0F8940C94E628FB01DC0102C0A9
:1051600001900D9241505040D8F70895FB01DC01A9
:1051700001900D920020E1F70895FB01DC01415000
:10518000504048F001900D920020C9F701C01D92D7
:1051900041505040E0F70895FB0151915523A9F08B
:1051A000BF01DC014D9145174111E1F759F4CD01E3
:1051B0000190002049F04D9140154111C9F3FB01C8
:1051C0004111EFCF81E090E001970895F894FFCF6F
:1051D0000000EF0420000000000063023E01AA036B
:1051E0006202B302CB024A0200000000000000008D
:1051F000ED02AD03AD0300000000EC02D603ED02AA
:10520000D8037F0400000000D1013E0168011E02A6
:10521000990177018B0100000000AD033E01AA0354
:10522000A903AD03AD03AD0300000000AD033E01D3
:10523000AA03A903000000007A034D03AA03620237
:105240004503310322030944657465637465640092
:10525000094E6F7468696E670043616C69627261C0
:1052600074696E67002E000A446F6E6521005072EB
:105270006F6772616D207374617274656421002CB4
:10528000007273686F653A000961780900096179F5
:10529000090009617A090009790900097209000900
:1052A000700900097765696768743A000973090035
:1052B000096209006C73686F653A0063686573740E
:1052C0003A0009615A090009616C740900094A75BC
:1052D0006D703A0043686573740942656E643A0004
:1052E0000953747261696768740900526967687468
:1052F00020666F6F740957616C6B3A00094E6F74CA
:1053000068696E670900094372756973650009531E
:105310007465706261636B000953746570736964CE
:1053200065004C65667420666F6F740957616C6B1D
:105330003A004C656674206A6F79737469636B3ADE
:105340000900627574746F6E090052696768742091
:105350006A6F79737469636B3A0900096261636B00
:105360007761726400096C6566740009666F727714
:105370006172640009726967687400424E4F30358B
:1053800035004F6F6F70732C206E6F20424E4F3080
:1053900035352031206465746563746564202E2E74
:1053A0002E20436865636B20796F75722077697270
:1053B000696E67206F722049324320414444522174
:0453C000000D0A00D2
:00000001FF
