:100000000C9404020C942C020C942C020C94B30B50
:100010000C94B30B0C94B30B0C942C020C942C0288
:100020000C942C020C942C020C942C020C942C0298
:100030000C942C020C942C020C942C020C942C0288
:100040000C9487120C942C020C94810B0C945B0B77
:100050000C942C020C942C020C942C020C942C0268
:100060000C942D0C0C942C021D0720072307260747
:1000700029072C074E072F073207350738073B079C
:100080003E074107440747074A07084AD73B3BCE8C
:10009000016E84BCBFFDC12F3D6C74319ABD568387
:1000A0003DDA3D00C77F11BED9E4BB4C3E916BAA3F
:1000B000AABE000000803F004E414E494E495459AF
:1000C000494E46CDCCCC3D0AD7233C17B7D1387723
:1000D000CC2B329595E6241FB14F0A000020410039
:1000E00000C84200401C4620BCBE4CCA1B0E5AAE83
:1000F000C59D7400407A10F35A00A0724E18090092
:1001000010A5D4E80000E87648170000E40B54027C
:100110000000CA9A3B000000E1F5050000809698B7
:1001200000000040420F000000A086010000001007
:100130002700000000E80300000000640000000049
:10014000000A00000000000100000000002C76D82A
:1001500088DC674F0823DFC1DFAE59E1B1B796E510
:10016000E3E453C63AE651997696E8E6C28426EB74
:10017000898C9B62ED407C6FFCEFBC9C9F40F2BA87
:10018000A56FA5F490055A2AF75C936B6CF9676D1F
:10019000C11BFCE0E40D47FEF520E6B500D0ED9074
:1001A0002E0300943577050080841E080000204E41
:1001B0000A000000C80C333333330F986E128311DA
:1001C00041EF8D2114893BE65516CFFEE6DB18D1B1
:1001D000844B381BF77C1D901DA4BBE42420328483
:1001E000725E228100C9F124ECA1E53D27000000E8
:1001F000002300260029002D2D2D2D2D2D2D2D2DF8
:100200002D2D2D2D2D2D2D2D2D2D2D2D2D2D2D2D1E
:100210002D2D2D2D2D2D2D2D2D2D2D0A00526573BB
:100220006F6C7574696F6E3A202020004D617820E4
:1002300056616C75653A20202020004D696E20566D
:10024000616C75653A2020202000556E69717565D6
:100250002049443A202020200044726976657220AB
:100260005665723A20202000436F6C6F722028522E
:10027000474241290043757272656E7420286D41B2
:100280002900566F6C7461676520285629004F62FB
:100290006A6563742054656D702028432900416DA0
:1002A0006269656E742054656D7020284329005280
:1002B000656C61746976652048756D6964697479E7
:1002C0002028252900526F746174696F6E2076654D
:1002D00063746F72004C696E65617220416363657F
:1002E0006C65726174696F6E20286D2F73322900FE
:1002F0004772617669747920286D2F733229004422
:10030000697374616E63652028636D29005072659E
:100310007373757265202868506129004C6967689D
:100320007420286C757829004779726F73636F7039
:10033000696320287261642F7329004F7269656EAA
:10034000746174696F6E20286465677265657329CE
:10035000004D61676E6574696320287554290041FA
:100360006363656C65726174696F6E20286D2F73AD
:10037000322900547970653A202020202020202046
:10038000200053656E736F723A20202020202020B9
:10039000002D2D2D2D2D2D2D2D2D2D2D2D2D2D2DBA
:1003A0002D2D2D2D2D2D2D2D2D2D2D2D2D2D2D2D7D
:1003B0002D2D2D2D2D0000000000240027002A00E7
:1003C00000000000250028002B000404040404049D
:1003D00004040202020202020303030303030102F4
:1003E00004081020408001020408102001020408C3
:1003F00010200000000800020100000304070000B4
:100400000000000000004F1D11241FBECFEFD8E0F8
:10041000DEBFCDBF24E0A8EDB2E001C01D92A33C39
:10042000B207E1F712E0A0E0B1E0E4E2FFE402C0CD
:1004300005900D92A83DB107D9F712E0C4E0D2E0D3
:1004400004C02197FE010E946C23C330D107C9F775
:100450000E94D1120C9490270C940000089580E023
:1004600090E00895CF92DF92EF92FF920F931F9347
:10047000CF93DF937C01CB018A012091A00322233B
:1004800089F0EB016B01C40ED51ECC15DD0569F0BA
:100490006991D701ED91FC910190F081E02DC701A8
:1004A0000995F3CF642F0E945B0DC801DF91CF91B6
:1004B0001F910F91FF90EF90DF90CF900895CF9311
:1004C000DF931F92CDB7DEB769832091A00322236B
:1004D000D1F02091C303203240F021E030E0FC0154
:1004E0003383228380E090E015C08091A103E82F40
:1004F000F0E0EE55FC4F998190838F5F8093A103CC
:100500008093C30305C061E0CE0101960E945B0D9C
:1005100081E090E00F90DF91CF9108950F931F93AA
:10052000CF93DF93EC018B0183E090E00E946B2579
:10053000FC01118300831282998388838CB5837FA9
:100540008CBD8CB58F7D8CBD8CB58C7F81608CBD56
:100550008DB581608DBD1FB7F89480911603811110
:1005600027C0E4EDF3E08491E8EEF3E09491E82F06
:10057000F0E0EE0FFF1FEA54FC4FA591B491EC910F
:10058000E92321F461E08AE00E94A11161E08AE0A0
:100590000E94EE118CB580618CBD8CB580648CBDE1
:1005A00061E08DE00E94EE1161E08BE00E94EE11AF
:1005B000809116038F5F809316031FBF0990D88127
:1005C000C02D61E088810E94EE1161E088810E9467
:1005D000A11160E088810E94A1118A81811102C06D
:1005E00060E001C061E088810E94A11181E48EBDBC
:1005F00000000DB407FEFDCF8EB58FEF8EBD00005D
:100600000DB407FEFDCF8EB58A81811102C061E075
:1006100001C060E088810E94A11161E08881DF91C2
:10062000CF911F910F910C94A111CF92DF92EF9275
:10063000FF929B01245F3F4FFB01C190D190E1905D
:10064000F190BF01FC01C192D192E192F192CF01F0
:100650006217730789F7FF90EF90DF90CF900895AE
:10066000EF92FF920F931F93CF93DF93CDB7DEB737
:10067000A4970FB6F894DEBF0FBECDBF8C01FC016E
:100680001682E080F180F701268D378D40A151A1BF
:1006900062857385848595850E948F2390580E947A
:1006A0009D24F801708767836A3071050CF442C09D
:1006B00085859685A785B0898196A11DB11D858701
:1006C0009687A787B08BB701625F7F4FCE014996AF
:1006D0000E94150320E030E0A90169A17AA18BA155
:1006E0009CA10E94FA24F80160817181625F7F4FB2
:1006F00018164CF4CE010D960E9415032D893E89E3
:100700004F89588D0BC0CE0101960E941503898533
:100710009A85AB85BC859C01AD015058F801618973
:100720007289838994890E949023F801618B728B6E
:10073000838B948BF801878190858A3091057CF4B6
:10074000218532852A30310554F021E02683118A33
:10075000128A138A148A158616861786108AF8015B
:100760009287818781E04585568567857089141653
:100770001506160617060CF080E0A4960FB6F8943E
:10078000DEBF0FBECDBFDF91CF911F910F91FF90C4
:10079000EF900895DC01ED91FC91848195818C347A
:1007A000BFEF9B0714F488599E4F228133812C346C
:1007B0004FEF340714F428593E4F889FB001899FAA
:1007C000700D700D1124229FC001239F900D900D7C
:1007D0001124680F791F072E000C880B990B0E94BB
:1007E000C5210C940D258F929F92AF92BF92CF920C
:1007F000DF92EF92FF92CF93DF93FC01C081D18112
:100800006C817D816C34FFEF7F0714F468597E4F53
:10081000072E000C880B990B0E94C5216B017C01EF
:100820006A817B816C348FEF780714F468597E4FAE
:10083000072E000C880B990B0E94C5214B015C010F
:1008400020E030E0A9010E94FA24181644F520E0C7
:1008500030E0A901C701B6010E94FA2487FD09C052
:10086000A5019401C701B6010E942B240E94FC231C
:1008700056C020E030E0A901C701B6010E94BE21A8
:1008800087FF0DC0A5019401C701B6010E942B246A
:100890000E94FC232BED3FE049EC50E415C020E022
:1008A00030E0A901C501B4010E94BE2187FF0FC03D
:1008B000A5019401C701B6010E942B240E94FC23CC
:1008C0002BED3FE049E450E40E94902328C020E053
:1008D00030E0A901C501B4010E94BE2181111CC0F4
:1008E00020E030E0A901C701B6010E94FA241816E1
:1008F00074F020E030E0A901C701B6010E94BE21DA
:1009000087FF0AC064EE7BEC86E990E408C06BEDDB
:100910007FE089EC9FE303C060E070E0CB0120E062
:1009200030E044E353E40E9424222BED3FE049E40D
:1009300050E40E942B240E949D24CB01DF91CF9193
:10094000FF90EF90DF90CF90BF90AF909F908F90EF
:1009500008956F927F928F929F92AF92BF92CF92A3
:10096000DF92EF92FF920F931F93CF93DF93CDB758
:10097000DEB762970FB6F894DEBF0FBECDBF7C0125
:10098000F701819191916F018E010F5F1F4F2CE054
:10099000F80111922A95E9F75E01FDE0AF0EB11C56
:1009A00026E0F50111922A95E9F7A5016AE170E0C8
:1009B0000E94470F8F84988869887A886D857E8524
:1009C000072E000C880B990B0E94C52120E030E017
:1009D00040E85DE30E94242269837A838B839C83B1
:1009E000B401990C880B990B0E94C52120E030E0DE
:1009F00040E85DE30E9424226D837E838F83988785
:100A0000B301770C880B990B0E94C52120E030E0E0
:100A100040E85DE30E94242269877A878B879C8760
:100A200098014701FEE08F0E911CF901819191918F
:100A3000A191B1919F01F60181939193A193B193FB
:100A40006F01E815F90589F7F701808191812CE0A4
:100A5000F80111922A95E9F726E0F50111922A95FD
:100A6000E9F7A50168E270E00E94470FAF84B888FB
:100A7000C988DA886D857E85072E000C880B990B56
:100A80000E94C52120E030E048EC52E40E942B2473
:100A900069837A838B839C83B501BB0C880B990B8C
:100AA0000E94C52120E030E048EC52E40E942B2453
:100AB0006D837E838F839887B601DD0C880B990B3D
:100AC0000E94C52120E030E048EC52E40E942B2433
:100AD00069877A878B879C87FAE1EF0EF11CF80112
:100AE00081919191A191B1918F01F40181939193A1
:100AF000A193B1934F01EE15FF0589F762960FB6EA
:100B0000F894DEBF0FBECDBFDF91CF911F910F9143
:100B1000FF90EF90DF90CF90BF90AF909F908F901D
:100B20007F906F9008958F929F92AF92BF92CF92D5
:100B3000DF92EF92FF920F931F93CF93DF93CDB786
:100B4000DEB762970FB6F894DEBF0FBECDBF8C0143
:100B5000DC018D919D917D01FE0131966F012CE0AC
:100B6000DF011D922A95E9F7AE01435F5F4F26E052
:100B7000FA0111922A95E9F76AE170E00E94470FA5
:100B80008F849888A988BA886D857E85072E000C89
:100B9000880B990B0E94C52120E030E040E85DE31E
:100BA0000E94242269837A838B839C83B401990CED
:100BB000880B990B0E94C52120E030E040E85DE3FE
:100BC0000E9424226D837E838F839887B501BB0C9E
:100BD000880B990B0E94C52120E030E040E85DE3DE
:100BE0000E94242269877A878B879C87F601C80137
:100BF0000E964191519161917191D7014D935D9301
:100C00006D937D937D01A817B90799F7F801828547
:100C10009385A485B5854681578160857185428F0E
:100C2000538F648F758F868F978FA0A3B1A3629621
:100C30000FB6F894DEBF0FBECDBFDF91CF911F91ED
:100C40000F91FF90EF90DF90CF90BF90AF909F906B
:100C50008F900895EF92FF920F931F93CF93DF939E
:100C6000CDB7DEB7A8970FB6F894DEBF0FBECDBFE5
:100C70007C01DC010D911C9110929F0310929E0348
:100C80001092A1031092C30310920A0481E0809392
:100C900009041092040461E082E10E94A11161E064
:100CA00083E10E94A1118091B9008E7F8093B900E9
:100CB0008091B9008D7F8093B90088E48093B8005B
:100CC00085E48093BC0085E899E0909318038093B5
:100CD000170386E899E090931A0380931903C801DB
:100CE0000E947311803AD1F4F8011386128640E015
:100CF0006DE370E0C8010E9449116EE170E080E090
:100D000090E00E94411240E26FE370E0C8010E944F
:100D100049116EE170E080E090E010C068EE73E091
:100D200080E090E00E944112C8010E947311803A55
:100D3000D9F282E892E00E948D0E7EC00E9441129C
:100D4000C8010E947311803A29F06AE070E080E0E7
:100D500090E0F4CF62E370E080E090E00E94411206
:100D600040E06EE370E0C8010E9449116AE070E063
:100D700080E090E00E94411240E067E070E0C8012E
:100D80000E94491140E06FE370E0C8010E944911E0
:100D90006AE070E080E090E00E9441128CE090E018
:100DA000D8011B969C938E931A974CE06DE370E0EC
:100DB000C8010E9449116EE170E080E090E00E945D
:100DC000411264E170E080E090E00E94411264EF23
:100DD00071E080E090E00E94411264EF71E080E0F9
:100DE00090E00E944112F70180819181DC01ED9138
:100DF000FC910084F185E02DBE016F5F7F4F099566
:100E000081E993E00E948F0F0E94050E82E893E033
:100E10000E948F0FCE0101960E943D1183E793E05F
:100E20000E948F0FED89FE893197E131F105B0F510
:100E3000EC5CFF4F0C946C23FFCF8FE593E02CC04C
:100E400081E593E029C08BE393E026C088E293E03C
:100E500023C08CE193E020C08DE093E01DC08FEFB4
:100E600092E01AC080EF92E017C085ED92E014C0C6
:100E700085EC92E011C08FEA92E00EC08EE992E01C
:100E80000BC08EE892E008C082E892E005C085E7DA
:100E900092E002C088E692E00E948F0F0E94050E49
:100EA00089E592E00E948F0F6D857E858F859889F8
:100EB0000E9411118AE492E00E948F0F69897A8959
:100EC0008B899C890E9411118BE392E00E948F0F05
:100ED0006D8D7E8D8F8D98A10E94EB0F8CE292E03C
:100EE0000E948F0F698D7A8D8B8D9C8D0E94EB0FE8
:100EF0008DE192E00E948F0F69A17AA18BA19CA144
:100F00000E94EB0F87EF91E00E948F0F0E94050E69
:100F1000C7010E949305A8960FB6F894DEBF0FBED6
:100F2000CDBFDF91CF911F910F91FF90EF9008956A
:100F3000FF920F931F93CF93DF93EC018B01F42E5D
:100F4000FC0132968CE0DF01982F1D929A95E9F70B
:100F50003C96DF011D928A95E9F78CE090E00E94B3
:100F60006B25FC018AE291E091838083C801110F17
:100F7000AA0BBB0B86839783A087B187F38288EA8D
:100F800094E095838483F983E883DF91CF911F9167
:100F90000F91FF900895CF92DF92EF92FF920F93FF
:100FA0001F93CF93DF936C017A018B01C0E0D0E0F7
:100FB000CE15DF0581F0D8016D918D01D601ED913F
:100FC000FC910190F081E02DC6010995892B11F06B
:100FD0002196EECF7E01C701DF91CF911F910F9136
:100FE000FF90EF90DF90CF900895FC01538D448DDA
:100FF000252F30E0842F90E0821B930B541710F0C4
:10100000CF96089501970895FC01918D828D9817D0
:1010100061F0828DDF01A80FB11D5D968C91928DDC
:101020009F5F9F73928F90E008958FEF9FEF0895D9
:10103000FC01918D828D981731F0828DE80FF11DA2
:10104000858D90E008958FEF9FEF0895FC01918DBD
:10105000228D892F90E0805C9F4F821B91098F73B6
:10106000992708958BE094E00E94260821E0892BBF
:1010700009F420E0822F0895FC01848DDF01A80F80
:10108000B11DA35ABF4F2C91848D90E001968F73B0
:101090009927848FA689B7892C93A089B1898C91CF
:1010A000837080648C93938D848D981306C002881E
:1010B000F389E02D80818F7D80830895EF92FF92E8
:1010C0000F931F93CF93DF93EC0181E0888F9B8D6B
:1010D0008C8D981305C0E889F989808185FD26C02B
:1010E000F62E0B8D10E00F5F1F4F0F731127E02EB0
:1010F0008C8DE8120CC00FB607FCFACFE889F9898D
:10110000808185FFF5CFCE010E943C08F1CF8B8D09
:10111000FE01E80FF11DE35AFF4FF0829FB7F894EC
:101120000B8FEA89FB89808180620AC09FB7F8949F
:10113000EE89FF896083E889F98980818370806402
:1011400080839FBF81E090E0DF91CF911F910F914D
:10115000FF90EF900895CF93DF93EC01888D882363
:10116000C9F0EA89FB89808185FD05C0A889B98914
:101170008C9186FD0FC00FB607FCF5CF808185FFEF
:10118000F2CFA889B9898C9185FFEDCFCE010E945D
:101190003C08E7CFDF91CF91089580E090E0892B64
:1011A00029F00E94320881110C94000008952091CA
:1011B000DA023091DB022817390771F49091D802D6
:1011C0008091D902981741F0E091D802F0E0E25AFC
:1011D000FC4F808190E008958FEF9FEF0895089570
:1011E0001F93CF93DF93DC015C968D919C915D976B
:1011F000009739F421E030E013963C932E93129738
:101200003BC05196ED91FC91529750962C9150977E
:10121000322F30951FB75E964C915E97742F727087
:1012200041FD6095F8944081772311F0422B01C075
:1012300043234083EC012197F1F748E0508160FFA0
:1012400002C0522B01C053235083EC012197F1F7C8
:101250006695415099F78081772319F08323808325
:1012600002C0282B20831FBF5C968D919C915D97B7
:101270000197F1F781E090E0DF91CF911F91089500
:101280002091DA023091DB022817390771F480913E
:10129000D9022091D80290E0805C9F4F821B910977
:1012A00060E470E00E943623089580E090E00895A5
:1012B0002091DA023091DB0228173907B9F49091B6
:1012C000D8028091D902981789F0E091D802F0E015
:1012D000E25AFC4F80812091D80230E02F5F3F4FCF
:1012E0002F7333272093D80290E008958FEF9FEF5C
:1012F00008950895089585ED8093BC008091BC0009
:1013000084FDFCCF10920A04089508950895E09199
:101310009F0380919E03E81730F4F0E0EC53FC4FFC
:10132000808190E008958FEF9FEF089590919F0343
:1013300080919E03981750F4E92FF0E0EC53FC4F96
:10134000208130E09F5F90939F0302C02FEF3FEF1B
:10135000C901089580919E0390E020919F03821B14
:10136000910908950E9452270F931F93CF93DF9303
:10137000EC0188819981009729F02A813B81261709
:10138000370788F48B016F5F7F4F0E948C26009790
:1013900061F0998388831B830A832C813D81232BF1
:1013A00011F4FC01108281E001C080E0DF91CF9157
:1013B0001F910F9108950C9403268F929F92AF92E4
:1013C000BF92CF92DF92EF92FF920F931F93CF9332
:1013D000DF93CDB7DEB762970FB6F894DEBF0FBECE
:1013E000CDBF7C018B0184E2DB011D928A95E9F778
:1013F00084E290E0A0E0B0E0FB0180839183A283CF
:10140000B383F70186819781A085B185FB01848331
:101410009583A683B78383E090E0A0E0B0E0808767
:101420009187A287B3870E947B12D80150966D9353
:101430007D938D939C935397FE0131968CE0DF0151
:101440001D928A95E9F7AE01435F5F4F86E0FA018E
:1014500011928A95E9F76AE170E0C7010E94470F8F
:101460006D857E85072E000C880B990B0E94C52187
:1014700020E030E040E85DE30E9424224B015C0163
:101480006F857889072E000C880B990B0E94C52167
:1014900020E030E040E85DE30E9424226B017C0103
:1014A00069897A89072E000C880B990B0E94C52147
:1014B00020E030E040E85DE30E942422D801549609
:1014C0008D929D92AD92BC925797F801C08ED18EAD
:1014D000E28EF38E5C966D937D938D939C935F97D4
:1014E00081E062960FB6F894DEBF0FBECDBFDF91EC
:1014F000CF911F910F91FF90EF90DF90CF90BF9011
:10150000AF909F908F9008950F931F93CF93DF9389
:101510008C01EB0188E2FB0111928A95E9F74BE01F
:1015200050E061EC72E0CE010E9467271B8681E0EB
:1015300090E0A0E0B0E08C879D87AE87BF87F80180
:1015400086819781A085B185888B998BAA8BBB8B6F
:1015500083E090E0A0E0B0E08C8B9D8BAE8BBF8BE6
:101560001CA21DA21EA21FA2188E198E1A8E1B8EDF
:101570001C8E1D8E1E8E1F8E8AE097EDA3E2BCE3AB
:1015800088A399A3AAA3BBA3DF91CF911F910F9129
:101590000895EF92FF920F931F93CF93DF936115FE
:1015A000710511F480E01CC041155105C1F07B01AB
:1015B000EC018C819D818A01080F191FB801CE01B1
:1015C0000E94B409882371F3288139818C819D811F
:1015D000B701820F931F0E9460271D830C8381E057
:1015E000DF91CF911F910F91FF90EF900895CF93CE
:1015F000DF93EC0188819981009711F00E94032606
:10160000198218821D821C821B821A82DF91CF915F
:101610000895EF92FF920F931F93CF93DF93EC0106
:101620007B018A01BA010E94B409811104C0CE0174
:101630000E94F70A07C01D830C83B7018881998136
:101640000E946027CE01DF91CF911F910F91FF90F3
:10165000EF900895CF93DF93EC016115710559F078
:10166000FB0101900020E9F73197AF01461B570BB2
:101670000E94090B02C00E94F70ACE01DF91CF91B0
:101680000895FC01808191810C940326FC01118254
:10169000108213821282158214826115710551F035
:1016A000FB0101900020E9F73197AF01461B570B72
:1016B0000C94090B08951F920F920FB60F921124EC
:1016C0002F933F934F935F936F937F938F939F934A
:1016D000AF93BF93EF93FF938BE094E00E943C089D
:1016E000FF91EF91BF91AF919F918F917F916F91FA
:1016F0005F914F913F912F910F900FBE0F901F90D0
:1017000018951F920F920FB60F9211242F938F935B
:101710009F93EF93FF93E0911B04F0911C04808151
:10172000E0912104F091220482FD12C09081809109
:1017300024048F5F8F7320912504821751F0E0916C
:101740002404F0E0E55FFB4F958F8093240401C0F3
:101750008081FF91EF919F918F912F910F900FBEFC
:101760000F901F9018951F920F920FB60F92112491
:101770002F933F934F935F936F937F938F939F9399
:10178000AF93BF93EF93FF93E091DA02F091DB0206
:10179000309709F451C0968DA685B785858591FF50
:1017A00004C09C91892329F447C09C91892309F0A6
:1017B00043C0A389B4899C918589809589238C93A2
:1017C000868997890197F1F7608D718DA685B78518
:1017D000558538E020E0CB010197F1F7822F90E0AA
:1017E00095958795282F4C91452309F02068315015
:1017F00091F7868D81FD20958091D90290E0019628
:101800008F7399273091D802381749F0A091D902E7
:10181000B0E0A25ABC4F2C938093D90203C0868DAE
:101820008160868F828D938D0197F1F7A389B489AA
:101830009C918589892B8C93FF91EF91BF91AF91FA
:101840009F918F917F916F915F914F913F912F91D8
:101850000F900FBE0F901F9018951F920F920FB60A
:101860000F9211242F933F934F935F936F937F9326
:101870008F939F93AF93BF93EF93FF938091B900A2
:10188000887F803609F49CC068F5883209F45BC013
:1018900090F4803109F454C038F4882309F4F6C078
:1018A000883009F44DC0F6C0883109F44CC080324C
:1018B00009F45DC0EFC0803409F468C048F4803397
:1018C00009F455C0883309F0E5C080930804D8C0F6
:1018D000803509F44FC0883509F45DC0883409F0BB
:1018E000D9C0D6C0883909F4C7C0A8F4883709F42C
:1018F00067C038F4883609F463C0803709F460C0E3
:10190000C9C0883809F4B8C0803909F45FC080388C
:1019100009F0C0C05BC0803B09F486C038F4803A4F
:1019200009F466C0883A09F47FC0B4C0803C09F469
:10193000A7C0883C09F4A4C0883B09F48AC0AAC0A7
:101940008091050410C090910704809106049817B7
:1019500070F5E091070481E08E0F80930704F0E0BA
:10196000EC51FC4F80818093BB0085EC86C0809356
:1019700008048EC0E091070481E08E0F8093070475
:101980008091BB00F0E0EC51FC4F80839091070404
:10199000809106046EC0E091070481E08E0F809371
:1019A00007048091BB00F0E0EC51FC4F80838091F4
:1019B000090481116DC081E08093040484EA61C050
:1019C00083E080930A0410925D03CFCF80915D0382
:1019D000803208F051C0E0915D0381E08E0F80936A
:1019E0005D038091BB00F0E0E35CFC4F8083BDCFE2
:1019F00085EC8093BC0010920A0480915D038032D4
:101A000030F4E0915D03F0E0E35CFC4F1082609104
:101A10005D0370E0E0911903F0911A038DE393E008
:101A2000099510925D0336C084E080930A041092F9
:101A30003C0310923B03E0911703F09118030995C2
:101A400080913B03811105C081E080933B0310929C
:101A50001B03E0913C0381E08E0F80933C03F0E098
:101A6000E55EFC4F80818093BB0090913C038091A8
:101A70003B03981708F479CF85E88093BC000AC02F
:101A800085EC8093BC0010920A0404C010920804F4
:101A90000E947B09FF91EF91BF91AF919F918F9130
:101AA0007F916F915F914F913F912F910F900FBE5A
:101AB0000F901F90189540913B03262F30E0240F84
:101AC000311D21323105DCF420910A042430C9F49F
:101AD000FC0180E090E0861758F430913B0321919F
:101AE000DC01A55EBC4FA30FB11D2C930196F3CF73
:101AF00080913B03680F60933B0380E0089581E091
:101B0000089582E00895CF93DF93FC01248135810D
:101B1000232B71F0FB01DC01CD91DC91608171819F
:101B2000CE010E947627009719F08C1B9D0B02C0F6
:101B30008FEF9FEFDF91CF910895CF93DF93FC015B
:101B40004481558141155105D9F061157105C1F0E8
:101B50009A016417750708F49B01EC01888199814B
:101B6000421B530B5D834C83BC01620F731F0E94A9
:101B70006727E881F9818C819D81E80FF91F108228
:101B8000DF91CF9108950F931F93CF93DF93EC01D3
:101B90000E947B12688779878A879B87E881F98111
:101BA0000284F385E02DCE01099597FF17C00E94AE
:101BB0007B12088519852A853B85DC01CB01801BBA
:101BC000910BA20BB30B0C811D812E813F818017DD
:101BD0009107A207B30710F38FEF9FEFDF91CF912B
:101BE0001F910F910895009769F0FC01019000206A
:101BF000E9F73197AF01481B590BBC018BE094E02A
:101C00000C94CB0780E090E0089588EC92E00C946F
:101C1000F30DFC0144815581608171818BE094E07A
:101C20000C94CB07CF93DF930E94090EEC010E9426
:101C3000050E8C0F9D1FDF91CF910895CF93DF93F9
:101C4000EC01FB0144815581608171810E94C90AC8
:101C5000811103C0CE010E94F70ACE01DF91CF911E
:101C60000895EF92FF920F931F93CF93DF93CDB719
:101C7000DEB7A1970FB6F894DEBF0FBECDBF7C01D3
:101C8000CB01BA01F70111821082138212821582F0
:101C900014828E010F5F1F4F22E044E00E94881DD6
:101CA000BC01C7010E942A0BA1960FB6F894DEBFB3
:101CB0000FBECDBFDF91CF911F910F91FF90EF909D
:101CC00008950F931F93CF93DF93CDB7DEB762973D
:101CD0000FB6F894DEBF0FBECDBF8C01CB01F8016B
:101CE0001182108213821282158214824AE0BE0190
:101CF0006F5F7F4F0E94D31DBE016F5F7F4FC80192
:101D00000E942A0B62960FB6F894DEBF0FBECDBFBD
:101D1000DF91CF911F910F9108950C94F30DFB016A
:101D2000DC0111961C921E9213961C921E92129721
:101D300015961C921E9214978617970749F060819A
:101D400071816115710521F0448155810C94090B55
:101D5000089590910A049111FCCF91E090930A04A8
:101D6000909309042FEF2093080410920704260F84
:101D7000209306049093050490910504880F892B05
:101D80008093050480910404813061F4109204046E
:101D9000809105048093BB008091BC0083FDF8CF47
:101DA00085EC01C085EE8093BC0080910A048130EF
:101DB000E1F380910704861710F460910704A4EE04
:101DC000B3E0E4ECF3E080E0861721F09D9191937D
:101DD0008F5FFACF0895282F3091C303313208F076
:101DE0004AC080910A048111FCCF9091C20342E065
:101DF00040930A04209309042FEF209308041092C3
:101E0000070430930604E2EAF3E0A4EEB3E020E036
:101E1000321721F041914D932F5FFACF10920504B4
:101E200020910504990F922B90930504909104043E
:101E3000913061F410920404909105049093BB00DA
:101E40009091BC0093FDF8CF95EC01C095EE909376
:101E5000BC0090910A049230E1F3909108049F3FF6
:101E600079F080910804803241F080910804803339
:101E700031F084E005C081E003C082E001C083E06E
:101E80001092A1031092C3031092A0030895EF9241
:101E9000FF920F931F93CF93DF938C017A01DC01A4
:101EA00013968C91139791E09093A0038093C203B3
:101EB0001092A1031092C30314968D919C911597D3
:101EC000DC01ED91FC910190F081E02D099581E01C
:101ED0000E94EB0E66E0F80183810E94A90E109229
:101EE0009F0380939E03E701F6E0EF0EF11CD801FB
:101EF00014968D919C911597DC01ED91FC910284D3
:101F0000F385E02D09958993EC16FD0681F781E0B4
:101F1000DF91CF911F910F91FF90EF9008950F9354
:101F20001F93CF93DF938C01C0E0D0E0F801EC0F5A
:101F3000FD1F6491662341F08BE094E00E945E08EF
:101F4000892B11F02196F2CFCE01DF91CF911F9115
:101F50000F9108958F929F92AF92BF920F931F930C
:101F6000CF93DF93CDB7DEB7A1970FB6F894DEBF5E
:101F70000FBECDBF19A2423008F44AE08E010F5DBA
:101F80001F4F842E912CA12CB12CA50194010E94ED
:101F90004A23E62FB901CA0101501109EA3014F4AD
:101FA000E05D01C0E95CD801EC93232B242B252BA9
:101FB00061F7C8010E94F30DA1960FB6F894DEBF39
:101FC0000FBECDBFDF91CF911F910F91BF90AF900A
:101FD0009F908F9008954F925F926F927F928F9211
:101FE0009F92AF92BF92CF92DF92EF92FF926B01DE
:101FF0007C019B01AC010E945125882319F08BECD8
:1020000092E01AC046015701E894B7F82FEF3FEF6E
:102010004FE75FE7C501B4010E945125811110C04F
:102020002FEF3FEF4FE75FE7C501B4010E94BE21EC
:10203000181634F48FEC92E00E94F30D7C0183C0FB
:102040002FEF3FEF4FE75FE4C701B6010E94FA248C
:1020500018161CF483ED92E0EFCF2FEF3FEF4FE720
:102060005FECC701B6010E94BE2187FDF3CF20E0DF
:1020700030E0A901C701B6010E94BE2187FF0BC055
:102080006DE28BE094E00E945E085C01F7FAF09448
:10209000F7F8F09402C0A12CB12C2AE037ED43EA06
:1020A0005BE3C701B6010E9490232B013C010E9413
:1020B000A4246B017C010E94C3219B01AC01C301DC
:1020C000B2010E948F232B013C014AE0C701B601F7
:1020D0000E94AA0F7C01EA0CFB1C6EE28BE094E0EC
:1020E0000E945E08E80EF91E20E030E040E251E474
:1020F000C301B2010E9424222B013C010E94A424AE
:102100004B01A12CB12C4AE0C501B4010E94AA0FD9
:10211000E80EF91EC501B4010E94C3219B01AC0168
:10212000C301B2010E948F2320E030E040E251E47D
:102130000E9424220E94A42480E090E04AE00E94B1
:10214000AA0FE80EF91E0E94050E8E0D9F1DFF902E
:10215000EF90DF90CF90BF90AF909F908F907F9047
:102160006F905F904F900895CF92DF92EF92FF9221
:102170000F931F93CF93DF937C018B016A0166EF6E
:1021800071E00E94460BD80114968D919C91159791
:102190000097C1F0E6018C159D0508F4EC01D8010B
:1021A000ED91FC911197EC0FFD1FD08010826D9185
:1021B0007C91C7010E942A0BF80180819181C80F90
:1021C000D91FD882C701DF91CF911F910F91FF9046
:1021D000EF90DF90CF9008953FB7F8948091B904C5
:1021E0009091BA04A091BB04B091BC0426B5A89B01
:1021F00005C02F3F19F00196A11DB11D3FBFBA2F99
:10220000A92F982F8827820F911DA11DB11DBC01F8
:10221000CD0142E0660F771F881F991F4A95D1F7BD
:102220000895CF92DF92EF92FF92CF93DF936B01ED
:102230007C0197FF13C06DE28BE094E00E945E0882
:10224000EC0166277727CB016C197D098E099F0960
:102250004AE00E94AA0FC80FD91F04C04AE00E949A
:10226000AA0FEC010E94050E8C0F9D1FDF91CF91EC
:10227000FF90EF90DF90CF900895CF93DF930E946F
:10228000F30DEC010E94050E8C0F9D1FDF91CF9185
:1022900008951F93CF93DF93EC01142F8B8191E06E
:1022A0009093A0038093C2031092A1031092C303E2
:1022B0008C819D81DC01ED91FC910190F081E02DFC
:1022C00009958C819D81DC01ED91FC910190F0815B
:1022D000E02D612F099581E00E94EB0E81E0DF91F6
:1022E000CF911F910895CF93DF93EC018B8191E003
:1022F0009093A0038093C2031092A1031092C30392
:102300008C819D81DC01ED91FC910190F081E02DAB
:1023100060E0099581E00E94EB0E61E08B810E94F4
:10232000A90E10929F0380939E038C819D81DC01F6
:10233000ED91FC910284F385E02D0995DF91CF9119
:10234000089590E0FC01EE50FC4F2491FC01E25214
:10235000FC4F3491FC01E653FC4FE491EE2309F469
:102360003CC0222339F1233091F038F42130A9F018
:10237000223001F584B58F7D12C0273091F02830CE
:10238000A1F02430B9F4809180008F7D03C080914A
:1023900080008F77809380000DC084B58F7784BDD7
:1023A00009C08091B0008F7703C08091B0008F7D0D
:1023B0008093B000F0E0EE0FFF1FE054FC4FA591BA
:1023C000B4919FB7F894611104C08C913095382373
:1023D00002C0EC913E2B3C939FBF0895CF93DF93B7
:1023E00090E0FC01E252FC4F2491FC01E653FC4FCB
:1023F0008491882361F190E0880F991FFC01EA54D1
:10240000FC4FC591D491FC01E054FC4FA591B491CF
:10241000611109C09FB7F894888120958223888331
:10242000EC912E230BC0623061F49FB7F894888141
:10243000322F309583238883EC912E2B2C939FBFD2
:1024400006C08FB7F894E8812E2B28838FBFDF91C9
:10245000CF9108958E3008F08E50877080648093FD
:102460007C0080917A00806480937A0080917A0069
:1024700086FDFCCF809178002091790090E0922B2E
:1024800008958F929F92AF92BF92CF92DF92EF9278
:10249000FF926B017C010E94EC104B015C01C114A6
:1024A000D104E104F104F1F00E94EC10DC01CB0155
:1024B00088199909AA09BB09883E9340A105B1056D
:1024C00070F321E0C21AD108E108F10888EE880E05
:1024D00083E0981EA11CB11CC114D104E104F104D5
:1024E00019F7DDCFFF90EF90DF90CF90BF90AF90C6
:1024F0009F908F9008952FB7F8946091B5047091D4
:10250000B6048091B7049091B8042FBF08951F922C
:102510000F920FB60F9211242F933F938F939F9397
:10252000AF93BF938091B5049091B604A091B70486
:10253000B091B8043091B40423E0230F2D3720F478
:102540000196A11DB11D05C026E8230F0296A11D0D
:10255000B11D2093B4048093B5049093B604A09366
:10256000B704B093B8048091B9049091BA04A091D3
:10257000BB04B091BC040196A11DB11D8093B904A8
:102580009093BA04A093BB04B093BC04BF91AF91E5
:102590009F918F913F912F910F900FBE0F901F90A1
:1025A0001895CF93DF93CDB7DEB7AE970FB6F894FB
:1025B000DEBF0FBECDBF789484B5826084BD84B584
:1025C000816084BD85B5826085BD85B5816085BD2E
:1025D00080916E00816080936E00109281008091E6
:1025E000810082608093810080918100816080936E
:1025F0008100809180008160809380008091B10093
:1026000084608093B1008091B00081608093B000BD
:1026100080917A00846080937A0080917A00826051
:1026200080937A0080917A00816080937A00809113
:102630007A00806880937A001092C100E0911B04B8
:10264000F0911C0482E08083E0911704F09118045B
:102650001082E0911904F0911A0410821092230460
:10266000E0911F04F091200486E08083E0911D0436
:10267000F0911E04808180618083E0911D04F091BF
:102680001E04808188608083E0911D04F0911E0407
:10269000808180688083E0911D04F0911E04808118
:1026A0008F7D80838EE090E00E946B257C018FE11E
:1026B00090E00E946B258C01DC0113961C921E9207
:1026C000129788EE93E0A0E0B0E0F8018483958350
:1026D000A683B7838AE091E091838083178A168A64
:1026E000118E108E138E128E158E148E668D6E7F47
:1026F0006D7F668F6695617081E0682782E00E9439
:10270000A11161E082E00E94EE11E0EEF3E0E491BD
:10271000D8015096EC93ECECF3E0E491F0E0EE0F8E
:10272000FF1FE054FC4F85919491F801928B818BAF
:1027300060E083E00E94EE11D8015E968C9181FDED
:1027400004C061E083E00E94A11183E0F801848766
:10275000E1EEF3E0E491D8011D96EC93EDECF3E0AB
:10276000E491F0E0EE0FFF1FE351FE4F859194914D
:10277000F80197878687D7010D931C938DE991E027
:10278000958F848F2DEB30E0378B268B2BE931E052
:10279000318F208F2CE231E0338F228F209168001F
:1027A0002460209368002DE630E0348B238B28E0F2
:1027B000258B0197F1F7E091DA02F091DB020E1719
:1027C0001F07F1F0309739F0A389B4899C9185896E
:1027D000809589238C93F801868D8E7F868F109249
:1027E000D9021092D8021093DB020093DA02038818
:1027F000F489E02D9081D80155968C91892B8083A6
:10280000F0920D03E0920C0382E290E00E946B25AF
:102810008C0149E250E061E070E00E94980710935B
:102820000B0300930A0382E290E00E946B254C01A7
:1028300048E250E062E070E00E949807909209033D
:102840008092080383E090E00E946B255C01FC010C
:102850001282118281E18083B0920703A092060365
:1028600083E090E00E946B256C01DC0112961C92C3
:102870001E9211978FE08C93D0920503C0920403AF
:1028800083E090E00E946B257C01FC0112821182A2
:1028900080E18083F0920303E092020383E090E002
:1028A0000E946B258C01DC0112961C921E921197DE
:1028B0008EE08C93109301030093000382E090E07C
:1028C0000E946B2520910C0330910D03FC01318394
:1028D00020839093FD028093FC0285E190E00E94AA
:1028E0006B25FC0160900A0370900B031682108622
:1028F0001782128611861486138615861686178609
:10290000108A118A128A138A148A71826082B382B1
:10291000A282D582C4829093FB028093FA0285E161
:1029200090E00E946B25FC011682108617821286A9
:10293000118614861386158616861786108A118AC4
:10294000128A138A148A91828082F382E28215832A
:1029500004839093F9028093F80268EE73E080E0BC
:1029600090E00E94411261E084E00E94EE1161E07B
:1029700087E00E94EE1166E070E08AEE92E00E942D
:102980008E0265E070E08CED92E00E948E0264E2BF
:1029900070E07093ED026093EC0223EF30E030932F
:1029A000EF022093EE028FE790E09093F102809384
:1029B000F0024AE050E05093F3024093F202309369
:1029C000F5022093F4029093F7028093F60270933D
:1029D000DF026093DE023093E1022093E0029093E5
:1029E000E3028093E2025093E5024093E4023093C5
:1029F000E7022093E6029093E9028093E802C30184
:102A00000E942A0680910803909109030E942A06D9
:102A100089E891E00E943D110E947B126B017C01CC
:102A20000E947B12DC01CB018C199D09AE09BF0904
:102A3000883B9B40A105B105B8F4809108039091B3
:102A400009030E94930580910A0390910B030E9451
:102A5000930585E991E00E948D0E62E370E080E0CD
:102A600090E00E944112DCCF87E991E00E943D1185
:102A70008EE991E00E943D1160910A0370910B0371
:102A8000625F7F4F8E010F5F1F4F4801C8010E9498
:102A9000150360910A0370910B03625F7F4FC801B9
:102AA0000E94150360910A0370910B03625F7F4FD0
:102AB000C8010E94150383E0282E312C92E0692E74
:102AC000712C44244394512C0E947B127B018C0175
:102AD00020E030E0A9016FA3F8A609A71AA72BA749
:102AE0003CA74DA75EA7A0900E03B0900F03C09027
:102AF0001003D0901103E0901203F09013030091A3
:102B00001403109115032FA138A549A55AA560E01B
:102B100070E080E090E00E94722309F00CF4B3C7EB
:102B20000E947B12DC01CB018196A11DB11D8C019D
:102B30009D0180930E0310930F0320931003309395
:102B400011031092120310921303109214031092A7
:102B5000150300910C0310910D03D8018D919C91E8
:102B6000DC01ED91FC910084F185E02D0995892B24
:102B700009F408C1F801E080F18066EF71E0CE0150
:102B80004B960E94460BC7010E94C30D97FD0DC0D6
:102B90008A30910551F089831A8241E050E0B401F6
:102BA000CE014B960E94C90AEECF8F8D98A1049753
:102BB00008F4E4C06FEA71E0CE0145960E94460B2E
:102BC000BE016B5E7F4FCE014B960E94830DAC0120
:102BD000BE01655E7F4FC4010E94B41089819A8155
:102BE000009719F00E94AC1D03C060E070E0CB01BB
:102BF000D80115967C936E931497C4010E94410BE3
:102C0000CE0145960E94410B6FEA71E0C4010E941B
:102C1000460BB401CE014B960E94830DBC016F5F41
:102C20007F4FCE014B960E949D0DC4010E94410B27
:102C30006FEA71E0CE0145960E94460BBE016B5EC5
:102C40007F4FCE014B960E94830DAC01BE01655EA5
:102C50007F4FC4010E94B41089819A81009719F0B6
:102C60000E94AC1D03C060E070E0CB01F8017383EB
:102C70006283C4010E94410BCE0145960E94410B24
:102C80006FEA71E0C4010E94460BB401CE014B967D
:102C90000E94830DBC016F5F7F4FCE014B960E9457
:102CA0009D0DC4010E94410B6FEA71E0CE01459673
:102CB0000E94460BBE016B5E7F4FCE014B960E9479
:102CC000830DAC01BE01655E7F4FC4010E94B4104C
:102CD00089819A81009719F00E94A81D03C060E0C5
:102CE00070E0CB01D80116966D937D938D939C93E4
:102CF0001997C4010E94410BCE0145960E94410BD9
:102D00006FEA71E0C4010E94460BB401CE014B96FC
:102D10000E94830DBC016F5F7F4FCE014B960E94D6
:102D20009D0DC4010E94410B6FEA71E0CE014596F2
:102D30000E94460BBE016B5E7F4FCE014B960E94F8
:102D4000830DAC01BE01655E7F4FC4010E94B410CB
:102D500089819A81009719F00E94A81D03C060E044
:102D600070E0CB01F8016287738784879587C4017F
:102D70000E94410BCE0145960E94410BCE014B961D
:102D80000E94410B80910A0390910B030E94A904B9
:102D900080910803909109030E94A9040091060301
:102DA00010910703D8018C910E942A12F801928396
:102DB00081830091040310910503D8018C910E9436
:102DC0002A12F80192838183009102031091030378
:102DD000D8018C910E942A12F8019283818300917C
:102DE000000310910103D8018C910E942A12F8016E
:102DF000928381838091FE029091FF02823091053F
:102E000009F416C18330910509F428C2019709F02D
:102E1000ADC281EB91E00E948D0E60910A0370912A
:102E20000B03625F7F4FC4010E94150349815A81E1
:102E30006B817C81CE0145960E94310E68EB71E07A
:102E4000CE014B960E94460BBE016B5E7F4FCE01BA
:102E50004B960E941E0E0E94090ECE014B960E94B8
:102E6000410BCE0145960E94410B60910A0370917F
:102E70000B03625F7F4FC4010E9415034D815E8189
:102E80006F817885CE0145960E94310E6DEB71E021
:102E9000CE014B960E94460BBE016B5E7F4FCE016A
:102EA0004B960E941E0E0E94090ECE014B960E9468
:102EB000410BCE0145960E94410B60910A0370912F
:102EC0000B03625F7F4FC4010E94150349855A8539
:102ED0006B857C85CE0145960E94310E62EC71E0D7
:102EE000CE014B960E94460BBE016B5E7F4FCE011A
:102EF0004B960E941E0E0E94090ECE014B960E9418
:102F0000410BCE0145960E94410BE0910A03F091DE
:102F10000B034281538164817581C4010E94310E8B
:102F200067EC71E0CE0145960E94460BB401CE01DC
:102F300045960E941E0E0E94090ECE0145960E94E3
:102F4000410BC4010E94410BE0910A03F0910B0375
:102F5000268D378D40A151A1628573858485958525
:102F60000E948F23AB01BC01C4010E94310E6BECA7
:102F700071E0CE0145960E94460BB401CE01459604
:102F80000E941E0E0E94090ECE0145960E94410B22
:102F9000C4010E94410BE0910A03F0910B03228DC2
:102FA000338D448D558D66817781808591850E9412
:102FB0008F23AB01BC01C4010E94310E6FEC71E0A4
:102FC000CE0145960E94460BB401CE0145960E9463
:102FD0001E0E0E94090ECE0145960E94410BC401AF
:102FE0000E94410B83ED91E00E948D0EE09106035B
:102FF000F091070361817281C4010E94610E6CED42
:1030000071E0CE0145960E94460BB401CE01459673
:103010000E941E0E0E94090ECE0145960E94410B91
:10302000C4010E94410BE0910403F09105030EC11D
:1030300084EE91E00E948D0E609108037091090367
:10304000625F7F4FC4010E94150349815A816B81E1
:103050007C81CE0145960E94310E68EB71E0CE0175
:103060004B960E94460BBE016B5E7F4FCE014B9686
:103070000E941E0E0E94090ECE014B960E94410B2B
:10308000CE0145960E94410B60910803709109039F
:10309000625F7F4FC4010E9415034D815E816F8185
:1030A0007885CE0145960E94310E6DEB71E0CE0120
:1030B0004B960E94460BBE016B5E7F4FCE014B9636
:1030C0000E941E0E0E94090ECE014B960E94410BDB
:1030D000CE0145960E94410B60910803709109034F
:1030E000625F7F4FC4010E94150349855A856B8535
:1030F0007C85CE0145960E94310E62EC71E0CE01D6
:103100004B960E94460BBE016B5E7F4FCE014B96E5
:103110000E941E0E0E94090ECE014B960E94410B8A
:10312000CE0145960E94410BE0910803F0910903FE
:103130004281538164817581C4010E94310E67EC24
:1031400071E0CE0145960E94460BB401CE01459632
:103150000E941E0E0E94090ECE0145960E94410B50
:10316000C4010E94410BE0910803F0910903268DF0
:10317000378D40A151A162857385848595850E9414
:103180008F23AB01BC01C4010E94310E6BEC71E0D6
:10319000CE0145960E94460BB401CE0145960E9491
:1031A0001E0E0E94090ECE0145960E94410BC401DD
:1031B0000E94410BE0910803F0910903228D338DA9
:1031C000448D558D66817781808591850E948F23FE
:1031D000AB01BC01C4010E94310E6FEC71E0CE0165
:1031E00045960E94460BB401CE0145960E941E0EE4
:1031F0000E94090ECE0145960E94410BC4010E9417
:10320000410B83ED91E00E948D0EE0910203F0915D
:10321000030361817281C4010E94610E6CED71E053
:10322000CE0145960E94460BB401CE0145960E9400
:103230001E0E0E94090ECE0145960E94410BC4014C
:103240000E94410BE0910003F091010361817281C2
:10325000C4010E94610E60EE71E076C08BEE91E0D9
:103260000E948D0EE0910C03F0910D036481758135
:103270006C34FFEF7F0714F468597E4FC4010E943D
:10328000610E6FEC71E0CE0145960E94460BB401D1
:10329000CE0145960E941E0E0E94090ECE01459653
:1032A0000E94410BC4010E94410BE0910C03F0917C
:1032B0000D03628173816C340FEF700714F4685949
:1032C0007E4FC4010E94610E6BEC71E0CE01459609
:1032D0000E94460BB401CE0145960E941E0E0E942C
:1032E000090ECE0145960E94410BC4010E94410B7C
:1032F000E0910C03F0910D03468157816085718543
:10330000C4010E94310E62EF71E0CE0145960E9429
:10331000460BB401CE0145960E941E0E0E94090E76
:10332000CE0145960E94410BC4010E94410BE091E1
:103330000C03F0910D034285538564857585C401A6
:103340000E94310E67EF71E0CE0145960E94460B58
:10335000B401CE0145960E941E0E0E94120ECE01AF
:1033600045960E94410BC4010E94410B8BE094E002
:103370000E94260818161906D4F58BE094E00E94E6
:103380000408823729F45092FF024092FE022FC0B7
:103390008C3629F47092FF026092FE0228C08336B8
:1033A00029F43092FF022092FE0221C08D3639F4BA
:1033B00024E030E03093FF022093FE0218C08E32EA
:1033C00039F445E050E05093FF024093FE020FC0F5
:1033D0008C3239F486E090E09093FF028093FE02F5
:1033E00006C08E3621F41092FF021092FE028091E8
:1033F000FE029091FF02049709F01DC1E091FC02CA
:10340000F091FD020190F081E02DC680D780E0842C
:10341000F18420E030E0A901C701B6010E94FA243E
:10342000181684F420E030E040EA50E4C701B60109
:103430000E94FA24181634F4B701A601C4010E94B0
:10344000310E05C065EF71E0C4010E94460B65EFC7
:1034500071E0CE0145960E94460BE091FC02F0918E
:10346000FD020190F081E02DC680D780E084F184D8
:1034700020E030E0A901C701B6010E94FA24181625
:103480006CF420E030E040EA50E4C701B6010E944D
:10349000FA2418161CF466E771E002C060E871E0D7
:1034A000CE014B960E94460B6DEF71E0CE018196E6
:1034B0000E94460BBE01655E7F4FCE0181960E9441
:1034C0001E0EBE016B5E7F4F0E941E0EB4010E9455
:1034D0001E0E0E94090ECE0181960E94410BCE0164
:1034E0004B960E94410BCE0145960E94410BC401B0
:1034F0000E94410B84E092E00E948D0E0091FC023C
:103500001091FD02C8010E94CA0320E030E040EAA9
:1035100050E40E94FA2418162CF080E192E00E94F8
:103520008D0E89C0C8010E94F3039C012E523109FF
:103530002E30314018F082E692E006C0823E9105BE
:103540000CF4A4C28CE692E00E948D0E8091FC02E5
:103550009091FD020E94F3038C0165EF71E0CE01B2
:103560004B960E94460BBE01655E7F4FCE0145968D
:103570000E948F0E4AE0B401C8010E94D31DF401DD
:1035800001900020E9F73197AF0148195909B401BA
:10359000CE0145960E94C90A811104C0CE0145960C
:1035A0000E94F70ACE0145960E94090ECE0145966B
:1035B0000E94410BCE014B960E94410B8091FC0270
:1035C0009091FD020E94CA036B017C0165EF71E0DE
:1035D000CE014B960E94460BBE01655E7F4FCE0129
:1035E00045960E948F0E840122E044E0C701B60197
:1035F0000E94881DFC0101900020E9F73197AF017E
:10360000481B590BBC01CE0145960E94C90A811185
:1036100004C0CE0145960E94F70ACE0145960E944D
:10362000090ECE0145960E94410BCE014B960E9499
:10363000410B0E94050E8091FE029091FF020597BA
:1036400009F00DC18BE192E00E948D0E0091FA020B
:103650001091FB02C8010E9430038823E9F1F801B0
:1036600065857685878590890E94C52120E030E0B8
:1036700044E052E40E942B249B01AC01D8015196F6
:103680006D917D918D919C9154970E942B24AB015B
:10369000BC01C4010E94310E65EF71E0CE014B9672
:1036A0000E94460BBE01655E7F4FCE0145960E948B
:1036B0008F0EB401CE0145960E941E0E0E94090E87
:1036C000CE0145960E94410BCE014B960E94410BC4
:1036D000C4010E94410B04C08CE292E00E948D0E56
:1036E00086E392E00E948D0EE091FA02F091FB02D7
:1036F00085859685A785B089893E9340A105B1054A
:10370000D4F10190F081E02D268D378D40A151A19B
:1037100062857385848595850E948F230E949D24F0
:103720009B0177FF04C022273327261B370BB901E3
:10373000C4010E94610E65EF71E0CE014B960E94BC
:10374000460BBE01655E7F4FCE0145960E948F0EEF
:10375000B401CE0145960E941E0E0E94090ECE01B4
:1037600045960E94410BCE014B960E94410BC4012D
:103770000E94410B04C08CE292E00E948D0E8EE309
:1037800092E00E948D0EE091FA02F091FB0204801B
:10379000F581E02D61817281693C71051CF1C401E4
:1037A0000E94610E65EF71E0CE014B960E94460BC0
:1037B000BE01655E7F4FCE0145960E948F0EB4011B
:1037C000CE0145960E941E0E0E94090ECE0145961E
:1037D0000E94410BCE014B960E94410BC4010E94F6
:1037E000410B04C08CE292E00E948D0E88E492E0CE
:1037F0000E948D0EE091FA02F091FB020280F381AB
:10380000E02D61817281693C71051CF1C4010E9447
:10381000610E65EF71E0CE014B960E94460BBE0132
:10382000655E7F4FCE0145960E948F0EB401CE019A
:1038300045960E941E0E0E94090ECE0145960E94DA
:10384000410BCE014B960E94410BC4010E94410BDB
:1038500004C08CE292E00E948D0E0E94050E8091C1
:10386000FE029091FF02069709F00DC182E592E0F9
:103870000E948D0E0091F8021091F902C8010E9479
:1038800030038823E9F1D8011D966D917D918D91CA
:103890009C9150970E94C52120E030E044E052E422
:1038A0000E942B249B01AC01F801618972898389F4
:1038B00094890E942B24AB01BC01C4010E94310EEB
:1038C00065EF71E0CE014B960E94460BBE01655E2E
:1038D0007F4FCE0145960E948F0EB401CE014596D2
:1038E0000E941E0E0E94090ECE0145960E94410BB9
:1038F000CE014B960E94410BC4010E94410B04C0B3
:103900008CE292E00E948D0E86E392E00E948D0E82
:10391000E091F802F091F90285859685A785B08936
:10392000893E9340A105B105D4F10190F081E02DCD
:10393000268D378D40A151A162857385848595853B
:103940000E948F230E949D249B0177FF04C02227A1
:103950003327261B370BB901C4010E94610E65EFA6
:1039600071E0CE014B960E94460BBE01655E7F4F13
:10397000CE0145960E948F0EB401CE0145960E945D
:103980001E0E0E94090ECE0145960E94410BCE01EB
:103990004B960E94410BC4010E94410B04C08CE273
:1039A00092E00E948D0E8EE392E00E948D0EE091D7
:1039B000F802F091F9020480F581E02D61817281B5
:1039C000693C71051CF1C4010E94610E65EF71E054
:1039D000CE014B960E94460BBE01655E7F4FCE0125
:1039E00045960E948F0EB401CE0145960E941E0E90
:1039F0000E94090ECE0145960E94410BCE014B96C6
:103A00000E94410BC4010E94410B04C08CE292E071
:103A10000E948D0E88E492E00E948D0EE091F802E3
:103A2000F091F9020280F381E02D61817281693C9D
:103A300071051CF1C4010E94610E65EF71E0CE01B9
:103A40004B960E94460BBE01655E7F4FCE014596A8
:103A50000E948F0EB401CE0145960E941E0E0E9458
:103A6000090ECE0145960E94410BCE014B960E9455
:103A7000410BC4010E94410B04C08CE292E00E9401
:103A80008D0E0E94050E0E94CD081EC88838910533
:103A90001CF082E792E058CD8BE792E055CDEBE049
:103AA000F4E01382128288EE93E0A0E0B0E0848319
:103AB0009583A683B78328E331E03183208325EC07
:103AC00030E03587248724EC30E03787268720ECE8
:103AD00030E0318B208B21EC30E0338B228B22ECD9
:103AE00030E0358B248B26EC30E0378B268B118E23
:103AF000128E138E148EE8EAF4E01382128284830D
:103B00009583A683B78388E691E0918380830895A7
:103B1000EF920F931F93CF93DF93E80147FD02C00D
:103B200034E001C034E1042E000C550B57FF03C0F4
:103B3000519541955109E32E022F242FAE010E9489
:103B40000D1ECE01DF91CF911F910F91EF9008953F
:103B5000662777270C94671F1F93FC0199278827F6
:103B6000BC01E89411911032E9F3193010F01E30C5
:103B7000C8F31B3251F01D3249F4689406C00E940C
:103B8000DE1D610F711D811D911D119110531A30A1
:103B9000B0F33EF490958095709561957F4F8F4F6F
:103BA0009F4F1F910895BB274A3031F4992322F487
:103BB000BDE2909581959F4F0C94F41D592F482F8D
:103BC000372F262F660F771F881F991F660F771FC5
:103BD000881F991F620F731F841F951F660F771F21
:103BE000881F991F0895BB27FB015527AA27880F17
:103BF000991FAA1FA41710F0A41B83955051B9F761
:103C0000A05DAA3308F0A95DA193009779F7B111DF
:103C1000B1931192CB010C94AE21A9E0B0E0E3E1A5
:103C2000FEE10C94F6226A01122FB02E2BE320172E
:103C300020F0FF24F394F00E02C02CE3F22E0F2D9F
:103C400027E0AE014F5F5F4F0E94B520BC01498164
:103C5000842F8970813031F0E1FC06C0E0FE06C09F
:103C600090E205C09DE203C09BE201C090E05E2DA2
:103C7000507143FF3CC0911102C083E001C084E059
:103C8000811718F4212F281B01C020E051110BC00F
:103C9000F601822F30E2882319F031938150FBCF57
:103CA000C20ED11C20E0992329F0D6019C93F60185
:103CB00031966F01C6010396E2FE0AC03EE4D601CA
:103CC0003C9341E411964C93119712963C9306C095
:103CD0003EE6F601308341E641833283FC01322F18
:103CE00040E2332309F442C041933150FACF42FFFE
:103CF00044C0911102C083E001C084E0811718F430
:103D0000212F281B01C020E051110BC0F601822F8A
:103D100030E2882319F031938150FBCFC20ED11CC1
:103D200020E0992329F0D6019C93F60131966F018A
:103D3000C6010396E2FE0BC039E4D6013C933EE493
:103D400011963C93119736E412963C9307C039E6DE
:103D5000F60130833EE6318336E63283FC01322FB2
:103D600040E2332319F041933150FBCFFC01E20FC5
:103D7000F11D10828EEF9FEFA6C021E030E091117F
:103D800002C020E030E0161617061CF4FB01319645
:103D900002C0E1E0F0E02E0F3F1FBB2021F0EB2D31
:103DA000F0E0319602C0E0E0F0E02E0F3F1FE12F7F
:103DB000F0E02E173F071CF4121B212F01C020E05A
:103DC0008E2D887159F4F601822F30E2882319F084
:103DD00031938150FBCFC20ED11C20E0992329F0F2
:103DE000D6019C93F60131966F0151110BC0F6017B
:103DF000822F90E3882319F091938150FBCFC20E5C
:103E0000D11C20E00F2D060F9A81342F307144FF12
:103E100003C0913309F40150101624F4093018F04E
:103E200008E001C001E0AB0177FF02C040E050E0D4
:103E3000FB01E41BF50BA1E0B0E0AC0FBD1FEA0FE6
:103E4000FB1F8EE2A82E4B01801A91080B2D10E06B
:103E50001195019511094F3FBFEF5B0721F4D60182
:103E6000AC9211966D01641775072CF084169506B7
:103E700014F4818101C080E3415051093196D6018B
:103E800011967D014017510724F0D6018C936701EC
:103E9000E2CF6417750739F4963320F4953319F49B
:103EA000311101C081E3F6018083F701822F90E296
:103EB000882319F091938150FBCFF701E20FF11D98
:103EC000108280E090E02996ECE00C941223A0E0B0
:103ED000B0E0EDE6FFE10C94F622EC016B01611518
:103EE000710519F0FB01918380837E01FFEFEF1ACA
:103EF000FF0A0881802F90E00E948D21892B11F00C
:103F0000E701F3CF0D3239F47E0182E0E80EF11CB7
:103F1000098111E008C00B3229F47E0192E0E90E1C
:103F2000F11C098110E0E701219743E050E060ECCB
:103F300070E0CE010E949621892BC1F4239645E0C2
:103F400050E06BEB70E0CE010E949621892B09F4C2
:103F50002596C114D10419F0F601D183C083111143
:103F6000F6C060E070E080E89FE7FAC043E050E010
:103F700068EB70E0CE010E949621892B59F4C114A0
:103F8000D10409F4E9C0F2E0EF0EF11CF601F18270
:103F9000E082E2C020E030E0A901C0E0D0E0F7011B
:103FA00080EDA82EA00E89E08A1530F1912F926045
:103FB000B92E812F887012FF04C0811124C0219670
:103FC00022C081112197A5E0B0E00E94E522DC012A
:103FD000CB01880F991FAA1FBB1F9C01AD012A0DA1
:103FE000311D411D511D283989E93807480789E1EC
:103FF000580748F0166006C09EEFA9120AC013FDCC
:1040000040C01860B12E8FEFE81AF80A00811B2D0E
:10401000C6CF802F8F7D8534A1F580818D3211F43C
:10402000106106C08B3221F0319661E070E004C06F
:104030008181329662E070E080538A3018F0E61B8E
:10404000F70B1FC060E070E060389CE079075CF41B
:10405000DB01AA0FBB1FAA0FBB1F6A0F7B1F660FD6
:10406000771F680F711D3196DF0111978C91805376
:104070008A3050F314FF03C0719561957109C60F22
:10408000D71F11FF08C0C114D10429F0CF01019737
:10409000F60191838083CA01B9010E94C321212FB7
:1040A0002370233019F04B015C0106C04B015C0109
:1040B000B7FAB094B7F8B09420E030E0A901C50198
:1040C000B4010E94BE21882309F43EC0D7FF06C078
:1040D000D195C195D10907ED10E002C00FEE10E0B7
:1040E0006801F8E1CF1AD10890E2E92EF12CCE1543
:1040F000DF0574F0F8012591359145915491C50182
:10410000B4010E9424224B015C01CE19DF09EFCFDC
:1041100004501109F594E7940C151D0541F78A2DFB
:10412000880F8B2D881F8F3F49F020E030E0A901D8
:10413000C501B4010E94BE21811106C082E290E057
:104140009093BE048093BD04C501B40109C060E032
:1041500070E080E89FEF04C060E070E080EC9FE7D3
:10416000CDB7DEB7ECE00C941223283008F027E03E
:104170003327DA01990F311D87FD916000966105A3
:10418000710539F432602E5F3D9330E32A95E1F7F3
:1041900008959F3F30F080387105610509F03C5F5C
:1041A0003C5F3D93913008F08068911DDF93CF9381
:1041B0001F930F93FF92EF92192F987F9695E92FF7
:1041C00096959695E90FFF27E35BFE4F99273327D6
:1041D000EE24FF24A701E70105900894079428F432
:1041E000360FE71EF81E491F511D660F771F881FE7
:1041F000991F0694A1F70590079428F4E70EF81E7E
:10420000491F561FC11D770F881F991F661F0694EF
:10421000A1F70590079428F4F80E491F561FC71FF1
:10422000D11D880F991F661F771F0694A1F705906F
:10423000079420F4490F561FC71FD81F990F661FF8
:10424000771F881F0694A9F784911095177041F085
:10425000D695C79557954795F794E7941A95C1F762
:10426000E3EFF0E068941590159135916591959183
:1042700005907FE27395E118F10A430B560BC90BC9
:10428000D009C0F7E10CF11E431F561FC91FD01DF6
:104290007EF4703311F48A95E6CFE894015030F043
:1042A000080F0AF40027021708F4202F2395022F85
:1042B0007A3328F079E37D932A95E9F710C07D934E
:1042C0002A9589F6069497956795379517951794CB
:1042D000E118F10A430B560BC90BD00998F023954E
:1042E0007E9173957A3308F070E37C932013B8F7CE
:1042F0007E9170617D9330F0839571E37D9370E3DF
:104300002A95E1F71124EF90FF900F911F91CF9123
:10431000DF91992787FD9095089591110C94912232
:10432000803219F089508550C8F70895FB01DC01EF
:104330004150504088F08D9181341CF08B350CF445
:10434000805E659161341CF06B350CF4605E861BF9
:10435000611171F3990B0895881BFCCFDC01FC01FE
:10436000672F71917723E1F7329704C07C916D93A9
:1043700070836291AE17BF07C8F308950E940022B0
:1043800008F481E00895E89409C097FB3EF4909505
:104390008095709561957F4F8F4F9F4F9923A9F01E
:1043A000F92F96E9BB279395F695879577956795AD
:1043B000B795F111F8CFFAF4BB0F11F460FF1BC0F1
:1043C0006F5F7F4F8F4F9F4F16C0882311F096E984
:1043D00011C0772321F09EE8872F762F05C0662332
:1043E00071F096E8862F70E060E02AF09A95660FEB
:1043F000771F881FDAF7880F9695879597F90895A4
:10440000990F0008550FAA0BE0E8FEEF16161706E5
:10441000E807F907C0F012161306E407F50798F04D
:10442000621B730B840B950B39F40A2661F0232B66
:10443000242B252B21F408950A2609F4A140A695E2
:104440008FEF811D811D08950E9437220C94AB22AD
:104450000E949D2238F00E94A42220F0952311F0A2
:104460000C9494220C949A2211240C94DF220E9422
:10447000BC2270F3959FC1F3950F50E0551F629FCA
:10448000F001729FBB27F00DB11D639FAA27F00DAD
:10449000B11DAA1F649F6627B00DA11D661F829FD4
:1044A0002227B00DA11D621F739FB00DA11D621FB9
:1044B000839FA00D611D221F749F3327A00D611DD6
:1044C000231F849F600D211D822F762F6A2F1124B8
:1044D0009F5750409AF0F1F088234AF0EE0FFF1FEB
:1044E000BB1F661F771F881F91505040A9F79E3F42
:1044F000510580F00C9494220C94DF225F3FE4F38A
:10450000983ED4F3869577956795B795F795E79597
:104510009F5FC1F7FE2B880F911D9695879597F9A0
:10452000089599278827089597F99F6780E870E094
:1045300060E008959FEF80EC089500240A94161619
:10454000170618060906089500240A941216130681
:10455000140605060895092E0394000C11F488230F
:1045600052F0BB0F40F4BF2B11F460FF04C06F5F2B
:104570007F4F8F4F9F4F089557FD9058440F551F01
:1045800059F05F3F71F04795880F97FB991F61F0D5
:104590009F3F79F087950895121613061406551F4C
:1045A000F2CF4695F1DF08C0161617061806991FB8
:1045B000F1CF86957105610508940895E894BB27AD
:1045C00066277727CB0197F908950E942723A59F97
:1045D000900DB49F900DA49F800D911D11240895FE
:1045E0002F923F924F925F926F927F928F929F9203
:1045F000AF92BF92CF92DF92EF92FF920F931F93F1
:10460000CF93DF93CDB7DEB7CA1BDB0B0FB6F894A1
:10461000DEBF0FBECDBF09942A88398848885F84E1
:104620006E847D848C849B84AA84B984C884DF8052
:10463000EE80FD800C811B81AA81B981CE0FD11D36
:104640000FB6F894DEBF0FBECDBFED010895A29F57
:10465000B001B39FC001A39F700D811D1124911D56
:10466000B29F700D811D1124911D089597FB072E97
:1046700016F4009407D077FD09D00E947B2307FC35
:1046800005D03EF4909581959F4F08957095619562
:104690007F4F0895A1E21A2EAA1BBB1BFD010DC07E
:1046A000AA1FBB1FEE1FFF1FA217B307E407F507E2
:1046B00020F0A21BB30BE40BF50B661F771F881FBE
:1046C000991F1A9469F760957095809590959B0154
:1046D000AC01BD01CF010895EE0FFF1F0590F491CD
:1046E000E02D09942A153B054C055D056E057F05F7
:1046F000800791070895AA1BBB1B51E107C0AA1FA1
:10470000BB1FA617B70710F0A61BB70B881F991F72
:104710005A95A9F780959095BC01CD010895505800
:10472000BB27AA270E94A7230C94AB220E949D229C
:1047300038F00E94A42220F039F49F3F19F426F4A7
:104740000C949A220EF4E095E7FB0C949422E92F46
:104750000E94BC2258F3BA176207730784079507B3
:1047600020F079F4A6F50C94DE220EF4E0950B2EE1
:10477000BA2FA02D0B01B90190010C01CA01A001B3
:104780001124FF27591B99F0593F50F4503E68F10E
:104790001A16F040A22F232F342F4427585FF3CF4F
:1047A000469537952795A795F0405395C9F77EF420
:1047B0001F16BA0B620B730B840BBAF09150A1F069
:1047C000FF0FBB1F661F771F881FC2F70EC0BA0FEF
:1047D000621F731F841F48F4879577956795B79577
:1047E000F7959E3F08F0B0CF9395880F08F0992772
:1047F000EE0F979587950895DF93DD27B92FBF7743
:1048000040E85FE31616170648075B0718F4D92F30
:104810000E94FF249F938F937F936F930E944D2557
:10482000EAE8F0E00E94D3240E94AB222F913F914E
:104830004F915F910E943722DD2351F09058A2EAF8
:104840002AED3FE049EC5FE3D0785D270E94A72383
:10485000DF910C94AB220E943F240C94AB220E9467
:10486000A42258F00E949D2240F029F45F3F29F0D5
:104870000C94942251110C94DF220C949A220E94E1
:10488000BC2268F39923B1F3552391F3951B550B83
:10489000BB27AA2762177307840738F09F5F5F4F13
:1048A000220F331F441FAA1FA9F335D00E2E3AF052
:1048B000E0E832D091505040E695001CCAF72BD06A
:1048C000FE2F29D0660F771F881FBB1F26173707BB
:1048D0004807AB07B0E809F0BB0B802DBF01FF27ED
:1048E00093585F4F3AF09E3F510578F00C94942214
:1048F0000C94DF225F3FE4F3983ED4F386957795DE
:104900006795B795F7959F5FC9F7880F911D9695A5
:10491000879597F90895E1E0660F771F881FBB1F01
:10492000621773078407BA0720F0621B730B840BAE
:10493000BA0BEE1F88F7E09508950E94A4246894AE
:10494000B1110C94DF2208950E94C42288F09F5771
:1049500098F0B92F9927B751B0F0E1F0660F771FA3
:10496000881F991F1AF0BA95C9F714C0B13091F099
:104970000E94DE22B1E008950C94DE22672F782F8A
:104980008827B85F39F0B93FCCF38695779567955E
:10499000B395D9F73EF490958095709561957F4FCA
:1049A0008F4F9F4F0895DF93CF931F930F93FF92E5
:1049B000EF92DF927B018C01689406C0DA2EEF0142
:1049C0000E943722FE01E894A591259135914591E9
:1049D0005591A6F3EF010E94A723FE019701A801BC
:1049E000DA9469F7DF90EF90FF900F911F91CF91CC
:1049F000DF9108950E94002208F48FEF08959B0133
:104A0000AC0160E070E080E89FE30C942B2419F483
:104A100016F40C949A220C9456250E94C422B8F3E2
:104A20009923C9F3B6F39F57550B87FF0E9464255E
:104A30000024A0E640EA900180585695979528F406
:104A4000805C660F771F881F20F0261737074807FE
:104A500030F4621B730B840B202931294A2BA69555
:104A600017940794202531254A2758F7660F771F9A
:104A7000881F20F026173707480730F4620B730BA6
:104A8000840B200D311D411DA09581F7B901842FA4
:104A90009158880F9695879508959B01AC010C94C9
:104AA00024220E940022880B990B08959F3F31F029
:104AB000915020F4879577956795B795880F911D4C
:104AC0009695879597F9089591505040660F771FF6
:104AD000881FD2F708950F931F93CF93DF938230EF
:104AE000910510F482E090E0E091C104F091C204DD
:104AF00020E030E0A0E0B0E0309719F14081518132
:104B00000281138148175907C8F08417950769F483
:104B1000109731F012960C93129713961C9327C09E
:104B20000093C1041093C20422C02115310519F06D
:104B30004217530718F49A01BD01EF01DF01F80194
:104B4000DBCF21153105F9F0281B390B2430310555
:104B500080F48A819B816115710521F0FB019383AB
:104B6000828304C09093C2048093C104FE013296F4
:104B700044C0FE01E20FF31F81939193225031094B
:104B8000398328833AC02091BF043091C004232B7D
:104B900041F420910201309103013093C00420932D
:104BA000BF0420910001309101012115310541F42C
:104BB0002DB73EB74091040150910501241B350BE0
:104BC000E091BF04F091C004E217F307A0F42E1B9C
:104BD0003F0B2817390778F0AC014E5F5F4F241761
:104BE000350748F04E0F5F1F5093C0044093BF0439
:104BF0008193919302C0E0E0F0E0CF01DF91CF918B
:104C00001F910F910895CF93DF93009709F481C00E
:104C1000FC01329713821282A091C104B091C204A8
:104C2000109781F420813181820F931F2091BF045E
:104C30003091C0042817390751F5F093C004E09370
:104C4000BF0467C0ED0120E030E0CE17DF0740F47D
:104C50004A815B819E0141155105F1F0EA01F5CFD2
:104C6000D383C28340815181840F951FC817D90710
:104C700059F488819981840F951F029691838083CE
:104C80008A819B81938382832115310529F4F093D6
:104C9000C204E093C1043DC0E901FB83EA8349916A
:104CA0005991C40FD51FEC17FD0761F480819181E4
:104CB000840F951F0296E9019983888382819381ED
:104CC0009B838A83E0E0F0E012968D919C9113978C
:104CD000009719F0FD01DC01F7CF8D919C911197A0
:104CE0009D012E5F3F4F820F931F2091BF04309193
:104CF000C0042817390769F4309729F41092C204C8
:104D00001092C10402C013821282B093C004A09317
:104D1000BF04DF91CF910895A0E0B0E0E2E9F6E2B0
:104D20000C94F422EC01009721F4CB010E946B2536
:104D3000B4C0FC01E60FF71F9C0122503109E217B5
:104D4000F30708F4A8C0D9010D911C91119706171B
:104D50001707B0F00530110508F49BC0C80104978F
:104D60008617970708F495C002501109061B170B08
:104D7000019311936D937C93CF010E94032689C008
:104D80005B01A01AB10A4C01800E911EA091C104D2
:104D9000B091C204612C712CE12CF12C109709F414
:104DA00046C08D919C911197A815B905B1F56C017C
:104DB00042E0C40ED11CCA14DB0478F14C018A18FD
:104DC0009B08640142E0C40ED11C1296BC9012975D
:104DD0001396AC91B5E0CB16D10440F0B282A38318
:104DE00091828082D9016D937C9309C00E5F1F4F21
:104DF000800F911FF90191838083EB2DFA2FE1142D
:104E0000F10431F0D7011396FC93EE93129741C051
:104E1000F093C204E093C1043CC06816790608F41C
:104E20003C017D0112960D90BC91A02DB7CF8091D1
:104E3000BF049091C00488169906E1F466167706BF
:104E4000C8F48091000190910101009741F48DB761
:104E50009EB74091040150910501841B950BE81702
:104E6000F907C8F4F093C004E093BF04F90171831B
:104E700060830FC0CB010E946B257C01009759F025
:104E8000A801BE010E945727CE010E940326C70138
:104E900004C0CE0102C080E090E0CDB7DEB7EEE006
:104EA0000C94102381E090E0F8940C949027FB017F
:104EB000DC0102C001900D9241505040D8F7089596
:104EC000FB01DC0101900D920020E1F70895FB0148
:104ED000DC014150504048F001900D920020C9F78C
:104EE00001C01D9241505040E0F70895FB015191DF
:104EF0005523A9F0BF01DC014D9145174111E1F7A0
:104F000059F4CD010190002049F04D914015411117
:104F1000C9F3FB014111EFCF81E090E001970895C3
:044F2000F894FFCF33
:104F24000000C304200000000000F008CB072F029B
:104F3400EF0840095809D7080000000000000000ED
:104F44007A09B209B209000000007909DB097A097B
:104F5400DD09840A000000005E08CB07F507AB08F2
:104F640026080408180800000000B209CB072F0225
:104F74002E02B209B209B20900000000B209CB073F
:104F84002F022E02000000005F0232022F02EF08FF
:104F9400AA09960987090944657465637465640000
:104FA400094E6F7468696E670043616C696272616F
:104FB40074696E67002E000A446F6E65210050729A
:104FC4006F6772616D207374617274656421002C63
:104FD400007273686F653A000961780900096179A4
:104FE400090009617A0900097909000972090009AF
:104FF400700900097765696768743A0009730900E4
:10500400096209006C73686F653A006368657374BC
:105014003A0009615A090009616C740900094A756A
:105024006D703A0043686573740942656E643A00B2
:105034000953747261696768740900526967687416
:1050440020666F6F740957616C6B3A00094E6F7478
:1050540068696E67090009437275697365000953CD
:105064007465706261636B0009537465707369647D
:1050740065004C65667420666F6F740957616C6BCC
:105084003A00096261636B7761726400096C65665A
:10509400740009666F7277617264000972696768E7
:1050A40074004F6F6F70732C206E6F20424E4F3020
:1050B40035352031206465746563746564202E2E53
:1050C4002E20436865636B20796F7572207769724F
:1050D400696E67206F722049324320414444522153
:1050E40000424E4F303535000D0A006E616E006986
:0850F4006E66006F7666000095
:00000001FF
