:100000000C9414010C943C010C943C010C94AE052E
:100010000C94AE050C94AE050C943C010C943C0180
:100020000C943C010C943C010C943C010C943C015C
:100030000C943C010C943C010C943C010C943C014C
:100040000C94BF0E0C943C010C947C050C9456054A
:100050000C943C010C943C010C943C010C943C012C
:100060000C9428060C943C01084AD73B3BCE016E09
:1000700084BCBFFDC12F3D6C74319ABD56833DDAFF
:100080003D00C77F11BED9E4BB4C3E916BAAAABE0E
:10009000000000803F004E414E494E495459494EA0
:1000A00046CDCCCC3D0AD7233C17B7D13877CC2BE3
:1000B000329595E6241FB14F0A000020410000C888
:1000C0004200401C4620BCBE4CCA1B0E5AAEC59D09
:1000D0007400407A10F35A00A0724E18090010A55F
:1000E000D4E80000E87648170000E40B5402000052
:1000F000CA9A3B000000E1F50500008096980000D8
:100100000040420F000000A0860100000010270000
:10011000000000E803000000006400000000000A86
:1001200000000000000100000000002C76D888DCF0
:10013000674F0823DFC1DFAE59E1B1B796E5E3E4CD
:1001400053C63AE651997696E8E6C28426EB898C46
:100150009B62ED407C6FFCEFBC9C9F40F2BAA56FA8
:10016000A5F490055A2AF75C936B6CF9676DC11B77
:10017000FCE0E40D47FEF520E6B500D0ED902E033F
:1001800000943577050080841E080000204E0A0088
:100190000000C80C333333330F986E12831141EFD4
:1001A0008D2114893BE65516CFFEE6DB18D1844B32
:1001B000381BF77C1D901DA4BBE424203284725EA2
:1001C000228100C9F124ECA1E53D270000000023B5
:1001D000002600290000000000250028002B000454
:1001E00004040404040404020202020202030303DE
:1001F00003030301020408102040800102040810D8
:100200002001020408102000000000240027002A1A
:1002100000000000080002010000030407000000C5
:100220000000000000008C1511241FBECFEFD8E0A5
:10023000DEBFCDBF24E0ACE4B2E001C01D92A13826
:10024000B207E1F712E0A0E0B1E0EEE1F1E402C0B4
:1002500005900D92AC34B107D9F711E0C4E1D1E0BB
:1002600004C02197FE010E948B1CC331D107C9F73E
:100270000E94360F0C948D200C940000CF92DF92D8
:10028000EF92FF920F931F93CF93DF936C017A014C
:100290008B01C0E0D0E0CE15DF0581F0D8016D9173
:1002A0008D01D601ED91FC910190F081E02DC60108
:1002B0000995892B11F02196EECF7E01C701DF91C0
:1002C000CF911F910F91FF90EF90DF90CF90089505
:1002D000FC01538D448D252F30E0842F90E0821B4C
:1002E000930B541710F0CF96089501970895FC01D1
:1002F000918D828D981761F0828DDF01A80FB11D5D
:100300005D968C91928D9F5F9F73928F90E0089580
:100310008FEF9FEF0895FC01918D828D981731F03A
:10032000828DE80FF11D858D90E008958FEF9FEF8E
:100330000895FC01918D228D892F90E0805C9F4F64
:10034000821B91098F739927089587E693E00E9495
:10035000990121E0892B09F420E0822F0895FC0106
:10036000848DDF01A80FB11DA35ABF4F2C91848D3E
:1003700090E001968F739927848FA689B7892C9373
:10038000A089B1898C91837080648C93938D848DC6
:10039000981306C00288F389E02D80818F7D8083C9
:1003A0000895EF92FF920F931F93CF93DF93EC0189
:1003B00081E0888F9B8D8C8D981305C0E889F98921
:1003C000808185FD26C0F62E0B8D10E00F5F1F4F3C
:1003D0000F731127E02E8C8DE8120CC00FB607FCAE
:1003E000FACFE889F989808185FFF5CFCE010E9497
:1003F000AF01F1CF8B8DFE01E80FF11DE35AFF4FE6
:10040000F0829FB7F8940B8FEA89FB898081806224
:100410000AC09FB7F894EE89FF896083E889F9895B
:1004200080818370806480839FBF81E090E0DF9152
:10043000CF911F910F91FF90EF900895CF93DF938D
:10044000EC01888D8823C9F0EA89FB89808185FDCC
:1004500005C0A889B9898C9186FD0FC00FB607FC2D
:10046000F5CF808185FFF2CFA889B9898C9185FF6E
:10047000EDCFCE010E94AF01E7CFDF91CF9108957C
:1004800080E090E0892B29F00E94A50181110C9455
:1004900000000895209112043091130428173907A1
:1004A00071F49091100480911104981741F0E0913B
:1004B0001004F0E0EC56FD4F808190E008958FEF3E
:1004C0009FEF089508951F93CF93DF93DC015C960F
:1004D0008D919C915D97009739F421E030E013965F
:1004E0003C932E9312973BC05196ED91FC915297FD
:1004F00050962C915097322F30951FB75E964C91A5
:100500005E97742F727041FD6095F8944081772357
:1005100011F0422B01C043234083EC012197F1F7F6
:1005200048E0508160FF02C0522B01C0532350832A
:10053000EC012197F1F76695415099F78081772377
:1005400019F08323808302C0282B20831FBF5C9671
:100550008D919C915D970197F1F781E090E0DF919B
:10056000CF911F9108952091120430911304281700
:10057000390771F4809111042091100490E0805C9F
:100580009F4F821B910960E470E00E945A1C0895FD
:1005900080E090E008952091120430911304281710
:1005A0003907B9F49091100480911104981789F0DB
:1005B000E0911004F0E0EC56FD4F80812091100492
:1005C00030E02F5F3F4F2F7333272093100490E0CC
:1005D00008958FEF9FEF08950895089585ED809316
:1005E000BC008091BC0084FDFCCF1092660308958E
:1005F00040916F02262F30E0240F311D213231054A
:10060000DCF4209166032430C9F4FC0180E090E022
:10061000861758F430916F022191DC01A35BBD4F26
:10062000A30FB11D2C930196F3CF80916F02680F39
:1006300060936F0280E0089581E0089582E008955C
:1006400008950895E091FB028091FA02E81730F4D2
:10065000F0E0E05EFC4F808190E008958FEF9FEF27
:1006600008959091FB028091FA02981750F4E92FB7
:10067000F0E0E05EFC4F208130E09F5F9093FB0252
:1006800002C02FEF3FEFC90108958091FA0290E078
:100690002091FB02821B91090895CF92DF92EF9285
:1006A000FF920F931F93CF93DF937C01CB018A01BD
:1006B0002091FC02222389F0EB016B01C40ED51EB0
:1006C000CC15DD0569F06991D701ED91FC910190A0
:1006D000F081E02DC7010995F3CF642F0E94F80245
:1006E000C801DF91CF911F910F91FF90EF90DF90A4
:1006F000CF900895CF93DF931F92CDB7DEB7698374
:100700002091FC022223D1F020911F03203240F0DF
:1007100021E030E0FC013383228380E090E015C0CB
:100720008091FD02E82FF0E0E250FD4F9981908327
:100730008F5F8093FD0280931F0305C061E0CE01AF
:1007400001960E94F80281E090E00F90DF91CF9136
:100750000895089580E090E008950E944F200F933F
:100760001F93CF93DF93EC0188819981009729F043
:100770002A813B812617370788F48B016F5F7F4FF3
:100780000E94891F009761F0998388831B830A83E5
:100790002C813D81232B11F4FC01108281E001C0EA
:1007A00080E0DF91CF911F910F9108950C94001F6D
:1007B0008F929F92AF92BF92CF92DF92EF92FF9271
:1007C0000F931F93CF93DF93CDB7DEB762970FB62A
:1007D000F894DEBF0FBECDBF7C018B0184E2DB014C
:1007E0001D928A95E9F784E290E0A0E0B0E0FB0179
:1007F00080839183A283B383F70186819781A0854B
:10080000B185FB0184839583A683B78383E090E061
:10081000A0E0B0E080879187A287B3870E94B30EE3
:10082000D80150966D937D938D939C935397FE01C1
:1008300031968CE0DF011D928A95E9F7AE01435FA6
:100840005F4F86E0FA0111928A95E9F76AE170E05C
:10085000C7010E94D70C6D857E85072E000C880B82
:10086000990B0E94E91A20E030E040E85DE30E9425
:10087000481B4B015C016F857889072E000C880BA3
:10088000990B0E94E91A20E030E040E85DE30E9405
:10089000481B6B017C0169897A89072E000C880B43
:1008A000990B0E94E91A20E030E040E85DE30E94E5
:1008B000481BD80154968D929D92AD92BC92579749
:1008C000F801C08ED18EE28EF38E5C966D937D938F
:1008D0008D939C935F9781E062960FB6F894DEBF8C
:1008E0000FBECDBFDF91CF911F910F91FF90EF9081
:1008F000DF90CF90BF90AF909F908F9008950F930F
:100900001F93CF93DF938C01EB0188E2FB011192DF
:100910008A95E9F74BE050E06AE471E0CE010E946D
:1009200064201B8681E090E0A0E0B0E08C879D878A
:10093000AE87BF87F80186819781A085B185888BB6
:10094000998BAA8BBB8B83E090E0A0E0B0E08C8B0E
:100950009D8BAE8BBF8B1CA21DA21EA21FA2188E48
:10096000198E1A8E1B8E1C8E1D8E1E8E1F8E8AE077
:1009700097EDA3E2BCE388A399A3AAA3BBA3DF914D
:10098000CF911F910F910895EF92FF920F931F93B4
:10099000CF93DF936115710511F480E01CC0411500
:1009A0005105C1F07B01EC018C819D818A01080F0A
:1009B000191FB801CE010E94AF03882371F328816B
:1009C00039818C819D81B701820F931F0E945D2028
:1009D0001D830C8381E0DF91CF911F910F91FF90D8
:1009E000EF900895CF93DF93EC0188819981009770
:1009F00011F00E94001F198218821D821C821B8226
:100A00001A82DF91CF910895EF92FF920F931F9377
:100A1000CF93DF93EC017B018A01BA010E94AF03FF
:100A2000811104C0CE010E94F20407C01D830C8313
:100A3000B701888199810E945D20CE01DF91CF911D
:100A40001F910F91FF90EF900895CF93DF93EC01EA
:100A50006115710559F0FB0101900020E9F731970C
:100A6000AF01461B570B0E94040502C00E94F2040E
:100A7000CE01DF91CF910895FC01808191810C948A
:100A8000001FFC01118210821382128215821482CF
:100A90006115710551F0FB0101900020E9F73197D4
:100AA000AF01461B570B0C94040508951F920F923B
:100AB0000FB60F9211242F933F934F935F936F9331
:100AC0007F938F939F93AF93BF93EF93FF9387E6AB
:100AD00093E00E94AF01FF91EF91BF91AF919F9181
:100AE0008F917F916F915F914F913F912F910F90D7
:100AF0000FBE0F901F9018951F920F920FB60F9276
:100B000011242F938F939F93EF93FF93E09177039B
:100B1000F09178038081E0917D03F0917E0382FD66
:100B200012C09081809180038F5F8F732091810329
:100B3000821751F0E0918003F0E0E959FC4F958F66
:100B40008093800301C08081FF91EF919F918F91ED
:100B50002F910F900FBE0F901F9018951F920F921C
:100B60000FB60F9211242F933F934F935F936F9380
:100B70007F938F939F93AF93BF93EF93FF93E091F6
:100B80001204F0911304309709F451C0968DA68594
:100B9000B785858591FF04C09C91892329F447C0BE
:100BA0009C91892309F043C0A389B4899C918589CC
:100BB000809589238C93868997890197F1F7608DB9
:100BC000718DA685B785558538E020E0CB0101976A
:100BD000F1F7822F90E095958795282F4C9145232A
:100BE00009F02068315091F7868D81FD2095809124
:100BF000110490E001968F739927309110043817F3
:100C000049F0A0911104B0E0AC56BD4F2C938093F5
:100C1000110403C0868D8160868F828D938D01972C
:100C2000F1F7A389B4899C918589892B8C93FF91D5
:100C3000EF91BF91AF919F918F917F916F915F9154
:100C40004F913F912F910F900FBE0F901F901895CD
:100C50001F920F920FB60F9211242F933F934F9331
:100C60005F936F937F938F939F93AF93BF93EF9314
:100C7000FF938091B900887F803609F49CC068F5A5
:100C8000883209F45BC090F4803109F454C038F420
:100C9000882309F4F6C0883009F44DC0F6C08831C5
:100CA00009F44CC0803209F45DC0EFC0803409F40F
:100CB00068C048F4803309F455C0883309F0E5C0B2
:100CC00080936403D8C0803509F44FC0883509F497
:100CD0005DC0883409F0D9C0D6C0883909F4C7C0CE
:100CE000A8F4883709F467C038F4883609F463C07B
:100CF000803709F460C0C9C0883809F4B8C08039A9
:100D000009F45FC0803809F0C0C05BC0803B09F4C3
:100D100086C038F4803A09F466C0883A09F47FC086
:100D2000B4C0803C09F4A7C0883C09F4A4C0883B47
:100D300009F48AC0AAC08091610310C09091630336
:100D400080916203981770F5E091630381E08E0F44
:100D500080936303F0E0E05CFC4F80818093BB00F4
:100D600085EC86C0809364038EC0E091630381E0CC
:100D70008E0F809363038091BB00F0E0E05CFC4F3A
:100D8000808390916303809162036EC0E09163035E
:100D900081E08E0F809363038091BB00F0E0E05C04
:100DA000FC4F80838091650381116DC081E0809349
:100DB000600384EA61C083E080936603109293022B
:100DC000CFCF80919302803208F051C0E09193021E
:100DD00081E08E0F809393028091BB00F0E0ED588C
:100DE000FD4F8083BDCF85EC8093BC0010926603DD
:100DF00080919302803230F4E0919302F0E0ED585C
:100E0000FD4F10826091930270E0E0917102F091C9
:100E1000720283E792E009951092930236C084E053
:100E2000809366031092700210926F02E0916D023F
:100E3000F0916E02099580916F02811105C081E0E9
:100E400080936F0210924D02E091700281E08E0F4C
:100E500080937002F0E0E35BFD4F80818093BB00E4
:100E60009091700280916F02981708F479CF85E80D
:100E70008093BC000AC085EC8093BC00109266038E
:100E800004C0109264030E94EE02FF91EF91BF91A3
:100E9000AF919F918F917F916F915F914F913F9112
:100EA0002F910F900FBE0F901F9018950F931F93C7
:100EB000CF93DF93EC018B0183E090E00E94681EEA
:100EC000FC01118300831282998388838CB5837F10
:100ED0008CBD8CB58F7D8CBD8CB58C7F81608CBDBD
:100EE0008DB581608DBD1FB7F89480914C02811142
:100EF00027C0E9EEF1E08491EDEFF1E09491E82F65
:100F0000F0E0EE0FFF1FE95FFD4FA591B491EC916A
:100F1000E92321F461E08AE00E94E20D61E08AE0C9
:100F20000E942F0E8CB580618CBD8CB580648CBD09
:100F300061E08DE00E942F0E61E08BE00E942F0E99
:100F400080914C028F5F80934C021FBF0990D88123
:100F5000C02D61E088810E942F0E61E088810E948F
:100F6000E20D60E088810E94E20D8A81811102C059
:100F700060E001C061E088810E94E20D81E48EBDE5
:100F800000000DB407FEFDCF8EB58FEF8EBD0000C3
:100F90000DB407FEFDCF8EB58A81811102C061E0DC
:100FA00001C060E088810E94E20D61E08881DF91EC
:100FB000CF911F910F910C94E20DCF92DF92EF929F
:100FC000FF929B01245F3F4FFB01C190D190E190C4
:100FD000F190BF01FC01C192D192E192F192CF0157
:100FE0006217730789F7FF90EF90DF90CF90089515
:100FF00080916804909169048C342FEF920714F467
:1010000088599E4F20916604309167042C344FEF2D
:10101000340714F428593E4F889FB001899F700D02
:10102000700D1124229FC001239F900D900D11245B
:10103000680F791F072E000C880B990B0E94E91A84
:101040000C940F1E8F929F92AF92BF92CF92DF921D
:10105000EF92FF9260916804709169046C348FEF95
:10106000780714F468597E4F072E000C880B990BF3
:101070000E94E91A6B017C0160916604709167041B
:101080006C348FEF780714F468597E4F072E000CEC
:10109000880B990B0E94E91A4B015C0120E030E0BB
:1010A000A9010E94FC1D181644F520E030E0A901BA
:1010B000C701B6010E94FC1D87FD09C0A50194016E
:1010C000C701B6010E942D1D0E94FE1C56C020E0E3
:1010D00030E0A901C701B6010E94E21A87FF0DC0E6
:1010E000A5019401C701B6010E942D1D0E94FE1C9E
:1010F0002BED3FE049EC50E415C020E030E0A901C1
:10110000C501B4010E94E21A87FF0FC0A501940136
:10111000C701B6010E942D1D0E94FE1C2BED3FE071
:1011200049E450E40E94921C28C020E030E0A9016C
:10113000C501B4010E94E21A81111CC020E030E018
:10114000A901C701B6010E94FC1D181674F020E029
:1011500030E0A901C701B6010E94E21A87FF0AC068
:1011600064EE7BEC86E990E408C06BED7FE089ECEF
:101170009FE303C060E070E0CB0120E030E044E397
:1011800053E40E94481B2BED3FE049E450E40E94E9
:101190002D1D0E949F1DCB01FF90EF90DF90CF90FF
:1011A000BF90AF909F908F9008956F927F928F9293
:1011B0009F92AF92BF92CF92DF92EF92FF920F93E6
:1011C0001F93CF93DF93CDB7DEB762970FB6F89436
:1011D000DEBF0FBECDBF7C01F701819191916F0100
:1011E0008E010F5F1F4F2CE0F80111922A95E9F74D
:1011F0005E01FDE0AF0EB11C26E0F50111922A95CB
:10120000E9F7A5016AE170E00E94D70C8F84988805
:1012100069887A886D857E85072E000C880B990B6E
:101220000E94E91A20E030E040E85DE30E94481B9C
:1012300069837A838B839C83B401990C880B990B07
:101240000E94E91A20E030E040E85DE30E94481B7C
:101250006D837E838F839887B301770C880B990BFE
:101260000E94E91A20E030E040E85DE30E94481B5C
:1012700069877A878B879C8798014701FEE08F0EEC
:10128000911CF90181919191A191B1919F01F60178
:1012900081939193A193B1936F01E815F90589F7B3
:1012A000F701808191812CE0F80111922A95E9F7EC
:1012B00026E0F50111922A95E9F7A50168E270E0B0
:1012C0000E94D70CAF84B888C988DA886D857E857E
:1012D000072E000C880B990B0E94E91A20E030E0E1
:1012E00048EC52E40E942D1D69837A838B839C8392
:1012F000B501BB0C880B990B0E94E91A20E030E085
:1013000048EC52E40E942D1D6D837E838F83988765
:10131000B601DD0C880B990B0E94E91A20E030E041
:1013200048EC52E40E942D1D69877A878B879C8741
:10133000FAE1EF0EF11CF80181919191A191B19127
:101340008F01F40181939193A193B1934F01EE1515
:10135000FF0589F762960FB6F894DEBF0FBECDBFCA
:10136000DF91CF911F910F91FF90EF90DF90CF9081
:10137000BF90AF909F908F907F906F9008958F92C5
:101380009F92AF92BF92CF92DF92EF92FF920F9314
:101390001F93CF93DF93CDB7DEB762970FB6F89464
:1013A000DEBF0FBECDBF8C01DC018D919D917D0113
:1013B000FE0131966F012CE0DF011D922A95E9F7BD
:1013C000AE01435F5F4F26E0FA0111922A95E9F7DB
:1013D0006AE170E00E94D70C8F849888A988BA8847
:1013E0006D857E85072E000C880B990B0E94E91AEB
:1013F00020E030E040E85DE30E94481B69837A8387
:101400008B839C83B401990C880B990B0E94E91A79
:1014100020E030E040E85DE30E94481B6D837E835E
:101420008F839887B501BB0C880B990B0E94E91A32
:1014300020E030E040E85DE30E94481B69877A873E
:101440008B879C87F601C8010E964191519161915D
:101450007191D7014D935D936D937D937D01A81795
:10146000B90799F7F80182859385A485B5854681EA
:10147000578160857185428F538F648F758F868FFA
:10148000978FA0A3B1A362960FB6F894DEBF0FBEEC
:10149000CDBFDF91CF911F910F91FF90EF90DF9023
:1014A000CF90BF90AF909F908F900895EF92FF9252
:1014B0000F931F93CF93DF938C01FC01C081D181E7
:1014C0001092FB021092FA021092FD0210921F037A
:1014D0001092660381E0809365031092600361E0DF
:1014E00082E10E94E20D61E083E10E94E20D8091C1
:1014F000B9008E7F8093B9008091B9008D7F809371
:10150000B90088E48093B80085E48093BC0080E251
:1015100093E090936E0280936D0281E293E090934A
:10152000720280937102CE010E94A60D803A81F46E
:1015300060E070E0CE010E94A50E40E26FE370E033
:10154000CE010E947C0D6EE170E080E090E010C062
:1015500068EE73E080E090E00E946B0ECE010E9486
:10156000A60D803A29F381E591E00E94FD0B76C03B
:101570000E946B0ECE010E94A60D803A29F06AE00F
:1015800070E080E090E0F4CF62E370E080E090E013
:101590000E946B0E40E06EE370E0CE010E947C0D75
:1015A0006AE070E080E090E00E946B0E40E067E04F
:1015B00070E0CE010E947C0D40E06FE370E0CE0150
:1015C0000E947C0D6AE070E080E090E00E946B0E6B
:1015D0006CE070E0CE010E94A50E64E170E080E056
:1015E00090E00E946B0E68EE73E080E090E00E9455
:1015F0006B0EF801C081D181EA84FB8460E070E069
:10160000CE010E94A50E69E170E080E090E00E94AA
:101610006B0E40E067E070E0CE010E947C0D40E878
:101620006FE370E0CE010E947C0D6AE070E080E024
:1016300090E00E946B0EB701CE010E94A50E64E1FE
:1016400070E080E090E00E946B0EC801DF91CF91C6
:101650001F910F91FF90EF900C94BF09FFCFCF9394
:10166000DF93FC0124813581232B71F0FB01DC0128
:10167000CD91DC9160817181CE010E947320009731
:1016800019F08C1B9D0B02C08FEF9FEFDF91CF9164
:101690000895CF93DF93FC01448155814115510595
:1016A000D9F061157105C1F09A016417750708F446
:1016B0009B01EC0188819981421B530B5D834C8314
:1016C000BC01620F731F0E946420E881F9818C8144
:1016D0009D81E80FF91F1082DF91CF9108950F933C
:1016E0001F93CF93DF93EC010E94B30E6887798735
:1016F0008A879B87E881F9810284F385E02DCE01FA
:10170000099597FF17C00E94B30E088519852A8591
:101710003B85DC01CB01801B910BA20BB30B0C8131
:101720001D812E813F8180179107A207B30710F317
:101730008FEF9FEFDF91CF911F910F910895EF925F
:10174000FF920F931F93CF93DF93CDB7DEB7A1978F
:101750000FB6F894DEBF0FBECDBF7C01CB01BA013E
:10176000F7011182108213821282158214828E0177
:101770000F5F1F4F22E044E00E94AC16BC01C7017E
:101780000E942505A1960FB6F894DEBF0FBECDBF0F
:10179000DF91CF911F910F91FF90EF900895CF931C
:1017A000DF93EC01FB0144815581608171810E94CE
:1017B000C404811103C0CE010E94F204CE01DF9166
:1017C000CF910895FC01448155816081718187E644
:1017D00093E00C943E01009769F0FC010190002019
:1017E000E9F73197AF01481B590BBC0187E693E03D
:1017F0000C943E0180E090E008950C94EB0BCF93A5
:10180000DF930E94E20BEC0188E292E00E94EB0B76
:101810008C0F9D1FDF91CF9108950F931F93CF934E
:10182000DF93CDB7DEB762970FB6F894DEBF0FBE79
:10183000CDBF8C01CB01F80111821082138212827C
:10184000158214824AE0BE016F5F7F4F0E94F71637
:10185000BE016F5F7F4FC8010E94250562960FB6DB
:10186000F894DEBF0FBECDBFDF91CF911F910F91D6
:101870000895909166039111FCCF91E090936603D7
:10188000909365032FEF2093640310926303260F58
:10189000209362039093610390916103880F892BD9
:1018A0008093610380916003813061F41092600342
:1018B000809161038093BB008091BC0083FDF8CFD1
:1018C00085EC01C085EE8093BC0080916603813079
:1018D000E1F380916303861710F460916303A0E441
:1018E000B3E0E0E2F3E080E0861721F09D91919370
:1018F0008F5FFACF0895282F30911F03313208F0FF
:101900004AC0809166038111FCCF90911E0342E092
:1019100040936603209365032FEF20936403109296
:10192000630330936203EEEFF2E0A0E4B3E020E063
:10193000321721F041914D932F5FFACF109261033E
:1019400020916103990F922B909361039091600312
:10195000913061F410926003909161039093BB0009
:101960009091BC0093FDF8CF95EC01C095EE90935B
:10197000BC00909166039230E1F3909164039F3F25
:1019800079F080916403803241F080916403803368
:1019900031F084E005C081E003C082E001C083E053
:1019A0001092FD0210921F031092FC020895EF9214
:1019B000FF920F931F93CF93DF938C017A01DC0189
:1019C00013968C91139791E09093FC0280931E03E1
:1019D0001092FD0210921F0314968D919C91159701
:1019E000DC01ED91FC910190F081E02D099581E001
:1019F0000E947B0C66E0F80183810E94390C1092F2
:101A0000FB028093FA02E701F6E0EF0EF11CD80129
:101A100014968D919C911597DC01ED91FC910284B7
:101A2000F385E02D09958993EC16FD0681F781E099
:101A3000DF91CF911F910F91FF90EF900895CF927A
:101A4000DF92EF92FF920F931F93CF93DF937C016E
:101A50008B016A0167E272E00E944105D801149689
:101A60008D919C9115970097C1F0E6018C159D050D
:101A700008F4EC01D801ED91FC911197EC0FFD1FDA
:101A8000D08010826D917C91C7010E942505F801DC
:101A900080819181C80FD91FD882C701DF91CF9172
:101AA0001F910F91FF90EF90DF90CF9008953FB777
:101AB000F8948091770490917804A0917904B09182
:101AC0007A0426B5A89B05C02F3F19F00196A11DE9
:101AD000B11D3FBFBA2FA92F982F8827820F911DC4
:101AE000A11DB11DBC01CD0142E0660F771F881F0B
:101AF000991F4A95D1F708951F93CF93DF93EC0177
:101B0000142F8B8191E09093FC0280931E0310921E
:101B1000FD0210921F038C819D81DC01ED91FC91EF
:101B20000190F081E02D09958C819D81DC01ED9182
:101B3000FC910190F081E02D612F099581E00E94D8
:101B40007B0C81E0DF91CF911F910895CF93DF93BC
:101B5000EC018B8191E09093FC0280931E03109224
:101B6000FD0210921F038C819D81DC01ED91FC919F
:101B70000190F081E02D60E0099581E00E947B0CEE
:101B800061E08B810E94390C1092FB028093FA0273
:101B90008C819D81DC01ED91FC910284F385E02D27
:101BA0000995DF91CF910895CF93DF930E94EB0BBE
:101BB000EC0188E292E00E94EB0B8C0F9D1FDF91FD
:101BC000CF91089590E0FC01EF5EFD4F2491FC0160
:101BD000ED50FE4F3491FC01E152FE4FE491EE23B3
:101BE00009F43CC0222339F1233091F038F421303C
:101BF000A9F0223001F584B58F7D12C0273091F015
:101C00002830A1F02430B9F4809180008F7D03C08A
:101C1000809180008F77809380000DC084B58F778E
:101C200084BD09C08091B0008F7703C08091B0005F
:101C30008F7D8093B000F0E0EE0FFF1FEB52FE4F60
:101C4000A591B4919FB7F894611104C08C9130951F
:101C5000382302C0EC913E2B3C939FBF0895CF9355
:101C6000DF9390E0FC01ED50FE4F2491FC01E15226
:101C7000FE4F8491882361F190E0880F991FFC0149
:101C8000E95FFD4FC591D491FC01EB52FE4FA59148
:101C9000B491611109C09FB7F8948881209582237F
:101CA0008883EC912E230BC0623061F49FB7F894C7
:101CB0008881322F309583238883EC912E2B2C93AF
:101CC0009FBF06C08FB7F894E8812E2B28838FBF63
:101CD000DF91CF9108958F929F92AF92BF92CF9252
:101CE000DF92EF92FF926B017C010E94570D4B0136
:101CF0005C01C114D104E104F104F1F00E94570D1C
:101D0000DC01CB0188199909AA09BB09883E9340D7
:101D1000A105B10570F321E0C21AD108E108F1086C
:101D200088EE880E83E0981EA11CB11CC114D1045A
:101D3000E104F10419F7DDCFFF90EF90DF90CF9031
:101D4000BF90AF909F908F900895462FFC016287BF
:101D500073876DE370E00E947C0D6EE170E080E0BF
:101D600090E00C946B0E2FB7F8946091730470910F
:101D7000740480917504909176042FBF08951F928A
:101D80000F920FB60F9211242F933F938F939F932F
:101D9000AF93BF938091730490917404A0917504E4
:101DA000B09176043091720423E0230F2D3720F494
:101DB0000196A11DB11D05C026E8230F0296A11DA5
:101DC000B11D209372048093730490937404A093C4
:101DD0007504B09376048091770490917804A09173
:101DE0007904B0917A040196A11DB11D8093770406
:101DF00090937804A0937904B0937A04BF91AF9143
:101E00009F918F913F912F910F900FBE0F901F9038
:101E100018951F93CF93DF93EC01162FFC01329698
:101E20008CE0DF01982F1D929A95E9F73C96DF012F
:101E30001D928A95E9F78CE090E00E94681EFC01F3
:101E40008AE091E0918380838FEF9FEFDC018683AE
:101E50009783A087B187138384E094E0958384837C
:101E6000F983E883DF91CF911F910895CF93DF939A
:101E7000CDB7DEB7AE970FB6F894DEBF0FBECDBFBD
:101E8000789484B5826084BD84B5816084BD85B555
:101E9000826085BD85B5816085BD80916E00816061
:101EA00080936E0010928100809181008260809307
:101EB0008100809181008160809381008091800009
:101EC0008160809380008091B10084608093B10034
:101ED0008091B00081608093B00080917A0084602E
:101EE00080937A0080917A00826080937A0080915A
:101EF0007A00816080937A0080917A008068809374
:101F00007A001092C100E0917703F091780382E0AB
:101F10008083E0917303F09174031082E091750364
:101F2000F0917603108210927F03E0917B03F09191
:101F30007C0386E08083E0917903F0917A038081CD
:101F400080618083E0917903F0917A0380818860D9
:101F50008083E0917903F0917A03808180688083A7
:101F6000E0917903F0917A0380818F7D808364EF23
:101F700071E080E090E00E946B0E61E084E00E94DE
:101F80002F0E61E087E00E942F0E66E070E082EE87
:101F900092E00E94560765E070E084ED92E00E94B6
:101FA000560764E270E07093E5026093E40223EF69
:101FB00030E03093E7022093E6028FE790E09093C1
:101FC000E9028093E8024AE050E05093EB0240932C
:101FD000EA023093ED022093EC029093EF0280939B
:101FE000EE027093D7026093D6023093D902209309
:101FF000D8029093DB028093DA025093DD02409383
:10200000DC023093DF022093DE029093E1028093A2
:10201000E00282E494E00E94560A80E294E00E948A
:10202000560A80E991E00E94D40D0E94B30E6B0124
:102030007C010E94B30EDC01CB018C199D09AE0915
:10204000BF09803D9740A105B10598F480E294E076
:102050000E94BF0982E494E00E94BF098CE991E0EC
:102060000E94FD0B64E670E080E090E00E946B0E41
:10207000E0CF8EE991E00E94D40D85EA91E00E94C4
:10208000D40D60E574E09E012F5F3F4F4901C90107
:102090000E94DD0760E574E0C4010E94DD0760E591
:1020A00074E0C4010E94DD0783E0282E312C92E009
:1020B000692E712C44244394512C0E94B30E7B0151
:1020C0008C0120E030E0A9016FA3F8A609A71AA7A8
:1020D0002BA73CA74DA75EA7A090F202B090F302F9
:1020E000C090F402D090F502E090F602F090F70272
:1020F0000091F8021091F9022FA138A549A55AA51F
:1021000060E070E080E090E00E946E1C09F00CF44A
:10211000F7C40E94B30EDC01CB018196A11DB11D55
:102120008C019D018093F2021093F3022093F4023C
:102130003093F5021092F6021092F7021092F80214
:102140001092F9028091640490916504DC01ED9194
:10215000FC910084F185E02D0995892B09F405C1D6
:10216000009164041091650467E272E0CE014B9621
:102170000E944105C8010E946F0B97FD0DC08A3077
:10218000910551F089831A8241E050E0B401CE01FB
:102190004B960E94C404EECF8F8D98A1049708F44B
:1021A000E0C066EB71E0C4010E944105B401CE01BC
:1021B0004B960E942F0BAC01BE01655E7F4FCE0196
:1021C00045960E941F0D8D899E89009719F00E94E7
:1021D000D01603C060E070E0CB0170936904609397
:1021E0006804CE0145960E943C05C4010E943C054E
:1021F00066EB71E0C4010E944105B401CE014B962B
:102200000E942F0BBC016F5F7F4FCE014B960E9447
:10221000490BC4010E943C0566EB71E0C4010E94B9
:102220004105B401CE014B960E942F0BAC01BE01BB
:10223000655E7F4FCE0145960E941F0D8D899E8958
:10224000009719F00E94D01603C060E070E0CB0147
:102250007093670460936604CE0145960E943C0526
:10226000C4010E943C0566EB71E0C4010E94410577
:10227000B401CE014B960E942F0BBC016F5F7F4FC4
:10228000CE014B960E94490BC4010E943C0566EBAF
:1022900071E0C4010E944105B401CE014B960E9439
:1022A0002F0BAC01BE01655E7F4FCE0145960E94AB
:1022B0001F0D8D899E89009719F00E94CC1603C0CE
:1022C00060E070E0CB0160936A0470936B048093CC
:1022D0006C0490936D04CE0145960E943C05C401A8
:1022E0000E943C0566EB71E0C4010E944105B40107
:1022F000CE014B960E942F0BBC016F5F7F4FCE012A
:102300004B960E94490BC4010E943C0566EB71E0AC
:10231000C4010E944105B401CE014B960E942F0BCF
:10232000AC01BE01655E7F4FCE0145960E941F0D38
:102330008D899E89009719F00E94CC1603C060E039
:1023400070E0CB0160936E0470936F04809370040F
:1023500090937104CE0145960E943C05C4010E94F1
:102360003C05CE014B960E943C0582E494E00E941D
:10237000D50880E294E00E94D5088091F002909107
:10238000F1028230910509F410C18330910509F4FE
:102390001AC2019709F09BC288EB91E00E94FD0BE5
:1023A00060E574E0C4010E94DD0749815A816B81B8
:1023B0007C81CE0145960E949F0B6FEB71E0CE01B0
:1023C0004B960E944105BE016B5E7F4FCE014B963E
:1023D0000E94CF0B0E94E20BCE014B960E943C055F
:1023E000CE0145960E943C0560E574E0C4010E9460
:1023F000DD074D815E816F817885CE0145960E9413
:102400009F0B64EC71E0CE014B960E944105BE012A
:102410006B5E7F4FCE014B960E94CF0B0E94E20B6A
:10242000CE014B960E943C05CE0145960E943C058C
:1024300060E574E0C4010E94DD0749855A856B851B
:102440007C85CE0145960E949F0B69EC71E0CE0120
:102450004B960E944105BE016B5E7F4FCE014B96AD
:102460000E94CF0B0E94E20BCE014B960E943C05CE
:10247000CE0145960E943C0540914404509145048C
:102480006091460470914704C4010E949F0B6EEC5A
:1024900071E0CE0145960E944105B401CE014596FA
:1024A0000E94CF0B0E94E20BCE0145960E943C0594
:1024B000C4010E943C052091600430916104409168
:1024C00062045091630460914C0470914D048091BA
:1024D0004E0490914F040E94911CAB01BC01C401B9
:1024E0000E949F0B62ED71E0CE0145960E9441056E
:1024F000B401CE0145960E94CF0B0E94E20BCE01A3
:1025000045960E943C05C4010E943C0520915C0454
:1025100030915D0440915E0450915F0460914804E5
:102520007091490480914A0490914B040E94911C3F
:10253000AB01BC01C4010E949F0B66ED71E0CE01AE
:1025400045960E944105B401CE0145960E94CF0BED
:102550000E94E20BCE0145960E943C05C4010E94F8
:102560003C058AED91E00E94FD0B60911E04709184
:102570001F04C4010E940D0C63EE71E0CE0145966C
:102580000E944105B401CE0145960E94CF0B0E94E6
:10259000E20BCE0145960E943C05C4010E943C0519
:1025A00060911B0470911C0408C18BEE91E00E94A5
:1025B000FD0B6EE274E0C4010E94DD0749815A817F
:1025C0006B817C81CE0145960E949F0B6FEB71E081
:1025D000CE014B960E944105BE016B5E7F4FCE013E
:1025E0004B960E94CF0B0E94E20BCE014B960E94AD
:1025F0003C05CE0145960E943C056EE274E0C401A4
:102600000E94DD074D815E816F817885CE01459600
:102610000E949F0B64EC71E0CE014B960E94410535
:10262000BE016B5E7F4FCE014B960E94CF0B0E9486
:10263000E20BCE014B960E943C05CE0145960E94CE
:102640003C056EE274E0C4010E94DD0749855A85AD
:102650006B857C85CE0145960E949F0B69EC71E0ED
:10266000CE014B960E944105BE016B5E7F4FCE01AD
:102670004B960E94CF0B0E94E20BCE014B960E941C
:102680003C05CE0145960E943C05409122045091A4
:1026900023046091240470912504C4010E949F0BBF
:1026A0006EEC71E0CE0145960E944105B401CE0169
:1026B00045960E94CF0B0E94E20BCE0145960E94E8
:1026C0003C05C4010E943C0520913E0430913F042A
:1026D000409140045091410460912A0470912B0470
:1026E00080912C0490912D040E94911CAB01BC019F
:1026F000C4010E949F0B62ED71E0CE0145960E94DD
:102700004105B401CE0145960E94CF0B0E94E20B19
:10271000CE0145960E943C05C4010E943C052091D3
:102720003A0430913B0440913C0450913D04609147
:1027300026047091270480912804909129040E9416
:10274000911CAB01BC01C4010E949F0B66ED71E0BE
:10275000CE0145960E944105B401CE0145960E94E6
:10276000CF0B0E94E20BCE0145960E943C05C401AE
:102770000E943C058AED91E00E94FD0B60911804D7
:1027800070911904C4010E940D0C63EE71E0CE013A
:1027900045960E944105B401CE0145960E94CF0B9B
:1027A0000E94E20BCE0145960E943C05C4010E94A6
:1027B0003C056091150470911604C4010E940D0C33
:1027C00067EE71E072C082EF91E00E94FD0B6091B4
:1027D0006804709169046C34BFEF7B0714F4685986
:1027E0007E4FC4010E940D0C66ED71E0CE0145964E
:1027F0000E944105B401CE0145960E94CF0B0E9474
:10280000E20BCE0145960E943C05C4010E943C05A6
:1028100060916604709167046C340FEF700714F4D4
:1028200068597E4FC4010E940D0C62ED71E0CE012B
:1028300045960E944105B401CE0145960E94CF0BFA
:102840000E94E20BCE0145960E943C05C4010E9405
:102850003C0540916A0450916B0460916C04709146
:102860006D04C4010E949F0B69EF71E0CE01459693
:102870000E944105B401CE0145960E94CF0B0E94F3
:10288000E20BCE0145960E943C05C4010E943C0526
:1028900040916E0450916F046091700470917104C6
:1028A000C4010E949F0B6EEF71E0CE0145960E941D
:1028B0004105B401CE0145960E94CF0B0E94FF0B4B
:1028C000CE0145960E943C05C4010E943C0587E666
:1028D00093E00E9499011816190644F587E693E0E3
:1028E0000E947701823729F45092F1024092F0025F
:1028F0001DC08C3629F47092F1026092F00216C06D
:10290000833629F43092F1022092F0020FC08D3606
:1029100039F424E030E03093F1022093F00206C055
:102920008E3621F41092F1021092F0028091F002A2
:102930009091F102049709F0E3C040E050E060E4B8
:1029400071E4CE0181960E949F0B66E272E0CE0197
:102950004B960E94410564E072E0CE0145960E94CC
:1029600041056EE072E0C4010E944105BE016B5E4C
:102970007F4FC4010E94CF0BBE01655E7F4F0E9456
:10298000CF0BBE016F5D7F4F0E94CF0B0E94E20B09
:10299000C4010E943C05CE0145960E943C05CE0133
:1029A0004B960E943C05CE0181960E943C0585E134
:1029B00092E00E94FD0B0E94F80720E030E040EA20
:1029C00050E40E94FC1D18162CF08CE192E00E944D
:1029D000FD0B92C00E9422089C012E5231092E301C
:1029E000314018F08BE292E006C0823E91050CF473
:1029F0008AC085E392E00E94FD0B0E9422088C01B0
:102A000066E272E0CE0145960E9441051C8E1B8E47
:102A10001E8E1D8E18A21F8E6D897E89611571050F
:102A200031F0498D5A8DCE014B960E9404054AE043
:102A3000B401C8010E94F716F40101900020E9F7E3
:102A40003197AF0148195909B401CE014B960E9444
:102A5000C404811104C0CE014B960E94F204CE0141
:102A60004B960E94E20BCE014B960E943C05CE0194
:102A700045960E943C050E94F8076B017C0166E2C6
:102A800072E0CE0145960E9441051C8E1B8E1E8E63
:102A90001D8E18A21F8E6D897E896115710531F01A
:102AA000498D5A8DCE014B960E940405840122E087
:102AB00044E0C701B6010E94AC16FC010190002061
:102AC000E9F73197AF01481B590BBC01CE014B967A
:102AD0000E94C404811104C0CE014B960E94F204EE
:102AE000CE014B960E94E20BCE014B960E943C0514
:102AF000CE0145960E943C0588E292E00E94EB0BD5
:102B00000E944002DACA883891051CF08BE392E0FB
:102B100072CF84E492E06FCFCF92DF92EF92FF9278
:102B2000CF93DF9310926A031092690398EEC92E37
:102B300093E0D92EE12CF12CC0926B03D0926C0360
:102B4000E0926D03F0926E0388E191E09093680348
:102B50008093670385EC90E09093740380937303F4
:102B600084EC90E0909376038093750380EC90E082
:102B7000909378038093770381EC90E090937A03AD
:102B80008093790382EC90E090937C0380937B03A5
:102B900086EC90E090937E0380937D0310928003F7
:102BA0001092810310928203109283031092070403
:102BB00010920604C0920804D0920904E0920A041C
:102BC000F0920B048AE291E0909305048093040450
:102BD0008FE190E00E94681EEC011B821A82CC8279
:102BE000DD82EE82FF828CE391E0998388831F8AE5
:102BF0001E8A198E188E1B8E1A8E1D8E1C8E6E8D3F
:102C00006E7F6D7F6E8F6695617081E0682782E0D0
:102C10000E94E20D61E082E00E942F0EE5EFF1E0FC
:102C2000E491E88BE1EEF1E0E491F0E0EE0FFF1FBC
:102C3000EB52FE4F859194919A8B898B60E083E0F3
:102C40000E942F0E8E8D81FD04C061E083E00E9402
:102C5000E20D83E08C87E6EFF1E0E491ED87E2EEB0
:102C6000F1E0E491F0E0EE0FFF1FE553FE4F859198
:102C700094919F878E87D0936504C09364048DE9F7
:102C800091E09D8F8C8F2DEB30E03F8B2E8B2BE9CD
:102C900031E0398F288F2CE231E03B8F2A8F209151
:102CA00068002460209368002DE630E03C8B2B8B7D
:102CB00028E02D8B0197F1F7E0911204F0911304B5
:102CC000CE17DF07D1F0309739F0A389B4899C91F2
:102CD0008589809589238C938E8D8E7F8E8F10921F
:102CE000110410921004D0931304C0931204EB89C2
:102CF000FC8990818D89892B808369E270E082E470
:102D000094E00E94090F68E270E080E294E00E9483
:102D1000090F10921F0410921E0481E180931D047C
:102D200010921C0410921B048FE080931A041092DE
:102D300019041092180480E180931704109216046D
:102D4000109215048EE080931404DF91CF91FF90D0
:102D5000EF90DF90CF900895EF920F931F93CF9352
:102D6000DF93E80147FD02C034E001C034E1042EE6
:102D7000000C550B57FF03C0519541955109E32EA7
:102D8000022F242FAE010E943117CE01DF91CF9187
:102D90001F910F91EF900895662777270C948B1859
:102DA0001F93FC0199278827BC01E89411911032E8
:102DB000E9F3193010F01E30C8F31B3251F01D3208
:102DC00049F4689406C00E940217610F711D811DAD
:102DD000911D119110531A30B0F33EF490958095E7
:102DE000709561957F4F8F4F9F4F1F910895BB271F
:102DF0004A3031F4992322F4BDE2909581959F4F9A
:102E00000C941817592F482F372F262F660F771F2E
:102E1000881F991F660F771F881F991F620F731FE6
:102E2000841F951F660F771F881F991F0895BB2762
:102E3000FB015527AA27880F991FAA1FA41710F076
:102E4000A41B83955051B9F7A05DAA3308F0A95D82
:102E5000A193009779F7B111B1931192CB010C9422
:102E6000D21AA9E0B0E0E7E3F7E10C941A1C6A017A
:102E7000122FB02E2BE3201720F0FF24F394F00E36
:102E800002C02CE3F22E0F2D27E0AE014F5F5F4F03
:102E90000E94D919BC014981842F8970813031F099
:102EA000E1FC06C0E0FE06C090E205C09DE203C062
:102EB0009BE201C090E05E2D507143FF3CC0911138
:102EC00002C083E001C084E0811718F4212F281B81
:102ED00001C020E051110BC0F601822F30E288239F
:102EE00019F031938150FBCFC20ED11C20E0992301
:102EF00029F0D6019C93F60131966F01C601039625
:102F0000E2FE0AC03EE4D6013C9341E411964C93A4
:102F1000119712963C9306C03EE6F601308341E6D7
:102F200041833283FC01322F40E2332309F442C053
:102F300041933150FACF42FF44C0911102C083E067
:102F400001C084E0811718F4212F281B01C020E064
:102F500051110BC0F601822F30E2882319F0319312
:102F60008150FBCFC20ED11C20E0992329F0D6015D
:102F70009C93F60131966F01C6010396E2FE0BC0E9
:102F800039E4D6013C933EE411963C93119736E424
:102F900012963C9307C039E6F60130833EE6318352
:102FA00036E63283FC01322F40E2332319F041939D
:102FB0003150FBCFFC01E20FF11D10828EEF9FEF2D
:102FC000A6C021E030E0911102C020E030E01616EA
:102FD00017061CF4FB01319602C0E1E0F0E02E0F71
:102FE0003F1FBB2021F0EB2DF0E0319602C0E0E066
:102FF000F0E02E0F3F1FE12FF0E02E173F071CF4EB
:10300000121B212F01C020E08E2D887159F4F6018A
:10301000822F30E2882319F031938150FBCFC20E0A
:10302000D11C20E0992329F0D6019C93F60131961A
:103030006F0151110BC0F601822F90E3882319F024
:1030400091938150FBCFC20ED11C20E00F2D060FB3
:103050009A81342F307144FF03C0913309F4015039
:10306000101624F4093018F008E001C001E0AB01AB
:1030700077FF02C040E050E0FB01E41BF50BA1E04C
:10308000B0E0AC0FBD1FEA0FFB1F8EE2A82E4B0174
:10309000801A91080B2D10E01195019511094F3FF1
:1030A000BFEF5B0721F4D601AC9211966D01641756
:1030B00075072CF08416950614F4818101C080E315
:1030C000415051093196D60111967D0140175107A3
:1030D00024F0D6018C936701E2CF6417750739F4A9
:1030E000963320F4953319F4311101C081E3F601D0
:1030F0008083F701822F90E2882319F09193815009
:10310000FBCFF701E20FF11D108280E090E02996DD
:10311000ECE00C94361CA0E0B0E0E1E9F8E10C949E
:103120001A1CEC016B016115710519F0FB0191830B
:1031300080837E01FFEFEF1AFF0A0881802F90E065
:103140000E94B11A892B11F0E701F3CF0D3239F447
:103150007E0182E0E80EF11C098111E008C00B320B
:1031600029F47E0192E0E90EF11C098110E0E701EB
:10317000219743E050E06EE970E0CE010E94BA1A58
:10318000892BC1F4239645E050E069E970E0CE0157
:103190000E94BA1A892B09F42596C114D10419F09A
:1031A000F601D183C0831111F6C060E070E080E8C1
:1031B0009FE7FAC043E050E066E970E0CE010E946C
:1031C000BA1A892B59F4C114D10409F4E9C0F2E008
:1031D000EF0EF11CF601F182E082E2C020E030E067
:1031E000A901C0E0D0E0F70180EDA82EA00E89E093
:1031F0008A1530F1912F9260B92E812F887012FFBD
:1032000004C0811124C0219622C081112197A5E01C
:10321000B0E00E94091CDC01CB01880F991FAA1F96
:10322000BB1F9C01AD012A0D311D411D511D2839C7
:1032300089E93807480789E1580748F0166006C051
:103240009EEFA9120AC013FD40C01860B12E8FEF87
:10325000E81AF80A00811B2DC6CF802F8F7D853498
:10326000A1F580818D3211F4106106C08B3221F0FE
:10327000319661E070E004C08181329662E070E0D6
:1032800080538A3018F0E61BF70B1FC060E070E037
:1032900060389CE079075CF4DB01AA0FBB1FAA0F22
:1032A000BB1F6A0F7B1F660F771F680F711D31965A
:1032B000DF0111978C9180538A3050F314FF03C0C3
:1032C000719561957109C60FD71F11FF08C0C11410
:1032D000D10429F0CF010197F60191838083CA01BF
:1032E000B9010E94E71A212F2370233019F04B01F6
:1032F0005C0106C04B015C01B7FAB094B7F8B0941A
:1033000020E030E0A901C501B4010E94E21A88233F
:1033100009F43EC0D7FF06C0D195C195D10905EB90
:1033200010E002C00DEC10E06801F8E1CF1AD108FE
:1033300090E2E92EF12CCE15DF0574F0F80125910D
:10334000359145915491C501B4010E94481B4B0130
:103350005C01CE19DF09EFCF04501109F594E79411
:103360000C151D0541F78A2D880F8B2D881F8F3F67
:1033700049F020E030E0A901C501B4010E94E21A41
:10338000811106C082E290E090937C0480937B04DC
:10339000C501B40109C060E070E080E89FEF04C09F
:1033A00060E070E080EC9FE7CDB7DEB7ECE00C9416
:1033B000361C283008F027E03327DA01990F311D39
:1033C00087FD916000966105710539F432602E5FCA
:1033D0003D9330E32A95E1F708959F3F30F0803820
:1033E0007105610509F03C5F3C5F3D93913008F049
:1033F0008068911DDF93CF931F930F93FF92EF92FD
:10340000192F987F9695E92F96959695E90FFF27A6
:10341000E55DFE4F99273327EE24FF24A701E7013E
:1034200005900894079428F4360FE71EF81E491FEC
:10343000511D660F771F881F991F0694A1F70590ED
:10344000079428F4E70EF81E491F561FC11D770F79
:10345000881F991F661F0694A1F70590079428F40A
:10346000F80E491F561FC71FD11D880F991F661FD1
:10347000771F0694A1F70590079420F4490F561F73
:10348000C71FD81F990F661F771F881F0694A9F7BB
:1034900084911095177041F0D695C795579547952B
:1034A000F794E7941A95C1F7E1EDF0E06894159070
:1034B000159135916591959105907FE27395E1188D
:1034C000F10A430B560BC90BD009C0F7E10CF11EF2
:1034D000431F561FC91FD01D7EF4703311F48A9507
:1034E000E6CFE894015030F0080F0AF400270217E5
:1034F00008F4202F2395022F7A3328F079E37D9367
:103500002A95E9F710C07D932A9589F60694979538
:103510006795379517951794E118F10A430B560BE9
:10352000C90BD00998F023957E9173957A3308F0F2
:1035300070E37C932013B8F77E9170617D9330F037
:10354000839571E37D9370E32A95E1F71124EF9061
:10355000FF900F911F91CF91DF91992787FD909553
:10356000089591110C94B51B803219F08950855043
:10357000C8F70895FB01DC014150504088F08D915F
:1035800081341CF08B350CF4805E659161341CF045
:103590006B350CF4605E861B611171F3990B089515
:1035A000881BFCCFDC01FC01672F71917723E1F7C9
:1035B000329704C07C916D9370836291AE17BF0700
:1035C000C8F308950E94241B08F481E00895E8944C
:1035D00009C097FB3EF490958095709561957F4F5B
:1035E0008F4F9F4F9923A9F0F92F96E9BB27939509
:1035F000F695879577956795B795F111F8CFFAF419
:10360000BB0F11F460FF1BC06F5F7F4F8F4F9F4F49
:1036100016C0882311F096E911C0772321F09EE8A7
:10362000872F762F05C0662371F096E8862F70E00D
:1036300060E02AF09A95660F771F881FDAF7880FE7
:103640009695879597F90895990F0008550FAA0B3D
:10365000E0E8FEEF16161706E807F907C0F01216A5
:103660001306E407F50798F0621B730B840B950BA8
:1036700039F40A2661F0232B242B252B21F40895FD
:103680000A2609F4A140A6958FEF811D811D08959A
:103690000E945B1B0C94CF1B0E94C11B38F00E9440
:1036A000C81B20F0952311F00C94B81B0C94BE1B82
:1036B00011240C94031C0E94E01B70F3959FC1F32E
:1036C000950F50E0551F629FF001729FBB27F00DD0
:1036D000B11D639FAA27F00DB11DAA1F649F662725
:1036E000B00DA11D661F829F2227B00DA11D621F74
:1036F000739FB00DA11D621F839FA00D611D221F2E
:10370000749F3327A00D611D231F849F600D211D11
:10371000822F762F6A2F11249F5750409AF0F1F094
:1037200088234AF0EE0FFF1FBB1F661F771F881FFD
:1037300091505040A9F79E3F510580F00C94B81B62
:103740000C94031C5F3FE4F3983ED4F38695779581
:103750006795B795F795E7959F5FC1F7FE2B880FA3
:10376000911D9695879597F908959927882708952B
:1037700097F99F6780E870E060E008959FEF80EC24
:10378000089500240A9416161706180609060895C7
:1037900000240A9412161306140605060895092E2D
:1037A0000394000C11F4882352F0BB0F40F4BF2B9C
:1037B00011F460FF04C06F5F7F4F8F4F9F4F0895DC
:1037C00057FD9058440F551F59F05F3F71F04795D2
:1037D000880F97FB991F61F09F3F79F087950895B7
:1037E000121613061406551FF2CF4695F1DF08C0D6
:1037F000161617061806991FF1CF869571056105F3
:1038000008940895E894BB2766277727CB0197F99A
:1038100008950E944B1CA59F900DB49F900DA49FEE
:10382000800D911D112408952F923F924F925F9227
:103830006F927F928F929F92AF92BF92CF92DF92C0
:10384000EF92FF920F931F93CF93DF93CDB7DEB725
:10385000CA1BDB0B0FB6F894DEBF0FBECDBF0994B9
:103860002A88398848885F846E847D848C849B8410
:10387000AA84B984C884DF80EE80FD800C811B811E
:10388000AA81B981CE0FD11D0FB6F894DEBF0FBE4D
:10389000CDBFED010895A29FB001B39FC001A39FCA
:1038A000700D811D1124911DB29F700D811D112479
:1038B000911D089597FB072E16F4009407D077FD0D
:1038C00009D00E94771C07FC05D03EF490958195A5
:1038D0009F4F0895709561957F4F08952A153B0578
:1038E0004C055D056E057F05800791070895AA1BAD
:1038F000BB1B51E107C0AA1FBB1FA617B70710F0DB
:10390000A61BB70B881F991F5A95A9F7809590950C
:10391000BC01CD010895EE0FFF1F0590F491E02D3D
:1039200009945058BB27AA270E94A91C0C94CF1BAE
:103930000E94C11B38F00E94C81B20F039F49F3F41
:1039400019F426F40C94BE1B0EF4E095E7FB0C94DE
:10395000B81BE92F0E94E01B58F3BA1762077307E0
:103960008407950720F079F4A6F50C94021C0EF458
:10397000E0950B2EBA2FA02D0B01B90190010C017F
:10398000CA01A0011124FF27591B99F0593F50F497
:10399000503E68F11A16F040A22F232F342F4427EF
:1039A000585FF3CF469537952795A795F0405395E7
:1039B000C9F77EF41F16BA0B620B730B840BBAF0B7
:1039C0009150A1F0FF0FBB1F661F771F881FC2F722
:1039D0000EC0BA0F621F731F841F48F48795779536
:1039E0006795B795F7959E3F08F0B0CF9395880FF0
:1039F00008F09927EE0F979587950895DF93DD27B7
:103A0000B92FBF7740E85FE31616170648075B0734
:103A100018F4D92F0E94011E9F938F937F936F9369
:103A20000E944F1EE8E6F0E00E94D51D0E94CF1BC9
:103A30002F913F914F915F910E945B1BDD2351F0CD
:103A40009058A2EA2AED3FE049EC5FE3D0785D2789
:103A50000E94A91CDF910C94CF1B0E94411D0C9465
:103A6000CF1B0E94C81B58F00E94C11B40F029F4D4
:103A70005F3F29F00C94B81B51110C94031C0C945B
:103A8000BE1B0E94E01B68F39923B1F3552391F309
:103A9000951B550BBB27AA2762177307840738F0BD
:103AA0009F5F5F4F220F331F441FAA1FA9F335D01A
:103AB0000E2E3AF0E0E832D091505040E695001CCE
:103AC000CAF72BD0FE2F29D0660F771F881FBB1F88
:103AD000261737074807AB07B0E809F0BB0B802D66
:103AE000BF01FF2793585F4F3AF09E3F510578F092
:103AF0000C94B81B0C94031C5F3FE4F3983ED4F382
:103B0000869577956795B795F7959F5FC9F7880F65
:103B1000911D9695879597F90895E1E0660F771FB7
:103B2000881FBB1F621773078407BA0720F0621B48
:103B3000730B840BBA0BEE1F88F7E09508950E9473
:103B4000A61D6894B1110C94031C08950E94E81BF3
:103B500088F09F5798F0B92F9927B751B0F0E1F04E
:103B6000660F771F881F991F1AF0BA95C9F714C0FE
:103B7000B13091F00E94021CB1E008950C94021C37
:103B8000672F782F8827B85F39F0B93FCCF3869537
:103B900077956795B395D9F73EF490958095709594
:103BA00061957F4F8F4F9F4F0895DF93CF931F9362
:103BB0000F93FF92EF92DF927B018C01689406C015
:103BC000DA2EEF010E945B1BFE01E894A59125917E
:103BD000359145915591A6F3EF010E94A91CFE0174
:103BE0009701A801DA9469F7DF90EF90FF900F91A9
:103BF0001F91CF91DF9108950E94241B08F48FEF4D
:103C000008959B01AC0160E070E080E89FE30C94B4
:103C10002D1D19F416F40C94BE1B0C94531E0E9417
:103C2000E81BB8F39923C9F3B6F39F57550B87FFE9
:103C30000E94611E0024A0E640EA9001805856953B
:103C4000979528F4805C660F771F881F20F0261751
:103C50003707480730F4621B730B840B2029312986
:103C60004A2BA69517940794202531254A2758F703
:103C7000660F771F881F20F026173707480730F494
:103C8000620B730B840B200D311D411DA09581F734
:103C9000B901842F9158880F9695879508959B01B7
:103CA000AC010C94481B9F3F31F0915020F4879554
:103CB00077956795B795880F911D9695879597F994
:103CC000089591505040660F771F881FD2F70895CE
:103CD0000F931F93CF93DF938230910510F482E00E
:103CE00090E0E0917F04F091800420E030E0A0E0DB
:103CF000B0E0309719F1408151810281138148175A
:103D00005907C8F08417950769F4109731F0129697
:103D10000C93129713961C9327C000937F04109363
:103D2000800422C02115310519F04217530718F4F9
:103D30009A01BD01EF01DF01F801DBCF211531054B
:103D4000F9F0281B390B2430310580F48A819B81DE
:103D50006115710521F0FB019383828304C0909368
:103D6000800480937F04FE01329644C0FE01E20F7E
:103D7000F31F8193919322503109398328833AC0EC
:103D800020917D0430917E04232B41F42091020187
:103D90003091030130937E0420937D042091000133
:103DA000309101012115310541F42DB73EB7409105
:103DB000040150910501241B350BE0917D04F09125
:103DC0007E04E217F307A0F42E1B3F0B28173907D8
:103DD00078F0AC014E5F5F4F2417350748F04E0F67
:103DE0005F1F50937E0440937D048193919302C0A2
:103DF000E0E0F0E0CF01DF91CF911F910F910895A6
:103E0000CF93DF93009709F481C0FC0132971382AE
:103E10001282A0917F04B0918004109781F42081D8
:103E20003181820F931F20917D0430917E042817E9
:103E3000390751F5F0937E04E0937D0467C0ED01EE
:103E400020E030E0CE17DF0740F44A815B819E011D
:103E500041155105F1F0EA01F5CFD383C2834081CA
:103E60005181840F951FC817D90759F4888199810A
:103E7000840F951F0296918380838A819B8193830F
:103E800082832115310529F4F0938004E0937F04A7
:103E90003DC0E901FB83EA8349915991C40FD51FC5
:103EA000EC17FD0761F480819181840F951F0296C4
:103EB000E90199838883828193819B838A83E0E0EF
:103EC000F0E012968D919C911397009719F0FD01E7
:103ED000DC01F7CF8D919C9111979D012E5F3F4F93
:103EE000820F931F20917D0430917E04281739079B
:103EF00069F4309729F41092800410927F0402C074
:103F000013821282B0937E04A0937D04DF91CF913F
:103F10000895A0E0B0E0EFE8FFE10C94181CEC017C
:103F2000009721F4CB010E94681EB4C0FC01E60F8B
:103F3000F71F9C0122503109E217F30708F4A8C0CB
:103F4000D9010D911C91119706171707B0F0053094
:103F5000110508F49BC0C80104978617970708F459
:103F600095C002501109061B170B019311936D9315
:103F70007C93CF010E94001F89C05B01A01AB10A87
:103F80004C01800E911EA0917F04B0918004612CA1
:103F9000712CE12CF12C109709F446C08D919C9165
:103FA0001197A815B905B1F56C0142E0C40ED11CFA
:103FB000CA14DB0478F14C018A189B08640142E0C2
:103FC000C40ED11C1296BC9012971396AC91B5E01A
:103FD000CB16D10440F0B282A38391828082D901B2
:103FE0006D937C9309C00E5F1F4F800F911FF901E5
:103FF00091838083EB2DFA2FE114F10431F0D70186
:104000001396FC93EE93129741C0F0938004E093D3
:104010007F043CC06816790608F43C017D011296C5
:104020000D90BC91A02DB7CF80917D0490917E041E
:1040300088169906E1F466167706C8F480910001A7
:1040400090910101009741F48DB79EB74091040112
:1040500050910501841B950BE817F907C8F4F093FC
:104060007E04E0937D04F901718360830FC0CB016E
:104070000E94681E7C01009759F0A801BE010E94B1
:104080005420CE010E94001FC70104C0CE0102C00F
:1040900080E090E0CDB7DEB7EEE00C94341C81E018
:1040A00090E0F8940C948D20FB01DC0102C001909B
:1040B0000D9241505040D8F70895FB01DC0101906A
:1040C0000D920020E1F70895FB01DC0141505040C2
:1040D00048F001900D920020C9F701C01D92415097
:1040E0005040E0F70895FB0151915523A9F0BF011D
:1040F000DC014D9145174111E1F759F4CD010190D3
:10410000002049F04D9140154111C9F3FB014111C7
:0E411000EFCF81E090E001970895F894FFCF83
:10411E0000008104200000000000EC02D603ED0236
:10412E00D8037F0400000000D1013E0168011E0289
:10413E00990177018B01000000007A034D03AA0359
:10414E0062024503310322030000000063023E01B8
:10415E00AA036202B302CB024A02424E4F303535F9
:10416E00004F6F6F70732C206E6F20424E4F3035A4
:10417E00352031206465746563746564202E2E2E9F
:10418E0020436865636B20796F7572207769726959
:10419E006E67206F72204932432041444452210001
:1041AE0043616C6962726174696E67002E000A4425
:1041BE006F6E65210050726F6772616D207374614E
:1041CE007274656421002C007273686F653A000981
:1041DE0061780900096179090009617A0900097994
:1041EE000900097209000970090009776569676895
:1041FE00743A0009730900096209006C73686F65EF
:10420E003A0063686573743A0009615A09000961DE
:10421E006C74090009446574656374656400094A29
:10422E00756D703A000942656E643A0009537472F6
:10423E0061696768740909000D0A00096261636BA0
:10424E007761726400096C6566740009666F727737
:0C425E00617264000972696768740000F6
:00000001FF
