:100000000C9414010C943C010C943C010C94D70505
:100010000C94D7050C94D7050C943C010C943C012E
:100020000C943C010C943C010C943C010C943C015C
:100030000C943C010C943C010C943C010C943C014C
:100040000C94C2100C943C010C9495050C946F0513
:100050000C943C010C943C010C943C010C943C012C
:100060000C9451060C943C01084AD73B3BCE016EE0
:1000700084BCBFFDC12F3D6C74319ABD56833DDAFF
:100080003D00C77F11BED9E4BB4C3E916BAAAABE0E
:10009000000000803F004E414E494E495459494EA0
:1000A00046CDCCCC3D0AD7233C17B7D13877CC2BE3
:1000B000329595E6241FB14F0A000020410000C888
:1000C0004200401C4620BCBE4CCA1B0E5AAEC59D09
:1000D0007400407A10F35A00A0724E18090010A55F
:1000E000D4E80000E87648170000E40B5402000052
:1000F000CA9A3B000000E1F50500008096980000D8
:100100000040420F000000A0860100000010270000
:10011000000000E803000000006400000000000A86
:1001200000000000000100000000002C76D888DCF0
:10013000674F0823DFC1DFAE59E1B1B796E5E3E4CD
:1001400053C63AE651997696E8E6C28426EB898C46
:100150009B62ED407C6FFCEFBC9C9F40F2BAA56FA8
:10016000A5F490055A2AF75C936B6CF9676DC11B77
:10017000FCE0E40D47FEF520E6B500D0ED902E033F
:1001800000943577050080841E080000204E0A0088
:100190000000C80C333333330F986E12831141EFD4
:1001A0008D2114893BE65516CFFEE6DB18D1844B32
:1001B000381BF77C1D901DA4BBE424203284725EA2
:1001C000228100C9F124ECA1E53D270000000023B5
:1001D000002600290000000000240027002A00005B
:1001E000000000250028002B00040404040404047B
:1001F00004020202020202030303030303010204D6
:100200000810204080010204081020010204081098
:1002100020000000080002010000030407000000A5
:10022000000000000000B41F11241FBECFEFD8E073
:10023000DEBFCDBF12E0A0E0B1E0E4E9F4E502C02A
:1002400005900D92A43FB107D9F725E0A4EFB2E0E5
:1002500001C01D92A330B207E1F711E0C4E1D1E083
:1002600004C02197FE010E944626C331D107C9F779
:100270000E940C110C94482A0C940000CF92DF923B
:10028000EF92FF920F931F93CF93DF936C017A014C
:100290008B01C0E0D0E0CE15DF0581F0D8016D9173
:1002A0008D01D601ED91FC910190F081E02DC60108
:1002B0000995892B11F02196EECF7E01C701DF91C0
:1002C000CF911F910F91FF90EF90DF90CF90089505
:1002D000FC01538D448D252F30E0842F90E0821B4C
:1002E000930B541710F0CF96089501970895FC01D1
:1002F000918D828D981761F0828DDF01A80FB11D5D
:100300005D968C91928D9F5F9F73928F90E0089580
:100310008FEF9FEF0895FC01918D828D981731F03A
:10032000828DE80FF11D858D90E008958FEF9FEF8E
:100330000895FC01918D228D892F90E0805C9F4F64
:10034000821B91098F73992708958BE494E00E9492
:10035000990121E0892B09F420E0822F0895FC0106
:10036000848DDF01A80FB11DA35ABF4F2C91848D3E
:1003700090E001968F739927848FA689B7892C9373
:10038000A089B1898C91837080648C93938D848DC6
:10039000981306C00288F389E02D80818F7D8083C9
:1003A0000895EF92FF920F931F93CF93DF93EC0189
:1003B00081E0888F9B8D8C8D981305C0E889F98921
:1003C000808185FD26C0F62E0B8D10E00F5F1F4F3C
:1003D0000F731127E02E8C8DE8120CC00FB607FCAE
:1003E000FACFE889F989808185FFF5CFCE010E9497
:1003F000AF01F1CF8B8DFE01E80FF11DE35AFF4FE6
:10040000F0829FB7F8940B8FEA89FB898081806224
:100410000AC09FB7F894EE89FF896083E889F9895B
:1004200080818370806480839FBF81E090E0DF9152
:10043000CF911F910F91FF90EF900895CF93DF938D
:10044000EC01888D8823C9F0EA89FB89808185FDCC
:1004500005C0A889B9898C9186FD0FC00FB607FC2D
:10046000F5CF808185FFF2CFA889B9898C9185FF6E
:10047000EDCFCE010E94AF01E7CFDF91CF9108957C
:1004800080E090E0892B29F00E94A50181110C9455
:10049000000008952091F6023091F70228173907DD
:1004A00071F49091F4028091F502981741F0E09177
:1004B000F402F0E0E356FC4F808190E008958FEF66
:1004C0009FEF089508951F93CF93DF93DC015C960F
:1004D0008D919C915D97009739F421E030E013965F
:1004E0003C932E9312973BC05196ED91FC915297FD
:1004F00050962C915097322F30951FB75E964C91A5
:100500005E97742F727041FD6095F8944081772357
:1005100011F0422B01C043234083EC012197F1F7F6
:1005200048E0508160FF02C0522B01C0532350832A
:10053000EC012197F1F76695415099F78081772377
:1005400019F08323808302C0282B20831FBF5C9671
:100550008D919C915D970197F1F781E090E0DF919B
:10056000CF911F9108952091F6023091F70228173C
:10057000390771F48091F5022091F40290E0805CDB
:100580009F4F821B910960E470E00E941526089538
:1005900080E090E008952091F6023091F70228174C
:1005A0003907B9F49091F4028091F502981789F017
:1005B000E091F402F0E0E356FC4F80812091F402D8
:1005C00030E02F5F3F4F2F7333272093F40290E0EA
:1005D00008958FEF9FEF08950895089585ED809316
:1005E000BC008091BC0084FDFCCF10924A040895A9
:1005F00040917A03262F30E0240F311D213231053E
:10060000DCF420914A042430C9F4FC0180E090E03D
:10061000861758F430917A032191DC01A65ABC4F19
:10062000A30FB11D2C930196F3CF80917A03680F2D
:1006300060937A0380E0089581E0089582E0089550
:1006400008950895E091DF038091DE03E81730F408
:10065000F0E0EC5FFB4F808190E008958FEF9FEF1B
:1006600008959091DF038091DE03981750F4E92FED
:10067000F0E0EC5FFB4F208130E09F5F9093DF0361
:1006800002C02FEF3FEFC90108958091DE0390E093
:100690002091DF03821B91090895CF92DF92EF92A0
:1006A000FF920F931F93CF93DF937C01CB018A01BD
:1006B0002091E003222389F0EB016B01C40ED51ECB
:1006C000CC15DD0569F06991D701ED91FC910190A0
:1006D000F081E02DC7010995F3CF642F0E94F80245
:1006E000C801DF91CF911F910F91FF90EF90DF90A4
:1006F000CF900895CF93DF931F92CDB7DEB7698374
:100700002091E0032223D1F020910304203240F015
:1007100021E030E0FC013383228380E090E015C0CB
:100720008091E103E82FF0E0EE51FC4F9981908336
:100730008F5F8093E1038093030405C061E0CE01E5
:1007400001960E94F80281E090E00F90DF91CF9136
:100750000895089580E090E008950E940A2A0F937A
:100760001F93CF93DF93EC0188819981009729F043
:100770002A813B812617370788F48B016F5F7F4FF3
:100780000E944429009761F0998388831B830A8320
:100790002C813D81232B11F4FC01108281E001C0EA
:1007A00080E0DF91CF911F910F9108950C94BB28A9
:1007B0008F929F92AF92BF92CF92DF92EF92FF9271
:1007C0000F931F93CF93DF93CDB7DEB762970FB62A
:1007D000F894DEBF0FBECDBF7C018B0184E2DB014C
:1007E0001D928A95E9F784E290E0A0E0B0E0FB0179
:1007F00080839183A283B383F70186819781A0854B
:10080000B185FB0184839583A683B78383E090E061
:10081000A0E0B0E080879187A287B3870E94B610DE
:10082000D80150966D937D938D939C935397FE01C1
:1008300031968CE0DF011D928A95E9F7AE01435FA6
:100840005F4F86E0FA0111928A95E9F76AE170E05C
:10085000C7010E94D30E6D857E85072E000C880B84
:10086000990B0E945B2420E030E040E85DE30E94A9
:10087000BA244B015C016F857889072E000C880B28
:10088000990B0E945B2420E030E040E85DE30E9489
:10089000BA246B017C0169897A89072E000C880BC8
:1008A000990B0E945B2420E030E040E85DE30E9469
:1008B000BA24D80154968D929D92AD92BC925797CE
:1008C000F801C08ED18EE28EF38E5C966D937D938F
:1008D0008D939C935F9781E062960FB6F894DEBF8C
:1008E0000FBECDBFDF91CF911F910F91FF90EF9081
:1008F000DF90CF90BF90AF909F908F9008950F930F
:100900001F93CF93DF938C01EB0188E2FB011192DF
:100910008A95E9F74BE050E06BEA72E0CE010E9465
:100920001F2A1B8681E090E0A0E0B0E08C879D87C5
:10093000AE87BF87F80186819781A085B185888BB6
:10094000998BAA8BBB8B83E090E0A0E0B0E08C8B0E
:100950009D8BAE8BBF8B1CA21DA21EA21FA2188E48
:10096000198E1A8E1B8E1C8E1D8E1E8E1F8E8AE077
:1009700097EDA3E2BCE388A399A3AAA3BBA3DF914D
:10098000CF911F910F910895EF92FF920F931F93B4
:10099000CF93DF936115710511F480E01CC0411500
:1009A0005105C1F07B01EC018C819D818A01080F0A
:1009B000191FB801CE010E94AF03882371F328816B
:1009C00039818C819D81B701820F931F0E94182A63
:1009D0001D830C8381E0DF91CF911F910F91FF90D8
:1009E000EF900895CF93DF93EC0188819981009770
:1009F00011F00E94BB28198218821D821C821B8262
:100A00001A82DF91CF910895CF93DF93EC016115A6
:100A1000710561F0FB0101900020E9F73197AF010A
:100A2000461B570B0E94C404811103C0CE010E94D3
:100A3000F204CE01DF91CF910895EF92FF920F93D0
:100A40001F93CF93DF93EC017B018A01BA010E94CF
:100A5000AF03811104C0CE010E94F20407C01D83C0
:100A60000C83B701888199810E94182ACE01DF91F9
:100A7000CF911F910F91FF90EF900895CF93DF9347
:100A8000EC016115710559F0FB0101900020E9F7B7
:100A90003197AF01461B570B0E941D0502C00E94F3
:100AA000F204CE01DF91CF910895FC018081918104
:100AB0000C94BB28FC0111821082138212821582D1
:100AC00014826115710551F0FB0101900020E9F7D6
:100AD0003197AF01461B570B0C941D0508951F92CB
:100AE0000F920FB60F9211242F933F934F935F9362
:100AF0006F937F938F939F93AF93BF93EF93FF93E6
:100B00008BE494E00E94AF01FF91EF91BF91AF9110
:100B10009F918F917F916F915F914F913F912F9115
:100B20000F900FBE0F901F9018951F920F920FB647
:100B30000F9211242F938F939F93EF93FF93E09144
:100B40005B04F0915C048081E0916104F0916204A7
:100B500082FD12C09081809164048F5F8F73209119
:100B60006504821751F0E0916404F0E0E55BFB4F0F
:100B7000958F8093640401C08081FF91EF919F91D4
:100B80008F912F910F900FBE0F901F901895AB0172
:100B90006130714018F461E00C94A60C0895AB012B
:100BA0006130714018F460E00C94A60C08951F9217
:100BB0000F920FB60F9211242F933F934F935F9391
:100BC0006F937F938F939F93AF93BF93EF93FF9315
:100BD000E091F602F091F702309709F451C0968D3A
:100BE000A685B785858591FF04C09C91892329F44A
:100BF00047C09C91892309F043C0A389B4899C9183
:100C00008589809589238C93868997890197F1F747
:100C1000608D718DA685B785558538E020E0CB01C4
:100C20000197F1F7822F90E095958795282F4C91A9
:100C3000452309F02068315091F7868D81FD20957C
:100C40008091F50290E001968F7399273091F4021C
:100C5000381749F0A091F502B0E0A356BC4F2C9391
:100C60008093F50203C0868D8160868F828D938D7F
:100C70000197F1F7A389B4899C918589892B8C937D
:100C8000FF91EF91BF91AF919F918F917F916F9164
:100C90005F914F913F912F910F900FBE0F901F903A
:100CA00018951F920F920FB60F9211242F933F9316
:100CB0004F935F936F937F938F939F93AF93BF9364
:100CC000EF93FF938091B900887F803609F49CC030
:100CD00068F5883209F45BC090F4803109F454C09F
:100CE00038F4882309F4F6C0883009F44DC0F6C002
:100CF000883109F44CC0803209F45DC0EFC0803403
:100D000009F468C048F4803309F455C0883309F009
:100D1000E5C080934804D8C0803509F44FC08835B9
:100D200009F45DC0883409F0D9C0D6C0883909F407
:100D3000C7C0A8F4883709F467C038F4883609F4C6
:100D400063C0803709F460C0C9C0883809F4B8C0EE
:100D5000803909F45FC0803809F0C0C05BC0803BB7
:100D600009F486C038F4803A09F466C0883A09F478
:100D70007FC0B4C0803C09F4A7C0883C09F4A4C07B
:100D8000883B09F48AC0AAC08091450410C09091A4
:100D9000470480914604981770F5E091470481E07C
:100DA0008E0F80934704F0E0EC5DFB4F80818093D1
:100DB000BB0085EC86C0809348048EC0E091470458
:100DC00081E08E0F809347048091BB00F0E0EC5DE2
:100DD000FB4F808390914704809146046EC0E09160
:100DE000470481E08E0F809347048091BB00F0E0C0
:100DF000EC5DFB4F80838091490481116DC081E0DF
:100E00008093440484EA61C083E080934A04109292
:100E10009C03CFCF80919C03803208F051C0E091B9
:100E20009C0381E08E0F80939C038091BB00F0E0D7
:100E3000E458FC4F8083BDCF85EC8093BC001092BA
:100E40004A0480919C03803230F4E0919C03F0E0EE
:100E5000E458FC4F108260919C0370E0E0915803CD
:100E6000F09159038CE793E0099510929C0336C0EA
:100E700084E080934A0410927B0310927A03E091FD
:100E80005603F0915703099580917A03811105C0AB
:100E900081E080937A0310925A03E0917B0381E012
:100EA0008E0F80937B03F0E0E65AFC4F80818093A5
:100EB000BB0090917B0380917A03981708F479CF57
:100EC00085E88093BC000AC085EC8093BC0010923A
:100ED0004A0404C0109248040E94EE02FF91EF9170
:100EE000BF91AF919F918F917F916F915F914F9142
:100EF0003F912F910F900FBE0F901F901895CF929A
:100F0000DF92EF92FF929B01245F3F4FFB01C19064
:100F1000D190E190F190BF01FC01C192D192E19298
:100F2000F192CF016217730789F7FF90EF90DF907E
:100F3000CF900895EF92FF920F931F93CF93DF937B
:100F4000CDB7DEB7A4970FB6F894DEBF0FBECDBF06
:100F50008C01FC01E080F180F701268D378D40A1E6
:100F600051A162857385848595850E944C26905891
:100F70000E945A27F801708767836A3071050CF464
:100F800042C085859685A785B0898196A11DB11D32
:100F900085879687A787B08BB701625F7F4FCE01A9
:100FA00049960E947F0720E030E0A90169A17AA15B
:100FB0008BA19CA10E94B727F80160817181625FBB
:100FC0007F4F18164CF4CE010D960E947F072D8995
:100FD0003E894F89588D0BC0CE0101960E947F0734
:100FE00089859A85AB85BC859C01AD015058F80177
:100FF00061897289838994890E944D26F801618BE9
:10100000728B838B948BF801878190858A30910550
:101010006CF4218532852A30310544F0118A128A18
:10102000138A148A158616861786108AF801928705
:10103000818781E045855685678570891416150678
:10104000160617060CF080E0A4960FB6F894DEBFE3
:101050000FBECDBFDF91CF911F910F91FF90EF9009
:101060000895DC01ED91FC91848195818C34BFEF72
:101070009B0714F488599E4F228133812C344FEF03
:10108000340714F428593E4F889FB001899F700D92
:10109000700D1124229FC001239F900D900D1124EB
:1010A000680F791F072E000C880B990B0E945B2498
:1010B0000C94CA278F929F92AF92BF92CF92DF92E9
:1010C000EF92FF92CF93DF93FC01C081D1816C81BD
:1010D0007D816C34FFEF7F0714F468597E4F072E33
:1010E000000C880B990B0E945B246B017C016A81C8
:1010F0007B816C348FEF780714F468597E4F072E8C
:10110000000C880B990B0E945B244B015C0120E0D2
:1011100030E0A9010E94B727181644F520E030E01E
:10112000A901C701B6010E94B72787FD09C0A50123
:101130009401C701B6010E94E8260E94B92656C054
:1011400020E030E0A901C701B6010E94542487FFC6
:101150000DC0A5019401C701B6010E94E8260E94B6
:10116000B9262BED3FE049EC50E415C020E030E01B
:10117000A901C501B4010E94542487FF0FC0A50135
:101180009401C701B6010E94E8260E94B9262BED02
:101190003FE049E450E40E944D2628C020E030E0C2
:1011A000A901C501B4010E94542481111CC020E092
:1011B00030E0A901C701B6010E94B727181674F0E4
:1011C00020E030E0A901C701B6010E94542487FF46
:1011D0000AC064EE7BEC86E990E408C06BED7FE02A
:1011E00089EC9FE303C060E070E0CB0120E030E0D9
:1011F00044E353E40E94BA242BED3FE049E450E479
:101200000E94E8260E945A27CB01DF91CF91FF90E0
:10121000EF90DF90CF90BF90AF909F908F90089508
:101220006F927F928F929F92AF92BF92CF92DF92F6
:10123000EF92FF920F931F93CF93DF93CDB7DEB75B
:1012400062970FB6F894DEBF0FBECDBF7C01F701E9
:10125000819191916F018E010F5F1F4F2CE0F8017A
:1012600011922A95E9F75E01FDE0AF0EB11C26E070
:10127000F50111922A95E9F7A5016AE170E00E9453
:10128000D30E8F84988869887A886D857E85072E2D
:10129000000C880B990B0E945B2420E030E040E8B2
:1012A0005DE30E94BA2469837A838B839C83B401B3
:1012B000990C880B990B0E945B2420E030E040E8F9
:1012C0005DE30E94BA246D837E838F839887B30188
:1012D000770C880B990B0E945B2420E030E040E8FB
:1012E0005DE30E94BA2469877A878B879C8798017F
:1012F0004701FEE08F0E911CF90181919191A1911E
:10130000B1919F01F60181939193A193B1936F01E4
:10131000E815F90589F78BE99FE00197F1F7F701E7
:10132000808191812CE0F80111922A95E9F726E05D
:10133000F50111922A95E9F7A50168E270E00E9493
:10134000D30EAF84B888C988DA886D857E85072E6C
:10135000000C880B990B0E945B2420E030E048ECE5
:1013600052E40E94E82669837A838B839C83B501CB
:10137000BB0C880B990B0E945B2420E030E048EC0A
:1013800052E40E94E8266D837E838F839887B6019E
:10139000DD0C880B990B0E945B2420E030E048ECC8
:1013A00052E40E94E82669877A878B879C87FAE156
:1013B000EF0EF11CF80181919191A191B1918F01F2
:1013C000F40181939193A193B1934F01EE15FF0521
:1013D00089F78BE99FE00197F1F762960FB6F894D1
:1013E000DEBF0FBECDBFDF91CF911F910F91FF9058
:1013F000EF90DF90CF90BF90AF909F908F907F90B5
:101400006F9008958F929F92AF92BF92CF92DF928A
:10141000EF92FF920F931F93CF93DF93CDB7DEB779
:1014200062970FB6F894DEBF0FBECDBF8C01DC0112
:101430008D919D917D01FE0131966F012CE0DF01C0
:101440001D922A95E9F7AE01435F5F4F26E0FA014E
:1014500011922A95E9F76AE170E00E94D30E8F8419
:101460009888A988BA886D857E85072E000C880B20
:10147000990B0E945B2420E030E040E85DE30E948D
:10148000BA2469837A838B839C83B401990C880B7B
:10149000990B0E945B2420E030E040E85DE30E946D
:1014A000BA246D837E838F839887B501BB0C880B2C
:1014B000990B0E945B2420E030E040E85DE30E944D
:1014C000BA2469877A878B879C87F601C8010E96B4
:1014D0004191519161917191D7014D935D936D93BC
:1014E0007D937D01A817B90799F7F8018285938547
:1014F000A485B5854681578160857185428F538F5C
:10150000648F758F868F978FA0A3B1A362960FB655
:10151000F894DEBF0FBECDBFDF91CF911F910F9129
:10152000FF90EF90DF90CF90BF90AF909F908F9003
:1015300008950F931F93CF93DF938C01FC01C0811B
:10154000D1811092DF031092DE031092E10310921A
:10155000030410924A0481E08093490410924404E9
:1015600061E082E10E94DC0F61E083E10E94DC0F18
:101570008091B9008E7F8093B9008091B9008D7FF2
:101580008093B90088E48093B80085E48093BC0020
:1015900080E293E0909357038093560381E293E0B7
:1015A00090935903809358038CE08093B800CE0148
:1015B0000E94A20F803AC9F41B861A8640E06DE3B0
:1015C00070E0CE010E941B0F6EE170E080E090E0C1
:1015D0000E947C1040E26FE370E0CE010E941B0F7E
:1015E0006EE170E080E090E013C068EE73E080E0B0
:1015F00090E00E947C10CE010E94A20F803AE1F29E
:1016000082EB92E0DF91CF911F910F910C94190E14
:101610000E947C10CE010E94A20F803A29F06AE05D
:1016200070E080E090E0F4CF62E370E080E090E072
:101630000E947C1040E06EE370E0CE010E941B0F20
:101640006AE070E080E090E00E947C1040E067E09B
:1016500070E0CE010E941B0F40E06FE370E0CE010E
:101660000E941B0F6AE070E080E090E00E947C1016
:101670008CE090E09B878A874CE06DE370E0CE01C0
:101680000E941B0F6EE170E080E090E00E947C10F1
:1016900064E170E080E090E00E947C1064EF71E013
:1016A00080E090E00E947C10C801DF91CF911F91F3
:1016B0000F910C94020AFF920F931F93CF93DF9325
:1016C000EC018B01F42EFC0132968CE0DF01982FA7
:1016D0001D929A95E9F73C96DF011D928A95E9F7EC
:1016E0008CE090E00E942328FC018AE291E0918343
:1016F0008083C801110FAA0BBB0B86839783A08739
:10170000B187F38288EE94E095838483F983E8833C
:10171000DF91CF911F910F91FF9008950F931F9329
:10172000CF93DF93EC018B01842F4E875F8761E0BD
:101730000E94291083E090E00E942328FC0111837D
:1017400000831282998388838CB5837F8CBD8CB58E
:101750008F7D8CBD8CB58C7F81608CBD8DB581609B
:101760008DBD1FB7F8948091DD03811127C0E3EF91
:10177000F1E08491E7E0F2E09491E82FF0E0EE0FE1
:10178000FF1FEB52FE4FA591B491EC91E92321F498
:1017900061E08AE00E94DC0F61E08AE00E9429108B
:1017A0008CB580618CBD8CB580648CBD61E08DE0B2
:1017B0000E94291061E08BE00E9429108091DD03D6
:1017C0008F5F8093DD031FBF0881198161E0F801FD
:1017D00080810E94291061E0F80180810E94DC0F65
:1017E00060E0F80180810E94DC0F4FEF51E064E07F
:1017F000C8010E94A60C61E0F80180810E94DC0F04
:1018000060E08E85DF91CF911F910F910C94DC0FDA
:10181000CF92DF92EF92FF92CF93DF93FC01DB0137
:1018200064857585C081D1811A161B06BCF46B01D5
:10183000770FEE08FF0822853385A901330F660B69
:10184000770B9A01AB012C193D094E095F090E94E3
:10185000A52524E630E040E050E018C01097F1F0F4
:101860006B01770FEE08FF0820853185A901330F42
:10187000660B770B9A01AB012C193D094E095F09E4
:101880000E94A5252CE93FEF4FEF5FEF0E947B25DB
:10189000CA01B9016C0D7D1D8E1D9F1DCE01DF910A
:1018A000CF91FF90EF90DF90CF900C94CF05CF9227
:1018B000DF92EF92FF92CF93DF93FC01DB01668111
:1018C0007781C081D1811A161B06BCF46B01770F9A
:1018D000EE08FF0824813581A901330F660B770BD1
:1018E0009A01AB012C193D094E095F090E94A525FB
:1018F00024E630E040E050E018C01097F1F06B01B2
:10190000770FEE08FF0822813381A901330F660BA0
:10191000770B9A01AB012C193D094E095F090E9412
:10192000A5252CE93FEF4FEF5FEF0E947B25CA0111
:10193000B9016C0D7D1D8E1D9F1DCE01DF91CF91D4
:10194000FF90EF90DF90CF900C94C705CF92DF927D
:10195000EF92FF921F93CF93DF93EC01162F6A0152
:101960008A81811102C060E001C061E088810E942B
:10197000DC0FA601517080E1189FB0011124652B86
:101980006EBD00000DB407FEFDCF1EB54EBD0000BC
:101990000DB407FEFDCFDEB48A81811102C061E083
:1019A00001C060E088810E94DC0F1170F12EE12CF3
:1019B000C7018D29DF91CF911F91FF90EF90DF90AC
:1019C000CF9008950F931F93CF93DF93CDB7DEB7DA
:1019D00062970FB6F894DEBF0FBECDBF8C01CB016E
:1019E000F8011182108213821282158214824AE059
:1019F000BE016F5F7F4F0E943820BE016F5F7F4F37
:101A0000C8010E943E0562960FB6F894DEBF0FBE75
:101A1000CDBFDF91CF911F910F9108950F931F9329
:101A2000CF93DF93CDB7DEB7A2970FB6F894DEBFA2
:101A30000FBECDBF8C01CB01BA01F801118210821B
:101A400013821282158214822AE0AE014F5F5F4F2B
:101A50000E944320BE016F5F7F4FC8010E943E0578
:101A6000A2960FB6F894DEBF0FBECDBFDF91CF9127
:101A70001F910F910895EF92FF920F931F93CF93B1
:101A8000DF93CDB7DEB7A1970FB6F894DEBF0FBED8
:101A9000CDBF7C01CB01BA01F70111821082138204
:101AA0001282158214828E010F5F1F4F22E044E0E4
:101AB0000E94ED1FBC01C7010E943E05A1960FB612
:101AC000F894DEBF0FBECDBFDF91CF911F910F9174
:101AD000FF90EF900895CF93DF93FC01248135812F
:101AE000232B71F0FB01DC01CD91DC9160817181D0
:101AF000CE010E942E2A009719F08C1B9D0B02C06C
:101B00008FEF9FEFDF91CF910895CF93DF93FC018B
:101B10004481558141155105D9F061157105C1F018
:101B20009A016417750708F49B01EC01888199817B
:101B3000421B530B5D834C83BC01620F731F0E94D9
:101B40001F2AE881F9818C819D81E80FF91F10829D
:101B5000DF91CF9108950F931F93CF93DF93EC0103
:101B60000E94B610688779878A879B87E881F98108
:101B70000284F385E02DCE01099597FF17C00E94DE
:101B8000B610088519852A853B85DC01CB01801BB1
:101B9000910BA20BB30B0C811D812E813F8180170D
:101BA0009107A207B30710F38FEF9FEFDF91CF915B
:101BB0001F910F910895009769F0FC01019000209A
:101BC000E9F73197AF01481B590BBC018BE494E056
:101BD0000C943E0180E090E0089581EF92E00C9437
:101BE000DB0DFC0144815581608171818BE494E0BF
:101BF0000C943E01CF93DF930E94F10DEC010E9403
:101C0000ED0D8C0F9D1FDF91CF910895CF93DF9342
:101C1000EC01FB0144815581608171810E94C40403
:101C2000811103C0CE010E94F204CE01DF91CF9159
:101C300008950C94DB0DFB01DC0111961C921E92A1
:101C400013961C921E92129715961C921E92149730
:101C50008617970749F0608171816115710521F040
:101C6000448155810C941D05089590914A04911169
:101C7000FCCF91E090934A04909349042FEF209376
:101C8000480410924704260F20934604909345047D
:101C900090914504880F892B8093450480914404DA
:101CA000813061F410924404809145048093BB001C
:101CB0008091BC0083FDF8CF85EC01C085EE809358
:101CC000BC0080914A048130E1F38091470486177B
:101CD00010F460914704A4E2B4E0E4E0F4E080E0B2
:101CE000861721F09D9191938F5FFACF0895282F49
:101CF00030910304313208F04AC080914A048111C6
:101D0000FCCF9091020442E040934A04209349049E
:101D10002FEF209348041092470430934604E2EEDC
:101D2000F3E0A4E2B4E020E0321721F041914D93BA
:101D30002F5FFACF1092450420914504990F922B02
:101D40009093450490914404913061F410924404BE
:101D5000909145049093BB009091BC0093FDF8CF07
:101D600095EC01C095EE9093BC0090914A0492309E
:101D7000E1F3909148049F3F79F0809148048032CC
:101D800041F080914804803331F084E005C081E067
:101D900003C082E001C083E01092E10310920304CB
:101DA0001092E0030895EF92FF920F931F93CF9349
:101DB000DF938C017A01DC0113968C91139791E0EB
:101DC0009093E003809302041092E10310920304C5
:101DD00014968D919C911597DC01ED91FC910190E9
:101DE000F081E02D099581E00E94770E66E0F80110
:101DF00083810E94350E1092DF038093DE03E7019A
:101E0000F6E0EF0EF11CD80114968D919C91159778
:101E1000DC01ED91FC910284F385E02D0995899315
:101E2000EC16FD0681F781E0DF91CF911F910F91B4
:101E3000FF90EF9008951F93CF93DF93EC01142F41
:101E40008B8191E09093E003809302041092E10370
:101E5000109203048C819D81DC01ED91FC91019035
:101E6000F081E02D09958C819D81DC01ED91FC9143
:101E70000190F081E02D612F099581E00E94770E9D
:101E800081E0DF91CF911F910895CF92DF92EF9281
:101E9000FF920F931F93CF93DF937C018B016A0115
:101EA00061E772E00E945A05D80114968D919C91C9
:101EB00015970097C1F0E6018C159D0508F4EC011B
:101EC000D801ED91FC911197EC0FFD1FD08010828D
:101ED0006D917C91C7010E943E05F801808191813E
:101EE000C80FD91FD882C701DF91CF911F910F91E1
:101EF000FF90EF90DF90CF9008953FB7F8948091D6
:101F0000F9049091FA04A091FB04B091FC0426B569
:101F1000A89B05C02F3F19F00196A11DB11D3FBF21
:101F2000BA2FA92F982F8827820F911DA11DB11DAF
:101F3000BC01CD0142E0660F771F881F991F4A95AB
:101F4000D1F70895CF93DF93EC018B8191E09093CB
:101F5000E003809302041092E103109203048C8149
:101F60009D81DC01ED91FC910190F081E02D60E01C
:101F7000099581E00E94770E61E08B810E94350E09
:101F80001092DF038093DE038C819D81DC01ED9153
:101F9000FC910284F385E02D0995DF91CF9108959E
:101FA000CF93DF930E94DB0DEC010E94ED0D8C0FAF
:101FB0009D1FDF91CF91089590E0FC01EF5EFD4FF2
:101FC0002491FC01E350FE4F3491FC01E751FE4F98
:101FD000E491EE2309F43CC0222339F1233091F03F
:101FE00038F42130A9F0223001F584B58F7D12C07C
:101FF000273091F02830A1F02430B9F4809180008E
:102000008F7D03C0809180008F77809380000DC00A
:1020100084B58F7784BD09C08091B0008F7703C0ED
:102020008091B0008F7D8093B000F0E0EE0FFF1F35
:10203000E152FE4FA591B4919FB7F894611104C08D
:102040008C913095382302C0EC913E2B3C939FBF7E
:102050000895CF93DF9390E0FC01E350FE4F24916D
:10206000FC01E751FE4F8491882361F190E0880FD5
:10207000991FFC01EB52FE4FC591D491FC01E15236
:10208000FE4FA591B491611109C09FB7F894888162
:10209000209582238883EC912E230BC0623061F45B
:1020A0009FB7F8948881322F309583238883EC91F1
:1020B0002E2B2C939FBF06C08FB7F894E8812E2B50
:1020C00028838FBFDF91CF9108958E3008F08E5016
:1020D0008770806480937C0080917A008064809314
:1020E0007A0080917A0086FDFCCF80917800209163
:1020F000790090E0922B08958F929F92AF92BF92B9
:10210000CF92DF92EF92FF926B017C010E947D0FD4
:102110004B015C01C114D104E104F104F1F00E940F
:102120007D0FDC01CB0188199909AA09BB09883EFA
:102130009340A105B10570F321E0C21AD108E1086E
:10214000F10888EE880E83E0981EA11CB11CC11412
:10215000D104E104F10419F7DDCFFF90EF90DF9097
:10216000CF90BF90AF909F908F9008952FB7F89425
:102170006091F5047091F6048091F7049091F80451
:102180002FBF08951F920F920FB60F9211242F9315
:102190003F938F939F93AF93BF938091F50490915A
:1021A000F604A091F704B091F8043091F40423E010
:1021B000230F2D3720F40196A11DB11D05C026E87F
:1021C000230F0296A11DB11D2093F4048093F50402
:1021D0009093F604A093F704B093F8048091F90467
:1021E0009091FA04A091FB04B091FC040196A11D0A
:1021F000B11D8093F9049093FA04A093FB04B0936B
:10220000FC04BF91AF919F918F913F912F910F90BF
:102210000FBE0F901F901895CF93DF93CDB7DEB709
:10222000C154D1090FB6F894DEBF0FBECDBF78946C
:1022300084B5826084BD84B5816084BD85B58260CB
:1022400085BD85B5816085BD80916E00816080937C
:102250006E001092810080918100826080938100E5
:1022600080918100816080938100809180008160F5
:10227000809380008091B10084608093B100809150
:10228000B00081608093B00080917A008460809378
:102290007A0080917A00826080937A0080917A003F
:1022A000816080937A0080917A00806880937A00C0
:1022B0001092C100E0915B04F0915C0482E08083A5
:1022C000E0915704F09158041082E0915904F09184
:1022D0005A04108210926304E0915F04F09160044C
:1022E00086E08083E0915D04F0915E0480818061EE
:1022F0008083E0915D04F0915E048081886080833A
:10230000E0915D04F0915E04808180688083E091BB
:102310005D04F0915E0480818F7D80838EE090E08B
:102320000E9423287C018FE190E00E9423288C01E9
:10233000DC0113961C921E92129788EE93E0A0E0A7
:10234000B0E0F80184839583A683B7838AE091E0A7
:1023500091838083178A168A118E108E138E128EA7
:10236000158E148E668D6E7F6D7F668F669561709B
:1023700081E0682782E00E94DC0F61E082E00E9439
:102380002910EFEFF1E0E491D8015096EC93EBEED9
:10239000F1E0E491F0E0EE0FFF1FE152FE4F859176
:1023A0009491F801928B818B60E083E00E94291068
:1023B000D8015E968C9181FD04C061E083E00E94AB
:1023C000DC0F83E0F8018487E0E0F2E0E491D801DB
:1023D0001D96EC93ECEEF1E0E491F0E0EE0FFF1FC0
:1023E000E553FE4F85919491F80197878687D70131
:1023F0000D931C938DE991E0958F848F2DEB30E048
:10240000378B268B2BE931E0318F208F2CE231E0A6
:10241000338F228F209168002460209368002DE67E
:1024200030E0348B238B28E0258B0197F1F7E09186
:10243000F602F091F7020E171F07F1F0309739F00E
:10244000A389B4899C918589809589238C93F8010F
:10245000868D8E7F868F1092F5021092F402109373
:10246000F7020093F6020388F489E02D9081D801E9
:1024700055968C91892B8083F0924D03E0924C030A
:1024800082E290E00E9423288C0149E250E061E062
:1024900070E00E945B0B10934B0300934A0382E2AF
:1024A00090E00E9423284C0148E250E062E070E096
:1024B0000E945B0B909249038092480383E090E076
:1024C0000E9423285C01FC011282118281E1808339
:1024D000B0924703A092460383E090E00E94232835
:1024E0006C01DC0112961C921E9211978FE08C9366
:1024F000D0924503C092440383E090E00E942328D9
:102500007C01FC011282118280E18083F0924303FE
:10251000E092420383E090E00E9423288C01DC01DA
:1025200012961C921E9211978EE08C931093410389
:102530000093400382E090E00E94232820914C0306
:1025400030914D03FC013183208390933D038093B0
:102550003C0385E190E00E942328FC0160904A033F
:1025600070904B031682108617821286118614868D
:102570001386158616861786108A118A128A138A80
:10258000148A71826082B382A282D582C4829093BF
:102590003B0380933A0385E190E00E942328FC01ED
:1025A0001682108617821286118614861386158667
:1025B00016861786108A118A128A138A148A9182C3
:1025C0008082F382E282158304839093390380939F
:1025D000380368EE73E080E090E00E947C1044E0F5
:1025E00050E066E070E08AE193E00E948E0B47E0E5
:1025F00050E065E070E08AE093E00E948E0B43E0DB
:1026000050E050931D0340931C032CEF30E03093B7
:102610001F0320931E0380E890E090932103809392
:1026200020035093230340932203309325032093E8
:102630002403909327038093260384E290E09093F1
:102640000D0380930C0323EF30E030930F032093AE
:102650000E038FE790E090931103809310034AE0FC
:1026600050E05093130340931203309315032093CB
:1026700014039093170380931603C3010E94990AD1
:1026800080914803909149030E94990A89E891E05A
:102690000E94D00F0E94B6106B017C010E94B61000
:1026A000DC01CB018C199D09AE09BF09883B9B4019
:1026B000A105B105B8F480914803909149030E94A7
:1026C000020A80914A0390914B030E94020A85E915
:1026D00091E00E94190E62E370E080E090E00E94B9
:1026E0007C10DCCF87E991E00E94D00F8EE991E069
:1026F0000E94D00F8E010F5F1F4F48018CE9282EDA
:1027000033243A949AE0492E512C612C712C0E946A
:10271000B6107B018C0120E030E0A9016AAFFBAE6E
:102720000CAF1DAF2EAF3FAF21964FAF2197229632
:102730005FAF2297A0904E03B0904F03C09050031C
:10274000D0905103E0905203F09053030091540352
:10275000109155032AAD3BAD4CAD5DAD60E070E02E
:1027600080E090E00E94292609F014F40C94A71F41
:102770000E94B610DC01CB018196A11DB11D8C0118
:102780009D0180934E0310934F0320935003309389
:10279000510310925203109253031092540310925B
:1027A000550300914C0310914D03D8018D919C91DC
:1027B000DC01ED91FC910084F185E02D0995892BD8
:1027C00009F408C1F801E080F18061E772E0CE0110
:1027D00088960E945A05C7010E94AB0D97FD0DC057
:1027E0008A30910551F089831A8241E050E0B401AA
:1027F000CE0188960E94C404EECF8CA59DA50497B7
:1028000008F4E4C06FEA71E0CE0182960E945A0596
:10281000BE016E5D7F4FCE0188960E946B0DAC01AC
:10282000BE01685D7F4FC4010E94450F89819A8176
:10283000009719F00E94112003C060E070E0CB0106
:10284000D80115967C936E931497C4010E94550588
:10285000CE0182960E9455056FEA71E0C4010E9484
:102860005A05B401CE0188960E946B0DBC016F5FC2
:102870007F4FCE0188960E94850DC4010E945505A8
:102880006FEA71E0CE0182960E945A05BE016E5D2C
:102890007F4FCE0188960E946B0DAC01BE01685D32
:1028A0007F4FC4010E94450F89819A81009719F0DA
:1028B0000E94112003C060E070E0CB01F801738337
:1028C0006283C4010E945505CE0182960E9455057F
:1028D0006FEA71E0C4010E945A05B401CE018896E6
:1028E0000E946B0DBC016F5F7F4FCE0188960E94E6
:1028F000850DC4010E9455056FEA71E0CE018296F4
:102900000E945A05BE016E5D7F4FCE0188960E94DF
:102910006B0DAC01BE01685D7F4FC4010E94450F85
:1029200089819A81009719F00E940D2003C060E010
:1029300070E0CB01D80116966D937D938D939C9397
:102940001997C4010E945505CE0182960E94550533
:102950006FEA71E0C4010E945A05B401CE01889665
:102960000E946B0DBC016F5F7F4FCE0188960E9465
:10297000850DC4010E9455056FEA71E0CE01829673
:102980000E945A05BE016E5D7F4FCE0188960E945F
:102990006B0DAC01BE01685D7F4FC4010E94450F05
:1029A00089819A81009719F00E940D2003C060E090
:1029B00070E0CB01F8016287738784879587C40133
:1029C0000E945505CE0182960E945505CE0188963B
:1029D0000E94550580914A0390914B030E94100973
:1029E00080914803909149030E9410090091460389
:1029F00010914703D8018C910E946510F8019283D1
:102A000081830091440310914503D8018C910E9469
:102A10006510F80192838183009142031091430372
:102A2000D8018C910E946510F801928381830091F6
:102A3000400310914103D8018C910E946510F80168
:102A40009283818380913E0390913F038230910570
:102A500009F416C18330910509F428C2019709F0E1
:102A6000ADC281EB91E00E94190E60914A03709112
:102A70004B03625F7F4FC4010E947F0749815A81E7
:102A80006B817C81CE0182960E943B0D68EB71E0E8
:102A9000CE0188960E945A05BE016E5D7F4FCE0121
:102AA00088960E94060E0E94F10DCE0188960E9423
:102AB0005505CE0182960E94550560914A0370919A
:102AC0004B03625F7F4FC4010E947F074D815E818F
:102AD0006F817885CE0182960E943B0D6DEB71E08F
:102AE000CE0188960E945A05BE016E5D7F4FCE01D1
:102AF00088960E94060E0E94F10DCE0188960E94D3
:102B00005505CE0182960E94550560914A03709149
:102B10004B03625F7F4FC4010E947F0749855A853E
:102B20006B857C85CE0182960E943B0D62EC71E044
:102B3000CE0188960E945A05BE016E5D7F4FCE0180
:102B400088960E94060E0E94F10DCE0188960E9482
:102B50005505CE0182960E945505E0914A03F091F9
:102B60004B034281538164817581C4010E943B0DF6
:102B700067EC71E0CE0182960E945A05B401CE0145
:102B800082960E94060E0E94F10DCE0182960E944E
:102B90005505C4010E945505E0914A03F0914B038D
:102BA000268D378D40A151A16285738584859585D9
:102BB0000E944C26AB01BC01C4010E943B0D6BEC92
:102BC00071E0CE0182960E945A05B401CE01829630
:102BD0000E94060E0E94F10DCE0182960E945505BC
:102BE000C4010E945505E0914A03F0914B03228DE8
:102BF000338D448D558D66817781808591850E94C6
:102C00004C26AB01BC01C4010E943B0D6FEC71E08E
:102C1000CE0182960E945A05B401CE0182960E948E
:102C2000060E0E94F10DCE0182960E945505C40148
:102C30000E94550583ED91E00E94190EE091460334
:102C4000F091470361817281C4010E94E20C6CED36
:102C500071E0CE0182960E945A05B401CE0182969F
:102C60000E94060E0E94F10DCE0182960E9455052B
:102C7000C4010E945505E0914403F09145030EC143
:102C800084EE91E00E94190E60914803709149030F
:102C9000625F7F4FC4010E947F0749815A816B8127
:102CA0007C81CE0182960E943B0D68EB71E0CE01E3
:102CB00088960E945A05BE016E5D7F4FCE018896B0
:102CC0000E94060E0E94F10DCE0188960E945505C5
:102CD000CE0182960E945505609148037091490388
:102CE000625F7F4FC4010E947F074D815E816F81CB
:102CF0007885CE0182960E943B0D6DEB71E0CE018E
:102D000088960E945A05BE016E5D7F4FCE0188965F
:102D10000E94060E0E94F10DCE0188960E94550574
:102D2000CE0182960E945505609148037091490337
:102D3000625F7F4FC4010E947F0749855A856B857A
:102D40007C85CE0182960E943B0D62EC71E0CE0143
:102D500088960E945A05BE016E5D7F4FCE0188960F
:102D60000E94060E0E94F10DCE0188960E94550524
:102D7000CE0182960E945505E0914803F0914903E7
:102D80004281538164817581C4010E943B0D67ECCF
:102D900071E0CE0182960E945A05B401CE0182965E
:102DA0000E94060E0E94F10DCE0182960E945505EA
:102DB000C4010E945505E0914803F0914903268D16
:102DC000378D40A151A162857385848595850E94C8
:102DD0004C26AB01BC01C4010E943B0D6BEC71E0C1
:102DE000CE0182960E945A05B401CE0182960E94BD
:102DF000060E0E94F10DCE0182960E945505C40177
:102E00000E945505E0914803F0914903228D338DCE
:102E1000448D558D66817781808591850E944C26F1
:102E2000AB01BC01C4010E943B0D6FEC71E0CE010F
:102E300082960E945A05B401CE0182960E94060E27
:102E40000E94F10DCE0182960E945505C4010E9498
:102E5000550583ED91E00E94190EE0914203F09137
:102E6000430361817281C4010E94E20C6CED71E048
:102E7000CE0182960E945A05B401CE0182960E942C
:102E8000060E0E94F10DCE0182960E945505C401E6
:102E90000E945505E0914003F091410361817281E8
:102EA000C4010E94E20C60EE71E076C08BEE91E00E
:102EB0000E94190EE0914C03F0914D0364817581DD
:102EC0006C34FFEF7F0714F468597E4FC4010E94F1
:102ED000E20C6FEC71E0CE0182960E945A05B401BB
:102EE000CE0182960E94060E0E94F10DCE018296BE
:102EF0000E945505C4010E945505E0914C03F091D4
:102F00004D03628173816C340FEF700714F46859BC
:102F10007E4FC4010E94E20C6BEC71E0CE01829600
:102F20000E945A05B401CE0182960E94060E0E94AC
:102F3000F10DCE0182960E945505C4010E945505EF
:102F4000E0914C03F0914D03468157816085718576
:102F5000C4010E943B0D62EF71E0CE0182960E9497
:102F60005A05B401CE0182960E94060E0E94F10D10
:102F7000CE0182960E945505C4010E945505E0913C
:102F80004C03F0914D034285538564857585C401DA
:102F90000E943B0D67EF71E0CE0182960E945A05B8
:102FA000B401CE0182960E94060E0E94FA0DCE0157
:102FB00082960E945505C4010E9455058BE494E059
:102FC0000E949901181619068CF58BE494E00E9472
:102FD0007701823719F481E090E024C08C3619F42F
:102FE00082E090E01FC0833619F483E090E01AC0BD
:102FF0008D3619F484E090E015C08E3219F485E026
:1030000090E010C08C3219F486E090E00BC08E3650
:1030100029F410923F0310923E0308C0843731F424
:1030200087E090E090933F0380933E0380913E03BE
:1030300090913F03049709F02DC160E772E0C4014D
:103040000E945A05E0913C03F0913D030190F0810C
:10305000E02DC680D780E084F18420E030E0A90133
:10306000C701B6010E94B72718168CF420E030E0A3
:1030700040EA50E4C701B6010E94B72718163CF495
:10308000B701A601CE0182960E943B0D06C060E703
:1030900072E0CE0182960E945A0560E772E0CE018E
:1030A00088960E945A05E0913C03F0913D030190FF
:1030B000F081E02DC680D780E084F18420E030E00C
:1030C000A901C701B6010E94B72718166CF420E0C9
:1030D00030E040EA50E4C701B6010E94B727181655
:1030E0001CF466E771E002C060E871E0CE018E96E4
:1030F0000E945A056DEF71E0CE01C4960E945A05F8
:10310000BE01625D7F4FCE01C4960E94060EBE01D5
:10311000685D7F4F0E94060EBE016E5D7F4F0E946C
:10312000060EB4010E94060E0E94F10DCE01C49657
:103130000E945505CE018E960E945505CE018896B7
:103140000E945505CE0182960E945505C4010E9439
:10315000550584E092E00E94190E00913C03109105
:103160003D03C8010E94310820E030E040EA50E40D
:103170000E94B72718162CF080E192E00E94190EE9
:1031800087C0C8010E945A089C012E5231092E3076
:10319000314018F08BE892E006C0823E91050CF4B5
:1031A000DAC685E992E00E94190E80913C03909165
:1031B0003D030E945A088C0160E772E0CE018896B8
:1031C0000E945A05BE01685D7F4FCE0182960E9423
:1031D0001B0E4AE0B401C8010E943820F40101909E
:1031E0000020E9F73197AF0148195909B401CE0120
:1031F00082960E94C404811104C0CE0182960E946E
:10320000F204CE0182960E94F10DCE0182960E94B8
:103210005505CE0188960E94550580913C039091FA
:103220003D030E9431086B017C0160E772E0CE0132
:1032300088960E945A05BE01685D7F4FCE01829636
:103240000E941B0E840122E044E0C701B6010E94E7
:10325000ED1FFC0101900020E9F73197AF01481BF9
:10326000590BBC01CE0182960E94C404811104C096
:10327000CE0182960E94F204CE0182960E94F10D48
:10328000CE0182960E945505CE0188960E94550572
:103290000E94ED0D80913E0390913F03059709F048
:1032A0000DC18BE192E00E94190E00913A0310913A
:1032B0003B03C8010E949A078823E9F1D8011D96B3
:1032C0006D917D918D919C9150970E945B2420E09F
:1032D00030E044E052E40E94E8269B01AC01F80192
:1032E00061897289838994890E94E826AB01BC01B7
:1032F000C4010E943B0D60E772E0CE0188960E94F7
:103300005A05BE01685D7F4FCE0182960E941B0E5A
:10331000B401CE0182960E94060E0E94F10DCE01EC
:1033200082960E945505CE0188960E945505C401DB
:103330000E94550504C08CE292E00E94190E86E3BB
:1033400092E00E94190EE0913A03F0913B038585CB
:103350009685A785B089893E9340A105B105D4F132
:103360000190F081E02D268D378D40A151A162851D
:103370007385848595850E944C260E945A279B015F
:1033800077FF04C022273327261B370BB901C4015E
:103390000E94E20C60E772E0CE0188960E945A0516
:1033A000BE01685D7F4FCE0182960E941B0EB40164
:1033B000CE0182960E94060E0E94F10DCE018296E9
:1033C0000E945505CE0188960E945505C4010E94B1
:1033D000550504C08CE292E00E94190E8EE392E043
:1033E0000E94190EE0913A03F0913B030480F581AD
:1033F000E02D61817281693C71051CF1C4010E945C
:10340000E20C60E772E0CE0188960E945A05BE0188
:10341000685D7F4FCE0182960E941B0EB401CE01E3
:1034200082960E94060E0E94F10DCE0182960E94A5
:103430005505CE0188960E945505C4010E94550588
:1034400004C08CE292E00E94190E88E492E00E948F
:10345000190EE0913A03F0913B030280F381E02DD5
:1034600061817281693C71051CF1C4010E94E20C0A
:1034700060E772E0CE0188960E945A05BE01685D41
:103480007F4FCE0182960E941B0EB401CE01829620
:103490000E94060E0E94F10DCE0182960E945505F3
:1034A000CE0188960E945505C4010E94550504C0AE
:1034B0008CE292E00E94190E0E94ED0D80913E0375
:1034C00090913F03069709F00DC182E592E00E94BA
:1034D000190E0091380310913903C8010E949A0710
:1034E0008823E9F1D8011D966D917D918D919C9174
:1034F00050970E945B2420E030E044E052E40E94B8
:10350000E8269B01AC01F80161897289838994895D
:103510000E94E826AB01BC01C4010E943B0D60E79C
:1035200072E0CE0188960E945A05BE01685D7F4F09
:10353000CE0182960E941B0EB401CE0182960E949B
:10354000060E0E94F10DCE0182960E945505CE0115
:1035500088960E945505C4010E94550504C08CE25E
:1035600092E00E94190E86E392E00E94190EE0910B
:103570003803F091390385859685A785B089893E02
:103580009340A105B105D4F10190F081E02D268D85
:10359000378D40A151A162857385848595850E94F0
:1035A0004C260E945A279B0177FF04C0222733270D
:1035B000261B370BB901C4010E94E20C60E772E0E0
:1035C000CE0188960E945A05BE01685D7F4FCE01EC
:1035D00082960E941B0EB401CE0182960E94060EB6
:1035E0000E94F10DCE0182960E945505CE0188966B
:1035F0000E945505C4010E94550504C08CE292E06A
:103600000E94190E8EE392E00E94190EE091380399
:10361000F09139030480F581E02D61817281693C6C
:1036200071051CF1C4010E94E20C60E772E0CE015A
:1036300088960E945A05BE01685D7F4FCE01829632
:103640000E941B0EB401CE0182960E94060E0E94BB
:10365000F10DCE0182960E945505CE0188960E94FA
:103660005505C4010E94550504C08CE292E00E94F9
:10367000190E88E492E00E94190EE0913803F0914F
:1036800039030280F381E02D61817281693C71050B
:103690001CF1C4010E94E20C60E772E0CE01889642
:1036A0000E945A05BE01685D7F4FCE0182960E943E
:1036B0001B0EB401CE0182960E94060E0E94F10DEF
:1036C000CE0182960E945505CE0188960E9455052E
:1036D000C4010E94550504C08CE292E00E94190EBC
:1036E0000E94ED0D1092370310923603E0903803DC
:1036F000F0903903C7010E949A07082FC0903A033F
:10370000D0903B03C6010E949A07182F011104C0F4
:103710008091090381110EC0112329F01092070333
:1037200001113BC03EC080910803811103C001110B
:10373000F5CF62C081E080930703809105039091EB
:1037400006039093040380930303109206031092E0
:103750000503809108038823A1F0809101039091D3
:1037600002038D3291051CF082E090E005C018162E
:10377000190684F481E090E0909300038093FF02A7
:1037800009C080910903882329F08091FD0290915E
:10379000FE02E7CF112359F2C1CF8091090388239C
:1037A00031F0112369F080910803811109C08091E3
:1037B000FB029091FC0201969093FC028093FB0225
:1037C000D60151966D917D918D919C9154970E9457
:1037D0005A277093020360930103F701618972898C
:1037E000838994890E945A277093FE026093FD0298
:1037F0001092FA021092F9022091FB023091FC0221
:1038000081E0223031050CF480E08093F80212163A
:1038100013065CF580910703882339F18091030337
:1038200090910403909333038093320381E080935B
:1038300036038091F9029091FA028196893EF3E075
:103840009F072CF49093FA028093F9020EC0109215
:10385000FA021092F9021092FC021092FB021092EE
:103860000703109200031092FF02009309031093C4
:1038700008032230310584F18091FF02909100030A
:103880008130910529F0029739F58EE690E01DC050
:10389000E0914C03F0914D03228133812C340FEFE2
:1038A00030076CF420391EEF31076CF428593E4F75
:1038B0004BEF4203C001439F900D112406C0283FE7
:1038C0000FEF3007ACF38EE190E0909333038093D9
:1038D000320381E08093360360E772E0C4010E9406
:1038E0005A05E0913A03F0913B034585568567857B
:1038F0007089CE0182960E940E0DB401CE0182968F
:103900000E94060E0E94F10DCE0182960E9455057E
:10391000C4010E94550560E772E0C4010E945A0587
:10392000E0913A03F0913B0341895289638974899C
:10393000CE0182960E943B0DB401CE0182960E9478
:10394000060E0E94F10DCE0182960E945505C4011B
:103950000E94550560E772E0C4010E945A05E0919B
:103960003803F09139034585568567857089CE0106
:1039700082960E940E0DB401CE0182960E94060E20
:103980000E94F10DCE0182960E945505C4010E944D
:10399000550560E772E0C4010E945A05E0913803C2
:1039A000F09139034189528963897489CE018296E5
:1039B0000E943B0DB401CE0182960E94060E0E9429
:1039C000F10DCE0182960E945505C4010E94550555
:1039D00060E772E0C4010E945A05E0914C03F09147
:1039E0004D03628173816C342FEF720714F46859B0
:1039F0007E4FCE0182960E94E20CB401CE018296E7
:103A00000E94060E0E94F10DCE0182960E9455057D
:103A1000C4010E94550560E772E0C4010E945A0586
:103A20006091F80270E0CE0182960E94E20CB4012F
:103A3000CE0182960E94060E0E94F10DCE01829662
:103A40000E945505C4010E945505C090FF02D09008
:103A500000030D2C000CEE08FF08F7FE20C06DE2FD
:103A60008BE494E00E94D10122273327A9012C196D
:103A70003D094E095F0919A28E010F5D1F4FCA0152
:103A8000B901A30192010E94E425605DD8016E9303
:103A90008D01211531054105510589F715C0A70193
:103AA000960119A28E010F5D1F4FCA01B901A30132
:103AB00092010E94E425605DF80162938F01211557
:103AC00031054105510589F7C8010E94DB0D0E94AF
:103AD000ED0D00913A0310913B03F8018585968521
:103AE000A785B089893E9340A105B10524F0D8018E
:103AF000ED91FC9110C0E0913803F0913903858578
:103B00009685A785B089893E9340A105B105B4F19A
:103B10000190F081E02D268D378D40A151A1628565
:103B20007385848595850E944C260E945A279B01A7
:103B300077FF04C022273327261B370BC901330F19
:103B4000AA0BBB0B9C01AD012A5031094109510957
:103B5000ABE4B0E00E949A252FE030E040E050E076
:103B60000E947B25DA01C9014996A11DB11D9093E0
:103B700033038093320381E080933603D801129699
:103B8000ED91FC91139721813281293C3105ACF0F4
:103B9000C901330FAA0BBB0B9C01AD01285C310995
:103BA00041095109A4E6B0E00E949A252EEE32E0C8
:103BB00040E050E00E947B2523C0E0913803F09163
:103BC00039030280F381E02D21813281293C3105C6
:103BD000F4F0C901330FAA0BBB0B9C01AD01285CAB
:103BE000310941095109A4E6B0E00E949A252EEE60
:103BF00032E040E050E00E947B253195219531096B
:103C0000309335032093340381E080933703D80148
:103C10001496ED91FC91159721813281293C310553
:103C200064F4E0913803F09139030480F581E02DCC
:103C300021813281293C3105F4F0C901330FAA0BEF
:103C4000BB0B9C01AD01285C310941095109A4E677
:103C5000B0E00E949A252AE832E040E050E00E945D
:103C60007B2531952195310930933303209332031D
:103C700081E08093360380913703811104C0109254
:103C800035031092340380913603811104C01092E1
:103C900033031092320310923103109230031092CA
:103CA0002F0310922E03E0903403F0903503C701E8
:103CB000F7FE04C0882799278E199F0900913203C7
:103CC000109133038E36910554F4C80117FF04C0D8
:103CD00088279927801B910B8E3691053CF081E057
:103CE00090E090932D0380932C0304C010922D0339
:103CF00010922C03E0913C03F0913D030190F08180
:103D0000E02DA680B780C084D18420E030E0A901F6
:103D1000C601B5010E94B72718168CF420E030E0E8
:103D200040EA50E4C601B5010E94B72718163CF4DA
:103D300081E090E090932B0380932A0304C01092BB
:103D40002B0310922A03B5E6EB16F10434F084E657
:103D500090E09093350380933403809134039091E5
:103D600035038C399F4F24F430923503209234036D
:103D70000536110534F084E690E090933303809388
:103D8000320380913203909133038C399F4F24F496
:103D900030923303209232036091340370913503E3
:103DA0007195619571098AE193E00E94080C609118
:103DB0003203709133037195619571098AE193E043
:103DC0000E94570C00912C0310912D030130110516
:103DD00011F461E001C060E0809128030E94DC0FD3
:103DE00060E070E08AE093E00E94080C60E070E020
:103DF0008AE093E00E94570C80912A0390912B0354
:103E0000019711F461E001C060E0809118030E9405
:103E1000DC0F80913E0390913F03079709F097C014
:103E2000B801C4010E94E20C609132037091330327
:103E3000CE0182960E94E20C6091340370913503AA
:103E4000CE0188960E94E20C62E672E0CE018E9668
:103E50000E945A05BE01685D7F4FCE018E960E947A
:103E6000060E60E772E00E940405BE016E5D7F4FA2
:103E70000E94060E60E772E00E94040562E772E0AD
:103E80000E940405B4010E94060E60E772E00E94E1
:103E900004050E94F10DCE018E960E945505CE01BB
:103EA00088960E945505CE0182960E945505C40150
:103EB0000E94550560912A0370912B03C4010E9452
:103EC000E20C60912E0370912F03CE0182960E9426
:103ED000E20C6091300370913103CE0188960E940C
:103EE000E20C6AE772E0CE018E960E945A05BE018E
:103EF000685D7F4FCE018E960E94060E60E772E0ED
:103F00000E940405BE016E5D7F4F0E94060E60E7B1
:103F100072E00E94040562E772E00E940405B401A9
:103F20000E94060E60E772E00E9404050E94FA0DEE
:103F3000CE018E960E945505CE0188960E945505A9
:103F4000CE0182960E945505C4010E9455050E942B
:103F500040020C948713883891051CF08BE992E09D
:103F600022C984EA92E01FC9EBE4F4E013821282D2
:103F700088EE93E0A0E0B0E084839583A683B783C6
:103F800028E331E03183208325EC30E03587248736
:103F900024EC30E03787268720EC30E0318B208B13
:103FA00021EC30E0338B228B22EC30E0358B248BFC
:103FB00026EC30E0378B268B118E128E138E148EEA
:103FC000E8EEF4E01382128284839583A683B7839C
:103FD00088E691E0918380830895EF920F931F9379
:103FE000CF93DF93E80147FD02C034E001C034E124
:103FF000042E000C550B57FF03C0519541955109F4
:10400000E32E022F242FAE010E94A320CE01DF91C8
:10401000CF911F910F91EF900895662777270C9409
:10402000FD211F93FC0199278827BC01E894119179
:104030001032E9F3193010F01E30C8F31B3251F082
:104040001D3249F4689406C00E945220610F711D10
:10405000811D911D119110531A30B0F33EF49095CB
:104060008095709561957F4F8F4F9F4F1F91089559
:10407000BB274A3031F4992322F4BDE29095819513
:104080009F4F0C948A20BB272A3051F4992342F485
:10409000BDE290958095709561957F4F8F4F9F4FB2
:1040A0000C946820592F482F372F262F660F771F23
:1040B000881F991F660F771F881F991F620F731F34
:1040C000841F951F660F771F881F991F0895BB27B0
:1040D000FA01A62F6217710581059105330B30FB9C
:1040E00066F0AA27660F771F881F991FAA1FA217BD
:1040F00010F0A21B63953850A9F7A05DAA3308F011
:10410000A95DA19336F7B111B1931082CA010C9445
:104110004424BB27FB015527AA27880F991FAA1FF4
:10412000A41710F0A41B83955051B9F7A05DAA33D2
:1041300008F0A95DA193009779F7B111B19311929D
:10414000CB010C944424A9E0B0E0E9EAF0E20C943D
:10415000B3256A01122FB02E2BE3201720F0FF2485
:10416000F394F00E02C02CE3F22E0F2D27E0AE01E7
:104170004F5F5F4F0E944B23BC014981842F8970A0
:10418000813031F0E1FC06C0E0FE06C090E205C0DF
:104190009DE203C09BE201C090E05E2D507143FFA1
:1041A0003CC0911102C083E001C084E0811718F483
:1041B000212F281B01C020E051110BC0F601822FD6
:1041C00030E2882319F031938150FBCFC20ED11C0D
:1041D00020E0992329F0D6019C93F60131966F01D6
:1041E000C6010396E2FE0AC03EE4D6013C9341E4D8
:1041F00011964C93119712963C9306C03EE6F60139
:10420000308341E641833283FC01322F40E2332385
:1042100009F442C041933150FACF42FF44C091119A
:1042200002C083E001C084E0811718F4212F281B0D
:1042300001C020E051110BC0F601822F30E288232B
:1042400019F031938150FBCFC20ED11C20E099238D
:1042500029F0D6019C93F60131966F01C6010396B1
:10426000E2FE0BC039E4D6013C933EE411963C9348
:10427000119736E412963C9307C039E6F601308375
:104280003EE6318336E63283FC01322F40E23323AF
:1042900019F041933150FBCFFC01E20FF11D108268
:1042A0008EEF9FEFA6C021E030E0911102C020E028
:1042B00030E0161617061CF4FB01319602C0E1E04F
:1042C000F0E02E0F3F1FBB2021F0EB2DF0E03196E8
:1042D00002C0E0E0F0E02E0F3F1FE12FF0E02E17CC
:1042E0003F071CF4121B212F01C020E08E2D887186
:1042F00059F4F601822F30E2882319F0319381506E
:10430000FBCFC20ED11C20E0992329F0D6019C934B
:10431000F60131966F0151110BC0F601822F90E327
:10432000882319F091938150FBCFC20ED11C20E05D
:104330000F2D060F9A81342F307144FF03C0913343
:1043400009F40150101624F4093018F008E001C0F7
:1043500001E0AB0177FF02C040E050E0FB01E41B4D
:10436000F50BA1E0B0E0AC0FBD1FEA0FFB1F8EE222
:10437000A82E4B01801A91080B2D10E01195019584
:1043800011094F3FBFEF5B0721F4D601AC921196A4
:104390006D01641775072CF08416950614F481815D
:1043A00001C080E3415051093196D60111967D013B
:1043B0004017510724F0D6018C936701E2CF6417B0
:1043C000750739F4963320F4953319F4311101C08F
:1043D00081E3F6018083F701822F90E2882319F0B0
:1043E00091938150FBCFF701E20FF11D108280E025
:1043F00090E02996ECE00C94CF25A0E0B0E0E3E05B
:10440000F2E20C94B325EC016B016115710519F012
:10441000FB01918380837E01FFEFEF1AFF0A088181
:10442000802F90E00E942324892B11F0E701F3CF25
:104430000D3239F47E0182E0E80EF11C098111E0B1
:1044400008C00B3229F47E0192E0E90EF11C0981CB
:1044500010E0E701219743E050E06EE970E0CE0103
:104460000E942C24892BC1F4239645E050E069E991
:1044700070E0CE010E942C24892B09F42596C114EA
:10448000D10419F0F601D183C0831111F6C060E0A8
:1044900070E080E89FE7FAC043E050E066E970E032
:1044A000CE010E942C24892B59F4C114D10409F4A3
:1044B000E9C0F2E0EF0EF11CF601F182E082E2C009
:1044C00020E030E0A901C0E0D0E0F70180EDA82EA7
:1044D000A00E89E08A1530F1912F9260B92E812FBC
:1044E000887012FF04C0811124C0219622C081115E
:1044F0002197A5E0B0E00E949A25DC01CB01880F4E
:10450000991FAA1FBB1F9C01AD012A0D311D411D22
:10451000511D283989E93807480789E1580748F0CB
:10452000166006C09EEFA9120AC013FD40C01860B5
:10453000B12E8FEFE81AF80A00811B2DC6CF802F0D
:104540008F7D8534A1F580818D3211F4106106C014
:104550008B3221F0319661E070E004C081813296A7
:1045600062E070E080538A3018F0E61BF70B1FC042
:1045700060E070E060389CE079075CF4DB01AA0F32
:10458000BB1FAA0FBB1F6A0F7B1F660F771F680F29
:10459000711D3196DF0111978C9180538A3050F351
:1045A00014FF03C0719561957109C60FD71F11FFE4
:1045B00008C0C114D10429F0CF010197F6019183FD
:1045C0008083CA01B9010E945924212F237023300E
:1045D00019F04B015C0106C04B015C01B7FAB094C5
:1045E000B7F8B09420E030E0A901C501B4010E9401
:1045F0005424882309F43EC0D7FF06C0D195C19545
:10460000D10905EB10E002C00DEC10E06801F8E103
:10461000CF1AD10890E2E92EF12CCE15DF0574F007
:10462000F8012591359145915491C501B4010E943D
:10463000BA244B015C01CE19DF09EFCF04501109F8
:10464000F594E7940C151D0541F78A2D880F8B2DE5
:10465000881F8F3F49F020E030E0A901C501B40177
:104660000E945424811106C082E290E09093FE04DF
:104670008093FD04C501B40109C060E070E080E8EA
:104680009FEF04C060E070E080EC9FE7CDB7DEB73D
:10469000ECE00C94CF25283008F027E03327DA012E
:1046A000990F311D87FD916000966105710539F400
:1046B00032602E5F3D9330E32A95E1F708959F3FE6
:1046C00030F080387105610509F03C5F3C5F3D9337
:1046D000913008F08068911DDF93CF931F930F9363
:1046E000FF92EF92192F987F9695E92F96959695C0
:1046F000E90FFF27E55DFE4F99273327EE24FF24BE
:10470000A701E70105900894079428F4360FE71EE7
:10471000F81E491F511D660F771F881F991F0694A9
:10472000A1F70590079428F4E70EF81E491F561FBD
:10473000C11D770F881F991F661F0694A1F705906A
:10474000079428F4F80E491F561FC71FD11D880F64
:10475000991F661F771F0694A1F70590079420F410
:10476000490F561FC71FD81F990F661F771F881F35
:104770000694A9F784911095177041F0D695C795C6
:1047800057954795F794E7941A95C1F7E1EDF0E056
:1047900068941590159135916591959105907FE2FA
:1047A0007395E118F10A430B560BC90BD009C0F7FA
:1047B000E10CF11E431F561FC91FD01D7EF470333C
:1047C00011F48A95E6CFE894015030F0080F0AF40E
:1047D0000027021708F4202F2395022F7A3328F0A0
:1047E00079E37D932A95E9F710C07D932A9589F6A0
:1047F000069497956795379517951794E118F10AE0
:10480000430B560BC90BD00998F023957E917395F5
:104810007A3308F070E37C932013B8F77E917061CF
:104820007D9330F0839571E37D9370E32A95E1F7F2
:104830001124EF90FF900F911F91CF91DF91992755
:1048400087FD9095089591110C942725803219F0D9
:1048500089508550C8F70895FB01DC014150504054
:1048600088F08D9181341CF08B350CF4805E65915D
:1048700061341CF06B350CF4605E861B611171F3C2
:10488000990B0895881BFCCFDC01FC01672F719107
:104890007723E1F7329704C07C916D937083629126
:1048A000AE17BF07C8F308950E94962408F481E06C
:1048B0000895E89409C097FB3EF490958095709513
:1048C00061957F4F8F4F9F4F9923A9F0F92F96E95C
:1048D000BB279395F695879577956795B795F111D1
:1048E000F8CFFAF4BB0F11F460FF1BC06F5F7F4F6E
:1048F0008F4F9F4F16C0882311F096E911C0772380
:1049000021F09EE8872F762F05C0662371F096E888
:10491000862F70E060E02AF09A95660F771F881F57
:10492000DAF7880F9695879597F90895990F0008FB
:10493000550FAA0BE0E8FEEF16161706E807F90771
:10494000C0F012161306E407F50798F0621B730B0C
:10495000840B950B39F40A2661F0232B242B252B8D
:1049600021F408950A2609F4A140A6958FEF811D30
:10497000811D08950E94CD240C9441250E94332569
:1049800038F00E943A2520F0952311F00C942A2546
:104990000C94302511240C9475250E94522570F337
:1049A000959FC1F3950F50E0551F629FF001729FD4
:1049B000BB27F00DB11D639FAA27F00DB11DAA1FE3
:1049C000649F6627B00DA11D661F829F2227B00D30
:1049D000A11D621F739FB00DA11D621F839FA00DBB
:1049E000611D221F749F3327A00D611D231F849F0B
:1049F000600D211D822F762F6A2F11249F57504062
:104A00009AF0F1F088234AF0EE0FFF1FBB1F661FDC
:104A1000771F881F91505040A9F79E3F510580F0A5
:104A20000C942A250C9475255F3FE4F3983ED4F34B
:104A3000869577956795B795F795E7959F5FC1F749
:104A4000FE2B880F911D9695879597F908959927C4
:104A50008827089597F99F6780E870E060E00895DF
:104A60009FEF80EC089500240A9416161706180686
:104A70000906089500240A94121613061406050662
:104A80000895092E0394000C11F4882352F0BB0FF3
:104A900040F4BF2B11F460FF04C06F5F7F4F8F4F56
:104AA0009F4F089557FD9058440F551F59F05F3F91
:104AB00071F04795880F97FB991F61F09F3F79F040
:104AC00087950895121613061406551FF2CF4695C2
:104AD000F1DF08C0161617061806991FF1CF869544
:104AE0007105610508940895E894BB276627772728
:104AF000CB0197F90895052E97FB1EF400940E94B0
:104B0000922557FD07D00E94E42507FC03D04EF400
:104B10000C94922550954095309521953F4F4F4FDD
:104B20005F4F089590958095709561957F4F8F4F59
:104B30009F4F08950E940626A59F900DB49F900D4B
:104B4000A49F800D911D11240895B7FF0C949A2500
:104B50000E949A25821B930B08952F923F924F92A9
:104B60005F926F927F928F929F92AF92BF92CF92FD
:104B7000DF92EF92FF920F931F93CF93DF93CDB706
:104B8000DEB7CA1BDB0B0FB6F894DEBF0FBECDBF7E
:104B900009942A88398848885F846E847D848C844F
:104BA0009B84AA84B984C884DF80EE80FD800C8158
:104BB0001B81AA81B981CE0FD11D0FB6F894DEBF3B
:104BC0000FBECDBFED010895A1E21A2EAA1BBB1B9B
:104BD000FD010DC0AA1FBB1FEE1FFF1FA217B307C9
:104BE000E407F50720F0A21BB30BE40BF50B661FDF
:104BF000771F881F991F1A9469F7609570958095A3
:104C000090959B01AC01BD01CF010895A29FB00119
:104C1000B39FC001A39F700D811D1124911DB29FF0
:104C2000700D811D1124911D089597FB072E16F418
:104C3000009407D077FD09D00E94322607FC05D0EA
:104C40003EF4909581959F4F0895709561957F4FA3
:104C500008952A153B054C055D056E057F05800707
:104C600091070895AA1BBB1B51E107C0AA1FBB1FD8
:104C7000A617B70710F0A61BB70B881F991F5A95E8
:104C8000A9F780959095BC01CD010895EE0FFF1F07
:104C90000590F491E02D09945058BB27AA270E9453
:104CA00064260C9441250E94332538F00E943A2551
:104CB00020F039F49F3F19F426F40C9430250EF4BB
:104CC000E095E7FB0C942A25E92F0E94522558F322
:104CD000BA17620773078407950720F079F4A6F5E1
:104CE0000C9474250EF4E0950B2EBA2FA02D0B0119
:104CF000B90190010C01CA01A0011124FF27591B21
:104D000099F0593F50F4503E68F11A16F040A22F26
:104D1000232F342F4427585FF3CF46953795279597
:104D2000A795F0405395C9F77EF41F16BA0B620B96
:104D3000730B840BBAF09150A1F0FF0FBB1F661FDD
:104D4000771F881FC2F70EC0BA0F621F731F841F20
:104D500048F4879577956795B795F7959E3F08F046
:104D6000B0CF9395880F08F09927EE0F9795879508
:104D70000895DF93DD27B92FBF7740E85FE316166C
:104D8000170648075B0718F4D92F0E94BC279F938A
:104D90008F937F936F930E940A28E8E6F0E00E94C9
:104DA00090270E9441252F913F914F915F910E9442
:104DB000CD24DD2351F09058A2EA2AED3FE049ECE2
:104DC0005FE3D0785D270E946426DF910C94412533
:104DD0000E94FC260C9441250E943A2558F00E941E
:104DE000332540F029F45F3F29F00C942A25511116
:104DF0000C9475250C9430250E94522568F3992354
:104E0000B1F3552391F3951B550BBB27AA276217C6
:104E10007307840738F09F5F5F4F220F331F441FD3
:104E2000AA1FA9F335D00E2E3AF0E0E832D0915007
:104E30005040E695001CCAF72BD0FE2F29D0660FF4
:104E4000771F881FBB1F261737074807AB07B0E837
:104E500009F0BB0B802DBF01FF2793585F4F3AF03D
:104E60009E3F510578F00C942A250C9475255F3FE0
:104E7000E4F3983ED4F3869577956795B795F795C3
:104E80009F5FC9F7880F911D9695879597F90895AB
:104E9000E1E0660F771F881FBB1F62177307840747
:104EA000BA0720F0621B730B840BBA0BEE1F88F756
:104EB000E09508950E9461276894B1110C947525BE
:104EC00008950E945A2588F09F5798F0B92F992786
:104ED000B751B0F0E1F0660F771F881F991F1AF0E5
:104EE000BA95C9F714C0B13091F00E947425B1E0B1
:104EF00008950C947425672F782F8827B85F39F0B0
:104F0000B93FCCF3869577956795B395D9F73EF47D
:104F100090958095709561957F4F8F4F9F4F089525
:104F2000DF93CF931F930F93FF92EF92DF927B015A
:104F30008C01689406C0DA2EEF010E94CD24FE0198
:104F4000E894A5912591359145915591A6F3EF01EE
:104F50000E946426FE019701A801DA9469F7DF90A8
:104F6000EF90FF900F911F91CF91DF9108950E94D4
:104F7000962408F48FEF08959B01AC0160E070E087
:104F800080E89FE30C94E82619F416F40C9430257D
:104F90000C940E280E945A25B8F39923C9F3B6F34E
:104FA0009F57550B87FF0E941C280024A0E640EA6B
:104FB000900180585695979528F4805C660F771F6E
:104FC000881F20F026173707480730F4621B730B41
:104FD000840B202931294A2BA69517940794202564
:104FE00031254A2758F7660F771F881F20F02617AC
:104FF0003707480730F4620B730B840B200D311D0B
:10500000411DA09581F7B901842F9158880F96957D
:10501000879508959B01AC010C94BA249F3F31F011
:10502000915020F4879577956795B795880F911DD6
:105030009695879597F9089591505040660F771F80
:10504000881FD2F708950F931F93CF93DF93823079
:10505000910510F482E090E0E0910105F0910205E5
:1050600020E030E0A0E0B0E0309719F140815181BC
:105070000281138148175907C8F08417950769F40E
:10508000109731F012960C93129713961C9327C029
:10509000009301051093020522C02115310519F076
:1050A0004217530718F49A01BD01EF01DF01F8011F
:1050B000DBCF21153105F9F0281B390B24303105E0
:1050C00080F48A819B816115710521F0FB01938336
:1050D000828304C09093020580930105FE013296FD
:1050E00044C0FE01E20FF31F8193919322503109D6
:1050F000398328833AC02091FF0430910005232B87
:1051000041F4209102013091030130930005209376
:10511000FF0420910001309101012115310541F476
:105120002DB73EB74091040150910501241B350B6A
:10513000E091FF04F0910005E217F307A0F42E1BA5
:105140003F0B2817390778F0AC014E5F5F4F2417EB
:10515000350748F04E0F5F1F509300054093FF0442
:105160008193919302C0E0E0F0E0CF01DF91CF9115
:105170001F910F910895CF93DF93009709F481C099
:10518000FC01329713821282A0910105B0910205B1
:10519000109781F420813181820F931F2091FF04A9
:1051A000309100052817390751F5F0930005E09379
:1051B000FF0467C0ED0120E030E0CE17DF0740F4C8
:1051C0004A815B819E0141155105F1F0EA01F5CF5D
:1051D000D383C28340815181840F951FC817D9079B
:1051E00059F488819981840F951F02969183808359
:1051F0008A819B81938382832115310529F4F09361
:105200000205E09301053DC0E901FB83EA83499172
:105210005991C40FD51FEC17FD0761F4808191816E
:10522000840F951F0296E901998388838281938177
:105230009B838A83E0E0F0E012968D919C91139716
:10524000009719F0FD01DC01F7CF8D919C9111972A
:105250009D012E5F3F4F820F931F2091FF043091DD
:1052600000052817390769F4309729F410920205D0
:105270001092010502C013821282B0930005A09320
:10528000FF04DF91CF910895A0E0B0E0EAE4F9E2F5
:105290000C94B125EC01009721F4CB010E94232846
:1052A000B4C0FC01E60FF71F9C0122503109E21740
:1052B000F30708F4A8C0D9010D911C9111970617A6
:1052C0001707B0F00530110508F49BC0C80104971A
:1052D0008617970708F495C002501109061B170B93
:1052E000019311936D937C93CF010E94BB2889C0D9
:1052F0005B01A01AB10A4C01800E911EA09101051C
:10530000B0910205612C712CE12CF12C109709F45D
:1053100046C08D919C911197A815B905B1F56C0106
:1053200042E0C40ED11CCA14DB0478F14C018A1887
:105330009B08640142E0C40ED11C1296BC901297E7
:105340001396AC91B5E0CB16D10440F0B282A383A2
:1053500091828082D9016D937C9309C00E5F1F4FAB
:10536000800F911FF90191838083EB2DFA2FE114B7
:10537000F10431F0D7011396FC93EE93129741C0DC
:10538000F0930205E09301053CC06816790608F425
:105390003C017D0112960D90BC91A02DB7CF80915C
:1053A000FF049091000588169906E1F466167706C9
:1053B000C8F48091000190910101009741F48DB7EC
:1053C0009EB74091040150910501841B950BE8178D
:1053D000F907C8F4F0930005E093FF04F901718325
:1053E00060830FC0CB010E9423287C01009759F0F5
:1053F000A801BE010E940F2ACE010E94BB28C7014E
:1054000004C0CE0102C080E090E0CDB7DEB7EEE090
:105410000C94CD2581E090E0F8940C94482AFB018F
:10542000DC0102C001900D9241505040D8F7089520
:10543000FB01DC0101900D920020E1F70895FB01D2
:10544000DC014150504048F001900D920020C9F716
:1054500001C01D9241505040E0F70895FB01519169
:105460005523A9F0BF01DC014D9145174111E1F72A
:1054700059F4CD010190002049F04D9140154111A2
:10548000C9F3FB014111EFCF81E090E0019708954E
:04549000F894FFCFBE
:105494000000030520000000000063023E01AA038F
:1054A4006202B302CB024A020000000000000000C6
:1054B400ED02AD03AD0300000000EC02D603ED02E3
:1054C400D8037F0400000000D1013E0168011E02E0
:1054D400990177018B0100000000AD033E01AA038E
:1054E400A903AD03AD03AD0300000000AD033E010D
:1054F400AA03A903000000007A034D03AA03620271
:1055040045033103220309446574656374656400CB
:10551400094E6F7468696E670043616C69627261F9
:1055240074696E67002E000A446F6E652100507224
:105534006F6772616D207374617274656421002CED
:10554400007273686F653A0009617809000961792E
:10555400090009617A090009790900097209000939
:10556400700900097765696768743A00097309006E
:10557400096209006C73686F653A00636865737447
:105584003A0009615A090009616C740900094A75F5
:105594006D703A0043686573740942656E643A003D
:1055A40009537472616967687409005269676874A1
:1055B40020666F6F740957616C6B3A00094E6F7403
:1055C40068696E6709000943727569736500095358
:1055D4007465706261636B00095374657073696408
:1055E40065004C65667420666F6F740957616C6B57
:1055F4003A004C656674206A6F79737469636B3A18
:105604000900627574746F6E0900526967687420CA
:105614006A6F79737469636B3A0900096261636B39
:105624007761726400096C6566740009666F72774D
:105634006172640009726967687400424E4F3035C4
:1056440035004F6F6F70732C206E6F20424E4F30B9
:1056540035352031206465746563746564202E2EAD
:105664002E20436865636B20796F757220776972A9
:10567400696E67206F7220493243204144445221AD
:04568400000D0A000B
:00000001FF
