:100000000C94FD000C9425010C9425010C945D05C5
:100010000C945D050C945D050C9425010C94250150
:100020000C9425010C9425010C9425010C942501B8
:100030000C9425010C9425010C9425010C942501A8
:100040000C947C0D0C9425010C9423050C94FD0458
:100050000C9425010C9425010C9425010C94250188
:100060000C94D7050C9425014E414E494E495459E4
:10007000494E46CDCCCC3D0AD7233C17B7D1387773
:10008000CC2B329595E6241FB14F0A000020410089
:1000900000C84200401C4620BCBE4CCA1B0E5AAED3
:1000A000C59D7400407A10F35A00A0724E180900E2
:1000B00010A5D4E80000E87648170000E40B5402CD
:1000C0000000CA9A3B000000E1F505000080969808
:1000D00000000040420F000000A086010000001058
:1000E0002700000000E8030000000064000000009A
:1000F000000A00000000000100000000002C76D87B
:1001000088DC674F0823DFC1DFAE59E1B1B796E560
:10011000E3E453C63AE651997696E8E6C28426EBC4
:10012000898C9B62ED407C6FFCEFBC9C9F40F2BAD7
:10013000A56FA5F490055A2AF75C936B6CF9676D6F
:10014000C11BFCE0E40D47FEF520E6B500D0ED90C4
:100150002E0300943577050080841E080000204E91
:100160000A000000C80C333333330F986E1283112A
:1001700041EF8D2114893BE65516CFFEE6DB18D101
:10018000844B381BF77C1D901DA4BBE424203284D3
:10019000725E228100C9F124ECA1E53D2700000038
:1001A0000023002600290000000000250028002B65
:1001B0000004040404040404040202020202020310
:1001C000030303030301020408102040800102041A
:1001D000081020010204081020000000002400275D
:1001E000002A0000000008000201000003040700CC
:1001F00000000000000000001F1411241FBECFEFFC
:10020000D8E0DEBFCDBF11E0A0E0B1E0E0E4FDE367
:1002100002C005900D92A63DB107D9F724E0A6EDE6
:10022000B1E001C01D92A231B207E1F710E0CDEFBD
:10023000D0E004C02197FE010E94591BCC3FD1079A
:10024000C9F70E94F30D0C949E1E0C940000CF92EF
:10025000DF92EF92FF920F931F93CF93DF936C0186
:100260007A018B01C0E0D0E0CE15DF0581F0D80126
:100270006D918D01D601ED91FC910190F081E02D01
:10028000C6010995892B11F02196EECF7E01C70199
:10029000DF91CF911F910F91FF90EF90DF90CF9062
:1002A0000895FC01538D448D252F30E0842F90E07C
:1002B000821B930B541710F0CF9608950197089561
:1002C000FC01918D828D981761F0828DDF01A80F5E
:1002D000B11D5D968C91928D9F5F9F73928F90E080
:1002E00008958FEF9FEF0895FC01918D828D9817EF
:1002F00031F0828DE80FF11D858D90E008958FEF2C
:100300009FEF0895FC01918D228D892F90E0805CF4
:100310009F4F821B91098F739927089586E093E080
:100320000E94820121E0892B09F420E0822F0895A8
:10033000FC01848DDF01A80FB11DA35ABF4F2C9182
:10034000848D90E001968F739927848FA689B78951
:100350002C93A089B1898C91837080648C93938D48
:10036000848D981306C00288F389E02D80818F7DEB
:1003700080830895EF92FF920F931F93CF93DF93A3
:10038000EC0181E0888F9B8D8C8D981305C0E889E6
:10039000F989808185FD26C0F62E0B8D10E00F5F58
:1003A0001F4F0F731127E02E8C8DE8120CC00FB673
:1003B00007FCFACFE889F989808185FFF5CFCE0166
:1003C0000E949801F1CF8B8DFE01E80FF11DE35AD9
:1003D000FF4FF0829FB7F8940B8FEA89FB898081E9
:1003E00080620AC09FB7F894EE89FF896083E8892C
:1003F000F98980818370806480839FBF81E090E071
:10040000DF91CF911F910F91FF90EF900895CF93BF
:10041000DF93EC01888D8823C9F0EA89FB8980810C
:1004200085FD05C0A889B9898C9186FD0FC00FB6DE
:1004300007FCF5CF808185FFF2CFA889B9898C911F
:1004400085FFEDCFCE010E949801E7CFDF91CF91DC
:10045000089580E090E0892B29F00E948E0181119F
:100460000C94000008952091B1033091B203281735
:10047000390771F49091AF038091B003981741F060
:10048000E091AF03F0E0E35EFD4F808190E00895DE
:100490008FEF9FEF089508951F93CF93DF93DC01B3
:1004A0005C968D919C915D97009739F421E030E046
:1004B00013963C932E9312973BC05196ED91FC916D
:1004C000529750962C915097322F30951FB75E96C9
:1004D0004C915E97742F727041FD6095F894408145
:1004E000772311F0422B01C043234083EC01219775
:1004F000F1F748E0508160FF02C0522B01C0532346
:100500005083EC012197F1F76695415099F780816E
:10051000772319F08323808302C0282B20831FBFF9
:100520005C968D919C915D970197F1F781E090E049
:10053000DF91CF911F9108952091B1033091B203C3
:100540002817390771F48091B0032091AF0390E030
:10055000805C9F4F821B910960E470E00E94191B30
:10056000089580E090E008952091B1033091B203A6
:1005700028173907B9F49091AF038091B003981709
:1005800089F0E091AF03F0E0E35EFD4F80812091C0
:10059000AF0330E02F5F3F4F2F7333272093AF031C
:1005A00090E008958FEF9FEF08950895089585EDE9
:1005B0008093BC008091BC0084FDFCCF10920503A9
:1005C00008954091F801262F30E0240F311D21328B
:1005D0003105DCF4209105032430C9F4FC0180E0EE
:1005E00090E0861758F43091F8012191DC01AA526D
:1005F000BE4FA30FB11D2C930196F3CF8091F8014C
:10060000680F6093F80180E0089581E0089582E02A
:10061000089508950895E091020480910104E81777
:1006200030F4F0E0E154FD4F808190E008958FEFC9
:100630009FEF08959091020480910104981750F45F
:10064000E92FF0E0E154FD4F208130E09F5F90936F
:10065000020402C02FEF3FEFC90108958091010409
:1006600090E020910204821B91090895CF92DF92BD
:10067000EF92FF920F931F93CF93DF937C01CB01F7
:100680008A0120919B02222389F0EB016B01C40EA9
:10069000D51ECC15DD0569F06991D701ED91FC916E
:1006A0000190F081E02DC7010995F3CF642F0E94DE
:1006B000E102C801DF91CF911F910F91FF90EF9060
:1006C000DF90CF900895CF93DF931F92CDB7DEB721
:1006D000698320919B022223D1F02091BE02203217
:1006E00040F021E030E0FC013383228380E090E0A1
:1006F00015C080919C02E82FF0E0E356FD4F9981F0
:1007000090838F5F80939C028093BE0205C061E05E
:10071000CE0101960E94E10281E090E00F90DF910E
:10072000CF910895089580E090E008950C94111DF4
:100730008F929F92AF92BF92CF92DF92EF92FF92F1
:100740000F931F93CF93DF93CDB7DEB762970FB6AA
:10075000F894DEBF0FBECDBF7C018B0184E2DB01CC
:100760001D928A95E9F784E290E0A0E0B0E0FB01F9
:1007700080839183A283B383F70186819781A085CB
:10078000B185FB0184839583A683B78383E090E0E2
:10079000A0E0B0E080879187A287B3870E94700DA8
:1007A000D80150966D937D938D939C935397FE0142
:1007B00031968CE0DF011D928A95E9F7AE01435F27
:1007C0005F4F86E0FA0111928A95E9F76AE170E0DD
:1007D000C7010E94F10B6D857E85072E000C880BEA
:1007E000990B0E945F1920E030E040E85DE30E9431
:1007F000BE194B015C016F857889072E000C880BB0
:10080000990B0E945F1920E030E040E85DE30E9410
:10081000BE196B017C0169897A89072E000C880B4F
:10082000990B0E945F1920E030E040E85DE30E94F0
:10083000BE19D80154968D929D92AD92BC92579755
:10084000F801C08ED18EE28EF38E5C966D937D930F
:100850008D939C935F9781E062960FB6F894DEBF0C
:100860000FBECDBFDF91CF911F910F91FF90EF9001
:10087000DF90CF90BF90AF909F908F9008950F938F
:100880001F93CF93DF938C01EB0188E2FB01119260
:100890008A95E9F74BE050E06AE471E0CE010E94EE
:1008A000751E1B8681E090E0A0E0B0E08C879D87FC
:1008B000AE87BF87F80186819781A085B185888B37
:1008C000998BAA8BBB8B83E090E0A0E0B0E08C8B8F
:1008D0009D8BAE8BBF8B1CA21DA21EA21FA2188EC9
:1008E000198E1A8E1B8E1C8E1D8E1E8E1F8E8AE0F8
:1008F00097EDA3E2BCE388A399A3AAA3BBA3DF91CE
:10090000CF911F910F9108950F931F93CF93DF9372
:10091000EC0188819981009729F02A813B81261773
:10092000370788F48B016F5F7F4F0E949A1D0097F5
:1009300061F0998388831B830A832C813D81232B5B
:1009400011F4FC01108281E001C080E0DF91CF91C1
:100950001F910F910895CF93DF93EC0188819981C6
:10096000009711F00E94111D198218821D821C82AD
:100970001B821A82DF91CF910895FC0180819181C1
:100980000C94111DEF92FF920F931F93CF93DF935F
:10099000EC01198218821B821A821D821C82611549
:1009A000710521F18B01FB0101900020E9F73197DE
:1009B0007F01E61AF70AB7010E948404811109C079
:1009C000CE01DF91CF911F910F91FF90EF900C948A
:1009D000AB04FD82EC82B80188819981DF91CF91CF
:1009E0001F910F91FF90EF900C946E1EDF91CF91AD
:1009F0001F910F91FF90EF9008951F920F920FB6E5
:100A00000F9211242F933F934F935F936F937F9394
:100A10008F939F93AF93BF93EF93FF9386E093E001
:100A20000E949801FF91EF91BF91AF919F918F919B
:100A30007F916F915F914F913F912F910F900FBEDA
:100A40000F901F9018951F920F920FB60F921124BE
:100A50002F938F939F93EF93FF93E0911603F09161
:100A600017038081E0911C03F0911D0382FD12C0E9
:100A7000908180911F038F5F8F73209120038217D5
:100A800051F0E0911F03F0E0EA5FFC4F958F8093F7
:100A90001F0301C08081FF91EF919F918F912F9152
:100AA0000F900FBE0F901F901895AB0161307140F1
:100AB00018F461E00C948D0908951F920F920FB6FF
:100AC0000F9211242F933F934F935F936F937F93D4
:100AD0008F939F93AF93BF93EF93FF93E091B103F5
:100AE000F091B203309709F451C0968DA685B78571
:100AF000858591FF04C09C91892329F447C09C916E
:100B0000892309F043C0A389B4899C918589809584
:100B100089238C93868997890197F1F7608D718D70
:100B2000A685B785558538E020E0CB010197F1F720
:100B3000822F90E095958795282F4C91452309F0B9
:100B40002068315091F7868D81FD20958091B0030A
:100B500090E001968F7399273091AF03381749F0D1
:100B6000A091B003B0E0A35EBD4F2C938093B0037F
:100B700003C0868D8160868F828D938D0197F1F7FA
:100B8000A389B4899C918589892B8C93FF91EF91DE
:100B9000BF91AF919F918F917F916F915F914F9195
:100BA0003F912F910F900FBE0F901F9018951F929D
:100BB0000F920FB60F9211242F933F934F935F9391
:100BC0006F937F938F939F93AF93BF93EF93FF9315
:100BD0008091B900887F803609F49CC068F588321E
:100BE00009F45BC090F4803109F454C038F48823D0
:100BF00009F4F6C0883009F44DC0F6C0883109F414
:100C00004CC0803209F45DC0EFC0803409F468C084
:100C100048F4803309F455C0883309F0E5C0809367
:100C20000303D8C0803509F44FC0883509F45DC08E
:100C3000883409F0D9C0D6C0883909F4C7C0A8F4EF
:100C4000883709F467C038F4883609F463C0803700
:100C500009F460C0C9C0883809F4B8C0803909F403
:100C60005FC0803809F0C0C05BC0803B09F486C01B
:100C700038F4803A09F466C0883A09F47FC0B4C0F9
:100C8000803C09F4A7C0883C09F4A4C0883B09F45F
:100C90008AC0AAC08091000310C090910203809185
:100CA0000103981770F5E091020381E08E0F8093A5
:100CB0000203F0E0E152FD4F80818093BB0085ECA0
:100CC00086C0809303038EC0E091020381E08E0F03
:100CD000809302038091BB00F0E0E152FD4F8083DE
:100CE00090910203809101036EC0E091020381E0C4
:100CF0008E0F809302038091BB00F0E0E152FD4F24
:100D000080838091040381116DC081E08093FF0294
:100D100084EA61C083E08093050310921C02CFCF68
:100D200080911C02803208F051C0E0911C0281E0E9
:100D30008E0F80931C028091BB00F0E0E450FE4FC8
:100D40008083BDCF85EC8093BC0010920503809119
:100D50001C02803230F4E0911C02F0E0E450FE4FBF
:100D6000108260911C0270E0E091FA01F091FB01A9
:100D70008CEF91E0099510921C0236C084E08093BC
:100D800005031092F9011092F801E091F601F0913B
:100D9000F70109958091F801811105C081E08093E8
:100DA000F8011092D601E091F90181E08E0F809355
:100DB000F901F0E0EA52FE4F80818093BB009091F0
:100DC000F9018091F801981708F479CF85E88093AC
:100DD000BC000AC085EC8093BC001092050304C0DF
:100DE000109203030E94D702FF91EF91BF91AF9140
:100DF0009F918F917F916F915F914F913F912F9133
:100E00000F900FBE0F901F9018956F927F928F9248
:100E10009F92AF92BF92CF92DF92EF92FF920F9389
:100E20001F93CF93DF93CDB7DEB762970FB6F894D9
:100E3000DEBF0FBECDBF7C01F701819191916F01A3
:100E40008E010F5F1F4F2CE0F80111922A95E9F7F0
:100E50005E01FDE0AF0EB11C26E0F50111922A956E
:100E6000E9F7A5016AE170E00E94F10B8F84988890
:100E700069887A886D857E85072E000C880B990B12
:100E80000E945F1920E030E040E85DE30E94BE1957
:100E900069837A838B839C83B401990C880B990BAB
:100EA0000E945F1920E030E040E85DE30E94BE1937
:100EB0006D837E838F839887B301770C880B990BA2
:100EC0000E945F1920E030E040E85DE30E94BE1917
:100ED00069877A878B879C8798014701FEE08F0E90
:100EE000911CF90181919191A191B1919F01F6011C
:100EF00081939193A193B1936F01E815F90589F757
:100F0000F701808191812CE0F80111922A95E9F78F
:100F100026E0F50111922A95E9F7A50168E270E053
:100F20000E94F10BAF84B888C988DA886D857E8508
:100F3000072E000C880B990B0E945F1920E030E00F
:100F400048EC52E40E94CC1B69837A838B839C8398
:100F5000B501BB0C880B990B0E945F1920E030E0B3
:100F600048EC52E40E94CC1B6D837E838F8398876C
:100F7000B601DD0C880B990B0E945F1920E030E070
:100F800048EC52E40E94CC1B69877A878B879C8748
:100F9000FAE1EF0EF11CF80181919191A191B191CB
:100FA0008F01F40181939193A193B1934F01EE15B9
:100FB000FF0589F762960FB6F894DEBF0FBECDBF6E
:100FC000DF91CF911F910F91FF90EF90DF90CF9025
:100FD000BF90AF909F908F907F906F9008958F9269
:100FE0009F92AF92BF92CF92DF92EF92FF920F93B8
:100FF0001F93CF93DF93CDB7DEB762970FB6F89408
:10100000DEBF0FBECDBF8C01DC018D919D917D01B6
:10101000FE0131966F012CE0DF011D922A95E9F760
:10102000AE01435F5F4F26E0FA0111922A95E9F77E
:101030006AE170E00E94F10B8F849888A988BA88D1
:101040006D857E85072E000C880B990B0E945F1919
:1010500020E030E040E85DE30E94BE1969837A83B6
:101060008B839C83B401990C880B990B0E945F19A8
:1010700020E030E040E85DE30E94BE196D837E838E
:101080008F839887B501BB0C880B990B0E945F1961
:1010900020E030E040E85DE30E94BE1969877A876E
:1010A0008B879C87F601C8010E9641915191619101
:1010B0007191D7014D935D936D937D937D01A81739
:1010C000B90799F7F80182859385A485B58546818E
:1010D000578160857185428F538F648F758F868F9E
:1010E000978FA0A3B1A362960FB6F894DEBF0FBE90
:1010F000CDBFDF91CF911F910F91FF90EF90DF90C7
:10110000CF90BF90AF909F908F900895EF92FF92F5
:101110000F931F93CF93DF938C01FC01C081D1818A
:10112000109202041092010410929C021092BE02CE
:101130001092050381E0809304031092FF0261E0A6
:1011400082E10E949F0C61E083E10E949F0C8091EC
:10115000B9008E7F8093B9008091B9008D7F809314
:10116000B90088E48093B80085E48093BC0089E0EE
:1011700093E09093F7018093F6018AE093E09093D7
:10118000FB018093FA01CE010E94630C803A81F446
:1011900060E070E0CE010E94620D40E26FE370E01B
:1011A000CE010E94390C6EE170E080E090E010C04A
:1011B00068EE73E080E090E00E94280DCE010E946E
:1011C000630C803A29F381E591E00E94E40A76C03D
:1011D0000E94280DCE010E94630C803A29F06AE03B
:1011E00070E080E090E0F4CF62E370E080E090E0B7
:1011F0000E94280D40E06EE370E0CE010E94390CA1
:101200006AE070E080E090E00E94280D40E067E036
:1012100070E0CE010E94390C40E06FE370E0CE0137
:101220000E94390C6AE070E080E090E00E94280D96
:101230006CE070E0CE010E94620D64E170E080E03D
:1012400090E00E94280D68EE73E080E090E00E943C
:10125000280DF801C081D181EA84FB8460E070E050
:10126000CE010E94620D69E170E080E090E00E9492
:10127000280D40E067E070E0CE010E94390C40E8A4
:101280006FE370E0CE010E94390C6AE070E080E00C
:1012900090E00E94280DB701CE010E94620D64E12A
:1012A00070E080E090E00E94280DC801DF91CF91AE
:1012B0001F910F91FF90EF900C94EF07FFCF0E94CA
:1012C000601EEF92FF920F931F93CF93DF938C01D9
:1012D0007B016115710569F0FB0101900020E9F7C0
:1012E0003197EF01C61BD70BBE010E948404811108
:1012F00004C0C8010E94AB0408C0F801D583C483B0
:10130000B701808191810E946E1EC801DF91CF914B
:101310001F910F91FF90EF900895CF92DF92EF927F
:10132000FF921F93CF93DF93EC01162F6A018A81FE
:10133000811102C060E001C061E088810E949F0CC1
:10134000A601517080E1189FB0011124652B6EBD7C
:1013500000000DB407FEFDCF1EB54EBD00000DB45C
:1013600007FEFDCFDEB48A81811102C061E001C0B9
:1013700060E088810E949F0C1170F12EE12CC70162
:101380008D29DF91CF911F91FF90EF90DF90CF904B
:101390000895CF93DF93FC0124813581232B71F0D5
:1013A000FB01DC01CD91DC9160817181CE010E9455
:1013B000841E009719F08C1B9D0B02C08FEF9FEFCE
:1013C000DF91CF910895CF93DF93FC014481558144
:1013D00041155105D9F061157105C1F09A016417E5
:1013E000750708F49B01EC0188819981421B530B1E
:1013F0005D834C83BC01620F731F0E94751EE881E0
:10140000F9818C819D81E80FF91F1082DF91CF91C6
:1014100008950F931F93CF93DF93EC010E94700DFB
:10142000688779878A879B87E881F9810284F385B9
:10143000E02DCE01099597FF17C00E94700D088519
:1014400019852A853B85DC01CB01801B910BA20B02
:10145000B30B0C811D812E813F8180179107A2075C
:10146000B30710F38FEF9FEFDF91CF911F910F9193
:101470000895FC01448155816081718186E093E08B
:101480000C942701EF92FF920F931F93CF93DF935A
:10149000EC01FB0104811581E080F180E114F1048D
:1014A000C9F001151105C9F08C819D81080F191F24
:1014B000B801CE010E948404882361F0288139811B
:1014C0008C819D81B701820F931F0E946E1E1D8328
:1014D0000C8303C0CE010E94AB04CE01DF91CF91FB
:1014E0001F910F91FF90EF9008950F931F93CF934B
:1014F000DF93CDB7DEB762970FB6F894DEBF0FBEAD
:10150000CDBF8C01CB01F8011182108213821282AF
:10151000158214824AE0BE016F5F7F4F0E946D15F5
:10152000BE016F5F7F4FC8010E94610962960FB6CE
:10153000F894DEBF0FBECDBFDF91CF911F910F9109
:101540000895E3EEF3E09C01245F3F4F41915191F8
:1015500061917191DC014D935D936D937D93CD010C
:10156000A217B30799F70895EF92FF920F931F9375
:10157000CF93DF93CDB7DEB7A1970FB6F894DEBF58
:101580000FBECDBF7C01CB01BA01F70111821082E1
:1015900013821282158214828E010F5F1F4F22E088
:1015A00044E00E942215BC01C7010E946109A19676
:1015B0000FB6F894DEBF0FBECDBFDF91CF911F9164
:1015C0000F91FF90EF900895009769F0FC01019052
:1015D0000020E9F73197AF01481B590BBC0186E0A9
:1015E00093E00C94270180E090E00895909105032A
:1015F0009111FCCF91E090930503909304032FEF9A
:101600002093030310920203260F2093010390936B
:10161000000390910003880F892B80930003809131
:10162000FF02813061F41092FF02809100038093E9
:10163000BB008091BC0083FDF8CF85EC01C085EE36
:101640008093BC00809105038130E1F38091020317
:10165000861710F460910203AFEDB2E0EFEBF2E019
:1016600080E0861721F09D9191938F5FFACF0895C6
:10167000282F3091BE02313208F04AC08091050314
:101680008111FCCF9091BD0242E04093050320936D
:1016900004032FEF209303031092020330930103FE
:1016A000EDE9F2E0AFEDB2E020E0321721F0419138
:1016B0004D932F5FFACF1092000320910003990FF2
:1016C000922B909300039091FF02913061F410925D
:1016D000FF02909100039093BB009091BC0093FD9A
:1016E000F8CF95EC01C095EE9093BC009091050366
:1016F0009230E1F3909103039F3F79F080910303CF
:10170000803241F080910303803331F084E005C0E2
:1017100081E003C082E001C083E010929C0210923D
:10172000BE0210929B020895CF92DF92EF92FF9239
:101730000F931F93CF93DF937C018B016A0168ECB9
:1017400071E00E94C204D80114968D919C91159766
:101750000097C1F0E6018C159D0508F4EC01D80155
:10176000ED91FC911197EC0FFD1FD08010826D91CF
:101770007C91C7010E946109F80180819181C80FA5
:10178000D91FD882C701DF91CF911F910F91FF9090
:10179000EF90DF90CF9008953FB7F89480910804C0
:1017A00090910904A0910A04B0910B0426B5A89B5E
:1017B00005C02F3F19F00196A11DB11D3FBFBA2FE3
:1017C000A92F982F8827820F911DA11DB11DBC0143
:1017D000CD0142E0660F771F881F991F4A95D1F708
:1017E0000895EF92FF920F931F93CF93DF938C0195
:1017F0007A01DC0113968C91139791E090939B02F0
:101800008093BD0210929C021092BE0214968D919C
:101810009C911597DC01ED91FC910190F081E02DF8
:10182000099581E00E94380B66E0F80183810E94EF
:10183000F60A1092020480930104E701F6E0EF0E2D
:10184000F11CD80114968D919C911597DC01ED91B6
:10185000FC910284F385E02D09958993EC16FD0631
:1018600081F781E0DF91CF911F910F91FF90EF9071
:1018700008951F93CF93DF93EC01142F8B8191E098
:1018800090939B028093BD0210929C021092BE0224
:101890008C819D81DC01ED91FC910190F081E02D26
:1018A00009958C819D81DC01ED91FC910190F08185
:1018B000E02D612F099581E00E94380B81E0DF91D6
:1018C000CF911F910895CF93DF93EC018B8191E02D
:1018D00090939B028093BD0210929C021092BE02D4
:1018E0008C819D81DC01ED91FC910190F081E02DD6
:1018F00060E0099581E00E94380B61E08B810E94D5
:10190000F60A10920204809301048C819D81DC010F
:10191000ED91FC910284F385E02D0995DF91CF9143
:101920000895CF93DF930E94E40AEC0183ED91E0E8
:101930000E94E40A8C0F9D1FDF91CF91089590E0E3
:10194000FC01ED51FE4F2491FC01EB53FE4F34910D
:10195000FC01EF54FE4FE491EE2309F43CC0222336
:1019600039F1233091F038F42130A9F0223001F51B
:1019700084B58F7D12C0273091F02830A1F024303B
:10198000B9F4809180008F7D03C0809180008F77B3
:10199000809380000DC084B58F7784BD09C080918D
:1019A000B0008F7703C08091B0008F7D8093B0002E
:1019B000F0E0EE0FFF1FE955FE4FA591B4919FB7E0
:1019C000F894611104C08C913095382302C0EC91D9
:1019D0003E2B3C939FBF0895CF93DF9390E0FC0193
:1019E000EB53FE4F2491FC01EF54FE4F849188236A
:1019F00061F190E0880F991FFC01E752FE4FC591FD
:101A0000D491FC01E955FE4FA591B491611109C033
:101A10009FB7F8948881209582238883EC912E23A8
:101A20000BC0623061F49FB7F8948881322F3095F3
:101A300083238883EC912E2B2C939FBF06C08FB7F6
:101A4000F894E8812E2B28838FBFDF91CF910895E2
:101A50008F929F92AF92BF92CF92DF92EF92FF92BE
:101A60006B017C010E94CC0B4B015C01C114D104C1
:101A7000E104F104F1F00E94CC0BDC01CB018819E8
:101A80009909AA09BB09883E9340A105B10570F3E5
:101A900021E0C21AD108E108F10888EE880E83E03F
:101AA000981EA11CB11CC114D104E104F10419F762
:101AB000DDCFFF90EF90DF90CF90BF90AF909F90E1
:101AC0008F900895462FFC01628773876DE370E065
:101AD0000E94390C6EE170E080E090E00C94280DDB
:101AE0002FB7F89460910404709105048091060466
:101AF000909107042FBF08951F920F920FB60F9277
:101B000011242F933F938F939F93AF93BF93809113
:101B1000040490910504A0910604B091070430914B
:101B2000030423E0230F2D3720F40196A11DB11DDE
:101B300005C026E8230F0296A11DB11D20930304C2
:101B40008093040490930504A0930604B0930704C3
:101B50008091080490910904A0910A04B0910B04AB
:101B60000196A11DB11D8093080490930904A093D0
:101B70000A04B0930B04BF91AF919F918F913F9155
:101B80002F910F900FBE0F901F9018951F93CF931A
:101B9000DF93EC01162FFC0132968CE0DF01982FC9
:101BA0001D929A95E9F73C96DF011D928A95E9F717
:101BB0008CE090E00E94791CFC018AE091E0918326
:101BC00080838FEF9FEFDC0186839783A087B187A7
:101BD000138383EA93E095838483F983E883DF9119
:101BE000CF911F910895CF93DF93CDB7DEB7E897DC
:101BF0000FB6F894DEBF0FBECDBF789484B5826077
:101C000084BD84B5816084BD85B5826085BD85B5A0
:101C1000816085BD80916E00816080936E0010921E
:101C20008100809181008260809381008091810099
:101C3000816080938100809180008160809380002A
:101C40008091B10084608093B1008091B000816088
:101C50008093B00080917A00846080937A008091B4
:101C60007A00826080937A0080917A00816080930C
:101C70007A0080917A00806880937A001092C10087
:101C8000E0911603F091170382E08083E091120344
:101C9000F09113031082E0911403F0911503108268
:101CA00010921E03E0911A03F0911B0386E08083DB
:101CB000E0911803F0911903808180618083E091A5
:101CC0001803F0911903808188608083E0911803E4
:101CD000F0911903808180688083E0911803F0916E
:101CE000190380818F7D808364EF71E080E090E054
:101CF0000E94280D84E290E090936102809360023C
:101D000023EF30E030936302209362028FE790E08C
:101D100090936502809364024AE050E0509367021A
:101D200040936602309369022093680290936B029D
:101D300080936A0283E090E00E94791C26E030E004
:101D4000DC0111963C932E9312961C9290935F02A5
:101D500080935E028CB5837F8CBD8CB58F7D8CBDEE
:101D60008CB58C7F81608CBD8DB581608DBD1FB7BA
:101D7000F89480915D02811127C0EBEBF1E0849132
:101D8000EFECF1E09491E82FF0E0EE0FFF1FE75247
:101D9000FE4FA591B491EC91E92321F461E08AE032
:101DA0000E949F0C61E08AE00E94EC0C8CB580617F
:101DB0008CBD8CB580648CBD61E08DE00E94EC0C24
:101DC00061E08BE00E94EC0C80915D028F5F80935C
:101DD0005D021FBF00915E0210915F0261E0F80199
:101DE00080810E94EC0C61E0D8018C910E949F0CD4
:101DF00060E0F80180810E949F0C4FEF51E064E0A9
:101E0000C8010E948D0961E0D8018C910E949F0C4D
:101E100085ED93E00E94860883EB93E00E9486089C
:101E200080E991E00E94910C0E94700D6B017C0191
:101E30000E94700DDC01CB018C199D09AE09BF0910
:101E4000803D9740A105B10598F483EB93E00E9493
:101E5000EF0785ED93E00E94EF078CE991E00E9487
:101E6000E40A64E670E080E090E00E94280DE0CF94
:101E70008EE991E00E94910C85EA91E00E94910C1C
:101E8000CE0101960E94A10A89819A81AB81BC8111
:101E900080938F0290939002A0939102B09392024C
:101EA000CE0101960E94A10A8D819E81AF81B885E5
:101EB00080938B0290938C02A0938D02B0938E023C
:101EC000CE0101960E94A10A89859A85AB85BC85C1
:101ED0008093870290938802A0938902B0938A022C
:101EE0008CE9282E33243A9494E6892E912C2EE105
:101EF000422E512C612C712C0E94700D7B018C01A3
:101F000020E030E0A90169ABFAAA0BAB1CAB2DAB0A
:101F10003EAB4FAB58AFA0909302B0909402C090EC
:101F20009502D0909602E0909702F090980200916E
:101F3000990210919A0229A93AA94BA95CA960E0DB
:101F400070E080E090E00E943C1B09F00CF474C447
:101F50000E94700DDC01CB018196A11DB11D8C0189
:101F60009D018093930210939402209395023093E5
:101F70009602109297021092980210929902109273
:101F80009A028091F7039091F803DC01ED91FC91A6
:101F90000084F185E02D0995892B09F4ECC00091AE
:101FA000F7031091F80368EC71E0CE018B960E9464
:101FB000C204C8010E94090A97FD1FC08A3091051A
:101FC000E1F089831A82EFA4F8A8BFEFEB1AFB0AAD
:101FD000B701CE018B960E948404882351F32BA570
:101FE0003CA58FA598A9BE016F5F7F4F820F931FFD
:101FF0000E946E1EF8AAEFA6DCCF8FA598A90397C2
:1020000008F4B5C066EB71E0CE0101960E94C204EF
:10201000BE016F5F7F4FCE018B960E94C909AC0154
:10202000BE01655D7F4FCE0185960E94940B8DA108
:102030009EA1009719F00E94461503C060E070E071
:10204000CB017093FC036093FB03CE0185960E9445
:10205000BD04CE0101960E94BD0466EB71E0CE0185
:1020600001960E94C204BE016F5F7F4FCE018B9626
:102070000E94C909BC016F5F7F4FCE018B960E9401
:10208000E309CE0101960E94BD0466EB71E0CE012A
:1020900001960E94C204BE016F5F7F4FCE018B96F6
:1020A0000E94C909AC01BE01655D7F4FCE018596D6
:1020B0000E94940B8DA19EA1009719F00E944615D5
:1020C00003C060E070E0CB017093FA036093F90302
:1020D000CE0185960E94BD04CE0101960E94BD04EA
:1020E00066EB71E0CE0101960E94C204BE016F5FF3
:1020F0007F4FCE018B960E94C909BC016F5F7F4F55
:10210000CE018B960E94E309CE0101960E94BD0488
:1021100066EB71E0CE0101960E94C204BE016F5FC2
:102120007F4FCE018B960E94C909AC01BE01655D4F
:102130007F4FCE0185960E94940B8DA19EA10097A2
:1021400019F00E94421503C060E070E0CB0160937B
:10215000FD037093FE038093FF0390930004CE0170
:1021600085960E94BD04CE0101960E94BD04CE0159
:102170008B960E94BD0485ED93E00E94050783EBDA
:1021800093E00E940507CE0101960E94A10A2091CA
:102190008F02309190024091910250919202698198
:1021A0007A818B819C810E945F1BAB01BC01CE01B7
:1021B00085960E94B40A67EC71E0CE018B960E946E
:1021C000C204BE016B5D7F4FCE018B960E94420A16
:1021D0000E94390ACE018B960E94BD04CE018596DD
:1021E0000E94BD04CE0101960E94A10A20918B029B
:1021F00030918C0240918D0250918E026D817E81D2
:102200008F8198850E945F1BAB01BC01CE01859632
:102210000E94B40A67EC71E0CE018B960E94C20462
:10222000BE016B5D7F4FCE018B960E94420A0E94D9
:10223000390ACE018B960E94BD04CE0185960E947C
:10224000BD04CE0101960E94A10A2091870230911F
:1022500088024091890250918A0269857A858B852E
:102260009C850E945F1BAB01BC01CE0185960E943C
:10227000B40A67EC71E0CE018B960E94C204BE01E5
:102280006B5D7F4FCE018B960E94420A0E94390AF5
:10229000CE018B960E94BD04CE0185960E94BD049E
:1022A000109282022091F3033091F4034091F503E0
:1022B0005091F6036091DF037091E0038091E10398
:1022C0009091E2030E945F1B0E943E1C8B0177FFEE
:1022D00004C000271127061B170B109381020093DF
:1022E00080020A3011050CF449C080917C02909163
:1022F0007D02A0917E02B0917F028196A11DB11D49
:1023000080937C0290937D02A0937E02B0937F0223
:10231000CE0101960E94A10A20E030E0A901698562
:102320007A858B859C850E94741C18164CF4CE010E
:102330000D960E94A10A2D893E894F89588D0BC0A8
:10234000CE0149960E94A10A89A19AA1ABA1BCA184
:102350009C01AD0150586091780270917902809192
:102360007A0290917B020E94601B609378027093C6
:10237000790280937A0290937B0232C08091760238
:10238000909177020A9764F1E1E0E09382028091F4
:102390007402909175020196909375028093740275
:1023A0008091780290917902A0917A02B0917B029B
:1023B0008093700290937102A0937202B0937302A3
:1023C000109278021092790210927A0210927B0297
:1023D00010927C0210927D0210927E0210927F0277
:1023E00060917C0270917D0280917E0290917F02CB
:1023F0000E945F1920E030E044E052E40E94CC1BD0
:102400009B01AC01609178027091790280917A020F
:1024100090917B020E94CC1B6B017C0120E030E09C
:1024200040E451E40E94741C18164CF0C0926C02F7
:10243000D0926D02E0926E02F0926F020CC080E0CA
:1024400090E0A0E4B1E480936C0290936D02A093BD
:102450006E02B0936F02C0906C02D0906D02E0905B
:102460006E02F0906F0220E030E0A901C701B601D2
:102470000E94741C18160CF05FC020E030E048EC9D
:1024800052E4C701B6010E94BE1920E030E040E4EA
:1024900051E40E94CC1B20E030E0A9010E94601BA7
:1024A0000E943E1CA0906402B0906502E0905E0223
:1024B000F0905F0216161706C4F40B2C000CCC0823
:1024C000DD082091620230916302032E000C440B60
:1024D000550B2A193B094C095D09DB010E94A91A19
:1024E00024E630E040E050E01AC06115710501F1CA
:1024F0000B2C000CCC08DD082091600230916102A9
:10250000032E000C440B550B2A193B094C095D099D
:10251000DB010E94A91A2CE93FEF4FEF5FEF0E9409
:102520007F1ACA01B9016A0D7B1D8C1D9D1D01C05A
:10253000B501C7010E94550580918202882351F0A0
:10254000609164027091650280915E0290915F02D9
:102550000E945505109377020093760268EC71E0B3
:10256000CE0101960E94C20467EC71E0CE0185960F
:102570000E94C204BE016F5F7F4FCE0185960E940C
:10258000420A0E94390ACE0185960E94BD04CE01FE
:1025900001960E94BD046091740270917502CE0193
:1025A00001960E94750A67EC71E0CE0185960E9443
:1025B000C204BE016F5F7F4FCE0185960E94420A22
:1025C0000E94390ACE0185960E94BD04CE01019673
:1025D0000E94BD044091700250917102609172029C
:1025E00070917302CE0101960E94B40A67EC71E00B
:1025F000CE0185960E94C204BE016F5F7F4FCE015F
:1026000085960E94420A0E94390ACE0185960E9450
:10261000BD04CE0101960E94BD0440916C02509110
:102620006D0260916E0270916F02CE0101960E9460
:10263000B40A67EC71E0CE0185960E94C204BE0127
:102640006F5F7F4FCE0185960E94420A0E94390A31
:10265000CE0185960E94BD04CE0101960E94BD0464
:102660006091FB037091FC03CE0101960E94750AF4
:1026700068EB71E0CE0185960E94C204BE016F5FD7
:102680007F4FCE0185960E94420A0E94390ACE01F0
:1026900085960E94BD04CE0101960E94BD04609102
:1026A000F9037091FA03CE0101960E94750A67EC56
:1026B00071E0CE0185960E94C204BE016F5F7F4F1C
:1026C000CE0185960E94420A0E94390ACE01859663
:1026D0000E94BD04CE0101960E94BD04A091F903A1
:1026E000B091FA03AC34FFEFBF0754F49D012859B1
:1026F0003E4FACE9BFEF0E942D1BA301920108C021
:1027000024E630E00E94351B23ED3FEF4FEF5FEFF3
:102710000E947F1A30938602209385028091850261
:10272000909186028536910524F0909286028092DF
:10273000850280918502909186028C399F4F24F406
:1027400030928602209285022091FB033091FC0397
:102750002C341FEF310754F4D901A859BE4F24E699
:1027600030E00E94351BA301920108C0ACE9BFEF25
:102770000E942D1B22EE3FEF4FEF5FEF0E947F1A6A
:10278000309384022093830280918302909184028B
:102790008536910524F09092840280928302809184
:1027A0008302909184028C399F4F24F430928402EA
:1027B000209283026091850270918602CE0101967B
:1027C0000E94750A69EC71E0CE0185960E94C204F0
:1027D000BE016F5F7F4FCE0185960E94420A0E9424
:1027E000390ACE0185960E94BD04CE0101960E9451
:1027F000BD046091830270918402CE0101960E9413
:10280000750A6EEC71E0CE0185960E94C204BE018D
:102810006F5F7F4FCE0185960E94420A0E94390A5F
:1028200083ED91E00E94E40ACE0185960E94BD04EA
:10283000CE0101960E94BD040E9429025DCBCF9279
:10284000DF92EF92FF92CF93DF93109209031092E1
:10285000080398EEC92E93E0D92EE12CF12CC092FA
:102860000A03D0920B03E0920C03F0920D0388E16F
:1028700091E0909307038093060385EC90E090939A
:1028800013038093120384EC90E0909315038093DC
:10289000140380EC90E0909317038093160381EC6F
:1028A00090E0909319038093180382EC90E090934A
:1028B0001B0380931A0386EC90E090931D03809392
:1028C0001C0310921F0310922003109221031092F8
:1028D00022031092A6031092A503C092A703D092E0
:1028E000A803E092A903F092AA038AE291E09093F0
:1028F000A4038093A3038FE190E00E94791CEC0174
:102900001B821A82CC82DD82EE82FF828CE391E010
:10291000998388831F8A1E8A198E188E1B8E1A8EA1
:102920001D8E1C8E6E8D6E7F6D7F6E8F66956170B5
:1029300081E0682782E00E949F0C61E082E00E94B3
:10294000EC0CE7ECF1E0E491E88BE3EBF1E0E491EF
:10295000F0E0EE0FFF1FE955FE4F859194919A8BA1
:10296000898B60E083E00E94EC0C8E8D81FD04C0B9
:1029700061E083E00E949F0C83E08C87E8ECF1E04B
:10298000E491ED87E4EBF1E0E491F0E0EE0FFF1F5E
:10299000E356FE4F859194919F878E87D093F803DD
:1029A000C093F7038DE991E09D8F8C8F2DEB30E084
:1029B0003F8B2E8B2BE931E0398F288F2CE231E0D1
:1029C0003B8F2A8F209168002460209368002DE6B9
:1029D00030E03C8B2B8B28E02D8B0197F1F7E091B9
:1029E000B103F091B203CE17DF07D1F0309739F081
:1029F000A389B4899C918589809589238C938E8D38
:102A00008E7F8E8F1092B0031092AF03D093B203DB
:102A1000C093B103EB89FC8990818D89892B8083D8
:102A200069E270E085ED93E00E94C60D68E270E017
:102A300083EB93E0DF91CF91FF90EF90DF90CF9009
:102A40000C94C60DEF920F931F93CF93DF93E80181
:102A500047FD02C034E001C034E1042E000C550BE8
:102A600057FF03C0519541955109E32E022F242FA2
:102A7000AE010E94A715CE01DF91CF911F910F915A
:102A8000EF900895662777270C9401171F93FC0198
:102A900099278827BC01E89411911032E9F3193085
:102AA00010F01E30C8F31B3251F01D3249F4689407
:102AB00006C00E947815610F711D811D911D119135
:102AC00010531A30B0F33EF490958095709561954F
:102AD0007F4F8F4F9F4F1F910895BB274A3031F48E
:102AE000992322F4BDE2909581959F4F0C948E1509
:102AF000592F482F372F262F660F771F881F991FB2
:102B0000660F771F881F991F620F731F841F951F01
:102B1000660F771F881F991F0895BB27FB01552754
:102B2000AA27880F991FAA1FA41710F0A41B83952A
:102B30005051B9F7A05DAA3308F0A95DA1930097A1
:102B400079F7B111B1931192CB010C944819A9E016
:102B5000B0E0EDEAF5E10C94B71A6A01122FB02E3D
:102B60002BE3201720F0FF24F394F00E02C02CE397
:102B7000F22E0F2D27E0AE014F5F5F4F0E944F18DE
:102B8000BC014981842F8970813031F0E1FC06C09D
:102B9000E0FE06C090E205C09DE203C09BE201C0DA
:102BA00090E05E2D507143FF3CC0911102C083E064
:102BB00001C084E0811718F4212F281B01C020E0F8
:102BC00051110BC0F601822F30E2882319F03193A6
:102BD0008150FBCFC20ED11C20E0992329F0D601F1
:102BE0009C93F60131966F01C6010396E2FE0AC07E
:102BF0003EE4D6013C9341E411964C931197129612
:102C00003C9306C03EE6F601308341E641833283C1
:102C1000FC01322F40E2332309F442C0419331508A
:102C2000FACF42FF44C0911102C083E001C084E0AA
:102C3000811718F4212F281B01C020E051110BC06F
:102C4000F601822F30E2882319F031938150FBCFB7
:102C5000C20ED11C20E0992329F0D6019C93F601E5
:102C600031966F01C6010396E2FE0BC039E4D6012E
:102C70003C933EE411963C93119736E412963C93B4
:102C800007C039E6F60130833EE6318336E632830B
:102C9000FC01322F40E2332319F041933150FBCF36
:102CA000FC01E20FF11D10828EEF9FEFA6C021E024
:102CB00030E0911102C020E030E0161617061CF437
:102CC000FB01319602C0E1E0F0E02E0F3F1FBB2078
:102CD00021F0EB2DF0E0319602C0E0E0F0E02E0FA5
:102CE0003F1FE12FF0E02E173F071CF4121B212F8E
:102CF00001C020E08E2D887159F4F601822F30E258
:102D0000882319F031938150FBCFC20ED11C20E0F3
:102D1000992329F0D6019C93F60131966F01511148
:102D20000BC0F601822F90E3882319F09193815014
:102D3000FBCFC20ED11C20E00F2D060F9A81342F3D
:102D4000307144FF03C0913309F40150101624F48C
:102D5000093018F008E001C001E0AB0177FF02C0C4
:102D600040E050E0FB01E41BF50BA1E0B0E0AC0F4C
:102D7000BD1FEA0FFB1F8EE2A82E4B01801A91089F
:102D80000B2D10E01195019511094F3FBFEF5B0727
:102D900021F4D601AC9211966D01641775072CF0E1
:102DA0008416950614F4818101C080E341505109D5
:102DB0003196D60111967D014017510724F0D601B6
:102DC0008C936701E2CF6417750739F4963320F4CA
:102DD000953319F4311101C081E3F6018083F701C5
:102DE000822F90E2882319F091938150FBCFF70155
:102DF000E20FF11D108280E090E02996ECE00C9447
:102E0000D31AA0E0B0E0E7E0F7E10C94B71AEC01C8
:102E10006B016115710519F0FB01918380837E01BF
:102E2000FFEFEF1AFF0A0881802F90E00E94271918
:102E3000892B11F0E701F3CF0D3239F47E0182E0E6
:102E4000E80EF11C098111E008C00B3229F47E0163
:102E500092E0E90EF11C098110E0E701219743E0BF
:102E600050E060E770E0CE010E943019892BC1F478
:102E7000239645E050E06BE670E0CE010E943019E9
:102E8000892B09F42596C114D10419F0F601D183D8
:102E9000C0831111F6C060E070E080E89FE7FAC0DF
:102EA00043E050E068E670E0CE010E943019892BC3
:102EB00059F4C114D10409F4E9C0F2E0EF0EF11C99
:102EC000F601F182E082E2C020E030E0A901C0E03A
:102ED000D0E0F70180EDA82EA00E89E08A1530F130
:102EE000912F9260B92E812F887012FF04C081113A
:102EF00024C0219622C081112197A5E0B0E00E9454
:102F00009E1ADC01CB01880F991FAA1FBB1F9C01D1
:102F1000AD012A0D311D411D511D283989E93807A0
:102F2000480789E1580748F0166006C09EEFA912CD
:102F30000AC013FD40C01860B12E8FEFE81AF80ADE
:102F400000811B2DC6CF802F8F7D8534A1F5808118
:102F50008D3211F4106106C08B3221F0319661E0A0
:102F600070E004C08181329662E070E080538A3064
:102F700018F0E61BF70B1FC060E070E060389CE0C3
:102F800079075CF4DB01AA0FBB1FAA0FBB1F6A0FF6
:102F90007B1F660F771F680F711D3196DF01119738
:102FA0008C9180538A3050F314FF03C07195619562
:102FB0007109C60FD71F11FF08C0C114D10429F031
:102FC000CF010197F60191838083CA01B9010E9464
:102FD0005D19212F2370233019F04B015C0106C0CD
:102FE0004B015C01B7FAB094B7F8B09420E030E040
:102FF000A901C501B4010E945819882309F43EC0F3
:10300000D7FF06C0D195C195D10907E810E002C0ED
:103010000FE910E06801F8E1CF1AD10890E2E92E3B
:10302000F12CCE15DF0574F0F8012591359145910D
:103030005491C501B4010E94BE194B015C01CE1927
:10304000DF09EFCF04501109F594E7940C151D0525
:1030500041F78A2D880F8B2D881F8F3F49F020E084
:1030600030E0A901C501B4010E945819811106C0C0
:1030700082E290E090930D0480930C04C501B401AA
:1030800009C060E070E080E89FEF04C060E070E09D
:1030900080EC9FE7CDB7DEB7ECE00C94D31A283074
:1030A00008F027E03327DA01990F311D87FD916081
:1030B00000966105710539F432602E5F3D9330E36F
:1030C0002A95E1F708959F3F30F08038710561053A
:1030D00009F03C5F3C5F3D93913008F08068911DA2
:1030E000DF93CF931F930F93FF92EF92192F987F47
:1030F0009695E92F96959695E90FFF27E350FF4F98
:1031000099273327EE24FF24A701E70105900894AF
:10311000079428F4360FE71EF81E491F511D660F4D
:10312000771F881F991F0694A1F70590079428F42C
:10313000E70EF81E491F561FC11D770F881F991FE4
:10314000661F0694A1F70590079428F4F80E491F0E
:10315000561FC71FD11D880F991F661F771F069422
:10316000A1F70590079420F4490F561FC71FD81FD9
:10317000990F661F771F881F0694A9F784911095F1
:10318000177041F0D695C79557954795F794E794F2
:103190001A95C1F7E3EAF0E068941590159135911E
:1031A0006591959105907FE27395E118F10A430BC3
:1031B000560BC90BD009C0F7E10CF11E431F561F77
:1031C000C91FD01D7EF4703311F48A95E6CFE894C0
:1031D000015030F0080F0AF40027021708F4202FDE
:1031E0002395022F7A3328F079E37D932A95E9F726
:1031F00010C07D932A9589F6069497956795379523
:1032000017951794E118F10A430B560BC90BD00917
:1032100098F023957E9173957A3308F070E37C9350
:103220002013B8F77E9170617D9330F0839571E340
:103230007D9370E32A95E1F71124EF90FF900F91B1
:103240001F91CF91DF91992787FD90950895911156
:103250000C942B1A803219F089508550C8F70895C4
:10326000FB01DC014150504088F08D9181341CF00D
:103270008B350CF4805E659161341CF06B350CF479
:10328000605E861B611171F3990B0895881BFCCF5A
:10329000DC01FC01672F71917723E1F7329704C0BD
:1032A0007C916D9370836291AE17BF07C8F3089548
:1032B0000E949A1908F481E00895E89409C097FBE8
:1032C0003EF490958095709561957F4F8F4F9F4FFD
:1032D0009923A9F0F92F96E9BB279395F695879541
:1032E00077956795B795F111F8CFFAF4BB0F11F404
:1032F00060FF1BC06F5F7F4F8F4F9F4F16C08823AB
:1033000011F096E911C0772321F09EE8872F762FE0
:1033100005C0662371F096E8862F70E060E02AF021
:103320009A95660F771F881FDAF7880F969587950D
:1033300097F90895990F0008550FAA0BE0E8FEEFE2
:1033400016161706E807F907C0F012161306E40769
:10335000F50798F0621B730B840B950B39F40A2662
:1033600061F0232B242B252B21F408950A2609F440
:10337000A140A6958FEF811D811D08950E94D1194E
:103380000C94451A0E94371A38F00E943E1A20F019
:10339000952311F00C942E1A0C94341A11240C94C9
:1033A000791A0E94561A70F3959FC1F3950F50E059
:1033B000551F629FF001729FBB27F00DB11D639FE7
:1033C000AA27F00DB11DAA1F649F6627B00DA11D8D
:1033D000661F829F2227B00DA11D621F739FB00D33
:1033E000A11D621F839FA00D611D221F749F3327A3
:1033F000A00D611D231F849F600D211D822F762F3C
:103400006A2F11249F5750409AF0F1F088234AF018
:10341000EE0FFF1FBB1F661F771F881F9150504084
:10342000A9F79E3F510580F00C942E1A0C94791A3E
:103430005F3FE4F3983ED4F3869577956795B7950B
:10344000F795E7959F5FC1F7FE2B880F911D969525
:10345000879597F9089599278827089597F99F6781
:1034600080E870E060E008959FEF80EC089500240C
:103470000A941616170618060906089500240A94D9
:1034800012161306140605060895092E0394000C5F
:1034900011F4882352F0BB0F40F4BF2B11F460FFEE
:1034A00004C06F5F7F4F8F4F9F4F089557FD905817
:1034B000440F551F59F05F3F71F04795880F97FBF8
:1034C000991F61F09F3F79F08795089512161306B2
:1034D0001406551FF2CF4695F1DF08C016161706E1
:1034E0001806991FF1CF8695710561050894089516
:1034F000E894BB2766277727CB0197F90895052E17
:1035000097FB1EF400940E94961A57FD07D00E9464
:10351000E81A07FC03D04EF40C94961A5095409587
:10352000309521953F4F4F4F5F4F0895909580956F
:10353000709561957F4F8F4F9F4F08950E940A1B92
:10354000A59F900DB49F900DA49F800D911D1124F7
:103550000895B7FF0C949E1A0E949E1A821B930B2B
:1035600008952F923F924F925F926F927F928F9227
:103570009F92AF92BF92CF92DF92EF92FF920F9302
:103580001F93CF93DF93CDB7DEB7CA1BDB0B0FB60C
:10359000F894DEBF0FBECDBF09942A8839884888C9
:1035A0005F846E847D848C849B84AA84B984C8845F
:1035B000DF80EE80FD800C811B81AA81B981CE0F56
:1035C000D11D0FB6F894DEBF0FBECDBFED0108953B
:1035D000A1E21A2EAA1BBB1BFD010DC0AA1FBB1F17
:1035E000EE1FFF1FA217B307E407F50720F0A21B89
:1035F000B30BE40BF50B661F771F881F991F1A94F6
:1036000069F760957095809590959B01AC01BD011F
:10361000CF010895A29FB001B39FC001A39F700D79
:10362000811D1124911DB29F700D811D1124911DCA
:10363000089597FB072E16F4009407D077FD09D064
:103640000E94451B07FC05D03EF4909581959F4F45
:103650000895709561957F4F08950E940A1B33234A
:1036600012F48A1B9B0B0C94371B0E940A1BB7FF9A
:103670000895821B930B08952A153B054C055D05A3
:103680006E057F05800791070895AA1BBB1B51E1BA
:1036900007C0AA1FBB1FA617B70710F0A61BB70BC2
:1036A000881F991F5A95A9F780959095BC01CD0167
:1036B0000895EE0FFF1F0590F491E02D09945058E6
:1036C000BB27AA270E94771B0C94451A0E94371A21
:1036D00038F00E943E1A20F039F49F3F19F426F486
:1036E0000C94341A0EF4E095E7FB0C942E1AE92F93
:1036F0000E94561A58F3BA17620773078407950792
:1037000020F079F4A6F50C94781A0EF4E0950B2EBF
:10371000BA2FA02D0B01B90190010C01CA01A00123
:103720001124FF27591B99F0593F50F4503E68F17E
:103730001A16F040A22F232F342F4427585FF3CFBF
:10374000469537952795A795F0405395C9F77EF490
:103750001F16BA0B620B730B840BBAF09150A1F0D9
:10376000FF0FBB1F661F771F881FC2F70EC0BA0F5F
:10377000621F731F841F48F4879577956795B795E7
:10378000F7959E3F08F0B0CF9395880F08F09927E2
:10379000EE0F9795879508950E94E01B0C94451AAB
:1037A0000E943E1A58F00E94371A40F029F45F3FF9
:1037B00029F00C942E1A51110C94791A0C94341A85
:1037C0000E94561A68F39923B1F3552391F3951B80
:1037D000550BBB27AA2762177307840738F09F5F32
:1037E0005F4F220F331F441FAA1FA9F335D00E2E9F
:1037F0003AF0E0E832D091505040E695001CCAF70C
:103800002BD0FE2F29D0660F771F881FBB1F2617CE
:1038100037074807AB07B0E809F0BB0B802DBF01A5
:10382000FF2793585F4F3AF09E3F510578F00C9474
:103830002E1A0C94791A5F3FE4F3983ED4F38695E0
:1038400077956795B795F7959F5FC9F7880F911D95
:103850009695879597F90895E1E0660F771F881F81
:10386000BB1F621773078407BA0720F0621B730B34
:10387000840BBA0BEE1F88F7E09508950E94451C53
:103880006894B1110C94791A08950E945E1A88F018
:103890009F5798F0B92F9927B751B0F0E1F0660F14
:1038A000771F881F991F1AF0BA95C9F714C0B13055
:1038B00091F00E94781AB1E008950C94781A672F5D
:1038C000782F8827B85F39F0B93FCCF38695779584
:1038D0006795B395D9F73EF490958095709561956D
:1038E0007F4F8F4F9F4F08950E949A1908F48FEFD2
:1038F00008950F931F93CF93DF938230910510F4B7
:1039000082E090E0E0911004F091110420E030E0BA
:10391000A0E0B0E0309719F140815181028113811C
:1039200048175907C8F08417950769F4109731F0C4
:1039300012960C93129713961C9327C000931004B1
:103940001093110422C02115310519F042175307B5
:1039500018F49A01BD01EF01DF01F801DBCF211559
:103960003105F9F0281B390B2430310580F48A81A8
:103970009B816115710521F0FB019383828304C053
:103980009093110480931004FE01329644C0FE010E
:10399000E20FF31F819391932250310939832883D9
:1039A0003AC020910E0430910F04232B41F4209152
:1039B00002013091030130930F0420930E042091F3
:1039C0000001309101012115310541F42DB73EB7B9
:1039D0004091040150910501241B350BE0910E0428
:1039E000F0910F04E217F307A0F42E1B3F0B2817EA
:1039F000390778F0AC014E5F5F4F2417350748F068
:103A00004E0F5F1F50930F0440930E0481939193C8
:103A100002C0E0E0F0E0CF01DF91CF911F910F9164
:103A20000895CF93DF93009709F481C0FC0132978A
:103A300013821282A0911004B0911104109781F4A6
:103A400020813181820F931F20910E0430910F0449
:103A50002817390751F5F0930F04E0930E0467C05F
:103A6000ED0120E030E0CE17DF0740F44A815B81B2
:103A70009E0141155105F1F0EA01F5CFD383C283D0
:103A800040815181840F951FC817D90759F4888147
:103A90009981840F951F0296918380838A819B81EF
:103AA000938382832115310529F4F0931104E09367
:103AB00010043DC0E901FB83EA8349915991C40F89
:103AC000D51FEC17FD0761F480819181840F951F4C
:103AD0000296E90199838883828193819B838A83FB
:103AE000E0E0F0E012968D919C911397009719F009
:103AF000FD01DC01F7CF8D919C9111979D012E5F07
:103B00003F4F820F931F20910E0430910F0428170E
:103B1000390769F4309729F41092110410921004B7
:103B200002C013821282B0930F04A0930E04DF919F
:103B3000CF910895A0E0B0E0E0EAFDE10C94B51A61
:103B4000EC01009721F4CB010E94791CB4C0FC0168
:103B5000E60FF71F9C0122503109E217F30708F422
:103B6000A8C0D9010D911C91119706171707B0F045
:103B70000530110508F49BC0C80104978617970704
:103B800008F495C002501109061B170B01931193FD
:103B90006D937C93CF010E94111D89C05B01A01A17
:103BA000B10A4C01800E911EA0911004B091110435
:103BB000612C712CE12CF12C109709F446C08D91E9
:103BC0009C911197A815B905B1F56C0142E0C40E9E
:103BD000D11CCA14DB0478F14C018A189B086401DB
:103BE00042E0C40ED11C1296BC9012971396AC9171
:103BF000B5E0CB16D10440F0B282A38391828082DB
:103C0000D9016D937C9309C00E5F1F4F800F911FE8
:103C1000F90191838083EB2DFA2FE114F10431F047
:103C2000D7011396FC93EE93129741C0F0931104C1
:103C3000E09310043CC06816790608F43C017D014D
:103C400012960D90BC91A02DB7CF80910E0490914B
:103C50000F0488169906E1F466167706C8F4809179
:103C6000000190910101009741F48DB79EB74091FA
:103C7000040150910501841B950BE817F907C8F45E
:103C8000F0930F04E0930E04F901718360830FC079
:103C9000CB010E94791C7C01009759F0A801BE015C
:103CA0000E94651ECE010E94111DC70104C0CE01F5
:103CB00002C080E090E0CDB7DEB7EEE00C94D11A00
:103CC00081E090E0F8940C949E1EFB01DC0102C0A0
:103CD00001900D9241505040D8F70895FB01DC014E
:103CE00001900D920020E1F70895FB01DC014150A5
:103CF000504048F001900D920020C9F701C01D927C
:103D000041505040E0F70895FB0151915523A9F02F
:103D1000BF01DC014D9145174111E1F759F4CD0187
:103D20000190002049F04D9140154111C9F3FB016C
:103D30004111EFCF81E090E001970895F894FFCF13
:103D400000001204200000000000D5029603D602F5
:103D500098033F0400000000BA0127015101070247
:103D600082016001740100000000630336039303C5
:103D70004B022E031A030B03000000004C02270124
:103D800093034B029C02B4023302424E4F3035354E
:103D9000004F6F6F70732C206E6F20424E4F303586
:103DA000352031206465746563746564202E2E2E81
:103DB00020436865636B20796F757220776972693B
:103DC0006E67206F722049324320414444522100E3
:103DD00043616C6962726174696E67002E000A4407
:103DE0006F6E65210050726F6772616D2073746130
:103DF0007274656421002C0009626F647920616E21
:103E0000676C652069733A090009783A09000979F5
:063E10003A09000D0A0052
:00000001FF
