:100000000C94C7010C94EF010C94EF010C94E111D6
:100010000C94E1110C94E1110C94EF010C94EF019C
:100020000C94EF010C94EF010C94EF010C94EF0190
:100030000C94EF010C94EF010C94EF010C94EF0180
:100040000C94D0170C94EF010C945E0F0C940A1AC8
:100050000C94EF010C94EF010C94EF010C94EF0160
:100060000C944F050C94EF015B065F065F065F067C
:100070005F065F065F065F066F055F065F065F0649
:100080005F065F065F065F066F055F065F065F0639
:100090005F065F065F065F0677055F065F065F0621
:1000A0005F065F065F065F069D055F065F065F06EB
:1000B0005F065F065F065F0677055F065F065F0601
:1000C0005F065F065F065F06A3055F065F065F06C5
:1000D0005F065F065F065F06A9055F065F065F06AF
:1000E0005F065F065F065F06BB055F065F065F068D
:1000F0005F065F065F065F06E5055F065F065F0653
:100100005F065F065F065F06AF055F065F065F0678
:100110005F065F065F065F06C9055F065F065F064E
:100120005F065F065F065F06E8055F065F065F061F
:100130005F065F065F065F06E8055F065F065F060F
:100140005F065F065F065F06E8055F065F065F06FF
:100150005F065F065F065F06E8055F065F065F06EF
:100160005F065F065F065F06F1055F065F065F06D6
:100170005F065F065F065F0622065F065F065F0694
:100180005F065F065F065F06F1055F065F065F06B6
:100190005F065F065F065F0622065F065F065F0674
:1001A0005F065F065F065F0609065F065F065F067D
:1001B0005F065F065F065F0626065F065F065F0650
:1001C0005F065F065F065F0626065F065F065F0640
:1001D0005F065F065F065F063B065F065F065F061B
:1001E0005F065F065F065F0655065F065F065F06F1
:1001F0005F065F065F065F0655064E414E494E4953
:100200005459494E46CDCCCC3D0AD7233C17B7D1E3
:100210003877CC2B329595E6241FB14F0A00002089
:10022000410000C84200401C4620BCBE4CCA1B0E08
:100230005AAEC59D7400407A10F35A00A0724E1851
:10024000090010A5D4E80000E87648170000E40B88
:1002500054020000CA9A3B000000E1F5050000804E
:10026000969800000040420F000000A086010000A8
:1002700000102700000000E80300000000640000F8
:100280000000000A00000000000100000000002C37
:1002900076D888DC674F0823DFC1DFAE59E1B1B7FC
:1002A00096E5E3E453C63AE651997696E8E6C284C9
:1002B00026EB898C9B62ED407C6FFCEFBC9C9F40E1
:1002C000F2BAA56FA5F490055A2AF75C936B6CF906
:1002D000676DC11BFCE0E40D47FEF520E6B500D0DC
:1002E000ED902E0300943577050080841E080000F1
:1002F000204E0A000000C80C333333330F986E12BF
:10030000831141EF8D2114893BE65516CFFEE6DBC4
:1003100018D1844B381BF77C1D901DA4BBE424200E
:100320003284725E228100C9F124ECA1E53D2700F0
:100330000000002300260029000000000024002700
:10034000002A0000000000250028002B00040404FF
:10035000040404040402020202020203030303036E
:10036000030102040810204080010204081020014B
:10037000020408102000000008000201000003042D
:1003800007000000000000000000D716FA06112444
:100390001FBECFEFD8E0DEBFCDBF12E0A0E0B1E0DE
:1003A000E0E2F7E402C005900D92AA31B107D9F757
:1003B00024E0AAE1B2E001C01D92AB33B207E1F73D
:1003C00011E0C6ECD1E004C02197FE010E943A2062
:1003D000C53CD107C9F70E9431180C9483230C94B3
:1003E00000000F931F93FC018AE291E091838083C8
:1003F00046835783608771872383158304831F9106
:100400000F910895089585EC8093BC001092240309
:10041000089585ED8093BC008091BC0084FDFCCFE5
:10042000109224030895882321F085EC8093BC006A
:10043000089585E88093BC0008959093FD02809311
:10044000FC02089590930103809300030895AC018A
:100450009091FE02262F30E0290F311D2132310507
:10046000F4F4809124038430E1F490E00FC0809193
:10047000FE02292F30E0F901E80FF11DDA01A20F89
:10048000B31F8C91E452FD4F80839F5F961778F3E2
:100490008091FE02680F6093FE0280E0089581E083
:1004A000089582E008950F93CF93413208F052C02F
:1004B000C0912403C111FCCF92E0909324030093D8
:1004C00026039FEF90932303109248034093470322
:1004D00090E00AC0E92FF0E0DB01AE0FBF1F3C91B6
:1004E000E95DFC4F30839F5F9417A0F3109249039E
:1004F000482F50E0440F551F80914903482B4093EB
:10050000490380912503813071F410922503809175
:1005100049038093BB008091BC0083FDF8CF85EC3C
:100520008093BC0003C085EE8093BC00222321F0A1
:10053000809124038230D1F3809123038F3F79F09F
:1005400080912303803241F080912303803331F482
:10055000C3E005C0C1E003C0C2E001C0C4E08C2F0D
:10056000CF910F910895413208F04BC09091240330
:100570009111FCCF91E090932403209326032FEF59
:100580002093230310924803240F20934703909352
:10059000490390E0880F991F90914903892B80931C
:1005A000490380912503813071F4109225038091D5
:1005B00049038093BB008091BC0083FDF8CF85EC9C
:1005C0008093BC0003C085EE8093BC00809124031F
:1005D0008130E1F380914803841710F4409148037F
:1005E00090E00BC0292F30E0FB01E20FF31FD9018F
:1005F000A95DBC4F2C9120839F5F941798F3842FA3
:10060000089580E00895089508950895E091CD0239
:100610008091CC02E81730F4F0E0E455FD4F808182
:1006200090E008958FEF9FEF08959091CD02809113
:10063000CC02981750F4E92FF0E0E455FD4F2081EB
:1006400030E09F5F9093CD0202C02FEF3FEFC901D2
:1006500008958091CC0290E02091CD02821B9109F7
:100660000895CF92DF92EF92FF920F931F93CF9353
:10067000DF938C016B017A018091AB02882399F0A2
:10068000C0E0D0E0CE15DF0590F4D801ED91FC91EB
:100690000190F081E02DD601AC0FBD1F6C91C80117
:1006A00009952196EFCF642FC6010E942702C7014A
:1006B000DF91CF911F910F91FF90EF90DF90CF903E
:1006C0000895CF93DF931F92CDB7DEB7FC01698306
:1006D0009091AB029923D9F09091CE02903238F0EC
:1006E00081E090E09383828380E090E017C0809166
:1006F000CF02E82FF0E0E557FD4F998190838F5F9F
:100700008093CF028093CE0281E090E007C061E049
:10071000CE0101960E94270281E090E00F90DF91C8
:10072000CF9108950F934091CE02062F21E06BE800
:1007300072E080918A020E9453021092CF021092BE
:10074000CE021092AB020F910895FC011382128227
:1007500088EE93E0A0E0B0E084839583A683B7831E
:100760008AE091E0918380830895089580E090E08D
:10077000089560E070E0CB010895462FFC01628788
:1007800073876DE370E00E94B6126EE170E080E066
:1007900090E00E945A170895FF920F931F93CF93F2
:1007A000DF93EC01F62E0A851B8560E070E00E9465
:1007B000BD0369E170E080E090E00E945A1740E0DC
:1007C00067E070E0CE010E94B612FF2039F040E8E9
:1007D0006FE370E0CE010E94B61206C040E06FE306
:1007E00070E0CE010E94B6126AE070E080E090E016
:1007F0000E945A17B801CE010E94BD0364E170E067
:1008000080E090E00E945A17DF91CF911F910F91E5
:10081000FF9008951092240381E0809326031092A4
:10082000250361E082E10E94EA1661E083E10E9413
:10083000EA16E9EBF0E080818E7F808380818D7FF6
:10084000808388E48093B80085E48093BC00089599
:100850001092CD021092CC021092CF021092CE02D2
:100860000E940A0483E093E00E941D0284E093E06A
:100870000E94220208950F931F93CF93DF93EC0100
:100880008B018C819D810E94280460E070E0CE0184
:100890000E948B12803A71F068EE73E080E090E085
:1008A0000E945A1760E070E0CE010E948B12803ADD
:1008B00009F04FC060E070E0CE010E94BD0340E24D
:1008C0006FE370E0CE010E94B6126EE170E080E04E
:1008D00090E00E945A1760E070E0CE010E948B12F7
:1008E000803A39F06AE070E080E090E00E945A17A8
:1008F000F2CF62E370E080E090E00E945A1740E09F
:100900006EE370E0CE010E94B6126AE070E080E013
:1009100090E00E945A1740E067E070E0CE010E942C
:10092000B61240E06FE370E0CE010E94B6126AE0BA
:1009300070E080E090E00E945A17B801CE010E945A
:10094000BD0364E170E080E090E00E945A1781E00E
:1009500001C080E0DF91CF911F910F9108950F9317
:100960001F93CF93DF93CDB7DEB72C970FB6F894D4
:10097000DEBF0FBECDBF8C01FC01608171814AE1F9
:1009800050E0CE0101960E94E01220E030E02330DA
:100990003105CCF4C901880F991F880F991FE1E038
:1009A000F0E0EC0FFD1FE80FF91F408151816281DB
:1009B0007381F801E80FF91F4283538364837583C1
:1009C0002F5F3F4FE4CFF80182859385A485B585DD
:1009D0004681578160857185428F538F648F758FF3
:1009E000868F978FA0A3B1A32C960FB6F894DEBF85
:1009F0000FBECDBFDF91CF911F910F910895CF937F
:100A0000DF93EC016CE070E0888199810E943B04E7
:100A1000811107C066E771E08FE893E00E94C11979
:100A2000FFCF68EE73E080E090E00E945A1761E02B
:100A3000888199810E94CC03CE010E94AF04DF918E
:100A4000CF910895DF92EF92FF920F931F93CF9370
:100A5000DF93EC01D62EFC0132968CE0DF01982F5B
:100A60001D929A95E9F73C96DF011D928A95E9F768
:100A70008CE090E00E942E187C0100ED12E02D2DFC
:100A80004FEF5FEFBA010E94F101F982E882DF9136
:100A9000CF911F910F91FF90EF90DF9008951F92DB
:100AA0000F920FB60F9211242F933F934F935F93A2
:100AB0006F937F938F939F93AF93BF93EF93FF9326
:100AC0008091B900E82FE87F8E2F90E0893C910556
:100AD00008F0F5C0FC01EC5CFF4F0C943A208091CB
:100AE00049038093BB0081E00E941302E8C090910B
:100AF000480380914703981780F4E091480381E010
:100B00008E0F80934803F0E0E95DFC4F8081809375
:100B1000BB0081E00E941302D2C08091260388238B
:100B200019F00E940902CBC081E08093250384EA7A
:100B30008093BC0010922403C2C080E28093230300
:100B40000E940902BCC080E3809323030E94090233
:100B5000B6C088E3809323030E940302B0C0E091F3
:100B6000480381E08E0F80934803F0E08091BB0042
:100B7000E95DFC4F8083909148038091470398176B
:100B800020F481E00E9413029AC080E00E941302C8
:100B900096C0E091480381E08E0F80934803F0E017
:100BA0008091BB00E95DFC4F808380912603882300
:100BB00019F00E94090283C081E08093250384EA32
:100BC0008093BC00109224037AC00E94090277C06F
:100BD00083E0809324031092220381E00E94130299
:100BE0006EC080912203803280F4E091220381E084
:100BF0008E0F80932203F0E08091BB00EE5FFC4FEC
:100C0000808381E00E9413025AC080E00E94130298
:100C100056C00E94030280912203803230F4E0919A
:100C20002203F0E0EE5FFC4F10826091220370E03F
:100C3000E0910003F091010382E093E009951092A6
:100C400022033DC080E00E94130239C084E08093FB
:100C500024031092FF021092FE02E091FC02F09138
:100C6000FD0209958091FE02811105C081E080930B
:100C7000FE021092DC02E091FF0281E08E0F809371
:100C8000FF02F0E0E452FD4F80818093BB00909121
:100C9000FF028091FE02981720F481E00E94130267
:100CA0000EC080E00E9413020AC081E00E9413027D
:100CB0001092240304C0109223030E940902FF91A2
:100CC000EF91BF91AF919F918F917F916F915F91C4
:100CD0004F913F912F910F900FBE0F901F9018953D
:100CE000019739F46F3F7F4F21F480ED92E00E942D
:100CF000A503089561E00E949203089581E0809326
:100D0000AB0260938A021092CF021092CE02089535
:100D10008F929F92AF92BF92CF92DF92EF92FF920B
:100D20000F931F93CF93DF93EC01D62EF42E48013F
:100D30005901EE2069F10E947E0623E02E1520F471
:100D40000F2EF3E0EF2EF02D1FEF1E0DEE20E1F041
:100D5000E881F9810190F081E02D812F90E0880FEA
:100D6000991F880F991F880F991FA501940104C02E
:100D700056954795379527958A95D2F7CA01B901B7
:100D8000CE010995E12EE0CF60E0CE010E949203F2
:100D900030E23F1518F46894FF24F5F82C2D4F2D00
:100DA0006CEA72E08D2D0E94B3021092CD02809306
:100DB000CC02DF91CF911F910F91FF90EF90DF90C8
:100DC000CF90BF90AF909F908F900895CF92EF9269
:100DD0000F931F93C22EE12C00E010E098010E94B7
:100DE00088061F910F91EF90CF90089521E00E9407
:100DF000E60608956FEF7FEF80E090E00E94010724
:100E00000895CF93DF93019721F56F3F7F4F09F549
:100E10008FE190E00E942E18EC0120E042E063E0B8
:100E20000E94B511D0938102C093800240E855E240
:100E300060E070E0CE010E94131169E270E08EE57F
:100E400092E00E94220568E270E08CE392E00E944A
:100E50002205DF91CF910895CF92DF92EF92FF921A
:100E60000F931F93CF93DF93CDB7DEB7EC970FB6F9
:100E7000F894DEBF0FBECDBF26E040E854E86EE137
:100E800070E08FE893E00E94960F64EF71E080E0DD
:100E900090E00E945A170AE112E084E290E0F80123
:100EA0009383828323EF30E0358324838FE790E0C0
:100EB000978386834AE050E05187408733872287B3
:100EC0009587848783E090E00E942E187C0166E07D
:100ED00070E00E94D810F801F182E0828CB5837F27
:100EE0008CBD8CB58F7D8CBD8CB58C7F81608CBDAD
:100EF0008DB581608DBD0E94DD10F80180819181EA
:100F00000E94BB108EE592E00E94FF048CE392E009
:100F10000E94FF0465EB71E08FE893E00E94D7190F
:100F20000E9494176B017C010E949417DC01CB0195
:100F30008C199D09AE09BF09803D9740A105B105F7
:100F400008F081C060913C0270913D024AE150E09E
:100F5000CE0101960E94E01220E030E023303105FE
:100F6000CCF4C901880F991F880F991FE1E0F0E0C8
:100F7000EC0FFD1FE80FF91F4081518162817381E1
:100F8000FC01E45CFD4F42835383648375832F5FD0
:100F90003F4FE4CFECE3F2E082859385A485B585ED
:100FA0004681578160857185428F538F648F758F1D
:100FB000868F978FA0A3B1A360915E0270915F02AC
:100FC0004AE150E0CE010D960E94E01220E030E0B0
:100FD00023303105CCF4C901880F991F880F991F60
:100FE000E1E0F0E0EC0FFD1FE80FF91F44855585A7
:100FF00066857785FC01E25AFD4F42835383648303
:1010000075832F5F3F4FE4CFEEE5F2E08285938555
:10101000A485B5854681578160857185428F538F40
:10102000648F758F868F978FA0A3B1A361EC71E059
:101030008FE893E00E94C11964E670E080E090E0E0
:101040000E945A1771CF63EC71E08FE893E00E9421
:10105000D7196AEC71E08FE893E00E94D71920E07D
:1010600030E023303105CCF4C901880F991F880F77
:10107000991FFC01E25AFD4F4685578560897189A9
:10108000E1E0F0E0EC0FFD1FE80FF91F40AB51ABC2
:1010900062AB73AB2F5F3F4FE4CF89A99AA9ABA98D
:1010A000BCA98093380290933902A0933A02B0937E
:1010B0003B0220E030E023303105CCF4C901880F39
:1010C000991F880F991FFC01E25AFD4F46855785ED
:1010D00060897189E1E0F0E0EC0FFD1FE80FF91F76
:1010E00044A355A366A377A32F5F3F4FE4CF89A501
:1010F0009AA5ABA5BCA58093340290933502A0932A
:101100003602B093370220E030E023303105CCF4D2
:10111000C901880F991F880F991FFC01E25AFD4FE2
:101120004685578560897189E1E0F0E0EC0FFD1F8D
:10113000E80FF91F408F518F628F738F2F5F3F4FE2
:10114000E4CF89A19AA1ABA1BCA180933002909376
:101150003102A0933202B0933302EC960FB6F894AA
:10116000DEBF0FBECDBFDF91CF911F910F91FF90DA
:10117000EF90DF90CF900895CF93DF93CDB7DEB798
:10118000C854D1090FB6F894DEBF0FBECDBF20E022
:1011900030E023303105CCF4C901880F991F880F46
:1011A000991FFC01E25AFD4F468557856089718978
:1011B000E1E0F0E0EC0FFD1FE80FF91F46AB57AB85
:1011C00060AF71AF2F5F3F4FE4CF6FA978AD89ADAE
:1011D0009AAD209138023091390240913A025091F3
:1011E0003B020E944920AB01BC0122E0CE018D5B95
:1011F0009F4F0E94A0186DEF71E0CE01C1960E9432
:10120000FC18BE016D5B7F4FCE01C1960E9487180E
:10121000BC018FE893E00E94E919CE01C1960E94BB
:101220009A18CE018D5B9F4F0E949A1820E030E003
:1012300023303105CCF4C901880F991F880F991FFD
:10124000FC01E25AFD4F4685578560897189E1E0CE
:10125000F0E0EC0FFD1FE80FF91F468F578F60A3DA
:1012600071A32F5F3F4FE4CF6BA17CA18DA19EA105
:10127000209134023091350240913602509137026C
:101280000E944920AB01BC0122E0CE018B960E9456
:10129000A0186DEF71E0CE0149960E94FC18BE01C6
:1012A000655D7F4FCE0149960E948718BC018FE88B
:1012B00093E00E94E919CE0149960E949A18CE0146
:1012C0008B960E949A1820E030E023303105CCF450
:1012D000C901880F991F880F991FFC01E25AFD4F21
:1012E0004685578560897189E1E0F0E0EC0FFD1FCC
:1012F000E80FF91F46835783608771872F5F3F4F41
:10130000E4CF6F85788989899A892091300230915C
:10131000310240913202509133020E944920AB01C8
:10132000BC0122E0CE0143960E94A0186DEF71E04F
:10133000CE0101960E94FC18BE016D5E7F4FCE016A
:1013400001960E948718BC018FE893E00E94E9197A
:10135000CE0101960E949A18CE0143960E949A18D7
:10136000C85BDF4F0FB6F894DEBF0FBECDBFDF9175
:10137000CF910895AF92BF92CF92DF92EF92FF92FA
:101380000F931F93CF93DF93CDB7DEB768970FB658
:10139000F894DEBF0FBECDBF00E812E0F801648113
:1013A00075814AE0CE0143960E94D0186BED71E042
:1013B000CE010D960E94FC18BE016D5E7F4FCE01DE
:1013C0000D960E948718BC018FE893E00E94E919EE
:1013D000CE010D960E949A18CE0143960E949A184B
:1013E000F801628173814AE0CE0107960E94D0180D
:1013F0006DEF71E0CE0101960E94FC18BE01695F9D
:101400007F4FCE0101960E948718BC018FE893E0C0
:101410000E94E919CE0101960E949A18CE01079602
:101420000E949A18F80164817581072E000C880BC0
:10143000990B1F921F921F9224E62F93A12CB12C7F
:10144000650113EDE12EFF24FA940FEF1FEF20E06A
:1014500030E0A9010E9459190F900F900F900F9042
:10146000CB0168960FB6F894DEBF0FBECDBFDF91FB
:10147000CF911F910F91FF90EF90DF90CF90BF9091
:10148000AF900895CF92DF92EF92FF92CF93DF93C8
:10149000CDB7DEB768970FB6F894DEBF0FBECDBFED
:1014A0000E94B9030E9428216B017C010E94BA09A5
:1014B0004AE0BC01CE0143960E94D0186DEE71E067
:1014C000CE010D960E94FC18BE016D5E7F4FCE01CD
:1014D0000D960E948718BC018FE893E00E94E919DD
:1014E000CE010D960E949A18CE0143960E949A183A
:1014F0004AE0B601CE0107960E94D01866EF71E06F
:10150000CE0101960E94FC18BE01695F7F4FCE019B
:1015100001960E948718BC018FE893E00E94E919A8
:10152000CE0101960E949A18CE0107960E949A1841
:1015300068960FB6F894DEBF0FBECDBFDF91CF9196
:10154000FF90EF90DF90CF9008956F927F928F92EF
:101550009F92AF92BF92CF92DF92EF92FF920F9342
:101560001F93CF93DF93CDB7DEB7C257D1090FB624
:10157000F894DEBF0FBECDBF0E9494174B015C01F3
:101580006090280270902902B0912A02A0912B024B
:10159000F0912C02E0912D0200912E0210912F0269
:1015A000262F392D4A2D5B2D60E070E080E090E021
:1015B000A62CB72CCB2EDA2EEF2EFE2E0E9440202A
:1015C00009F00CF4BEC10E949417DC01CB01819696
:1015D000A11DB11D4C015D0180932802909229024A
:1015E000A0922A02B0922B0210922C0210922D028D
:1015F00010922E0210922F0280918002909181020F
:10160000DC01ED91FC910084F185E02D0995892B99
:1016100009F4C3C000E812E0F801608171814AE07A
:10162000CE0183599F4F0E949A196FEF71E0CE014E
:1016300007960E94FC18BE01695F7F4FCE01835957
:101640009F4F0E9482189C0140E050E0BE01635908
:101650007F4FCE0101960E941119CE0101960E9482
:101660004618D80115967C936E931497CE01019677
:101670000E949A18CE0107960E949A186FEF71E0A7
:10168000CE010D960E94FC18BE01635F7F4FCE0114
:1016900083599F4F0E948218AC014F5F5F4F60E0FB
:1016A00070E0CE0183599F4F0E945218CE010D96D3
:1016B0000E949A186FEF71E0CE0149960E94FC18C3
:1016C000BE01675E7F4FCE0183599F4F0E948218F3
:1016D0009C0140E050E0BE0163597F4FCE0143962C
:1016E0000E941119CE0143960E944618F801738397
:1016F0006283CE0143960E949A18CE0149960E94B9
:101700009A186FEF71E0CE014F960E94FC18BE014F
:10171000615E7F4FCE0183599F4F0E948218AC01BA
:101720004F5F5F4F60E070E0CE0183599F4F0E9492
:101730005218CE014F960E949A186FEF71E0CE01B9
:101740008B960E94FC18BE01655D7F4FCE018359C8
:101750009F4F0E9482189C0140E050E0BE016359F7
:101760007F4FCE0185960E941119CE0185960E9469
:101770003A18D80116966D937D938D939C93199783
:10178000CE0185960E949A18CE018B960E949A18D7
:10179000CE0183599F4F0E949A1860915E0270910A
:1017A0005F024AE150E0CE01C1960E94E01220E0C3
:1017B00030E023303105CCF4C901880F991F880F20
:1017C000991FE1E0F0E0EC0FFD1FE80FF91F40A9C1
:1017D00051A962A973A9FC01E25AFD4F42835383C8
:1017E000648375832F5F3F4FE4CF60915E027091F9
:1017F0005F0248E250E0CE01CD960E94E01220E068
:1018000030E023303105CCF4C901880F991F880FCF
:10181000991FE1E0F0E0EC0FFD1FE80FF91F44AD68
:1018200055AD66AD77ADFC01E25AFD4F468757874F
:10183000608B718B2F5F3F4FE4CF60913C027091C2
:101840003D024AE150E0CE01875B9F4F0E94E012CB
:1018500020E030E023303105CCF4C901880F991F16
:10186000880F991FE9E4F0E0EC0FFD1FE80FF91F66
:101870004081518162817381FC01E45CFD4F4283B0
:101880005383648375832F5F3F4FE4CF60913C02A5
:1018900070913D0248E250E0CE018B5A9F4F0E946A
:1018A000E01220E030E023303105CCF4C901880F8C
:1018B000991F880F991FE5E5F0E0EC0FFD1FE80F79
:1018C000F91F4081518162817381FC01E45CFD4F0D
:1018D00046875787608B718B2F5F3F4FE4CF0E9405
:1018E000BC080E94420A00912802109129020E941D
:1018F0009417F801E61BF70BBF014AE0CE018959A6
:101900009F4F0E94D01861E072E0CE018F599F4F27
:101910000E94FC18BE0169597F4FCE018F599F4F1D
:101920000E948718BC018FE893E00E94F819CE014D
:101930008F599F4F0E949A18CE0189599F4F0E943C
:101940009A18CE58DF4F0FB6F894DEBF0FBECDBF4A
:10195000DF91CF911F910F91FF90EF90DF90CF908B
:10196000BF90AF909F908F907F906F900895FC01F3
:10197000238D348D231738F08FE390E0821B91097B
:10198000830F911D0895832F90E0821B9109019789
:101990000895FC01918D828D981761F0828DDF0191
:1019A000A80FB11D5D968C91928D9F5F9F73928F52
:1019B00090E008958FEF9FEF0895FC01918D828D47
:1019C000981731F0828DE80FF11D858D90E0089514
:1019D0008FEF9FEF0895FC01218D30E0205C3F4F99
:1019E000828DA901481B5109CA018F739927089557
:1019F00080E090E0892B19F00E94D91501C080E0A9
:101A000081110E940000089520918C0330918D0374
:101A10002817390771F490918B0380918A039817E6
:101A200059F0E0918B03F0E0E65BFC4F808190E0A1
:101A300008958FEF9FEF08958FEF9FEF089508951A
:101A40000F931F93CF93DF93EC014C8D5D8D411568
:101A5000510529F481E090E09B838A833CC0A989E9
:101A6000BA898889382F30950FB79E8D192F12703B
:101A700091FD6095F894112321F09C91982B9C93F3
:101A800003C09C9193239C93FA013197F1F798E05E
:101A9000992389F060FF04C02C91282B2C9303C05C
:101AA0002C9123232C93FA013197F1F770E075956F
:101AB00067959150EDCF112321F08C9138233C9301
:101AC00003C09C91892B8C930FBF8C8D9D8D0197AA
:101AD000F1F741E050E0CA01DF91CF911F910F91E2
:101AE000089520918C0330918D0328173907B1F4A4
:101AF00020918A0330E0205C3F4F80918B03281BAC
:101B000031092F733078332334F421503109206C9C
:101B10003F6F2F5F3F4F822F932F089580E090E01B
:101B2000089520918C0330918D0328173907F9F41B
:101B300090918B0380918A039817E1F0E0918B03D9
:101B4000F0E0E65BFC4F808120918B0330E02F5F5B
:101B50003F4F2F733078332334F421503109206CF8
:101B60003F6F2F5F3F4F20938B0390E008958FEFDF
:101B70009FEF08958FEF9FEF08956817790718F486
:101B8000861B970B089581E090E00895FC01A685DF
:101B9000B7859C9185858923089520918C03309188
:101BA0008D032817390789F4DC015396ED91FC91D8
:101BB0005497208155968C91809582238083109232
:101BC0008D0310928C0381E0089580E00895CF93F7
:101BD000DF93EC018A8D9B8D892BF1F080918C0332
:101BE00090918D03C817D907C9F0009711F00E9492
:101BF000CD0D8E8D8E7F8E8F10928A0310928B0367
:101C0000D0938D03C0938C03EB89FC8990818D89DF
:101C1000892B808381E003C080E001C080E0DF91F8
:101C2000CF9108952CE131E0FC01318320830895A8
:101C3000FC012281211105C061E080810E94EA1629
:101C4000089560E0FC0180810E94EA160895FC017D
:101C50002281211105C060E080810E94EA1608956A
:101C600061E0FC0180810E94EA160895CF92DF9224
:101C7000EF92FF920F931F93CF93DF937C01C62FB8
:101C8000D42F69010E94270E9601317080E1C89F10
:101C9000B0011124D3708D2F90E0880F991F880F09
:101CA000991F682B632B6EBD00000DB407FEFDCF9E
:101CB000CEB52EBD00000DB407FEFDCFDEB5C701C9
:101CC0000E94180EC1701C2F00E0C8018D2BDF91FF
:101CD000CF911F910F91FF90EF90DF90CF900895DB
:101CE0001F93CF93DF93EC01162F60E0812F0E94AA
:101CF0001B178E8D81FD04C061E0812F0E94EA16C2
:101D00001C87612F70E0FB01EF59FC4FE491ED87D8
:101D1000FB01E35BFC4FE491F0E0EE0FFF1FE15DA0
:101D2000FC4F859194919F878E87DF91CF911F9172
:101D300008951F93CF93DF93EC01162F6E8D669558
:101D400081E068276170812F0E94EA1661E0812F8F
:101D50000E941B17812F90E0FC01EF59FC4FE4918A
:101D6000E88BFC01E35BFC4FE491F0E0EE0FFF1F1A
:101D7000ED5BFC4F859194919A8B898BDF91CF918C
:101D80001F9108952CE131E0FC01318320830E94F2
:101D90002B180895CF92DF92EF92FF920F931F932B
:101DA000CF93DF937C01C62F6A01D22FDC011396FB
:101DB0006C91139714968D919C9115970E947E06B5
:101DC000F70184819581DC01ED91FC910190F08116
:101DD000E02D6C2F0995F701848195810E947A0688
:101DE000D70113966C9113974D2F14968D919C915A
:101DF00015970E94F606C0E0CD1788F486010C0FF7
:101E0000111DF70184819581DC01ED91FC91028423
:101E1000F385E02D0995F8018083CF5FEDCF81E058
:101E2000DF91CF911F910F91FF90EF90DF90CF90B6
:101E300008950F931F93CF93DF938C01EB0188E2FA
:101E4000FB0111928A95E9F74BE050E06FE072E0F8
:101E5000CE010E945A231B8681E090E0A0E0B0E012
:101E60008C879D87AE87BF87F80186819781A08583
:101E7000B185888B998BAA8BBB8B83E090E0A0E027
:101E8000B0E08C8B9D8BAE8BBF8B1CA21DA21EA2C3
:101E90001FA2188E198E1A8E1B8E1C8E1D8E1E8EE2
:101EA0001F8E8AE097EDA3E2BCE388A399A3AAA3BF
:101EB000BBA3DF91CF911F910F9108951F920F92B5
:101EC0000FB60F9211242F938F939F93AF93BF93CD
:101ED000EF93FF93E0919F03F091A003808182FD37
:101EE00014C0EFE8F3E0A689B7892C91818D8F5F4C
:101EF0008F73928D891771F0DF01E18DF0E0E1576A
:101F0000FC4F258F59968C9305C0E091A503F09165
:101F1000A6038081FF91EF91BF91AF919F918F9127
:101F20002F910F900FBE0F901F901895CF92DF92B8
:101F3000EF92FF921F93CF93DF93EC016A017B0135
:101F4000122F60E079E08DE390E0A70196010E94F6
:101F5000F91FDA01C9010197A109B109B695A79541
:101F6000979587959C01E889F98982E08083C1145F
:101F700081EED806E104F10421F0211580E1380753
:101F8000A8F0E889F989108260E874E88EE190E0B1
:101F9000A70196010E94F91FDA01C9010197A10961
:101FA000B109B695A795979587959C01EC85FD8518
:101FB0003083EE85FF852083188EEC89FD891083A0
:101FC000EA89FB89808180618083EA89FB8980813D
:101FD00088608083EA89FB89808180688083EA89C0
:101FE000FB8980818F7D8083DF91CF911F91FF904E
:101FF000EF90DF90CF900895FC01848DDF01A80F52
:10200000B11DA35ABF4F8C91248D30E02F5F3F4FFD
:102010002F733078332334F421503109206C3F6F13
:102020002F5F3F4F248FA689B7898C93A089B189F0
:102030008C91837080648C93938D848D981306C0EB
:102040000288F389E02D80818F7D808308950F932E
:102050001F93CF93DF93EC0181E0888F9B8D8C8D54
:10206000981307C0E889F989808185FD04C080E064
:1020700003C080E001C081E0882391F08FB7F8941D
:1020800091E0992359F0EE89FF896083E889F98905
:10209000908193709064908390E0F3CF8FBF34C0B1
:1020A0002B8D30E02F5F3F4F2F733078332334F484
:1020B00021503109206C3F6F2F5F3F4F162F022FA9
:1020C0008C8D08130CC00FB607FCFACFE889F9898C
:1020D000808185FFF5CFCE010E94FC0FF1CF8B8D63
:1020E000FE01E80FF11DE35AFF4F10839FB7F894EC
:1020F00081E0882341F00B8FEA89FB89808180622F
:10210000808380E0F6CF9FBF81E090E0DF91CF91A8
:102110001F910F9108951F93CF93DF93EC01188DBA
:10212000112329F1EA89FB89808185FD07C0A889EF
:10213000B9898C9186FD04C0812F03C0812F01C015
:1021400080E08823A1F00FB607FC05C0908195FDC3
:1021500003C080E001C080E0882321F3E889F98989
:10216000808185FFDFCFCE010E94FC0FDBCFDF91A6
:10217000CF911F910895CF93DF93EC0161E08881A7
:102180000E941B1761E088810E94EA1660E0888146
:102190000E94EA162FEF31E040E064E0CE010E9499
:1021A000360E61E088810E94EA16DF91CF91089592
:1021B000FC017183608312820895CF93CFB7F894A6
:1021C00080918E03811127C0E7E5F3E08491EBE66F
:1021D000F3E09491E82FF0E0EE0FFF1FE75CFC4F77
:1021E000A591B491EC91E92321F461E08AE00E9489
:1021F000EA1661E08AE00E941B178CB580618CBDF5
:102200008CB580648CBD61E08DE00E941B1761E09D
:102210008BE00E941B1780918E038F5F80938E034B
:10222000CFBFCF910895CF92DF92EF92FF921F938D
:10223000CF93DF93EC019A01AB011D8E1C8E1B8E98
:102240001A8E198E188E1F8A1E8A60E079E08DE33F
:1022500090E00E94981F69017A0163E070E0C90173
:102260000E94BD0D9D8F8C8F1C85163108F072C0A9
:10227000C6019695879563E170E00E94BD0D9F8B26
:102280008E8B65E070E0C6010E94BD0D998F888F2E
:10229000C601880F991F8C0D9D1D6CE070E096950E
:1022A0008795969587950E94BD0D9B8F8A8F1631D5
:1022B00018F4E8E6F0E002C0E0E0F0E0163118F4CF
:1022C000A8E6B0E002C0A0E0B0E09C91183050F069
:1022D00021E01E3008F420E081E001C0880F2A953B
:1022E000EAF701C084E0892B80838C85883038F040
:1022F0008E3040F0863148F42CE630E008C02DE600
:1023000030E005C02BE630E002C020E030E03C8B3E
:102310002B8B883038F491E001C0990F8A95EAF749
:10232000892F13C08E3048F490E0089791E001C0E7
:10233000990F8A95EAF7892F08C090E00E9791E0EF
:1023400001C0990F8A95EAF7892F8D8B8C8D9D8D11
:102350000197F1F7CE010E94E70DDF91CF911F9118
:10236000FF90EF90DF90CF9008951F93CF93DF936E
:10237000EC01162F1B821A8288EE93E0A0E0B0E0F9
:102380008C839D83AE83BF8388E391E099838883A8
:102390001F8A1E8A198E188E1B8E1A8E1D8E1C8EF9
:1023A0008E8D8E7F20FB81F98E8F642FCE010E944F
:1023B000990E612FCE010E94700EDF91CF911F9177
:1023C00008951F920F920FB60F921124EF92FF9271
:1023D0000F931F932F933F934F935F936F937F932D
:1023E0008F939F93AF93BF93CF93DF93EF93FF931D
:1023F00000918C0310918D030115110509F474C02F
:10240000D8015E968C9181FF08C0C8010E94C60D5C
:1024100091E0811108C090E006C0C8010E94C60D7D
:1024200091E0811190E0992309F45EC0D8015396A0
:10243000ED91FC915497908155968C91559780958C
:102440008923808356968D919C9157970197F1F738
:102450006894FF24F3F8E12CFF20A1F0F801808DAF
:10246000918D0197F1F7CE2DD0E0D595C795EC2E43
:10247000C8010E94C60D882319F0FC2FF068EF2ECA
:10248000FA94EACFD8015E968C9181FDE094809118
:102490008A0390E001968F739078992324F4019732
:1024A000806C9F6F019620918B03281749F0E09173
:1024B0008A03F0E0E65BFC4FE08280938A0304C06D
:1024C000F801868D8160868FD8015A968D919C91F6
:1024D0005B970197F1F75396ED91FC91549790819A
:1024E00055968C91892B8083FF91EF91DF91CF914D
:1024F000BF91AF919F918F917F916F915F914F911C
:102500003F912F911F910F91FF90EF900F900FBE71
:102510000F901F9018951F93CF93DF93EC01162F08
:102520006B818C819D810E947E068C819D81DC0166
:10253000ED91FC910190F081E02D612F09958C8146
:102540009D810E947A066B8141E08C819D810E9471
:10255000F6068C819D81DC01ED91FC910284F3856E
:10256000E02D0995DF91CF911F9108950F931F934F
:10257000CF93DF93EC01062F142F6B818C819D810B
:102580000E947E068C819D81DC01ED91FC91019081
:10259000F081E02D602F09958C819D81DC01ED910A
:1025A000FC910190F081E02D612F09958C819D8136
:1025B0000E947A0681E0DF91CF911F910F910895DB
:1025C000AF92BF92CF92DF92EF92FF920F931F9341
:1025D000CF93DF9300D000D000D0CDB7DEB78C0111
:1025E000CB017A012CE0F80111922A95E9F7AE01AE
:1025F0004F5F5F4F26E0FA0111922A95E9F726E036
:10260000B7010E94CA0E89816A8170E0762F662721
:10261000682B2B818C8190E0982F88276C01C22A2F
:102620002D818E8190E0982F88275C01A22AF4E109
:10263000EF16F10409F44FC050F4E8E0EE16F1048F
:1026400009F4B1C0FEE0EF16F10489F047C188E259
:10265000E816F10409F4DBC0EEE2EE16F10409F429
:102660000AC1FAE1EF16F10409F038C168C0072E7B
:10267000000C880B990B0E94781E20E030E040E8A7
:102680005DE30E94D71EF801608371838283938388
:10269000B601DD0C880B990B0E94781E20E030E01B
:1026A00040E85DE30E94D71EF8016483758386834A
:1026B0009783B501BB0C880B990B0E94781E20E014
:1026C00030E040E85DE30E94D71EF8016087718723
:1026D0008287938703C1072E000C880B990B0E94F9
:1026E000781E20E030E040E85DE30E94D71EF8014C
:1026F0006083718382839383B601DD0C880B990B11
:102700000E94781E20E030E040E85DE30E94D71E82
:10271000F8016483758386839783B501BB0C880BAE
:10272000990B0E94781E20E030E040E85DE30E94B3
:10273000D71EF8016087718782879387CFC0072EE5
:10274000000C880B990B0E94781E20E030E040E8D6
:102750005DE30E94D71EF8016083718382839383B7
:10276000B601DD0C880B990B0E94781E20E030E04A
:1027700040E85DE30E94D71EF80164837583868379
:102780009783B501BB0C880B990B0E94781E20E043
:1027900030E040E85DE30E94D71EF8016087718752
:1027A000828793879BC0072E000C880B990B0E9491
:1027B000781E20E030E048EC52E40E94B620F80198
:1027C0006083718382839383B601DD0C880B990B40
:1027D0000E94781E20E030E048EC52E40E94B620CF
:1027E000F8016483758386839783B501BB0C880BDE
:1027F000990B0E94781E20E030E048EC52E40E94E1
:10280000B620F801608771878287938767C0072E9B
:10281000000C880B990B0E94781E20E030E048ECF9
:1028200052E40E94B620F80160837183828393830F
:10283000B601DD0C880B990B0E94781E20E030E079
:1028400048EC52E40E94B620F801648375838683C5
:102850009783B501BB0C880B990B0E94781E20E072
:1028600030E048EC52E40E94B620F801608771879E
:102870008287938733C0072E000C880B990B0E9428
:10288000781E20E030E048EC52E40E94B620F801C7
:102890006083718382839383B601DD0C880B990B6F
:1028A0000E94781E20E030E048EC52E40E94B620FE
:1028B000F8016483758386839783B501BB0C880B0D
:1028C000990B0E94781E20E030E048EC52E40E9410
:1028D000B620F8016087718782879387C8012696A2
:1028E0000FB6F894DEBF0FBECDBFDF91CF911F9121
:1028F0000F91FF90EF90DF90CF90BF90AF90089531
:10290000EF92FF920F931F93CF93DF93CDB7DEB774
:102910002C970FB6F894DEBF0FBECDBF7C018B01A4
:1029200084E2FB0111928A95E9F784E290E0A0E04D
:10293000B0E0FB0180839183A283B383F70186819A
:102940009781A085B185FB0184839583A683B78396
:1029500083E090E0A0E0B0E080879187A287B38712
:102960000E949417F801608B718B828B938B4AE1E4
:1029700050E0B701CE0101960E94E01289819A8150
:10298000AB81BC81F801848B958BA68BB78B8D8135
:102990009E81AF81B885808F918FA28FB38F8985FB
:1029A0009A85AB85BC85848F958FA68FB78F81E084
:1029B0002C960FB6F894DEBF0FBECDBFDF91CF913E
:1029C0001F910F91FF90EF9008950895833069F063
:1029D00028F48130B1F08230C1F008958730C9F019
:1029E0008830E9F0843001F506C0E0E8F0E080814D
:1029F0008F7780830895E0E8F0E080818F7D808389
:102A0000089584B58F7784BD089584B58F7D84BD86
:102A10000895E0EBF0E080818F7780830895E0EB0C
:102A2000F0E080818F7D80830895789484B5826002
:102A300084BD84B5816084BD85B5826085BD85B562
:102A4000816085BDEEE6F0E0808181608083E1E811
:102A5000F0E0108280818260808380818160808349
:102A6000E0E8F0E0808181608083E1EBF0E080814C
:102A700084608083E0EBF0E0808181608083EAE71E
:102A8000F0E08081846080838081826080838081A7
:102A9000816080838081806880831092C100089566
:102AA0003FB7F8948091310490913204A09133049F
:102AB000B091340426B5A89B05C02F3F19F00196AC
:102AC000A11DB11D3FBFBA2FA92F982F8827820FB4
:102AD000911DA11DB11DBC01CD01660F771F881F7F
:102AE000991F660F771F881F991F08950895CF9229
:102AF000DF92EF92FF920F931F93CF93DF938C019E
:102B0000DB01C0E0D0E07A0181E0E81AF108452B52
:102B1000A1F0F80180819181FC01208131816D015A
:102B2000FFEFCF1ADF0A6C91C801F9010995892BD3
:102B300021F02196A701D601E6CFCE01DF91CF91FA
:102B40001F910F91FF90EF90DF90CF900895019724
:102B500079F56F3F7F4F61F5EFE8F3E01382128262
:102B600088EE93E0A0E0B0E084839583A683B783EA
:102B70008AE491E09183808385EC90E09587848757
:102B800084EC90E09787868780EC90E0918B808B37
:102B900081EC90E0938B828B82EC90E0958B848B20
:102BA00086EC90E0978B868B118E128E138E148E8E
:102BB00008958FE893E00E94EB0C21E0892B09F443
:102BC00020E0822F0895CF93DF93EC0188819981D3
:102BD000009711F00E94F621198218821D821C8232
:102BE0001B821A82DF91CF9108950E944523CF93D3
:102BF000DF93FC01248135814217530778F4DB0110
:102C00006D917C91C081D181CE01840F951F0E946E
:102C10006923009731F08C1B9D0B05C08FEF9FEF50
:102C200002C08FEF9FEFDF91CF910895DC01ED910E
:102C3000FC910280F381E02D42E050E066E172E019
:102C4000099508950F931F93CF93DF93EC018B01A8
:102C50006F5F7F4F888199810E947F22009731F0BA
:102C6000998388831B830A8381E001C080E0DF9120
:102C7000CF911F910F910895CF93DF93FC01208195
:102C80003181232B29F0228133812617370770F4F5
:102C9000EC010E942216882361F08C819D81892B92
:102CA00039F4E881F981108281E003C081E001C03C
:102CB00081E0DF91CF910895EF92FF920F931F93E0
:102CC000CF93DF93FC01C481D581C40FD51F61155B
:102CD0007105C1F0452BC1F07B018C01BE010E9442
:102CE0003C16882391F0F8012081318184819581FF
:102CF000B701820F931F0E945323F801D583C48329
:102D000081E003C080E001C081E0DF91CF911F919D
:102D10000F91FF90EF900895CF93DF9300D0CDB740
:102D2000DEB769831A8241E050E0BE016F5F7F4FDA
:102D30000E945C160F900F90DF91CF910895EF9253
:102D4000FF920F931F93CF93DF93EC017B018A01D6
:102D5000BA010E943C16811104C0CE010E94E31505
:102D600007C01D830C83B701888199810E9453237A
:102D7000CE01DF91CF911F910F91FF90EF900895B9
:102D8000CF93DF93EC016115710559F0FB010190C0
:102D90000020E9F73197AF01461B570B0E949F16A1
:102DA00002C00E94E315CE01DF91CF9108956FEF2D
:102DB0007FEF81E090E00E94A7156FEF7FEF81E049
:102DC00090E00E9470066FEF7FEF81E090E00E943C
:102DD000010708951F93CF93DF93282F30E0F90167
:102DE000EB58FC4F8491F901EF59FC4F1491F90114
:102DF000E35BFC4FC491CC23D1F0D62F81110E940C
:102E0000E614EC2FF0E0EE0FFF1FED5BFC4FA591F9
:102E1000B4918FB7F894D11106C09C91E12FE09541
:102E2000E923EC9303C0EC91E12BEC938FBFDF918E
:102E3000CF911F910895CF93DF9390E0FC01EF595C
:102E4000FC4F2491FC01E35BFC4F8491882379F1D2
:102E500090E0880F991FFC01E75CFC4FA591B491AD
:102E6000FC01ED5BFC4FC591D49161110CC09FB783
:102E7000F8948C91E22FE0958E238C932881E223A5
:102E8000E8839FBF14C0623061F49FB7F8948C91BF
:102E9000322F309583238C93E881E22BE8839FBF08
:102EA00006C08FB7F894EC91E22BEC938FBFDF91C3
:102EB000CF9108958F929F92AF92BF92CF92DF925F
:102EC000EF92FF926B017C010E9450154B015C0157
:102ED0001DC021E0C21AD108E108F10888EE880E71
:102EE00083E0981EA11CB11CC114D104E104F104BB
:102EF00069F00E945015DC01CB0188199909AA09D3
:102F0000BB09883E9340A105B10518F7C114D1044F
:102F1000E104F10449F7FF90EF90DF90CF90BF906C
:102F2000AF909F908F9008952FB7F89460912D04E3
:102F300070912E0480912F04909130042FBF08953A
:102F40000F931F93CF93DF93EC010E949417688730
:102F500079878A879B87E881F9810284F385E02D50
:102F6000CE0109959923BCF40E9494170885198510
:102F70002A853B85DC01CB01801B910BA20BB30B97
:102F80000C811D812E813F8180179107A207B30715
:102F900010F38FEF9FEFDF91CF911F910F91089565
:102FA0001F920F920FB60F9211240F931F932F931E
:102FB0003F934F935F936F937F938F939F93AF93C1
:102FC000BF9300912D0410912E0420912F04309175
:102FD000300490912C04B901A8014F5F5F4F6F4FEF
:102FE0007F4F83E0890F8D3740F086E8890FB90164
:102FF000A8014E5F5F4F6F4F7F4F80932C0440932B
:103000002D0450932E0460932F047093300480910C
:10301000310490913204A0913304B09134040196AC
:10302000A11DB11D8093310490933204A093330409
:10303000B0933404BF91AF919F918F917F916F9125
:103040005F914F913F912F911F910F910F900FBE64
:103050000F901F9018950E94F62108950E945E21FE
:1030600008950E9415150E942C070E94A50A0E942F
:10307000F80CFBCFFC0180819181009719F00E9430
:10308000501A089560E070E0CB010895FC01808142
:103090009181009719F00E94541A089560E070E041
:1030A000CB010895CF93DF93FC0124813581621712
:1030B000730728F54115510511F1F901E61BF70BCE
:1030C000E417F50708F0FA01DB01EC01888199812A
:1030D0002E1B3F0B3D832C83A901461B570BE60F8C
:1030E000F71FBC016E0F7F1F8A0F9B1F0E945A2380
:1030F000E881F9818C819D81E80FF91F1082DF91B1
:10310000CF91089540E050E00E94F7150895CF93C5
:10311000DF93EC01FB0144815581608171810E9444
:103120005C16811103C0CE010E94E315CE01DF9130
:10313000CF910895FC01808191810E94F62108952C
:10314000EF92FF920F931F93CF93DF93CDB7DEB72C
:10315000A1970FB6F894DEBF0FBECDBF7C01CB01A7
:10316000BA01F70111821082138212821582148231
:1031700042E0420F8E010F5F1F4F0E94301ABC01C8
:10318000C7010E94C016A1960FB6F894DEBF0FBE0D
:10319000CDBFDF91CF911F910F91FF90EF900895D8
:1031A0000F931F93CF93DF93CDB7DEB762970FB620
:1031B000F894DEBF0FBECDBF8C01CB01F8011182A8
:1031C0001082138212821582148250E0BE016F5F5A
:1031D0007F4F0E947B1ABE016F5F7F4FC8010E9424
:1031E000C01662960FB6F894DEBF0FBECDBFDF915A
:1031F000CF911F910F910895FC01118210821382CB
:103200001282158214826115710551F0FB01019043
:103210000020E9F73197AF01461B570B0E949F161C
:103220000895AF92BF92CF92DF92EF92FF920F93E9
:103230001F93CF93DF936C015B01EA01790124179F
:10324000350720F48D2FE901E42EF82E6EEF71E0A2
:10325000C6010E94FC18D50114960D911C9115977A
:10326000C017D107D0F40E151F0508F08701D5014E
:10327000ED91FC911197E00FF11FF08010826D919C
:103280007C916C0F7D1FC6010E94C016F5018081E4
:103290009181FC01E00FF11FF082C601DF91CF9117
:1032A0001F910F91FF90EF90DF90CF90BF90AF9064
:1032B00008954F925F926F927F92AF92BF92CF929A
:1032C000DF92EF92FF920F931F93CF93DF93CDB7CF
:1032D000DEB729013A019B01AC01241935094609E1
:1032E000570989899A89AB89BC89BC01CD016A19C2
:1032F0007B098C099D090E942A20A80197012419A5
:103300003509460957090E94981FC601B501620F89
:10331000731F841F951FDF91CF911F910F91FF9015
:10332000EF90DF90CF90BF90AF907F906F905F90C5
:103330004F900895FF920F931F93CF93DF93EC016B
:103340008B01F42E6EEF71E00E94FC18C8010E9400
:10335000A01799237CF02F2D0F2C000C330B821714
:10336000930741F0682FCE010E948C16C8010E947D
:10337000A017EFCFCE01DF91CF911F910F91FF905A
:1033800008956115710581F0FB0101900020E9F7B6
:103390003197AF01461B570BDC01ED91FC91028088
:1033A000F381E02D0995089580E090E008950F9352
:1033B0001F93CF93DF93EC010E94C1198C01CE01C2
:1033C0000E941616800F911FDF91CF911F910F91D0
:1033D0000895DB0114964D915C9115976D917C9148
:1033E000DC01ED91FC910280F381E02D09950895B7
:1033F0000F931F93CF93DF93EC010E94E9198C0187
:10340000CE010E941616800F911FDF91CF911F9160
:103410000F9108951F920F920FB60F9211242F93C0
:103420003F934F935F936F937F938F939F93AF934C
:10343000BF93EF93FF938FE893E00E94FC0FFF91FF
:10344000EF91BF91AF919F918F917F916F915F911C
:103450004F913F912F910F900FBE0F901F90189595
:10346000EF920F931F93CF93DF93E80147FD02C0C4
:1034700034E001C034E1042E000C550B57FF03C0AB
:10348000519541955109E32E022F242FAE010E9440
:10349000C01ACE01DF91CF911F910F91EF90089547
:1034A000662777270C941A1C1F93FC0199278827FD
:1034B000BC01E89411911032E9F3193010F01E307C
:1034C000C8F31B3251F01D3249F4689406C00E94C3
:1034D000911A610F711D811D911D119110531A30A8
:1034E000B0F33EF490958095709561957F4F8F4F26
:1034F0009F4F1F9108954532510520F4423010F03E
:103500000C94861AFB011082CB010895BB274A3028
:1035100031F4992322F4BDE2909581959F4F0C944C
:10352000A71A592F482F372F262F660F771F881F6E
:10353000991F660F771F881F991F620F731F841FC3
:10354000951F660F771F881F991F0895BB27FB01E2
:103550005527AA27880F991FAA1FA41710F0A41B8C
:1035600083955051B9F7A05DAA3308F0A95DA193E6
:10357000009779F7B111B1931192CB010C94611EB0
:10358000A9E0B0E0E6ECFAE10C94C81F6A01122F42
:10359000B02E2BE3201720F0FF24F394F00E02C08E
:1035A0002CE3F22E0F2D27E0AE014F5F5F4F0E94FC
:1035B000681DBC014981842F8970813031F0E1FCA4
:1035C00006C0E0FE06C090E205C09DE203C09BE29B
:1035D00001C090E05E2D507143FF3CC0911102C0CC
:1035E00083E001C084E0811718F4212F281B01C05B
:1035F00020E051110BC0F601822F30E2882319F030
:1036000031938150FBCFC20ED11C20E0992329F0C9
:10361000D6019C93F60131966F01C6010396E2FE36
:103620000AC03EE4D6013C9341E411964C931197B5
:1036300012963C9306C03EE6F601308341E6418394
:103640003283FC01322F40E2332309F442C041931C
:103650003150FACF42FF44C0911102C083E001C053
:1036600084E0811718F4212F281B01C020E051119C
:103670000BC0F601822F30E2882319F0319381507C
:10368000FBCFC20ED11C20E0992329F0D6019C93D8
:10369000F60131966F01C6010396E2FE0BC039E4D4
:1036A000D6013C933EE411963C93119736E4129672
:1036B0003C9307C039E6F60130833EE6318336E6B7
:1036C0003283FC01322F40E2332319F04193315011
:1036D000FBCFFC01E20FF11D10828EEF9FEFA6C021
:1036E00021E030E0911102C020E030E0161617060C
:1036F0001CF4FB01319602C0E1E0F0E02E0F3F1F09
:10370000BB2021F0EB2DF0E0319602C0E0E0F0E0CC
:103710002E0F3F1FE12FF0E02E173F071CF4121B66
:10372000212F01C020E08E2D887159F4F601822FDF
:1037300030E2882319F031938150FBCFC20ED11CA7
:1037400020E0992329F0D6019C93F60131966F0170
:1037500051110BC0F601822F90E3882319F0919349
:103760008150FBCFC20ED11C20E00F2D060F9A8195
:10377000342F307144FF03C0913309F40150101607
:1037800024F4093018F008E001C001E0AB0177FF34
:1037900002C040E050E0FB01E41BF50BA1E0B0E00B
:1037A000AC0FBD1FEA0FFB1F8EE2A82E4B01801A43
:1037B00091080B2D10E01195019511094F3FBFEFB6
:1037C0005B0721F4D601AC9211966D016417750761
:1037D0002CF08416950614F4818101C080E34150D9
:1037E00051093196D60111967D014017510724F0F9
:1037F000D6018C936701E2CF6417750739F49633CD
:1038000020F4953319F4311101C081E3F60180836E
:10381000F701822F90E2882319F091938150FBCF1A
:10382000F701E20FF11D108280E090E02996ECE0B4
:103830000C94E41FA0E0B0E0E0E2FCE10C94C81FAF
:10384000EC016B016115710519F0FB019183808317
:103850007E01FFEFEF1AFF0A0881802F90E00E949F
:10386000401E892B11F0E701F3CF0D3239F47E01B0
:1038700082E0E80EF11C098111E008C00B3229F446
:103880007E0192E0E90EF11C098110E0E701219729
:1038900043E050E062E072E0CE010E94491E892BB5
:1038A000C1F4239645E050E06DEF71E0CE010E9437
:1038B000491E892B09F42596C114D10419F0F6018B
:1038C000D183C0831111F6C060E070E080E89FE70B
:1038D000FAC043E050E06AEF71E0CE010E94491E59
:1038E000892B59F4C114D10409F4E9C0F2E0EF0EB8
:1038F000F11CF601F182E082E2C020E030E0A90193
:10390000C0E0D0E0F70180EDA82EA00E89E08A1576
:1039100030F1912F9260B92E812F887012FF04C070
:10392000811124C0219622C081112197A5E0B0E029
:103930000E94B71FDC01CB01880F991FAA1FBB1F74
:103940009C01AD012A0D311D411D511D283989E908
:103950003807480789E1580748F0166006C09EEF0F
:10396000A9120AC013FD40C01860B12E8FEFE81AEB
:10397000F80A00811B2DC6CF802F8F7D8534A1F5DD
:1039800080818D3211F4106106C08B3221F03196A6
:1039900061E070E004C08181329662E070E08053A3
:1039A0008A3018F0E61BF70B1FC060E070E060384B
:1039B0009CE079075CF4DB01AA0FBB1FAA0FBB1FB9
:1039C0006A0F7B1F660F771F680F711D3196DF012D
:1039D00011978C9180538A3050F314FF03C0719576
:1039E00061957109C60FD71F11FF08C0C114D1041A
:1039F00029F0CF010197F60191838083CA01B901B3
:103A00000E94761E212F2370233019F04B015C0198
:103A100006C04B015C01B7FAB094B7F8B09420E04F
:103A200030E0A901C501B4010E94711E882309F488
:103A30003EC0D7FF06C0D195C195D10909E112E07A
:103A400002C001E312E06801F8E1CF1AD10890E268
:103A5000E92EF12CCE15DF0574F0F8012591359192
:103A600045915491C501B4010E94D71E4B015C01E0
:103A7000CE19DF09EFCF04501109F594E7940C1526
:103A80001D0541F78A2D880F8B2D881F8F3F49F028
:103A900020E030E0A901C501B4010E94711E81112E
:103AA00006C082E290E09093360480933504C5010D
:103AB000B40109C060E070E080E89FEF04C060E0FE
:103AC00070E080EC9FE7CDB7DEB7ECE00C94E41F2C
:103AD000283008F027E03327DA01990F311D87FDE0
:103AE000916000966105710539F432602E5F3D9357
:103AF00030E32A95E1F708959F3F30F08038710553
:103B0000610509F03C5F3C5F3D93913008F08068AF
:103B1000911DDF93CF931F930F93FF92EF92192F75
:103B2000987F9695E92F96959695E90FFF27E1578F
:103B3000FD4F99273327EE24FF24A701E7010590C5
:103B40000894079428F4360FE71EF81E491F511DEC
:103B5000660F771F881F991F0694A1F70590079499
:103B600028F4E70EF81E491F561FC11D770F881F46
:103B7000991F661F0694A1F70590079428F4F80E84
:103B8000491F561FC71FD11D880F991F661F771F1A
:103B90000694A1F70590079420F4490F561FC71FFC
:103BA000D81F990F661F771F881F0694A9F7849165
:103BB0001095177041F0D695C79557954795F7948E
:103BC000E7941A95C1F7E5E3F2E068941590159132
:103BD00035916591959105907FE27395E118F10A11
:103BE000430B560BC90BD009C0F7E10CF11E431F64
:103BF000561FC91FD01D7EF4703311F48A95E6CF8D
:103C0000E894015030F0080F0AF40027021708F476
:103C1000202F2395022F7A3328F079E37D932A957C
:103C2000E9F710C07D932A9589F6069497956795D4
:103C3000379517951794E118F10A430B560BC90BEA
:103C4000D00998F023957E9173957A3308F070E34C
:103C50007C932013B8F77E9170617D9330F083954B
:103C600071E37D9370E32A95E1F71124EF90FF90C3
:103C70000F911F91CF91DF91992787FD909508951E
:103C800091110C94441F803219F089508550C8F767
:103C90000895FB01DC014150504088F08D91813442
:103CA0001CF08B350CF4805E659161341CF06B3533
:103CB0000CF4605E861B611171F3990B0895881BEB
:103CC000FCCFDC01FC01672F71917723E1F732977C
:103CD00004C07C916D9370836291AE17BF07C8F3E7
:103CE00008950E94B31E08F481E00895E89409C085
:103CF00097FB3EF490958095709561957F4F8F4F1F
:103D00009F4F9923A9F0F92F96E9BB279395F69534
:103D1000879577956795B795F111F8CFFAF4BB0FB2
:103D200011F460FF1BC06F5F7F4F8F4F9F4F16C016
:103D3000882311F096E911C0772321F09EE8872FA0
:103D4000762F05C0662371F096E8862F70E060E05C
:103D50002AF09A95660F771F881FDAF7880F9695D5
:103D6000879597F90895990F0008550FAA0BE0E879
:103D7000FEEF16161706E807F907C0F0121613062D
:103D8000E407F50798F0621B730B840B950B39F46D
:103D90000A2661F0232B242B252B21F408950A26D3
:103DA00009F4A140A6958FEF811D811D08950E9401
:103DB000EA1E0C945E1F0E94501F38F00E94571F8D
:103DC00020F0952311F00C94471F0C944D1F1124E3
:103DD0000C94921F0E946F1F70F3959FC1F3950F73
:103DE00050E0551F629FF001729FBB27F00DB11D7F
:103DF000639FAA27F00DB11DAA1F649F6627B00D0F
:103E0000A11D661F829F2227B00DA11D621F739FF7
:103E1000B00DA11D621F839FA00D611D221F749F05
:103E20003327A00D611D231F849F600D211D822F4C
:103E3000762F6A2F11249F5750409AF0F1F0882373
:103E40004AF0EE0FFF1FBB1F661F771F881F9150A0
:103E50005040A9F79E3F510580F00C94471F0C94E9
:103E6000921F5F3FE4F3983ED4F38695779567956C
:103E7000B795F795E7959F5FC1F7FE2B880F911DCA
:103E80009695879597F9089599278827089597F922
:103E90009F6780E870E060E008959FEF80EC0895F0
:103EA00000240A9416161706180609060895002419
:103EB0000A9412161306140605060895092E039493
:103EC000000C11F4882352F0BB0F40F4BF2B11F407
:103ED00060FF04C06F5F7F4F8F4F9F4F089557FD66
:103EE0009058440F551F59F05F3F71F04795880F68
:103EF00097FB991F61F09F3F79F0879508951216FF
:103F000013061406551FF2CF4695F1DF08C01616AA
:103F100017061806991FF1CF86957105610508945B
:103F20000895E894BB2766277727CB0197F9089572
:103F3000052E97FB1EF400940E94AF1F57FD07D07B
:103F40000E94F91F07FC03D04EF40C94AF1F50954C
:103F50004095309521953F4F4F4F5F4F0895909575
:103F60008095709561957F4F8F4F9F4F08950E9468
:103F70001B20A59F900DB49F900DA49F800D911DB7
:103F8000112408952F923F924F925F926F927F92E9
:103F90008F929F92AF92BF92CF92DF92EF92FF9259
:103FA0000F931F93CF93DF93CDB7DEB7CA1BDB0B05
:103FB0000FB6F894DEBF0FBECDBF09942A883988AA
:103FC00048885F846E847D848C849B84AA84B984B1
:103FD000C884DF80EE80FD800C811B81AA81B981BD
:103FE000CE0FD11D0FB6F894DEBF0FBECDBFED01D1
:103FF0000895A1E21A2EAA1BBB1BFD010DC0AA1F2A
:10400000BB1FEE1FFF1FA217B307E407F50720F041
:10401000A21BB30BE40BF50B661F771F881F991FBC
:104020001A9469F760957095809590959B01AC0105
:10403000BD01CF010895A29FB001B39FC001A39F0E
:10404000700D811D1124911DB29F700D811D1124D1
:10405000911D0895DB018F939F930E94B71FBF911D
:10406000AF91A29F800D911DA39F900DB29F900DC7
:1040700011240895EE0FFF1F0590F491E02D09948F
:104080002A153B054C055D056E057F0580079107E8
:1040900008955058BB27AA270E9461200C945E1FE8
:1040A0000E94501F38F00E94571F20F039F49F3FA4
:1040B00019F426F40C944D1F0EF4E095E7FB0C94D4
:1040C000471FE92F0E946F1F58F3BA176207730743
:1040D0008407950720F079F4A6F50C94911F0EF44F
:1040E000E0950B2EBA2FA02D0B01B90190010C0108
:1040F000CA01A0011124FF27591B99F0593F50F420
:10410000503E68F11A16F040A22F232F342F442777
:10411000585FF3CF469537952795A795F04053956F
:10412000C9F77EF41F16BA0B620B730B840BBAF03F
:104130009150A1F0FF0FBB1F661F771F881FC2F7AA
:104140000EC0BA0F621F731F841F48F487957795BE
:104150006795B795F7959E3F08F0B0CF9395880F78
:1041600008F09927EE0F9795879508950E94CA2029
:104170000C945E1F0E94571F58F00E94501F40F081
:1041800029F45F3F29F00C94471F51110C94921FA2
:104190000C944D1F0E946F1F68F39923B1F35523B0
:1041A00091F3951B550BBB27AA276217730784074A
:1041B00038F09F5F5F4F220F331F441FAA1FA9F3E0
:1041C00035D00E2E3AF0E0E832D091505040E695CE
:1041D000001CCAF72BD0FE2F29D0660F771F881F2F
:1041E000BB1F261737074807AB07B0E809F0BB0B22
:1041F000802DBF01FF2793585F4F3AF09E3F510536
:1042000078F00C94471F0C94921F5F3FE4F3983EA4
:10421000D4F3869577956795B795F7959F5FC9F71E
:10422000880F911D9695879597F90895E1E0660F9F
:10423000771F881FBB1F621773078407BA0720F018
:10424000621B730B840BBA0BEE1F88F7E095089581
:104250000E942F216894B1110C94921F08950E941E
:10426000771F88F09F5798F0B92F9927B751B0F072
:10427000E1F0660F771F881F991F1AF0BA95C9F7EA
:1042800014C0B13091F00E94911FB1E008950C94D8
:10429000911F672F782F8827B85F39F0B93FCCF38B
:1042A000869577956795B395D9F73EF49095809567
:1042B000709561957F4F8F4F9F4F08950F931F9378
:1042C000CF93DF938230910510F482E090E0E0918B
:1042D0003904F0913A0420E030E0A0E0B0E03097FB
:1042E00019F1408151810281138148175907C8F0A3
:1042F0008417950769F4109731F012960C93129772
:1043000013961C9327C00093390410933A0422C0DB
:104310002115310519F04217530718F49A01BD0110
:10432000EF01DF01F801DBCF21153105F9F0281B82
:10433000390B2430310580F48A819B816115710528
:1043400021F0FB019383828304C090933A0480930D
:104350003904FE01329644C0FE01E20FF31F81933F
:10436000919322503109398328833AC02091370430
:1043700030913804232B41F4209102013091030144
:1043800030933804209337042091000130910101CB
:104390002115310541F42DB73EB7409104015091EC
:1043A0000501241B350BE0913704F0913804E21726
:1043B000F307A0F42E1B3F0B2817390778F0AC0148
:1043C0004E5F5F4F2417350748F04E0F5F1F509325
:1043D0003804409337048193919302C0E0E0F0E009
:1043E000CF01DF91CF911F910F910895CF93DF936C
:1043F000009709F481C0FC01329713821282A091C8
:104400003904B0913A04109781F420813181820FF0
:10441000931F20913704309138042817390751F53C
:10442000F0933804E093370467C0ED0120E030E0FA
:10443000CE17DF0740F44A815B819E01411551058B
:10444000F1F0EA01F5CFD383C28340815181840F1B
:10445000951FC817D90759F488819981840F951F32
:104460000296918380838A819B8193838283211525
:10447000310529F4F0933A04E09339043DC0E90191
:10448000FB83EA8349915991C40FD51FEC17FD07AF
:1044900061F480819181840F951F0296E9019983CF
:1044A0008883828193819B838A83E0E0F0E0129687
:1044B0008D919C911397009719F0FD01DC01F7CFC6
:1044C0008D919C9111979D012E5F3F4F820F931FFD
:1044D00020913704309138042817390769F4309750
:1044E00029F410923A041092390402C01382128205
:1044F000B0933804A0933704DF91CF910895A0E0E2
:10450000B0E0E5E8F2E20C94C61FEC01009721F45C
:10451000CB010E945E21B4C0FC01E60FF71F9C0195
:1045200022503109E217F30708F4A8C0D9010D9110
:104530001C91119706171707B0F00530110508F404
:104540009BC0C80104978617970708F495C00250CE
:104550001109061B170B019311936D937C93CF01E7
:104560000E94F62189C05B01A01AB10A4C01800E9D
:10457000911EA0913904B0913A04612C712CE12C68
:10458000F12C109709F446C08D919C911197A815B4
:10459000B905B1F56C0142E0C40ED11CCA14DB04AC
:1045A00078F14C018A189B08640142E0C40ED11CCA
:1045B0001296BC9012971396AC91B5E0CB16D1042D
:1045C00040F0B282A38391828082D9016D937C9363
:1045D00009C00E5F1F4F800F911FF90191838083E7
:1045E000EB2DFA2FE114F10431F0D7011396FC936F
:1045F000EE93129741C0F0933A04E09339043CC023
:104600006816790608F43C017D0112960D90BC9164
:10461000A02DB7CF80913704909138048816990661
:10462000E1F466167706C8F48091000190910101CB
:10463000009741F48DB79EB7409104015091050158
:10464000841B950BE817F907C8F4F0933804E0933E
:104650003704F901718360830FC0CB010E945E2192
:104660007C01009759F0A801BE010E944A23CE01A7
:104670000E94F621C70104C0CE0102C080E090E094
:10468000CDB7DEB7EEE00C94E21F81E090E0F89445
:104690000C948323FB01DC0102C001900D92415078
:1046A0005040D8F70895FB01DC0101900D920020E5
:1046B000E1F70895FB01DC014150504048F00190C2
:1046C0000D920020C9F701C01D9241505040E0F703
:1046D0000895FB0151915523A9F0BF01DC014D91D3
:1046E00045174111E1F759F4CD010190002049F03F
:1046F0004D9140154111C9F3FB014111EFCF81E00C
:1047000090E00197089511E0C6ECD1E004C0FE01ED
:104710000E943A202196C73CD107C9F7F894FFCFF1
:1047200000003B0420000000000061033103B603D9
:104730000503290315030603000000000000000024
:104740000202F515F51500000000120EC20E02025D
:104750008014190F00000000200D7715B6031F0DFF
:10476000710D910D040D0000000027107715B70C96
:104770008B10EB0CC90CDD0C00000000F515771553
:10478000B603B503F515F515F51500000000F51590
:104790007715B603B5034F6F6F70732C206E6F20C3
:1047A000424E4F3035352031206465746563746541
:1047B00064202E2E2E20436865636B20796F7572FE
:1047C00020776972696E67206F72204932432041F9
:1047D000444452210043616C6962726174696E677E
:1047E000002E000A446F6E65210050726F6772617F
:1047F0006D2073746172746564210009626F64795D
:1048000020616E676C652069733A20090009626F48
:1048100064793A200900096C6567733A2009002C15
:1048200000094C6F6F702074696D65203D20004257
:0A4830004E4F303535000D0A000030
:00000001FF
