:100000000C94DF000C9407010C9407010C94730509
:100010000C9473050C9473050C9407010C94070160
:100020000C9407010C9407010C9407010C94070130
:100030000C9407010C9407010C9407010C94070120
:100040000C949D0C0C9407010C9441050C941B0519
:100050000C9407010C9407010C9407010C94070100
:100060000C94ED050C94070100407A10F35A00A09F
:10007000724E18090010A5D4E80000E87648170071
:1000800000E40B54020000CA9A3B000000E1F505B1
:10009000000080969800000040420F000000A086FB
:1000A00001000000102700000000E803000000002D
:1000B0006400000000000A000000000001000000D1
:1000C00000002C76D888DC674F0823DFC1DFAE59EB
:1000D000E1B1B796E5E3E453C63AE651997696E87E
:1000E000E6C28426EB898C9B62ED407C6FFCEFBC02
:1000F0009C9F40F2BAA56FA5F490055A2AF75C932D
:100100006B6CF9676DC11BFCE0E40D47FEF520E662
:10011000B500D0ED902E0300943577050080841E45
:10012000080000204E0A000000C80C333333330FA0
:10013000986E12831141EF8D2114893BE65516CF3D
:10014000FEE6DB18D1844B381BF77C1D901DA4BB49
:10015000E424203284725E228100C9F124ECA1E5FE
:100160003D2700000000240027002A0000000008AE
:10017000000201000003040700000000000000006E
:1001800000000000230026002900000000002500D8
:1001900028002B00040404040404040402020202E4
:1001A000020203030303030301020408102040803A
:1001B000010204081020010204081020140D11246B
:1001C0001FBECFEFD8E0DEBFCDBF23E0A2EDB1E090
:1001D00001C01D92A33DB207E1F711E0A0E0B1E03C
:1001E000ECE6F2E302C005900D92A23DB107D9F70B
:1001F00010E0CFEDD0E004C02197FE010E949716D9
:10020000CE3DD107C9F70E94240E0C9434190C94EA
:100210000000CF92DF92EF92FF920F931F93CF9344
:10022000DF936C017A018B01C0E0D0E0CE15DF05D1
:1002300081F0D8016D918D01D601ED91FC91019075
:10024000F081E02DC6010995892B11F02196EECFA2
:100250007E01C701DF91CF911F910F91FF90EF9029
:10026000DF90CF900895FC01538D448D252F30E011
:10027000842F90E0821B930B541710F0CF960895B3
:1002800001970895FC01918D828D981761F0828D00
:10029000DF01A80FB11D5D968C91928D9F5F9F73BA
:1002A000928F90E008958FEF9FEF0895FC01918D5C
:1002B000828D981731F0828DE80FF11D858D90E0C9
:1002C00008958FEF9FEF0895FC01918D228D892F66
:1002D00090E0805C9F4F821B91098F73992708954E
:1002E00089EC92E00E94640121E0892B09F420E06E
:1002F000822F0895FC01848DDF01A80FB11DA35A40
:10030000BF4F2C91848D90E001968F739927848F35
:10031000A689B7892C93A089B1898C918370806458
:100320008C93938D848D981306C00288F389E02DF9
:1003300080818F7D80830895EF92FF920F931F93AA
:10034000CF93DF93EC0181E0888F9B8D8C8D981388
:1003500005C0E889F989808185FD26C0F62E0B8DC0
:1003600010E00F5F1F4F0F731127E02E8C8DE812E6
:100370000CC00FB607FCFACFE889F989808185FFA8
:10038000F5CFCE010E947A01F1CF8B8DFE01E80FEF
:10039000F11DE35AFF4FF0829FB7F8940B8FEA8963
:1003A000FB89808180620AC09FB7F894EE89FF893B
:1003B0006083E889F98980818370806480839FBF2E
:1003C00081E090E0DF91CF911F910F91FF90EF902E
:1003D0000895CF93DF93EC01888D8823C9F0EA89D3
:1003E000FB89808185FD05C0A889B9898C9186FD2E
:1003F0000FC00FB607FCF5CF808185FFF2CFA8892B
:10040000B9898C9185FFEDCFCE010E947A01E7CFAB
:10041000DF91CF91089580E090E0892B29F00E9430
:10042000700181110C9400000895209174033091A3
:1004300075032817390771F4909172038091730343
:10044000981741F0E0917203F0E0E75EFD4F808184
:1004500090E008958FEF9FEF089508951F93CF9335
:10046000DF93DC015C968D919C915D97009739F448
:1004700021E030E013963C932E9312973BC05196A7
:10048000ED91FC91529750962C915097322F3095C8
:100490001FB75E964C915E97742F727041FD609508
:1004A000F8944081772311F0422B01C0432340830D
:1004B000EC012197F1F748E0508160FF02C0522B18
:1004C00001C053235083EC012197F1F76695415009
:1004D00099F78081772319F08323808302C0282B2A
:1004E00020831FBF5C968D919C915D970197F1F7DA
:1004F00081E090E0DF91CF911F91089520917403E6
:10050000309175032817390771F480917303209196
:10051000720390E0805C9F4F821B910960E470E061
:100520000E946F16089580E090E008952091740372
:100530003091750328173907B9F4909172038091AF
:100540007303981789F0E0917203F0E0E75EFD4FC6
:1005500080812091720330E02F5F3F4F2F7333274C
:100560002093720390E008958FEF9FEF0895089510
:10057000089585ED8093BC008091BC0084FDFCCF84
:100580001092A50208954091F401262F30E0240F27
:10059000311D21323105DCF42091A5022430C9F44B
:1005A000FC0180E090E0861758F43091F40121912D
:1005B000DC01AE52BE4FA30FB11D2C930196F3CFB9
:1005C0008091F401680F6093F40180E0089581E068
:1005D000089582E0089508950895E0915E02809163
:1005E0005D02E81730F4F0E0E15AFD4F808190E0C1
:1005F00008958FEF9FEF089590915E0280915D02C4
:10060000981750F4E92FF0E0E15AFD4F208130E0D7
:100610009F5F90935E0202C02FEF3FEFC9010895E4
:1006200080915D0290E020915E02821B9109089505
:10063000CF92DF92EF92FF920F931F93CF93DF93AE
:100640007C01CB018A012091A602222389F0EB01D3
:100650006B01C40ED51ECC15DD0569F06991D7017B
:10066000ED91FC910190F081E02DC7010995F3CF48
:10067000642F0E94C302C801DF91CF911F910F9197
:10068000FF90EF90DF90CF900895CF93DF931F926C
:10069000CDB7DEB769832091A6022223D1F0209145
:1006A000C802203240F021E030E0FC013383228395
:1006B00080E090E015C08091A702E82FF0E0E855B7
:1006C000FD4F998190838F5F8093A7028093C8022A
:1006D00005C061E0CE0101960E94C30281E090E076
:1006E0000F90DF91CF910895089580E090E00895F4
:1006F0000C94A7178F929F92AF92BF92CF92DF92E6
:10070000EF92FF920F931F93CF93DF93CDB7DEB796
:1007100062970FB6F894DEBF0FBECDBF8B0124E207
:10072000DB011D922A95E9F744E250E060E070E0B9
:10073000F8014083518362837383DC0116964D91E7
:100740005D916D917C91199744835583668377837E
:1007500043E050E060E070E0408751876287738734
:100760002FB7F8944091590250915A0260915B0260
:1007700070915C022FBF408B518B628B738BFE019B
:1007800031962CE0DF011D922A95E9F7AE01435F17
:100790005F4F26E0FA0111922A95E9F76AE170E0CD
:1007A0000E94760A6D857E85072E000C880B990BBA
:1007B0000E943F1520E030E040E85DE30E947A159A
:1007C0004B015C016F857889072E000C880B990B13
:1007D0000E943F1520E030E040E85DE30E947A157A
:1007E0006B017C0169897A89072E000C880B990BB3
:1007F0000E943F1520E030E040E85DE30E947A155A
:10080000D80154968D929D92AD92BC925797F80163
:10081000C08ED18EE28EF38E5C966D937D938D9318
:100820009C935F9781E062960FB6F894DEBF0FBE8F
:10083000CDBFDF91CF911F910F91FF90EF90DF908F
:10084000CF90BF90AF909F908F9008950F931F937C
:10085000CF93DF938C01EB0188E2FB0111928A9523
:10086000E9F74BE050E06AE471E0CE010E940B1919
:100870001B8681E090E0A0E0B0E08C879D87AE878A
:10088000BF87F80186819781A085B185888B998B78
:10089000AA8BBB8B83E090E0A0E0B0E08C8B9D8BBB
:1008A000AE8BBF8B1CA21DA21EA21FA2188E198E7A
:1008B0001A8E1B8E1C8E1D8E1E8E1F8E8AE097ED4B
:1008C000A3E2BCE388A399A3AAA3BBA3DF91CF9122
:1008D0001F910F910895FC0180819181009711F083
:1008E0000C949A1260E070E0CB0108950F931F936F
:1008F000CF93DF93EC0188819981009729F02A81B9
:100900003B812617370788F48B016F5F7F4F0E946A
:100910003018009761F0998388831B830A832C81A8
:100920003D81232B11F4FC01108281E001C080E0A5
:10093000DF91CF911F910F910895CF93DF93EC0139
:1009400088819981009711F00E94A7171982188257
:100950001D821C821B821A82DF91CF910895EF9233
:10096000FF920F931F93CF93DF938C017B0161154F
:10097000710569F0FB0101900020E9F73197EF0163
:10098000C61BD70BBE010E947604811104C0C801AA
:100990000E949D0408C0F801D583C483B7018081FB
:1009A00091810E940419C801DF91CF911F910F918D
:1009B000FF90EF900895FC01808191810C94A7171E
:1009C000EF92FF920F931F93CF93DF93EC01198265
:1009D00018821B821A821D821C826115710521F109
:1009E0008B01FB0101900020E9F731977F01E61AA6
:1009F000F70AB7010E947604811109C0CE01DF9188
:100A0000CF911F910F91FF90EF900C949D04FD8268
:100A1000EC82B80188819981DF91CF911F910F916C
:100A2000FF90EF900C940419DF91CF911F910F91DB
:100A3000FF90EF9008951F920F920FB60F9211241E
:100A40002F933F934F935F936F937F938F939F93D6
:100A5000AF93BF93EF93FF9389EC92E00E947A01EA
:100A6000FF91EF91BF91AF919F918F917F916F9186
:100A70005F914F913F912F910F900FBE0F901F905C
:100A800018951F920F920FB60F9211242F938F93E8
:100A90009F93EF93FF93E091D902F091DA02808166
:100AA000E091DF02F091E00282FD12C0908180911E
:100AB000E2028F5F8F732091E302821751F0E09181
:100AC000E202F0E0E753FD4F958F8093E20201C010
:100AD0008081FF91EF919F918F912F910F900FBE89
:100AE0000F901F9018951F920F920FB60F9211241E
:100AF0002F933F934F935F936F937F938F939F9326
:100B0000AF93BF93EF93FF93E0917403F09175035C
:100B1000309709F451C0968DA685B785858591FFDC
:100B200004C09C91892329F447C09C91892309F032
:100B300043C0A389B4899C918589809589238C932E
:100B4000868997890197F1F7608D718DA685B785A4
:100B5000558538E020E0CB010197F1F7822F90E036
:100B600095958795282F4C91452309F020683150A1
:100B700091F7868D81FD20958091730390E0019619
:100B80008F73992730917203381749F0A09173033E
:100B9000B0E0A75EBD4F2C938093730303C0868D96
:100BA0008160868F828D938D0197F1F7A389B48937
:100BB0009C918589892B8C93FF91EF91BF91AF9187
:100BC0009F918F917F916F915F914F913F912F9165
:100BD0000F900FBE0F901F9018951F920F920FB697
:100BE0000F9211242F933F934F935F936F937F93B3
:100BF0008F939F93AF93BF93EF93FF938091B9002F
:100C0000887F803609F49CC068F5883209F45BC09F
:100C100090F4803109F454C038F4882309F4F6C004
:100C2000883009F44DC0F6C0883109F44CC08032D8
:100C300009F45DC0EFC0803409F468C048F4803323
:100C400009F455C0883309F0E5C08093A302D8C0E9
:100C5000803509F44FC0883509F45DC0883409F047
:100C6000D9C0D6C0883909F4C7C0A8F4883709F4B8
:100C700067C038F4883609F463C0803709F460C06F
:100C8000C9C0883809F4B8C0803909F45FC0803819
:100C900009F0C0C05BC0803B09F486C038F4803ADC
:100CA00009F466C0883A09F47FC0B4C0803C09F4F6
:100CB000A7C0883C09F4A4C0883B09F48AC0AAC034
:100CC0008091800210C09091A2028091A102981799
:100CD00070F5E091A20281E08E0F8093A202F0E015
:100CE000EF57FD4F80818093BB0085EC86C08093D9
:100CF000A3028EC0E091A20281E08E0F8093A20237
:100D00008091BB00F0E0EF57FD4F80839091A202ED
:100D10008091A1026EC0E091A20281E08E0F8093CB
:100D2000A2028091BB00F0E0EF57FD4F80838091DD
:100D3000A40281116DC081E080937F0284EA61C0CA
:100D400083E08093A50210921802CFCF8091180201
:100D5000803208F051C0E091180281E08E0F80933C
:100D600018028091BB00F0E0E850FE4F8083BDCFB9
:100D700085EC8093BC001092A5028091180280320D
:100D800030F4E0911802F0E0E850FE4F10826091DC
:100D9000180270E0E091F601F091F70188EF91E020
:100DA00009951092180236C084E08093A502109233
:100DB000F5011092F401E091F201F091F30109952F
:100DC0008091F401811105C081E08093F4011092BB
:100DD000D201E091F50181E08E0F8093F501F0E002
:100DE000EE52FE4F80818093BB009091F50180917F
:100DF000F401981708F479CF85E88093BC000AC005
:100E000085EC8093BC001092A50204C01092A3024E
:100E10000E94B902FF91EF91BF91AF919F918F9185
:100E20007F916F915F914F913F912F910F900FBEE6
:100E30000F901F9018950F931F93CF93DF938C0102
:100E4000FC01C081D18110925E0210925D0210926D
:100E5000A7021092C8021092A50281E08093A4021A
:100E600010927F0261E082E10E94560B61E083E113
:100E70000E94560B8091B9008E7F8093B9008091BB
:100E8000B9008D7F8093B90088E48093B80085E431
:100E90008093BC008BEE92E09093F3018093F2017B
:100EA0008CEE92E09093F7018093F601CE010E94C0
:100EB000CC09803A81F460E070E0CE010E94300CF1
:100EC00040E26FE370E0CE010E9490096EE170E0B5
:100ED00080E090E010C068EE73E080E090E00E9457
:100EE000F60BCE010E94CC09803A29F381E591E00E
:100EF0000E94BA0971C00E94F60BCE010E94CC0973
:100F0000803A29F06AE070E080E090E0F4CF62E39C
:100F100070E080E090E00E94F60B40E06EE370E04D
:100F2000CE010E9490096AE070E080E090E00E94AB
:100F3000F60B40E067E070E0CE010E94900940E0CF
:100F40006FE370E0CE010E9490096AE070E080E0FB
:100F500090E00E94F60B6CE070E0CE010E94300C35
:100F600064E170E080E090E00E94F60B68EE73E0D0
:100F700080E090E00E94F60BF801C081D1810A85E3
:100F80001B8560E070E0CE010E94300C69E170E0EA
:100F900080E090E00E94F60B40E067E070E0CE0158
:100FA0000E94900940E86FE370E0CE010E94900932
:100FB0006AE070E080E090E00E94F60BB801CE019C
:100FC0000E94300C64E170E080E090E0DF91CF910E
:100FD0001F910F910C94F60BFFCFCF92DF92EF92FF
:100FE000FF929B01245F3F4FFB01C190D190E190A4
:100FF000F190BF01FC01C192D192E192F192CF0137
:101000006217730789F7FF90EF90DF90CF900895F4
:101010006F927F928F929F92AF92BF92CF92DF9208
:10102000EF92FF920F931F93CF93DF93CDB7DEB76D
:1010300062970FB6F894DEBF0FBECDBF7C01F701FB
:10104000819191916F018E010F5F1F4F2CE0F8018C
:1010500011922A95E9F75E01FDE0AF0EB11C26E082
:10106000F50111922A95E9F7A5016AE170E00E9465
:10107000760A8F84988869887A886D857E85072EA0
:10108000000C880B990B0E943F1520E030E040E8EF
:101090005DE30E947A1569837A838B839C83B40114
:1010A000990C880B990B0E943F1520E030E040E836
:1010B0005DE30E947A156D837E838F839887B301E9
:1010C000770C880B990B0E943F1520E030E040E838
:1010D0005DE30E947A1569877A878B879C879801E0
:1010E0004701FEE08F0E911CF90181919191A19130
:1010F000B1919F01F60181939193A193B1936F01F7
:10110000E815F90589F7F701808191812CE0F80154
:1011100011922A95E9F726E0F50111922A95E9F74F
:10112000A50168E270E00E94760AAF84B888C98899
:10113000DA886D857E85072E000C880B990B0E943E
:101140003F1520E030E048EC52E40E949D16698390
:101150007A838B839C83B501BB0C880B990B0E940F
:101160003F1520E030E048EC52E40E949D166D836C
:101170007E838F839887B601DD0C880B990B0E94C4
:101180003F1520E030E048EC52E40E949D1669874C
:101190007A878B879C87FAE1EF0EF11CF801819129
:1011A0009191A191B1918F01F40181939193A193B8
:1011B000B1934F01EE15FF0589F762960FB6F894CB
:1011C000DEBF0FBECDBFDF91CF911F910F91FF907A
:1011D000EF90DF90CF90BF90AF909F908F907F90D7
:1011E0006F900895282F3091C802313208F04AC01C
:1011F0008091A5028111FCCF9091BA0342E0409307
:10120000A5022093A4022FEF2093A3021092A20222
:101210003093A102E8EAF2E0A1E8B2E020E0321760
:1012200021F041914D932F5FFACF109280022091CF
:101230008002990F922B9093800290917F029130BF
:1012400061F410927F02909180029093BB00909184
:10125000BC0093FDF8CF95EC01C095EE9093BC00D7
:101260009091A5029230E1F39091A3029F3F79F013
:101270008091A302803241F08091A302803331F04B
:1012800084E005C081E003C082E001C083E01092E9
:10129000A7021092C8021092A60208959091A5028A
:1012A0009111FCCF91E09093A5029093A4022FEFAF
:1012B0002093A3021092A202260F2093A1029093E2
:1012C000800290918002880F892B80938002809108
:1012D0007F02813061F410927F02809180028093BE
:1012E000BB008091BC0083FDF8CF85EC01C085EE8A
:1012F0008093BC008091A5028130E1F38091A2022D
:10130000861710F46091A202A1E8B2E0EFE5F2E0E6
:1013100080E0861721F09D9191938F5FFACF089519
:101320001F93CF93DF93EC01142F8B8191E0909367
:10133000A6028093BA031092A7021092C8028C8171
:101340009D81DC01ED91FC910190F081E02D0995EA
:101350008C819D81DC01ED91FC910190F081E02D6B
:10136000612F099581E00E94F20881E0DF91CF9121
:101370001F910895009769F0FC0101900020E9F7A2
:101380003197AF01481B590BBC0189EC92E00C94DA
:10139000090180E090E00895CF93DF93EC018B8109
:1013A00091E09093A6028093BA031092A702109244
:1013B000C8028C819D81DC01ED91FC910190F0814E
:1013C000E02D60E0099581E00E94F20861E08B81E8
:1013D0000E944E0910925E0280935D028C819D8175
:1013E000DC01ED91FC910284F385E02D0995DF91FC
:1013F000CF910895CF93DF93FC014481558141152E
:101400005105D9F061157105C1F09A01641775078E
:1014100008F49B01EC0188819981421B530B5D8389
:101420004C83BC01620F731F0E940B19E881F98184
:101430008C819D81E80FF91F1082DF91CF91089573
:10144000CF93DF93FC0124813581232B71F0FB01C5
:10145000DC01CD91DC9160817181CE010E941A196D
:10146000009719F08C1B9D0B02C08FEF9FEFDF914F
:10147000CF910895CF93DF93EC012FB7F89480912B
:10148000590290915A02A0915B02B0915C022FBF69
:1014900088879987AA87BB87E881F9810284F385C9
:1014A000E02DCE01099597FF1EC02FB7F8948091CB
:1014B000590290915A02A0915B02B0915C022FBF39
:1014C000488559856A857B85841B950BA60BB70BD0
:1014D0004C815D816E817F8184179507A607B707D0
:1014E000D8F28FEF9FEFDF91CF910895EF92FF92A7
:1014F0000F931F93CF93DF938C017A01DC01139636
:101500008C91139791E09093A6028093BA03109266
:10151000A7021092C80214968D919C911597DC0138
:10152000ED91FC910190F081E02D099581E00E9400
:10153000F20866E0F80183810E944E0910925E0273
:1015400080935D02E701F6E0EF0EF11CD8011496DE
:101550008D919C911597DC01ED91FC910284F385AE
:10156000E02D09958993EC16FD0681F781E0DF9166
:10157000CF911F910F91FF90EF900895FC0144814E
:1015800055816081718189EC92E00C940901EF92A0
:10159000FF920F931F93CF93DF93EC01FB01048124
:1015A0001581E080F180E114F104C9F00115110505
:1015B000C9F08C819D81080F191FB801CE010E94CE
:1015C0007604882361F0288139818C819D81B7015F
:1015D000820F931F0E9404191D830C8303C0CE0148
:1015E0000E949D04CE01DF91CF911F910F91FF903A
:1015F000EF9008950F931F93CF93DF93CDB7DEB78E
:1016000062970FB6F894DEBF0FBECDBF8C01CB0141
:10161000F8011182108213821282158214824AE02C
:10162000BE016F5F7F4F0E94C112BE016F5F7F4F8F
:10163000C8010E94AF0462960FB6F894DEBF0FBED9
:10164000CDBFDF91CF911F910F910895EF92FF923F
:101650000F931F93CF93DF93CDB7DEB7A1970FB64C
:10166000F894DEBF0FBECDBF7C01CB01BA01F701FC
:101670001182108213821282158214828E010F5FF2
:101680001F4F22E044E00E947A12BC01C7010E9471
:10169000AF04A1960FB6F894DEBF0FBECDBFDF91A9
:1016A000CF911F910F91FF90EF90089590E0FC0172
:1016B000E459FE4F2491FC01E855FE4F3491FC01A2
:1016C000EC56FE4FE491EE2309F43CC0222339F19D
:1016D000233091F038F42130A9F0223001F584B59F
:1016E0008F7D12C0273091F02830A1F02430B9F45A
:1016F000809180008F7D03C0809180008F778093E0
:1017000080000DC084B58F7784BD09C08091B00082
:101710008F7703C08091B0008F7D8093B000F0E0A0
:10172000EE0FFF1FE657FE4FA591B4919FB7F894B7
:10173000611104C08C913095382302C0EC913E2B8E
:101740003C939FBF0895CF93DF9390E0FC01E85551
:10175000FE4F2491FC01EC56FE4F8491882361F1E9
:1017600090E0880F991FFC01EE59FE4FC591D4916E
:10177000FC01E657FE4FA591B491611109C09FB7D6
:10178000F8948881209582238883EC912E230BC0C6
:10179000623061F49FB7F8948881322F30958323AB
:1017A0008883EC912E2B2C939FBF06C08FB7F894A3
:1017B000E8812E2B28838FBFDF91CF9108958E3043
:1017C00008F08E508770806480937C0080917A004E
:1017D000806480937A0080917A0086FDFCCF8091AE
:1017E00078002091790090E0922B08958F929F923B
:1017F000AF92BF92CF92DF92EF92FF926B017C018A
:101800000E94780C4B015C01C114D104E104F10485
:10181000F1F00E94780CDC01CB0188199909AA0922
:10182000BB09883E9340A105B10570F321E0C21ABF
:10183000D108E108F10888EE880E83E0981EA11C0B
:10184000B11CC114D104E104F10419F7DDCFFF90FC
:10185000EF90DF90CF90BF90AF909F908F900895C2
:10186000462FFC01628773876DE370E00E94900948
:101870006EE170E080E090E00C94F60BCF92DF9286
:10188000EF92FF920F931F93CF93DF937C018B0115
:101890006A016FEA71E00E94E004D80114968D910C
:1018A0009C9115970097C1F0E6018C159D0508F4F1
:1018B000EC01D801ED91FC911197EC0FFD1FD08048
:1018C00010826D917C91C7010E94AF04F801808164
:1018D0009181C80FD91FD882C701DF91CF911F9185
:1018E0000F91FF90EF90DF90CF9008950E94F6182F
:1018F0003FB7F8948091CB039091CC03A091CD0396
:10190000B091CE0326B5A89B05C02F3F19F00196D4
:10191000A11DB11D3FBFBA2FA92F982F8827820F75
:10192000911DA11DB11DBC01CD0142E0660F771FC5
:10193000881F991F4A95D1F708951F920F920FB6ED
:101940000F9211242F933F938F939F93AF93BF9345
:101950008091590290915A02A0915B02B0915C0271
:101960003091CA0323E0230F2D3720F40196A11DE7
:10197000B11D05C026E8230F0296A11DB11D2093BD
:10198000CA038093590290935A02A0935B02B093CA
:101990005C028091CB039091CC03A091CD03B091D8
:1019A000CE030196A11DB11D8093CB039093CC0370
:1019B000A093CD03B093CE03BF91AF919F918F9130
:1019C0003F912F910F900FBE0F901F9018951F936E
:1019D000CF93DF93EC01162FFC0132968CE0DF01F0
:1019E000982F1D929A95E9F73C96DF011D928A95F2
:1019F000E9F78CE090E00E940F17FC018AE091E08B
:101A0000918380838FEF9FEFDC0186839783A0878C
:101A1000B187138386E693E095838483F983E88313
:101A2000DF91CF911F910895CF92DF92EF92FF92B5
:101A3000CF93DF931092CC021092CB0298EEC92E76
:101A400093E0D92EE12CF12CC092CD02D092CE029F
:101A5000E092CF02F092D00288E191E09093CA0226
:101A60008093C90285EC90E09093D6028093D502D2
:101A700084EC90E09093D8028093D70280EC90E0C1
:101A80009093DA028093D90281EC90E09093DC028B
:101A90008093DB0282EC90E09093DE028093DD0283
:101AA00086EC90E09093E0028093DF021092E202D5
:101AB0001092E3021092E4021092E5021092690380
:101AC00010926803C0926A03D0926B03E0926C0399
:101AD000F0926D038AE291E090936703809366032E
:101AE0008FE190E00E940F17EC011B821A82CC82DA
:101AF000DD82EE82FF828CE391E0998388831F8AE6
:101B00001E8A198E188E1B8E1A8E1D8E1C8E6E8D3F
:101B10006E7F6D7F6E8F6695617081E0682782E0D1
:101B20000E94560B61E082E00E94A30BEAEAF1E01A
:101B3000E491E88BE6E9F1E0E491F0E0EE0FFF1FBD
:101B4000E657FE4F859194919A8B898B60E083E0F4
:101B50000E94A30B8E8D81FD04C061E083E00E9492
:101B6000560B83E08C87EBEAF1E0E491ED87E7E93F
:101B7000F1E0E491F0E0EE0FFF1FE058FE4F859199
:101B800094919F878E87D093AF03C093AE038DE966
:101B900091E09D8F8C8F2DEB30E03F8B2E8B2BE9CE
:101BA00031E0398F288F2CE231E03B8F2A8F209152
:101BB00068002460209368002DE630E03C8B2B8B7E
:101BC00028E02D8B0197F1F7E0917403F0917503F4
:101BD000CE17DF07D1F0309739F0A389B4899C91F3
:101BE0008589809589238C938E8D8E7F8E8F109220
:101BF000730310927203D0937503C0937403EB893F
:101C0000FC8990818D89892B808369E270E084E969
:101C100093E00E94E70C68E270E08AE793E00E949C
:101C2000E70C81E1809379038FE08093780380E172
:101C3000809377038EE080937603DF91CF91FF90BE
:101C4000EF90DF90CF900895CF93DF93CDB7DEB7BD
:101C500068970FB6F894DEBF0FBECDBF789484B5F9
:101C6000826084BD84B5816084BD85B5826085BD98
:101C700085B5816085BD80916E00816080936E0026
:101C80001092810080918100826080938100809118
:101C900081008160809381008091800081608093C9
:101CA00080008091B10084608093B1008091B00089
:101CB00081608093B00080917A00846080937A0084
:101CC00080917A00826080937A0080917A008160AE
:101CD00080937A0080917A00806880937A001092D5
:101CE000C100E091D902F091DA0282E08083E091B4
:101CF000D502F091D6021082E091D702F091D8027D
:101D000010821092E102E091DD02F091DE0286E0A5
:101D10008083E091DB02F091DC028081806180832E
:101D2000E091DB02F091DC02808188608083E091A9
:101D3000DB02F091DC02808180688083E091DB022D
:101D4000F091DC0280818F7D808364EF71E080E020
:101D500090E00E94F60B84E290E09093BF038093A2
:101D6000BE0323EF30E03093C1032093C0038FE71D
:101D700090E09093C3038093C2034AE050E05093F5
:101D8000C5034093C4033093C7032093C6039093C5
:101D9000C9038093C80383E090E00E940F1726E0F8
:101DA00030E0DC0111963C932E9312961C92909396
:101DB000BD038093BC038CB5837F8CBD8CB58F7DB8
:101DC0008CBD8CB58C7F81608CBD8DB581608DBDE7
:101DD0001FB7F8948091BB03811127C0EEE9F1E0B1
:101DE0008491E2EBF1E09491E82FF0E0EE0FFF1F19
:101DF000EE59FE4FA591B491EC91E92321F461E0F5
:101E00008AE00E94560B61E08AE00E94A30B8CB529
:101E100080618CBD8CB580648CBD61E08DE00E94DA
:101E2000A30B61E08BE00E94A30B8091BB038F5F4B
:101E30008093BB031FBF0091BC031091BD0361E001
:101E4000F80180810E94A30B61E0D8018C910E946F
:101E5000560B60E0F80180810E94560BD801129663
:101E60008C911297811103C060E08C9103C061E0F6
:101E7000F80180810E94560B81E48EBD00000DB4F4
:101E800007FEFDCF8EB58FEF8EBD00000DB407FEAF
:101E9000FDCF8EB5D80112968C911297811103C097
:101EA00061E08C9103C060E0F80180810E94560BD4
:101EB00061E0D8018C910E94560B84E993E00E9466
:101EC0001B078AE793E00E941B0780E991E00E94CC
:101ED000BA0981EA91E00E94BA098091AE0390911B
:101EE000AF03DC01ED91FC910084F185E02D0995B3
:101EF000892B09F43AC1E090AE03F090AF036FEA8A
:101F000071E0CE0143960E94E004C7010E943A0AA4
:101F100097FD1EC08A309105D9F089831A820F89F6
:101F2000188D0F5F1F4FB801CE0143960E947604B3
:101F3000882359F32B893C898F89988DBE016F5F67
:101F40007F4F820F931F0E940419188F0F8BDDCFD4
:101F500064EA71E0CE0101960E94E004BE016F5F69
:101F60007F4FCE0143960E94200AAC01BE016D5EF8
:101F70007F4FCE010D960E943E0CCE010D960E9421
:101F80006B047093B1036093B003CE010D960E9471
:101F9000DB04CE0101960E94DB0464EA71E0CE010D
:101FA00001960E94E004BE016F5F7F4FCE01439611
:101FB0000E94200ABC016F5F7F4FCE0143960E94B2
:101FC000FA09CE0101960E94DB0464EA71E0CE01B9
:101FD00001960E94E004BE016F5F7F4FCE014396E1
:101FE0000E94200AAC01BE016D5E7F4FCE010D96AE
:101FF0000E943E0CCE010D960E946B047093B303B9
:102000006093B203CE010D960E94DB04CE010196CF
:102010000E94DB0464EA71E0CE0101960E94E004B4
:10202000BE016F5F7F4FCE0143960E94200ABC0124
:102030006F5F7F4FCE0143960E94FA09CE01019651
:102040000E94DB0464EA71E0CE0101960E94E00484
:10205000BE016F5F7F4FCE0143960E94200AAC0104
:10206000BE016D5E7F4FCE010D960E943E0CCE01EB
:102070000D960E946B047093B5036093B403CE0178
:102080000D960E94DB04CE0101960E94DB0464EAF7
:1020900071E0CE0101960E94E004BE016F5F7F4FA8
:1020A000CE0143960E94200ABC016F5F7F4FCE0194
:1020B00043960E94FA09CE0101960E94DB0464EA6D
:1020C00071E0CE0101960E94E004BE016F5F7F4F78
:1020D000CE0143960E94200AAC01BE016D5E7F4F87
:1020E000CE010D960E943E0CCE010D960E946B040F
:1020F0007093B7036093B603CE010D960E94DB0484
:10210000CE0101960E94DB0464EA71E0CE010196E3
:102110000E94E004BE016F5F7F4FCE0143960E9494
:10212000200ABC016F5F7F4FCE0143960E94FA09DF
:10213000CE0101960E94DB044F89588DBE016D5E71
:102140007F4FCE0101960E943E0CCE0101960E9467
:102150006B047093B9036093B803CE0101960E949B
:10216000DB04CE0143960E94DB0484E993E00E94E5
:1021700008088AE793E00E94080886EA91E00E9436
:10218000BA096091B0037091B103CE0101960E942B
:10219000FA0A6EEA71E0CE010D960E94E004BE01DB
:1021A0006F5F7F4FCE010D960E94C70A0E94BE0A44
:1021B000CE010D960E94DB04CE0101960E94DB0445
:1021C0006091B2037091B303CE0101960E94FA0AA6
:1021D0006EEA71E0CE010D960E94E004BE016F5FD1
:1021E0007F4FCE010D960E94C70A0E94BE0ACE0103
:1021F0000D960E94DB04CE0101960E94DB0480EB69
:1022000091E00E94BA0962EA73E0CE0101960E9451
:10221000ED0749815A816B817C81CE010D960E9428
:10222000260B6EEA71E0CE0143960E94E004BE01E7
:10223000635F7F4FCE0143960E94C70A0E94BE0A89
:10224000CE0143960E94DB04CE010D960E94DB0472
:1022500062EA73E0CE0101960E94ED074D815E8136
:102260006F817885CE010D960E94260B6EEA71E093
:10227000CE0143960E94E004BE01635F7F4FCE0112
:1022800043960E94C70A0E94BE0ACE0143960E944E
:10229000DB04CE010D960E94DB0462EA73E0CE01FE
:1022A00001960E94ED0749855A856B857C85CE0194
:1022B0000D960E94260B6EEA71E0CE0143960E94B5
:1022C000E004BE01635F7F4FCE0143960E94C70AC0
:1022D0000E94BE0ACE0143960E94DB04CE010D96F9
:1022E0000E94DB048DEB91E00E94BA098091790392
:1022F0000E94DF0BBC01CE0101960E94FA0A6EEA31
:1023000071E0CE010D960E94E004BE016F5F7F4F29
:10231000CE010D960E94C70A0E94BE0ACE010D96FC
:102320000E94DB04CE0101960E94DB0480917803B9
:102330000E94DF0BBC01CE0101960E94FA0A6EEAF0
:1023400071E0CE010D960E94E004BE016F5F7F4FE9
:10235000CE010D960E94C70A0E94BE0ACE010D96BC
:102360000E94DB04CE0101960E94DB0486EC91E022
:102370000E94BA0968E873E0CE0101960E94ED0759
:1023800049815A816B817C81CE010D960E94260B7A
:102390006EEA71E0CE0143960E94E004BE01635FE5
:1023A0007F4FCE0143960E94C70A0E94BE0ACE010B
:1023B00043960E94DB04CE010D960E94DB0468E880
:1023C00073E0CE0101960E94ED074D815E816F8121
:1023D0007885CE010D960E94260B6EEA71E0CE0143
:1023E00043960E94E004BE01635F7F4FCE01439697
:1023F0000E94C70A0E94BE0ACE0143960E94DB04D7
:10240000CE010D960E94DB0468E873E0CE010196D0
:102410000E94ED0749855A856B857C85CE010D9616
:102420000E94260B6EEA71E0CE0143960E94E00402
:10243000BE01635F7F4FCE0143960E94C70A0E9490
:10244000BE0ACE0143960E94DB04CE010D960E9487
:10245000DB048DEB91E00E94BA09809177030E9422
:10246000DF0BBC01CE0101960E94FA0A6EEA71E010
:10247000CE010D960E94E004BE016F5F7F4FCE013A
:102480000D960E94C70A0E94BE0ACE010D960E94B8
:10249000DB04CE0101960E94DB04809176030E944A
:1024A000DF0BBC01CE0101960E94FA0A6EEA71E0D0
:1024B000CE010D960E94E004BE016F5F7F4FCE01FA
:1024C0000D960E94C70A0E94BE0A81EA91E00E940E
:1024D000BA09CE010D960E94DB04CE0101960E943E
:1024E000DB0461E270E080E090E00E94F60B0E9465
:1024F0000B02F3CCEF920F931F93CF93DF93E8017E
:1025000047FD02C034E001C034E1042E000C550B3D
:1025100057FF03C0519541955109E32E022F242FF7
:10252000AE010E94FB12CE01DF91CF911F910F915E
:10253000EF9008951F93FC0199278827BC01E89428
:1025400011911032E9F3193010F01E30C8F31B322C
:1025500051F01D3249F4689406C00E94CC12610FFC
:10256000711D811D911D119110531A30B0F33EF46D
:1025700090958095709561957F4F8F4F9F4F1F91DC
:102580000895BB274A3031F4992322F4BDE2909597
:1025900081959F4F0C94E212592F482F372F262FE9
:1025A000660F771F881F991F660F771F881F991F57
:1025B000620F731F841F951F660F771F881F991F57
:1025C0000895BB27FB015527AA27880F991FAA1F2B
:1025D000A41710F0A41B83955051B9F7A05DAA333E
:1025E00008F0A95DA193009779F7B111B193119209
:1025F000CB010C942D15A9E0B0E0E1E0F3E10C94DF
:102600003E166A01122FB02E2BE3201720F0FF2474
:10261000F394F00E02C02CE3F22E0F2D27E0AE0152
:102620004F5F5F4F0E945514BC014981842F897010
:10263000813031F0E1FC06C0E0FE06C090E205C04A
:102640009DE203C09BE201C090E05E2D507143FF0C
:102650003CC0911102C083E001C084E0811718F4EE
:10266000212F281B01C020E051110BC0F601822F41
:1026700030E2882319F031938150FBCFC20ED11C78
:1026800020E0992329F0D6019C93F60131966F0141
:10269000C6010396E2FE0AC03EE4D6013C9341E443
:1026A00011964C93119712963C9306C03EE6F601A4
:1026B000308341E641833283FC01322F40E23323F1
:1026C00009F442C041933150FACF42FF44C0911106
:1026D00002C083E001C084E0811718F4212F281B79
:1026E00001C020E051110BC0F601822F30E2882397
:1026F00019F031938150FBCFC20ED11C20E09923F9
:1027000029F0D6019C93F60131966F01C60103961C
:10271000E2FE0BC039E4D6013C933EE411963C93B3
:10272000119736E412963C9307C039E6F6013083E0
:102730003EE6318336E63283FC01322F40E233231A
:1027400019F041933150FBCFFC01E20FF11D1082D3
:102750008EEF9FEFA6C021E030E0911102C020E093
:1027600030E0161617061CF4FB01319602C0E1E0BA
:10277000F0E02E0F3F1FBB2021F0EB2DF0E0319653
:1027800002C0E0E0F0E02E0F3F1FE12FF0E02E1737
:102790003F071CF4121B212F01C020E08E2D8871F1
:1027A00059F4F601822F30E2882319F031938150D9
:1027B000FBCFC20ED11C20E0992329F0D6019C93B7
:1027C000F60131966F0151110BC0F601822F90E393
:1027D000882319F091938150FBCFC20ED11C20E0C9
:1027E0000F2D060F9A81342F307144FF03C09133AF
:1027F00009F40150101624F4093018F008E001C063
:1028000001E0AB0177FF02C040E050E0FB01E41BB8
:10281000F50BA1E0B0E0AC0FBD1FEA0FFB1F8EE28D
:10282000A82E4B01801A91080B2D10E011950195EF
:1028300011094F3FBFEF5B0721F4D601AC9211960F
:102840006D01641775072CF08416950614F48181C8
:1028500001C080E3415051093196D60111967D01A6
:102860004017510724F0D6018C936701E2CF64171B
:10287000750739F4963320F4953319F4311101C0FA
:1028800081E3F6018083F701822F90E2882319F01B
:1028900091938150FBCFF701E20FF11D108280E090
:1028A00090E02996ECE00C945A16283008F027E0C6
:1028B0003327DA01990F311D87FD9160009661057C
:1028C000710539F432602E5F3D9330E32A95E1F7CC
:1028D00008959F3F30F080387105610509F03C5F35
:1028E0003C5F3D93913008F08068911DDF93CF935A
:1028F0001F930F93FF92EF92192F987F9695E92FD0
:1029000096959695E90FFF27EE53FF4F99273327AA
:10291000EE24FF24A701E70105900894079428F40A
:10292000360FE71EF81E491F511D660F771F881FBF
:10293000991F0694A1F70590079428F4E70EF81E56
:10294000491F561FC11D770F881F991F661F0694C8
:10295000A1F70590079428F4F80E491F561FC71FCA
:10296000D11D880F991F661F771F0694A1F7059048
:10297000079420F4490F561FC71FD81F990F661FD1
:10298000771F881F0694A9F784911095177041F05E
:10299000D695C79557954795F794E7941A95C1F73B
:1029A000E8E6F0E068941590159135916591959160
:1029B00005907FE27395E118F10A430B560BC90BA2
:1029C000D009C0F7E10CF11E431F561FC91FD01DCF
:1029D0007EF4703311F48A95E6CFE894015030F01C
:1029E000080F0AF40027021708F4202F2395022F5E
:1029F0007A3328F079E37D932A95E9F710C07D9327
:102A00002A9589F6069497956795379517951794A3
:102A1000E118F10A430B560BC90BD00998F0239526
:102A20007E9173957A3308F070E37C932013B8F7A6
:102A30007E9170617D9330F0839571E37D9370E3B7
:102A40002A95E1F71124EF90FF900F911F91CF91FC
:102A5000DF91992787FD90950895DC01FC01672F90
:102A600071917723E1F7329704C07C916D93708365
:102A70006291AE17BF07C8F30895E89409C097FBA9
:102A80003EF490958095709561957F4F8F4F9F4F45
:102A90009923A9F0F92F96E9BB279395F695879589
:102AA00077956795B795F111F8CFFAF4BB0F11F44C
:102AB00060FF1BC06F5F7F4F8F4F9F4F16C08823F3
:102AC00011F096E911C0772321F09EE8872F762F29
:102AD00005C0662371F096E8862F70E060E02AF06A
:102AE0009A95660F771F881FDAF7880F9695879556
:102AF00097F908950E948D150C94FE150E94F0150B
:102B000038F00E94F71520F0952311F00C94E7158A
:102B10000C94ED1511240C9432160E940F1670F3CC
:102B2000959FC1F3950F50E0551F629FF001729F72
:102B3000BB27F00DB11D639FAA27F00DB11DAA1F81
:102B4000649F6627B00DA11D661F829F2227B00DCE
:102B5000A11D621F739FB00DA11D621F839FA00D59
:102B6000611D221F749F3327A00D611D231F849FA9
:102B7000600D211D822F762F6A2F11249F57504000
:102B80009AF0F1F088234AF0EE0FFF1FBB1F661F7B
:102B9000771F881F91505040A9F79E3F510580F044
:102BA0000C94E7150C9432165F3FE4F3983ED4F38F
:102BB000869577956795B795F795E7959F5FC1F7E8
:102BC000FE2B880F911D9695879597F9089597F993
:102BD0009F6780E870E060E008959FEF80EC0895C3
:102BE00000240A94161617061806090608950024EC
:102BF0000A9412161306140605060895092E039466
:102C0000000C11F4882352F0BB0F40F4BF2B11F4D9
:102C100060FF04C06F5F7F4F8F4F9F4F089557FD38
:102C20009058440F551F59F05F3F71F04795880F3A
:102C300097FB991F61F09F3F79F0879508951216D1
:102C400013061406551FF2CF4695F1DF08C016167D
:102C500017061806991FF1CF86957105610508942E
:102C60000895E894BB2766277727CB0197F9089545
:102C70002F923F924F925F926F927F928F929F928C
:102C8000AF92BF92CF92DF92EF92FF920F931F937A
:102C9000CF93DF93CDB7DEB7CA1BDB0B0FB6F8942B
:102CA000DEBF0FBECDBF09942A88398848885F846B
:102CB0006E847D848C849B84AA84B984C884DF80DC
:102CC000EE80FD800C811B81AA81B981CE0FD11DC0
:102CD0000FB6F894DEBF0FBECDBFED01089597FB90
:102CE000072E16F4009407D077FD09D00E948316B2
:102CF00007FC05D03EF4909581959F4F08957095FF
:102D000061957F4F0895AA1BBB1B51E107C0AA1F05
:102D1000BB1FA617B70710F0A61BB70B881F991F7C
:102D20005A95A9F780959095BC01CD010895EE0FB5
:102D3000FF1F0590F491E02D09940E94B1160C94A8
:102D4000FE150E94F71558F00E94F01540F029F486
:102D50005F3F29F00C94E71551110C9432160C9436
:102D6000ED150E940F1668F39923B1F3552391F3E3
:102D7000951B550BBB27AA2762177307840738F0EA
:102D80009F5F5F4F220F331F441FAA1FA9F335D047
:102D90000E2E3AF0E0E832D091505040E695001CFB
:102DA000CAF72BD0FE2F29D0660F771F881FBB1FB5
:102DB000261737074807AB07B0E809F0BB0B802D93
:102DC000BF01FF2793585F4F3AF09E3F510578F0BF
:102DD0000C94E7150C9432165F3FE4F3983ED4F35D
:102DE000869577956795B795F7959F5FC9F7880F93
:102DF000911D9695879597F90895E1E0660F771FE5
:102E0000881FBB1F621773078407BA0720F0621B75
:102E1000730B840BBA0BEE1F88F7E09508950F93A0
:102E20001F93CF93DF938230910510F482E090E0FE
:102E3000E091D103F091D20320E030E0A0E0B0E0D7
:102E4000309719F140815181028113814817590748
:102E5000C8F08417950769F4109731F012960C9317
:102E6000129713961C9327C00093D1031093D2039B
:102E700022C02115310519F04217530718F49A01A1
:102E8000BD01EF01DF01F801DBCF21153105F9F0BC
:102E9000281B390B2430310580F48A819B81611510
:102EA000710521F0FB019383828304C09093D203C8
:102EB0008093D103FE01329644C0FE01E20FF31F5E
:102EC0008193919322503109398328833AC020910C
:102ED000CF033091D003232B41F420910201309194
:102EE00003013093D0032093CF0320910001309150
:102EF00001012115310541F42DB73EB74091040180
:102F000050910501241B350BE091CF03F091D003C4
:102F1000E217F307A0F42E1B3F0B2817390778F0B0
:102F2000AC014E5F5F4F2417350748F04E0F5F1F0F
:102F30005093D0034093CF038193919302C0E0E07C
:102F4000F0E0CF01DF91CF911F910F910895CF93C2
:102F5000DF93009709F481C0FC013297138212823B
:102F6000A091D103B091D203109781F420813181D7
:102F7000820F931F2091CF033091D0032817390778
:102F800051F5F093D003E093CF0367C0ED0120E04B
:102F900030E0CE17DF0740F44A815B819E01411586
:102FA0005105F1F0EA01F5CFD383C283408151810D
:102FB000840F951FC817D90759F488819981840F08
:102FC000951F0296918380838A819B81938382835C
:102FD0002115310529F4F093D203E093D1033DC0CC
:102FE000E901FB83EA8349915991C40FD51FEC177E
:102FF000FD0761F480819181840F951F0296E9019C
:1030000099838883828193819B838A83E0E0F0E0C7
:1030100012968D919C911397009719F0FD01DC0198
:10302000F7CF8D919C9111979D012E5F3F4F820F9D
:10303000931F2091CF033091D0032817390769F4EB
:10304000309729F41092D2031092D10302C0138258
:103050001282B093D003A093CF03DF91CF91089554
:10306000A0E0B0E0E6E3F8E10C943C16EC01009738
:1030700021F4CB010E940F17B4C0FC01E60FF71F2B
:103080009C0122503109E217F30708F4A8C0D901C6
:103090000D911C91119706171707B0F00530110517
:1030A00008F49BC0C80104978617970708F495C0D9
:1030B00002501109061B170B019311936D937C931A
:1030C000CF010E94A71789C05B01A01AB10A4C0169
:1030D000800E911EA091D103B091D203612C712C6E
:1030E000E12CF12C109709F446C08D919C91119719
:1030F000A815B905B1F56C0142E0C40ED11CCA1483
:10310000DB0478F14C018A189B08640142E0C40E8C
:10311000D11C1296BC9012971396AC91B5E0CB16C9
:10312000D10440F0B282A38391828082D9016D9351
:103130007C9309C00E5F1F4F800F911FF90191838F
:103140008083EB2DFA2FE114F10431F0D7011396AF
:10315000FC93EE93129741C0F093D203E093D10316
:103160003CC06816790608F43C017D0112960D906A
:10317000BC91A02DB7CF8091CF039091D00388163A
:103180009906E1F466167706C8F4809100019091E3
:103190000101009741F48DB79EB740910401509111
:1031A0000501841B950BE817F907C8F4F093D003C9
:1031B000E093CF03F901718360830FC0CB010E94BC
:1031C0000F177C01009759F0A801BE010E94FB185F
:1031D000CE010E94A717C70104C0CE0102C080E043
:1031E00090E0CDB7DEB7EEE00C94581681E090E0A9
:1031F000F8940C943419FB01DC0102C001900D928B
:1032000041505040D8F70895FB01DC0101900D9228
:103210000020E1F70895FB01DC014150504048F0E7
:1032200001900D920020C9F701C01D9241505040FD
:10323000E0F70895FB0151915523A9F0BF01DC018E
:103240004D9145174111E1F759F4CD01019000204E
:1032500049F04D9140154111C9F3FB014111EFCFE8
:0C32600081E090E001970895F894FFCF02
:10326C000000D303200000000000B7027803B8026E
:10327C007A032604000000009C0109013301E901D6
:10328C006401420156010000000045031803750358
:10329C002D021003FC02ED02000000002E020901B9
:1032AC0075032D027E0296021502424E4F303535C3
:1032BC00004F6F6F70732C206E6F20424E4F303565
:1032CC00352031206465746563746564202E2E2E60
:1032DC0020436865636B20796F757220776972691A
:1032EC006E67206F722049324320414444522100C2
:1032FC0050726F6772616D207374617274656421B2
:10330C00000D0A002C000963686573743A0009000B
:10331C000972696768742073686F653A000977658C
:10332C00696768743A00096C6566742073686F6528
:02333C003A0055
:00000001FF
