:100000000C9414010C943C010C943C010C94BE051E
:100010000C94BE050C94BE050C943C010C943C0160
:100020000C943C010C943C010C943C010C943C015C
:100030000C943C010C943C010C943C010C943C014C
:100040000C94FE100C943C010C947C050C94560509
:100050000C943C010C943C010C943C010C943C012C
:100060000C9438060C943C01084AD73B3BCE016EF9
:1000700084BCBFFDC12F3D6C74319ABD56833DDAFF
:100080003D00C77F11BED9E4BB4C3E916BAAAABE0E
:10009000000000803F004E414E494E495459494EA0
:1000A00046CDCCCC3D0AD7233C17B7D13877CC2BE3
:1000B000329595E6241FB14F0A000020410000C888
:1000C0004200401C4620BCBE4CCA1B0E5AAEC59D09
:1000D0007400407A10F35A00A0724E18090010A55F
:1000E000D4E80000E87648170000E40B5402000052
:1000F000CA9A3B000000E1F50500008096980000D8
:100100000040420F000000A0860100000010270000
:10011000000000E803000000006400000000000A86
:1001200000000000000100000000002C76D888DCF0
:10013000674F0823DFC1DFAE59E1B1B796E5E3E4CD
:1001400053C63AE651997696E8E6C28426EB898C46
:100150009B62ED407C6FFCEFBC9C9F40F2BAA56FA8
:10016000A5F490055A2AF75C936B6CF9676DC11B77
:10017000FCE0E40D47FEF520E6B500D0ED902E033F
:1001800000943577050080841E080000204E0A0088
:100190000000C80C333333330F986E12831141EFD4
:1001A0008D2114893BE65516CFFEE6DB18D1844B32
:1001B000381BF77C1D901DA4BBE424203284725EA2
:1001C000228100C9F124ECA1E53D270000000023B5
:1001D000002600290000000000240027002A00005B
:1001E000000000250028002B00040404040404047B
:1001F00004020202020202030303030303010204D6
:100200000810204080010204081020010204081098
:1002100020000000080002010000030407000000A5
:10022000000000000000381D11241FBECFEFD8E0F1
:10023000DEBFCDBF12E0A0E0B1E0EAE3FFE402C020
:1002400005900D92AC3CB107D9F724E0ACECB2E0DC
:1002500001C01D92AB3BB207E1F711E0C4E1D1E070
:1002600004C02197FE010E949923C331D107C9F729
:100270000E9448110C949B270C940000CF92DF92AF
:10028000EF92FF920F931F93CF93DF936C017A014C
:100290008B01C0E0D0E0CE15DF0581F0D8016D9173
:1002A0008D01D601ED91FC910190F081E02DC60108
:1002B0000995892B11F02196EECF7E01C701DF91C0
:1002C000CF911F910F91FF90EF90DF90CF90089505
:1002D000FC01538D448D252F30E0842F90E0821B4C
:1002E000930B541710F0CF96089501970895FC01D1
:1002F000918D828D981761F0828DDF01A80FB11D5D
:100300005D968C91928D9F5F9F73928F90E0089580
:100310008FEF9FEF0895FC01918D828D981731F03A
:10032000828DE80FF11D858D90E008958FEF9FEF8E
:100330000895FC01918D228D892F90E0805C9F4F64
:10034000821B91098F73992708958DED93E00E9488
:10035000990121E0892B09F420E0822F0895FC0106
:10036000848DDF01A80FB11DA35ABF4F2C91848D3E
:1003700090E001968F739927848FA689B7892C9373
:10038000A089B1898C91837080648C93938D848DC6
:10039000981306C00288F389E02D80818F7D8083C9
:1003A0000895EF92FF920F931F93CF93DF93EC0189
:1003B00081E0888F9B8D8C8D981305C0E889F98921
:1003C000808185FD26C0F62E0B8D10E00F5F1F4F3C
:1003D0000F731127E02E8C8DE8120CC00FB607FCAE
:1003E000FACFE889F989808185FFF5CFCE010E9497
:1003F000AF01F1CF8B8DFE01E80FF11DE35AFF4FE6
:10040000F0829FB7F8940B8FEA89FB898081806224
:100410000AC09FB7F894EE89FF896083E889F9895B
:1004200080818370806480839FBF81E090E0DF9152
:10043000CF911F910F91FF90EF900895CF93DF938D
:10044000EC01888D8823C9F0EA89FB89808185FDCC
:1004500005C0A889B9898C9186FD0FC00FB607FC2D
:10046000F5CF808185FFF2CFA889B9898C9185FF6E
:10047000EDCFCE010E94AF01E7CFDF91CF9108957C
:1004800080E090E0892B29F00E94A50181110C9455
:10049000000008952091CE023091CF02281739072D
:1004A00071F49091CC028091CD02981741F0E091C7
:1004B000CC02F0E0EB5BFC4F808190E008958FEF81
:1004C0009FEF089508951F93CF93DF93DC015C960F
:1004D0008D919C915D97009739F421E030E013965F
:1004E0003C932E9312973BC05196ED91FC915297FD
:1004F00050962C915097322F30951FB75E964C91A5
:100500005E97742F727041FD6095F8944081772357
:1005100011F0422B01C043234083EC012197F1F7F6
:1005200048E0508160FF02C0522B01C0532350832A
:10053000EC012197F1F76695415099F78081772377
:1005400019F08323808302C0282B20831FBF5C9671
:100550008D919C915D970197F1F781E090E0DF919B
:10056000CF911F9108952091CE023091CF0228178C
:10057000390771F48091CD022091CC0290E0805C2B
:100580009F4F821B910960E470E00E9468230895E8
:1005900080E090E008952091CE023091CF0228179C
:1005A0003907B9F49091CC028091CD02981789F067
:1005B000E091CC02F0E0EB5BFC4F80812091CC021B
:1005C00030E02F5F3F4F2F7333272093CC0290E012
:1005D00008958FEF9FEF08950895089585ED809316
:1005E000BC008091BC0084FDFCCF1092CC03089528
:1005F00040912203262F30E0240F311D2132310596
:10060000DCF42091CC032430C9F4FC0180E090E0BC
:10061000861758F4309122032191DC01AE5FBC4F64
:10062000A30FB11D2C930196F3CF80912203680F85
:100630006093220380E0089581E0089582E00895A8
:1006400008950895E091870480918604E81730F4B6
:10065000F0E0EA57FC4F808190E008958FEF9FEF24
:1006600008959091870480918604981750F4E92F9B
:10067000F0E0EA57FC4F208130E09F5F90938704C1
:1006800002C02FEF3FEFC90108958091860490E0EA
:1006900020918704821B91090895CF92DF92EF92F7
:1006A000FF920F931F93CF93DF937C01CB018A01BD
:1006B00020918804222389F0EB016B01C40ED51E22
:1006C000CC15DD0569F06991D701ED91FC910190A0
:1006D000F081E02DC7010995F3CF642F0E94F80245
:1006E000C801DF91CF911F910F91FF90EF90DF90A4
:1006F000CF900895CF93DF931F92CDB7DEB7698374
:10070000209188042223D1F02091AA04203240F0C5
:1007100021E030E0FC013383228380E090E015C0CB
:1007200080918904E82FF0E0E657FB4F9981908390
:100730008F5F809389048093AA0405C061E0CE0195
:1007400001960E94F80281E090E00F90DF91CF9136
:100750000895089580E090E008950E945D270F932A
:100760001F93CF93DF93EC0188819981009729F043
:100770002A813B812617370788F48B016F5F7F4FF3
:100780000E949726009761F0998388831B830A83D0
:100790002C813D81232B11F4FC01108281E001C0EA
:1007A00080E0DF91CF911F910F9108950C940E2658
:1007B0008F929F92AF92BF92CF92DF92EF92FF9271
:1007C0000F931F93CF93DF93CDB7DEB762970FB62A
:1007D000F894DEBF0FBECDBF7C018B0184E2DB014C
:1007E0001D928A95E9F784E290E0A0E0B0E0FB0179
:1007F00080839183A283B383F70186819781A0854B
:10080000B185FB0184839583A683B78383E090E061
:10081000A0E0B0E080879187A287B3870E94F210A2
:10082000D80150966D937D938D939C935397FE01C1
:1008300031968CE0DF011D928A95E9F7AE01435FA6
:100840005F4F86E0FA0111928A95E9F76AE170E05C
:10085000C7010E946C0F6D857E85072E000C880BEA
:10086000990B0E94AE2120E030E040E85DE30E9459
:100870000D224B015C016F857889072E000C880BD7
:10088000990B0E94AE2120E030E040E85DE30E9439
:100890000D226B017C0169897A89072E000C880B77
:1008A000990B0E94AE2120E030E040E85DE30E9419
:1008B0000D22D80154968D929D92AD92BC9257977D
:1008C000F801C08ED18EE28EF38E5C966D937D938F
:1008D0008D939C935F9781E062960FB6F894DEBF8C
:1008E0000FBECDBFDF91CF911F910F91FF90EF9081
:1008F000DF90CF90BF90AF909F908F9008950F930F
:100900001F93CF93DF938C01EB0188E2FB011192DF
:100910008A95E9F74BE050E062E872E0CE010E9470
:1009200072271B8681E090E0A0E0B0E08C879D8775
:10093000AE87BF87F80186819781A085B185888BB6
:10094000998BAA8BBB8B83E090E0A0E0B0E08C8B0E
:100950009D8BAE8BBF8B1CA21DA21EA21FA2188E48
:10096000198E1A8E1B8E1C8E1D8E1E8E1F8E8AE077
:1009700097EDA3E2BCE388A399A3AAA3BBA3DF914D
:10098000CF911F910F910895EF92FF920F931F93B4
:10099000CF93DF936115710511F480E01CC0411500
:1009A0005105C1F07B01EC018C819D818A01080F0A
:1009B000191FB801CE010E94AF03882371F328816B
:1009C00039818C819D81B701820F931F0E946B2713
:1009D0001D830C8381E0DF91CF911F910F91FF90D8
:1009E000EF900895CF93DF93EC0188819981009770
:1009F00011F00E940E26198218821D821C821B8211
:100A00001A82DF91CF910895EF92FF920F931F9377
:100A1000CF93DF93EC017B018A01BA010E94AF03FF
:100A2000811104C0CE010E94F20407C01D830C8313
:100A3000B701888199810E946B27CE01DF91CF9108
:100A40001F910F91FF90EF900895CF93DF93EC01EA
:100A50006115710559F0FB0101900020E9F731970C
:100A6000AF01461B570B0E94040502C00E94F2040E
:100A7000CE01DF91CF910895FC01808191810C948A
:100A80000E26FC01118210821382128215821482BA
:100A90006115710551F0FB0101900020E9F73197D4
:100AA000AF01461B570B0C94040508951F920F923B
:100AB0000FB60F9211242F933F934F935F936F9331
:100AC0007F938F939F93AF93BF93EF93FF938DED9E
:100AD00093E00E94AF01FF91EF91BF91AF919F9181
:100AE0008F917F916F915F914F913F912F910F90D7
:100AF0000FBE0F901F9018951F920F920FB60F9276
:100B000011242F938F939F93EF93FF93E091ED0325
:100B1000F091EE038081E091F303F091F40382FD04
:100B200012C090818091F6038F5F8F732091F7033D
:100B3000821751F0E091F603F0E0E352FC4F958FFD
:100B40008093F60301C08081FF91EF919F918F9177
:100B50002F910F900FBE0F901F901895AB01613031
:100B6000714018F461E00C94EB0B0895AB01613017
:100B7000714018F460E00C94EB0B08951F920F92F3
:100B80000FB60F9211242F933F934F935F936F9360
:100B90007F938F939F93AF93BF93EF93FF93E091D6
:100BA000CE02F091CF02309709F451C0968DA68500
:100BB000B785858591FF04C09C91892329F447C09E
:100BC0009C91892309F043C0A389B4899C918589AC
:100BD000809589238C93868997890197F1F7608D99
:100BE000718DA685B785558538E020E0CB0101974A
:100BF000F1F7822F90E095958795282F4C9145230A
:100C000009F02068315091F7868D81FD2095809103
:100C1000CD0290E001968F7399273091CC0238175E
:100C200049F0A091CD02B0E0AB5BBC4F2C93809318
:100C3000CD0203C0868D8160868F828D938D019752
:100C4000F1F7A389B4899C918589892B8C93FF91B5
:100C5000EF91BF91AF919F918F917F916F915F9134
:100C60004F913F912F910F900FBE0F901F901895AD
:100C70001F920F920FB60F9211242F933F934F9311
:100C80005F936F937F938F939F93AF93BF93EF93F4
:100C9000FF938091B900887F803609F49CC068F585
:100CA000883209F45BC090F4803109F454C038F400
:100CB000882309F4F6C0883009F44DC0F6C08831A5
:100CC00009F44CC0803209F45DC0EFC0803409F4EF
:100CD00068C048F4803309F455C0883309F0E5C092
:100CE0008093CA03D8C0803509F44FC0883509F411
:100CF0005DC0883409F0D9C0D6C0883909F4C7C0AE
:100D0000A8F4883709F467C038F4883609F463C05A
:100D1000803709F460C0C9C0883809F4B8C0803988
:100D200009F45FC0803809F0C0C05BC0803B09F4A3
:100D300086C038F4803A09F466C0883A09F47FC066
:100D4000B4C0803C09F4A7C0883C09F4A4C0883B27
:100D500009F48AC0AAC08091C70310C09091C9034A
:100D60008091C803981770F5E091C90381E08E0F58
:100D70008093C903F0E0EA55FC4F80818093BB006B
:100D800085EC86C08093CA038EC0E091C90381E0E0
:100D90008E0F8093C9038091BB00F0E0EA55FC4FB1
:100DA00080839091C9038091C8036EC0E091C9030C
:100DB00081E08E0F8093C9038091BB00F0E0EA557B
:100DC000FC4F80838091CB0381116DC081E08093C3
:100DD000C60384EA61C083E08093CC03109244038D
:100DE000CFCF80914403803208F051C0E09144039A
:100DF00081E08E0F809344038091BB00F0E0EC5DB6
:100E0000FC4F8083BDCF85EC8093BC001092CC0357
:100E100080914403803230F4E0914403F0E0EC5DD3
:100E2000FC4F10826091440370E0E0910003F09168
:100E3000010384E293E009951092440336C084E0F4
:100E40008093CC031092230310922203E091FE02C0
:100E5000F091FF02099580912203811105C081E084
:100E60008093220310920203E091230381E08E0F0E
:100E700080932303F0E0EE5FFC4F80818093BB0002
:100E80009091230380912203981708F479CF85E885
:100E90008093BC000AC085EC8093BC001092CC0308
:100EA00004C01092CA030E94EE02FF91EF91BF911D
:100EB000AF919F918F917F916F915F914F913F91F2
:100EC0002F910F900FBE0F901F901895CF92DF9229
:100ED000EF92FF929B01245F3F4FFB01C190D190A5
:100EE000E190F190BF01FC01C192D192E192F192A7
:100EF000CF016217730789F7FF90EF90DF90CF90D3
:100F00000895EF92FF920F931F93CF93DF93CDB786
:100F1000DEB7A4970FB6F894DEBF0FBECDBF8C012D
:100F2000FC011682E080F180F701268D378D40A10B
:100F300051A162857385848595850E949F23905871
:100F40000E94AD24F801708767836A3071050CF444
:100F500042C085859685A785B0898196A11DB11D62
:100F600085879687A787B08BB701625F7F4FCE01D9
:100F700049960E94660720E030E0A90169A17AA1A4
:100F80008BA19CA10E940A25F80160817181625F9A
:100F90007F4F18164CF4CE010D960E9466072D89DE
:100FA0003E894F89588D0BC0CE0101960E9466077D
:100FB00089859A85AB85BC859C01AD015058F801A7
:100FC00061897289838994890E94A023F801618BC9
:100FD000728B838B948BF801878190858A30910581
:100FE0007CF4218532852A30310554F021E02683B6
:100FF000118A128A138A148A158616861786108A11
:10100000F8019287818781E04585568567857089DB
:1010100014161506160617060CF080E0A4960FB6F7
:10102000F894DEBF0FBECDBFDF91CF911F910F911E
:10103000FF90EF900895DC01ED91FC918481958102
:101040008C34BFEF9B0714F488599E4F2281338163
:101050002C344FEF340714F428593E4F889FB001C9
:10106000899F700D700D1124229FC001239F900D48
:10107000900D1124680F791F072E000C880B990B17
:101080000E94AE210C941D258F929F92AF92BF9229
:10109000CF92DF92EF92FF92CF93DF93FC01C0815A
:1010A000D1816C817D816C34FFEF7F0714F4685926
:1010B0007E4F072E000C880B990B0E94AE216B010E
:1010C0007C016A817B816C348FEF780714F4685956
:1010D0007E4F072E000C880B990B0E94AE214B010E
:1010E0005C0120E030E0A9010E940A25181644F5B1
:1010F00020E030E0A901C701B6010E940A2587FD62
:1011000009C0A5019401C701B6010E943B240E94B9
:101110000C2456C020E030E0A901C701B6010E94AE
:10112000A72187FF0DC0A5019401C701B6010E9448
:101130003B240E940C242BED3FE049EC50E415C009
:1011400020E030E0A901C501B4010E94A72187FF7A
:101150000FC0A5019401C701B6010E943B240E9463
:101160000C242BED3FE049E450E40E94A02328C06A
:1011700020E030E0A901C501B4010E94A72181113E
:101180001CC020E030E0A901C701B6010E940A2579
:10119000181674F020E030E0A901C701B6010E94E2
:1011A000A72187FF0AC064EE7BEC86E990E408C0C3
:1011B0006BED7FE089EC9FE303C060E070E0CB0162
:1011C00020E030E044E353E40E940D222BED3FE0A9
:1011D00049E450E40E943B240E94AD24CB01DF91FE
:1011E000CF91FF90EF90DF90CF90BF90AF909F9006
:1011F0008F9008956F927F928F929F92AF92BF923D
:10120000CF92DF92EF92FF920F931F93CF93DF93D2
:10121000CDB7DEB762970FB6F894DEBF0FBECDBF75
:101220007C01F701819191916F018E010F5F1F4F3A
:101230002CE0F80111922A95E9F75E01FDE0AF0E6E
:10124000B11C26E0F50111922A95E9F7A5016AE1A2
:1012500070E00E946C0F8F84988869887A886D8509
:101260007E85072E000C880B990B0E94AE2120E092
:1012700030E040E85DE30E940D2269837A838B832E
:101280009C83B401990C880B990B0E94AE2120E03D
:1012900030E040E85DE30E940D226D837E838F8302
:1012A0009887B301770C880B990B0E94AE2120E040
:1012B00030E040E85DE30E940D2269877A878B87E2
:1012C0009C8798014701FEE08F0E911CF9018191E6
:1012D0009191A191B1919F01F60181939193A19375
:1012E000B1936F01E815F90589F7F70180819181C4
:1012F0002CE0F80111922A95E9F726E0F501119208
:101300002A95E9F7A50168E270E00E946C0FAF84AE
:10131000B888C988DA886D857E85072E000C880B11
:10132000990B0E94AE2120E030E048EC52E40E948C
:101330003B2469837A838B839C83B501BB0C880B28
:10134000990B0E94AE2120E030E048EC52E40E946C
:101350003B246D837E838F839887B601DD0C880BD9
:10136000990B0E94AE2120E030E048EC52E40E944C
:101370003B2469877A878B879C87FAE1EF0EF11C03
:10138000F80181919191A191B1918F01F401819323
:101390009193A193B1934F01EE15FF0589F76296E2
:1013A0000FB6F894DEBF0FBECDBFDF91CF911F9176
:1013B0000F91FF90EF90DF90CF90BF90AF909F90F4
:1013C0008F907F906F9008958F929F92AF92BF926F
:1013D000CF92DF92EF92FF920F931F93CF93DF9301
:1013E000CDB7DEB762970FB6F894DEBF0FBECDBFA4
:1013F0008C01DC018D919D917D01FE0131966F0183
:101400002CE0DF011D922A95E9F7AE01435F5F4FA3
:1014100026E0FA0111922A95E9F76AE170E00E944C
:101420006C0F8F849888A988BA886D857E85072E71
:10143000000C880B990B0E94AE2120E030E040E8C0
:101440005DE30E940D2269837A838B839C83B401C0
:10145000990C880B990B0E94AE2120E030E040E807
:101460005DE30E940D226D837E838F839887B50193
:10147000BB0C880B990B0E94AE2120E030E040E8C5
:101480005DE30E940D2269877A878B879C87F6012E
:10149000C8010E964191519161917191D7014D937F
:1014A0005D936D937D937D01A817B90799F7F801B6
:1014B00082859385A485B585468157816085718530
:1014C000428F538F648F758F868F978FA0A3B1A3A0
:1014D00062960FB6F894DEBF0FBECDBFDF91CF91FD
:1014E0001F910F91FF90EF90DF90CF90BF90AF9042
:1014F0009F908F9008950F931F93CF93DF938C014C
:10150000FC01C081D1811092870410928604109250
:1015100089041092AA041092CC0381E08093CB033B
:101520001092C60361E082E10E94181061E083E13D
:101530000E9418108091B9008E7F8093B90080912D
:10154000B9008D7F8093B90088E48093B80085E46A
:101550008093BC0080E293E09093FF028093FE02B0
:1015600081E293E09093010380930003CE010E94F7
:10157000DE0F803AC9F41B861A8640E06DE370E006
:10158000CE010E94B40F6EE170E080E090E00E9416
:10159000B81040E26FE370E0CE010E94B40F6EE13C
:1015A00070E080E090E010C068EE73E080E090E0D2
:1015B0000E94B810CE010E94DE0F803AE1F289E865
:1015C00092E00E94DD0D59C00E94B810CE010E9429
:1015D000DE0F803A29F06AE070E080E090E0F4CF1E
:1015E00062E370E080E090E00E94B81040E06EE3BB
:1015F00070E0CE010E94B40F6AE070E080E090E0FD
:101600000E94B81040E067E070E0CE010E94B40F85
:1016100040E06FE370E0CE010E94B40F6AE070E03A
:1016200080E090E00E94B8108CE090E09B878A8771
:101630004CE06DE370E0CE010E94B40F6EE170E00B
:1016400080E090E00E94B81064E170E080E090E0FB
:101650000E94B81064EF71E080E090E00E94B81042
:1016600064EF71E080E090E00E94B810C801DF9163
:10167000CF911F910F910C94E409FFCFFF920F932C
:101680001F93CF93DF93EC018B01F42EFC01329674
:101690008CE0DF01982F1D929A95E9F73C96DF01C7
:1016A0001D928A95E9F78CE090E00E947625FC0176
:1016B0008AE291E091838083C801110FAA0BBB0BD2
:1016C00086839783A087B187F3828AE794E0958326
:1016D0008483F983E883DF91CF911F910F91FF906D
:1016E00008950F931F93CF93DF93EC018B01842F09
:1016F0004E875F8761E00E94651083E090E00E9462
:101700007625FC01118300831282998388838CB52E
:10171000837F8CBD8CB58F7D8CBD8CB58C7F8160BB
:101720008CBD8DB581608DBD1FB7F8948091850308
:10173000811127C0E3EFF1E08491E7E0F2E09491BA
:10174000E82FF0E0EE0FFF1FEB52FE4FA591B49192
:10175000EC91E92321F461E08AE00E94181061E035
:101760008AE00E9465108CB580618CBD8CB5806468
:101770008CBD61E08DE00E94651061E08BE00E940D
:101780006510809185038F5F809385031FBF08815B
:10179000198161E0F80180810E94651061E0F80123
:1017A00080810E94181060E0F80180810E9418106A
:1017B0004FEF51E064E0C8010E94EB0B61E0F801DB
:1017C00080810E94181061E08E85DF91CF911F917A
:1017D0000F910C941810CF92DF92EF92FF921F930B
:1017E000CF93DF93EC01162F6A018A81811102C029
:1017F00060E001C061E088810E941810A60151706C
:1018000080E1189FB0011124652B6EBD00000DB45E
:1018100007FEFDCF1EB54EBD00000DB407FEFDCF87
:10182000DEB48A81811102C061E001C060E088817C
:101830000E9418101170F12EE12CC7018D29DF9143
:10184000CF911F91FF90EF90DF90CF900895CF92AE
:10185000DF92EF92FF92CF93DF93DC016091D3038D
:101860007091D403C091CD03D091CE031816190600
:10187000CCF46B01770FEE08FF082091D103309173
:10188000D203A901330F660B770B9A01AB012C1918
:101890003D094E095F090E94F82224E630E040E04D
:1018A00050E01AC0892B01F16B01770FEE08FF0899
:1018B0002091CF033091D003A901330F660B770B32
:1018C0009A01AB012C193D094E095F090E94F822CB
:1018D0002CE93FEF4FEF5FEF0E94CE22CA01B90122
:1018E0006C0D7D1D8E1D9F1DCE01DF91CF91FF9050
:1018F000EF90DF90CF900C94AE05CF92DF92EF92F5
:10190000FF92CF93DF93DC016091D9037091DA03EA
:10191000C091CD03D091CE0318161906CCF46B01FB
:10192000770FEE08FF082091D7033091D803A90163
:10193000330F660B770B9A01AB012C193D094E0949
:101940005F090E94F82224E630E040E050E01AC02F
:10195000892B01F16B01770FEE08FF082091D50369
:101960003091D603A901330F660B770B9A01AB01B7
:101970002C193D094E095F090E94F8222CE93FEF1E
:101980004FEF5FEF0E94CE22CA01B9016C0D7D1DA1
:101990008E1D9F1DCE01DF91CF91FF90EF90DF90C4
:1019A000CF900C94B605CF93DF93FC012481358151
:1019B000232B71F0FB01DC01CD91DC916081718101
:1019C000CE010E948127009719F08C1B9D0B02C04D
:1019D0008FEF9FEFDF91CF910895CF93DF93FC01BD
:1019E0004481558141155105D9F061157105C1F04A
:1019F0009A016417750708F49B01EC0188819981AD
:101A0000421B530B5D834C83BC01620F731F0E940A
:101A10007227E881F9818C819D81E80FF91F10827E
:101A2000DF91CF9108950F931F93CF93DF93EC0134
:101A30000E94F210688779878A879B87E881F981FD
:101A40000284F385E02DCE01099597FF17C00E940F
:101A5000F210088519852A853B85DC01CB01801BA6
:101A6000910BA20BB30B0C811D812E813F8180173E
:101A70009107A207B30710F38FEF9FEFDF91CF918C
:101A80001F910F910895009769F0FC0101900020CB
:101A9000E9F73197AF01481B590BBC018DED93E07D
:101AA0000C943E0180E090E0089588EC92E00C9464
:101AB000430DFC0144815581608171818DED93E07E
:101AC0000C943E01CF93DF930E94590DEC010E94CC
:101AD000550D8C0F9D1FDF91CF910895CF93DF930C
:101AE000EC01FB0144815581608171810E94C40435
:101AF000811103C0CE010E94F204CE01DF91CF918B
:101B00000895EF92FF920F931F93CF93DF93CDB77A
:101B1000DEB7A1970FB6F894DEBF0FBECDBF7C0134
:101B2000CB01BA01F7011182108213821282158251
:101B300014828E010F5F1F4F22E044E00E94711D4E
:101B4000BC01C7010E942505A1960FB6F894DEBF1F
:101B50000FBECDBFDF91CF911F910F91FF90EF90FE
:101B600008950F931F93CF93DF93CDB7DEB762979E
:101B70000FB6F894DEBF0FBECDBF8C01CB01F801CC
:101B80001182108213821282158214824AE0BE01F1
:101B90006F5F7F4F0E94BC1DBE016F5F7F4FC8010A
:101BA0000E94250562960FB6F894DEBF0FBECDBF2A
:101BB000DF91CF911F910F9108950C94430D8F9257
:101BC0009F92AF92BF92CF92DF92EF92FF920F93CC
:101BD0001F93CF93DF93CDB7DEB7A1970FB6F894DD
:101BE000DEBF0FBECDBF6B017C0197FF2BC06DE246
:101BF0008DED93E00E94D1018C0122273327A901AA
:101C00002C193D094E095F0919A2CE0181967C016C
:101C10009AE0892E912CA12CB12CCA01B901A50101
:101C200094010E943723605DF70162937F012115C3
:101C300031054105510589F7CF010E94430D080F79
:101C4000191F1EC09B01AC0119A28E010F5D1F4F11
:101C50008AE0C82ED12CE12CF12CCA01B901A701D0
:101C600096010E943723605DF80162938F01211570
:101C700031054105510589F7CF010E94430D8C01C3
:101C80000E94550D800F911FA1960FB6F894DEBFEC
:101C90000FBECDBFDF91CF911F910F91FF90EF90BD
:101CA000DF90CF90BF90AF909F908F900895FB01F1
:101CB000DC0111961C921E9213961C921E92129792
:101CC00015961C921E9214978617970749F060810B
:101CD00071816115710521F0448155810C940405D1
:101CE00008959091CC039111FCCF91E09093CC0397
:101CF0009093CB032FEF2093CA031092C903260FB2
:101D00002093C8039093C7039091C703880F892B32
:101D10008093C7038091C603813061F41092C6039B
:101D20008091C7038093BB008091BC0083FDF8CFF6
:101D300085EC01C085EE8093BC008091CC0381309E
:101D4000E1F38091C903861710F46091C903A6EAF4
:101D5000B3E0E6E8F3E080E0861721F09D919193EF
:101D60008F5FFACF0895CF92DF92EF92FF920F9399
:101D70001F93CF93DF937C018B016A0166EF71E0C3
:101D80000E944105D80114968D919C91159700975A
:101D9000C1F0E6018C159D0508F4EC01D801ED9128
:101DA000FC911197EC0FFD1FD08010826D917C91FA
:101DB000C7010E942505F80180819181C80FD91FB4
:101DC000D882C701DF91CF911F910F91FF90EF90C3
:101DD000DF90CF900895282F3091AA04313208F077
:101DE0004AC08091CC038111FCCF9091B40442E0B1
:101DF0004093CC032093CB032FEF2093CA03109280
:101E0000C9033093C803EAE8F4E0A6EAB3E020E0AF
:101E1000321721F041914D932F5FFACF1092C703F3
:101E20002091C703990F922B9093C7039091C603FB
:101E3000913061F41092C6039091C7039093BB0058
:101E40009091BC0093FDF8CF95EC01C095EE909376
:101E5000BC009091CC039230E1F39091CA039F3F74
:101E600079F08091CA03803241F08091CA038033B7
:101E700031F084E005C081E003C082E001C083E06E
:101E8000109289041092AA041092880408953FB712
:101E9000F8948091B0049091B104A091B204B091F3
:101EA000B30426B5A89B05C02F3F19F00196A11DCC
:101EB000B11D3FBFBA2FA92F982F8827820F911DE0
:101EC000A11DB11DBC01CD0142E0660F771F881F27
:101ED000991F4A95D1F70895EF92FF920F931F93A0
:101EE000CF93DF938C017A01DC0113968C911397C9
:101EF00091E0909388048093B40410928904109226
:101F0000AA0414968D919C911597DC01ED91FC919A
:101F10000190F081E02D099581E00E94EB0E66E0D2
:101F2000F80183810E94710E1092870480938604C9
:101F3000E701F6E0EF0EF11CD80114968D919C910B
:101F40001597DC01ED91FC910284F385E02D099554
:101F50008993EC16FD0681F781E0DF91CF911F9107
:101F60000F91FF90EF9008951F93CF93DF93EC01B3
:101F7000142F8B8191E0909388048093B404109285
:101F800089041092AA048C819D81DC01ED91FC9161
:101F90000190F081E02D09958C819D81DC01ED910E
:101FA000FC910190F081E02D612F099581E00E9464
:101FB000EB0E81E0DF91CF911F910895CF93DF93D6
:101FC000EC018B8191E0909388048093B40410928B
:101FD00089041092AA048C819D81DC01ED91FC9111
:101FE0000190F081E02D60E0099581E00E94EB0E08
:101FF00061E08B810E94710E1092870480938604A9
:102000008C819D81DC01ED91FC910284F385E02DB2
:102010000995DF91CF910895CF93DF930E94430DEF
:10202000EC010E94550D8C0F9D1FDF91CF910895FB
:1020300090E0FC01EF5EFD4F2491FC01E350FE4F68
:102040003491FC01E751FE4FE491EE2309F43CC0CA
:10205000222339F1233091F038F42130A9F02230D5
:1020600001F584B58F7D12C0273091F02830A1F0A2
:102070002430B9F4809180008F7D03C0809180006E
:102080008F77809380000DC084B58F7784BD09C0A1
:102090008091B0008F7703C08091B0008F7D8093D6
:1020A000B000F0E0EE0FFF1FE152FE4FA591B4919A
:1020B0009FB7F894611104C08C913095382302C009
:1020C000EC913E2B3C939FBF0895CF93DF9390E01C
:1020D000FC01E350FE4F2491FC01E751FE4F849137
:1020E000882361F190E0880F991FFC01EB52FE4FAD
:1020F000C591D491FC01E152FE4FA591B4916111BB
:1021000009C09FB7F8948881209582238883EC9139
:102110002E230BC0623061F49FB7F8948881322F70
:10212000309583238883EC912E2B2C939FBF06C080
:102130008FB7F894E8812E2B28838FBFDF91CF9142
:1021400008958E3008F08E508770806480937C00F4
:1021500080917A00806480937A0080917A0086FD75
:10216000FCCF809178002091790090E0922B089527
:102170008F929F92AF92BF92CF92DF92EF92FF9297
:102180006B017C010E94470F4B015C01C114D1041B
:10219000E104F104F1F00E94470FDC01CB01881942
:1021A0009909AA09BB09883E9340A105B10570F3BE
:1021B00021E0C21AD108E108F10888EE880E83E018
:1021C000981EA11CB11CC114D104E104F10419F73B
:1021D000DDCFFF90EF90DF90CF90BF90AF909F90BA
:1021E0008F9008952FB7F8946091AC047091AD046E
:1021F0008091AE049091AF042FBF08951F920F926B
:102200000FB60F9211242F933F938F939F93AF9309
:10221000BF938091AC049091AD04A091AE04B091B5
:10222000AF043091AB0423E0230F2D3720F4019647
:10223000A11DB11D05C026E8230F0296A11DB11DE9
:102240002093AB048093AC049093AD04A093AE04B0
:10225000B093AF048091B0049091B104A091B20406
:10226000B091B3040196A11DB11D8093B004909369
:10227000B104A093B204B093B304BF91AF919F9106
:102280008F913F912F910F900FBE0F901F90189537
:10229000CF93DF93CDB7DEB7E4970FB6F894DEBFE8
:1022A0000FBECDBF789484B5826084BD84B5816053
:1022B00084BD85B5826085BD85B5816085BD809111
:1022C0006E00816080936E00109281008091810089
:1022D0008260809381008091810081608093810081
:1022E000809180008160809380008091B100846043
:1022F0008093B1008091B00081608093B0008091A4
:102300007A00846080937A0080917A008260809362
:102310007A0080917A00816080937A0080917A00BF
:10232000806880937A001092C100E091ED03F091F3
:10233000EE0382E08083E091E903F091EA031082EA
:10234000E091EB03F091EC0310821092F503E09121
:10235000F103F091F20386E08083E091EF03F091C6
:10236000F003808180618083E091EF03F091F003BE
:10237000808188608083E091EF03F091F003808199
:1023800080688083E091EF03F091F00380818F7D7E
:1023900080838EE090E00E9476257C018FE190E0C2
:1023A0000E9476258C01DC0113961C921E921297D6
:1023B00088EE93E0A0E0B0E0F80184839583A683E3
:1023C000B7838AE091E091838083178A168A118E01
:1023D000108E138E128E158E148E668D6E7F6D7F0D
:1023E000668F6695617081E0682782E00E94181010
:1023F00061E082E00E946510EFEFF1E0E491D80126
:102400005096EC93EBEEF1E0E491F0E0EE0FFF1F5D
:10241000E152FE4F85919491F801928B818B60E09F
:1024200083E00E946510D8015E968C9181FD04C006
:1024300061E083E00E94181083E0F8018487E0E007
:10244000F2E0E491D8011D96EC93ECEEF1E0E4911A
:10245000F0E0EE0FFF1FE553FE4F85919491F801D8
:1024600097878687D7010D931C938DE991E0958F0F
:10247000848F2DEB30E0378B268B2BE931E0318FC9
:10248000208F2CE231E0338F228F2091680024606E
:10249000209368002DE630E0348B238B28E0258BD9
:1024A0000197F1F7E091CE02F091CF020E171F07CE
:1024B000F1F0309739F0A389B4899C918589809592
:1024C00089238C93F801868D8E7F868F1092CD02A2
:1024D0001092CC021093CF020093CE020388F489AD
:1024E000E02D9081D80155968C91892B8083F092B4
:1024F000F502E092F40282E290E00E9476258C01DF
:1025000049E250E061E070E00E943E0B1093F3025C
:102510000093F20282E290E00E9476254C0148E2AC
:1025200050E062E070E00E943E0B9092F1028092D7
:10253000F00283E090E00E9476255C01FC011282AB
:10254000118281E18083B092EF02A092EE0283E0DB
:1025500090E00E9476256C01DC0112961C921E927E
:1025600011978FE08C93D092ED02C092EC0283E041
:1025700090E00E9476257C01FC011282118280E1AC
:102580008083F092EB02E092EA0283E090E00E9406
:1025900076258C01DC0112961C921E9211978EE01A
:1025A0008C931093E9020093E80282E090E00E948D
:1025B00076252091F4023091F502FC0131832083CD
:1025C0009093E5028093E40285E190E00E947625F5
:1025D000FC016090F2027090F3021682108617825E
:1025E0001286118614861386158616861786108A1B
:1025F000118A128A138A148A71826082B382A2823B
:10260000D582C4829093E3028093E20285E190E058
:102610000E947625FC01168210861782128611868A
:1026200014861386158616861786108A118A128AD2
:10263000138A148A91828082F382E2821583048352
:102640009093E1028093E00268EE73E080E090E016
:102650000E94B81044E050E066E070E08DEC93E03A
:102660000E94710B47E050E065E070E080ED92E081
:102670000E94710B43E050E05093D0034093CF038E
:102680002CEF30E03093D2032093D10380E890E028
:102690009093D4038093D3035093D6034093D503F0
:1026A0003093D8032093D7039093DA038093D90310
:1026B00084E290E09093D3028093D20223EF30E043
:1026C0003093D5022093D4028FE790E09093D70205
:1026D0008093D6024AE050E05093D9024093D8024A
:1026E0003093DB022093DA029093DD028093DC02C8
:1026F000C3010E947B0A8091F0029091F1020E9436
:102700007B0A89E891E00E940C100E94F2106B0194
:102710007C010E94F210DC01CB018C199D09AE09ED
:10272000BF09883B9B40A105B105B8F48091F00238
:102730009091F1020E94E4098091F2029091F302DB
:102740000E94E40985E991E00E94DD0D62E370E0FA
:1027500080E090E00E94B810DCCF87E991E00E9411
:102760000C108EE991E00E940C108EEE482E82E053
:10277000582E612C712C8E010F5F1F4F480194E081
:10278000292E312C0E94F2107B018C0120E030E0D8
:10279000A9016DA7FEA60FA718AB29AB3AAB4BABAF
:1027A0005CABA090F602B090F702C090F802D09017
:1027B000F902E090FA02F090FB020091FC02109105
:1027C000FD022DA53EA54FA558A960E070E080E070
:1027D00090E00E947C2309F014F40C942B1D0E94BD
:1027E000F210DC01CB018196A11DB11D8C019D0170
:1027F0008093F6021093F7022093F8023093F902C7
:102800001092FA021092FB021092FC021092FD024A
:102810000091F4021091F502D8018D919C91DC0198
:10282000ED91FC910084F185E02D0995892B09F447
:1028300008C1F801E080F18066EF71E0CE014B96AF
:102840000E944105C7010E94130D97FD0DC08A30FB
:10285000910551F089831A8241E050E0B401CE0124
:102860004B960E94C404EECF8F8D98A1049708F474
:10287000E4C06FEA71E0CE0145960E944105BE01B9
:102880006B5E7F4FCE014B960E94D30CAC01BE0114
:10289000655E7F4FC4010E94B30E89819A810097C3
:1028A00019F00E94951D03C060E070E0CB01D801D3
:1028B00015967C936E931497C4010E943C05CE013B
:1028C00045960E943C056FEA71E0C4010E944105F3
:1028D000B401CE014B960E94D30CBC016F5F7F4FB9
:1028E000CE014B960E94ED0CC4010E943C056FEA9C
:1028F00071E0CE0145960E944105BE016B5E7F4F9F
:10290000CE014B960E94D30CAC01BE01655E7F4F99
:10291000C4010E94B30E89819A81009719F00E9428
:10292000951D03C060E070E0CB01F8017383628302
:10293000C4010E943C05CE0145960E943C056FEA09
:1029400071E0C4010E944105B401CE014B960E9482
:10295000D30CBC016F5F7F4FCE014B960E94ED0CF4
:10296000C4010E943C056FEA71E0CE0145960E94C9
:102970004105BE016B5E7F4FCE014B960E94D30C8A
:10298000AC01BE01655E7F4FC4010E94B30E898118
:102990009A81009719F00E94911D03C060E070E0D9
:1029A000CB01D80116966D937D938D939C931997C7
:1029B000C4010E943C05CE0145960E943C056FEA89
:1029C00071E0C4010E944105B401CE014B960E9402
:1029D000D30CBC016F5F7F4FCE014B960E94ED0C74
:1029E000C4010E943C056FEA71E0CE0145960E9449
:1029F0004105BE016B5E7F4FCE014B960E94D30C0A
:102A0000AC01BE01655E7F4FC4010E94B30E898197
:102A10009A81009719F00E94911D03C060E070E058
:102A2000CB01F8016287738784879587C4010E9470
:102A30003C05CE0145960E943C05CE014B960E9476
:102A40003C058091F2029091F3020E94FA08809175
:102A5000F0029091F1020E94FA080091EE021091AA
:102A6000EF02D8018C910E94A110F801928381831A
:102A70000091EC021091ED02D8018C910E94A110FE
:102A8000F801928381830091EA021091EB02D80150
:102A90008C910E94A110F801928381830091E80239
:102AA0001091E902D8018C910E94A110F801928343
:102AB00081838091E6029091E7028230910509F4CA
:102AC00016C18330910509F428C2019709F0ADC2FF
:102AD00081EB91E00E94DD0D6091F2027091F302B2
:102AE000625F7F4FC4010E94660749815A816B81F2
:102AF0007C81CE0145960E94810D68EB71E0CE018C
:102B00004B960E944105BE016B5E7F4FCE014B96F6
:102B10000E946E0D0E94590DCE014B960E943C05FD
:102B2000CE0145960E943C056091F2027091F3023D
:102B3000625F7F4FC4010E9466074D815E816F8195
:102B40007885CE0145960E94810D6DEB71E0CE0136
:102B50004B960E944105BE016B5E7F4FCE014B96A6
:102B60000E946E0D0E94590DCE014B960E943C05AD
:102B7000CE0145960E943C056091F2027091F302ED
:102B8000625F7F4FC4010E94660749855A856B8545
:102B90007C85CE0145960E94810D62EC71E0CE01EC
:102BA0004B960E944105BE016B5E7F4FCE014B9656
:102BB0000E946E0D0E94590DCE014B960E943C055D
:102BC000CE0145960E943C05E091F202F091F3029D
:102BD0004281538164817581C4010E94810D67EC3B
:102BE00071E0CE0145960E944105B401CE014596A3
:102BF0000E946E0D0E94590DCE0145960E943C0523
:102C0000C4010E943C05E091F202F091F302268D8E
:102C1000378D40A151A162857385848595850E9479
:102C20009F23AB01BC01C4010E94810D6BEC71E0DC
:102C3000CE0145960E944105B401CE0145960E9401
:102C40006E0D0E94590DCE0145960E943C05C401AF
:102C50000E943C05E091F202F091F302228D338D47
:102C6000448D558D66817781808591850E949F2353
:102C7000AB01BC01C4010E94810D6FEC71E0CE017B
:102C800045960E944105B401CE0145960E946E0D05
:102C90000E94590DCE0145960E943C05C4010E9438
:102CA0003C0583ED91E00E94DD0DE091EE02F09194
:102CB000EF0261817281C4010E94B10D6CED71E07F
:102CC000CE0145960E944105B401CE0145960E9471
:102CD0006E0D0E94590DCE0145960E943C05C4011F
:102CE0000E943C05E091EC02F091ED020EC184EEF1
:102CF00091E00E94DD0D6091F0027091F102625F3F
:102D00007F4FC4010E94660749815A816B817C8193
:102D1000CE0145960E94810D68EB71E0CE014B9685
:102D20000E944105BE016B5E7F4FCE014B960E9413
:102D30006E0D0E94590DCE014B960E943C05CE01AE
:102D400045960E943C056091F0027091F102625F2D
:102D50007F4FC4010E9466074D815E816F81788537
:102D6000CE0145960E94810D6DEB71E0CE014B9630
:102D70000E944105BE016B5E7F4FCE014B960E94C3
:102D80006E0D0E94590DCE014B960E943C05CE015E
:102D900045960E943C056091F0027091F102625FDD
:102DA0007F4FC4010E94660749855A856B857C85E3
:102DB000CE0145960E94810D62EC71E0CE014B96EA
:102DC0000E944105BE016B5E7F4FCE014B960E9473
:102DD0006E0D0E94590DCE014B960E943C05CE010E
:102DE00045960E943C05E091F002F091F10242818B
:102DF000538164817581C4010E94810D67EC71E08B
:102E0000CE0145960E944105B401CE0145960E942F
:102E10006E0D0E94590DCE0145960E943C05C401DD
:102E20000E943C05E091F002F091F102268D378D71
:102E300040A151A162857385848595850E949F2359
:102E4000AB01BC01C4010E94810D6BEC71E0CE01AD
:102E500045960E944105B401CE0145960E946E0D33
:102E60000E94590DCE0145960E943C05C4010E9466
:102E70003C05E091F002F091F102228D338D448DFA
:102E8000558D66817781808591850E949F23AB0156
:102E9000BC01C4010E94810D6FEC71E0CE0145962A
:102EA0000E944105B401CE0145960E946E0D0E941C
:102EB000590DCE0145960E943C05C4010E943C0577
:102EC00083ED91E00E94DD0DE091EA02F091EB02CA
:102ED00061817281C4010E94B10D6CED71E0CE017F
:102EE00045960E944105B401CE0145960E946E0DA3
:102EF0000E94590DCE0145960E943C05C4010E94D6
:102F00003C05E091E802F091E90261817281C4011F
:102F10000E94B10D60EE71E076C08BEE91E00E94F0
:102F2000DD0DE091F402F091F502648175816C345D
:102F3000FFEF7F0714F468597E4FC4010E94B10D62
:102F40006FEC71E0CE0145960E944105B401CE01BF
:102F500045960E946E0D0E94590DCE0145960E9425
:102F60003C05C4010E943C05E091F402F091F50299
:102F7000628173816C340FEF700714F468597E4FCF
:102F8000C4010E94B10D6BEC71E0CE0145960E9428
:102F90004105B401CE0145960E946E0D0E94590D67
:102FA000CE0145960E943C05C4010E943C05E0917B
:102FB000F402F091F5024681578160857185C40164
:102FC0000E94810D62EF71E0CE0145960E9441059D
:102FD000B401CE0145960E946E0D0E94590DCE019E
:102FE00045960E943C05C4010E943C05E091F40214
:102FF000F091F5024285538564857585C4010E9470
:10300000810D67EF71E0CE0145960E944105B40144
:10301000CE0145960E946E0D0E94620DCE0145962E
:103020000E943C05C4010E943C058DED93E00E9486
:10303000990118161906B4F58DED93E00E947701F9
:10304000823719F481E090E009C08C3619F482E0EF
:1030500090E004C0833639F483E090E09093E70277
:103060008093E6021FC08D3629F43092E702209249
:10307000E60218C08E3239F425E030E03093E702E2
:103080002093E6020FC08C3239F446E050E05093B2
:10309000E7024093E60206C08E3621F41092E70262
:1030A0001092E6028091E6029091E702049709F0FF
:1030B0002DC165EF71E0C4010E944105E091E40279
:1030C000F091E5020190F081E02DC680D780E08488
:1030D000F18420E030E0A901C701B6010E940A2571
:1030E00018168CF420E030E040EA50E4C701B60145
:1030F0000E940A2518163CF4B701A601CE01459698
:103100000E94810D06C065EF71E0CE0145960E94D8
:10311000410565EF71E0CE014B960E944105E091BB
:10312000E402F091E5020190F081E02DC680D780A5
:10313000E084F18420E030E0A901C701B6010E94DB
:103140000A2518166CF420E030E040EA50E4C7018C
:10315000B6010E940A2518161CF466E771E002C049
:1031600060E871E0CE0181960E9441056DEF71E04B
:10317000CE0187960E944105BE016F5D7F4FCE0153
:1031800087960E946E0DBE01655E7F4F0E946E0D98
:10319000BE016B5E7F4F0E946E0DB4010E946E0DEA
:1031A0000E94590DCE0187960E943C05CE01819662
:1031B0000E943C05CE014B960E943C05CE014596EF
:1031C0000E943C05C4010E943C0584E092E00E94FC
:1031D000DD0D0091E4021091E502C8010E941B0878
:1031E00020E030E040EA50E40E940A2518162CF056
:1031F00080E192E00E94DD0D87C0C8010E94440872
:103200009C012E5231092E30314018F082E692E0B6
:1032100006C0823E91050CF422C48CE692E00E9426
:10322000DD0D8091E4029091E5020E9444088C013A
:1032300065EF71E0CE014B960E944105BE01655ECF
:103240007F4FCE0145960E94570E4AE0B401C80157
:103250000E94BC1DF40101900020E9F73197AF01F5
:1032600048195909B401CE0145960E94C404811140
:1032700004C0CE0145960E94F204CE0145960E94FC
:10328000590DCE0145960E943C05CE014B960E94F9
:103290003C058091E4029091E5020E941B086B01BD
:1032A0007C0165EF71E0CE014B960E944105BE01A5
:1032B000655E7F4FCE0145960E94570E840122E045
:1032C00044E0C701B6010E94711DFC01019000207D
:1032D000E9F73197AF01481B590BBC01CE01459668
:1032E0000E94C404811104C0CE0145960E94F204DC
:1032F000CE0145960E94590DCE0145960E943C058F
:10330000CE014B960E943C050E94550D8091E6022D
:103310009091E702059709F00DC18BE192E00E94C0
:10332000DD0D0091E2021091E302C8010E948107C5
:103330008823E9F1D8011D966D917D918D919C9125
:1033400050970E94AE2120E030E044E052E40E9419
:103350003B249B01AC01F8016189728983899489BE
:103360000E943B24AB01BC01C4010E94810D65EFAA
:1033700071E0CE014B960E944105BE01655E7F4F14
:10338000CE0145960E94570EB401CE0145960E948B
:103390006E0D0E94590DCE0145960E943C05CE014E
:1033A0004B960E943C05C4010E943C0504C08CE27F
:1033B00092E00E94DD0D86E392E00E94DD0DE09137
:1033C000E202F091E30285859685A785B089893E62
:1033D0009340A105B105D4F10190F081E02D268D37
:1033E000378D40A151A162857385848595850E94A2
:1033F0009F230E94AD249B0177FF04C0222733271F
:10340000261B370BB901C4010E94B10D65EF71E0B5
:10341000CE014B960E944105BE01655E7F4FCE01F5
:1034200045960E94570EB401CE0145960E946E0D3E
:103430000E94590DCE0145960E943C05CE014B9647
:103440000E943C05C4010E943C0504C08CE292E04D
:103450000E94DD0D8EE392E00E94DD0DE091E2021C
:10346000F091E3020480F581E02D61817281693C75
:1034700071051CF1C4010E94B10D65EF71E0CE0130
:103480004B960E944105BE01655E7F4FCE01459679
:103490000E94570EB401CE0145960E946E0D0E9407
:1034A000590DCE0145960E943C05CE014B960E94D7
:1034B0003C05C4010E943C0504C08CE292E00E94DD
:1034C000DD0D88E492E00E94DD0DE091E202F091D2
:1034D000E3020280F381E02D61817281693C710514
:1034E0001CF1C4010E94B10D65EF71E0CE014B9655
:1034F0000E944105BE01655E7F4FCE0145960E9448
:10350000570EB401CE0145960E946E0D0E94590DD2
:10351000CE0145960E943C05CE014B960E943C058B
:10352000C4010E943C0504C08CE292E00E94DD0DC3
:103530000E94550D8091E6029091E702069709F0EE
:103540000DC182E592E00E94DD0D0091E002109134
:10355000E102C8010E9481078823E9F1D8011D9684
:103560006D917D918D919C9150970E94AE2120E0AC
:1035700030E044E052E40E943B249B01AC01F8019E
:1035800061897289838994890E943B24AB01BC01C3
:10359000C4010E94810D65EF71E0CE014B960E943F
:1035A0004105BE01655E7F4FCE0145960E94570ED4
:1035B000B401CE0145960E946E0D0E94590DCE01B8
:1035C00045960E943C05CE014B960E943C05C401E5
:1035D0000E943C0504C08CE292E00E94DD0D86E36F
:1035E00092E00E94DD0DE091E002F091E10285851C
:1035F0009685A785B089893E9340A105B105D4F190
:103600000190F081E02D268D378D40A151A162857A
:103610007385848595850E949F230E94AD249B011C
:1036200077FF04C022273327261B370BB901C401BB
:103630000E94B10D65EF71E0CE014B960E944105ED
:10364000BE01655E7F4FCE0145960E94570EB401C4
:10365000CE0145960E946E0D0E94590DCE014596F1
:103660000E943C05CE014B960E943C05C4010E947D
:103670003C0504C08CE292E00E94DD0D8EE392E0F6
:103680000E94DD0DE091E002F091E1020480F581FD
:10369000E02D61817281693C71051CF1C4010E94B9
:1036A000B10D65EF71E0CE014B960E944105BE0160
:1036B000655E7F4FCE0145960E94570EB401CE0144
:1036C00045960E946E0D0E94590DCE0145960E94AE
:1036D0003C05CE014B960E943C05C4010E943C056E
:1036E00004C08CE292E00E94DD0D88E492E00E942A
:1036F000DD0DE091E002F091E1020280F381E02D26
:1037000061817281693C71051CF1C4010E94B10D97
:1037100065EF71E0CE014B960E944105BE01655EEA
:103720007F4FCE0145960E94570EB401CE014596BB
:103730000E946E0D0E94590DCE0145960E943C05D7
:10374000CE014B960E943C05C4010E943C0504C07A
:103750008CE292E00E94DD0D0E94550DE090E202A5
:10376000F090E302C7010E948107D82E0091E00289
:103770001091E102C8010E948107D701D11003C056
:10378000882309F457C01D966D917D918D919C9170
:1037900050970E94AE2120E030E044E052E40E94C5
:1037A0003B249B01AC01F70161897289838994896B
:1037B0000E943B246B017C01D8011D966D917D9187
:1037C0008D919C9150970E94AE2120E030E044E022
:1037D00052E40E943B249B01AC01F801618972898B
:1037E000838994890E943B246DA77EA78FA798ABFD
:1037F000A70196010E94A72120E030E048EC52E4A6
:1038000087FF03C0C701B60104C06DA57EA58FA5C3
:1038100098A90E940D2220E030E040E450E40E948C
:103820003B2420E030E0A9010E94A0230E94AD24A7
:10383000CB01EAC01296ED91FC9113972181328160
:10384000293C31058CF1C901330FAA0BBB0B9C013C
:10385000AD01285C310941095109A4E6B0E00E949C
:10386000ED22A30192010E94CE22C9010E947D0C8B
:10387000D7011296ED91FC91139721813281C901F4
:10388000330FAA0BBB0B9C01AD01285C3109410928
:103890005109A4E6B0E00E94ED22A30192010E942A
:1038A000CE22CA01B901A7C0D8011296ED91FC91B0
:1038B000139721813281293C310584F1C901330FED
:1038C000AA0BBB0B9C01AD01285C310941095109D0
:1038D000A4E6B0E00E94ED22A30192010E94CE2254
:1038E00088279927821B930B0E947D0CD801129682
:1038F000ED91FC91139721813281C901330FAA0BFD
:10390000BB0B9C01AD01285C310941095109A4E6BA
:10391000B0E00E94ED22A301920164C0D701149689
:10392000ED91FC91159721813281293C3105E4F01C
:10393000C901330FAA0BBB0B9C01AD01285C3109F7
:1039400041095109A4E6B0E00E94ED222AE832E0E4
:1039500040E050E00E94CE2288279927821B930BDB
:103960000E94270CD70126C0D8011496ED91FC9136
:10397000159721813281293C31050CF43FC0C901E2
:10398000330FAA0BBB0B9C01AD01285C3109410927
:103990005109A4E6B0E00E94ED222AE832E040E0BE
:1039A00050E00E94CE2288279927821B930B0E9409
:1039B000270CD8011496ED91FC9115972181328145
:1039C000C901330FAA0BBB0B9C01AD01285C310967
:1039D00041095109A4E6B0E00E94ED222AE832E054
:1039E00040E050E00E94CE2266277727CB01621B81
:1039F000730B840B950B0E94DF0D08C080E090E0F4
:103A00000E947D0C80E090E00E94270CE091E4028F
:103A1000F091E5020190F081E02DC680D780E0842E
:103A2000F18420E030E0A901C701B6010E940A2517
:103A3000181664F420E030E040EA50E4C701B60113
:103A40000E940A25181614F460E001C061E080911C
:103A5000DE020E9418100E9440020C94C2138838A3
:103A600091051CF082E792E0DACB8BE792E0D7CBAE
:103A7000EDEDF3E01382128288EE93E0A0E0B0E077
:103A800084839583A683B78328E331E03183208341
:103A900025EC30E03587248724EC30E03787268713
:103AA00020EC30E0318B208B21EC30E0338B228B0B
:103AB00022EC30E0358B248B26EC30E0378B268BE4
:103AC000118E128E138E148EEAE7F4E013821282A6
:103AD00084839583A683B78388E691E0918380836E
:103AE0000895EF920F931F93CF93DF93E80147FD63
:103AF00002C034E001C034E1042E000C550B57FF26
:103B000003C0519541955109E32E022F242FAE0198
:103B10000E94F61DCE01DF91CF911F910F91EF9082
:103B20000895662777270C94501F1F93FC0199274F
:103B30008827BC01E89411911032E9F3193010F094
:103B40001E30C8F31B3251F01D3249F4689406C090
:103B50000E94C71D610F711D811D911D1191105390
:103B60001A30B0F33EF490958095709561957F4F33
:103B70008F4F9F4F1F910895BB274A3031F49923EF
:103B800022F4BDE2909581959F4F0C94DD1D592F35
:103B9000482F372F262F660F771F881F991F660F14
:103BA000771F881F991F620F731F841F951F660F51
:103BB000771F881F991F0895BB27FB015527AA2748
:103BC000880F991FAA1FA41710F0A41B83955051AA
:103BD000B9F7A05DAA3308F0A95DA193009779F722
:103BE000B111B1931192CB010C949721A9E0B0E0EF
:103BF000ECEFFDE10C9406236A01122FB02E2BE3AB
:103C0000201720F0FF24F394F00E02C02CE3F22ED4
:103C10000F2D27E0AE014F5F5F4F0E949E20BC0139
:103C20004981842F8970813031F0E1FC06C0E0FECB
:103C300006C090E205C09DE203C09BE201C090E097
:103C40005E2D507143FF3CC0911102C083E001C062
:103C500084E0811718F4212F281B01C020E05111A6
:103C60000BC0F601822F30E2882319F03193815086
:103C7000FBCFC20ED11C20E0992329F0D6019C93E2
:103C8000F60131966F01C6010396E2FE0AC03EE4DA
:103C9000D6013C9341E411964C93119712963C93B4
:103CA00006C03EE6F601308341E641833283FC01E3
:103CB000322F40E2332309F442C041933150FACF0E
:103CC00042FF44C0911102C083E001C084E081172B
:103CD00018F4212F281B01C020E051110BC0F60160
:103CE000822F30E2882319F031938150FBCFC20E2E
:103CF000D11C20E0992329F0D6019C93F60131963E
:103D00006F01C6010396E2FE0BC039E4D6013C9375
:103D10003EE411963C93119736E412963C9307C00B
:103D200039E6F60130833EE6318336E63283FC0124
:103D3000322F40E2332319F041933150FBCFFC0185
:103D4000E20FF11D10828EEF9FEFA6C021E030E060
:103D5000911102C020E030E0161617061CF4FB019A
:103D6000319602C0E1E0F0E02E0F3F1FBB2021F0B2
:103D7000EB2DF0E0319602C0E0E0F0E02E0F3F1FA7
:103D8000E12FF0E02E173F071CF4121B212F01C07A
:103D900020E08E2D887159F4F601822F30E28823BD
:103DA00019F031938150FBCFC20ED11C20E0992332
:103DB00029F0D6019C93F60131966F0151110BC089
:103DC000F601822F90E3882319F091938150FBCF65
:103DD000C20ED11C20E00F2D060F9A81342F3071B6
:103DE00044FF03C0913309F40150101624F4093044
:103DF00018F008E001C001E0AB0177FF02C040E02D
:103E000050E0FB01E41BF50BA1E0B0E0AC0FBD1FDF
:103E1000EA0FFB1F8EE2A82E4B01801A91080B2D92
:103E200010E01195019511094F3FBFEF5B0721F499
:103E3000D601AC9211966D01641775072CF08416AB
:103E4000950614F4818101C080E3415051093196F7
:103E5000D60111967D014017510724F0D6018C93AD
:103E60006701E2CF6417750739F4963320F4953370
:103E700019F4311101C081E3F6018083F701822F2B
:103E800090E2882319F091938150FBCFF701E20F64
:103E9000F11D108280E090E02996ECE00C94222342
:103EA000A0E0B0E0E6E5FFE10C940623EC016B0135
:103EB0006115710519F0FB01918380837E01FFEF8D
:103EC000EF1AFF0A0881802F90E00E947621892B4B
:103ED00011F0E701F3CF0D3239F47E0182E0E80EF4
:103EE000F11C098111E008C00B3229F47E0192E037
:103EF000E90EF11C098110E0E701219743E050E051
:103F00006EE970E0CE010E947F21892BC1F42396D7
:103F100045E050E069E970E0CE010E947F21892BE5
:103F200009F42596C114D10419F0F601D183C08398
:103F30001111F6C060E070E080E89FE7FAC043E04E
:103F400050E066E970E0CE010E947F21892B59F490
:103F5000C114D10409F4E9C0F2E0EF0EF11CF6013E
:103F6000F182E082E2C020E030E0A901C0E0D0E0D0
:103F7000F70180EDA82EA00E89E08A1530F1912F6F
:103F80009260B92E812F887012FF04C0811124C065
:103F9000219622C081112197A5E0B0E00E94ED2278
:103FA000DC01CB01880F991FAA1FBB1F9C01AD012B
:103FB0002A0D311D411D511D283989E9380748074F
:103FC00089E1580748F0166006C09EEFA9120AC0A2
:103FD00013FD40C01860B12E8FEFE81AF80A008177
:103FE0001B2DC6CF802F8F7D8534A1F580818D322A
:103FF00011F4106106C08B3221F0319661E070E05F
:1040000004C08181329662E070E080538A3018F0FB
:10401000E61BF70B1FC060E070E060389CE079079A
:104020005CF4DB01AA0FBB1FAA0FBB1F6A0F7B1F2B
:10403000660F771F680F711D3196DF0111978C9104
:1040400080538A3050F314FF03C071956195710954
:10405000C60FD71F11FF08C0C114D10429F0CF012A
:104060000197F60191838083CA01B9010E94AC21B6
:10407000212F2370233019F04B015C0106C04B0146
:104080005C01B7FAB094B7F8B09420E030E0A90131
:10409000C501B4010E94A721882309F43EC0D7FFBF
:1040A00006C0D195C195D10905EB10E002C00DEC19
:1040B00010E06801F8E1CF1AD10890E2E92EF12C66
:1040C000CE15DF0574F0F801259135914591549195
:1040D000C501B4010E940D224B015C01CE19DF091C
:1040E000EFCF04501109F594E7940C151D0541F725
:1040F0008A2D880F8B2D881F8F3F49F020E030E0FC
:10410000A901C501B4010E94A721811106C082E264
:1041100090E09093B6048093B504C501B40109C042
:1041200060E070E080E89FEF04C060E070E080EC49
:104130009FE7CDB7DEB7ECE00C942223283008F0DF
:1041400027E03327DA01990F311D87FD9160009632
:104150006105710539F432602E5F3D9330E32A9595
:10416000E1F708959F3F30F080387105610509F04F
:104170003C5F3C5F3D93913008F08068911DDF9378
:10418000CF931F930F93FF92EF92192F987F9695DD
:10419000E92F96959695E90FFF27E55DFE4F992744
:1041A0003327EE24FF24A701E70105900894079424
:1041B00028F4360FE71EF81E491F511D660F771FA2
:1041C000881F991F0694A1F70590079428F4E70E1D
:1041D000F81E491F561FC11D770F881F991F661FA4
:1041E0000694A1F70590079428F4F80E491F561F6E
:1041F000C71FD11D880F991F661F771F0694A1F74F
:104200000590079420F4490F561FC71FD81F990F18
:10421000661F771F881F0694A9F784911095177061
:1042200041F0D695C79557954795F794E7941A9519
:10423000C1F7E1EDF0E06894159015913591659125
:10424000959105907FE27395E118F10A430B560BA7
:10425000C90BD009C0F7E10CF11E431F561FC91F3F
:10426000D01D7EF4703311F48A95E6CFE8940150A6
:1042700030F0080F0AF40027021708F4202F2395C6
:10428000022F7A3328F079E37D932A95E9F710C05D
:104290007D932A9589F60694979567953795179596
:1042A0001794E118F10A430B560BC90BD00998F08B
:1042B00023957E9173957A3308F070E37C932013F5
:1042C000B8F77E9170617D9330F0839571E37D93B3
:1042D00070E32A95E1F71124EF90FF900F911F9161
:1042E000CF91DF91992787FD9095089591110C94B6
:1042F0007A22803219F089508550C8F70895FB0161
:10430000DC014150504088F08D9181341CF08B3598
:104310000CF4805E659161341CF06B350CF4605ECA
:10432000861B611171F3990B0895881BFCCFDC018A
:10433000FC01672F71917723E1F7329704C07C91DC
:104340006D9370836291AE17BF07C8F308950E9402
:10435000E92108F481E00895E89409C097FB3EF450
:1043600090958095709561957F4F8F4F9F4F9923C2
:10437000A9F0F92F96E9BB279395F6958795779540
:104380006795B795F111F8CFFAF4BB0F11F460FF00
:104390001BC06F5F7F4F8F4F9F4F16C0882311F058
:1043A00096E911C0772321F09EE8872F762F05C06C
:1043B000662371F096E8862F70E060E02AF09A9507
:1043C000660F771F881FDAF7880F9695879597F9FC
:1043D0000895990F0008550FAA0BE0E8FEEF161696
:1043E0001706E807F907C0F012161306E407F507E9
:1043F00098F0621B730B840B950B39F40A2661F05D
:10440000232B242B252B21F408950A2609F4A140FF
:10441000A6958FEF811D811D08950E9420220C9486
:1044200094220E94862238F00E948D2220F095234B
:1044300011F00C947D220C94832211240C94C82238
:104440000E94A52270F3959FC1F3950F50E0551F70
:10445000629FF001729FBB27F00DB11D639FAA27D9
:10446000F00DB11DAA1F649F6627B00DA11D661F28
:10447000829F2227B00DA11D621F739FB00DA11D49
:10448000621F839FA00D611D221F749F3327A00D03
:10449000611D231F849F600D211D822F762F6A2F9F
:1044A00011249F5750409AF0F1F088234AF0EE0F04
:1044B000FF1FBB1F661F771F881F91505040A9F731
:1044C0009E3F510580F00C947D220C94C8225F3FE2
:1044D000E4F3983ED4F3869577956795B795F7956D
:1044E000E7959F5FC1F7FE2B880F911D96958795E5
:1044F00097F9089599278827089597F99F6780E885
:1045000070E060E008959FEF80EC089500240A9425
:104510001616170618060906089500240A9412169E
:104520001306140605060895092E0394000C11F4D1
:10453000882352F0BB0F40F4BF2B11F460FF04C07E
:104540006F5F7F4F8F4F9F4F089557FD9058440FD7
:10455000551F59F05F3F71F04795880F97FB991FE2
:1045600061F09F3F79F0879508951216130614069F
:10457000551FF2CF4695F1DF08C01616170618062C
:10458000991FF1CF86957105610508940895E89407
:10459000BB2766277727CB0197F90895052E97FB50
:1045A0001EF400940E94E52257FD07D00E94372395
:1045B00007FC03D04EF40C94E522509540953095BD
:1045C00021953F4F4F4F5F4F08959095809570957F
:1045D00061957F4F8F4F9F4F08950E945923A59F4C
:1045E000900DB49F900DA49F800D911D11240895EE
:1045F000B7FF0C94ED220E94ED22821B930B0895CD
:104600002F923F924F925F926F927F928F929F92E2
:10461000AF92BF92CF92DF92EF92FF920F931F93D0
:10462000CF93DF93CDB7DEB7CA1BDB0B0FB6F89481
:10463000DEBF0FBECDBF09942A88398848885F84C1
:104640006E847D848C849B84AA84B984C884DF8032
:10465000EE80FD800C811B81AA81B981CE0FD11D16
:104660000FB6F894DEBF0FBECDBFED010895A1E2F5
:104670001A2EAA1BBB1BFD010DC0AA1FBB1FEE1FDC
:10468000FF1FA217B307E407F50720F0A21BB30B27
:10469000E40BF50B661F771F881F991F1A9469F7A3
:1046A00060957095809590959B01AC01BD01CF01FF
:1046B0000895A29FB001B39FC001A39F700D811DFB
:1046C0001124911DB29F700D811D1124911D08951B
:1046D00097FB072E16F4009407D077FD09D00E94AF
:1046E000852307FC05D03EF4909581959F4F089552
:1046F000709561957F4F08952A153B054C055D0522
:104700006E057F05800791070895AA1BBB1B51E129
:1047100007C0AA1FBB1FA617B70710F0A61BB70B31
:10472000881F991F5A95A9F780959095BC01CD01D6
:104730000895EE0FFF1F0590F491E02D0994505855
:10474000BB27AA270E94B7230C9494220E9486229A
:1047500038F00E948D2220F039F49F3F19F426F49E
:104760000C9483220EF4E095E7FB0C947D22E92F54
:104770000E94A52258F3BA176207730784079507AA
:1047800020F079F4A6F50C94C7220EF4E0950B2ED8
:10479000BA2FA02D0B01B90190010C01CA01A00193
:1047A0001124FF27591B99F0593F50F4503E68F1EE
:1047B0001A16F040A22F232F342F4427585FF3CF2F
:1047C000469537952795A795F0405395C9F77EF400
:1047D0001F16BA0B620B730B840BBAF09150A1F049
:1047E000FF0FBB1F661F771F881FC2F70EC0BA0FCF
:1047F000621F731F841F48F4879577956795B79557
:10480000F7959E3F08F0B0CF9395880F08F0992751
:10481000EE0F979587950895DF93DD27B92FBF7722
:1048200040E85FE31616170648075B0718F4D92F10
:104830000E940F259F938F937F936F930E945D2516
:10484000E8E6F0E00E94E3240E9494222F913F9139
:104850004F915F910E942022DD2351F09058A2EAEF
:104860002AED3FE049EC5FE3D0785D270E94B72353
:10487000DF910C9494220E944F240C9494220E9465
:104880008D2258F00E94862240F029F45F3F29F0E3
:104890000C947D2251110C94C8220C9483220E9406
:1048A000A52268F39923B1F3552391F3951B550B7A
:1048B000BB27AA2762177307840738F09F5F5F4FF3
:1048C000220F331F441FAA1FA9F335D00E2E3AF032
:1048D000E0E832D091505040E695001CCAF72BD04A
:1048E000FE2F29D0660F771F881FBB1F261737079B
:1048F0004807AB07B0E809F0BB0B802DBF01FF27CD
:1049000093585F4F3AF09E3F510578F00C947D220A
:104910000C94C8225F3FE4F3983ED4F386957795D4
:104920006795B795F7959F5FC9F7880F911D969585
:10493000879597F90895E1E0660F771F881FBB1FE1
:10494000621773078407BA0720F0621B730B840B8E
:10495000BA0BEE1F88F7E09508950E94B42468947E
:10496000B1110C94C82208950E94AD2288F09F577F
:1049700098F0B92F9927B751B0F0E1F0660F771F83
:10498000881F991F1AF0BA95C9F714C0B13091F079
:104990000E94C722B1E008950C94C722672F782F98
:1049A0008827B85F39F0B93FCCF38695779567953E
:1049B000B395D9F73EF490958095709561957F4FAA
:1049C0008F4F9F4F0895DF93CF931F930F93FF92C5
:1049D000EF92DF927B018C01689406C0DA2EEF0122
:1049E0000E942022FE01E894A591259135914591E0
:1049F0005591A6F3EF010E94B723FE019701A8018C
:104A0000DA9469F7DF90EF90FF900F911F91CF91AB
:104A1000DF9108950E94E92108F48FEF08959B012A
:104A2000AC0160E070E080E89FE30C943B2419F453
:104A300016F40C9483220C9461250E94AD22B8F3E5
:104A40009923C9F3B6F39F57550B87FF0E946F2533
:104A50000024A0E640EA900180585695979528F4E6
:104A6000805C660F771F881F20F0261737074807DE
:104A700030F4621B730B840B202931294A2BA69535
:104A800017940794202531254A2758F7660F771F7A
:104A9000881F20F026173707480730F4620B730B86
:104AA000840B200D311D411DA09581F7B901842F84
:104AB0009158880F9695879508959B01AC010C94A9
:104AC0000D229F3F31F0915020F48795779567959F
:104AD000B795880F911D9695879597F908959150F0
:104AE0005040660F771F881FD2F708950F931F93CA
:104AF000CF93DF938230910510F482E090E0E09153
:104B0000B904F091BA0420E030E0A0E0B0E03097C2
:104B100019F1408151810281138148175907C8F06A
:104B20008417950769F4109731F012960C93129739
:104B300013961C9327C00093B9041093BA0422C0A3
:104B40002115310519F04217530718F49A01BD01D8
:104B5000EF01DF01F801DBCF21153105F9F0281B4A
:104B6000390B2430310580F48A819B8161157105F0
:104B700021F0FB019383828304C09093BA04809355
:104B8000B904FE01329644C0FE01E20FF31F819387
:104B9000919322503109398328833AC02091B70478
:104BA0003091B804232B41F420910201309103018C
:104BB0003093B8042093B704209100013091010193
:104BC0002115310541F42DB73EB7409104015091B4
:104BD0000501241B350BE091B704F091B804E217EE
:104BE000F307A0F42E1B3F0B2817390778F0AC0110
:104BF0004E5F5F4F2417350748F04E0F5F1F5093ED
:104C0000B8044093B7048193919302C0E0E0F0E0D0
:104C1000CF01DF91CF911F910F910895CF93DF9333
:104C2000009709F481C0FC01329713821282A0918F
:104C3000B904B091BA04109781F420813181820FB8
:104C4000931F2091B7043091B8042817390751F504
:104C5000F093B804E093B70467C0ED0120E030E0C2
:104C6000CE17DF0740F44A815B819E014115510553
:104C7000F1F0EA01F5CFD383C28340815181840FE3
:104C8000951FC817D90759F488819981840F951FFA
:104C90000296918380838A819B81938382832115ED
:104CA000310529F4F093BA04E093B9043DC0E90159
:104CB000FB83EA8349915991C40FD51FEC17FD0777
:104CC00061F480819181840F951F0296E901998397
:104CD0008883828193819B838A83E0E0F0E012964F
:104CE0008D919C911397009719F0FD01DC01F7CF8E
:104CF0008D919C9111979D012E5F3F4F820F931FC5
:104D00002091B7043091B8042817390769F4309717
:104D100029F41092BA041092B90402C013821282CC
:104D2000B093B804A093B704DF91CF910895A0E0A9
:104D3000B0E0EDE9F6E20C940423EC01009721F4D5
:104D4000CB010E947625B4C0FC01E60FF71F9C0141
:104D500022503109E217F30708F4A8C0D9010D91D8
:104D60001C91119706171707B0F00530110508F4CC
:104D70009BC0C80104978617970708F495C0025096
:104D80001109061B170B019311936D937C93CF01AF
:104D90000E940E2689C05B01A01AB10A4C01800E48
:104DA000911EA091B904B091BA04612C712CE12C30
:104DB000F12C109709F446C08D919C911197A8157C
:104DC000B905B1F56C0142E0C40ED11CCA14DB0474
:104DD00078F14C018A189B08640142E0C40ED11C92
:104DE0001296BC9012971396AC91B5E0CB16D104F5
:104DF00040F0B282A38391828082D9016D937C932B
:104E000009C00E5F1F4F800F911FF90191838083AE
:104E1000EB2DFA2FE114F10431F0D7011396FC9336
:104E2000EE93129741C0F093BA04E093B9043CC0EA
:104E30006816790608F43C017D0112960D90BC912C
:104E4000A02DB7CF8091B7049091B8048816990629
:104E5000E1F466167706C8F4809100019091010193
:104E6000009741F48DB79EB7409104015091050120
:104E7000841B950BE817F907C8F4F093B804E09386
:104E8000B704F901718360830FC0CB010E947625BE
:104E90007C01009759F0A801BE010E946227CE0153
:104EA0000E940E26C70104C0CE0102C080E090E03F
:104EB000CDB7DEB7EEE00C94202381E090E0F894CB
:104EC0000C949B27FB01DC0102C001900D92415024
:104ED0005040D8F70895FB01DC0101900D920020AD
:104EE000E1F70895FB01DC014150504048F001908A
:104EF0000D920020C9F701C01D9241505040E0F7CB
:104F00000895FB0151915523A9F0BF01DC014D919A
:104F100045174111E1F759F4CD010190002049F006
:104F20004D9140154111C9F3FB014111EFCF81E0D3
:0A4F300090E001970895F894FFCF78
:104F3A000000BB0420000000000063023E01AA0337
:104F4A006202B302CB024A02000000000000000025
:104F5A00ED02AD03AD0300000000EC02D603ED0242
:104F6A00D8037F0400000000D1013E0168011E023F
:104F7A00990177018B0100000000AD033E01AA03ED
:104F8A00A903AD03AD03AD0300000000AD033E016C
:104F9A00AA03A903000000007A034D03AA036202D0
:104FAA00450331032203094465746563746564002B
:104FBA00094E6F7468696E670043616C6962726159
:104FCA0074696E67002E000A446F6E652100507284
:104FDA006F6772616D207374617274656421002C4D
:104FEA00007273686F653A0009617809000961798E
:104FFA00090009617A090009790900097209000999
:10500A00700900097765696768743A0009730900CD
:10501A00096209006C73686F653A006368657374A6
:10502A003A0009615A090009616C740900094A7554
:10503A006D703A0043686573740942656E643A009C
:10504A000953747261696768740900526967687400
:10505A0020666F6F740957616C6B3A00094E6F7462
:10506A0068696E67090009437275697365000953B7
:10507A007465706261636B00095374657073696467
:10508A0065004C65667420666F6F740957616C6BB6
:10509A003A00096261636B7761726400096C656644
:1050AA00740009666F7277617264000972696768D1
:1050BA007400424E4F303535004F6F6F70732C209D
:1050CA006E6F20424E4F303535203120646574654D
:1050DA0063746564202E2E2E20436865636B2079E5
:1050EA006F757220776972696E67206F7220493214
:0C50FA0043204144445221000D0A0000F4
:00000001FF
